:100000000C9487000C94AF000C94AF000C94AF00DC
:100010000C94AF000C94AF000C94AF000C94AF00A4
:100020000C94AF000C94AF000C94AF000C94AF0094
:100030000C94AF000C94AF000C94AF000C94AF0084
:100040000C94811C0C94AF000C941E1E0C94651E25
:100050000C94AF000C94AF000C94AF000C94AF0064
:100060000C94AF000C94AF009813AE13670F820F7F
:10007000920FDB0FE50F12103F106C108A10AD10BD
:10008000E9101A1165118711A911CB11DE11EC11BC
:1000900013123B127F1288128F1292129B12B1120E
:1000A000DB12FF120213041315131B132C1334134A
:1000B0003D1300000000240027002A00000000007B
:1000C000250028002B000000000023002600290046
:1000D00004040404040404040202020202020303EE
:1000E00003030303010204081020408001020408F6
:1000F0001020010204081020000000070002010087
:10010000000304060000000000000000DC1F1124B2
:100110001FBECFEFD8E0DEBFCDBF11E0A0E0B1E061
:10012000E2E9F5E402C005900D92A231B107D9F7DA
:1001300015E0A2E1B1E001C01D92A031B107E1F7E5
:1001400011E0CEE0D1E004C02297FE010E94AD2272
:10015000CC30D107C9F70E94E41D0C94C7220C943F
:100160000000AF92BF92CF92DF92EF92FF920F9377
:100170001F93DF93CF93CDB7DEB760970FB6F89498
:10018000DEBF0FBECDBF69837A838B839C832D83B3
:100190003E834F835887E986FA860B871C87AD8696
:1001A000BE86CF86D88A9E012F5F3F4FE9E4F1E0FB
:1001B00063E070E0AE014F5E5F4FD901ED90FD90BE
:1001C0000D911D919D01E082F18202831383B89706
:1001D00071836083E15AFF4FA417B50771F780E080
:1001E00090E060960FB6F894DEBF0FBECDBFCF9102
:1001F000DF911F910F91FF90EF90DF90CF90BF9014
:10020000AF900895EF92FF920F931F93CF93DF93D8
:100210007A018B019C012150304087E390E0289FB8
:10022000E001299FD00D389FD00D1124CF5DDE4F06
:10023000215030402230310548F5CB01BA012BED79
:100240003FE049EC5FE30E94E02118165CF40F2EBA
:10025000FBEDEF2EFFE0FF2EF9EC0F2FFFE31F2F3A
:10026000F02D14C0C801B7012BED3FE049EC5FEB66
:100270000E949120882354F40F2EFBEDEF2EFFE017
:10028000FF2EF9EC0F2FFFEB1F2FF02D82E090E0F7
:1002900099838883EA82FB820C831D831B8A1A8AD6
:1002A00088EE93E0A0E0B0E08E8F9F8FA8A3B9A363
:1002B00080E090E0DF91CF911F910F91FF90EF9040
:1002C00008952F923F924F925F926F927F928F92FA
:1002D0009F92AF92BF92CF92DF92EF92FF920F93D5
:1002E0001F93CF93DF93582E492E3A014B0178018B
:1002F0008901019727E330E0829FE001839FD00DC1
:10030000929FD00D1124CF5DDE4F0197029748F5E3
:10031000CB01BA012BED3FE049EC5FE30E94E02105
:1003200018165CF40F2EFBED6F2EFFE07F2EF9EC1C
:100330008F2EFFE39F2EF02D14C0C401B3012BEDCF
:100340003FE049EC5FEB0E949120882354F40F2E8C
:10035000FBED6F2EFFE07F2EF9EC8F2EFFEB9F2E33
:10036000F02DC401B3012CA53DA54EA55FA50E94AB
:100370002C205B016C0120E030E040E050E00E9466
:10038000E02118165CF4C601B50125E33AEF4EE80A
:100390005DE30E94912088239CF40AC0C601B50148
:1003A00025E33AEF4EE85DEB0E94E021181644F495
:1003B000852D942DB401A3010E9402019C018BC0E4
:1003C000C801B70120E030E040E050E00E949120F9
:1003D00087FD03C0A801970103C0A80197015058E9
:1003E000C601B5010E94952020E030E04AE754E4C0
:1003F0000E94E4211B012C01C601B50120E030E080
:1004000040E050E00E94E02118165CF4C801B701FA
:1004100020E030E040E050E00E94912088237CF40E
:100420000AC0C801B70120E030E040E050E00E947F
:10043000912087FD04C017FB109517F91095E8A6C9
:10044000F9A60AA71BA78CA59DA5AEA5BFA58A8363
:100450009B83AC83BD8380E090E0A0E0B0E08E871A
:100460009F87A88BB98BC201B10120E030E040EA40
:1004700050E40E9495207B018C0120E030E040E0B8
:1004800050E00E94912088234CF4C201B10120E089
:1004900030E040EA50EC0E94952002C0C801B7014C
:1004A0000E94FD20CB01AA2797FDA095BA2F8E8F21
:1004B0009F8FA8A3B9A31B8A1A8A688E798E8A8E09
:1004C0009B8E81E090E09D8F8C8F83E090E09983FC
:1004D000888320E030E0C901DF91CF911F910F9117
:1004E000FF90EF90DF90CF90BF90AF909F908F9054
:1004F0007F906F905F904F903F902F9008952F9234
:100500003F924F925F926F927F928F929F92AF92A3
:10051000BF92CF92DF92EF92FF920F931F93CF93F0
:10052000DF93582E492E3A014B017801890101973A
:1005300027E330E0829FE001839FD00D929FD00D92
:100540001124CF5DDE4F0197029748F5CB01BA0128
:100550002BED3FE049EC5FE30E94E02118165CF4CC
:100560000F2EFBED6F2EFFE07F2EF9EC8F2EFFE3B9
:100570009F2EF02D14C0C401B3012BED3FE049ECD8
:100580005FEB0E949120882354F40F2EFBED6F2E19
:10059000FFE07F2EF9EC8F2EFFEB9F2EF02D68A948
:1005A00079A9882777FD8095982F0E9430212BED1F
:1005B0003FE049EC50E40E94E4212CA53DA54EA566
:1005C0005FA50E942D209B01AC01C401B3010E94D4
:1005D0002C205B016C0120E030E040E050E00E9404
:1005E000E02118165CF4C601B50125E33AEF4EE8A8
:1005F0005DE30E94912088239CF40AC0C601B501E6
:1006000025E33AEF4EE85DEB0E94E021181644F432
:10061000852D942DB401A3010E9402019C018BC081
:10062000C801B70120E030E040E050E00E94912096
:1006300087FD03C0A801970103C0A8019701505886
:10064000C601B5010E94952020E030E04AE754E45D
:100650000E94E4211B012C01C601B50120E030E01D
:1006600040E050E00E94E02118165CF4C801B70198
:1006700020E030E040E050E00E94912088237CF4AC
:100680000AC0C801B70120E030E040E050E00E941D
:10069000912087FD04C017FB109517F91095E8A667
:1006A000F9A60AA71BA78CA59DA5AEA5BFA58A8301
:1006B0009B83AC83BD8380E090E0A0E0B0E08E87B8
:1006C0009F87A88BB98BC201B10120E030E040EADE
:1006D00050E40E9495207B018C0120E030E040E056
:1006E00050E00E94912088234CF4C201B10120E027
:1006F00030E040EA50EC0E94952002C0C801B701EA
:100700000E94FD20CB01AA2797FDA095BA2F8E8FBE
:100710009F8FA8A3B9A31B8A1A8A688E798E8A8EA6
:100720009B8E81E090E09D8F8C8F83E090E0998399
:10073000888320E030E0C901DF91CF911F910F91B4
:10074000FF90EF90DF90CF90BF90AF909F908F90F1
:100750007F906F905F904F903F902F900895EF9211
:10076000FF920F931F93CF93DF93EC017A018B01DC
:10077000CB01BA0122E93AE046E050E40E94E021D0
:1007800018161CF421E030E01EC0219787E390E0AA
:10079000C89FF001C99FF00DD89FF00D1124EF5DA7
:1007A000FE4FE0A6F1A602A713A783E090E0918395
:1007B00080838FEF9FEFAFEFBFEF868F978FA0A360
:1007C000B1A320E030E0C901DF91CF911F910F91DB
:1007D000FF90EF9008951F939C018430910519F4C8
:1007E000709561957F4F6138710564F48FEF6038C3
:1007F00078071CF460E87FEF02C077FF05C0162F72
:10080000119503C060E870E0162F2150304087E357
:1008100090E0289FF001299FF00D389FF00D1124E2
:100820002F5F3F4FEF5DFE4F15A32230310549F199
:10083000233031052CF42130310509F070C008C097
:1008400023303105B9F12430310509F068C04BC0BF
:10085000161617061CF484E061E00BC0672B39F014
:1008600084E060E00E94B11D8DE061E006C084E09C
:1008700060E00E94B11D8DE060E00E94B11D8BE040
:100880004AC0161617061CF485E061E00BC0672B02
:1008900039F085E060E00E94B11D82E061E006C0B1
:1008A00085E060E00E94B11D82E060E00E94B11D21
:1008B00083E031C0161617061CF487E061E00BC018
:1008C000672B39F087E060E00E94B11D86E061E0AF
:1008D00006C087E060E00E94B11D86E060E00E94F3
:1008E000B11D89E018C0161617061CF488E061E0F7
:1008F0000BC0672B39F088E060E00E94B11D8CE0EE
:1009000061E006C088E060E00E94B11D8CE060E01C
:100910000E94B11D8AE0612F70E00E94211C1F918E
:1009200008950F931F93CF93DF9301E211E0C0E08E
:10093000D0E0F801118210822196CE0160E070E0D3
:100940000E94EB03095C1F4FC430D10591F780E092
:1009500090E0DF91CF911F910F9108952F923F92D8
:100960004F925F926F927F928F929F92AF92BF92BF
:10097000CF92DF92EF92FF920F931F93DF93CF936B
:1009800000D000D0CDB7DEB71C013A014B015801B1
:10099000690108942108310887E390E0289E20012E
:1009A000299E500C389E500C11240894211C311C97
:1009B00081E291E0480E591EC1010297029748F565
:1009C000CB01BA012BED3FE049EC5FE30E94E0214F
:1009D00018165CF40F2EFBED6F2EFFE07F2EF9EC66
:1009E0008F2EFFE39F2EF02D14C0C401B3012BED19
:1009F0003FE049EC5FEB0E949120882354F40F2ED6
:100A0000FBED6F2EFFE07F2EF9EC8F2EFFEB9F2E7C
:100A1000F02D91E02916310421F0E4E02E16310486
:100A200061F4C401B301F20124A535A546A557A57B
:100A30000E942C200E94DA0B09C0C401B301F2010C
:100A400024A535A546A557A50E942C207B018C0125
:100A500020E030E040E050E00E94E02118165CF415
:100A6000C801B70125E33AEF4EE85DE30E9491200B
:100A7000882394F40AC0C801B70125E33AEF4EE891
:100A80005DEB0E94E02118163CF4C101B401A30102
:100A90000E9402019C0194C0C601B50120E030E033
:100AA00040E050E00E94912087FD03C0A60195011F
:100AB00003C0A60195015058C801B7010E949520B6
:100AC00020E030E04AE754E40E94E42169837A831D
:100AD0008B839C83C801B70120E030E040E050E008
:100AE0000E94E02118165CF4C601B50120E030E058
:100AF00040E050E00E94912088237CF40AC0C601A7
:100B0000B50120E030E040E050E00E94912087FDF8
:100B100004C0D7FAD094D7F8D094F201A0A6B1A619
:100B2000C2A6D3A6F20184A595A5A6A5B7A58283E2
:100B30009383A483B58380E090E0A0E0B0E0868753
:100B40009787A08BB18B69817A818B819C8120E012
:100B500030E040EA50E40E9495207B018C0120E0C7
:100B600030E040E050E00E94912088235CF46981ED
:100B70007A818B819C8120E030E040EA50EC0E9439
:100B8000952002C0C801B7010E94FD20CB01AA2711
:100B900097FDA095BA2FF201868F978FA0A3B1A3DE
:100BA000138A128A608E718E828E938E81E090E01D
:100BB000958F848F83E090E09183808320E030E004
:100BC000C9010F900F900F900F90CF91DF911F915F
:100BD0000F91FF90EF90DF90CF90BF90AF909F90DC
:100BE0008F907F906F905F904F903F902F900895DF
:100BF000FC011182108220E030E040E050E02283CE
:100C000033834483558380EE9EE2A5EEB3E486836E
:100C10009783A087B18788E293EEABE2B3E4828743
:100C20009387A487B58726873787408B518B138A94
:100C3000128A158A148A178A168A208F318F428F5A
:100C4000538F158E148E8FEF9FEFAFEFBFEF868F10
:100C5000978FA0A3B1A38FEF9FEF93A382A380E808
:100C600084A38BED9FE0A9E4BFE380A791A7A2A78F
:100C7000B3A711AA10AA0895EF92FF920F931F93A2
:100C80000E94C91C9B01AC0180910D0390910E0341
:100C9000A0910F03B091100379018A01E81AF90AB3
:100CA0000A0B1B0BD801C7010597A105B10570F010
:100CB00020930D0330930E0340930F0350931003C2
:100CC0000E94FC170E9470080E94820E0E94C01BA6
:100CD0000E94600C1F910F91FF90EF9008956F920A
:100CE0007F928F929F92AF92BF92CF92DF92EF92BC
:100CF000FF920F931F93DF93CF93CDB7DEB7C4540A
:100D0000D0400FB6F894DEBF0FBECDBF00E010E0BC
:100D100097E3E92EF12C0E9DC0010F9D900D1E9DB5
:100D2000900D11248F5D9E4F0E94F8050F5F1F4F9D
:100D30000430110581F787E061E00E945E1D88E0C4
:100D400061E00E945E1D89E061E00E945E1D89E015
:100D500090E068E070E00E946A0B86E061E00E942B
:100D60005E1D85E061E00E945E1D8AE061E00E94F8
:100D70005E1D8AE090E068E070E00E946A0B84E00B
:100D800061E00E945E1D82E061E00E945E1D83E0E2
:100D900061E00E945E1D83E090E068E070E00E94E8
:100DA0006A0B8CE061E00E945E1D8DE061E00E94B4
:100DB0005E1D8BE061E00E945E1D8BE090E068E0CC
:100DC00070E00E946A0B81EF94E040E051EE60E039
:100DD00070E00E94AE1E81EF94E00E948E1F8EE0B4
:100DE00061E00E945E1D0E94F916892B09F461C022
:100DF00010921201109213013E010894611C711CA3
:100E0000C3014BED5FE069E471E40BED1FE029ECF9
:100E10003FE3680179014A015B010E940D0C8DB727
:100E20009EB782970FB6F8949EBF0FBE8DBFADB729
:100E3000BEB71196F30182E201900D928150E1F765
:100E40000E943F0C83E2682E712C6C0E7D1E8DB7C4
:100E50009EB782960FB6F8949EBF0FBE8DBFC3019A
:100E600040E050E060E070E00BED1FE029EC3FEB6C
:100E7000680179014A015B010E940D0C8DB79EB794
:100E800082970FB6F8949EBF0FBE8DBFADB7BEB7A9
:100E90001196F30182E201900D928150E1F70E94D8
:100EA0003F0C8DB79EB782960FB6F8949EBF0FBECB
:100EB0008DBF8EE061E00E94B11D1092140110926E
:100EC000150184E690E090931C0180931B0183EC54
:100ED00098EBA2E3BEE380931D0190931E01A093C3
:100EE0001F01B093200110921A01CC5BDF4F0FB6A7
:100EF000F894DEBF0FBECDBFCF91DF911F910F9150
:100F0000FF90EF90DF90CF90BF90AF909F908F9029
:100F10007F906F90089587E00E94FF1BAA2797FD9E
:100F2000A095BA2FBC01CD010E94302120E030E015
:100F300040E85AE30E94E42120E030E040EA50E437
:100F40000E94E42108950E948B0720E030E040EAEF
:100F500050E40E942C2020E030E040E050E00E946D
:100F60009120882394F40E948B0720E030E040EA2F
:100F700050E40E942C202DEC3CEC4CEC5DEB0E94EC
:100F8000E02118160CF4AAC010C00E948B0720E0C4
:100F900030E040EA50E40E942C202DEC3CEC4CEC7C
:100FA0005DE30E94912087FD99C00E948B0720E09D
:100FB00030E040E250E40E942C2020E030E040E0AD
:100FC00050E00E94912088238CF40E948B0720E03F
:100FD00030E040E250E40E942C202DEC3CEC4CEC44
:100FE0005DEB0E94E02118168CF012C00E948B0766
:100FF00020E030E040E250E40E942C202DEC3CEC5C
:101000004CEC5DE30E949120882314F481E0089564
:101010000E948B072DE33AE047E550E40E942C2024
:1010200020E030E040E050E00E94912088238CF4E2
:101030000E948B072DE33AE047E550E40E942C2004
:101040002DEC3CEC4CEC5DEB0E94E02118168CF092
:1010500012C00E948B072DE33AE047E550E40E945E
:101060002C202DEC3CEC4CEC5DE30E94912088237D
:1010700014F482E008950E948B0727ED33EA40E0E4
:1010800050E40E942C2020E030E040E050E00E943C
:10109000912088238CF40E948B0727ED33EA40E0EF
:1010A00050E40E942C202DEC3CEC4CEC5DEB0E94BB
:1010B000E02118168CF012C00E948B0727ED33EA4E
:1010C00040E050E40E942C202DEC3CEC4CEC5DE325
:1010D0000E949120882314F483E0089580E008950D
:1010E0002F923F924F925F926F927F928F929F9238
:1010F000AF92BF92CF92DF92EF92FF920F931F9326
:10110000DF93CF93CDB7DEB7CB51D1400FB6F89474
:10111000DEBF0FBECDBF0E94A307C55EDE4F888332
:10112000CB51D14010911D0318270E94C91C1B01EF
:101130002C01112309F48BC28091110390911203A9
:10114000A0911303B0911403A2019101281B390B44
:101150004A0B5B0BDA01C901895E9340A040B040A5
:1011600008F475C280911A01882359F180E28983BD
:101170008AE08A832092190330921A0340921B035B
:1011800050921C032B823C824D825E821F83C55E7F
:10119000DE4F8881CB51D14081238887C55EDE4FE9
:1011A0008881CB51D1408095812389871A8681EF30
:1011B00094E0BE016F5F7F4F4AE050E00E94F31D54
:1011C0003EC2812F90E0C55EDE4F4881CB51D140B9
:1011D000242F30E082239323892BB9F084E690E01A
:1011E000A0E0B0E08093160190931701A09318013E
:1011F000B093190183E0809315012092150330927A
:1012000016034092170350921803C55EDE4F888183
:10121000CB51D1408095812309F411C20E94AC0EBC
:1012200020911D03213009F0B9C1809115039091DF
:101230001603A0911703B0911803B201A101481B36
:10124000590B6A0B7B0BDB01CA01895B9B40A040F9
:10125000B04008F4ECC110921201109213012093D7
:10126000140181E090E04BED5FE069EC7FE30E94C8
:10127000AF0382E090E04BED5FE069EC7FE30E941A
:10128000AF0383E090E04BED5FE069EC7FE30E9409
:10129000AF0384E090E04BED5FE069EC7FE30E94F8
:1012A000AF03FBE06F2E712C6C0E7D1EC3014BED66
:1012B0005FE069EC7FE38A019B016A017B014A01DF
:1012C0005B010E940D0C6DB77EB7625270400FB685
:1012D000F8947EBF0FBE6DBFADB7BEB71196F301D8
:1012E00082E201900D928150E1F70E943F0CEDE205
:1012F0006E2E712C6C0E7D1E8DB79EB782960FB62A
:10130000F8949EBF0FBE8DBFC3014BED5FE069E453
:1013100070E400E010E020E030E0680179014A016B
:101320005B010E940D0CEDB7FEB7B2970FB6F894B3
:10133000FEBF0FBEEDBFADB7BEB71196F30182E29F
:1013400001900D928150E1F70E943F0C7FE4672EDF
:10135000712C6C0E7D1E2DB73EB72E5D3F4F0FB624
:10136000F8943EBF0FBE2DBFC30144EE5BEC66E9AF
:1013700070E40BED1FE029EC3FEB680179014A01B5
:101380005B010E940D0C4DB75EB7425250400FB644
:10139000F8945EBF0FBE4DBFADB7BEB71196F30157
:1013A00082E201900D928150E1F70E943F0C61E7CB
:1013B000662E712C6C0E7D1E6DB77EB76E5D7F4FF5
:1013C0000FB6F8947EBF0FBE6DBFC30140E050E082
:1013D00060E070E08A019B016A017B014A015B01C8
:1013E0000E940D0C8DB79EB782970FB6F8949EBFE2
:1013F0000FBE8DBFADB7BEB71196F30182E201906B
:101400000D928150E1F70E943F0C53E9652E712C3B
:101410006C0E7D1EEDB7FEB7B2960FB6F894FEBF08
:101420000FBEEDBFC3014BED5FE069EC7FEB0BED51
:101430001FE029EC3FE3680179014A015B010E944A
:101440000D0C2DB73EB7225230400FB6F8943EBF78
:101450000FBE2DBFADB7BEB71196F30182E201906A
:101460000D928150E1F70E943F0C45EB642E712CE8
:101470006C0E7D1E4DB75EB74E5D5F4F0FB6F89494
:101480005EBF0FBE4DBFC3014BED5FE069E470EC82
:1014900000E010E020E030E0680179014A015B01E2
:1014A0000E940D0C6DB77EB7625270400FB6F89473
:1014B0007EBF0FBE6DBFADB7BEB71196F30182E21E
:1014C00001900D928150E1F70E943F0C37ED632EA1
:1014D000712C6C0E7D1E8DB79EB782960FB6F89458
:1014E0009EBF0FBE8DBFC30144EE5BEC66E970EC9E
:1014F0000BED1FE029EC3FEB680179014A015B012C
:101500000E940D0CEDB7FEB7B2970FB6F894FEBF70
:101510000FBEEDBFADB7BEB71196F30182E20190E9
:101520000D928150E1F70E943F0C29EF622E712C41
:101530006C0E7D1E2DB73EB72E5D3F4F0FB6F89453
:101540003EBF0FBE2DBFC30140E050E060E070E041
:101550008A019B016A017B014A015B010E940D0C1B
:101560004DB75EB7425250400FB6F8945EBF0FBE03
:101570004DBFADB7BEB71196F30182E201900D9257
:101580008150E1F70E943F0C6DB77EB76E5D7F4FD3
:101590000FB6F8947EBF0FBE6DBF49C0223009F070
:1015A00042C091E2E92E91E0F92E20E030E001E026
:1015B00010E0F70180819181892B51F0C80160E032
:1015C00070E00E94EB03F7011182108221E030E00D
:1015D0000F5F1F4F47E350E0E40EF51E0530110585
:1015E00041F7232B21F581E5C82E81E0D82EEE248A
:1015F000FF24F601118210820894E11CF11CC7013E
:1016000040E050E060E070E00BED1FE029EC3FE3CC
:101610000E94610127E330E0C20ED31E34E0E316DE
:10162000F10439F704C0233011F40E94CC17209242
:10163000110330921203409213035092140320922C
:1016400015033092160340921703509218038091AD
:101650001A018823E1F4C55EDE4F4881CB51D140A9
:101660004130A9F40E94C91C209115033091160342
:101670004091170350911803621B730B840B950B59
:10168000695B7B408040904010F00E94AC0EC55ECC
:10169000DE4F6881CB51D14060931D0380E090E024
:1016A000C55EDE4F0FB6F894DEBF0FBECDBFCF9143
:1016B000DF911F910F91FF90EF90DF90CF90BF903F
:1016C000AF909F908F907F906F905F904F903F90E2
:1016D0002F9008959C01255030402230310530F084
:1016E0008930910519F08A30910579F560347105DA
:1016F000C1F06134710544F46130710581F06830E6
:10170000710509F056C009C081E06030780759F0D2
:101710006050744009F04DC008C092E007C091E0ED
:1017200005C093E003C094E001C095E0223031058C
:1017300028F485B5887F982B95BD08958091810008
:10174000887F982B9093810008958330910511F044
:101750000B9779F560347105F9F06134710554F433
:101760006830710599F060327105A1F06130710542
:1017700001F50EC081E06030780791F084E06030C0
:10178000780781F060387105A1F408C092E00BC0C1
:1017900091E009C093E007C094E005C095E003C064
:1017A00096E001C097E08091B100887F982B9093DC
:1017B000B1000895EF92FF920F931F9308C0C801E4
:1017C000B7012BED3FE049EC50E40E942D207B0156
:1017D0008C012BED3FE049E450EC0E94912087FD05
:1017E000EECF0AC0C801B7012BED3FE049EC50E451
:1017F0000E942C207B018C01C801B7012BED3FE03A
:1018000049E450E40E94E021181664F3B701C801CE
:101810001F910F91FF90EF9008958F929F92AF923A
:10182000BF92CF92DF92EF92FF920F931F93DF93BD
:10183000CF93CDB7DEB7FC011182108217821682DA
:1018400011861086428753876487758706871787B6
:10185000208B318BC28AD38AE48AF58A868A978A5A
:10186000A08EB18ECF91DF911F910F91FF90EF90DD
:10187000DF90CF90BF90AF909F908F900895DF93AF
:10188000CF93CDB7DEB720911301822F90E0FC01FA
:1018900045E0EE0FFF1F4A95E1F7880F991FE80F0B
:1018A000F91FE350FE4FDE01159682E20D90019282
:1018B0008150E1F72F5F20931301CF91DF910895BD
:1018C0008F929F92AF92BF92CF92DF92EF92FF9250
:1018D0000F931F93CF93DF9380911401882309F412
:1018E0003CC12091120190911301291790F01092A0
:1018F0001201E3E0F2E082E2989FC00111248E0F12
:101900009F1F03C011821082B296E817F907D1F722
:1019100024C1C22EDD2410921F0310921E038601E3
:10192000000F111FC60135E0880F991F3A95E1F7A6
:10193000080F191F8DEF882E81E0982E800E911EC2
:10194000F401C081D181C130D10541F0C230D1054F
:1019500009F49EC0CD2B09F450C0FFC0F40186816C
:101960009781892BA9F40E94C91CF60104E0EE0FAF
:10197000FF1F0A95E1F7EC0DFD1DEE0FFF1FE15073
:10198000FE4F6083718382839383F401D783C68380
:101990000E94C91CF601EE0FFF1F9601A5E0220F61
:1019A000331FAA95E1F7E20FF31FE350FE4FE084E7
:1019B000F1840027F7FC0095102FF60154E0EE0F9C
:1019C000FF1F5A95E1F7EC0DFD1DEE0FFF1FE150D3
:1019D000FE4F2081318142815381E20EF31E041FAC
:1019E000151FE616F7060807190708F0B6C080911C
:1019F00012018F5F80931201B0C0F401868197813C
:101A0000892B69F0E3E3F1E080819181892B09F46E
:101A1000A4C0F79682E0EF30F807B1F79BC00E94B0
:101A2000C91CF60134E0EE0FFF1F3A95E1F7EC0D0B
:101A3000FD1DEE0FFF1FE150FE4F60837183828317
:101A400093837801E7E0F2E0EE0EFF1EC0E0D0E005
:101A50002196F70141915191619171917F01CE01E0
:101A600002E91AE026E83FE30E94AE04C430D10543
:101A700079F7F60115E0EE0FFF1F1A95E1F7CC0C90
:101A8000DD1CEC0DFD1DE350FE4F81E090E05FC0DA
:101A9000F40186819781E601A4E0CC0FDD1FAA95B1
:101AA000E1F7892B91F10E94C91CF401E084F184D3
:101AB0000027F7FC0095102FCC0DDD1DCC0FDD1F8E
:101AC000C150DE4F288139814A815B81E20EF31ECD
:101AD000041F151FE616F70608071907F0F5809191
:101AE00012018F5F80931201109222011092210146
:101AF00010925901109258011092900110928F018A
:101B00001092C7011092C60128C00E94C91CCC0DBA
:101B1000DD1DCC0FDD1FC150DE4F688379838A83C2
:101B20009B83F40162857385848595852685378539
:101B300040895189E288F38804891589A688B78885
:101B4000C08CD18C0E94B10081E090E0F4019783B9
:101B5000868303C02F5F20931201DF91CF911F91E5
:101B60000F91FF90EF90DF90CF90BF90AF909F903C
:101B70008F9008950F931F93CF93DF938C019C0157
:101B80002150304087E390E0289FE001299FD00D4D
:101B9000389FD00D1124CF5DDE4F8E899F89813013
:101BA000910531F568A579A58AA59BA520E030E0CF
:101BB00040E050E00E949120882309F477C083E040
:101BC00090E0998388838FEF9FEFAFEFBFEF8E8F09
:101BD0009F8FA8A3B9A38CA59DA5AEA5BFA58A83F9
:101BE0009B83AC83BD8348A559A56AA57BA529C065
:101BF0008230910551F568A579A58AA59BA520E0BD
:101C000030E040E050E00E949120882309F44EC06B
:101C100083E090E0998388838FEF9FEFAFEFBFEF72
:101C20008E8F9F8FA8A3B9A38CA59DA5AEA5BFA598
:101C30008A839B83AC83BD8348A559A56AA57BA5F0
:101C40007058C8010E94AF0331C0009741F4198257
:101C50001882C80160E070E00E94EB0327C0039780
:101C600029F5888199818230910539F48A899B8987
:101C7000892B51F01D8A1C8A19C0039729F44A81C7
:101C80005B816C817D810FC087E390E0289FF0012C
:101C9000299FF00D389FF00D1124EF5DFE4F44A5F4
:101CA00055A566A577A5C8010E940201DF91CF91D5
:101CB0001F910F9108950F931F93CF93DF938C0182
:101CC000EB0181EF94E060E10E94A01FCE018D5FE7
:101CD000682F81EF94E00E94A01F1C161D0634F4AB
:101CE00081EF94E0B801AE010E94F31D81EF94E012
:101CF00061E10E94A01F80E090E0DF91CF911F91F1
:101D00000F91089580911501882329F10E94C91C23
:101D1000209116013091170140911801509119013D
:101D20000E946E2220FF11C08EE061E00E94B11D72
:101D300080914803882329F4809115018150809374
:101D4000150181E08093480308958EE060E00E94D1
:101D5000B11D109248030895CF93DF93C0E0D0E007
:101D60008EE060E00E94B11D64E670E080E090E0EB
:101D70000E94FD1C8EE061E00E94B11D64E670E0EF
:101D800080E090E00E94FD1C2196C330D10541F710
:101D9000DF91CF910895CF93DF93C0E0D0E08EE044
:101DA00061E00E94B11D64E670E080E090E00E9476
:101DB000FD1C8EE060E00E94B11D64E670E080E0F2
:101DC00090E00E94FD1C2196CA30D10541F7DF91B9
:101DD000CF9108950E94FF1BAA2797FDA095BA2FC7
:101DE000BC01CD010E94302120E030E040EA50E407
:101DF0000E94E42120E030E040E85AE30E94E42120
:101E000008954F925F926F927F928F929F92AF92BE
:101E1000BF92CF92DF92EF92FF920F931F93DF93C7
:101E2000CF93CDB7DEB72C970FB6F894DEBF0FBEB9
:101E3000CDBF6C01FB01E80FF91F3197808188232A
:101E400091F081EF94E06FEF0E94A01F81EF94E08A
:101E500063E00E94A01F81EF94E061E10E94A01F57
:101E60002FEF3FEF7DC4D6018C91823461F0833433
:101E700038F48233D8F0863330F08E33B9F403C0AF
:101E80008454833098F4F6018281843078F081EFB5
:101E900094E06FEF0E94A01F81EF94E063E00E9446
:101EA000A01F81EF94E061E10E94A01FD6018C91F8
:101EB00090E0FC01F097E532F10508F040C4EC5CDD
:101EC000FF4FEE0FFF1F0590F491E02D0994F601EE
:101ED000828190E027E330E0829FF001839FF00D44
:101EE000929FF00D1124EF5DFE4FD60113968C9159
:101EF0001397868B178A12968C9190E001960E9418
:101F0000BA0D16C4F601828190E027E330E0829F8B
:101F1000F001839FF00D929FF00D1124EF5DFE4FB5
:101F200086899BC3F60183819481A581B6818983CB
:101F30009A83AB83BC83E980FA800B811C81C80142
:101F4000B70120E030E040E050E00E94912088237B
:101F500024F417FB109517F91095E982FA820B8388
:101F60001C83C801B70122E93AE046E050E40E9430
:101F7000E021181644F482E99AE0A6E0B0E48983EF
:101F80009A83AB83BC83D60112968C9190E027E3B1
:101F900030E0829FF001839FF00D929FF00D11249D
:101FA000EF5DFE4F89819A81AB81BC8180A791A7AB
:101FB000A2A7B3A7BDC3D6011296EC9187E3E89F11
:101FC000F0011124E75BFE4F02C222E0A22EB12CE9
:101FD000AC0CBD1C99E4C92E91E0D92EEE24FF244F
:101FE000F50181919191A191B1915F0189839A83CA
:101FF000AB83BC830894E11CF11C49815A816B813D
:102000007C81D6010D911D912D913C91C7010E94BB
:102010006101E7E3F0E0CE0EDF1EF4E0EF16F1041D
:10202000F9F686C382E0A82EB12CAC0CBD1C09E4E5
:10203000C02E01E0D02EEE24FF24F5018191919174
:10204000A191B1915F0189839A83AB83BC8308948A
:10205000E11CF11C49815A816B817C81D6010D9173
:102060001D912D913C91C7010E947F02E7E3F0E0B2
:10207000CE0EDF1EF4E0EF16F104F9F659C312E0BC
:10208000A12EB12CAC0CBD1CB9E4CB2EB1E0DB2EE3
:10209000EE24FF24F50181919191A191B1915F010D
:1020A00089839A83AB83BC830894E11CF11C49812A
:1020B0005A816B817C81D6010D911D912D913C91AE
:1020C000C7010E94AE04E7E3F0E0CE0EDF1EF4E0AD
:1020D000EF16F104F9F62CC3A2E0EA2EF12CEC0C79
:1020E000FD1C00E010E0F70181919191A191B19167
:1020F0007F0189839A83AB83BC830F5F1F4F498124
:102100005A816B817C81C8010E9402010430110553
:1021100051F70EC320E030E040E050E067E370E0AC
:10212000FA01E05EFC4F269FD001279FB00D369F3D
:10213000B00D1124A35BBE4F8D919D910D90BC916C
:10214000A02D80839183A283B3832F5F3F4F4C5F89
:102150005F4F2430310521F737C00DE411E0EE2444
:10216000FF24D80114966D917C911597882777FDEF
:102170008095982F0E9430212BED3FE049EC50E4F0
:102180000E94E4219B01AC01F80160817181828190
:1021900093810E942D2069837A838B839C83F7012E
:1021A000E05EFC4F89819A81AB81BC818083918301
:1021B000A283B383095C1F4F84E090E0E80EF91E10
:1021C00092E00932190769F680E293E060E170E07D
:1021D000B3C20E94C91C6D837E838F8398876093EE
:1021E000200370932103809322039093230320E024
:1021F00030E044E050E067E370E0FA01E05EFC4F5D
:10220000269FD001279FB00D369FB00D1124A35BF0
:10221000BE4F8D919D910D90BC91A02D8083918397
:10222000A283B3834C5F5F4F2F5F3F4F2430310554
:1022300021F746C00E94C91C6D837E838F839887D7
:1022400060932003709321038093220390932303D0
:102250000DE411E0F4E0EF2EF12CD80114966D910D
:102260007C911597882777FD8095982F0E943021C3
:102270002BED3FE049EC50E40E94E4219B01AC01CE
:10228000F80160817181828193810E942D20698390
:102290007A838B839C83F701E05EFC4F89819A816E
:1022A000AB81BC8180839183A283B383095C1F4F80
:1022B00084E090E0E80EF91E92E00932190769F611
:1022C00080E293E064E170E037C2F601838194819B
:1022D000A581B68189839A83AB83BC83828190E098
:1022E00049815A816B817C8127E330E0829FF00134
:1022F000839FF00D929FF00D1124EF5DFE4F00A51E
:1023000011A522A533A501960E94610111C2F60113
:1023100083819481A581B68189839A83AB83BC83B1
:10232000828190E049815A816B817C8127E330E092
:10233000829FF001839FF00D929FF00D1124EF5DBD
:10234000FE4F00A511A522A533A501960E947F028C
:10235000EFC1F60183819481A581B68189839A8337
:10236000AB83BC83828190E049815A816B817C81FF
:1023700027E330E0829FF001839FF00D929FF00DE4
:102380001124EF5DFE4F00A511A522A533A50196EE
:102390000E94AE04CDC1F60183819481A581B681EE
:1023A00089839A83AB83BC83828190E049815A817F
:1023B0006B817C8101960E940201BAC1D6011296FE
:1023C000EC9187E3E89FF0011124E35BFE4F8081ED
:1023D0009181A281B381E2C0F601828190E027E37E
:1023E00030E0829FF001839FF00D929FF00D112449
:1023F000EF5DFE4FE4A4F5A406A517A560A971A999
:10240000882777FD8095982F0E9430212BED3FE0A3
:1024100049EC50E40E94E4219B01AC01C801B701E2
:102420000E942D20B3C00E94C91C6D837E838F83C0
:1024300098876093200370932103809322039093E5
:102440002303D6011296EC9187E3E89FF001112453
:10245000E35BFE4F80819181A281B381809324034D
:1024600090932503A0932603B093270380E293E083
:1024700068E070E061C1F6018281282F30E087E3D7
:1024800090E0289FF001299FF00D389FF00D112456
:10249000EF5DFE4F8081918181309105A9F08230FE
:1024A00091051CF4892B41F0DAC08230910539F096
:1024B000039709F0D4C008C010922003D0C08289CD
:1024C0009389892BC1F0C8C087E390E0289FF00171
:1024D000299FF00D389FF00D1124EF5DFE4F60A590
:1024E00071A582A593A520E030E040E050E00E9475
:1024F000E021181614F481E0B0C082E0AEC082E999
:102500009AE0A6E0B0E489839A83AB83BC8342C09F
:10251000D60112968C9190E00E94EA0E37C00E947C
:102520008B0734C080911D0190911E01A0911F0165
:10253000B091200133C0F60182819381A481B581DD
:1025400089839A83AB83BC8389819A81AB81BC8167
:1025500080931D0190931E01A0931F01B093200151
:10256000E7C020911B0130911C01B901660F771F54
:10257000660F771F620F731F80E090E00E942E218C
:1025800020E030E04AE754E40E94952069837A8392
:102590008B839C8389819A81AB81BC81809320034A
:1025A00090932103A0932203B093230380E293E04E
:1025B00064E070E0C1C0F60182819381A481B5819D
:1025C00089839A83AB83BC8369817A818B819C8167
:1025D00020E030E04AE754E40E94E42169837A83F2
:1025E0008B839C8320E030E040EA50E40E949520F9
:1025F0000E94022170931C0160931B0199C00E94EC
:10260000910496C085E229C0F60182819381A4815C
:10261000B5818093160190931701A0931801B09390
:10262000190186818093150183C0D60112968C9181
:1026300080931A017DC010925201109251011092A4
:102640008901109288011092C0011092BF0110926E
:10265000F7011092F6016CC083E08093200380E2C2
:1026600093E061E070E068C08FE594E061E170E0C4
:10267000F60142810E94F61B5BC0560107E311E0A0
:10268000EE24FF2459E0452E512C4C0E5D1E66248D
:102690006A94762C4301D60112968C9190E00E2C10
:1026A00002C0959587950A94E2F780FF33C0F50143
:1026B0008381D8018C9311961C92119784811C966A
:1026C0008C931C971D961C9285819681A781B0855D
:1026D000F20180839183A283B383C70101960E9494
:1026E000BA0D69857A858B859C8597FF08C0D801CE
:1026F00018966D927D928D929C921B970BC025E04F
:1027000030E040E050E00E949022F80120873187BD
:10271000428753870894E11CF11C86E090E0A80EE4
:10272000B91E095C1F4F94E0E916F10409F0B3CF1C
:1027300080E090E060E070E00E945B0E0FC081EFEF
:1027400094E06FEF0E94A01F81EF94E063E00E948D
:10275000A01F81EF94E061E10E94A01F20E030E023
:10276000C9012C960FB6F894DEBF0FBECDBFCF9136
:10277000DF911F910F91FF90EF90DF90CF90BF906E
:10278000AF909F908F907F906F905F904F90089543
:102790006F927F928F929F92AF92BF92CF92DF9271
:1027A000EF92FF920F931F934C0180914B039091F6
:1027B0004C03892B09F08AC085E090E00E94EA0E64
:1027C00020E030E040E250E40E942C205B016C01EC
:1027D00086E090E00E94EA0E20E030E040E250E423
:1027E0000E942C207B018C01C601B50120E030E065
:1027F00040E050E00E949120882324F4D7FAD0943E
:10280000D7F8D094C801B70120E030E040E050E0B4
:102810000E949120882324F417FB109517F9109536
:10282000C601B501A80197010E94912088231CF4DC
:1028300081E090E002C082E090E090934C038093AE
:102840004B0381E090E00E94EA0E20E030E040E29D
:1028500050E40E942C205B016C0182E090E00E9419
:10286000EA0E20E030E040E250E40E942C207B01A0
:102870008C01C601B50120E030E040E050E00E944C
:102880009120882324F4D7FAD094D7F8D094C801A3
:10289000B70120E030E040E050E00E949120882322
:1028A00024F417FB109517F91095C601B501A8017E
:1028B00097010E94912088231CF481E090E002C0DF
:1028C00082E090E090934A038093490382E0881667
:1028D000910409F4F1C083E08816910434F481E096
:1028E0008816910409F06AC20BC083E0881691042F
:1028F00009F435C184E08816910409F05FC282C1F1
:1029000085E090E00E94EA0E7B018C0186E090E079
:102910000E94EA0E5B016C01C801B70120E030E0C3
:1029200040E250E40E942C203B014C01C601B5015D
:1029300020E030E040E250E40E942C207B018C013A
:1029400080914B0390914C03019729F5C401B30189
:1029500020E030E040E050E00E94912088235CF4C9
:10296000C401B30120E030E040E050EC0E9491202F
:1029700088238CF40AC0C401B30120E030E040E0B9
:1029800050E40E94E021181634F482E090E0909325
:102990004C0380934B0380914B0390914C0302971F
:1029A00029F5C801B70120E030E040E050E00E9486
:1029B000912088235CF4C801B70120E030E040E0BA
:1029C00050EC0E94912088238CF40AC0C801B70102
:1029D00020E030E040E050E40E94E021181634F49A
:1029E00081E090E090934C0380934B0380914B03E4
:1029F00090914C030297A9F4C801B70120E030E0A0
:102A00004AEA53E40E94E42120E030E040EA50E446
:102A10000E94952020E030E044E353E40E942D2002
:102A20000EC0C401B30120E030E04AEA53E40E9442
:102A3000E42120E030E040EA50E40E9495202BEDB4
:102A40003FE049E450EC0E94E42120E030E044E320
:102A500053E40E94952020915301309154014091FC
:102A600055015091560106C0C801B7012BED3FE05A
:102A700049EC50E40E942D207B018C012BED3FE0BE
:102A800049E450EC0E94912087FDEECF0AC0C801B6
:102A9000B7012BED3FE049EC50E40E942C207B0174
:102AA0008C01C801B7012BED3FE049E450E40E94DE
:102AB000E021181664F38EC184E090E00E94EA0ED3
:102AC00020E030E040E250E40E942C2020E030E0A2
:102AD0004AEA53E40E94E42120E030E040EA50E476
:102AE0000E9495202BED3FE049E450E40E94E42150
:102AF00020E030E044E353E40E94952020918A01D5
:102B000030918B0140918C0150918D0106C0C8011C
:102B1000B7012BED3FE049EC50E40E942D207B01F2
:102B20008C012BED3FE049E450EC0E94912087FDA1
:102B3000EECF0AC0C801B7012BED3FE049EC50E4ED
:102B40000E942C207B018C01C801B7012BED3FE0D6
:102B500049E450E40E94E021181664F33BC183E08D
:102B600090E00E94EA0E20E030E040E250E40E9453
:102B70002C2020E030E04AEA53E40E94E42120E0E7
:102B800030E040EA50E40E9495202BED3FE049E41C
:102B900050E40E94E42120E030E044E353E40E944A
:102BA00095202091C1013091C2014091C301509103
:102BB000C40106C0C801B7012BED3FE049EC50E469
:102BC0000E942D207B018C012BED3FE049E450EC6D
:102BD0000E94912087FDEECF0AC0C801B7012BEDFE
:102BE0003FE049EC50E40E942C207B018C01C8019D
:102BF000B7012BED3FE049E450E40E94E0211816B4
:102C000064F3E8C081E090E00E94EA0E7B018C0151
:102C100082E090E00E94EA0E5B016C01C801B701FE
:102C200020E030E040E250E40E942C203B014C01C7
:102C3000C601B50120E030E040E250E40E942C20C3
:102C40007B018C018091490390914A03019729F5FA
:102C5000C401B30120E030E040E050E00E94912048
:102C600088235CF4C401B30120E030E040E050EC84
:102C70000E94912088238CF40AC0C401B30120E093
:102C800030E040E050E40E94E021181634F482E085
:102C900090E090934A038093490380914903909177
:102CA0004A03029729F5C801B70120E030E040E06F
:102CB00050E00E94912088235CF4C801B70120E015
:102CC00030E040E050EC0E94912088238CF40AC050
:102CD000C801B70120E030E040E050E40E94E0216C
:102CE000181634F481E090E090934A0380934903EE
:102CF0008091490390914A030297A9F4C801B70152
:102D000020E030E04AEA53E40E94E42120E030E091
:102D100040EA50E40E94952020E030E044E353E490
:102D20000E942D200EC0C401B30120E030E04AEA29
:102D300053E40E94E42120E030E040EA50E40E94A5
:102D400095202BED3FE049E450E40E94E42120E08F
:102D500030E044E353E40E9495202091F801309143
:102D6000F9014091FA015091FB0106C0C801B70179
:102D70002BED3FE049EC50E40E942D207B018C01BB
:102D80002BED3FE049E450EC0E94912087FDEECF0F
:102D90000AC0C801B7012BED3FE049EC50E40E94A6
:102DA0002C207B018C01C801B7012BED3FE049E4E9
:102DB00050E40E94E021181664F30CC00E94CB0E70
:102DC0000F2EF0E0EF2EF0E0FF2EF0E80F2FFFEBDC
:102DD0001F2FF02DB701C8011F910F91FF90EF90A9
:102DE000DF90CF90BF90AF909F908F907F906F902B
:102DF00008956F927F928F929F92AF92BF92CF92DF
:102E0000DF92EF92FF920F931F93DF93CF9300D047
:102E100000D0CDB7DEB78FE594E060E170E00E94AE
:102E2000FB1B813A91F5CC24DD24AA24BB2457E373
:102E3000852E912CC89C7001C99CF00CD89CF00C7C
:102E4000112483E591E0E80EF91E00E010E0B801DE
:102E50006A0D7B1D8FE594E00E94FB1BF701E00FDC
:102E6000F11F80830F5F1F4F0430110581F7089415
:102E7000C11CD11CE4E0F0E0AE0EBF1EF4E0CF16A2
:102E8000D104C1F620E030E073C043E5842E41E078
:102E9000942E31E0C32ED12CAA24BB243E010894E9
:102EA000611C711CC6010E94C8137B018C016983DF
:102EB0007A838B839C83C6010297029710F5C80121
:102EC000B70120E030E040E050E00E9491208823EC
:102ED0005CF4C801B70120E030E04CE852EC0E94FD
:102EE0009120882374F40AC0C801B70120E030E0C3
:102EF0004CE852E40E94E02118161CF40E94CB0E0C
:102F0000FDCFD801C701B05889839A83AB83BC83B6
:102F1000F40180839183A283B38300E010E0B801C1
:102F20006A0D7B1DF301E00FF11F8FE594E04081F6
:102F30000E94F61B0F5F1F4F0430110581F70894A4
:102F4000C11CD11C84E090E0A80EB91EE7E3F0E0BC
:102F50008E0E9F1EF5E0CF16D10409F0A3CF8FE5AA
:102F600094E060E170E041EA0E94F61B21E030E06D
:102F7000C9010F900F900F900F90CF91DF911F918B
:102F80000F91FF90EF90DF90CF90BF90AF909F9008
:102F90008F907F906F90089580E090E0A0E0B0E087
:102FA0008093530190935401A0935501B09356011F
:102FB00080938A0190938B01A0938C01B0938D0133
:102FC0008093C1019093C201A093C301B093C40147
:102FD0008093F8019093F901A093FA01B093FB015B
:102FE0008FE594E060E170E040EA0E94F61B0E94E9
:102FF000F91680E090E008952F923F924F925F92F1
:103000006F927F928F929F92AF92BF92CF92DF92F8
:10301000EF92FF920F931F93DF93CF93CDB7DEB75D
:103020002E970FB6F894DEBF0FBECDBFE7E42E2E6D
:10303000E1E03E2EC10186979E878D878C969C8706
:103040008B87AFE4B4E0BA87A9876D847E84F301EF
:10305000B496F887EF8376E3472E512CC301460CD4
:10306000571C88969E838D83D3019296BC83AB8335
:10307000F301F096FA83E98361E0862E912CAD8509
:10308000BE8595962C91F10160817181620F711D51
:10309000882777FD8095982F0E94302120E030E02E
:1030A00042E553E40E942C200E94FD20D10111969C
:1030B0007C936E9377FF02C01D921C92F101608198
:1030C0007181882777FD8095982F0E94302120E01C
:1030D00034E14DEC58E40E94E02118160CF4C2C013
:1030E000C4010E94C8137B018C01AB85BC856D9324
:1030F0007D938D939C93139720E030E040E450EC57
:103100000E9491208823ACF4E985FA856081718161
:103110008281938120E030E040E450E40E94E0218D
:1031200018163CF4A981BA818D919C911197019652
:103130001EC0C801B70120E030E040E450E40E9426
:10314000E0211816B4F4E985FA85608171818281E5
:10315000938120E030E040E450EC0E9491208823ED
:1031600044F4A981BA818D919C91119701978D9317
:103170009C93EB85FC8580819181A281B381E98557
:10318000FA8580839183A283B383D3018D919C912F
:1031900081309105D9F1823091051CF4892B49F0D9
:1031A000A1C28230910509F44BC0039709F09AC27D
:1031B00013C1ED85FE85868D978DA0A1B1A10097E5
:1031C000A105B10599F4AB81BC818D919C91978B40
:1031D000868BC4010E94BA0D8FEF9FEFAFEFBFEF58
:1031E000ED85FE85868F978FA0A3B1A3ED85FE8523
:1031F000868D978DA0A1B1A1181619061A061B0677
:103200000CF070C20197A109B10930C1AD85BE852E
:1032100056968D919C915797009721F4F301118256
:10322000108260C2AF81B8856C91019719F4C40116
:1032300070E01BC070E0709561957F4FC40115C0B0
:10324000ED85FE85868D978DA0A1B1A10097A10582
:10325000B10571F482899389892B09F00CC1D301DE
:103260001D921C92C40160E070E00E94EB033AC220
:10327000181619061A061B064CF40197A109B10984
:10328000ED85FE85868F978FA0A3B1A3AD85BE8502
:1032900012966D917D918D919C911597EB85FC8592
:1032A00020813181428153810E942C2008C0C801B5
:1032B000B7012BED3FE049EC50E40E942D207B014B
:1032C0008C012BED3FE049E450EC0E94912087FDFA
:1032D000EECF0AC0C801B7012BED3FE049EC50E446
:1032E0000E942C207B018C01C801B7012BED3FE02F
:1032F00049E450E40E94E021181664F35701680184
:10330000C801B70120E030E040E050E00E94912089
:1033100088235CF4C801B70125E33AEF4EE05DEB8A
:103320000E94E02118165CF023C0C801B70125E314
:103330003AEF4EE05DE30E9491208823CCF4E1E077
:10334000F0E0AD85BE855396FC93EE93529754966C
:103350008D919C915597892B09F081CF8FEF9FEF2D
:10336000AFEFBFEFED85FE85868F978FA0A3B1A34A
:10337000AD85BE8552968D919C915397892B09F40A
:103380006DC1C801B70120E030E040E050E00E948C
:103390009120882324F417FB109517F91095C80184
:1033A000B70120911D0130911E0140911F015091E4
:1033B00020010E94E02118160CF050C1F20180811A
:1033C0008F5F808390E020911B0130911C012817B2
:1033D000390708F045C143CFED85FE85868D978D71
:1033E000A0A1B1A10097A105B10509F049C081E0F4
:1033F00090E0938B828B80E090E0A0E0B0E0868745
:103400009787A08BB18BAB81BC811D921C9282E00F
:1034100090E0F30191838083AD85BE855C968D91AC
:103420009C915D97892B71F058968D919D910D908F
:10343000BC91A02DED85FE8582839383A483B58303
:10344000158E148EEFEFFFEFAB81BC81ED93FC93F3
:10345000AD85BE8554968D919C915597892B59F0D9
:1034600088EC90E0A0E0B0E0ED85FE85868F978F38
:10347000A0A3B1A337C18FEF9FEFAFEFBFEFF4CFA2
:10348000181619061A061B064CF40197A109B10972
:10349000ED85FE85868F978FA0A3B1A3AD81BE81F8
:1034A0006D917D918D919C912AE037ED43EA5BE32C
:1034B0000E94E421ED85FE8522813381448155817E
:1034C0000E942D209B01AC01AD85BE8512966D93A7
:1034D0007D938D939C931597C4010297029708F0F2
:1034E0004AC0CA01B9012BED3FE049EC5FEB0E94F5
:1034F00091208823C4F4ED81FE81608171818281F5
:10350000938120E030E040E050E00E949120882349
:1035100054F48BED9FE0A9ECBFEBED85FE85828333
:103520009383A483B583AD85BE8512966D917D91FD
:103530008D919C9115972BED3FE049EC5FE30E9444
:10354000E0211816C4F4ED81FE81608171818281D1
:10355000938120E030E040E050E00E94E021181626
:1035600054F48BED9FE0A9ECBFE3ED85FE858283EB
:103570009383A483B583AD85BE8512966D917D91AD
:103580008D919C911597EB85FC852081318142813D
:1035900053810E942C2008C0C801B7012BED3FE0E9
:1035A00049EC50E40E942D207B018C012BED3FE083
:1035B00049E450EC0E94912087FDEECF0AC0C8017B
:1035C000B7012BED3FE049EC50E40E942C207B0139
:1035D0008C01C801B7012BED3FE049E450E40E94A3
:1035E000E021181664F357016801C801B70120E013
:1035F00030E040E050E00E949120882324F417FB43
:10360000109517F9109520911D0130911E014091E0
:103610001F0150912001CA01B9010E942D209B0178
:10362000AC01C801B7010E94E0211816BCF4D20118
:103630008C918F5F8C9390E020911B0130911C0145
:103640002817390708F04EC0F30111821082AD85AA
:10365000BE855D961C921E925C9704CEF20110828C
:10366000C601B501AD85BE8516962D913D914D9152
:103670005C9119970E94E4217B018C01ED85FE8508
:10368000628573858485958526853785408951892E
:103690000E94E4219B01AC01C801B7010E942D20CA
:1036A0000E94FD209B01AC01C401B9010E94EB0303
:1036B000C601B5012AE037ED43EA5BE30E94E4214D
:1036C0009B01AC01AD85BE851E966D917D918D915E
:1036D0009C9151970E942D20ED85FE856687778706
:1036E000808B918B0894811C911C87E390E0280EBD
:1036F000391EAD85BE85D796BE87AD87EB85FC8527
:10370000F796FC87EB8789859A8504969A8789873F
:10371000A7E3B0E06A0E7B1EEF81F885F796F88785
:10372000EF834A0E5B1E8D819E81C7969E838D839B
:10373000AB81BC81D796BC83AB83E981FA81F796D4
:10374000FA83E983F5E08F16910409F098CC2E9660
:103750000FB6F894DEBF0FBECDBFCF91DF911F91A2
:103760000F91FF90EF90DF90CF90BF90AF909F9020
:103770008F907F906F905F904F903F902F90089523
:103780002DC081EF94E00E94651F9C0197FF05C04A
:1037900010924E0310924D03089580914D03909125
:1037A0004E03FC01E15BFC4F20839C012F5F3F4FE8
:1037B00030934E0320934D03223031057CF08091ED
:1037C0005003682F70E06217730741F48FE493E0B1
:1037D0000E94010F10924E0310924D0381EF94E06E
:1037E0000E94341F1816190664F20895CB01642F45
:1037F0000E94B9220895CB010E94B1220895982F0A
:103800008E3008F09E509770809100018295880F4D
:10381000880F807C892B80937C0080917A00806463
:1038200080937A0080917A0086FDFCCF2091780009
:1038300040917900942F80E030E0282B392BC9018A
:1038400008951F93CF93DF93182FEB0161E00E943F
:103850005E1D209709F44AC0CF3FD10509F449C045
:10386000E12FF0E0E850FF4F84918330C1F08430C5
:1038700028F4813051F08230B1F50CC0863019F156
:10388000873049F1843079F514C084B5806884BDEF
:10389000C7BD33C084B5806284BDC8BD2EC08091D1
:1038A0008000806880938000D0938900C093880056
:1038B00024C080918000806280938000D0938B0030
:1038C000C0938A001AC08091B00080688093B000D5
:1038D000C093B30012C08091B00080628093B000AA
:1038E000C093B4000AC0C038D1051CF4812F60E039
:1038F00002C0812F61E00E94B11DDF91CF911F9125
:1039000008951F920F920FB60F9211242F933F9399
:103910008F939F93AF93BF938091640490916504BC
:10392000A0916604B0916704309168040196A11DCE
:10393000B11D232F2D5F2D3720F02D570196A11D8E
:10394000B11D209368048093640490936504A09350
:103950006604B09367048091600490916104A09123
:103960006204B09163040196A11DB11D80936004AF
:1039700090936104A0936204B0936304BF91AF91EC
:103980009F918F913F912F910F900FBE0F901F909D
:1039900018958FB7F8942091640430916504409194
:1039A0006604509167048FBFB901CA0108959FB79B
:1039B000F894209160043091610440916204509128
:1039C000630486B5A89B06C08F3F21F02F5F3F4F51
:1039D0004F4F5F4F9FBF542F432F322F2227280F67
:1039E000311D411D511D82E0220F331F441F551F01
:1039F0008A95D1F7B901CA010895EF92FF920F930A
:103A00001F93CF93DF937B018C010E94D71CEB01A6
:103A10000EC00E94D71C6C1B7D0B685E7340C8F300
:103A20000894E108F10801091109C851DC4FE114BB
:103A3000F1040105110569F7DF91CF911F910F91F5
:103A4000FF90EF900895789484B5826084BD84B52A
:103A5000816084BD85B5826085BD85B5816085BD89
:103A6000EEE6F0E0808181608083E1E8F0E01082A2
:103A7000808182608083808181608083E0E8F0E0E3
:103A8000808181608083E1EBF0E0808184608083CD
:103A9000E0EBF0E0808181608083EAE7F0E0808104
:103AA0008460808380818260808380818160808364
:103AB0008081806880831092C1000895482F50E073
:103AC000CA018C519F4FFC01249140535F4FFA0172
:103AD00084918823C1F0E82FF0E0EE0FFF1FEE5431
:103AE000FF4FA591B491662341F49FB7F8948C9150
:103AF000209582238C939FBF08959FB7F8948C9153
:103B0000822B8C939FBF0895833071F0843028F40A
:103B10008130A1F0823021F514C08630B1F08730B9
:103B2000D1F08430E9F404C0809180008F7703C025
:103B3000809180008F7D80938000089584B58F7779
:103B400002C084B58F7D84BD08958091B0008F77C9
:103B50008093B00008958091B0008F7D8093B00075
:103B60000895FF920F931F93F62E482F50E0CA013D
:103B700088509F4FFC012491CA018C519F4FFC013A
:103B8000149140535F4FFA0104910023C9F022239E
:103B900019F0822F0E94841DE02FF0E0EE0FFF1F2E
:103BA000E454FF4FA591B4919FB7F894FF2021F4FE
:103BB0008C911095812302C08C91812B8C939FBF97
:103BC0001F910F91FF900895CF93DF930E94231DC3
:103BD0000E946F06C2E5DEE10E943C062097E1F3F9
:103BE0000E94521EF9CFCF92DF92EF92FF920F9375
:103BF0001F93CF93DF937C016B018A01C0E0D0E07B
:103C00000FC0D6016D916D01D701ED91FC9101902E
:103C1000F081E02DC7010995C80FD91F0150104050
:103C20000115110571F7CE01DF91CF911F910F9111
:103C3000FF90EF90DF90CF90089508951F920F921C
:103C40000FB60F9211242F933F934F938F939F930F
:103C5000EF93FF934091C6002091A9043091AA04EC
:103C60002F5F3F4F2F7330708091AB049091AC0465
:103C70002817390759F0E091A904F091AA04E759EF
:103C8000FB4F40833093AA042093A904FF91EF9146
:103C90009F918F914F913F912F910F900FBE0F9059
:103CA0001F901895E091FD04F091FE04E05CFF4F39
:103CB0008191919120813181821B930B8F73907040
:103CC000892B11F00E941D1E08951F920F920FB6AE
:103CD0000F9211242F933F934F935F936F937F9392
:103CE0008F939F93AF93BF93EF93FF932091ED0436
:103CF0003091EE048091EF049091F0042817390779
:103D000031F48091C1008F7D8093C10016C0E09195
:103D1000EF04F091F004E355FB4F40818091EF04F4
:103D20009091F004019660E470E00E945B22909311
:103D3000F0048093EF044093C600FF91EF91BF9190
:103D4000AF919F918F917F916F915F914F913F9133
:103D50002F910F900FBE0F901F901895AF92BF92AA
:103D6000DF92EF92FF920F931F93CF93DF93EC01BB
:103D70007A018B01DD24403081EE580780E068072E
:103D800080E0780711F0DD24D39491E0A92EB12CC6
:103D9000EC89FD89DD2069F0C5010E8C02C0880F19
:103DA000991F0A94E2F7808360E079E08DE390E068
:103DB00005C0108260E874E88EE190E0A8019701E8
:103DC0000E946E2221503040404050405695479509
:103DD0003795279580E12030380720F0DD2011F05D
:103DE000DD24D6CFE889F9893083EA89FB892083ED
:103DF000EE89FF89408121E030E0C9010A8C02C0D0
:103E0000880F991F0A94E2F7482B4083EE89FF89B7
:103E10004081C9010B8C02C0880F991F0A94E2F7F8
:103E2000482B4083EE89FF894081C9010C8C02C078
:103E3000880F991F0A94E2F7482B4083EE89FF8987
:103E400080810D8C02C0220F331F0A94E2F7209567
:103E500028232083DF91CF911F910F91FF90EF9046
:103E6000DF90BF90AF900895DC011C96ED91FC911E
:103E70001D97E05CFF4F2191319180819181281B3A
:103E8000390B2F733070C9010895DC011C96ED9138
:103E9000FC911D97E05CFF4F20813181E054F040A0
:103EA000DF01AE5BBF4F8D919C91119728173907A9
:103EB00019F42FEF3FEF07C08D919C91E80FF91F88
:103EC0008081282F30E0C9010895DC011C96ED9116
:103ED000FC911D97E05CFF4F20813181E054F04060
:103EE000DF01AE5BBF4F8D919C9111972817390769
:103EF00019F42FEF3FEF10C08D919C911197E80FAF
:103F0000F91F20818D919C91119701968F7390706C
:103F100011969C938E9330E0C9010895FC0186852B
:103F20009785DC01A05CBF4FFC01EE5BFF4F2D913C
:103F30003C9111978081918128173907C1F7089525
:103F4000CF93DF93EC01462FEE85FF85E05CFF4FBA
:103F500080819181E054F040019660E470E00E941D
:103F60005B229C01DF01AE5BBF4F8D919C9111974D
:103F700028173907D1F3E05CFF4F80819181E0542D
:103F8000F040E80FF91F4083EE85FF85E05CFF4FAE
:103F900031832083EE89FF89208181E090E00D8CC0
:103FA00002C0880F991F0A94E2F7282B208381E032
:103FB00090E0DF91CF9108951092F4041092F304F1
:103FC00088EE93E0A0E0B0E08093F5049093F604CF
:103FD000A093F704B093F80485E091E09093F20485
:103FE0008093F10489E694E09093FE048093FD04AD
:103FF0008DEA94E0909300058093FF0485EC90E0B7
:10400000909302058093010584EC90E09093040561
:104010008093030580EC90E090930605809305055E
:1040200081EC90E0909308058093070586EC90E082
:1040300090930A058093090584E080930B0583E043
:1040400080930C0587E080930D0585E080930E0535
:1040500081E080930F0508955058BB27AA270ED002
:1040600075C166D130F06BD120F031F49F3F11F46F
:104070001EF45BC10EF4E095E7FB51C1E92F77D147
:1040800080F3BA17620773078407950718F071F475
:104090009EF58FC10EF4E0950B2EBA2FA02D0B01CB
:1040A000B90190010C01CA01A0011124FF27591B7D
:1040B00099F0593F50F4503E68F11A16F040A22F83
:1040C000232F342F4427585FF3CF469537952795F4
:1040D000A795F0405395C9F77EF41F16BA0B620BF3
:1040E000730B840BBAF09150A1F0FF0FBB1F661F3A
:1040F000771F881FC2F70EC0BA0F621F731F841F7D
:1041000048F4879577956795B795F7959E3F08F0A2
:10411000B3CF9395880F08F09927EE0F9795879561
:104120000895D9D008F481E008950CD00FC107D1CB
:1041300040F0FED030F021F45F3F19F0F0C0511193
:1041400039C1F3C014D198F39923C9F35523B1F3BE
:10415000951B550BBB27AA2762177307840738F0F6
:104160009F5F5F4F220F331F441FAA1FA9F333D055
:104170000E2E3AF0E0E830D091505040E695001C09
:10418000CAF729D0FE2F27D0660F771F881FBB1FC5
:10419000261737074807AB07B0E809F0BB0B802D9F
:1041A000BF01FF2793585F4F2AF09E3F510568F0EB
:1041B000B6C000C15F3FECF3983EDCF3869577957F
:1041C0006795B795F7959F5FC9F7880F911D9695ED
:1041D000879597F90895E1E0660F771F881FBB1F49
:1041E000621773078407BA0720F0621B730B840BF6
:1041F000BA0BEE1F88F7E095089504D06894B111CA
:10420000D9C00895BCD088F09F5790F0B92F992756
:10421000B751A0F0D1F0660F771F881F991F1AF0D1
:10422000BA95C9F712C0B13081F0C3D0B1E008959A
:10423000C0C0672F782F8827B85F39F0B93FCCF31B
:10424000869577956795B395D9F73EF490958095C7
:10425000709561957F4F8F4F9F4F0895E89409C0E7
:1042600097FB3EF490958095709561957F4F8F4FA9
:104270009F4F9923A9F0F92F96E9BB279395F695BF
:10428000879577956795B795F111F8CFFAF4BB0F3D
:1042900011F460FF1BC06F5F7F4F8F4F9F4F16C0A1
:1042A000882311F096E911C0772321F09EE8872F2B
:1042B000762F05C0662371F096E8862F70E060E0E7
:1042C0002AF09A95660F771F881FDAF7880F969560
:1042D000879597F90895990F0008550FAA0BE0E804
:1042E000FEEF16161706E807F907C0F012161306B8
:1042F000E407F50798F0621B730B840B950B39F4F8
:104300000A2661F0232B242B252B21F408950A265D
:1043100009F4A140A6958FEF811D811D089597F99D
:104320009F6780E870E060E008959FEF80EC08955B
:1043300000240A9416161706180609060895002484
:104340000A9412161306140605060895092E0394FE
:10435000000C11F4882352F0BB0F40F4BF2B11F472
:1043600060FF04C06F5F7F4F8F4F9F4F089557FDD1
:104370009058440F551F59F05F3F71F04795880FD3
:1043800097FB991F61F09F3F79F08795089512166A
:1043900013061406551FF2CF4695F1DF08C0161616
:1043A00017061806991FF1CF8695710561050894C7
:1043B0000895E894BB2766277727CB0197F90895DE
:1043C0008ADF08F48FEF08950BD0C0CFB1DF28F05B
:1043D000B6DF18F0952309F0A2CFA7CF1124EACFBA
:1043E000C6DFA0F3959FD1F3950F50E0551F629F54
:1043F000F001729FBB27F00DB11D639FAA27F00D3E
:10440000B11DAA1F649F6627B00DA11D661F829F64
:104410002227B00DA11D621F739FB00DA11D621F49
:10442000839FA00D611D221F749F3327A00D611D66
:10443000231F849F600D211D822F762F6A2F112448
:104440009F5750408AF0E1F088234AF0EE0FFF1F9B
:10445000BB1F661F771F881F91505040A9F79E3FD2
:10446000510570F05CCFA6CF5F3FECF3983EDCF3D4
:10447000869577956795B795F795E7959F5FC1F70F
:10448000FE2B880F911D9695879597F90895AA1B85
:10449000BB1B51E107C0AA1FBB1FA617B70710F02F
:1044A000A61BB70B881F991F5A95A9F78095909561
:1044B000BC01CD01089597FB092E07260AD077FD90
:1044C00004D0E5DF06D000201AF4709561957F4F87
:1044D0000895F6F7909581959F4F0895A1E21A2EC1
:1044E000AA1BBB1BFD010DC0AA1FBB1FEE1FFF1F98
:1044F000A217B307E407F50720F0A21BB30BE40BE8
:10450000F50B661F771F881F991F1A9469F760952E
:104510007095809590959B01AC01BD01CF010895E8
:1045200097FB092E05260ED057FD04D0D7DF0AD001
:10453000001C38F450954095309521953F4F4F4FD2
:104540005F4F0895F6F790958095709561957F4F30
:104550008F4F9F4F0895EE0FFF1F0590F491E02DB0
:104560000994F999FECF92BD81BDF89A992780B53B
:104570000895262FF999FECF1FBA92BD81BD20BDA7
:104580000FB6F894FA9AF99A0FBE01960895F89426
:02459000FFCF5B
:104592000100000000A01FF31D341F651F451F8E80
:0245A2001F00F8
:00000001FF
