:100000000C9483000C94AB000C94AB000C94AB00EC
:100010000C94AB000C94AB000C94AB000C94AB00B4
:100020000C94AB000C94AB000C94AB000C94AB00A4
:100030000C94AB000C94AB000C94AB000C94AB0094
:100040000C94271B0C94AB000C94C41C0C940B1D3B
:100050000C94AB000C94AB000C94AB000C94AB0074
:100060000C94AB000C94AB00FD1213135C0E600FEC
:10007000710FBA0FC40FF10F1E104B1069108C10C6
:10008000C810F910441166118811AA11BA11C811CB
:10009000EF1117125C1265126C126F1278128E1229
:1000A000B812DC12DF12E712F81200000000240080
:1000B00027002A0000000000250028002B00000077
:1000C000000023002600290004040404040404049E
:1000D00002020202020203030303030301020408F3
:1000E00010204080010204081020010204081020A2
:1000F00000000007000201000003040600000000E9
:1001000000000000821E11241FBECFEFD8E0DEBF2A
:10011000CDBF11E0A0E0B1E0E8EAF2E402C0059052
:100120000D92A231B107D9F715E0A2E1B1E001C00B
:100130001D92A030B107E1F711E0C6E0D1E004C0A4
:100140002297FE010E943821C430D107C9F70E94CE
:100150008A1C0C9452210C940000AF92BF92CF9253
:10016000DF92EF92FF920F931F93DF93CF93CDB760
:10017000DEB760970FB6F894DEBF0FBECDBF6983C0
:100180007A838B839C832D833E834F835887E986B4
:10019000FA860B871C87AD86BE86CF86D88A9E01DD
:1001A0002F5F3F4FE5E4F1E063E070E0AE014F5EAA
:1001B0005F4FD901ED90FD900D911D919D01E08261
:1001C000F18202831383B49771836083E95AFF4FEE
:1001D000A417B50771F780E090E060960FB6F89429
:1001E000DEBF0FBECDBFCF91DF911F910F91FF906A
:1001F000EF90DF90CF90BF90AF900895EF92FF9275
:100200000F931F93CF93DF937A018B019C012150B1
:10021000304083E390E0289FE001299FD00D389F74
:10022000D00D1124CF5DDE4F2150304022303105FA
:1002300048F5CB01BA0120E030E044EB52E40E94E3
:10024000862018165CF40F2EF0E0EF2EF0E0FF2E63
:10025000F4EB0F2FF2E41F2FF02D14C0C801B701EB
:1002600020E030E044EB52EC0E94371F882354F426
:100270000F2EF0E0EF2EF0E0FF2EF4EB0F2FF2EC5C
:100280001F2FF02D82E090E099838883EA82FB8221
:100290000C831D831B8A1A8A88EE93E09F8F8E8FB2
:1002A00080E090E0DF91CF911F910F91FF90EF9050
:1002B00008952F923F924F925F926F927F928F920A
:1002C0009F92AF92BF92CF92DF92EF92FF920F93E5
:1002D0001F93CF93DF93582E492E3A014B0178019B
:1002E0008901019723E330E0829FE001839FD00DD5
:1002F000929FD00D1124CF5DDE4F0197029748F5F4
:10030000CB01BA0120E030E044EB52E40E948620A9
:1003100018165CF40F2EF0E06F2EF0E07F2EF4EB59
:100320008F2EF2E49F2EF02D14C0C401B30120E003
:1003300030E044EB52EC0E94371F882354F40F2E18
:10034000F0E06F2EF0E07F2EF4EB8F2EF2EC9F2E7C
:10035000F02DC401B30128A539A54AA55BA50E94CB
:10036000D21E5B016C0120E030E040E050E00E94D2
:10037000862018165CF4C601B50125E33AEF4EE875
:100380005DE30E94371F88239CF40AC0C601B501B3
:1003900025E33AEF4EE85DEB0E948620181644F400
:1003A000852D942DB401A3010E94FE009C0184C000
:1003B000C801B70120E030E040E050E00E94371F64
:1003C00087FD03C0A801970103C0A80197015058F9
:1003D000C601B5010E943B1F20E030E04AE754E42B
:1003E0000E948A201B012C01C601B50120E030E0EB
:1003F00040E050E00E94862018165CF4C801B70166
:1004000020E030E040E050E00E94371F88237CF479
:100410000AC0C801B70120E030E040E050E00E948F
:10042000371F87FD04C017FB109517F91095ECA234
:10043000FDA20EA31FA388A599A5AAA5BBA58A8383
:100440009B83AC83BD8380E090E0A0E0B0E08E872A
:100450009F87A88BB98BC201B10120E030E040EA50
:1004600050E40E943B1F7B018C0120E030E040E023
:1004700050E00E94371F88234CF4C201B10120E0F4
:1004800030E040EA50EC0E943B1F02C0C801B701B7
:100490000E94A31F7F8F6E8F1B8A1A8A688E798EA7
:1004A0008A8E9B8E81E090E09D8F8C8F83E090E020
:1004B0009983888320E030E0C901DF91CF911F91BB
:1004C0000F91FF90EF90DF90CF90BF90AF909F90F3
:1004D0008F907F906F905F904F903F902F900895F6
:1004E0002F923F924F925F926F927F928F929F9244
:1004F000AF92BF92CF92DF92EF92FF920F931F9332
:10050000CF93DF93582E492E3A014B017801890190
:10051000019723E330E0829FE001839FD00D929FFB
:10052000D00D1124CF5DDE4F0197029748F5CB0126
:10053000BA0120E030E044EB52E40E948620181615
:100540005CF40F2EF0E06F2EF0E07F2EF4EB8F2E98
:10055000F2E49F2EF02D14C0C401B30120E030E07E
:1005600044EB52EC0E94371F882354F40F2EF0E026
:100570006F2EF0E07F2EF4EB8F2EF2EC9F2EF02DFD
:100580006CA57DA5882777FD8095982F0E94D61FA2
:100590002BED3FE049EC50E40E948A2028A539A5C4
:1005A0004AA55BA50E94D31E9B01AC01C401B30107
:1005B0000E94D21E5B016C0120E030E040E050E080
:1005C0000E94862018165CF4C601B50125E33AEFB7
:1005D0004EE85DE30E94371F88239CF40AC0C601E1
:1005E000B50125E33AEF4EE85DEB0E948620181630
:1005F00044F4852D942DB401A3010E94FE009C01BA
:1006000084C0C801B70120E030E040E050E00E9423
:10061000371F87FD03C0A801970103C0A8019701F8
:100620005058C601B5010E943B1F20E030E04AE768
:1006300054E40E948A201B012C01C601B50120E070
:1006400030E040E050E00E94862018165CF4C801BB
:10065000B70120E030E040E050E00E94371F8823DF
:100660007CF40AC0C801B70120E030E040E050E06F
:100670000E94371F87FD04C017FB109517F91095CE
:10068000ECA2FDA20EA31FA388A599A5AAA5BBA5B0
:100690008A839B83AC83BD8380E090E0A0E0B0E0E0
:1006A0008E879F87A88BB98BC201B10120E030E013
:1006B00040EA50E40E943B1F7B018C0120E030E0C7
:1006C00040E050E00E94371F88234CF4C201B10182
:1006D00020E030E040EA50EC0E943B1F02C0C8011D
:1006E000B7010E94A31F7F8F6E8F1B8A1A8A688EA4
:1006F000798E8A8E9B8E81E090E09D8F8C8F83E037
:1007000090E09983888320E030E0C901DF91CF91A8
:100710001F910F91FF90EF90DF90CF90BF90AF901F
:100720009F908F907F906F905F904F903F902F9011
:100730000895EF92FF920F931F93CF93DF93EC01F5
:100740007A018B01CB01BA0122E93AE046E050E49C
:100750000E94862018161CF421E030E01AC0219770
:1007600083E390E0C89FF001C99FF00DD89FF00D82
:100770001124EF5DFE4FE4A2F5A206A317A383E0C8
:1007800090E0918380838FEF9FEF978F868F20E09B
:1007900030E0C901DF91CF911F910F91FF90EF9051
:1007A00008951F939C018430910519F4709561950B
:1007B0007F4F6138710564F48FEF603878071CF45F
:1007C00060E87FEF02C077FF05C0162F119503C0C8
:1007D00060E870E0162F2150304083E390E0289FBE
:1007E000F001299FF00D389FF00D11242F5F3F4F2E
:1007F000EF5DFE4F11A32230310549F12330310561
:100800002CF42130310509F070C008C023303105C7
:10081000B9F12430310509F068C04BC0161617062F
:100820001CF484E061E00BC0672B39F084E060E0E9
:100830000E94571C8DE061E006C084E060E00E94E9
:10084000571C8DE060E00E94571C8BE04AC01616D2
:1008500017061CF485E061E00BC0672B39F085E0DA
:1008600060E00E94571C82E061E006C085E060E025
:100870000E94571C82E060E00E94571C83E031C058
:10088000161617061CF487E061E00BC0672B39F0E1
:1008900087E060E00E94571C86E061E006C087E0C8
:1008A00060E00E94571C86E060E00E94571C89E0CF
:1008B00018C0161617061CF488E061E00BC0672B01
:1008C00039F088E060E00E94571C8CE061E006C0CF
:1008D00088E060E00E94571C8CE060E00E94571C9A
:1008E0008AE0612F70E00E94C71A1F9108950F934C
:1008F0001F93CF93DF9301E211E0C0E0D0E0F80155
:10090000118210822196CE0160E070E00E94D10336
:100910000D5C1F4FC430D10591F780E090E0DF916E
:10092000CF911F910F9108952F923F924F925F9216
:100930006F927F928F929F92AF92BF92CF92DF92EF
:10094000EF92FF920F931F93CF93DF93582E492E70
:100950003A014B0178018901019723E330E0829F3E
:10096000E001839FD00D929FD00D1124CF5DDE4F0B
:100970000197029748F5CB01BA0120E030E044EB43
:1009800052E40E94862018165CF40F2EF0E06F2EC1
:10099000F0E07F2EF4EB8F2EF2E49F2EF02D14C0AA
:1009A000C401B30120E030E044EB52EC0E94371F59
:1009B000882354F40F2EF0E06F2EF0E07F2EF4EB3E
:1009C0008F2EF2EC9F2EF02DC401B30128A539A57E
:1009D0004AA55BA50E94D21E0E947B0B5B016C01A5
:1009E00020E030E040E050E00E94862018165CF4E1
:1009F000C601B50125E33AEF4EE85DE30E94371FDB
:100A000088239CF40AC0C601B50125E33AEF4EE8FD
:100A10005DEB0E948620181644F4852D942DB401B8
:100A2000A3010E94FE009C0184C0C801B70120E020
:100A300030E040E050E00E94371F87FD03C0A8016E
:100A4000970103C0A80197015058C601B5010E9443
:100A50003B1F20E030E04AE754E40E948A201B015B
:100A60002C01C601B50120E030E040E050E00E94DA
:100A7000862018165CF4C801B70120E030E040E0A1
:100A800050E00E94371F88237CF40AC0C801B701D8
:100A900020E030E040E050E00E94371F87FD04C0B6
:100AA00017FB109517F91095ECA2FDA20EA31FA33A
:100AB00088A599A5AAA5BBA58A839B83AC83BD8382
:100AC00080E090E0A0E0B0E08E879F87A88BB98B94
:100AD000C201B10120E030E040EA50E40E943B1F37
:100AE0007B018C0120E030E040E050E00E94371FA5
:100AF00088234CF4C201B10120E030E040EA50EC20
:100B00000E943B1F02C0C801B7010E94A31F7F8F34
:100B10006E8F1B8A1A8A688E798E8A8E9B8E81E0F0
:100B200090E09D8F8C8F83E090E09983888320E014
:100B300030E0C901DF91CF911F910F91FF90EF90AD
:100B4000DF90CF90BF90AF909F908F907F906F90ED
:100B50005F904F903F902F900895FC01118210827A
:100B600020E030E040E050E022833383448355832B
:100B700080EE9EE2A5EEB3E486839783A087B187DB
:100B800088E293EEABE2B3E482879387A487B587CC
:100B900026873787408B518B138A128A158A148ACD
:100BA000178A168A208F318F428F538F158E148E9D
:100BB0008FEF9FEF978F868F80E880A38BED9FE06C
:100BC000A9E4BFE384A395A3A6A3B7A315A614A67F
:100BD0000895EF92FF920F931F930E946F1B9B014A
:100BE000AC018091FD029091FE02A091FF02B091B4
:100BF000000379018A01E81AF90A0A0B1B0BD801D4
:100C0000C7010597A105B10570F02093FD0230934F
:100C1000FE024093FF02509300030E945B170E9464
:100C20001D080E947D0D0E94661A0E94010C1F91F2
:100C30000F91FF90EF9008956F927F928F929F9205
:100C4000AF92BF92CF92DF92EF92FF920F931F93DA
:100C5000DF93CF93CDB7DEB7C454D0400FB6F8942E
:100C6000DEBF0FBECDBF00E010E093E3E92EF12C14
:100C70000E9DC0010F9D900D1E9D900D11248F5D46
:100C80009E4F0E94AD050F5F1F4F0430110581F785
:100C900087E061E00E94041C88E061E00E94041C7F
:100CA00089E061E00E94041C89E090E068E070E067
:100CB0000E940B0B86E061E00E94041C85E061E06D
:100CC0000E94041C8AE061E00E94041C8AE090E01B
:100CD00068E070E00E940B0B84E061E00E94041C5D
:100CE00082E061E00E94041C83E061E00E94041C39
:100CF00083E090E068E070E00E940B0B8CE061E024
:100D00000E94041C8DE061E00E94041C8BE061E005
:100D10000E94041C8BE090E068E070E00E940B0BE6
:100D200081EE94E040E051EE60E070E00E94541DDE
:100D300081EE94E00E94341E8EE061E00E94041C6B
:100D40000E945816892B09F461C01092120110926A
:100D500013013E010894611C711CC3014BED5FE05F
:100D600069E471E40BED1FE029EC3FE368017901D0
:100D70004A015B010E94AE0B8DB79EB782970FB6FA
:100D8000F8949EBF0FBE8DBFADB7BEB71196F301ED
:100D900082E201900D928150E1F70E94E00B83E224
:100DA000682E712C6C0E7D1E8DB79EB782960FB685
:100DB000F8949EBF0FBE8DBFC30140E050E060E0DD
:100DC00070E00BED1FE029EC3FEB680179014A016F
:100DD0005B010E94AE0B8DB79EB782970FB6F89459
:100DE0009EBF0FBE8DBFADB7BEB71196F30182E2B5
:100DF00001900D928150E1F70E94E00B8DB79EB7F4
:100E000082960FB6F8949EBF0FBE8DBF8EE061E054
:100E10000E94571C109214011092150184E690E074
:100E200090931C0180931B0183EC98EBA2E3BEE33B
:100E300080931D0190931E01A0931F01B093200188
:100E400010921A01CC5BDF4F0FB6F894DEBF0FBED5
:100E5000CDBFCF91DF911F910F91FF90EF90DF9069
:100E6000CF90BF90AF909F908F907F906F9008959C
:100E700087E00E94A51AAA2797FDA095BA2FBC016A
:100E8000CD010E94D61F20E030E040E85AE30E94E6
:100E90008A2020E030E040EA50E40E948A20089551
:100EA0000E94380720E030E040EA50E40E94D21E61
:100EB00020E030E040E050E00E94371F882394F4A7
:100EC0000E94380720E030E040EA50E40E94D21E41
:100ED0002DEC3CEC4CEC5DEB0E94862018160CF4DB
:100EE000AAC010C00E94380720E030E040EA50E479
:100EF0000E94D21E2DEC3CEC4CEC5DE30E94371FAF
:100F000087FD99C00E94380720E030E040E250E4BD
:100F10000E94D21E20E030E040E050E00E94371FE7
:100F200088238CF40E94380720E030E040E250E44F
:100F30000E94D21E2DEC3CEC4CEC5DEB0E94862016
:100F400018168CF012C00E94380720E030E040E212
:100F500050E40E94D21E2DEC3CEC4CEC5DE30E9470
:100F6000371F882314F481E008950E9438072DE389
:100F70003AE047E550E40E94D21E20E030E040E035
:100F800050E00E94371F88238CF40E9438072DE31D
:100F90003AE047E550E40E94D21E2DEC3CEC4CECCC
:100FA0005DEB0E94862018168CF012C00E94380754
:100FB0002DE33AE047E550E40E94D21E2DEC3CECD4
:100FC0004CEC5DE30E94371F882314F482E00895FF
:100FD0000E94380727ED33EA40E050E40E94D21E19
:100FE00020E030E040E050E00E94371F88238CF47E
:100FF0000E94380727ED33EA40E050E40E94D21EF9
:101000002DEC3CEC4CEC5DEB0E94862018168CF02D
:1010100012C00E94380727ED33EA40E050E40E94F6
:10102000D21E2DEC3CEC4CEC5DE30E94371F882374
:1010300014F483E0089580E008952F923F924F9238
:101040005F926F927F928F929F92AF92BF92CF9258
:10105000DF92EF92FF920F931F93DF93CF93CDB761
:10106000DEB7CB51D1400FB6F894DEBF0FBECDBF77
:101070000E945007C55EDE4F8883CB51D14010914E
:101080000D0318270E946F1B1B012C01112309F46B
:101090007FC28091010390910203A0910303B0915C
:1010A0000403A2019101281B390B4A0B5B0BDA01E7
:1010B000C901895E9340A040B04008F469C28091A4
:1010C0001A01882359F180E289838AE08A83209279
:1010D000090330920A0340920B0350920C032B82B7
:1010E0003C824D825E821F83C55EDE4F8881CB517C
:1010F000D14081238887C55EDE4F8881CB51D140A6
:101100008095812389871A8681EE94E0BE016F5F06
:101110007F4F4AE050E00E94991C32C2812F90E03C
:10112000C55EDE4F4881CB51D140242F30E0822371
:101130009323892BB9F084E690E0A0E0B0E080939F
:10114000160190931701A0931801B093190183E041
:101150008093150120920503309206034092070305
:1011600050920803C55EDE4F8881CB51D1408095F7
:10117000812309F405C20E94A70D20910D0321309F
:1011800009F0B9C18091050390910603A09107036E
:10119000B0910803B201A101481B590B6A0B7B0BEC
:1011A000DB01CA01895B9B40A040B04008F4E0C16C
:1011B00010921201109213012093140181E090E02B
:1011C0004BED5FE069EC7FE30E94990382E090E0E1
:1011D0004BED5FE069EC7FE30E94990383E090E0D0
:1011E0004BED5FE069EC7FE30E94990384E090E0BF
:1011F0004BED5FE069EC7FE30E949903EBE06E2E1C
:10120000712C6C0E7D1EC3014BED5FE069EC7FE33A
:101210008A019B016A017B014A015B010E94AE0BBE
:101220006DB77EB7625270400FB6F8947EBF0FBEA6
:101230006DBFADB7BEB71196F30182E201900D927A
:101240008150E1F70E94E00B7DE2672E712C6C0E5D
:101250007D1E8DB79EB782960FB6F8949EBF0FBEC7
:101260008DBFC3014BED5FE069E470E400E010E086
:1012700020E030E0680179014A015B010E94AE0B79
:10128000EDB7FEB7B2970FB6F894FEBF0FBEEDBF35
:10129000ADB7BEB71196F30182E201900D92815075
:1012A000E1F70E94E00B6FE4662E712C6C0E7D1E40
:1012B0002DB73EB72E5D3F4F0FB6F8943EBF0FBE21
:1012C0002DBFC30144EE5BEC66E970E40BED1FE05B
:1012D00029EC3FEB680179014A015B010E94AE0BEA
:1012E0004DB75EB7425250400FB6F8945EBF0FBE86
:1012F0004DBFADB7BEB71196F30182E201900D92DA
:101300008150E1F70E94E00B51E7652E712C6C0EC5
:101310007D1E6DB77EB76E5D7F4F0FB6F8947EBFB2
:101320000FBE6DBFC30140E050E060E070E08A0195
:101330009B016A017B014A015B010E94AE0B8DB7E4
:101340009EB782970FB6F8949EBF0FBE8DBFADB704
:10135000BEB71196F30182E201900D928150E1F740
:101360000E94E00B43E9642E712C6C0E7D1EEDB7DC
:10137000FEB7B2960FB6F894FEBF0FBEEDBFC30125
:101380004BED5FE069EC7FEB0BED1FE029EC3FE3F9
:10139000680179014A015B010E94AE0B2DB73EB78F
:1013A000225230400FB6F8943EBF0FBE2DBFADB7EE
:1013B000BEB71196F30182E201900D928150E1F7E0
:1013C0000E94E00B35EB632E712C6C0E7D1E4DB729
:1013D0005EB74E5D5F4F0FB6F8945EBF0FBE4DBF58
:1013E000C3014BED5FE069E470EC00E010E020E049
:1013F00030E0680179014A015B010E94AE0B6DB7D4
:101400007EB7625270400FB6F8947EBF0FBE6DBFBC
:10141000ADB7BEB71196F30182E201900D928150F3
:10142000E1F70E94E00B27ED622E712C6C0E7D1E01
:101430008DB79EB782960FB6F8949EBF0FBE8DBF34
:10144000C30144EE5BEC66E970EC0BED1FE029ECA8
:101450003FEB680179014A015B010E94AE0BEDB7D9
:10146000FEB7B2970FB6F894FEBF0FBEEDBFADB793
:10147000BEB71196F30182E201900D928150E1F71F
:101480000E94E00B99EF692E712C6C0E7D1E2DB71A
:101490003EB72E5D3F4F0FB6F8943EBF0FBE2DBF37
:1014A000C30140E050E060E070E08A019B016A0106
:1014B0007B014A015B010E94AE0B4DB75EB7425201
:1014C00050400FB6F8945EBF0FBE4DBFADB7BEB76C
:1014D0001196F30182E201900D928150E1F70E9492
:1014E000E00B6DB77EB76E5D7F4F0FB6F8947EBF91
:1014F0000FBE6DBF3DC02230B9F581E2E82E81E01C
:10150000F82E20E030E001E010E0F70180819181C9
:10151000892B51F0C80160E070E00E94D103F7010F
:101520001182108221E030E00F5F1F4F43E350E053
:10153000E40EF51E0530110541F7232BC9F4EE2406
:10154000FF240894E11CF11CC70140E050E060E07A
:1015500070E00BED1FE029EC3FE30E94590154E0DD
:10156000E516F10471F704C0233011F40E942B1723
:10157000209201033092020340920303509204032D
:10158000209205033092060340920703509208030D
:1015900080911A018823E1F4C55EDE4F6881CB514A
:1015A000D1406130A9F40E946F1B20910503309156
:1015B00006034091070350910803621B730B840BD1
:1015C000950B695B7B408040904010F00E94A70D16
:1015D000C55EDE4FF881CB51D140F0930D0380E022
:1015E00090E0C55EDE4F0FB6F894DEBF0FBECDBFF4
:1015F000CF91DF911F910F91FF90EF90DF90CF90EF
:10160000BF90AF909F908F907F906F905F904F9022
:101610003F902F9008959C01255030402230310595
:1016200030F08930910519F08A30910579F56034F0
:101630007105C1F06134710544F46130710581F0C8
:101640006830710509F056C009C081E06030780744
:1016500059F06050744009F04DC008C092E007C0D6
:1016600091E005C093E003C094E001C095E0223012
:10167000310528F485B5887F982B95BD0895809114
:101680008100887F982B9093810008958330910585
:1016900011F00B9779F560347105F9F0613471053B
:1016A00054F46830710599F060327105A1F0613031
:1016B000710501F50EC081E06030780791F084E09B
:1016C0006030780781F060387105A1F408C092E0BD
:1016D0000BC091E009C093E007C094E005C095E01D
:1016E00003C096E001C097E08091B100887F982BFD
:1016F0009093B1000895EF92FF920F931F9308C04B
:10170000C801B7012BED3FE049EC50E40E94D31E25
:101710007B018C012BED3FE049E450EC0E94371F28
:1017200087FDEECF0AC0C801B7012BED3FE049ECC1
:1017300050E40E94D21E7B018C01C801B7012BED41
:101740003FE049E450E40E948620181664F3B70194
:10175000C8011F910F91FF90EF9008958F929F9273
:10176000AF92BF92CF92DF92EF92FF920F931F93AF
:10177000DF93CF93CDB7DEB7FC01118210821782C1
:10178000168211861086428753876487758706877D
:101790001787208B318BC28AD38AE48AF58A868A9E
:1017A000978AA08EB18ECF91DF911F910F91FF90FC
:1017B000EF90DF90CF90BF90AF909F908F90089563
:1017C000DF93CF93CDB7DEB720911301822F90E046
:1017D000FC0145E0EE0FFF1F4A95E1F7880F991FC6
:1017E000E80FF91FE351FE4FDE01159682E20D90DE
:1017F00001928150E1F72F5F20931301CF91DF9188
:1018000008958F929F92AF92BF92CF92DF92EF9204
:10181000FF920F931F93CF93DF932091120190912A
:101820001301291790F010921201E3EFF1E082E228
:10183000989FC00111248E0F9F1F03C01182108238
:10184000B296E817F907D1F724C1C22EDD24109211
:101850000F0310920E038601000F111FC60135E021
:10186000880F991F3A95E1F7080F191F8DEE882E02
:1018700081E0982E800E911EF401C081D181C1308B
:10188000D10541F0C230D10509F49EC0CD2B09F439
:1018900050C0FFC0F40186819781892BA9F40E9472
:1018A0006F1BF60104E0EE0FFF1F0A95E1F7EC0D48
:1018B000FD1DEE0FFF1FE151FE4F60837183828398
:1018C0009383F401D783C6830E946F1BF601EE0F4A
:1018D000FF1F9601A5E0220F331FAA95E1F7E20F43
:1018E000F31FE351FE4FE084F1840027F7FC0095DD
:1018F000102FF60154E0EE0FFF1F5A95E1F7EC0DA3
:10190000FD1DEE0FFF1FE151FE4F2081318142810D
:101910005381E20EF31E041F151FE616F706080793
:10192000190708F0B6C0809112018F5F80931201F1
:10193000B0C0F40186819781892B69F0E3E3F1E07F
:1019400080819181892B09F4A4C0F39681E0EF3F57
:10195000F807B1F79BC00E946F1BF60134E0EE0F51
:10196000FF1F3A95E1F7EC0DFD1DEE0FFF1FE15152
:10197000FE4F60837183828393837801E7EFF1E008
:10198000EE0EFF1EC0E0D0E02196F701419151918B
:10199000619171917F01CE010BED1FE029EC3FE3D6
:1019A0000E949404C430D10579F7F60115E0EE0FDA
:1019B000FF1F1A95E1F7CC0CDD1CEC0DFD1DE3516A
:1019C000FE4F81E090E05FC0F40186819781E601DF
:1019D000A4E0CC0FDD1FAA95E1F7892B91F10E94BD
:1019E0006F1BF401E084F1840027F7FC0095102FB1
:1019F000CC0DDD1DCC0FDD1FC151DE4F288139819B
:101A00004A815B81E20EF31E041F151FE616F706DE
:101A100008071907F0F5809112018F5F809312017A
:101A2000109222011092210110925501109254013E
:101A300010928801109287011092BB011092BA0196
:101A400028C00E946F1BCC0DDD1DCC0FDD1FC151C6
:101A5000DE4F688379838A839B83F4016285738573
:101A6000848595852685378540895189E288F38864
:101A700004891589A688B788C08CD18C0E94AD00D6
:101A800081E090E0F4019783868303C02F5F209369
:101A90001201DF91CF911F910F91FF90EF90DF9096
:101AA000CF90BF90AF909F908F9008950F931F930A
:101AB000CF93DF938C01EB0181EE94E060E10E9413
:101AC000461ECE018D5F682F81EE94E00E94461E77
:101AD0001C161D0634F481EE94E0B801AE010E949C
:101AE000991C81EE94E061E10E94461E80E090E046
:101AF000DF91CF911F910F91089580911501882357
:101B000029F10E946F1B209116013091170140911D
:101B10001801509119010E94142120FF11C08EE07C
:101B200061E00E94571C80913803882329F480913A
:101B3000150181508093150181E080933803089549
:101B40008EE060E00E94571C109238030895CF93F6
:101B5000DF93C0E0D0E08EE060E00E94571C64E6B6
:101B600070E080E090E00E94A31B8EE061E00E94A4
:101B7000571C64E670E080E090E00E94A31B219671
:101B8000C330D10541F7DF91CF910895CF93DF9313
:101B9000C0E0D0E08EE061E00E94571C64E670E097
:101BA00080E090E00E94A31B8EE060E00E94571C42
:101BB00064E670E080E090E00E94A31B2196CA30AA
:101BC000D10541F7DF91CF9108950E94A51AAA2768
:101BD00097FDA095BA2FBC01CD010E94D61F20E031
:101BE00030E040EA50E40E948A2020E030E040E803
:101BF0005AE30E948A200895AF92BF92CF92DF925B
:101C0000EF92FF920F931F93DF93CF93CDB7DEB781
:101C100028970FB6F894DEBF0FBECDBF6C01FB0155
:101C2000E80FF91F31978081882391F081EE94E0CD
:101C30006FEF0E94461E81EE94E063E00E94461E14
:101C400081EE94E061E10E94461E2FEF3FEFEDC46C
:101C5000D6018C91823461F0833438F48233D8F029
:101C6000863330F08E33B9F403C08454833098F453
:101C7000F6018281843078F081EE94E06FEF0E946B
:101C8000461E81EE94E063E00E94461E81EE94E0E1
:101C900061E10E94461ED6018C9190E0FC01F09714
:101CA000E132F10508F0B0C4EC5CFF4FEE0FFF1F0E
:101CB0000590F491E02D0994F601828190E023E3F0
:101CC000E22EF12C8E9DF0018F9DF00D9E9DF00D6A
:101CD0001124EF5DFE4FD60113968C911397868BDE
:101CE000178A12968C91282F30E02E9D80012F9D0F
:101CF000100D3E9D100D11240F5D1E4FF8018689B9
:101D000097898130910509F048C064A175A186A129
:101D100097A120E030E040E050E00E94371F882388
:101D200009F46BC483E090E0D8018D939C93F60195
:101D3000828190E08E9DF0018F9DF00D9E9DF00DB3
:101D40001124EF5DFE4F8FEF9FEF978F868FD601A7
:101D500012968C9190E08E9DF0018F9DF00D9E9DCE
:101D6000F00D1124EF5DFE4F80A591A5A2A5B3A5AE
:101D700082839383A483B583F601828190E08E9D54
:101D8000F0018F9DF00D9E9DF00D1124EF5DFE4F33
:101D900044A155A166A177A150C08230910509F0F8
:101DA00050C0D80194966D917D918D919C9197979B
:101DB00020E030E040E050E00E94371F882309F423
:101DC0001CC483E090E0F80191838083D6011296D1
:101DD0008C91129790E08E9DF0018F9DF00D9E9D4D
:101DE000F00D1124EF5DFE4F8FEF9FEF978F868FE1
:101DF00012968C9190E08E9DF0018F9DF00D9E9D2E
:101E0000F00D1124EF5DFE4F80A591A5A2A5B3A50D
:101E100082839383A483B583F601828190E08E9DB3
:101E2000F0018F9DF00D9E9DF00D1124EF5DFE4F92
:101E300044A155A166A177A1705801960E9499030B
:101E4000DCC3009761F4D8011D921C92F6018281D7
:101E500090E0019660E070E00E94D103CEC303974A
:101E600009F0CBC3D8018D919C91119782309105D7
:101E700059F452968D919C915397892B69F0559600
:101E80001C921E925497B9C3039731F4F801428112
:101E90005381648175810FC083E390E0289FF00136
:101EA000299FF00D389FF00D1124EF5DFE4F40A5E6
:101EB00051A562A573A5C90101960E94FE009DC3AC
:101EC000D60112968C9190E023E330E0829FF001DE
:101ED000839FF00D929FF00D1124EF5DFE4F8689D8
:101EE0006FC3F60183819481A581B68189839A832A
:101EF000AB83BC83E980FA800B811C81C801B701E8
:101F000020E030E040E050E00E94371F882324F4B6
:101F100017FB109517F91095E982FA820B831C8341
:101F2000C801B70122E93AE046E050E40E94862069
:101F3000181644F482E99AE0A6E0B0E489839A8313
:101F4000AB83BC83D60112968C9190E023E330E002
:101F5000829FF001839FF00D929FF00D1124EF5DA1
:101F6000FE4F89819A81AB81BC8184A395A3A6A3EE
:101F7000B7A343C3D6011296EC9183E3E89FF00127
:101F80001124EB5BFE4FFFC102E0A02EB12CAC0C84
:101F9000BD1C15E4C12E11E0D12EEE24FF24F50165
:101FA00081919191A191B1915F0189839A83AB83D2
:101FB000BC830894E11CF11C49815A816B817C81AE
:101FC000D6010D911D912D913C91C7010E9459019F
:101FD000E3E3F0E0CE0EDF1EF4E0EF16F104F9F6D5
:101FE0000CC3B2E0AB2EB12CAC0CBD1CA5E4CA2EC8
:101FF000A1E0DA2EEE24FF24F50181919191A191C7
:10200000B1915F0189839A83AB83BC830894E11CFF
:10201000F11C49815A816B817C81D6010D911D9102
:102020002D913C91C7010E947002E3E3F0E0CE0ED7
:10203000DF1EF4E0EF16F104F9F6DFC2F2E0AF2E96
:10204000B12CAC0CBD1CE5E4CE2EE1E0DE2EEE247E
:10205000FF24F50181919191A191B1915F01898353
:102060009A83AB83BC830894E11CF11C49815A819B
:102070006B817C81D6010D911D912D913C91C70101
:102080000E949404E3E3F0E0CE0EDF1EF4E0EF16CE
:10209000F104F9F6B2C272E0E72EF12CEC0CFD1C53
:1020A00000E010E0F70181919191A191B1917F0140
:1020B00089839A83AB83BC830F5F1F4F49815A8109
:1020C0006B817C81C8010E94FE000430110551F72C
:1020D00094C220E030E040E050E063E370E0FA01B9
:1020E000E05FFC4F269FD001279FB00D369FB00DBB
:1020F0001124A75BBE4F8D919D910D90BC91A02D99
:1021000080839183A283B3832F5F3F4F4C5F5F4FE8
:102110002430310521F737C009E411E0EE24FF2413
:10212000D80114966D917C911597882777FD80953D
:10213000982F0E94D61F2BED3FE049EC50E40E94FF
:102140008A209B01AC01F8016081718182819381B9
:102150000E94D31E69837A838B839C83F701E05F9F
:10216000FC4F89819A81AB81BC8180839183A2835A
:10217000B3830D5C1F4F84E090E0E80EF91E92E0FF
:102180000531190769F680E193E060E170E039C23A
:102190000E946F1B6D837E838F83988760931003EB
:1021A00070931103809312039093130320E030E0A7
:1021B00044E050E063E370E0FA01E05FFC4F269FEB
:1021C000D001279FB00D369FB00D1124A75BBE4FE5
:1021D0008D919D910D90BC91A02D80839183A283C0
:1021E000B3834C5F5F4F2F5F3F4F2430310521F7A2
:1021F00046C00E946F1B6D837E838F839887609398
:10220000100370931103809312039093130309E456
:1022100011E064E0E62EF12CD80114966D917C91CA
:102220001597882777FD8095982F0E94D61F2BED54
:102230003FE049EC50E40E948A209B01AC01F80188
:1022400060817181828193810E94D31E69837A8328
:102250008B839C83F701E05FFC4F89819A81AB817E
:10226000BC8180839183A283B3830D5C1F4F84E084
:1022700090E0E80EF91E92E00531190769F680E159
:1022800093E064E170E0BDC1F60183819481A58192
:10229000B68189839A83AB83BC83828190E0498134
:1022A0005A816B817C8123E330E0829FF001839F20
:1022B000F00D929FF00D1124EF5DFE4F04A115A1CA
:1022C00026A137A101960E94590197C1F601838189
:1022D0009481A581B68189839A83AB83BC838281F3
:1022E00090E049815A816B817C8123E330E0829FB9
:1022F000F001839FF00D929FF00D1124EF5DFE4FD2
:1023000004A115A126A137A101960E94700275C1F2
:10231000F60183819481A581B68189839A83AB83F9
:10232000BC83828190E049815A816B817C8123E367
:1023300030E0829FF001839FF00D929FF00D1124F9
:10234000EF5DFE4F04A115A126A137A101960E94C1
:10235000940453C1F60183819481A581B681898358
:102360009A83AB83BC83828190E049815A816B81DF
:102370007C81A2CDD6011296EC9183E3E89FF00117
:102380001124E75BFE4F80819181A281B381E3C07C
:10239000F601828190E023E330E0829FF001839F89
:1023A000F00D929FF00D1124EF5DFE4FE0A4F1A41B
:1023B00002A513A564A575A5882777FD8095982F9C
:1023C0000E94D61F2BED3FE049EC50E40E948A208A
:1023D0009B01AC01C801B7010E94D31EB4C00E948A
:1023E0006F1B6D837E838F83988760931003709338
:1023F00011038093120390931303D6011296EC916C
:1024000083E3E89FF0011124E75BFE4F8081918117
:10241000A281B3818093140390931503A0931603B4
:10242000B093170380E193E068E070E0EAC0F60142
:102430008281282F30E083E390E0289FF001299FDC
:10244000F00D389FF00D1124EF5DFE4F80819181DA
:1024500081309105B1F0823091051CF4892B41F057
:10246000B1C08230910539F0039709F0ABC009C0C3
:1024700010921003A7C082899389892BC9F083E049
:102480009FC083E390E0289FF001299FF00D389FC3
:10249000F00D1124EF5DFE4F64A175A186A197A1F7
:1024A00020E030E040E050E00E948620181614F44E
:1024B00081E086C082E084C082E99AE0A6E0B0E4D0
:1024C00089839A83AB83BC8342C0D60112968C91D8
:1024D00090E00E94E50D37C00E94380734C080911B
:1024E0001D0190911E01A0911F01B091200133C0E8
:1024F000F60182819381A481B58189839A83AB831C
:10250000BC8389819A81AB81BC8180931D019093AA
:102510001E01A0931F01B09320016FC020911B01E9
:1025200030911C01B901660F771F660F771F620F8C
:10253000731F80E090E00E94D41F20E030E04AE763
:1025400054E40E943B1F69837A838B839C83898137
:102550009A81AB81BC818093100390931103A09367
:102560001203B093130380E193E064E070E049C08C
:10257000F60182819381A481B58189839A83AB839B
:10258000BC8369817A818B819C8120E030E04AE7BD
:1025900054E40E948A2069837A838B839C8320E0A1
:1025A00030E040EA50E40E943B1F0E94A81F709355
:1025B0001C0160931B0121C00E9477041EC081E2B0
:1025C0008093100380E193E061E070E01AC0F601AF
:1025D00082819381A481B581809316019093170124
:1025E000A0931801B093190186818093150105C04D
:1025F000D60112968C9180931A0180E090E060E001
:1026000070E00E94560D0FC081EE94E06FEF0E94C3
:10261000461E81EE94E063E00E94461E81EE94E047
:1026200061E10E94461E20E030E0C90128960FB605
:10263000F894DEBF0FBECDBFCF91DF911F910F91F8
:10264000FF90EF90DF90CF90BF90AF9008956F9282
:102650007F928F929F92AF92BF92CF92DF92EF9232
:10266000FF920F931F934C0180913B0390913C0389
:10267000892B09F08AC085E090E00E94E50D20E0FA
:1026800030E040E250E40E94D21E5B016C0186E023
:1026900090E00E94E50D20E030E040E250E40E942E
:1026A000D21E7B018C01C601B50120E030E040E084
:1026B00050E00E94371F882324F4D7FAD094D7F82B
:1026C000D094C801B70120E030E040E050E00E9423
:1026D000371F882324F417FB109517F91095C601AE
:1026E000B501A80197010E94371F88231CF481E0DF
:1026F00090E002C082E090E090933C0380933B0323
:1027000081E090E00E94E50D20E030E040E250E4FE
:102710000E94D21E5B016C0182E090E00E94E50DF8
:1027200020E030E040E250E40E94D21E7B018C01A8
:10273000C601B50120E030E040E050E00E94371FC4
:10274000882324F4D7FAD094D7F8D094C801B701DD
:1027500020E030E040E050E00E94371F882324F45E
:1027600017FB109517F91095C601B501A80197013F
:102770000E94371F88231CF481E090E002C082E0B1
:1027800090E090933A038093390382E08816910495
:1027900009F4F1C083E08816910434F481E08816CE
:1027A000910409F06AC20BC083E08816910409F411
:1027B00035C184E08816910409F05FC282C185E0CA
:1027C00090E00E94E50D7B018C0186E090E00E9484
:1027D000E50D5B016C01C801B70120E030E040E28B
:1027E00050E40E94D21E3B014C01C601B50120E01D
:1027F00030E040E250E40E94D21E7B018C018091C7
:102800003B0390913C03019729F5C401B30120E0FB
:1028100030E040E050E00E94371F88235CF4C401A0
:10282000B30120E030E040E050EC0E94371F8823E5
:102830008CF40AC0C401B30120E030E040E050E471
:102840000E948620181634F482E090E090933C03B6
:1028500080933B0380913B0390913C03029729F5C1
:10286000C801B70120E030E040E050E00E94371F8F
:1028700088235CF4C801B70120E030E040E050EC70
:102880000E94371F88238CF40AC0C801B70120E0DA
:1028900030E040E050E40E948620181634F481E0D5
:1028A00090E090933C0380933B0380913B03909195
:1028B0003C030297A9F4C801B70120E030E04AEADE
:1028C00053E40E948A2020E030E040EA50E40E9475
:1028D0003B1F20E030E044E353E40E94D31E0EC0CF
:1028E000C401B30120E030E04AEA53E40E948A20A8
:1028F00020E030E040EA50E40E943B1F2BED3FE037
:1029000049E450EC0E948A2020E030E044E353E4A4
:102910000E943B1F20914F01309150014091510185
:102920005091520106C0C801B7012BED3FE049ECC0
:1029300050E40E94D31E7B018C012BED3FE049E463
:1029400050EC0E94371F87FDEECF0AC0C801B701C7
:102950002BED3FE049EC50E40E94D21E7B018C013C
:10296000C801B7012BED3FE049E450E40E94862006
:10297000181664F38EC184E090E00E94E50D20E01B
:1029800030E040E250E40E94D21E20E030E04AEA0B
:1029900053E40E948A2020E030E040EA50E40E94A4
:1029A0003B1F2BED3FE049E450E40E948A2020E0E9
:1029B00030E044E353E40E943B1F209182013091B8
:1029C0008301409184015091850106C0C801B7017F
:1029D0002BED3FE049EC50E40E94D31E7B018C01BB
:1029E0002BED3FE049E450EC0E94371F87FDEECF0E
:1029F0000AC0C801B7012BED3FE049EC50E40E944A
:102A0000D21E7B018C01C801B7012BED3FE049E4E8
:102A100050E40E948620181664F33BC183E090E0E6
:102A20000E94E50D20E030E040E250E40E94D21E1A
:102A300020E030E04AEA53E40E948A2020E030E0BF
:102A400040EA50E40E943B1F2BED3FE049E450E494
:102A50000E948A2020E030E044E353E40E943B1FC0
:102A60002091B5013091B6014091B7015091B80164
:102A700006C0C801B7012BED3FE049EC50E40E94CD
:102A8000D31E7B018C012BED3FE049E450EC0E940A
:102A9000371F87FDEECF0AC0C801B7012BED3FE01D
:102AA00049EC50E40E94D21E7B018C01C801B701A1
:102AB0002BED3FE049E450E40E948620181664F3B1
:102AC000E8C081E090E00E94E50D7B018C0182E08E
:102AD00090E00E94E50D5B016C01C801B70120E0A8
:102AE00030E040E250E40E94D21E3B014C01C6019E
:102AF000B50120E030E040E250E40E94D21E7B01AC
:102B00008C018091390390913A03019729F5C40112
:102B1000B30120E030E040E050E00E94371F8823FE
:102B20005CF4C401B30120E030E040E050EC0E94CE
:102B3000371F88238CF40AC0C401B30120E030E0C1
:102B400040E050E40E948620181634F482E090E0C1
:102B500090933A03809339038091390390913A031B
:102B6000029729F5C801B70120E030E040E050E0CD
:102B70000E94371F88235CF4C801B70120E030E0D1
:102B800040E050EC0E94371F88238CF40AC0C80133
:102B9000B70120E030E040E050E40E9486201816A3
:102BA00034F481E090E090933A038093390380916C
:102BB000390390913A030297A9F4C801B70120E0C4
:102BC00030E04AEA53E40E948A2020E030E040EA04
:102BD00050E40E943B1F20E030E044E353E40E94B5
:102BE000D31E0EC0C401B30120E030E04AEA53E432
:102BF0000E948A2020E030E040EA50E40E943B1F1F
:102C00002BED3FE049E450E40E948A2020E030E0D0
:102C100044E353E40E943B1F2091E8013091E90115
:102C20004091EA015091EB0106C0C801B7012BEDBC
:102C30003FE049EC50E40E94D31E7B018C012BED58
:102C40003FE049E450EC0E94371F87FDEECF0AC0F9
:102C5000C801B7012BED3FE049EC50E40E94D21EC1
:102C60007B018C01C801B7012BED3FE049E450E442
:102C70000E948620181664F30CC00E94C60D0F2E09
:102C8000F0E0EF2EF0E0FF2EF0E80F2FFFEB1F2F0C
:102C9000F02DB701C8011F910F91FF90EF90DF90C9
:102CA000CF90BF90AF909F908F907F906F9008953E
:102CB0006F927F928F929F92AF92BF92CF92DF924C
:102CC000EF92FF920F931F93DF93CF9300D000D02A
:102CD000CDB7DEB78FE494E060E170E00E94A11A06
:102CE000813A91F5CC24DD24AA24BB2453E3852E1C
:102CF000912CC89C7001C99CF00CD89CF00C11243C
:102D00008FE491E0E80EF91E00E010E0B8016A0DD2
:102D10007B1D8FE494E00E94A11AF701E00FF11FE0
:102D200080830F5F1F4F0430110581F70894C11C89
:102D3000D11CE4E0F0E0AE0EBF1EF4E0CF16D104EB
:102D4000C1F620E030E073C04FE4842E41E0942EC1
:102D500031E0C32ED12CAA24BB243E010894611C6F
:102D6000711CC6010E9427137B018C0169837A8341
:102D70008B839C83C6010297029710F5C801B701A7
:102D800020E030E040E050E00E94371F88235CF4F0
:102D9000C801B70120E030E04CE852EC0E94371F38
:102DA000882374F40AC0C801B70120E030E04CE881
:102DB00052E40E94862018161CF40E94C60DFDCF16
:102DC000D801C701B05889839A83AB83BC83F401CF
:102DD00080839183A283B38300E010E0B8016A0D81
:102DE0007B1DF301E00FF11F8FE494E040810E940E
:102DF0009C1A0F5F1F4F0430110581F70894C11C06
:102E0000D11C84E090E0A80EB91EE3E3F0E08E0E42
:102E10009F1EF5E0CF16D10409F0A3CF8FE494E014
:102E200060E170E041EA0E949C1A21E030E0C901B3
:102E30000F900F900F900F90CF91DF911F910F91F6
:102E4000FF90EF90DF90CF90BF90AF909F908F90CA
:102E50007F906F90089580E090E0A0E0B0E08093D4
:102E60004F0190935001A0935101B0935201809370
:102E7000820190938301A0938401B0938501809394
:102E8000B5019093B601A093B701B093B8018093B8
:102E9000E8019093E901A093EA01B093EB018FE47C
:102EA00094E060E170E040EA0E949C1A0E9458168B
:102EB00080E090E008952F923F924F925F926F9240
:102EC0007F928F929F92AF92BF92CF92DF92EF92BA
:102ED000FF920F931F93DF93CF93CDB7DEB7289761
:102EE0000FB6F894DEBF0FBECDBFE3E42E2EE1E0B7
:102EF0003E2EC101829798878F8388969E838D830B
:102F0000EFE3F4E0FC83EB836F80788472E3472E79
:102F1000512C460C571CC3018C969A83898361E01F
:102F2000862E912CEF81F88521A1F10160817181BC
:102F3000620F711D882777FD8095982F0E94D61FFC
:102F400020E030E042E553E40E94D21E0E94A31F1D
:102F5000F1017183608377FF02C011821082F10159
:102F600060817181882777FD8095982F0E94D61FF8
:102F700020E034E14DEC58E40E94862018160CF451
:102F800020C2C4010E9427137B018C01ED81FE81C8
:102F9000608371838283938320E030E040E450ECCF
:102FA0000E94371F8823A4F4EB81FC81608171812A
:102FB0008281938120E030E040E450E40E9486204A
:102FC000181634F4E981FA818081918101961DC03F
:102FD000C801B70120E030E040E450E40E948620C0
:102FE0001816ACF4EB81FC81608171818281938140
:102FF00020E030E040E450EC0E94371F88233CF48E
:10300000E981FA8180819181019791838083ED81AB
:10301000FE8180819181A281B381EB81FC818083DB
:103020009183A283B383F3018081918182309105E2
:10303000F9F08330910509F4CBC0019709F007C27C
:10304000EF81F88586899789009721F4F301118231
:103050001082FDC1EF81F88560A1019719F4C401C8
:1030600070E0B2C170E0709561957F4FC401ACC152
:10307000EF81F885868D978D009731F48289938949
:10308000892B09F0D7C0A0C0181619062CF4019797
:10309000EF81F885978F868FEF81F8856281738144
:1030A00084819581ED81FE8120813181428153812E
:1030B0000E94D21E08C0C801B7012BED3FE049ECC9
:1030C00050E40E94D31E7B018C012BED3FE049E4CC
:1030D00050EC0E94371F87FDEECF0AC0C801B70130
:1030E0002BED3FE049EC50E40E94D21E7B018C01A5
:1030F000C801B7012BED3FE049E450E40E9486206F
:10310000181664F357016801C801B70120E030E0E8
:1031100040E050E00E94371F88235CF4C801B701EB
:1031200025E33AEF4EE05DEB0E94862018165CF036
:103130001AC0C801B70125E33AEF4EE05DE30E94F3
:10314000371F882384F481E090E0EF81F885938B2A
:10315000828B84899589892BB9F58FEF9FEFEF8159
:10316000F885978F868FEF81F88582899389892BDF
:1031700009F42DC1C801B70120E030E040E050E083
:103180000E94371F882324F417FB109517F9109518
:10319000C801B70120911D0130911E0140911F010E
:1031A000509120010E94862018160CF010C1F201E7
:1031B00080818F5F808390E020911B0130911C0102
:1031C0002817390708F005C1F30111821082F9C0F0
:1031D000EF81F885868D978D009789F581E090E0E5
:1031E000938B828B80E090E0A0E0B0E086879787A9
:1031F000A08BB18B82E090E0F30191838083EF811B
:10320000F885848D958D892B51F0808D918DA28DBF
:10321000B38D82839383A483B583158E148EEF813F
:10322000F88584899589892B29F088EC90E0978F1F
:10323000868F0DC18FEF9FEFEF81F885F8CF1816BD
:1032400019062CF40197EF81F885978F868FEF810F
:10325000F88564A175A186A197A12AE037ED43EA1C
:103260005BE30E948A20EF81F885228133814481CB
:1032700055810E94D31E9B01AC01EF81F8856283CA
:10328000738384839583C4010297029760F5CA0112
:10329000B9012BED3FE049EC5FEB0E94371F88231B
:1032A00054F48BED9FE0A9ECBFEBEF81F8858283AE
:1032B0009383A483B583EF81F885628173818481D0
:1032C00095812BED3FE049EC5FE30E9486201816C4
:1032D00054F48BED9FE0A9ECBFE3EF81F885828386
:1032E0009383A483B583EF81F885628173818481A0
:1032F0009581ED81FE8120813181428153810E943F
:10330000D21E08C0C801B7012BED3FE049EC50E4E4
:103310000E94D31E7B018C012BED3FE049E450EC71
:103320000E94371F87FDEECF0AC0C801B7012BED01
:103330003FE049EC50E40E94D21E7B018C01C801A1
:10334000B7012BED3FE049E450E40E9486201816B7
:1033500064F357016801C801B70120E030E040E0A4
:1033600050E00E94371F882324F417FB109517F9AB
:10337000109520911D0130911E0140911F01509127
:103380002001CA01B9010E94D31E9B01AC01C801F2
:10339000B7010E9486201816D4F4F20180818F5F55
:1033A000808390E020911B0130911C012817390780
:1033B00008F04DC0F30111821082EF81F885158E5F
:1033C000148EC40160E070E00E94D10340C0F2019D
:1033D0001082C601B501EF81F885268137814085CD
:1033E00051850E948A207B018C01EF81F8856285DE
:1033F00073858485958526853785408951890E9406
:103400008A209B01AC01C801B7010E94D31E0E9413
:10341000A31F9B01AC01C401B9010E94D103C601E5
:10342000B5012AE037ED43EA5BE30E948A209B0165
:10343000AC01EF81F88566857785808991890E9446
:10344000D31EEF81F88566877787808B918B0894F0
:10345000811C911C83E390E0280E391EEF81F885D2
:10346000F396F887EF838D819E81C3969E838D832B
:10347000EB81FC813496FC83EB8383E390E0680E60
:10348000791E480E591EE981FA81F396FA83E98381
:10349000F5E08F16910409F045CD28960FB6F89403
:1034A000DEBF0FBECDBFCF91DF911F910F91FF9077
:1034B000EF90DF90CF90BF90AF909F908F907F90D4
:1034C0006F905F904F903F902F9008952DC081EEA8
:1034D00094E00E940B1E9C0197FF05C010923E03D2
:1034E00010923D03089580913D0390913E03FC01AD
:1034F000E15CFC4F20839C012F5F3F4F30933E03E4
:1035000020933D03223031057CF080914003682FE9
:1035100070E06217730741F48FE393E00E94FC0DA3
:1035200010923E0310923D0381EE94E00E94DA1D5A
:103530001816190664F20895CB01642F0E944421E5
:103540000895CB010E943C210895982F8E3008F0F9
:103550009E509770809100018295880F880F807C23
:10356000892B80937C0080917A00806480937A001C
:1035700080917A0086FDFCCF2091780040917900FF
:10358000942F80E030E0282B392BC90108951F9338
:10359000CF93DF93182FEB0161E00E94041C20976A
:1035A00009F44AC0CF3FD10509F449C0E12FF0E04A
:1035B000E051FF4F84918330C1F0843028F4813092
:1035C00051F08230B1F50CC0863019F1873049F1E5
:1035D000843079F514C084B5806884BDC7BD33C01C
:1035E00084B5806284BDC8BD2EC080918000806893
:1035F00080938000D0938900C093880024C080917C
:103600008000806280938000D0938B00C0938A00FA
:103610001AC08091B00080688093B000C093B3005E
:1036200012C08091B00080628093B000C093B4005B
:103630000AC0C038D1051CF4812F60E002C0812F80
:1036400061E00E94571CDF91CF911F9108951F9256
:103650000F920FB60F9211242F933F938F939F9346
:10366000AF93BF938091540490915504A091560458
:10367000B0915704309158040196A11DB11D232F1C
:103680002D5F2D3720F02D570196A11DB11D2093E0
:1036900058048093540490935504A0935604B09317
:1036A00057048091500490915104A0915204B0911C
:1036B00053040196A11DB11D8093500490935104B1
:1036C000A0935204B0935304BF91AF919F918F91F7
:1036D0003F912F910F900FBE0F901F9018958FB7AD
:1036E000F89420915404309155044091560450911F
:1036F00057048FBFB901CA0108959FB7F89420916C
:10370000500430915104409152045091530486B5B5
:10371000A89B06C08F3F21F02F5F3F4F4F4F5F4F59
:103720009FBF542F432F322F2227280F311D411DB9
:10373000511D82E0220F331F441F551F8A95D1F778
:10374000B901CA010895EF92FF920F931F93CF938F
:10375000DF937B018C010E947D1BEB010EC00E9458
:103760007D1B6C1B7D0B685E7340C8F30894E108F9
:10377000F10801091109C851DC4FE114F1040105F8
:10378000110569F7DF91CF911F910F91FF90EF9095
:103790000895789484B5826084BD84B5816084BDC9
:1037A00085B5826085BD85B5816085BDEEE6F0E0BA
:1037B000808181608083E1E8F0E010828081826016
:1037C0008083808181608083E0E8F0E08081816097
:1037D0008083E1EBF0E0808184608083E0EBF0E0C7
:1037E000808181608083EAE7F0E08081846080836B
:1037F0008081826080838081816080838081806815
:1038000080831092C1000895482F50E0CA0184526D
:103810009F4FFC01249148535F4FFA018491882304
:10382000C1F0E82FF0E0EE0FFF1FE655FF4FA59126
:10383000B491662341F49FB7F8948C91209582232C
:103840008C939FBF08959FB7F8948C91822B8C9393
:103850009FBF0895833071F0843028F48130A1F047
:10386000823021F514C08630B1F08730D1F0843039
:10387000E9F404C0809180008F7703C080918000BC
:103880008F7D80938000089584B58F7702C084B5C2
:103890008F7D84BD08958091B0008F778093B000B4
:1038A00008958091B0008F7D8093B0000895FF92BD
:1038B0000F931F93F62E482F50E0CA0180519F4F5F
:1038C000FC012491CA0184529F4FFC01149148537A
:1038D0005F4FFA0104910023C9F0222319F0822FCF
:1038E0000E942A1CE02FF0E0EE0FFF1FEC54FF4F68
:1038F000A591B4919FB7F894FF2021F48C91109575
:10390000812302C08C91812B8C939FBF1F910F91BB
:10391000FF900895CF93DF930E94C91B0E941C065D
:10392000C8EFDCE10E94E9052097E1F30E94F81C52
:10393000F9CFCF92DF92EF92FF920F931F93CF9325
:10394000DF937C016B018A01C0E0D0E00FC0D6019B
:103950006D916D01D701ED91FC910190F081E02D09
:10396000C7010995C80FD91F015010400115110555
:1039700071F7CE01DF91CF911F910F91FF90EF90E2
:10398000DF90CF90089508951F920F920FB60F9277
:1039900011242F933F934F938F939F93EF93FF9314
:1039A0004091C6002091990430919A042F5F3F4FB7
:1039B0002F73307080919B0490919C0428173907D5
:1039C00059F0E0919904F0919A04E75AFB4F408333
:1039D00030939A0420939904FF91EF919F918F91D6
:1039E0004F913F912F910F900FBE0F901F90189500
:1039F000E091ED04F091EE04E05CFF4F8191919134
:103A000020813181821B930B8F739070892B11F071
:103A10000E94C31C08951F920F920FB60F9211249B
:103A20002F933F934F935F936F937F938F939F93C6
:103A3000AF93BF93EF93FF932091DD043091DE04A9
:103A40008091DF049091E0042817390731F48091C8
:103A5000C1008F7D8093C10016C0E091DF04F0911A
:103A6000E004E356FB4F40818091DF049091E00435
:103A7000019660E470E00E9401219093E00480933D
:103A8000DF044093C600FF91EF91BF91AF919F91EA
:103A90008F917F916F915F914F913F912F910F90F7
:103AA0000FBE0F901F901895AF92BF92DF92EF92CA
:103AB000FF920F931F93CF93DF93EC017A018B0159
:103AC000DD24403081EE580780E0680780E0780709
:103AD00011F0DD24D39491E0A92EB12CEC89FD895D
:103AE000DD2069F0C5010E8C02C0880F991F0A9471
:103AF000E2F7808360E079E08DE390E005C010821A
:103B000060E874E88EE190E0A80197010E9414211A
:103B10002150304040405040569547953795279565
:103B200080E12030380720F0DD2011F0DD24D6CFF1
:103B3000E889F9893083EA89FB892083EE89FF8946
:103B4000408121E030E0C9010A8C02C0880F991F32
:103B50000A94E2F7482B4083EE89FF894081C9012E
:103B60000B8C02C0880F991F0A94E2F7482B408300
:103B7000EE89FF894081C9010C8C02C0880F991F12
:103B80000A94E2F7482B4083EE89FF8980810D8CEF
:103B900002C0220F331F0A94E2F7209528232083C6
:103BA000DF91CF911F910F91FF90EF90DF90BF9029
:103BB000AF900895DC011C96ED91FC911D97E05C9F
:103BC000FF4F2191319180819181281B390B2F73F7
:103BD0003070C9010895DC011C96ED91FC911D9790
:103BE000E05CFF4F20813181E054F040DF01AE5BAB
:103BF000BF4F8D919C9111972817390719F42FEF1A
:103C00003FEF07C08D919C91E80FF91F8081282F0D
:103C100030E0C9010895DC011C96ED91FC911D97DF
:103C2000E05CFF4F20813181E054F040DF01AE5B6A
:103C3000BF4F8D919C9111972817390719F42FEFD9
:103C40003FEF10C08D919C911197E80FF91F2081D3
:103C50008D919C91119701968F73907011969C9302
:103C60008E9330E0C9010895FC0186859785DC01BB
:103C7000A05CBF4FFC01EE5BFF4F2D913C91119773
:103C80008081918128173907C1F70895CF93DF9379
:103C9000EC01462FEE85FF85E05CFF4F808191812E
:103CA000E054F040019660E470E00E9401219C0124
:103CB000DF01AE5BBF4F8D919C911197281739079B
:103CC000D1F3E05CFF4F80819181E054F040E80F38
:103CD000F91F4083EE85FF85E05CFF4F3183208331
:103CE000EE89FF89208181E090E00D8C02C0880F71
:103CF000991F0A94E2F7282B208381E090E0DF915E
:103D0000CF9108951092E4041092E30488EE93E0BA
:103D1000A0E0B0E08093E5049093E604A093E7046C
:103D2000B093E80485E091E09093E2048093E1048D
:103D300089E594E09093EE048093ED048DE994E09E
:103D40009093F0048093EF0485EC90E09093F2045C
:103D50008093F10484EC90E09093F4048093F30456
:103D600080EC90E09093F6048093F50481EC90E071
:103D70009093F8048093F70486EC90E09093FA0413
:103D80008093F90484E08093FB0483E08093FC0437
:103D900087E08093FD0485E08093FE0481E08093BA
:103DA000FF0408955058BB27AA270ED075C166D1CD
:103DB00030F06BD120F031F49F3F11F41EF45BC161
:103DC0000EF4E095E7FB51C1E92F77D180F3BA17E4
:103DD000620773078407950718F071F49EF58FC189
:103DE0000EF4E0950B2EBA2FA02D0B01B901900116
:103DF0000C01CA01A0011124FF27591B99F0593F5A
:103E000050F4503E68F11A16F040A22F232F342FA1
:103E10004427585FF3CF469537952795A795F040EF
:103E20005395C9F77EF41F16BA0B620B730B840B04
:103E3000BAF09150A1F0FF0FBB1F661F771F881FBC
:103E4000C2F70EC0BA0F621F731F841F48F4879514
:103E500077956795B795F7959E3F08F0B3CF939503
:103E6000880F08F09927EE0F979587950895D9D078
:103E700008F481E008950CD00FC107D140F0FED0C6
:103E800030F021F45F3F19F0F0C0511139C1F3C097
:103E900014D198F39923C9F35523B1F3951B550B0E
:103EA000BB27AA2762177307840738F09F5F5F4F0D
:103EB000220F331F441FAA1FA9F333D00E2E3AF04E
:103EC000E0E830D091505040E695001CCAF729D068
:103ED000FE2F27D0660F771F881FBB1F26173707B7
:103EE0004807AB07B0E809F0BB0B802DBF01FF27E7
:103EF00093585F4F2AF09E3F510568F0B6C000C14D
:103F00005F3FECF3983EDCF3869577956795B79520
:103F1000F7959F5FC9F7880F911D9695879597F93B
:103F20000895E1E0660F771F881FBB1F62177307B4
:103F30008407BA0720F0621B730B840BBA0BEE1FC9
:103F400088F7E095089504D06894B111D9C0089518
:103F5000BCD088F09F5790F0B92F9927B751A0F0A7
:103F6000D1F0660F771F881F991F1AF0BA95C9F70D
:103F700012C0B13081F0C3D0B1E00895C0C0672F46
:103F8000782F8827B85F39F0B93FCCF386957795BD
:103F90006795B395D9F73EF49095809570956195A6
:103FA0007F4F8F4F9F4F0895E89409C097FB3EF4D1
:103FB00090958095709561957F4F8F4F9F4F992376
:103FC000A9F0F92F96E9BB279395F69587957795F4
:103FD0006795B795F111F8CFFAF4BB0F11F460FFB4
:103FE0001BC06F5F7F4F8F4F9F4F16C0882311F00C
:103FF00096E911C0772321F09EE8872F762F05C020
:10400000662371F096E8862F70E060E02AF09A95BA
:10401000660F771F881FDAF7880F9695879597F9AF
:104020000895990F0008550FAA0BE0E8FEEF161649
:104030001706E807F907C0F012161306E407F5079C
:1040400098F0621B730B840B950B39F40A2661F010
:10405000232B242B252B21F408950A2609F4A140B3
:10406000A6958FEF811D811D089597F99F6780E8C0
:1040700070E060E008959FEF80EC089500240A94BA
:104080001616170618060906089500240A94121633
:104090001306140605060895092E0394000C11F466
:1040A000882352F0BB0F40F4BF2B11F460FF04C013
:1040B0006F5F7F4F8F4F9F4F089557FD9058440F6C
:1040C000551F59F05F3F71F04795880F97FB991F77
:1040D00061F09F3F79F08795089512161306140634
:1040E000551FF2CF4695F1DF08C0161617061806C1
:1040F000991FF1CF86957105610508940895E8949C
:10410000BB2766277727CB0197F908958ADF08F444
:104110008FEF08950BD0C0CFB1DF28F0B6DF18F0D5
:10412000952309F0A2CFA7CF1124EACFC6DFA0F3D1
:10413000959FD1F3950F50E0551F629FF001729F3C
:10414000BB27F00DB11D639FAA27F00DB11DAA1F5B
:10415000649F6627B00DA11D661F829F2227B00DA8
:10416000A11D621F739FB00DA11D621F839FA00D33
:10417000611D221F749F3327A00D611D231F849F83
:10418000600D211D822F762F6A2F11249F575040DA
:104190008AF0E1F088234AF0EE0FFF1FBB1F661F75
:1041A000771F881F91505040A9F79E3F510570F02E
:1041B0005CCFA6CF5F3FECF3983EDCF38695779516
:1041C0006795B795F795E7959F5FC1F7FE2B880F29
:1041D000911D9695879597F90895AA1BBB1B51E1F0
:1041E00007C0AA1FBB1FA617B70710F0A61BB70B67
:1041F000881F991F5A95A9F780959095BC01CD010C
:10420000089597FB092E07260AD077FD04D0E5DF35
:1042100006D000201AF4709561957F4F0895F6F747
:10422000909581959F4F0895A1E21A2EAA1BBB1B62
:10423000FD010DC0AA1FBB1FEE1FFF1FA217B30772
:10424000E407F50720F0A21BB30BE40BF50B661F88
:10425000771F881F991F1A9469F76095709580954C
:1042600090959B01AC01BD01CF010895EE0FFF1F9A
:104270000590F491E02D0994F999FECF92BD81BD8E
:10428000F89A992780B50895262FF999FECF1FBA7D
:1042900092BD81BD20BD0FB6F894FA9AF99A0FBE6F
:0842A00001960895F894FFCF88
:1042A8000100000000461E991CDA1D0B1EEB1D3490
:0242B8001E00E6
:00000001FF
