:100000000C946B010C948A010C948A010C948A0163
:100010000C948A010C948A010C948A010C948A0134
:100020000C948A010C941A0A0C948A010C948A018B
:100030000C948A010C94D8030C948A010C948A01C4
:100040000C948A010C948A010C948A010C948A0104
:100050000C948A010C948A010C948A010C948A01F4
:100060000C948A010C948A010C948A010C948A01E4
:100070000C948A010C948A010C948A010C948A01D4
:100080000C948A010C948A010C948A010C948A01C4
:100090000C94F5240C948A010C948A010C948A0126
:1000A0000C948A010C948A010C94E4010C94F501DF
:1000B0000C948A010C948A010C948A010C947C0D96
:1000C0000C948A010C948A010C948A010C948A0184
:1000D0000C948A010C948A010C948A010C948A0174
:1000E0000C948A010C948A010C948A010C948A0164
:1000F0000C941D030C948A010C948A010C94F10257
:100100000C948A010C948A010C948A010C948A0143
:100110000C948A010C948A010C948A010C948A0133
:100120000E26C0255F293E29DB25C928E1280029A4
:100130001F2967278927BC27EE2731287528912892
:10014000AD284D295B2A56268426AC26B726C6261E
:10015000B525D626E926FB261A2738273F27452727
:100160004D275627662BB5256B2BCB2A1B2B3D2BFA
:10017000542BF329BA2BC92BD52B4F262826932B8A
:10018000B72B8E2B132CC029E229732A912A9F2A80
:10019000AA2A002A0D2A1C2A3B2A422AB525B5255F
:1001A000B525B525B525B525B525B525B525512ADE
:1001B000B929C42A9B2905A84CCDB2D44EB93836EA
:1001C000A9020C50B9918688083CA6AAAA2ABE00AA
:1001D0000000803F6E616E00696E660000407A101C
:1001E000F35A00A0724E18090010A5D4E80000E8E8
:1001F0007648170000E40B54020000CA9A3B000046
:1002000000E1F505000080969800000040420F00D4
:100210000000A08601000000102700000000E80395
:10022000000000006400000000000A000000000060
:100230000100000000002C76D888DC674F0823DF1F
:10024000C1DFAE59E1B1B796E5E3E453C63AE651F2
:10025000997696E8E6C28426EB898C9B62ED407C19
:100260006FFCEFBC9C9F40F2BAA56FA5F490055AB5
:100270002AF75C936B6CF9676DC11BFCE0E40D47DA
:10028000FEF520E6B500D0ED902E030094357705FD
:100290000080841E080000204E0A000000C80C33B5
:1002A0003333330F986E12831141EF8D2114893B44
:1002B000E65516CFFEE6DB18D1844B381BF77C1DC4
:1002C000901DA4BBE424203284725E228100C9F117
:1002D00024ECA1E53D2711241FBECFEFD1E4DEBF02
:1002E000CDBF12E0A0E0B2E0E6E3F4E900E00BBF2E
:1002F00002C007900D92A83FB107D9F71CE1A8EF03
:10030000B2E001C01D92AA39B107E1F70E940A13B9
:100310000C94194A0C94000014BE88E10FB6F894AE
:1003200080936000109260000FBE78940C949B0143
:1003300090E00C94B0011092FF0880E29EE490934C
:10034000A9008093A800E1EAF0E088E08083808142
:1003500082608083E2E7F0E080818260808308959C
:100360002091A4003091A500280F391F3093AB00D5
:100370002093AA002091AA003091AB008091A800A0
:100380009091A9008217930770F48091AA00909130
:10039000AB002091A8003091A900821B930B909391
:1003A000AB008093AA001092F802809172008460E2
:1003B000809372008091F8028823E1F380917200AB
:1003C0008B7F8093720008951F920F920FB60F9249
:1003D00011248F938091FF088F5F8093FF088F9186
:1003E0000F900FBE0F901F9018951F920F920FB68F
:1003F0000F9211248F9381E08093F8028F910F90D8
:100400000FBE0F901F9018950F931F93CF93DF93FC
:1004100010924E0183E08093420186E08093420176
:10042000809141018F718630D9F7C0E0D0E000E0C3
:1004300010E081E00E9498012091460122952695C6
:10044000237030E00C2E02C0220F331F0A94E2F713
:10045000022B132B2296C031D10559F783E08093EC
:10046000420188E080934201809141018F71883080
:10047000D9F78FEF80934F0180914E018860809370
:100480004E0180914E01806480934E01C801DF913E
:10049000CF911F910F91089580910203882361F0FD
:1004A00083E08093420186E1809342018091410183
:1004B0008F718631D9F7089583E08093420188E0F7
:1004C00080934201809141018F718830D9F708955E
:1004D0008091390181608093390183E080934201EA
:1004E00088E080934201809141018F718830D9F773
:1004F00080916E01806280936E0180916E018F7E8B
:1005000080936E018FEF80934F0180914E01886040
:1005100080934E0180914E01806480934E018091C2
:100520004C01806880934C010E94040280936D010D
:100530001092FC021092020381E080930A02089557
:10054000ECEFF2E09081986090838093020308952D
:10055000ECEFF2E09081916090838093FD0208952A
:10056000ECEFF2E02081226020839093FF028093E1
:10057000FE020895ECEFF2E0208124602083909346
:10058000010380930003089580910A02813011F0E5
:1005900081E008959091FC029111FBCF80E00895D5
:1005A00023E02093420129E120934201209141015F
:1005B0002F712931D9F7262F2E5F209380016623D2
:1005C00049F0FC01A1E8B1E091919D939E2F981B09
:1005D0009617D0F382E08093420183E080930A0271
:1005E00008951F920F920FB60F9211248F9380914E
:1005F00041018F71893131F08F910F900FBE0F90B3
:100600001F90189583E08093420189E08093420116
:10061000809141018F718930D9F784E080930A027B
:10062000809142018295869587708093FB028F911D
:100630000F900FBE0F901F9018951F920F920FB63C
:100640000F9211248F9389E080934201809147019A
:100650008093FA0280917B018093F90285E0809378
:100660000A028F910F900FBE0F901F901895CF9395
:10067000DF9300D000D01F92CDB7DEB780910A0281
:10068000843009F481C0853009F43FC0813041F0E5
:100690000F900F900F900F900F90DF91CF910895D2
:1006A0009091FC029923A1F383E08093420188E0BA
:1006B00080934201809141018F718830D9F790FF7A
:1006C00009C02091FD022F7180914801807E822B0C
:1006D0008093480191FF08C08091FE0280936201DF
:1006E0008091FF028093630192FF08C08091000314
:1006F00080936001809101038093610194FD53C058
:100700000E944C021092FC02C3CF8091F90280E05B
:1007100090E040E0FC01E058FE4F2081FC01ED5FDD
:10072000FC4F20834F5F2091F902842F90E030E04E
:10073000281739077CF783E093E09A8389838091B7
:10074000F90282508B83E091F902F0E0ED5FFC4FFB
:1007500080818C838091FA028A558D83CE01019627
:100760000E949305809141018F718930D9F781E012
:1007700080930A020E944C020F900F900F900F90EE
:100780000F90DF91CF9108958091FB020E947E0827
:10079000809141018F718930D9F781E080930A02FD
:1007A0000E944C02E9CF0E9404020E94A10DA8CF32
:1007B0001F920F920FB60F9211248F9381E08093B6
:1007C00083038F910F900FBE0F901F90189510927A
:1007D0000409109205091092010910920009109263
:1007E000070910920609109209091092080910923F
:1007F0000B0910920A090E94B7070E946F050E9418
:10080000ED040C943D0490930109809300090C942D
:10081000BA0290930309809302090C94B002E82F66
:10082000F0E0EE0FFF1FEA5FF64F718360830895DB
:100830000E94C7050E949A080C945B04E09184030F
:10084000F0918503309731F416C00190F081E02DCE
:10085000309789F02281338128173907B1F7DC01FD
:10086000A158BF4F2C912787DC01AE57BF4F2C9169
:10087000208B22E024830C9419051092850310929A
:1008800084030895FC0114821786138212828091DA
:10089000840390918503009739F091838083F093CE
:1008A0008503E0938403089511821082F0938503F9
:1008B000E093840308950F931F93CF93DF93E09108
:1008C0008403F0918503309709F47BC0EF018C819C
:1008D000811155C08C850E94F4048C01009709F4A5
:1008E0006DC09B838A8381E08C83F801ED57FF4FB5
:1008F0008EE194E091838083F801EE57FF4F898564
:1009000082FB882780F980839985F801838590FB95
:1009100080F98387998593FB992790F990FB82F959
:1009200087708387809104098F5F8093040984878F
:100930008091000990910109968785878D819E811C
:10094000908B878798859F708189807F892B818B89
:100950009F819295907F8F70892B818B98012E5E5D
:100960003F4F4C856A857B8550E0C9010E946849EC
:10097000C801DF91CF911F910F910C94D207823063
:1009800039F00990D881C02D209709F0A0CF19C067
:10099000EC17FD0711F41AC0FC01808191818C17BE
:1009A0009D07D1F78881998191838083ED85FE85AC
:1009B000CE01DF91CF911F910F91099482E08C833A
:1009C0008F87DF91CF911F910F9108958881998131
:1009D0009093850380938403E9CF1092860310924D
:1009E0000B0410929004089590918603992361F06E
:1009F00090910B049923B9F0909190049923B1F050
:100A000020E030E0C901089540E050E095E8949F6F
:100A1000F001959FF00D1124EA57FC4F805F818310
:100A20009F01C901089541E050E0F0CF42E050E05D
:100A3000EDCFFC011082089595E8899F9001112463
:100A40002A573C4FC9010895FC01DC01A158BF4F52
:100A50001C92DC01A058BF4F1D921C92DC01AE57C6
:100A6000BF4F1C92DC01AD57BF4F1D921C921386E5
:100A7000A4E0B9E08C918F5F8C938487809100090A
:100A80009091010996878587108A1786118A0895A3
:100A90000C941905E9E1F5E040E020813181211550
:100AA000310529F0215031093183208341E0359609
:100AB00025E0EB34F20789F7411101C008950C9449
:100AC0007B09DC011596ED91FC911697208122237C
:100AD00011F080E008950E945A0881E00895E9E14C
:100AE000F5E011821082359685E0EB34F807C9F7FE
:100AF0001092480584E190E0A0E0B0E080934F05BB
:100B000090935005A0935105B09352051092530550
:100B10008AE495E0909355058093540561E675E06D
:100B200080E00C940F04CF93DF93EC01E881F9810E
:100B30008181883819F0DF91CF91089580818136C5
:100B400011F08134C1F78A818031A8F380510E946D
:100B5000F404009781F320E2FC0120832B81E1580B
:100B6000FF4F20832C81FC01E058FF4F20839C0124
:100B70002E5F3F4F4A816881798150E0C9010E9410
:100B80006849809148058F5F80934805D4CF2F92A4
:100B90003F925F926F927F928F929F92AF92BF929D
:100BA000CF92DF92EF92FF920F931F93CF93DF9339
:100BB000CDB7DEB72A970FB6F894DEBF0FBECDBF14
:100BC000809148058823F1F0512C54E2752E68E499
:100BD000C62E65E0D62E72E2672EE7E9AE2EB12C66
:100BE000852D0E941C058C01DC018C91823211F153
:100BF000843209F421C1803209F4B3C05394B3E0C4
:100C00005B12EECF2A960FB6F894DEBF0FBECDBFB3
:100C1000DF91CF911F910F91FF90EF90DF90CF90D8
:100C2000BF90AF909F908F907F906F905F903F901C
:100C30002F90089510921505D80151968C915197D7
:100C400082958F70282F30E0243031050CF0FDC0E4
:100C5000F901EE0FFF1FEA5FF64F0190F081E02DE2
:100C6000309709F4F2C01D962D913C911E973A835E
:100C7000298351969C9151979F709B838C83A801E7
:100C80004E5E5F4F5F834E8311968C91119780511A
:100C90008887A158BF4F8C918987D801A058BF4F32
:100CA0008C918A87D8011B968C91982F937082FD26
:100CB000E8C080E0892BD8011F964D915C91509738
:100CC0004F3F5F4F09F4E8C090E0892BD801199697
:100CD0004D915C911A972417350709F4DBC090E019
:100CE000892BD80115962D913C9116972F3F3F4F98
:100CF00009F4CEC090E0892B8D83CE010196099531
:100D0000F801278130852F3F3F4F09F4A6C060E0EE
:100D1000F801938590FFB0C0882309F4ADC083E04B
:100D20000E94F4047C010097C9F00E942405F70199
:100D3000ED57FF4FD182C082D8011D962D913C9175
:100D40001E97F701308B2787128A80911505848BB7
:100D50001C968C91838BC7010E94D207D8017C928C
:100D60004DCFF8017082278530892F3F3F4F09F41E
:100D70008AC02090000930900109F801E584F684CA
:100D80002E143F0409F43ACF838581FD37CF480103
:100D9000FDE08F0E911CE6E1F5E020E030E08FEF02
:100DA0000FC0D4016D917C9140815181641775070A
:100DB00009F474C02F5F3F4F35962A30310559F042
:100DC00043815481452B69F7822F2F5F3F4F359622
:100DD0002A303105A9F78F3F09F410CF992787FDF5
:100DE0009095FC01EE0FFF1FEE0FFF1FE80FF91F9C
:100DF000EA5EFA4FF182E082D8011C968C918283E0
:100E0000B482A38289E495E00E947B0920900009C6
:100E100030900109F80187819085019609F453C04B
:100E2000F801878590898215930519F0019609F0DC
:100E3000E5CED8016C92E2CEC8010E9419058091DE
:100E40004805815080934805D9CE80E0F80127817C
:100E500030852F3F3F4F09F05ACF61E040910009A4
:100E600050910109D8011F962D913C91509742173E
:100E7000530709F04CCF4CCF611151CFD8017C9270
:100E8000BDCE80E217CF1B968C9180FF72CFB6CE7D
:100E900090E131CF98E024CF94E017CFF80184851A
:100EA000F901EE0FFF1FEE0FFF1FE20FF31FEA5EC7
:100EB000FA4F9281282F291B12160CF09FCE8283A5
:100EC000B482A382A7CFF801878590898215930504
:100ED00009F4AFCFF801258136812F3F3F4F09F448
:100EE000A5CFD8011B962C9122FDA0CFC8010E944E
:100EF0001008209000093090010992CF0C94190538
:100F0000FF920F931F93CF93DF93EC0180915805CD
:100F1000882339F110E085E1F82E00E1812F0E944D
:100F20001C05FC018081843159F01F5F1330B1F73B
:100F3000CE01DF91CF911F910F91FF900C947B090F
:100F4000DF01A058BF4F2D913C91119721503109DD
:100F50002D933C93232B49F7F082E158FF4F0083F8
:100F6000E4CFDF91CF911F910F91FF9008951092E0
:100F70005705109256051092580582E390E0A0E0C4
:100F8000B0E080935F0590936005A0936105B093F6
:100F900062051092630580E897E090936505809361
:100FA00064050895FC01DC01AE57BF4F8C9191E1BF
:100FB0009083DF01A158BF4F1C9280FF20C08FEFAC
:100FC0009FEF96838583878590899087878320917B
:100FD00000093091010932872187209105092F5F8F
:100FE000209305092483019689F081E698E893838C
:100FF0008283809158058F5F809358050895809172
:1010000002099091030996838583DDCF81E498E8F6
:1010100093838283809158058F5F8093580508954C
:101020000F931F93CF93DF938C01FC01818180513B
:101030000E94F404EC010097C1F1FC01ED57FF4F51
:101040008EE797E0918380839E012E5F3F4FF801EA
:1010500041810E5F1F4F50E0B801C9010E946849ED
:1010600081E18883FE01E158FF4F108281E498E816
:101070009B838A838FEF9FEF98878F8380910209EC
:10108000909103099E838D838091000990910109BD
:101090009A878987809105098F5F809305098C83E2
:1010A000809158058F5F80935805DF91CF911F91F4
:1010B0000F9108951F93CF93DF93FC01C581D681D3
:1010C00080915805882359F010E0812F0E941C055B
:1010D000FC018081843139F01F5F1330B1F7DF915B
:1010E000CF911F910895948589819813F5CF85E15B
:1010F00080838A81EE57FF4F8083F1CFE0915605C0
:10110000F0915705833080F0833081F0853081F095
:1011100081E0DF01A158BF4F8C9383E1808310925F
:10112000570510925605089580E0F3CF80E2F1CF85
:1011300081E2EFCFAF92BF92CF92DF92EF921F93F7
:10114000CF93DF93809158058823C1F010E095E19B
:10115000E92E24E1C22E35E0A32EB12C42E1D42E9B
:10116000812F0E941C05EC018881833181F085313B
:1011700071F18131E9F01F5F133091F7DF91CF9169
:101180001F91EF90DF90CF90BF90AF900895FE0138
:10119000E158FF4F8081811109C04D855E85209106
:1011A00000093091010942175307F9F0E882E3CFB3
:1011B0000E94C4028111DFCFD0935705C09356051A
:1011C000D8826981CE0102960E94D002D4CFFE015E
:1011D000ED57FF4F0190F081E02DCE0109958091F0
:1011E0005805815080935805C6CF8B8580FFDECF90
:1011F000C882C058DF4FB982A88289E595E00E9475
:101200007B09B9CF0E948C010E9476090E94680276
:101210000C94E7030E9437030E9418040C94910970
:101220000F931F93CF93DF93EC018091660590910C
:101230006705009709F447C04E815F81688579850D
:10124000FC01A0E0B0E001C0F9010281138124811A
:1012500035814017510762077307E0F0401B510BBF
:10126000620B730B20813181DF012115310561F79C
:101270004A835B836C837D831097D1F08D919C9121
:10128000119799838883CD93DC93DF91CF911F9140
:101290000F910895041B150B260B370B0283138344
:1012A000248335834A835B836C837D83109731F776
:1012B00099838883D0936705C0936605DF91CF91AA
:1012C0001F910F910895198218824E815F81688560
:1012D00079854A835B836C837D83D0936705C09354
:1012E0006605DF91CF911F910F91089510926705C8
:1012F000109266050895E0916605F09167053097B4
:1013000061F08E179F0721F40BC08E179F0739F0ED
:101310000190F081E02D3097C1F70C9410090895E9
:101320000895CF92DF92EF92FF92CF93DF93809157
:10133000FF08882309F458C09FB7F8948091FF08EC
:101340001092FF089FBF90E0A0E0B0E0880F991FC7
:10135000AA1FBB1F6C017D01CC0CDD1CEE1CFF1C09
:10136000CC0CDD1CEE1CFF1CC80ED91EEA1EFB1E99
:10137000C0916605D09167052097B1F14A815B81E4
:101380006C817D81C416D506E606F706A0F424C05C
:10139000EB85FC85CE010995C0916605D091670566
:1013A000209711F14A815B816C817D81C416D5063D
:1013B000E606F70688F0C41AD50AE60AF70A888115
:1013C000998190936705809366058A85813001F73E
:1013D000CE010E941009DCCF4C195D096E097F090E
:1013E0004A835B836C837D83DF91CF91FF90EF9085
:1013F000DF90CF90089581E080930C0280910C09DA
:1014000086FF04C080910C0987FD0FC080910C09F4
:1014100086FF089583E00E94CC0F0E941F34892B21
:1014200011F00C9415340C94B5330E94612483E0C0
:101430000C94CC0F1F920F920FB60F9211240F90A5
:101440000FBE0F901F90189581E00E94CC0F8091E5
:101450008C0290918D02892B31F08091921C909199
:10146000931C0E94D43D0C94473DCF93DF93CDB79E
:10147000DEB729970FB6F894DEBF0FBECDBF81E06F
:101480000E94CC0F80918C0290918D02892B21F0CB
:1014900080918B0281111CC080919F028130D9F113
:1014A0008330C9F180918C0290918D02892B29F0B3
:1014B00080918B02882309F458C00E94DF3E299650
:1014C0000FB6F894DEBF0FBECDBFDF91CF91089568
:1014D0008091921C9091931C892BF1F680918E0241
:1014E00090E0019663E070E00E94884680938E024F
:1014F00080918E02813009F447C0D0F18230F9F634
:101500000E94B3234FEF6FEF80E00E94A20D89E0AD
:101510008093791CD4CF82E080939F0280918C02CB
:1015200090918D02892BF1F080ED898389E08A8387
:1015300080918C0290918D029B8380918C0290917E
:101540008D028C831D828DE48E8383E08F831886C9
:1015500082E1898720E04FEF5FEF69E0CE010196DD
:101560000E94C6310E94B323AACF0E941A3FA7CF80
:101570000E94B3230E94163D4FEF60E080E00E947E
:10158000A20D1092791C9BCF0E94163D40E06FEF98
:1015900080E00E94A20D87E08093791C90CF80EDBF
:1015A00097E0A0E0B0E08093120990931309A09314
:1015B0001409B093150981E0809311098BEF99E02C
:1015C000909317098093160981E199E00C944B32AE
:1015D00081E199E00C9417328F929F92AF92BF9263
:1015E000CF92DF92EF92FF920F931F93CF93DF93EF
:1015F000CDB7DEB72C970FB6F894DEBF0FBECDBFC8
:10160000E62EE82690914702992309F443C0E6FAB2
:10161000442740F9E7FC9BC0E5FC446066FD6BC0D5
:1016200030E021E067FD6BC0226065FF6BC0346075
:1016300080E289838AE08A8380914D0290914E02F4
:10164000A0914F02B09150028B839C83AD83BE83E7
:101650004F83388729871A868091510290915202D0
:10166000892B09F451C02091CF0D3091D00D80917C
:101670005102909152022817390709F445C0409150
:1016800051025091520221E06AE0CE0101960E947F
:10169000C6314AC0662331F190910C02911144C0C9
:1016A000E6FE59C06C878B8766FF69C00E94CF0A2F
:1016B00020E030E06C858B85E7FC5AC0E5FE4EC02B
:1016C00065FD4CC086FD4DC085FF60C08091510214
:1016D00090915202892B09F05EC01092931C1092D7
:1016E000921C22C090910C029923B1F210920C022C
:1016F00010920B0219C031E020E067FF95CF3260F5
:1017000065FD95CF246094CF4091CF0D5091D00DC1
:1017100021E06AE070E0CE0101960E944E25FC01B6
:10172000618170E00E9434252C960FB6F894DEBFDC
:101730000FBECDBFDF91CF911F910F91FF90EF9022
:10174000DF90CF90BF90AF909F908F9008954260B0
:10175000E5FE64CF62CF20E030E0AECF232B21F353
:10176000B1CF87FD36C085FDB1CF0E94240ADCCF02
:1017700067FD1BC010920B0221E030E09FCF0E945A
:10178000E80A21E030E06C858B8596CF87FFCCCFCF
:101790000E94350AC9CF4FEF60E080E00E94A20DA1
:1017A000109252021092510298CF91E090930B0246
:1017B00080904D0290904E02A0904F02B090500247
:1017C00080920D0990920E09A0920F09B092100913
:1017D00075CF81E00E94CC0F0E944C3F81E0809346
:1017E0000C028091D50D811126C08091140E8111BB
:1017F00022C08091530E81111EC083E0C82E8EE05E
:10180000D82EE12CF12CF60111821082FFEFEF1A95
:10181000FF0A0BED1FE029EC3FE340E050E0BA0186
:10182000C7010E94F7198FE3C80ED11CE3E0EE1642
:10183000F10449F779CF0E94B32376CFCF938091FB
:101840004D0290914E02A0914F02B09150024091F2
:101850000D0250910E0260910F0270911002841BD4
:10186000950BA60BB70B4997A105B105F0F0C9B1CF
:10187000C095C07EC0930C09809111028C17A9F00D
:101880006C2F0E94EC0A80914D0290914E02A09123
:101890004F02B091500280930D0290930E02A093DC
:1018A0000F02B0931002C0931102CF9108951092CD
:1018B000B10024980895CF93DF9382E48093B00021
:1018C000A3EBB0E082EB8C93E1EBF0E085E080836A
:1018D0002FEF32E597E0215030409040E1F700C013
:1018E00000001082CFE1DEE42197F1F700C0000094
:1018F00095E89C938083DFEF22E537E0D1502040CC
:101900003040E1F700C0000010822498DF91CF91B1
:101910000895009781F0249A9C0140E050E064E231
:1019200074EF80E090E00E94BE462093B30085E013
:101930008093B10008950C94570CCF93DF93C82F78
:10194000CF7082958F7009F161E090E0660F9F5F24
:101950009813FCCF70E0D0E0CC0FDD1FCC0FDD1F63
:10196000CE5EDD4F882777FD8095982F0E94D84066
:10197000288139814A815B810E94C5410E94AA4029
:10198000CB01DF91CF910C94890C61E070E0E3CF43
:10199000CF93DF930E94570CC0914302D091440231
:1019A000209709F468C080914502909146028C17F7
:1019B0009D070CF04EC03091A00C20E0880F991FBD
:1019C000820F931F45960E94D3130E949D0C309165
:1019D000A00C20E08091450290914602880F991F4B
:1019E000820F931F44960E94D31380936D054091FC
:1019F0004502509146024F5F5F4F5093460240931D
:101A00004502609143027091440264177507F4F037
:101A10001092A10C282F30E040E050E06091690561
:101A200070916A0580916B0590916C050E949C46AF
:101A30002093A20C3093A30C4093A40C5093A50CBC
:101A400088EC9CE09093A70C8093A60CDF91CF913B
:101A5000089581E08093A10C1092460210924502F5
:101A600010924402109243020E94570C10924202BC
:101A7000DF91CF9108959091A00C80E042960E9452
:101A8000D313809368059091A00C80E043960E9448
:101A9000D313C82FD0E0D0934402C09343022091C7
:101AA000680530E040E050E060E879EA83E090E0EB
:101AB0000E949C462093690530936A0540936B050C
:101AC00050936C0570CF91E0909342029093A10CDB
:101AD0001092A20C1092A30C1092A40C1092A50CC0
:101AE00028EC3CE03093A70C2093A60C8093A00C2C
:101AF00081EA9CE00C944B321F920F920FB60F922A
:101B000011248F939F93AF93BF9380914D02909137
:101B10004E02A0914F02B09150020196A11DB11D3D
:101B200080934D0290934E02A0934F02B0935002C7
:101B3000BF91AF919F918F910F900FBE0F901F900B
:101B40001895089590E1899F900111243093990090
:101B50002093980090E1699F9001112430939D009B
:101B600020939C0090E1499F9001112430939B00A9
:101B700020939A008093B50C6093B60C4093B70CF9
:101B800008958091B00C9091B10C01979093B10C95
:101B90008093B00C181619061CF081E08093BF0DDD
:101BA0004091B70C40586091B60C60588091B50CCC
:101BB00080580C94A20D20E1829FC00111249093C3
:101BC00099008093980080E1689FB0011124709380
:101BD0009D0060939C0020E1429FA001112450933E
:101BE0009B0040939A000895CF92DF92EF92FF926C
:101BF0001F93CF93DF9380918C0290918D02892B5C
:101C000009F459C080918B02882309F454C0609173
:101C10004D0270914E0280914F02909150020E94AD
:101C2000D6409B01AC010E94D23F20E030E04AE761
:101C300054E40E943D400E9428426B017C0120E058
:101C400030E0A9010E94C1411816ECF56091B70C73
:101C500070E080E090E00E94D840A70196010E94C9
:101C6000C5410E94AA40C62F6091B60C70E080E08A
:101C700090E00E94D840A70196010E94C5410E94B1
:101C8000AA40D62F6091B50C70E080E090E00E94F1
:101C9000D840A70196010E94C5410E94AA40862F04
:101CA0004C2F6D2FDF91CF911F91FF90EF90DF9020
:101CB000CF900C94DB0DDF91CF911F91FF90EF90AF
:101CC000DF90CF9008956091741CF7FAF094F7F8C4
:101CD000F094D091731C1091721C70E080E090E041
:101CE0000E94D840A70196010E94C5410E94AA40C7
:101CF000C62F6D2F70E080E090E00E94D8409B01DD
:101D0000AC01C701B6010E94C5410E94AA40D62F6E
:101D1000612F70E080E090E00E94D8409B01AC0110
:101D2000C701B601B8CF1092B90080E28093B80025
:101D300084E08093BC00089584EA8093BC00809185
:101D4000BC0087FFFCCF089584E98093BC00089510
:101D50008093BB0084E88093BC008091BC0087FF27
:101D6000FCCF089584EC8093BC008091BC0087FF79
:101D7000FCCF8091BB00089584E88093BC008091E3
:101D8000BC0087FFFCCF8091BB0008950E949C0E91
:101D90008091B900887F883011F081E0089588E350
:101DA0000E94A80E8091B900887F8831B1F78DE03C
:101DB0000E94A80E8091B900887F883271F70E9436
:101DC0009C0E8091B900887F803139F789E30E94A9
:101DD000A80E8091B900887F8034F9F60E94BC0E6D
:101DE0008A32D9F68091B900887F8835B1F60E9491
:101DF000A40E0E949C0E8091B900887F803169F604
:101E000088E30E94A80E8091B900887F883129F666
:101E10008AE20E94A80E8091B900887F883209F07A
:101E2000BCCF89E10E94A80E8091B900887F8832DA
:101E300009F0B3CF0E94A40E80E008950E949C0E8A
:101E40008091B900887F883011F081E0089588E39F
:101E50000E94A80E8091B900887F8831B1F781E097
:101E60000E94A80E8091B900887F883271F70E9485
:101E70009C0E8091B900887F803139F789E30E94F8
:101E8000A80E8091B900887F8034F9F60E94B20EC6
:101E9000382F20E03093B30C2093B20C8091B9001E
:101EA000887F803591F60E94B20E2091B20C30915D
:101EB000B30C282B3093B30C2093B20C8091B90053
:101EC000887F803511F60E94B20E382F20E03093C3
:101ED000BA0D2093B90D8091B900887F803509F043
:101EE000B4CF0E94B20E2091B90D3091BA0D282BBB
:101EF0003093BA0D2093B90D8091B900887F803559
:101F000009F0A3CF0E94B20E382F20E03093D30DFA
:101F10002093D20D8091B900887F803509F095CF4C
:101F20000E94BC0E2091D20D3091D30D282B3093FE
:101F3000D30D2093D20D8091B900887F883509F0A8
:101F400084CF0E94A40E80E00895CF93C82F8823E9
:101F5000F1F040E06FEF80E00E94A20D2FEF81EEE4
:101F600094E0215080409040E1F700C0000040E044
:101F700060E08FEF0E94A20D2FEF81EE94E02150E0
:101F800080409040E1F700C00000C15011F7CF91B0
:101F9000089585E00C94A50F2091B00C3091B10C00
:101FA000121613060CF4089590E0880F991F909371
:101FB000B10C8093B00C1092BF0D84E690E0A0E0CD
:101FC000B0E08093C00D9093C10DA093C20DB0936B
:101FD000C30D81EC9DE09093C50D8093C40D8FEBF4
:101FE0009DE00C944B329AE09093770090917C00A6
:101FF000907E90937C0090917C00982B90937C0035
:1020000080917A00876C80937A0080917A0086FDB7
:10201000FCCF2091780030917900932F937080E06D
:10202000AC01422B9A01C9010895CF93DF9380E858
:102030008093610010926100F89480EF84B98BB1B5
:10204000806E8BB980916800816080936800809178
:102050006B00826080936B0080916B008460809342
:102060006B0080916B00886080936B008FB78068F5
:102070008FBF80917C00806C80937C008BE18AB95B
:102080008FE78DB98FE383BB819A89982FEF80E723
:1020900092E0215080409040E1F700C0000082E0D3
:1020A0000E94F30FEC018198829A8A982FEF80E7C3
:1020B00092E0215080409040E1F700C0000081E0B4
:1020C0000E94F30F8298C436D10524F4843691051A
:1020D0000CF44BC082E08093B80C82E090E09093C7
:1020E000BC0D8093BB0D81E090E09093BE0D80937A
:1020F000BD0D3AEA3093800029E1209381008FEFF3
:102100009FE0909387008093860030939000209307
:102110009100909397008093960010922501109261
:10212000240180917300826080937300809121016B
:102130008C60809321018EE390E09093290180933D
:102140002801909327018093260184B7877F84BF5D
:1021500080916000886180936000109260000E940E
:1021600030147894DF91CF91089583E08093B80C78
:1021700084E090E09093BC0D8093BB0D83E090E0F1
:102180009093BE0D8093BD0DB4CF0E94F30FBC01A0
:1021900080E090E00E94D6402DEC3CEC4CEC5FE3FC
:1021A0000E94C54120E030E040E85AE30E94C5416A
:1021B000089580E00E94F30FBC0180E090E00E944F
:1021C000D6402DEC3CEC4CEC5FE30E94C54120E096
:1021D00030E040E85AE30E94C5412EE63BED46EB75
:1021E0005EE30E943D400895CF93DF93CDB7DEB705
:1021F0002C970FB6F894DEBF0FBECDBF69877A87E4
:102200008B879C8780914D0290914E02A0914F0246
:10221000B091500289839A83AB83BC8329813A8130
:102220004B815C8189859A85AB85BC85820F931F24
:10223000A41FB51F8D839E83AF83B88700002091B4
:102240004D0230914E0240914F02509150028D81CB
:102250009E81AF81B88582179307A407B50778F7E9
:102260002C960FB6F894DEBF0FBECDBFDF91CF9195
:102270000895809160008861809360008091600083
:102280008D6080936000FFCF4F925F926F927F923C
:10229000AF92BF92CF92DF92EF92FF920F931F9374
:1022A000CF93DF93CDB7DEB76F970FB6F894DEBF4D
:1022B0000FBECDBF0E941E0F6091B20C7091B30C87
:1022C000882777FD8095982F0E94D84020E030E045
:1022D00040E858E30E94C5412B013C016091B90DD3
:1022E0007091BA0D882777FD8095982F0E94D8406D
:1022F00020E030E040E858E30E94C5416B017C01DA
:102300006091D20D7091D30D882777FD8095982F1D
:102310000E94D84020E030E040E858E30E94C541E8
:102320005B018C01242D352D462D572D642D752DE7
:10233000862D972D0E94C5412B013C012C2D3D2D52
:102340004E2D5F2D6C2D7D2D8E2D9F2D0E94C54114
:102350009B01AC01C301B2010E94D23F6B017C0121
:102360002A2D3B2D402F512F6A2D7B2D802F912F11
:102370000E94C5419B01AC01C701B6010E94D23F3A
:102380000E9432427B018C0180914D0290914E025D
:10239000A0914F02B091500240916E0550916F058F
:1023A0006091700570917105841B950BA60BB70B9E
:1023B000853F9140A105B10508F0BEC0A09072050F
:1023C000B0907305C0907405D09075052E2D3F2DEB
:1023D000402F512F6A2D7B2D8C2D9D2D0E94D13F9A
:1023E0005B016C0120E030E0A9017B2D9D2D0E9456
:1023F000364087FDC0C02DEC3CEC4CEC5EE36A2D12
:102400007B2D8C2D9D2D0E94C14118160CF063C0B0
:1024100010920B0221E020930C0280918C0290918B
:102420008D02892B29F48091791C882309F4B0C08E
:102430008091791C81114FC080914D0290914E0284
:10244000A0914F02B091500240915302509154021A
:102450006091550270915602841B950BA60BB70B29
:10246000843F9140A105B10508F451C083ED8983F3
:102470008CE08A831B821C821D821E8280918C02CA
:1024800090918D029F8380918C0290918D0288871C
:102490008091721C89878091731C8A878091741C3B
:1024A0008B8782E18C8720E04FEF5FEF6CE0CE01FD
:1024B00001960E94C63180914D0290914E02A091EA
:1024C0004F02B09150028093530290935402A09314
:1024D0005502B09356028E2D9F2DA02FB12F8093C1
:1024E000720590937305A0937405B0937505809160
:1024F0004D0290914E02A0914F02B09150028093F4
:102500006E0590936F05A0937005B09371056F965B
:102510000FB6F894DEBF0FBECDBFDF91CF911F91F4
:102520000F91FF90EF90DF90CF90BF90AF907F9092
:102530006F905F904F9008958E2D9F2DA02FB12FFB
:102540008093720590937305A0937405B0937505FD
:1025500080914D0290914E02A0914F02B091500295
:1025600080936E0590936F05A0937005B0937105ED
:10257000570168012BCF2DEC3CEC4CEC5EEB6A2D47
:102580007B2D8C2D9D2D0E94364087FFA4CF40CF00
:1025900080914D0290914E02A0914F02B091500255
:1025A00080937A1C90937B1CA0937C1CB0937D1C21
:1025B00080914D0290914E02A0914F02B091500235
:1025C0002F8F0E946D480E94694840904D025090A4
:1025D0004E0260904F02709050023AEF430E511C31
:1025E000611C711C62EE74E00E948846AA2797FD68
:1025F000A095BA2F480E591E6A1E7B1E40927E1C63
:1026000050927F1C6092801C7092811C2F8D2093B1
:10261000791C61CFCF93DF93CDB7DEB7AD970FB6FF
:10262000F894DEBF0FBECDBF0E9415100E94BA24E1
:102630000E94930E0E94C60E882321F08AE00E9419
:10264000A50FFCCF0E945B0C0E94C72E0E94F134A4
:1026500080914802909149020E946D480E94C323D4
:102660001F8E82E390E0A0E0B0E088A399A3AAA324
:10267000BBA382EA9EE19DA38CA3CE014F960E944C
:102680004B32188A8BE490E0A0E0B0E0898B9A8B03
:10269000AB8BBC8B84EF9DE09E8B8D8BCE014096E7
:1026A0000E944B32198280E091E0A0E0B0E08A8382
:1026B0009B83AC83BD8389E89FE39F838E83CE0198
:1026C00001960E944B324FEF60E080E00E94A20D25
:1026D0000E94C5320E94EB2C0E940A090E942A2FF8
:1026E0000E941E0C0E94373680910B02882381F3D2
:1026F0000E944411EDCFCF92DF92EF92FF926B01D7
:102700007C0120E030E0A9010E94364087FD1AC01C
:1027100020E030E0A901C701B6010E94C1411816AE
:1027200074F490E88FE350E040E09C01652F742F33
:10273000832F922FFF90EF90DF90CF90089590E03D
:1027400080E0F1CF90E88FEBEECFE0915702E111FE
:1027500003C0F894E09157027FEF54E144E2F99905
:10276000FECF2AE030E0000021503109E1F792BDB0
:1027700081BD70BD5FBBF99AF999FECF2AE030E0C8
:10278000000021503109E1F760BD4FBBF99AF9997A
:10279000FECF92BD81BDF89A20B56213E0CFE11162
:1027A00001C07894089520915702211103C0F89434
:1027B00020915702F999FECF92BD81BDF89A21115F
:1027C00001C0789480B50895EF92FF920F931F9304
:1027D000CF93DF938C01F89481E080935702141615
:1027E00015066CF4EB017B01E40EF51E6991C8013E
:1027F0000E94A5130F5F1F4FCE15DF05B9F710928A
:1028000057027894DF91CF911F910F91FF90EF9035
:102810000895EF92FF920F931F93CF93DF93F89455
:1028200021E0209357021416150684F4EB017B0176
:10283000E40EF51E8C01061B170BC8018C0F9D1FA3
:102840000E94D3138993CE15DF05B9F71092570272
:102850007894DF91CF911F910F91FF90EF900895A1
:102860008F929F92AF92BF92CF92DF92EF92FF92A0
:102870000F931F93CF93DF938CEFE5EDFDE0DF0126
:102880001D928A95E9F7C0E0D0E08FE3882E99E8A1
:10289000C92E96E5D92E92E2E92E94E4F92E05E3AD
:1028A0001AEF2EE83DE34FEF5FEFBA01AA24AA9496
:1028B000BA2CE0E89E2E83EF96E6AFEDBFE38C9E48
:1028C000F0018D9EF00D1124EB52F24F1082118217
:1028D000128213821482C582D682E782F086018733
:1028E000128723873487158616861786108A128AE0
:1028F000118A148A138A158A168A178A108E118EE5
:10290000138E128E448F558F668F778FB1A2A0A23F
:1029100092A286A397A3A0A7B1A717A616A6219651
:10292000C330D10561F6DF91CF911F910F91FF90D8
:10293000EF90DF90CF90BF90AF909F908F900895D1
:102940002F923F924F925F926F927F928F929F92BF
:10295000AF92BF92CF92DF92EF92FF920F931F93AD
:10296000CF93DF931C0180916E0290916F02892BAF
:1029700009F456C181E02816310409F4BBC024F0E3
:1029800084E028163104F4F00E94C90F00E010E042
:10299000D0E8CFEB9E01602F712F832F9C2FDF910A
:1029A000CF911F910F91FF90EF90DF90CF90BF904C
:1029B000AF909F908F907F906F905F904F903F90DF
:1029C0002F9008958091BB0D0E94C5106B017C0172
:1029D0008091BD0D0E94C5104B015C0123E333E3E0
:1029E00043E35FE3C701B6010E94D13F8B01D82FBB
:1029F000C92F80917002909171028130910509F484
:102A0000E2C1029709F4FFC120E030E04AEA53E452
:102A1000FE01602F712F8F2F9C2F0E94C54123E351
:102A200033E343EB5FE30E943D40462F572F682F6F
:102A3000792FDB01CA01BC01CD0190582BED3FE09D
:102A400049E450E40E94C54120E030E044E353E40F
:102A50000E943D402091440E3091450E4091460E1B
:102A60005091470E0E94D23F8B01D82FC92F2BEDDA
:102A70003FE049E450ECFE01712F8F2F9E2F0E9402
:102A8000364018164CF12BED3FE049EC50E4FE01C6
:102A9000602F712F8F2F9C2F0E94D23F8B01D82F38
:102AA000C92F2BED3FE049E450ECFE01712F8F2F31
:102AB0009E2F0E943640181634F76CCF2BED3FE066
:102AC00049EC50E4FE01602F712F8F2F9C2F0E9444
:102AD000D13F8B01D82FC92F2BED3FE049E450E4C3
:102AE000FE01602F712F8F2F9C2F0E94C14118165D
:102AF0002CF350CF86E00E94C5106B017C0185E06D
:102B00000E94C5104B015C0123E333E343E35FE321
:102B1000C701B6010E94D13F8B01D82FC92F8091E8
:102B20006E0290916F028130910509F405C1029700
:102B300009F422C120E030E04AEA53E4FE01602FAC
:102B4000712F8F2F9C2F0E94C54123E333E343EB6A
:102B50005FE30E943D40462F572F682F792FDB01FE
:102B6000CA01BC01CD0190582BED3FE049E450E48F
:102B70000E94C54120E030E044E353E40E943D4020
:102B80002091050E3091060E4091070E5091080ECF
:102B90000E94D23F8B01D82FC92F2BED3FE049E493
:102BA00050ECFE01712F8F2F9E2F0E943640181679
:102BB0004CF12BED3FE049EC50E4FE01602F712F0A
:102BC0008F2F9C2F0E94D23F8B01D82FC92F2BED26
:102BD0003FE049E450ECFE01712F8F2F9E2F0E94A1
:102BE0003640181634F7D6CE2BED3FE049EC50E4D2
:102BF000FE01602F712F8F2F9C2F0E94D13F8B01E0
:102C0000D82FC92F2BED3FE049E450E4FE01602F9F
:102C1000712F8F2F9C2F0E94C14118162CF3BACE12
:102C200086E00E94C51023E333E343E35FE30E94A1
:102C3000D13F8B01D82FC92FAB01682F792F4A01C3
:102C40005B0185E00E94C51023E333E343E35FE3C8
:102C50000E94D13F462F572F682F792F2A013B0121
:102C600020E030E0A901B8018D2F9C2F0E94364052
:102C700087FD06C120E030E0A901C301B2010E9436
:102C8000364087FDF8C0A3019201C501B4010E943E
:102C9000364087FD4AC082E090E090936F028093B7
:102CA0006E028091BB0D0E94C51023E333E343E322
:102CB0005FE30E94D13F8B01D82FC92FAB01682F52
:102CC000792F4A015B018091BD0D0E94C51023E35D
:102CD00033E343E35FE30E94D13F462F572F682F32
:102CE000792F2A013B0120E030E0A901B8018D2FA6
:102CF0009C2F0E94364087FDB9C020E030E0A9013A
:102D0000C301B2010E94364087FDABC0A30192010E
:102D1000C501B4010E94364087FF9CC081E090E06D
:102D2000909371028093700225CE81E090E09093A1
:102D30006F0280936E02B5CF20E030E0A901FE0162
:102D4000602F712F8F2F9E2F0E94364087FDF1C07C
:102D50002EEA37E441E25FE3FE01602F712F8F2FEF
:102D60009E2F0E94C14118160CF0E4CE82E090E044
:102D700090936F0280936E0223E333E343E35FE3B8
:102D8000C501B4010E94D13F6B017C0120E030E01D
:102D9000A9017D2D9F2D0E94364087FD76C02EEA29
:102DA00037E441E25FE36C2D7D2D8E2D9F2D0E9437
:102DB000C14118160CF075C081E090E090936F024D
:102DC00080936E02B7CE20E030E0A901FE01602FB3
:102DD000712F8F2F9E2F0E94364087FDB8C02EEA9C
:102DE00037E441E25FE3FE01602F712F8F2F9E2FAA
:102DF0000E94C14118160CF007CE82E090E090933B
:102E000071028093700223E333E343E35FE3C50180
:102E1000B4010E94D13F6B017C0120E030E0A901A8
:102E20007D2D9F2D0E94364087FD59C02EEA37E444
:102E300041E25FE36C2D7D2D8E2D9F2D0E94C141BF
:102E400018160CF058C081E090E0909371028093C6
:102E50007002DACD82E090E090937102809370026C
:102E600089CD77FA709477F8709450CFB7FAB09410
:102E7000B7F8B09442CF77FA709477F8709403CF94
:102E8000B7FAB094B7F8B094F5CE2EEA37E441E241
:102E90005FEB6C2D7D2D8E2D9F2D0E94364087FD82
:102EA0008BCF20E030E04AEA53E46C2D7D2D8E2D4F
:102EB0009F2D0E94C54123E333E343EB5FE30E9470
:102EC0003D4020E030E044E353E40E94D23F472FEE
:102ED000382F292F862F942FA32FB22F42CE2EEAE0
:102EE00037E441E25FEB6C2D7D2D8E2D9F2D0E94EE
:102EF000364087FDA8CF20E030E04AEA53E46C2D4D
:102F00007D2D8E2D9F2D0E94C54123E333E343EB9E
:102F10005FE30E943D4020E030E044E353E40E9440
:102F2000D23F472F382F292F862F942FA32FB22F30
:102F300082CD2EEA37E441E25FEBFE01602F712F74
:102F40008F2F9E2F0E94364087FFF4CD0FCF2EEAA1
:102F500037E441E25FEBFE01602F712F8F2F9E2F30
:102F60000E94364087FF50CD48CF0F931F93CF93D9
:102F7000DF938B01D82FC92F2BED3FE049E450ECB4
:102F8000FE01712F8F2F9E2F0E943640181694F14C
:102F90002BED3FE049EC50E4FE01602F712F8F2FA5
:102FA0009C2F0E94D23F8B01D82FC92F2BED3FE0E1
:102FB00049E450ECFE01712F8F2F9E2F0E94364066
:102FC000181634F79E01602F712F832F9C2FDF91ED
:102FD000CF911F910F9108952BED3FE049EC50E404
:102FE000FE01602F712F8F2F9C2F0E94D13F8B01EC
:102FF000D82FC92F2BED3FE049E450E4FE01602FAC
:10300000712F8F2F9C2F0E94C14118162CF3DACFFD
:10301000CF92DF92EF92FF92CF93DF93EC016A01A0
:103020007B018091B80C8230B1F18330D1F122E97B
:103030003AE046E050E4C701B6010E94C1411816CB
:1030400004F121978FE38C9FF0018D9FF00D1124E7
:10305000EB52F24FC6A2D7A2E0A6F1A683E080838E
:103060008FEF9FEFDC01848F958FA68FB78F20E0C5
:1030700030E0C901DF91CF91FF90EF90DF90CF90CA
:10308000089521E030E0C901DF91CF91FF90EF90EA
:10309000DF90CF900895C230D10549F62FEF3FEF72
:1030A000E8CFC330D10519F6F9CF2091B80C223002
:1030B000F9F0233019F101972FE3289FF001299FA0
:1030C000F00D1124EB52F24F82E080834183528352
:1030D00063837483128A118A84E690E0A0E0B0E0F2
:1030E000848F958FA68FB78F20E030E0C9010895B7
:1030F0008230910501F72FEF3FEFF8CF8330910534
:10310000D1F6F9CF2F923F924F925F926F927F92BA
:103110008F929F92AF92BF92CF92DF92EF92FF92E7
:103120000F931F93CF93DF93CDB7DEB72C970FB6D6
:10313000F894DEBF0FBECDBF1C014A015B016801E0
:1031400079010091B80C023009F4FCC0033009F495
:1031500000C120E030E0A901C701B6010E9436405D
:10316000882309F4C3C0C10101972FE3289FD00130
:10317000299FB00D1124AB52B24FBA87A9879A96F6
:103180004D905D906D907C909D97A3019201C5013B
:10319000B4010E94D13F6983172F8A839B8320E06B
:1031A00030E0A9010E94364087FDA3C023EC38EB34
:1031B00042E35EE3B981EA81FB816B2F712FCF017E
:1031C0000E94364087FDA4C020E030E0A901C7017D
:1031D000B6010E94364087FDCBC0A7019601B98198
:1031E0000A813B806B2F712F802F932D0E943D40D1
:1031F00020E030E04AE754E40E94C5416C83272E6A
:10320000382E092F20E030E0A901B981EA81FB8145
:103210006B2F712FCF010E94C14118160CF0DCC03A
:10322000A985BA859696CD92DD92ED92FC929997FA
:10323000A985BA8511964D925D926D927C921497F4
:10324000FD01158616861786108A20E030E048E4D6
:1032500052E4BC816B2F722D832D902F0E943D4034
:103260008B013C01CB01D3016C017D0120E030E0FA
:10327000A901B801C3010E94364087FDA7C0B8016B
:10328000C3010E94A540CB01AA2797FDA095BA2FA4
:10329000E985FA85848F958FA68FB78F128A118A58
:1032A000868A978AA08EB18E81E090E0938F828F7C
:1032B00083E0808320E030E0C9012C960FB6F894BB
:1032C000DEBF0FBECDBFDF91CF911F910F91FF9059
:1032D000EF90DF90CF90BF90AF909F908F907F90B6
:1032E0006F905F904F903F902F90089520E030E0D6
:1032F000E3CF23EC38EB42E35EEBB981EA81FB815B
:103300006B2F712FCF010E94C14118160CF05CCFBA
:10331000023049F1033011F182E0A985BA858C931E
:10332000FD0181829282A382B482128A118A84E68C
:1033300090E0A0E0B0E0848F958FA68FB78F20E05B
:1033400030E0BACF8230910509F003CF2FEF3FEF85
:10335000B3CF8330910509F0FCCEF8CFE3E02E1611
:103360003104D1F6F3CFB2E02B163104A9F6EECF3B
:10337000D701C601B0588D839E83AF83B8879C0167
:10338000AD01B9810A813B806B2F712F802F932D66
:103390000E943D4020E030E04AE754E40E94C541ED
:1033A0006C83272E382E092F20E030E0A901B98147
:1033B000EA81FB816B2F712FCF010E94C14118164A
:1033C0007CF4CD80DE80EF80F8842ACFC701B6017F
:1033D00090580E94A54057CFF7FAF094F7F8F09470
:1033E000E985FA85C6A2D7A2E0A6F1A621CF2F9241
:1033F0003F924F925F926F927F928F929F92AF9285
:10340000BF92CF92DF92EF92FF920F931F93CF93D1
:10341000DF93CDB7DEB72C970FB6F894DEBF0FBEA3
:10342000CDBF1C014A015B01680179010091B80C14
:10343000023009F412C1033009F416C120E030E073
:10344000A901C701B6010E943640882309F4D9C0FA
:10345000C10101972FE3289FD001299FB00D1124AE
:10346000AB52B24FBA87A9879A964D905D906D90F6
:103470007C909D979E966D917C919F97882777FD74
:103480008095982F0E94D8402BED3FE049EC50E406
:103490000E94C5419B01AC01C301B2010E94D23F11
:1034A0009B01AC01C501B4010E94D13F6983172F74
:1034B0008A839B8320E030E0A9010E94364087FD8B
:1034C000A3C023EC38EB42E35EE3B981EA81FB81E0
:1034D0006B2F712FCF010E94364087FDA4C020E0E2
:1034E00030E0A901C701B6010E94364087FDCBC07C
:1034F000A7019601B9810A813B806B2F712F802F24
:10350000932D0E943D4020E030E04AE754E40E94C1
:10351000C5416C83272E382E092F20E030E0A90109
:10352000B981EA81FB816B2F712FCF010E94C141CC
:1035300018160CF0DCC0A985BA859696CD92DD925E
:10354000ED92FC929997A985BA8511964D925D925C
:103550006D927C921497FD01158616861786108A47
:1035600020E030E048E452E4BC816B2F722D832DC3
:10357000902F0E943D408B013C01CB01D3016C0197
:103580007D0120E030E0A901B801C3010E9436406E
:1035900087FDA7C0B801C3010E94A540CB01AA279F
:1035A00097FDA095BA2FE985FA85848F958FA68F10
:1035B000B78F128A118A868A978AA08EB18E81E08F
:1035C00090E0938F828F83E0808320E030E0C90118
:1035D0002C960FB6F894DEBF0FBECDBFDF91CF9112
:1035E0001F910F91FF90EF90DF90CF90BF90AF9021
:1035F0009F908F907F906F905F904F903F902F9013
:10360000089520E030E0E3CF23EC38EB42E35EEBBB
:10361000B981EA81FB816B2F712FCF010E94C141DB
:1036200018160CF05CCF023049F1033011F182E042
:10363000A985BA858C93FD0181829282A382B4828E
:10364000128A118A84E690E0A0E0B0E0848F958F22
:10365000A68FB78F20E030E0BACF8230910509F015
:10366000EDCE2FEF3FEFB3CF8330910509F0E6CEDB
:10367000F8CFE3E02E163104D1F6F3CFB2E02B16EB
:103680003104A9F6EECFD701C601B0588D839E83D1
:10369000AF83B8879C01AD01B9810A813B806B2F54
:1036A000712F802F932D0E943D4020E030E04AE7AB
:1036B00054E40E94C5416C83272E382E092F20E048
:1036C00030E0A901B981EA81FB816B2F712FCF0115
:1036D0000E94C14118167CF4CD80DE80EF80F88412
:1036E0002ACFC701B60190580E94A54057CFF7FADC
:1036F000F094F7F8F094E985FA85C6A2D7A2E0A67F
:10370000F1A621CF2F923F924F925F926F927F92BC
:103710008F929F92AF92BF92CF92DF92EF92FF92E1
:103720000F931F93CF93DF93CDB7DEB72B970FB6D1
:10373000F894DEBF0FBECDBF9B838A834A015B0135
:10374000680179018091B80C8983823009F444C101
:10375000B981B33009F448C18A819B8101972FE375
:10376000289F1001299F300C112485ED9DE0280E23
:10377000391ED1019A964D905D906D907C909D97E9
:10378000A3019201C501B4010E94D13F8B018B8737
:103790009A872BED3FE049E450EC712F0E943640B0
:1037A00018160CF0D4C02BED3FE049E450E4B02FE4
:1037B000A12FFB85EA8517C02BED3FE049EC50E4D3
:1037C000FB85EA85602F712F8F2F9E2F0E94D13F9E
:1037D0008B018B879A872BED3FE049E450E4B62FAD
:1037E000A12FF82FE92F6B2F7A2F8F2F9E2F0E945A
:1037F000C14118160CF320E030E0A901FB85EA85F1
:10380000602F712F8F2F9E2F0E94364087FDB8C0EA
:1038100023EC38EB42E35EE3FB85EA85602F712FF2
:103820008F2F9E2F0E94364087FDB9C020E030E0E8
:10383000A901C701B6010E94364087FDDBC0A70180
:103840009601FB85EA85602F712F8F2F9E2F0E9496
:103850003D4020E030E04AE754E40E94C5416983DE
:103860007A838C839D8320E030E0A901FB85EA8583
:10387000602F712F8F2F9E2F0E94C14118160CF0C0
:10388000F2C0D1019696CD92DD92ED92FC9299977D
:10389000D10111964D925D926D927C921497F10137
:1038A000158616861786108A20E030E048E452E438
:1038B000B981AA81EC811D816B2F7A2F8E2F912FD8
:1038C0000E943D408B013C01CB01D3016C017D0185
:1038D00020E030E0A901B801C3010E94364087FD15
:1038E000BCC0B801C3010E94A540CB01AA2797FD27
:1038F000A095BA2FF101848F958FA68FB78F128A6A
:10390000118A868A978AA08EB18E81E090E0938F8B
:10391000828F83E0808320E030E0C9012B960FB6D0
:10392000F894DEBF0FBECDBFDF91CF911F910F91F5
:10393000FF90EF90DF90CF90BF90AF909F908F90CF
:103940007F906F905F904F903F902F9008952BED58
:103950003FE049EC50E4FB85EA85602F712F8F2F03
:103960009E2F0E94D23F8B018B879A872BED3FE0E1
:1039700049E450EC712F0E943640181644F73BCFB3
:1039800023EC38EB42E35EEBFB85EA85602F712F79
:103990008F2F9E2F0E94C14118160CF047CFB9817E
:1039A000B23009F454C0F981F33009F466C082E002
:1039B000D1018C93F10181829282A382B482128A16
:1039C000118A84E690E0A0E0B0E0848F958FA68F06
:1039D000B78F20E030E0A1CFAA81BB81129709F018
:1039E000BBCE2FEF3FEF99CFEA81FB81339709F0F0
:1039F000B3CEF7CFD701C601B0588E839F83A88777
:103A0000B9879C01AD01FB85EA85602F712F8F2F4F
:103A10009E2F0E943D4020E030E04AE754E40E949F
:103A2000C54169837A838C839D8320E030E0A901BE
:103A3000FB85EA85602F712F8F2F9E2F0E94C14139
:103A40001816ACF4CE80DF80E884F9841ACFEA81BE
:103A5000FB81329709F0ABCFC4CFC701B6019058B4
:103A60000E94A54042CFF7FAF094F7F8F094F101E4
:103A7000C6A2D7A2E0A6F1A60BCF8A819B810397AD
:103A800009F095CFAECF2091B80C223049F1233008
:103A900091F101972FE3289FF001299FF00D112448
:103AA000EB52F24F2081223001F1233021F02130FE
:103AB00011F080E008952FE3289FF001299FF00D79
:103AC0001124EB52F24F20E030E0A90166A177A16A
:103AD00080A591A50E94C14118168CF481E008953B
:103AE00082309105B1F68FEF089581899289892BF3
:103AF000A9F383E008958330910559F6F4CF82E06D
:103B000008956235A9F0633581F0663459F0A098C4
:103B1000A19820E1829FC001112490938900809395
:103B200088000895A09AA198F4CFA09AA19AF1CF05
:103B3000A098A19AEECF6235A9F0633581F0663482
:103B400059F0A298A59820E1829FC001112490937A
:103B50008B0080938A000895A29AA598F4CFA29A28
:103B6000A59AF1CFA298A59AEECF0F931F938A0141
:103B70009B0177FD28C0F8010F3F110519F010F0E7
:103B8000EFEFF0E08130910591F074F0049764F468
:103B900077FD33C0452B462B472BE9F066E48E2F8B
:103BA0001F910F910C949B1D1F910F91089577FD0C
:103BB0001EC0452B462B472BA1F066E48E2F1F918C
:103BC0000F910C94811D002711279801041B150BE0
:103BD000260B370BD0CF6EE48E2F1F910F910C94D4
:103BE0009B1D6EE48E2F1F910F910C94811D62E539
:103BF0008E2F1F910F910C94811D62E58E2F1F91C6
:103C00000F910C949B1D0F931F93CF93DF93EC01A7
:103C100001972FE3289F8001299F100D11240B523B
:103C2000124FF8012589213099F1223001F1222328
:103C300009F45EC0233039F5F8012081223009F4FF
:103C40004FC0233009F478C02FE3289FF001299F4B
:103C5000F00D1124EB52F24F42A553A564A575A5B2
:103C6000CE01DF91CF911F910F910C94551820E058
:103C700030E0A901F80166A177A180A591A50E9475
:103C80003640811141C0DF91CF911F910F9108956E
:103C900020E030E0A90166A177A180A591A50E944E
:103CA0003640882381F383E0F80180834FEF5FEF94
:103CB000BA01448F558F668F778F42A553A564A5AF
:103CC00075A5418352836383748346A157A160A580
:103CD00071A5CE01DF91CF911F910F910C9408181F
:103CE00021893289232B09F4AFCF148A138ACBCFD1
:103CF000F801108240E050E0BA01CE01DF91CF918F
:103D00001F910F910C94B51D83E0F80180834FEF54
:103D10005FEFBA01448F558F668F778F42A553A509
:103D200064A575A5418352836383748346A157A11B
:103D300060A571A57058CDCFF80141815281638192
:103D400074818ECF2F923F924F925F926F927F92AB
:103D50008F929F92AF92BF92CF92DF92EF92FF929B
:103D60000F931F93CF93DF93CDB7DEB767970FB64F
:103D7000F894DEBF0FBECDBF8091B80C05ED1DE0FD
:103D8000FAEE8F2EFDE09F2EAEE5AA2EA2E0BA2E0F
:103D900027EF3DE03C872B87A9E0BEE0BE83AD83E3
:103DA000EAE0FEE0FA87E98766246394712C22E05A
:103DB00030E03C832B831301BA82A982540148016D
:103DC000823029F432E02316310409F414C18B81C6
:103DD0009C81029798878F83C1010E94A014D5010E
:103DE00055966D937D938D939C935897E981FA81B5
:103DF00020813181428153810E94D13F8B017C011E
:103E00002BED3FE049E450EC712F9F2D0E9436408E
:103E100018160CF4D5C02BED3FE049EC50E4602FB0
:103E2000712F8E2D9F2D0E94D23F8B017C012BED97
:103E30003FE049E450EC712F9F2D0E943640181648
:103E400054F723EC38EB42E35EE3602F712F8E2DA5
:103E50009F2D0E94C14118160CF4F2C0ED81FE8125
:103E600071978081F50167857089680F711D8827BA
:103E700077FD8095982F0E94D84020E030E042E501
:103E800053E40E94D13F0E94A540D50150967C93F7
:103E90006E931F9777FDDFC0882777FD8095982F59
:103EA0000E94D84020E030E144E257E40E94C14142
:103EB00018160CF493C0F501C588D688E788F08CF5
:103EC00020E030E040E450ECC701B6010E943640EB
:103ED00087FF0FC020E030E040E450E4A981BA81C0
:103EE0006D917D918D919C910E94C14118160CF4A9
:103EF00055C220E030E040E450E4C701B6010E9422
:103F0000C141181674F420E030E040E450ECA9817F
:103F1000BA816D917D918D919C910E94364087FD73
:103F200044C2A981BA81CD92DD92ED92FC921397A1
:103F3000F4018081823009F492C108F091C08111AE
:103F40003FC2448D558D668D778D411551056105B4
:103F5000710509F4E4C30CF447C0415051096109EB
:103F60007109448F558F668F778F2B813C81243068
:103F7000310509F03EC067960FB6F894DEBF0FBE5C
:103F8000CDBFDF91CF911F910F91FF90EF90DF9008
:103F9000CF90BF90AF909F908F907F906F905F90E9
:103FA0004F903F902F9008952BED3FE049EC50E467
:103FB000602F712F8E2D9F2D0E94D13F8B017C0190
:103FC0002BED3FE049E450E4602F712F8E2D9F2DA3
:103FD0000E94C141181644F334CF108240E050E0F3
:103FE000BA01C1010E94B51D2B813C8124303105ED
:103FF00011F28091B80CAB81BC811196BC83AB836C
:10400000BFE38B0E911CEFE3AE0EB11CFFEF2F1A36
:104010003F0A29813A812C5F3F4F3A832983AB8540
:10402000BC85DF96BC87AB87ED81FE81FF96FE8362
:10403000ED8329853A85215C3F4F3A872987C0CE99
:10404000C1010E94A014D50155966D937D938D9367
:104050009C93589703CF50961C921E921F972BCF7C
:10406000833009F4F0C1843009F0BECF60914D0275
:1040700070914E0280914F02909150020E94D64062
:1040800020E030E04AE754E40E943D40C62E7D87A0
:104090008E879F87E985FA856081772767FD709510
:1040A000872F972F0E94D84020E030E040E05CE36B
:1040B0000E94C54120E030E040EA50E40E94C54142
:1040C00020E030E040E05FE30E94C5412B01782E04
:1040D000692E8FE32F813885829F7001839FF00CBA
:1040E0001124A0E1BEE0EA0EFB1E01E010E0FF8A11
:1040F000EE8A7801998A888ABB8AAA8A3D8A2C8AA4
:10410000D72C2C2CEE89FF89F887EF83B7018827FD
:1041100077FD8095982F0E94D8402BED3FE049EC29
:1041200050E40E94C541AD85EE851F85222D3A2FB2
:104130004E2F512F0E94C54120E030E040E251E473
:104140000E943D40762E072F182F392E812F0E9476
:1041500028424B015C01EE89FF8935976081772702
:1041600067FD7095872F972F0E94D84020E030E0A0
:1041700040E05CE30E94C54120E030E040EA50E4CA
:104180000E94C541A50194010E94C541242D352DF1
:104190004D2D562D0E94D23F962EB72E6C012E89A2
:1041A0003F892F5F3F4F3F8B2E8B672D702F812FC5
:1041B000932D0E943A402B013C01AF81B8856C9150
:1041C000772767FD7095872F972F0E94D84020E0B2
:1041D00030E040E05CE30E94C54120E030E040EA8E
:1041E00050E40E94C541A30192010E94C541292DBE
:1041F0003B2D4C2D5D2D0E94D23F2B01D82E692ED8
:10420000BFEFEB1AFB0AE5E0EE16F10409F07ACFF6
:1042100088889988AA88BB882C883D88782EC30115
:10422000442D552D692F782FD40111964D935D9310
:104230006D937C93149752961C921E9251978FEF18
:104240009FEFDC01F401848F958FA68FB78FD50186
:104250005596CD90DD90ED90FC90589719C0F401E3
:10426000448D558D668D778D41155105610571051C
:1042700009F4DBC06CF04150510961097109448FA8
:10428000558F668F778FF501C588D688E788F08CC3
:10429000A7019601D40111966D917D918D919C910C
:1042A00014970E94D13F8B017C012B013C012BED27
:1042B0003FE049E450EC0E94364018160CF09AC0DA
:1042C0002BED3FE049E450E4B801C7010E94C14131
:1042D0001816D4F42BED3FE049EC50E4C301B201D1
:1042E0000E94D13FB62FA72F462F572F682F792F27
:1042F0002A013B012BED3FE049E450E46B2F7A2F7C
:104300000E94C141181634F320E030E0A901C30136
:10431000B2010E94364087FDDCC123EC38EB42EB52
:104320005DE3C301B2010E94364087FDDDC1D401C7
:1043300051968D919C915297892B09F489C120E067
:1043400030E0A901C301B2010E94364087FD07C2D7
:10435000C301B20120915A0230915B0240915C028C
:1043600050915D020E94C14118160CF071C1ED819F
:10437000FE8120812F5F208330E080915802909150
:1043800059028217930708F066C1D4011C9240E0DD
:1043900050E0BA01C1010E94B51D26CEF501818D04
:1043A000928D0196928F818FBCCDF501818D928D7A
:1043B0000197928F818FC588D688E788F08CB1CD20
:1043C000813009F011CEF5018081882309F4E5C020
:1043D000813009F4B5C1AB85BC854C9150E0519555
:1043E00041955109662757FD6095762FC1010E94BE
:1043F000B51DFACD2BED3FE049EC50E4C301B2010D
:104400000E94D23FB62FA72F462F572F682F792F04
:104410002A013B012BED3FE049E450EC6B2F7A2F52
:104420000E943640181634F76FCF81899289892B04
:1044300009F4D3CD8FEF9FEFDC01F401848F958FCA
:10444000A68FB78FD1CDD401448D558D668D778DD4
:10445000411551056105710509F4BDC044F0415095
:10446000510961097109448F558F668F778F2DEC43
:104470003CEC4CE45DE3F5016189728983899489A0
:104480000E94C541D40111962D913D914D915C91B1
:1044900014970E94D23FFB01462F5F2F682F792F80
:1044A000D40111964D935D936D937C931497D50130
:1044B00055962D913D914D915C915897BF010E9469
:1044C000D13F8B017C012B013C012BED3FE049E406
:1044D00050EC0E94364018160CF062C02BED3FE005
:1044E00049E450E4B801C7010E94C1411816D4F450
:1044F0002BED3FE049EC50E4C301B2010E94D13FF3
:10450000B62FA72F462F572F682F792F2A013B014F
:104510002BED3FE049E450E46B2F7A2F0E94C1411C
:10452000181634F320E030E0A901C301B2010E9463
:1045300036407301620187FD0DC160915A0270918E
:104540005B0280915C0290915D029B01AC010E9434
:10455000D23F9B01AC01C701B6010E94C141ED8170
:10456000FE8118160CF0EAC020812F5F208330E016
:1045700080915802909159028217930708F034CD28
:10458000D4011C925B961C921E925A9740E050E018
:10459000BA01C1010E94B51D27CDD4011C9224CDC2
:1045A0002BED3FE049EC50E4C301B2010E94D23F41
:1045B000B62FA72F462F572F682F792F2A013B019F
:1045C0002BED3FE049E450EC6B2F7A2F0E943640F0
:1045D000181634F7A7CFE1E0F0E05296FC93EE9383
:1045E00051971D961D921D921D921C925097F50198
:1045F00014861386F2E0FC935A968D919C915B97FA
:10460000892B69F056968D919D910D90BC91A02DAE
:10461000F40181839283A383B483138E128EEFEF10
:10462000FFEFD5011C96FC93EE931B97D401539694
:104630008D919C915497892B09F4FCCE84E190E0F4
:10464000A0E0B0E0F401848F958FA68FB78FCCCC1B
:10465000ED81FE811082D40115962D913D914D91F1
:104660005C911897C301B2010E94C5416B017C01A6
:10467000F401258536854785508961857285838556
:1046800094850E94C5419B01AC01C701B6010E94FF
:10469000D23F0E94A540AB01BC01C1010E94B51DE3
:1046A0002DEC3CEC4CE45DE3C301B2010E94C5413A
:1046B0009B01AC01D4011D966D917D918D919C91D2
:1046C00050970E94D23FF401658776878787908B49
:1046D0008BCC23EC38EB42EB5DEBC301B2010E94C3
:1046E000C14118160CF023CE21E030E0F401328BEA
:1046F000218B83899489892B09F06FCC8FEF9FEFF1
:10470000DC01F401848F958FA68FB78FD401519669
:104710008D919C915297892B09F49ACF10CEF50177
:1047200083858083C1010E94031E8FEF9FEFDC0110
:10473000F401848F958FA68FB78F56CC10828BCFC4
:10474000EB85FC85408150E060E070E0C1010E9493
:10475000B51D4ACCF7FAF094F7F8F094EECEC30109
:10476000B2019058F7CD10929F021092D50D109281
:10477000140E1092530E6EE480E00E94811D6EE4D0
:1047800080E00C949B1D7F928F929F92AF92BF927C
:10479000CF92DF92EF92FF920F931F93CF93DF930D
:1047A00000D000D0CDB7DEB780E190E00E94D313F7
:1047B000813A09F444C015E0C12E1EE0D12EE12C4F
:1047C000F12C01E010E0C8010E94A014DC01CB0133
:1047D000B05889839A83AB83BC83F601808391832D
:1047E000A283B38344E050E0BE016F5F7F4FC701F7
:1047F0000E94E4130F5F1F4FFFE3CF0ED11C84E034
:10480000E80EF11C04301105F1F661EA80E190E058
:104810000E94A51321E030E0C9010F900F900F9086
:104820000F90DF91CF911F910F91FF90EF90DF904C
:10483000CF90BF90AF909F908F907F90089505E0AC
:10484000A02E0EE0B02E812C912C00E010E08FE322
:10485000782E709EB001719E700D11246B5F714FA8
:1048600044E050E0C4010E940914F501C080D180E9
:10487000E280F38020E030E040E450E4C701B6017C
:104880000E94364087FF0AC020E030E040E450EC50
:10489000C701B6010E94C14118162CF0F501108223
:1048A0001182128213820F5F1F4FF4E08F0E911C52
:1048B0008FE3A80EB11C0430110559F620E030E05A
:1048C000ABCF1092050E1092060E1092070E1092AA
:1048D000080E1092440E1092450E1092460E109241
:1048E000470E1092830E1092840E1092850E109235
:1048F000860E60EA80E190E00E94A5130E94C32327
:1049000080E090E008956091B80CE5EDFDE081E075
:1049100090E020E030E0623091F06330A1F040811F
:10492000442321F041895289452BA1F08330910520
:1049300069F02F5F3F4F0196FF96623071F721308B
:10494000310569F7F6CF2230310549F720E030E034
:10495000C901089521E030E0FBCF10927702109258
:1049600076021092750210927402109273021092E5
:10497000720208950F931F93CF93DF9381E090E02D
:104980009093CD008093CC001092C80088E980936A
:10499000C90080E890E00E94E0468093120F909357
:1049A000130F80E890E00E94E0468C019093150F71
:1049B0008093140FC0E0D0E004C00091140F109158
:1049C000150F84E090E00E94E046F801EC0FFD1F17
:1049D000808391832296C038D10579F71092110F08
:1049E000DF91CF911F910F9108951F920F920FB6F3
:1049F0000F9211240BB60F921BBE2F933F934F9330
:104A00008F939F93EF93FF934091CE00809172021A
:104A1000909173022091740230917502820F931F5E
:104A20008F73907897FD1BC0FC01EF52F14F4083CC
:104A30008091740290917502019690937502809313
:104A40007402FF91EF919F918F914F913F912F9120
:104A50000F900BBE0F900FBE0F901F9018950197EF
:104A6000806C9F6F0196E0CF161617066CF4FC0160
:104A7000680F791F91918091C80085FFFCCF9093BA
:104A8000CE00E617F707B1F70895CF93DF93CDB7C0
:104A9000DEB780E090E0DF91CF910895CF93DF9370
:104AA000EB01FC01308130938506362F3A5F30935D
:104AB00086065093870640938806209389062AE845
:104AC00036E0AB01BC01C9010E946849CB57D94F00
:104AD00081E18D8385E896E0DF91CF910895CF93B2
:104AE000DF93EB0120E120938507262F2D5F209394
:104AF000860727E837E0AB01BC01C9010E9468497D
:104B0000CB57D84F81E18A8385E897E0DF91CF9139
:104B100008952F923F926F927F928F929F92AF92C1
:104B2000BF92CF92DF92EF92FF920F931F93CF939A
:104B3000DF931C01680F791FFB0131978081D10140
:104B40000C9181110CC0023431F080F5023338F041
:104B5000063308F079C0F1018281833030F410E02F
:104B6000F801F097EB34F105E8F08FEF80938508BA
:104B700083E08093860881E180938708C5E8D8E0C8
:104B8000CE01DF91CF911F910F91FF90EF90DF90B9
:104B9000CF90BF90AF909F908F907F906F903F90FD
:104BA0002F900895E057FF4F0C94DA46802F8454DD
:104BB0008330A8F6D0CFF101C380D480E580F680A1
:104BC00022E93AE046E050E4C701B6010E94C14143
:104BD00018160CF4AAC622E93AE046E050ECC701E8
:104BE000B6010E94364087FF08C0A2E9CA2EAAE09B
:104BF000DA2EA6E0EA2EA0ECFA2ED1011296EC9164
:104C0000BFE3EB9FF0011124EB52F24F8589823014
:104C100009F4B2C6C6A2D7A2E0A6F1A660E070E091
:104C200080E090E0DF91CF911F910F91FF90EF9086
:104C3000DF90CF90BF90AF909F908F907F906F90BC
:104C40003F902F900C946F250E3309F088CF83CFBF
:104C500081E28093850889E0809386088091CF0D5A
:104C60009091D00D909387088091CF0D9091D00DA9
:104C7000809388088091480290914902A0914A024D
:104C8000B0914B028093890890938A08A0938B0877
:104C9000B0938C0810928D08C5E8D8E071CF1092BF
:104CA000110F60E070E080E090E0BCCFD10112967F
:104CB000EC91BFE3EB9FF0011124EB52F24FC2A441
:104CC000D3A4E4A4F5A466A577A5882777FD8095ED
:104CD000982F0E94D8402BED3FE049EC50E40E9411
:104CE000C5419B01AC01C701B6010E94D23F609350
:104CF000850870938608809387089093880864E0FD
:104D000070E085E898E08ECF40914D0250914E02C0
:104D100060914F027091500240938508509386082D
:104D20006093870870938808D1011296EC91BFE3D5
:104D3000EB9FF0011124EB52F24F82A593A5A4A59D
:104D4000B5A58093890890938A08A0938B08B093A7
:104D50008C0868E070E0D5CFF101828190E0019687
:104D60000E94431D8093850861E070E0CACF82E90C
:104D70009AE0A6E0B0E48093850890938608A0931B
:104D80008708B093880864E070E0BBCFD101129629
:104D90008C910E94C510609385087093860880935B
:104DA00087089093880864E070E0ABCF80915A0246
:104DB00090915B02A0915C02B0915D0280938508A6
:104DC00090938608A0938708B093880864E070E009
:104DD00098CFF10182819381A481B58180935A0299
:104DE00090935B02A0935C02B0935D0260E070E080
:104DF00080E090E017CF809158029091590222E311
:104E0000289FB001299F700D112480E090E00E943E
:104E1000D64020E030E04AE754E40E943D406093F1
:104E2000850870938608809387089093880864E0CB
:104E300070E067CFD10112966D917D918D919C911B
:104E4000159720E030E04AE754E40E94C54120E095
:104E500030E048E452E40E943D400E94AA40709332
:104E600059026093580260E070E080E090E0DACE92
:104E70000E94B32360E070E080E090E0D3CE8BE44A
:104E80008093850861E070E03CCF81E00E94CC0F08
:104E900060E070E080E090E0C5CEF1018281809317
:104EA000470260E070E080E090E0BCCE1092040E1B
:104EB0001092030E1092430E1092420E1092820E28
:104EC0001092810E60E070E080E090E0ABCEF101E6
:104ED000428153816481758181E090E00E94551880
:104EE000D10116964D915D916D917C91199782E05B
:104EF00090E00E945518F1014285538564857585BF
:104F000083E090E00E94551860E070E080E090E05F
:104F100089CE8091FF0D9091000EA091010EB0916D
:104F2000020E8093850890938608A0938708B0931B
:104F3000880880913E0E90913F0EA091400EB09156
:104F4000410E8093890890938A08A0938B08B093B0
:104F50008C0880917D0E90917E0EA0917F0EB09175
:104F6000800E80938D0890938E08A0938F08B09345
:104F7000900860E170E0C5CE0FEF1DE0C0E0D0E02A
:104F8000D801CD90DD90ED90FC90139765E8A62EAA
:104F900068E0B62EAC0EBD1E14966D917C911597EF
:104FA000882777FD8095982F0E94D8402BED3FE011
:104FB00049EC50E40E94C5419B01AC01C701B60118
:104FC0000E94D23FF5016083718382839383015CE9
:104FD0001F4F2496C031D10599F6CBCF80914D0259
:104FE00090914E02A0914F02B0915002809385089B
:104FF00090938608A0938708B09388088091FF0D4E
:105000009091000EA091010EB091020E809389083C
:1050100090938A08A0938B08B0938C0880913E0EE1
:1050200090913F0EA091400EB091410E80938D085B
:1050300090938E08A0938F08B093900880917D0E76
:1050400090917E0EA0917F0EB091800E809391087A
:1050500090939208A0939308B093940864E170E051
:1050600050CE80914D0290914E02A0914F02B0918E
:1050700050028093850890938608A0938708B09388
:1050800088080FEF1DE0C4E0D0E0D801CD90DD909E
:10509000ED90FC90139755E8A52E58E0B52EAC0E78
:1050A000BD1E14966D917C911597882777FD80958C
:1050B000982F0E94D8402BED3FE049EC50E40E942D
:1050C000C5419B01AC01C701B6010E94D23FF50169
:1050D0006083718382839383015C1F4F2496C03168
:1050E000D10599F664E170E00CCED1011296EC91F5
:1050F0008E2F90E0BFE3EB9FF0011124EB52F24FB3
:1051000006A117A120A531A5F10143815481658134
:10511000768101960E94821860E070E080E090E065
:1051200081CDD1011296EC918E2F90E0BFE3EB9FE1
:10513000F0011124EB52F24F06A117A120A531A5D1
:10514000F101438154816581768101960E94F719AE
:1051500060E070E080E090E065CDD1011296EC91C6
:105160008E2F90E0BFE3EB9FF0011124EB52F24F42
:1051700006A117A120A531A5F101438154816581C4
:10518000768101960E94821B60E070E080E090E0F2
:1051900049CDD1011296EC91BFE3EB9FF0011124B0
:1051A000EB52F24F86A197A1A0A5B1A580938508E7
:1051B00090938608A0938708B093880864E070E015
:1051C000A0CDE2E02E0E311CFBEFEF2EFDE0FF2E16
:1051D000C0E0D0E02196D7010D911D912D913C9119
:1051E000F10141915191619171911F01CE010E9494
:1051F0008218FFE3EF0EF11CC330D10559F70ECD35
:1052000022E0220E311CEBEFEE2EEDE0FE2EC0E090
:10521000D0E02196D7010D911D912D913C91F10186
:1052200041915191619171911F01CE010E94F71935
:10523000FFE3EF0EF11CC330D10559F7EFCC22E0AC
:10524000220E311C7BEFE72E7DE0F72EC0E0D0E090
:105250002196D7010D911D912D913C91F101419124
:105260005191619171911F01CE010E94821BFFE358
:10527000EF0EF11CC330D10559F7D0CCD1011296F5
:10528000EC91BFE3EB9FF0011124EB52F24F8589C3
:105290008093850861E070E034CDD10113964D9183
:1052A0005D916D917C91169712968C9190E001968C
:1052B0000E94551860E070E080E090E0B3CCD1012E
:1052C00013969C9113971296EC9112978FE38E9FF1
:1052D000F0011124EB52F24F958B1296CC91D0E055
:1052E0008C9FF0018D9FF00D1124EB52F24FC6A060
:1052F000D7A0E0A4F1A420E030E0A901C701B601E5
:105300000E94364087FD41C38FE38C9FF0018D9F43
:10531000F00D1124EB52F24FC6A2D7A2E0A6F1A6DF
:10532000F101828190E001960E94031E60E070E02E
:1053300080E090E077CC05ED1DE0E12CF12CCC2451
:10534000C394D12CC0E0D0E0C130D10509F4D0C263
:10535000C230D10509F482C2C330D10509F083C23D
:10536000109291081092920810929308109294084B
:1053700000CED10112968C9190E00E946A3E4ECCF4
:10538000D10112968C911297982F9B50903158F022
:105390008FEF8093850883E08093860881E1809376
:1053A000870812968C910E94A80281E00E94A002B8
:1053B0008FEF80934701809147018093850861E0DA
:1053C00070E09FCC413009F4E5C244E050E068E46D
:1053D00072E0C10102960E945B49009709F438CC43
:1053E000C0E0D0E0CDCB60E070E080E090E00E94D3
:1053F0006F25EC01D10112968C910E94630DC0CBF8
:105400000E94D9106093850870938608809387085E
:105410009093880864E070E074CCD10112969C915E
:10542000129780E013962C91822B0E94890C60E0E9
:1054300070E080E090E0F6CB0E941E0F811198C2D0
:105440008091B20C9091B30C90938608809385085C
:105450008091B90D9091BA0D909388088093870838
:105460008091D20D9091D30D90938A0880938908F2
:1054700066E070E046CC8091B80C8093850861E0CE
:1054800070E03FCC8091B50C9091B60CA091B70C18
:105490008093850890938608A093870863E070E066
:1054A00030CCF101828190E00E94063E60E070E025
:1054B00080E090E0B7CBD1011296EC91BFE3EB9F77
:1054C000F0011124EB52F24F82A593A5A4A5B5A536
:1054D0008093850890938608A0938708B0938808E6
:1054E00064E070E00ECCD10112969C91129780E09E
:1054F00090935202809351028091510290915202F6
:1055000013962C91822B909352028093510240E08B
:105510006FEF80E00E94A20D60E070E080E090E01C
:1055200081CB10925202109251024FEF60E080E066
:105530000E94A20D60E070E080E090E073CBF1018A
:105540004781668185810E94A20D60E070E080E065
:1055500090E068CB81010C5F1F4FC1E0D0E0D1012A
:1055600012968C9190E09E012150310902C09595D0
:1055700087952A95E2F780FDC8C121960E5F1F4FDF
:10558000C430D10561F74ACB0E94832480938508FB
:1055900061E070E0B6CB80914D0290914E02A091F7
:1055A0004F02B09150028093850890938608A09393
:1055B0008708B0938808CFEFDDE029E9822E28E044
:1055C000922E34E0A32EB12C00E010E0C880D980E8
:1055D000EA80FB800F5F1F4F95E8692E98E0792ED7
:1055E0006A0C7B1C6C817D81882777FD8095982FC4
:1055F0000E94D8402BED3FE049EC50E40E94C541A9
:105600009B01AC01C701B6010E94D23FF301608348
:10561000718382839383C8010E94431DD4018D93BB
:105620004D01EF96B4E0AB0EB11C0430110571F6DC
:1056300068E170E066CBD101189680E090E02FE33E
:10564000FD0135973081F1014281FC01249FE00D7D
:10565000F11D1124EB52F24F35AB3D91F101428126
:10566000FC01249FE00DF11D1124EB52F24F32AFEB
:1056700001968530910521F7D1CAE5EDFDE080E086
:1056800090E044E0D10112962C9130E0082E02C047
:10569000359527950A94E2F720FD40830196FF9601
:1056A0008430910579F7BACAF101418150E0445044
:1056B0005109B1016D5F7F4F928180E042960E9457
:1056C000E41360E070E080E090E0ACCA10928508DE
:1056D00061E070E016CB0AEE1DE03101F5E06F0EDF
:1056E000711CC0E0D0E042E3842E912CA12CB12C9F
:1056F000D10112968C9190E00C2E02C09595879561
:105700000A94E2F780FDCDC02196015C1F4FB6E000
:105710006B0E711CC430D10559F780CA64E070E08B
:1057200088E492E07FCA25E838E0F101418150E049
:10573000B101C9010E94684981E280938508809186
:105740008608882309F44CCEE5E8F8E090E08E0F57
:105750009F1F31E22091C80025FFFCCF3093CE007F
:105760003196E817F90709F43BCE3081F3CF0E9458
:10577000391106CA8091CF0D9091D00D9093850874
:105780008091CF0D9091D00D8093860862E070E0FB
:10579000B8CA809107148111E8C98AE08093071480
:1057A00060E070E080E090E03DCA8091110F8823B6
:1057B00099F1E091120FF091130F6091140F709115
:1057C000150F42E050E020E030E0CF01EA01CB5776
:1057D000D74FDE01129711811C9332968E01015032
:1057E0001109DC018C91D8018C93DB018D919D9185
:1057F000BD01DC01CD90DD90ED90FC90C882D98296
:10580000EA82FB822F5F3F4F8091110F4A5F5F4F0B
:1058100090E028173907CCF26091110FB6E06B9F2A
:10582000B00111246ECAB1016E5F7F4F44E050E0B9
:1058300082E194E00E94E413F10182819381A481CA
:10584000B5818093480290934902A0934A02B09395
:105850004B0260E070E080E090E0E4C98091B80C19
:10586000833009F44AC0D8018C91823009F466C0B3
:1058700060E070E0CB01F701EB57F74F6083718375
:1058800082839383B4E0CB16D10409F472CB2196C2
:10589000BFEFCB1ADB0AE4E0EE0EF11C015C1F4FF8
:1058A00053CDF30132978081F8018083F301319762
:1058B0008081D8011B968C931B971C961C92F30138
:1058C000C080D180E280F3802196CE010E94031E29
:1058D000F7FC45C0C701B601A50194010E94BE4670
:1058E000D80117962D933D934D935C931A970DCF46
:1058F0008091B80C823009F0B6CFF701EB57F74F23
:105900001082118212821382C2CFF8013197F08087
:10591000E12CF8018081A701482B662757FD60958F
:10592000762FCE010E94B51D28CEB2E9CB2EBAE06B
:10593000DB2EB6E0EB2EB0E4FB2E5FC99A962D91DC
:105940003D914D915C919D9711966D917D918D91B9
:105950009C9114970E94D13F0E94B5178CCF8FEF76
:105960009FEFDC01F80187839087A187B287CDCEB6
:105970008AE00E94A50F64CDF7FAF094F7F8F0944E
:10598000C6A2D7A2E0A6F1A649C9F7FAF094F7F8A3
:10599000F094BACC84E68093850887E080938608EB
:1059A000F1018281809387088381809388088481B4
:1059B00080938908858180938A0810928B0820E063
:1059C0004FEF5FEF67E085E898E00E94C631892BD2
:1059D00009F0CBC823C9CF92DF92EF92FF920F93C9
:1059E0001F93CF93DF9382E390E0A0E0B0E0809339
:1059F000770590937805A0937905B0937A0581E0B7
:105A0000809376058DEA94E290937C0580937B05E4
:105A1000FF24FA9403E011E18091740290917502E1
:105A2000181619060CF0C9C0809174029091750285
:105A3000892B09F4BEC0E0917202F0917302EF521B
:105A4000F14FE080809172029091730201968F7302
:105A5000907897FDBBC090937302809372028091FF
:105A6000740290917502019790937502809374026D
:105A70008091760290917702009741F486E795E055
:105A80000E944B328091760290917702FC01EB5795
:105A9000FA4FE082019690937702809376028230EB
:105AA00091050CF4B9CF2091860530E08217930759
:105AB00009F0B2CF86E795E00E9417324091870542
:105AC0008091CF0D9091D00D242F30E0892F992710
:105AD000509188052817390709F47DC0411132C05B
