:100000000C946C010C948B010C948B010C948B015F
:100010000C948B010C948B010C948B010C948B0130
:100020000C948B010C94A60A0C948B010C948B01FC
:100030000C948B010C94D9030C948B010C948B01C0
:100040000C948B010C948B010C948B010C948B0100
:100050000C948B010C948B010C948B010C948B01F0
:100060000C948B010C948B010C948B010C948B01E0
:100070000C948B010C948B010C948B010C948B01D0
:100080000C948B010C948B010C948B010C948B01C0
:100090000C94B5250C948B010C948B010C948B0162
:1000A0000C948B010C948B010C94E5010C94F601DB
:1000B0000C948B010C948B010C948B010C94580EB6
:1000C0000C948B010C948B010C948B010C948B0180
:1000D0000C948B010C948B010C948B010C948B0170
:1000E0000C948B010C948B010C948B010C948B0160
:1000F0000C941E030C948B010C948B010C94F20253
:100100000C948B010C948B010C948B010C948B013F
:100110000C948B010C948B010C948B010C948B012F
:10012000CA268126D829102A9726212A3B2A5A2A0C
:10013000792A982AB62AEB2A1D2B622BA82BC02BD2
:10014000D82BF02BFE2B182C462C702C7D2C8E2CB3
:100150007626A02CB52CC32CE42CFE2C012D092DC9
:100160000D2D122D1F2D7626BB27DE27642886280D
:1001700030283E284B285C2835277527EA2611278A
:1001800078277B27802797279D28AE28C828D22844
:10019000D928F32802290D292E29C7297626762663
:1001A000762676267626762676267626A729C129ED
:1001B00037293E294729692905A84CCDB2D44EB923
:1001C0003836A9020C50B9918688083CA6AAAA2AFA
:1001D000BE000000803F6E616E00696E66000040E8
:1001E0007A10F35A00A0724E18090010A5D4E80046
:1001F00000E87648170000E40B54020000CA9A3B5E
:10020000000000E1F50500008096980000004042E3
:100210000F000000A0860100000010270000000071
:10022000E803000000006400000000000A00000075
:1002300000000100000000002C76D888DC674F0821
:1002400023DFC1DFAE59E1B1B796E5E3E453C63A27
:10025000E651997696E8E6C28426EB898C9B62ED9E
:10026000407C6FFCEFBC9C9F40F2BAA56FA5F49058
:10027000055A2AF75C936B6CF9676DC11BFCE0E4CF
:100280000D47FEF520E6B500D0ED902E0300943525
:1002900077050080841E080000204E0A000000C878
:1002A0000C333333330F986E12831141EF8D2114C9
:1002B000893BE65516CFFEE6DB18D1844B381BF799
:1002C0007C1D901DA4BBE424203284725E22810038
:1002D000C9F124ECA1E53D2711241FBECFEFD1E4E5
:1002E000DEBFCDBF12E0A0E0B2E0E8EFF6E900E04B
:1002F0000BBF02C007900D92AC3FB107D9F71CE1CC
:10030000ACEFB2E001C01D92AD3AB107E1F70E9437
:1003100086130C947A4B0C94000014BE88E10FB63F
:10032000F89480936000109260000FBE78940C9453
:100330009C0190E00C94B1011092030980E29EE4CC
:100340009093A9008093A800E1EAF0E088E0808320
:10035000808182608083E2E7F0E080818260808338
:1003600008952091A4003091A500280F391F3093E3
:10037000AB002093AA002091AA003091AB0080919D
:10038000A8009091A9008217930770F48091AA00A9
:100390009091AB002091A8003091A900821B930B93
:1003A0009093AB008093AA001092FC02809172009F
:1003B0008460809372008091FC028823E1F3809135
:1003C00072008B7F8093720008951F920F920FB678
:1003D0000F9211248F93809103098F5F80930309FB
:1003E0008F910F900FBE0F901F9018951F920F9234
:1003F0000FB60F9211248F9381E08093FC028F91AE
:100400000F900FBE0F901F9018950F931F93CF93CF
:10041000DF9310924E0183E08093420186E0809347
:100420004201809141018F718630D9F7C0E0D0E060
:1004300000E010E081E00E949901209146012295A0
:100440002695237030E00C2E02C0220F331F0A9431
:10045000E2F7022B132B2296C031D10559F783E026
:100460008093420188E080934201809141018F7125
:100470008830D9F78FEF80934F0180914E018860CB
:1004800080934E0180914E01806480934E01C8019B
:10049000DF91CF911F910F910895809106038823DA
:1004A00061F083E08093420186E180934201809174
:1004B00041018F718631D9F7089583E0809342011D
:1004C00088E080934201809141018F718830D9F793
:1004D00008958091390181608093390183E0809390
:1004E000420188E080934201809141018F71883000
:1004F000D9F780916E01806280936E0180916E01C8
:100500008F7E80936E018FEF80934F0180914E011B
:10051000886080934E0180914E01806480934E01EB
:1005200080914C01806880934C010E940502809369
:100530006D01109200031092060381E080930A027D
:100540000895E0E0F3E09081986090838093060343
:100550000895E0E0F3E0908191609083809301033F
:100560000895E0E0F3E0208122602083909303036C
:10057000809302030895E0E0F3E02081246020836B
:100580009093050380930403089580910A028130BB
:1005900011F081E00895909100039111FBCF80E06C
:1005A000089523E02093420129E120934201209104
:1005B00041012F712931D9F7262F2E5F2093800119
:1005C000662349F0FC01A1E8B1E091919D939E2F33
:1005D000981B9617D0F382E08093420183E08093CA
:1005E0000A0208951F920F920FB60F9211248F9353
:1005F000809141018F71893131F08F910F900FBE41
:100600000F901F90189583E08093420189E08093BA
:100610004201809141018F718930D9F784E0809344
:100620000A02809142018295869587708093FF022D
:100630008F910F900FBE0F901F9018951F920F92E1
:100640000FB60F9211248F9389E08093420180911D
:1006500047018093FE0280917B018093FD0285E03B
:1006600080930A028F910F900FBE0F901F901895E4
:10067000CF93DF9300D000D01F92CDB7DEB780912B
:100680000A02843009F481C0853009F43FC081300A
:1006900041F00F900F900F900F900F90DF91CF913E
:1006A0000895909100039923A1F383E08093420180
:1006B00088E080934201809141018F718830D9F7A1
:1006C00090FF09C0209101032F7180914801807E25
:1006D000822B8093480191FF08C080910203809390
:1006E0006201809103038093630192FF08C08091AF
:1006F000040380936001809105038093610194FD60
:1007000053C00E944D0210920003C3CF8091FD029E
:1007100080E090E040E0FC01E058FE4F2081FC01C9
:10072000E95FFC4F20834F5F2091FD02842F90E012
:1007300030E0281739077CF787E093E09A838983B4
:100740008091FD0282508B83E091FD02F0E0E95F31
:10075000FC4F80818C838091FE028A558D83CE016F
:1007600001960E949405809141018F718930D9F7DB
:1007700081E080930A020E944D020F900F900F902B
:100780000F900F90DF91CF9108958091FF020E940A
:100790007F08809141018F718930D9F781E0809382
:1007A0000A020E944D02E9CF0E9405020E947D0EBE
:1007B000A8CF1F920F920FB60F9211248F9381E052
:1007C000809387038F910F900FBE0F901F90189505
:1007D0001092080910920909109205091092040953
:1007E00010920B0910920A0910920D0910920C092F
:1007F00010920F0910920E090E94B8070E9470050E
:100800000E94EE040C943E04909305098093040921
:100810000C94BB0290930709809306090C94B102D3
:10082000E82FF0E0EE0FFF1FE65FF64F7183608365
:1008300008950E94C8050E949B080C945C04E091F6
:100840008803F0918903309731F416C00190F0814C
:10085000E02D309789F02281338128173907B1F7CD
:10086000DC01A158BF4F2C912787DC01AE57BF4F49
:100870002C91208B22E024830C941A05109289037A
:10088000109288030895FC01148217861382128245
:100890008091880390918903009739F09183808338
:1008A000F0938903E0938803089511821082F093F6
:1008B0008903E093880308950F931F93CF93DF93E9
:1008C000E0918803F0918903309709F47BC0EF0130
:1008D0008C81811155C08C850E94F5048C01009794
:1008E00009F46DC09B838A8381E08C83F801ED5706
:1008F000FF4F8FE194E091838083F801EE57FF4F23
:10090000898582FB882780F980839985F801838512
:1009100090FB80F98387998593FB992790F990FB49
:1009200082F987708387809108098F5F8093080917
:1009300084878091040990910509968785878D8128
:100940009E81908B878798859F708189807F892B76
:10095000818B9F819295907F8F70892B818B9801DD
:100960002E5E3F4F4C856A857B8550E0C9010E9411
:10097000C94AC801DF91CF911F910F910C94D30701
:10098000823039F00990D881C02D209709F0A0CF8E
:1009900019C0EC17FD0711F41AC0FC018081918188
:1009A0008C179D07D1F78881998191838083ED858C
:1009B000FE85CE01DF91CF911F910F91099482E0C6
:1009C0008C838F87DF91CF911F910F91089588813C
:1009D00099819093890380938803E9CF10928A03C9
:1009E00010920F0410929404089590918A03992311
:1009F00061F090910F049923B9F090919404992398
:100A0000B1F020E030E0C901089540E050E095E801
:100A1000949FF001959FF00D1124E657FC4F805FE5
:100A200081839F01C901089541E050E0F0CF42E089
:100A300050E0EDCFFC011082089595E8899F900168
:100A4000112426573C4FC9010895FC01DC01A1582F
:100A5000BF4F1C92DC01A058BF4F1D921C92DC01BD
:100A6000AE57BF4F1C92DC01AD57BF4F1D921C9279
:100A70001386A8E0B9E08C918F5F8C938487809176
:100A800004099091050996878587108A1786118A2F
:100A900008950C941A05EDE1F5E040E020813181E4
:100AA0002115310529F0215031093183208341E09E
:100AB000359625E0EF34F20789F7411101C008951A
:100AC0000C947C09DC011596ED91FC911697208120
:100AD000222311F080E008950E945B0881E00895D0
:100AE000EDE1F5E011821082359685E0EF34F807EC
:100AF000C9F710924C0584E190E0A0E0B0E080934B
:100B0000530590935405A0935505B0935605109244
:100B100057058BE495E0909359058093580562E65C
:100B200075E080E00C941004CF93DF93EC01E88132
:100B3000F9818181883819F0DF91CF910895808102
:100B4000813611F08134C1F78A818031A8F3805158
:100B50000E94F504009781F320E2FC0120832B81A1
:100B6000E158FF4F20832C81FC01E058FF4F208388
:100B70009C012E5F3F4F4A816881798150E0C90115
:100B80000E94C94A80914C058F5F80934C05D4CF59
:100B90002F923F925F926F927F928F929F92AF922D
:100BA000BF92CF92DF92EF92FF920F931F93CF935A
:100BB000DF93CDB7DEB72A970FB6F894DEBF0FBE2E
:100BC000CDBF80914C058823F1F0512C54E2752E55
:100BD00069E4C62E65E0D62E72E2672EE7E9AE2EF6
:100BE000B12C852D0E941D058C01DC018C91823277
:100BF00011F1843209F421C1803209F4B3C0539455
:100C0000B3E05B12EECF2A960FB6F894DEBF0FBEAC
:100C1000CDBFDF91CF911F910F91FF90EF90DF90AB
:100C2000CF90BF90AF909F908F907F906F905F908C
:100C30003F902F90089510921905D80151968C91EC
:100C4000519782958F70282F30E0243031050CF0B9
:100C5000FDC0F901EE0FFF1FE65FF64F0190F08136
:100C6000E02D309709F4F2C01D962D913C911E970E
:100C70003A83298351969C9151979F709B838C83D3
:100C8000A8014E5E5F4F5F834E8311968C91119742
:100C900080518887A158BF4F8C918987D801A0586F
:100CA000BF4F8C918A87D8011B968C91982F937097
:100CB00082FDE8C080E0892BD8011F964D915C91A0
:100CC00050974F3F5F4F09F4E8C090E0892BD8015F
:100CD00019964D915C911A972417350709F4DBC0DA
:100CE00090E0892BD80115962D913C9116972F3FB6
:100CF0003F4F09F4CEC090E0892B8D83CE01019641
:100D00000995F801278130852F3F3F4F09F4A6C090
:100D100060E0F801938590FFB0C0882309F4ADC06E
:100D200083E00E94F5047C010097C9F00E9425052C
:100D3000F701ED57FF4FD182C082D8011D962D914A
:100D40003C911E97F701308B2787128A80911905F5
:100D5000848B1C968C91838BC7010E94D307D8018A
:100D60007C924DCFF8017082278530892F3F3F4F0D
:100D700009F48AC02090040930900509F801E5843F
:100D8000F6842E143F0409F43ACF838581FD37CFD2
:100D90004801FDE08F0E911CEAE1F5E020E030E033
:100DA0008FEF0FC0D4016D917C9140815181641708
:100DB000750709F474C02F5F3F4F35962A3031050F
:100DC00059F043815481452B69F7822F2F5F3F4FA4
:100DD00035962A303105A9F78F3F09F410CF9927AE
:100DE00087FD9095FC01EE0FFF1FEE0FFF1FE80F30
:100DF000F91FE65EFA4FF182E082D8011C968C91D1
:100E00008283B482A3828DE495E00E947C092090C5
:100E1000040930900509F80187819085019609F44D
:100E200053C0F801878590898215930519F00196C2
:100E300009F0E5CED8016C92E2CEC8010E941A05F5
:100E400080914C05815080934C05D9CE80E0F8010B
:100E5000278130852F3F3F4F09F05ACF61E0409105
:100E6000040950910509D8011F962D913C91509786
:100E70004217530709F04CCF4CCF611151CFD80125
:100E80007C92BDCE80E217CF1B968C9180FF72CFF3
:100E9000B6CE90E131CF98E024CF94E017CFF8019F
:100EA0008485F901EE0FFF1FEE0FFF1FE20FF31F06
:100EB000E65EFA4F9281282F291B12160CF09FCE66
:100EC0008283B482A382A7CFF80187859089821597
:100ED000930509F4AFCFF801258136812F3F3F4FAD
:100EE00009F4A5CFD8011B962C9122FDA0CFC801F3
:100EF0000E941108209004093090050992CF0C94AB
:100F00001A05FF920F931F93CF93DF93EC0180910B
:100F10005C05882339F110E085E1F82E00E1812F8E
:100F20000E941D05FC018081843159F01F5F133040
:100F3000B1F7CE01DF91CF911F910F91FF900C94EB
:100F40007C09DF01A058BF4F2D913C911197215092
:100F500031092D933C93232B49F7F082E158FF4F41
:100F60000083E4CFDF91CF911F910F91FF900895FF
:100F700010925B0510925A0510925C0582E390E096
:100F8000A0E0B0E08093630590936405A0936505AD
:100F9000B09366051092670581E897E09093690524
:100FA000809368050895FC01DC01AE57BF4F8C911A
:100FB00091E19083DF01A158BF4F1C9280FF20C0B8
:100FC0008FEF9FEF968385838785908990878783AE
:100FD0002091040930910509328721872091090960
:100FE0002F5F209309092483019689F081E698E810
:100FF0009383828380915C058F5F80935C05089565
:10100000809106099091070996838583DDCF81E45D
:1010100098E89383828380915C058F5F80935C0561
:1010200008950F931F93CF93DF938C01FC0181816F
:1010300080510E94F504EC010097C1F1FC01ED57CD
:10104000FF4F8FE797E0918380839E012E5F3F4F94
:10105000F80141810E5F1F4F50E0B801C9010E94A5
:10106000C94A81E18883FE01E158FF4F108281E483
:1010700098E89B838A838FEF9FEF98878F83809177
:101080000609909107099E838D83809104099091B0
:1010900005099A878987809109098F5F80930909DB
:1010A0008C8380915C058F5F80935C05DF91CF918D
:1010B0001F910F9108951F93CF93DF93FC01C5817A
:1010C000D68180915C05882359F010E0812F0E9421
:1010D0001D05FC018081843139F01F5F1330B1F7A9
:1010E000DF91CF911F910895948589819813F5CF51
:1010F00085E180838A81EE57FF4F8083F1CFE091B5
:101100005A05F0915B05833080F0833081F08530A3
:1011100081F081E0DF01A158BF4F8C9383E1808390
:1011200010925B0510925A05089580E0F3CF80E29B
:10113000F1CF81E2EFCFAF92BF92CF92DF92EF92E9
:101140001F93CF93DF9380915C058823C1F010E05B
:1011500095E1E92E24E1C22E35E0A32EB12C42E127
:10116000D42E812F0E941D05EC018881833181F0EE
:10117000853171F18131E9F01F5F133091F7DF9113
:10118000CF911F91EF90DF90CF90BF90AF900895D7
:10119000FE01E158FF4F8081811109C04D855E85B8
:1011A000209104093091050942175307F9F0E882AC
:1011B000E3CF0E94C5028111DFCFD0935B05C093BE
:1011C0005A05D8826981CE0102960E94D102D4CFFD
:1011D000FE01ED57FF4F0190F081E02DCE01099502
:1011E00080915C05815080935C05C6CF8B8580FF24
:1011F000DECFC882C058DF4FB982A8828DE595E066
:101200000E947C09B9CF0E948D010E9477090E943B
:1012100069020C94E8030E9438030E9419040C949C
:1012200092090F931F93CF93DF93EC0180916A058E
:1012300090916B05009709F447C04E815F816885E6
:101240007985FC01A0E0B0E001C0F90102811381C1
:10125000248135814017510762077307E0F0401B76
:10126000510B620B730B20813181DF012115310598
:1012700061F74A835B836C837D831097D1F08D91F6
:101280009C91119799838883CD93DC93DF91CF91C3
:101290001F910F910895041B150B260B370B02832A
:1012A0001383248335834A835B836C837D83109708
:1012B00031F799838883D0936B05C0936A05DF91DA
:1012C000CF911F910F910895198218824E815F81ED
:1012D000688579854A835B836C837D83D0936B05B6
:1012E000C0936A05DF91CF911F910F9108951092DD
:1012F0006B0510926A050895E0916A05F0916B05FF
:10130000309761F08E179F0721F40BC08E179F074F
:1013100039F00190F081E02D3097C1F70C9411095C
:1013200008950895CF92DF92EF92FF92CF93DF93CB
:1013300080910309882309F458C09FB7F8948091DD
:101340000309109203099FBF90E0A0E0B0E0880F6E
:10135000991FAA1FBB1F6C017D01CC0CDD1CEE1C6C
:10136000FF1CCC0CDD1CEE1CFF1CC80ED91EEA1E97
:10137000FB1EC0916A05D0916B052097B1F14A819F
:101380005B816C817D81C416D506E606F706A0F464
:1013900024C0EB85FC85CE010995C0916A05D091EA
:1013A0006B05209711F14A815B816C817D81C416A8
:1013B000D506E606F70688F0C41AD50AE60AF70A43
:1013C0008881998190936B0580936A058A85813025
:1013D00001F7CE010E941109DCCF4C195D096E099D
:1013E0007F094A835B836C837D83DF91CF91FF907C
:1013F000EF90DF90CF90089581E080930C02809170
:10140000100986FF04C08091100987FD9AC0809161
:10141000100986FF8AC08091900290919102892BD9
:1014200009F484C080918F02882309F466C00E9469
:10143000733E80ED8093FA138EE08093FB138091CE
:101440009002909191029093FC1380919002909160
:1014500091028093FD131092FE1386E78093FF1391
:1014600088E08093001410920114109202141092DC
:101470000314109204148FEF809305141092061435
:1014800082E1809307146091FB1320E04FEF5FEF40
:101490008AEF93E10E94C8326091FB1320E04FEF86
:1014A0005FEF8AEF93E10E94C8326091FB1320E066
:1014B0004FEF5FEF8AEF93E10E94C8326091FB1318
:1014C00020E04FEF5FEF8AEF93E10E94C832609116
:1014D000FB1320E04FEF5FEF8AEF93E10E94C832E9
:1014E0006091FB1320E04FEF5FEF8AEF93E10E94E2
:1014F000C83210928C1C109292021092910210929B
:10150000900210928F0281E00E9448101092A61C57
:101510001092A51C1092A81C1092A71C1092A30256
:101520004FEF60E080E00C947E0E089583E00E940F
:1015300048100E942635892B11F00C9417350C9415
:10154000B7340E94212583E00C9448101F920F921B
:101550000FB60F9211240F900FBE0F901F90189589
:101560000E94500E8091900290919102892B31F04F
:101570008091A51C9091A61C0E94313F0C94A43E22
:10158000CF93DF93CDB7DEB729970FB6F894DEBFC0
:101590000FBECDBF0E94500E80919002909191029B
:1015A000892B21F080918F0281111CC08091A302B0
:1015B0008130D9F18330C9F18091900290919102EC
:1015C000892B29F080918F02882309F458C00E944A
:1015D0003C4029960FB6F894DEBF0FBECDBFDF9119
:1015E000CF9108958091A51C9091A61C892BF1F6AE
:1015F0008091920290E0019663E070E00E94E947DA
:101600008093920280919202813009F447C0D0F118
:101610008230F9F60E9473244FEF6FEF80E00E9452
:101620007E0E89E080938C1CD4CF82E08093A3024D
:101630008091900290919102892BF1F080ED898345
:1016400089E08A8380919002909191029B8380919E
:101650009002909191028C831D828DE48E8383E0B1
:101660008F83188682E1898720E04FEF5FEF69E082
:10167000CE0101960E94C8320E947324AACF0E9414
:101680007B40A7CF0E9473240E94733E4FEF60E01F
:1016900080E00E947E0E10928C1C9BCF0E94733EB5
:1016A00040E06FEF80E00E947E0E87E080938C1C0C
:1016B00090CF80ED97E0A0E0B0E080931609909382
:1016C0001709A0931809B093190981E080931509AF
:1016D0008CEF99E090931B0980931A0985E199E0BA
:1016E0000C944D3385E199E00C9419338F929F92BD
:1016F000AF92BF92CF92DF92EF92FF920F931F9320
:10170000CF93DF93CDB7DEB72C970FB6F894DEBF3B
:101710000FBECDBFE62EE82690914702992309F42B
:1017200042C0E6FA442740F9E7FC93C0E5FC446078
:1017300066FD63C030E021E067FD63C0226065FFA5
:1017400063C0346080E289838AE08A8380914D029D
:1017500090914E02A0914F02B09150028B839C83D6
:10176000AD83BE834F83388729871A8680915102C3
:1017700090915202892B09F449C02091E20D3091D9
:10178000E30D809151029091520228173907F1F12F
:10179000409151025091520221E06AE0CE0101963F
:1017A0000E94C83243C06623F9F090910C02911157
:1017B0003DC0E6FE52C06C878B8766FF62C00E9408
:1017C000590B20E030E06C858B85E7FC53C0E5FECB
:1017D00047C065FD45C086FD46C085FD6DC087FFDD
:1017E00025C00E94C00A22C090910C029923E9F200
:1017F00010920C0210920B0219C031E020E067FF3A
:101800009DCF326065FD9DCF24609CCF4091E20D5D
:101810005091E30D21E06AE070E0CE0101960E9454
:101820000E26FC01618170E00E94F4252C960FB613
:10183000F894DEBF0FBECDBFDF91CF911F910F9106
:10184000FF90EF90DF90CF90BF90AF909F908F90E0
:1018500008954260E5FE6CCF6ACF20E030E0B5CF5E
:10186000232B21F3B8CF87FD41C085FD25C00E9401
:10187000B00ADCCF67FD0CC010920B0221E030E013
:10188000A6CF0E94720B21E030E06C858B859DCF46
:1018900091E090930B0280904D0290904E02A090A8
:1018A0004F02B09050028092110990921209A092BA
:1018B0001309B09214098BCF0E94500E80915102EF
:1018C00090915202892B49F04FEF60E080E00E9436
:1018D0007E0E10925202109251021092A61C10928B
:1018E000A51C1092A81C1092A71CA0CF81E00E94FA
:1018F00048100E94AD4081E080930C028091E80D79
:10190000811126C08091270E811122C08091660E20
:1019100081111EC086E1C82E8EE0D82EE12CF12C5C
:10192000F60111821082FFEFEF1AFF0A0BED1FE0A4
:1019300029EC3FE340E050E0BA01C7010E94791A68
:101940008FE3C80ED11CE3E0EE16F10449F76ECF29
:101950000E9473246BCFCF9380914D0290914E02E1
:10196000A0914F02B091500240910D0250910E0291
:1019700060910F0270911002841B950BA60BB70BA0
:101980004997A105B105F0F0C9B1C095C07EC093DB
:101990001009809111028C17A9F06C2F0E94760B10
:1019A00080914D0290914E02A0914F02B091500251
:1019B00080930D0290930E02A0930F02B093100239
:1019C000C0931102CF9108951092B1002498089508
:1019D0000C94E40CCF93DF9382E48093B000A3EBEC
:1019E000B0E082EB8C93E1EBF0E085E080832FEFB9
:1019F00032E597E0215030409040E1F700C0000010
:101A00001082CFE1DEE42197F1F700C0000095E8F5
:101A10009C938083DFEF22E537E0D15020403040B7
:101A2000E1F700C000001082249881E08093A40CAC
:101A300084E690E0A0E0B0E08093A50C9093A60C23
:101A4000A093A70CB093A80C88EE9CE09093AA0CEE
:101A50008093A90CDF91CF9108959C01009709F123
:101A60008A3F910578F085E08093B10064E274EFDD
:101A700080E090E0249A40E050E00E941F482093CC
:101A8000B300089587E08093B10064E87EE180E0D0
:101A900090E0249A40E050E00E941F482093B30059
:101AA00008950C94E40CCF93DF93C82FCF708295E8
:101AB0008F7009F161E090E0660F9F5F9813FCCF93
:101AC00070E0D0E0CC0FDD1FCC0FDD1FCE5EDD4F10
:101AD000882777FD8095982F0E9439422881398187
:101AE0004A815B810E9426430E940B42CB01DF9119
:101AF000CF910C942D0D61E070E0E3CF0F931F9315
:101B0000CF93DF9300D0CDB7DEB70E94E40C0091F5
:101B10004302109144020115110509F480C080911F
:101B2000450290914602801791070CF05EC03091FB
:101B3000B30C20E0880F991F820F931F45960E94D7
:101B400055140E94530D3091B30C20E08091450252
:101B500090914602880F991F820F931F44960E940E
:101B600055148093710540914502509146024F5F94
:101B70005F4F50934602409345026091430270913B
:101B800044026417750794F40E94CA498A830E942C
:101B9000CA4989830E94CA494A8169810F900F907E
:101BA000DF91CF911F910F910C947E0E1092B40C87
:101BB000282F30E040E050E060916D0570916E0597
:101BC00080916F05909170050E94FD472093B50CA0
:101BD0003093B60C4093B70C5093B80C8EE79DE051
:101BE0009093BA0C8093B90CCFCF81E08093B40C62
:101BF0001092460210924502109244021092430243
:101C00000E94E40C109242024FEF60E080E00F90DF
:101C10000F90DF91CF911F910F910C947E0E9091B8
:101C2000B30C80E042960E94551480936C0590910D
:101C3000B30C80E043960E945514082F10E01093D7
:101C400044020093430220916C0530E040E050E0F4
:101C500060E879EA83E090E00E94FD4720936D05FB
:101C600030936E0540936F055093700558CF91E007
:101C7000909342029093B40C1092B50C1092B60C53
:101C80001092B70C1092B80C2EE73DE03093BA0CCE
:101C90002093B90C8093B30C84EB9CE00C944D33EF
:101CA00086EE90E00E942D0D84EA9CE00C944D336A
:101CB0001F920F920FB60F9211248F939F93AF93A1
:101CC000BF9380914D0290914E02A0914F02B0912E
:101CD00050020196A11DB11D80934D0290934E02BA
:101CE000A0934F02B0935002BF91AF919F918F91FB
:101CF0000F900FBE0F901F901895089590E1899F47
:101D000090011124309399002093980090E1699FED
:101D10009001112430939D0020939C0090E1499FF5
:101D20009001112430939B0020939A008093C80C5B
:101D30006093C90C4093CA0C08958091C30C909194
:101D4000C40C01979093C40C8093C30C1816190609
:101D50001CF081E08093D20D4091CA0C40586091F4
:101D6000C90C60588091C80C80580C947E0E20E1FC
:101D7000829FC0011124909399008093980080E184
:101D8000689FB001112470939D0060939C0020E136
:101D9000429FA001112450939B0040939A00089504
:101DA000CF93DF938091900290919102892B59F10A
:101DB00080918F02882339F1C0915702D091580247
:101DC0009E01A9E8B8E80E94C9479695879596951F
:101DD0008795969587954FE0489F9001499F300DD4
:101DE0001124CE01821B930B039780F44091871C32
:101DF0006091861C8091851C0E94B70E2196D0931D
:101E00005802C0935702DF91CF9108954091CA0CB8
:101E10006091C90C8091C80C0E94B70EEFCF109250
:101E2000B90080E28093B80084E08093BC000895FC
:101E300084EA8093BC008091BC0087FFFCCF0895AA
:101E400084E98093BC0008958093BB0084E880936C
:101E5000BC008091BC0087FFFCCF089584EC809388
:101E6000BC008091BC0087FFFCCF8091BB0008952F
:101E700084E88093BC008091BC0087FFFCCF8091F8
:101E8000BB0008950E94180F8091B900887F8830A8
:101E900011F081E0089588E30E94240F8091B90039
:101EA000887F8831B1F78DE00E94240F8091B900BE
:101EB000887F883271F70E94180F8091B900887F5F
:101EC000803139F789E30E94240F8091B900887F1F
:101ED0008034F9F60E94380F8A32D9F68091B90021
:101EE000887F8835B1F60E94200F0E94180F8091DC
:101EF000B900887F803169F688E30E94240F8091C1
:101F0000B900887F883129F68AE20E94240F8091E7
:101F1000B900887F883209F0BCCF89E10E94240F84
:101F20008091B900887F883209F0B3CF0E94200FDA
:101F300080E008950E94180F8091B900887F883052
:101F400011F081E0089588E30E94240F8091B90088
:101F5000887F8831B1F781E00E94240F8091B90019
:101F6000887F883271F70E94180F8091B900887FAE
:101F7000803139F789E30E94240F8091B900887F6E
:101F80008034F9F60E942E0F382F20E03093C60CD3
:101F90002093C50C8091B900887F803591F60E940E
:101FA0002E0F2091C50C3091C60C282B3093C60CF7
:101FB0002093C50C8091B900887F803511F60E946E
:101FC0002E0F382F20E03093CD0D2093CC0D809133
:101FD000B900887F803509F0B4CF0E942E0F209180
:101FE000CC0D3091CD0D282B3093CD0D2093CC0D01
:101FF0008091B900887F803509F0A3CF0E942E0F11
:10200000382F20E03093E60D2093E50D8091B90044
:10201000887F803509F095CF0E94380F2091E50D1B
:102020003091E60D282B3093E60D2093E50D80913D
:10203000B900887F883509F084CF0E94200F80E0A6
:102040000895CF93C82F8823F1F040E06FEF80E030
:102050000E947E0E2FEF81EE94E021508040904050
:10206000E1F700C0000040E060E08FEF0E947E0ECC
:102070002FEF81EE94E0215080409040E1F700C0C6
:102080000000C15011F7CF91089585E00C94211004
:102090002091C30C3091C40C121613060CF4089551
:1020A00090E0880F991F9093C40C8093C30C1092FA
:1020B000D20D84E690E0A0E0B0E08093D30D909341
:1020C000D40DA093D50DB093D60D8DE99EE09093DD
:1020D000D80D8093D70D82ED9DE00C944D339AE09E
:1020E0009093770090917C00907E90937C009091EB
:1020F0007C00982B90937C0080917A00876C809371
:102100007A0080917A0086FDFCCF20917800309192
:102110007900932F937080E0AC01422B9A01C901A2
:102120000895CF93DF9380E880936100109261005F
:10213000F89480EF84B98BB1806E8BB98091680080
:1021400081608093680080916B00826080936B0057
:1021500080916B00846080936B0080916B0088603D
:1021600080936B008FB780688FBF80917C00806CFC
:1021700080937C008BE18AB98FE78DB98FE383BBB5
:10218000819A89982FEF80E792E02150804090401B
:10219000E1F700C0000082E00E946F10EC0181981E
:1021A000829A8A982FEF80E792E0215080409040F9
:1021B000E1F700C0000081E00E946F108298C436F1
:1021C000D10524F4843691050CF44BC082E0809351
:1021D000CB0C82E090E09093CF0D8093CE0D81E008
:1021E00090E09093D10D8093D00D3AEA3093800027
:1021F00029E1209381008FEF9FE0909387008093E7
:1022000086003093900020939100909397008093E4
:102210009600109225011092240180917300826033
:1022200080937300809121018C60809321018EE363
:1022300090E0909329018093280190932701809347
:10224000260184B7877F84BF809160008861809376
:102250006000109260000E94B2147894DF91CF91D8
:10226000089583E08093CB0C84E090E09093CF0DB1
:102270008093CE0D83E090E09093D10D8093D00DAC
:10228000B4CF0E946F10BC0180E090E00E94374202
:102290002DEC3CEC4CEC5FE30E94264320E030E068
:1022A00040E85AE30E942643089580E00E946F10A0
:1022B000BC0180E090E00E9437422DEC3CEC4CECFD
:1022C0005FE30E94264320E030E040E85AE30E94AA
:1022D00026432EE63BED46EB5EE30E949E410895C9
:1022E000CF93DF93CDB7DEB72C970FB6F894DEBF50
:1022F0000FBECDBF69877A878B879C8780914D02FF
:1023000090914E02A0914F02B091500289839A831E
:10231000AB83BC8329813A814B815C8189859A8515
:10232000AB85BC85820F931FA41FB51F8D839E8331
:10233000AF83B887000020914D0230914E0240914A
:102340004F02509150028D819E81AF81B8858217D6
:102350009307A407B50778F72C960FB6F894DEBF5D
:102360000FBECDBFDF91CF9108958091600088614D
:1023700080936000809160008D6080936000FFCF4B
:102380004F925F926F927F92AF92BF92CF92DF9205
:10239000EF92FF920F931F93CF93DF93CDB7DEB7EA
:1023A0006F970FB6F894DEBF0FBECDBF0E949A0F95
:1023B0006091C50C7091C60C882777FD8095982F89
:1023C0000E94394220E030E040E858E30E94264372
:1023D0002B013C016091CC0D7091CD0D882777FDCC
:1023E0008095982F0E94394220E030E040E858E381
:1023F0000E9426436B017C016091E50D7091E60D12
:10240000882777FD8095982F0E94394220E030E0A0
:1024100040E858E30E9426435B018C01242D352DB2
:10242000462D572D642D752D862D972D0E94264300
:102430002B013C012C2D3D2D4E2D5F2D6C2D7D2D26
:102440008E2D9F2D0E9426439B01AC01C301B2013A
:102450000E9433416B017C012A2D3B2D402F512FCF
:102460006A2D7B2D802F912F0E9426439B01AC016A
:10247000C701B6010E9433410E9493437B018C0146
:1024800080914D0290914E02A0914F02B091500266
:1024900040917205509173056091740570917505B6
:1024A000841B950BA60BB70B8B3F9105A105B105BE
:1024B00008F0BEC0A0907605B0907705C090780572
:1024C000D09079052E2D3F2D402F512F6A2D7B2D39
:1024D0008C2D9D2D0E9432415B016C0120E030E08B
:1024E000A9017B2D9D2D0E94974187FDC0C02AE93F
:1024F00039E949E15FE36A2D7B2D8C2D9D2D0E94EA
:10250000224318160CF063C010920B0221E02093B6
:102510000C028091900290919102892B29F4809174
:102520008C1C882309F4B0C080918C1C81114FC091
:1025300080914D0290914E02A0914F02B0915002B5
:10254000409153025091540260915502709156028D
:10255000841B950BA60BB70B843F9140A105B105D9
:1025600008F451C083ED89838CE08A831B821C822E
:102570001D821E8280919002909191029F83809192
:1025800090029091910288878091851C8987809123
:10259000861C8A878091871C8B8782E18C8720E04C
:1025A0004FEF5FEF6CE0CE0101960E94C832809140
:1025B0004D0290914E02A0914F02B0915002809333
:1025C000530290935402A0935502B09356028E2D5D
:1025D0009F2DA02FB12F8093760590937705A09320
:1025E0007805B093790580914D0290914E02A091AB
:1025F0004F02B09150028093720590937305A0939F
:102600007405B09375056F960FB6F894DEBF0FBED4
:10261000CDBFDF91CF911F910F91FF90EF90DF9091
:10262000CF90BF90AF907F906F905F904F90089544
:102630008E2D9F2DA02FB12F809376059093770537
:10264000A0937805B093790580914D0290914E0248
:10265000A0914F02B0915002809372059093730540
:10266000A0937405B0937505570168012BCF2AE933
:1026700039E949E15FEB6A2D7B2D8C2D9D2D0E9460
:10268000974187FFA4CF40CF80914D0290914E0299
:10269000A0914F02B091500280938D1C90938E1C9C
:1026A000A0938F1CB093901C80914D0290914E028C
:1026B000A0914F02B09150022F8F0E94CE490E94EC
:1026C000CA4940904D0250904E0260904F02709067
:1026D00050023AEF430E511C611C711C62EE74E013
:1026E0000E94E947AA2797FDA095BA2F480E591EC8
:1026F0006A1E7B1E4092911C5092921C6092931C09
:102700007092941C2F8D20938C1C61CFCF93DF93FC
:10271000CDB7DEB7AD970FB6F894DEBF0FBECDBF15
:102720000E9491100E947A250E940F0F0E94420F72
:10273000882321F08AE00E942110FCCF0E94EA0C3D
:102740000E94C92F0E94F835809148029091490259
:10275000A0914A02B0914B028A279B270E94CE4942
:102760000E9483241F8E82E390E0A0E0B0E088A363
:1027700099A3AAA3BBA384E29FE19DA38CA3CE014E
:102780004F960E944D33188A84E690E0A0E0B0E0B6
:10279000898B9A8BAB8BBC8B80ED9EE09E8B8D8B57
:1027A000CE0140960E944D33198280E091E0A0E076
:1027B000B0E08A839B83AC83BD838AEE90E49F83E1
:1027C0008E83CE0101960E944D334FEF60E080E092
:1027D0000E947E0E0E94C7330E94ED2D0E940B09BD
:1027E0000E942C300E94AB0C0E94943780910B0207
:1027F000882381F30E94C011EDCFCF92DF92EF9238
:10280000FF926B017C0120E030E0A9010E9497411A
:1028100087FD1AC020E030E0A901C701B6010E947F
:102820002243181674F490E88FE350E040E09C01D6
:10283000652F742F832F922FFF90EF90DF90CF9012
:10284000089590E080E0F1CF90E88FEBEECFE0913B
:102850005902E11103C0F894E09159027FEF54E16D
:1028600044E2F999FECF2AE030E00000215031091E
:10287000E1F792BD81BD70BD5FBBF99AF999FECFBA
:102880002AE030E0000021503109E1F760BD4FBB84
:10289000F99AF999FECF92BD81BDF89A20B56213DD
:1028A000E0CFE11101C078940895209159022111DF
:1028B00003C0F89420915902F999FECF92BD81BDD1
:1028C000F89A211101C0789480B50895EF92FF9293
:1028D0000F931F93CF93DF938C01F89481E0809343
:1028E0005902141615066CF4EB017B01E40EF51E7B
:1028F0006991C8010E9427140F5F1F4FCE15DF0595
:10290000B9F7109259027894DF91CF911F910F91EE
:10291000FF90EF900895EF92FF920F931F93CF9344
:10292000DF93F89421E0209359021416150684F4DD
:10293000EB017B01E40EF51E8C01061B170BC80191
:102940008C0F9D1F0E9455148993CE15DF05B9F792
:10295000109259027894DF91CF911F910F91FF90BF
:10296000EF9008958F929F92AF92BF92CF92DF9295
:10297000EF92FF920F931F93CF93DF938CEFE8EECC
:10298000FDE0DF011D928A95E9F7C0E0D0E08FE31A
:10299000882E99E8C92E96E5D92E92E2E92E94E484
:1029A000F92E05E31AEF2EE83DE34FEF5FEFBA0192
:1029B000AA24AA94BA2CE0E89E2E83EF96E6AFED07
:1029C000BFE38C9EF0018D9EF00D1124E851F24F73
:1029D00010821182128213821482C582D682E7820B
:1029E000F086018712872387348715861686178617
:1029F000108A128A118A148A138A158A168A178AEB
:102A0000108E118E138E128E448F558F668F778F96
:102A1000B1A2A0A292A286A397A3A0A7B1A717A62E
:102A200016A62196C330D10561F6DF91CF911F9193
:102A30000F91FF90EF90DF90CF90BF90AF909F905D
:102A40008F9008952F923F924F925F926F927F9254
:102A50008F929F92AF92BF92CF92DF92EF92FF92AE
:102A60000F931F93CF93DF931C018091720290917B
:102A70007302892B09F456C181E02816310409F448
:102A8000BBC024F084E028163104F4F00E94451005
:102A900000E010E0D0E8CFEB9E01602F712F832F74
:102AA0009C2FDF91CF911F910F91FF90EF90DF90BE
:102AB000CF90BF90AF909F908F907F906F905F90DE
:102AC0004F903F902F9008958091CE0D0E9441111C
:102AD0006B017C018091D00D0E9441114B015C0182
:102AE00023E333E343E35FE3C701B6010E943241CE
:102AF0008B01D82FC92F809174029091750281307B
:102B0000910509F4E2C1029709F4FFC120E030E029
:102B10004AEA53E4FE01602F712F8F2F9C2F0E94F1
:102B2000264323E333E343EB5FE30E949E41462FBA
:102B3000572F682F792FDB01CA01BC01CD019058B6
:102B40002BED3FE049E450E40E94264320E030E0D2
:102B500044E353E40E949E412091570E3091580E59
:102B60004091590E50915A0E0E9433418B01D82F3B
:102B7000C92F2BED3FE049E450ECFE01712F8F2F60
:102B80009E2F0E94974118164CF12BED3FE049EC27
:102B900050E4FE01602F712F8F2F9C2F0E94334134
:102BA0008B01D82FC92F2BED3FE049E450ECFE01FB
:102BB000712F8F2F9E2F0E949741181634F76CCFDC
:102BC0002BED3FE049EC50E4FE01602F712F8F2F79
:102BD0009C2F0E9432418B01D82FC92F2BED3FE053
:102BE00049E450E4FE01602F712F8F2F9C2F0E942B
:102BF000224318162CF350CF86E00E9441116B013E
:102C00007C0185E00E9441114B015C0123E333E329
:102C100043E35FE3C701B6010E9432418B01D82F25
:102C2000C92F80917202909173028130910509F44D
:102C300005C1029709F422C120E030E04AEA53E4DA
:102C4000FE01602F712F8F2F9C2F0E94264323E3BC
:102C500033E343EB5FE30E949E41462F572F682FDB
:102C6000792FDB01CA01BC01CD0190582BED3FE06B
:102C700049E450E40E94264320E030E044E353E47A
:102C80000E949E412091180E3091190E40911A0E0B
:102C900050911B0E0E9433418B01D82FC92F2BED71
:102CA0003FE049E450ECFE01712F8F2F9E2F0E94D0
:102CB000974118164CF12BED3FE049EC50E4FE0132
:102CC000602F712F8F2F9C2F0E9433418B01D82FA3
:102CD000C92F2BED3FE049E450ECFE01712F8F2FFF
:102CE0009E2F0E949741181634F7D6CE2BED3FE069
:102CF00049EC50E4FE01602F712F8F2F9C2F0E9412
:102D000032418B01D82FC92F2BED3FE049E450E42D
:102D1000FE01602F712F8F2F9C2F0E9422431816C7
:102D20002CF3BACE86E00E94411123E333E343E360
:102D30005FE30E9432418B01D82FC92FAB01682F6E
:102D4000792F4A015B0185E00E94411123E333E3BF
:102D500043E35FE30E943241462F572F682F792FBC
:102D60002A013B0120E030E0A901B8018D2F9C2F02
:102D70000E94974187FD06C120E030E0A901C30110
:102D8000B2010E94974187FDF8C0A3019201C501DD
:102D9000B4010E94974187FD4AC082E090E0909381
:102DA0007302809372028091CE0D0E94411123E341
:102DB00033E343E35FE30E9432418B01D82FC92FF5
:102DC000AB01682F792F4A015B018091D00D0E94E1
:102DD000411123E333E343E35FE30E943241462F93
:102DE000572F682F792F2A013B0120E030E0A901FD
:102DF000B8018D2F9C2F0E94974187FDB9C020E01C
:102E000030E0A901C301B2010E94974187FDABC028
:102E1000A3019201C501B4010E94974187FF9CC0A4
:102E200081E090E0909375028093740225CE81E05A
:102E300090E09093730280937202B5CF20E030E06F
:102E4000A901FE01602F712F8F2F9E2F0E949741A5
:102E500087FDF1C02EEA37E441E25FE3FE01602F17
:102E6000712F8F2F9E2F0E94224318160CF0E4CE54
:102E700082E090E0909373028093720223E333E345
:102E800043E35FE3C501B4010E9432416B017C0161
:102E900020E030E0A9017D2D9F2D0E94974187FD04
:102EA00076C02EEA37E441E25FE36C2D7D2D8E2D56
:102EB0009F2D0E94224318160CF075C081E090E00F
:102EC0009093730280937202B7CE20E030E0A901A4
:102ED000FE01602F712F8F2F9E2F0E94974187FD3B
:102EE000B8C02EEA37E441E25FE3FE01602F712FA4
:102EF0008F2F9E2F0E94224318160CF007CE82E0DF
:102F000090E0909375028093740223E333E343E3EC
:102F10005FE3C501B4010E9432416B017C0120E0F6
:102F200030E0A9017D2D9F2D0E94974187FD59C05A
:102F30002EEA37E441E25FE36C2D7D2D8E2D9F2D2F
:102F40000E94224318160CF058C081E090E0909344
:102F5000750280937402DACD82E090E0909375025E
:102F60008093740289CD77FA709477F8709450CF7B
:102F7000B7FAB094B7F8B09442CF77FA709477F874
:102F8000709403CFB7FAB094B7F8B094F5CE2EEAA8
:102F900037E441E25FEB6C2D7D2D8E2D9F2D0E943D
:102FA000974187FD8BCF20E030E04AEA53E46C2D57
:102FB0007D2D8E2D9F2D0E94264323E333E343EB8B
:102FC0005FE30E949E4120E030E044E353E40E942E
:102FD0003341472F382F292F862F942FA32FB22F1D
:102FE00042CE2EEA37E441E25FEB6C2D7D2D8E2D33
:102FF0009F2D0E94974187FDA8CF20E030E04AEA4C
:1030000053E46C2D7D2D8E2D9F2D0E94264323E3AE
:1030100033E343EB5FE30E949E4120E030E044E372
:1030200053E40E943341472F382F292F862F942FA6
:10303000A32FB22F82CD2EEA37E441E25FEBFE01EF
:10304000602F712F8F2F9E2F0E94974187FFF4CD05
:103050000FCF2EEA37E441E25FEBFE01602F712FC4
:103060008F2F9E2F0E94974187FF50CD48CF0F93FF
:103070001F93CF93DF938B01D82FC92F2BED3FE008
:1030800049E450ECFE01712F8F2F9E2F0E94974133
:10309000181694F12BED3FE049EC50E4FE01602F4F
:1030A000712F8F2F9C2F0E9433418B01D82FC92F56
:1030B0002BED3FE049E450ECFE01712F8F2F9E2F46
:1030C0000E949741181634F79E01602F712F832FAD
:1030D0009C2FDF91CF911F910F9108952BED3FE031
:1030E00049EC50E4FE01602F712F8F2F9C2F0E941E
:1030F00032418B01D82FC92F2BED3FE049E450E43A
:10310000FE01602F712F8F2F9C2F0E9422431816D3
:103110002CF3DACFCF92DF92EF92FF92CF93DF932F
:10312000EC016A017B018091CB0C8230B1F18330DC
:10313000D1F122E93AE046E050E4C701B6010E942D
:103140002243181604F121978FE38C9FF0018D9F85
:10315000F00D1124E851F24FC6A2D7A2E0A6F1A6C5
:1031600083E080838FEF9FEFDC01848F958FA68FA4
:10317000B78F20E030E0C901DF91CF91FF90EF9051
:10318000DF90CF90089521E030E0C901DF91CF9129
:10319000FF90EF90DF90CF900895C230D10549F6AF
:1031A0002FEF3FEFE8CFC330D10519F6F9CF2091CB
:1031B000CB0C2230F9F0233019F101972FE3289F2F
:1031C000F001299FF00D1124E851F24F82E0808335
:1031D0004183528363837483128A118A84E690E068
:1031E000A0E0B0E0848F958FA68FB78F20E030E00D
:1031F000C90108958230910501F72FEF3FEFF8CF15
:1032000083309105D1F6F9CF2F923F924F925F9282
:103210006F927F928F929F92AF92BF92CF92DF92E6
:10322000EF92FF920F931F93CF93DF93CDB7DEB74B
:103230002C970FB6F894DEBF0FBECDBF1C014A011C
:103240005B01680179010091CB0C023009F4FCC0EC
:10325000033009F400C120E030E0A901C701B60144
:103260000E949741882309F4C3C0C10101972FE34D
:10327000289FD001299FB00D1124A851B24FBA87C1
:10328000A9879A964D905D906D907C909D97A30133
:103290009201C501B4010E9432416983172F8A83CC
:1032A0009B8320E030E0A9010E94974187FDA3C0E5
:1032B00023EC38EB42E35EE3B981EA81FB816B2FBB
:1032C000712FCF010E94974187FDA4C020E030E01C
:1032D000A901C701B6010E94974187FDCBC0A70194
:1032E0009601B9810A813B806B2F712F802F932D1E
:1032F0000E949E4120E030E04AE754E40E942643C9
:103300006C83272E382E092F20E030E0A901B981E7
:10331000EA81FB816B2F712FCF010E942243181687
:103320000CF0DCC0A985BA859696CD92DD92ED921F
:10333000FC929997A985BA8511964D925D926D92EE
:103340007C921497FD01158616861786108A20E058
:1033500030E048E452E4BC816B2F722D832D902F16
:103360000E949E418B013C01CB01D3016C017D0188
:1033700020E030E0A901B801C3010E94974187FD18
:10338000A7C0B801C3010E940642CB01AA2797FD3E
:10339000A095BA2FE985FA85848F958FA68FB78F70
:1033A000128A118A868A978AA08EB18E81E090E077
:1033B000938F828F83E0808320E030E0C9012C96D8
:1033C0000FB6F894DEBF0FBECDBFDF91CF911F9136
:1033D0000F91FF90EF90DF90CF90BF90AF909F90B4
:1033E0008F907F906F905F904F903F902F900895B7
:1033F00020E030E0E3CF23EC38EB42E35EEBB98131
:10340000EA81FB816B2F712FCF010E942243181696
:103410000CF05CCF023049F1033011F182E0A98554
:10342000BA858C93FD0181829282A382B482128A32
:10343000118A84E690E0A0E0B0E0848F958FA68F9B
:10344000B78F20E030E0BACF8230910509F003CF8A
:103450002FEF3FEFB3CF8330910509F0FCCEF8CFCB
:10346000E3E02E163104D1F6F3CFB2E02B1631048F
:10347000A9F6EECFD701C601B0588D839E83AF83E6
:10348000B8879C01AD01B9810A813B806B2F712FF8
:10349000802F932D0E949E4120E030E04AE754E4C3
:1034A0000E9426436C83272E382E092F20E030E01F
:1034B000A901B981EA81FB816B2F712FCF010E9495
:1034C000224318167CF4CD80DE80EF80F8842ACF6A
:1034D000C701B60190580E94064257CFF7FAF09400
:1034E000F7F8F094E985FA85C6A2D7A2E0A6F1A67E
:1034F00021CF2F923F924F925F926F927F928F9245
:103500009F92AF92BF92CF92DF92EF92FF920F9372
:103510001F93CF93DF93CDB7DEB72C970FB6F894F8
:10352000DEBF0FBECDBF1C014A015B0168017901FE
:103530000091CB0C023009F412C1033009F416C11A
:1035400020E030E0A901C701B6010E94974188231D
:1035500009F4D9C0C10101972FE3289FD001299F09
:10356000B00D1124A851B24FBA87A9879A964D90F1
:103570005D906D907C909D979E966D917C919F97AC
:10358000882777FD8095982F0E9439422BED3FE0E8
:1035900049EC50E40E9426439B01AC01C301B201F7
:1035A0000E9433419B01AC01C501B4010E9432412C
:1035B0006983172F8A839B8320E030E0A9010E9452
:1035C000974187FDA3C023EC38EB42E35EE3B9816A
:1035D000EA81FB816B2F712FCF010E94974187FDFC
:1035E000A4C020E030E0A901C701B6010E949741C4
:1035F00087FDCBC0A7019601B9810A813B806B2F63
:10360000712F802F932D0E949E4120E030E04AE7E9
:1036100054E40E9426436C83272E382E092F20E085
:1036200030E0A901B981EA81FB816B2F712FCF01B5
:103630000E94224318160CF0DCC0A985BA85969624
:10364000CD92DD92ED92FC929997A985BA8511965B
:103650004D925D926D927C921497FD0115861686AF
:103660001786108A20E030E048E452E4BC816B2FDA
:10367000722D832D902F0E949E418B013C01CB0126
:10368000D3016C017D0120E030E0A901B801C30144
:103690000E94974187FDA7C0B801C3010E9406425E
:1036A000CB01AA2797FDA095BA2FE985FA85848FCB
:1036B000958FA68FB78F128A118A868A978AA08ED5
:1036C000B18E81E090E0938F828F83E0808320E051
:1036D00030E0C9012C960FB6F894DEBF0FBECDBF07
:1036E000DF91CF911F910F91FF90EF90DF90CF90DE
:1036F000BF90AF909F908F907F906F905F904F9012
:103700003F902F90089520E030E0E3CF23EC38EB9A
:1037100042E35EEBB981EA81FB816B2F712FCF0110
:103720000E94224318160CF05CCF023049F103309E
:1037300011F182E0A985BA858C93FD018182928284
:10374000A382B482128A118A84E690E0A0E0B0E0FD
:10375000848F958FA68FB78F20E030E0BACF82306C
:10376000910509F0EDCE2FEF3FEFB3CF83309105F8
:1037700009F0E6CEF8CFE3E02E163104D1F6F3CF10
:10378000B2E02B163104A9F6EECFD701C601B0582E
:103790008D839E83AF83B8879C01AD01B9810A8177
:1037A0003B806B2F712F802F932D0E949E4120E034
:1037B00030E04AE754E40E9426436C83272E382EDB
:1037C000092F20E030E0A901B981EA81FB816B2F4C
:1037D000712FCF010E94224318167CF4CD80DE8029
:1037E000EF80F8842ACFC701B60190580E940642A4
:1037F00057CFF7FAF094F7F8F094E985FA85C6A266
:10380000D7A2E0A6F1A621CF2F923F924F925F92CE
:103810006F927F928F929F92AF92BF92CF92DF92E0
:10382000EF92FF920F931F93CF93DF93CDB7DEB745
:103830002B970FB6F894DEBF0FBECDBF9B838A8354
:103840004A015B01680179018091CB0C8983823048
:1038500009F444C1B981B33009F448C18A819B811C
:1038600001972FE3289F1001299F300C112488EE27
:103870009DE0280E391ED1019A964D905D906D9075
:103880007C909D97A3019201C501B4010E94324131
:103890008B018B879A872BED3FE049E450EC712F29
:1038A0000E94974118160CF0D4C02BED3FE049E47C
:1038B00050E4B02FA12FFB85EA8517C02BED3FE028
:1038C00049EC50E4FB85EA85602F712F8F2F9E2FE6
:1038D0000E9432418B018B879A872BED3FE049E4B0
:1038E00050E4B62FA12FF82FE92F6B2F7A2F8F2FAF
:1038F0009E2F0E94224318160CF320E030E0A9010D
:10390000FB85EA85602F712F8F2F9E2F0E94974194
:1039100087FDB8C023EC38EB42E35EE3FB85EA8524
:10392000602F712F8F2F9E2F0E94974187FDB9C066
:1039300020E030E0A901C701B6010E94974187FD50
:10394000DBC0A7019601FB85EA85602F712F8F2FC1
:103950009E2F0E949E4120E030E04AE754E40E94FE
:10396000264369837A838C839D8320E030E0A9011C
:10397000FB85EA85602F712F8F2F9E2F0E94224397
:1039800018160CF0F2C0D1019696CD92DD92ED9210
:10399000FC929997D10111964D925D926D927C9215
:1039A0001497F101158616861786108A20E030E0FC
:1039B00048E452E4B981AA81EC811D816B2F7A2FF2
:1039C0008E2F912F0E949E418B013C01CB01D30190
:1039D0006C017D0120E030E0A901B801C3010E9423
:1039E000974187FDBCC0B801C3010E940642CB01CC
:1039F000AA2797FDA095BA2FF101848F958FA68FE6
:103A0000B78F128A118A868A978AA08EB18E81E03A
:103A100090E0938F828F83E0808320E030E0C901C3
:103A20002B960FB6F894DEBF0FBECDBFDF91CF91BE
:103A30001F910F91FF90EF90DF90CF90BF90AF90CC
:103A40009F908F907F906F905F904F903F902F90BE
:103A500008952BED3FE049EC50E4FB85EA85602FAB
:103A6000712F8F2F9E2F0E9433418B018B879A8756
:103A70002BED3FE049E450EC712F0E94974118165E
:103A800044F73BCF23EC38EB42E35EEBFB85EA8562
:103A9000602F712F8F2F9E2F0E94224318160CF03B
:103AA00047CFB981B23009F454C0F981F33009F439
:103AB00066C082E0D1018C93F10181829282A3825F
:103AC000B482128A118A84E690E0A0E0B0E0848F8C
:103AD000958FA68FB78F20E030E0A1CFAA81BB8160
:103AE000129709F0BBCE2FEF3FEF99CFEA81FB8110
:103AF000339709F0B3CEF7CFD701C601B0588E8304
:103B00009F83A887B9879C01AD01FB85EA85602F5B
:103B1000712F8F2F9E2F0E949E4120E030E04AE7B8
:103B200054E40E94264369837A838C839D8320E03A
:103B300030E0A901FB85EA85602F712F8F2F9E2F22
:103B40000E9422431816ACF4CE80DF80E884F9840A
:103B50001ACFEA81FB81329709F0ABCFC4CFC701FE
:103B6000B60190580E94064242CFF7FAF094F7F857
:103B7000F094F101C6A2D7A2E0A6F1A60BCF8A81EC
:103B80009B81039709F095CFAECF2091CB0C2230CB
:103B900049F1233091F101972FE3289FF001299FEC
:103BA000F00D1124E851F24F2081223001F1233031
:103BB00021F0213011F080E008952FE3289FF001DB
:103BC000299FF00D1124E851F24F20E030E0A901C7
:103BD00066A177A180A591A50E94224318168CF4B6
:103BE00081E0089582309105B1F68FEF08958189C3
:103BF0009289892BA9F383E008958330910559F6C2
:103C0000F4CF82E008956235A9F0633581F066341F
:103C100059F0A098A19820E1829FC00111249093AF
:103C20008900809388000895A09AA198F4CFA09A63
:103C3000A19AF1CFA098A19AEECF6235A9F0633591
:103C400081F0663459F0A298A59820E1829FC001C6
:103C5000112490938B0080938A000895A29AA598CE
:103C6000F4CFA29AA59AF1CFA298A59AEECF0F937E
:103C70001F938A019B0177FD28C0F8010F3F1105B2
:103C800019F010F0EFEFF0E08130910591F074F051
:103C9000049764F477FD33C0452B462B472BE9F09E
:103CA00066E48E2F1F910F910C941D1E1F910F9192
:103CB000089577FD1EC0452B462B472BA1F066E4E7
:103CC0008E2F1F910F910C94031E0027112798012E
:103CD000041B150B260B370BD0CF6EE48E2F1F91D4
:103CE0000F910C941D1E6EE48E2F1F910F910C945A
:103CF000031E62E58E2F1F910F910C94031E62E547
:103D00008E2F1F910F910C941D1E0F931F93CF9315
:103D1000DF93EC0101972FE3289F8001299F100D6D
:103D200011240851124FF8012589213099F12230D0
:103D300001F1222309F45EC0233039F5F801208116
:103D4000223009F44FC0233009F478C02FE3289FB4
:103D5000F001299FF00D1124E851F24F42A553A51F
:103D600064A575A5CE01DF91CF911F910F910C94A1
:103D7000D71820E030E0A901F80166A177A180A55D
:103D800091A50E949741811141C0DF91CF911F9170
:103D90000F91089520E030E0A90166A177A180A5E8
:103DA00091A50E949741882381F383E0F8018083E5
:103DB0004FEF5FEFBA01448F558F668F778F42A523
:103DC00053A564A575A5418352836383748346A17B
:103DD00057A160A571A5CE01DF91CF911F910F91E1
:103DE0000C948A1821893289232B09F4AFCF148AC5
:103DF000138ACBCFF801108240E050E0BA01CE0127
:103E0000DF91CF911F910F910C94371E83E0F80141
:103E100080834FEF5FEFBA01448F558F668F778FA6
:103E200042A553A564A575A541835283638374831A
:103E300046A157A160A571A57058CDCFF801418169
:103E40005281638174818ECF2F923F924F925F9205
:103E50006F927F928F929F92AF92BF92CF92DF929A
:103E6000EF92FF920F931F93CF93DF93CDB7DEB7FF
:103E700066970FB6F894DEBF0FBECDBF8091CB0C16
:103E8000F8EE2F2EFDE03F2EADEFAA2EADE0BA2EBC
:103E9000B2E68B2EB2E09B2E2AE03EE038872F83DD
:103EA000ACE1BEE0BE83AD83EDE1FEE0FA87E987D9
:103EB00044244394512C02E0602E712C7C826B824E
:103EC0003A82298235011401823029F4F2E04F163A
:103ED000510409F430C12B813C81225031093C87C7
:103EE0002B87C2010E942215D30155966D937D93B5
:103EF0008D939C935897D101CD90DD90ED90FC90DF
:103F0000A70196010E9432418B015C012BED3FE03D
:103F100049E450EC712F9B2D0E94974118160CF428
:103F200048C02BED3FE049EC50E4602F712F8A2D03
:103F30009B2D0E9433418B015C012BED3FE049E456
:103F400050EC712F9B2D0E949741181654F723ECCB
:103F500038EB42E35EE3602F712F8A2D9B2D0E9488
:103F6000224318169CF520916002309161022B309B
:103F7000310564F5C2010E942215F301658B768B31
:103F8000878B908F20916002309161022F5F3F4FAD
:103F90003093610220936002AECF2BED3FE049ECFD
:103FA00050E4602F712F8A2D9B2D0E9432418B018E
:103FB0005C012BED3FE049E450E4602F712F8A2D26
:103FC0009B2D0E942243181644F3C1CF1092610228
:103FD00010926002ED81FE8171978081F301678507
:103FE0007089680F711D882777FD8095982F0E9432
:103FF000394220E030E042E553E40E9432410E9421
:104000000642D30150967C936E931F9777FDB8C0FC
:10401000882777FD8095982F0E94394220E030E173
:1040200044E257E40E94224318160CF477C0D301EF
:1040300055968D909D90AD90BC90589720E030E0C3
:1040400040E250ECC501B4010E94974187FF0BC0CC
:1040500020E030E040E250E4C701B6010E94224374
:1040600018160CF43DC220E030E040E250E4C501F7
:10407000B4010E942243181654F420E030E040E2DC
:1040800050ECC701B6010E94974187FD30C2F10193
:1040900080829182A282B382A981BA818C9182307E
:1040A00009F477C108F070C0811132C2E981FA8148
:1040B000448D558D668D778D4115510561057105CE
:1040C00009F4EAC38CF14150510961097109A981D0
:1040D000BA815C964D935D936D937C935F972B8132
:1040E0003C812430310529F566960FB6F894DEBF81
:1040F0000FBECDBFDF91CF911F910F91FF90EF9039
:10410000DF90CF90BF90AF909F908F907F906F90F7
:104110005F904F903F902F900895108240E050E0C4
:10412000BA01C2010E94371E2B813C812430310527
:10413000D9F28091CB0C2B813C812F5F3F4F3C8388
:104140002B83A981BA81DF96BA83A983BFE36B0E63
:10415000711CEFEF4E1A5E0AF4E02F0E311C2F8116
:104160003885215C3F4F38872F83AD81BE81DF9634
:10417000BE83AD83E985FA85FF96FA87E987A4CEE9
:10418000F301108A178653CF833009F405C28430B7
:1041900059F660914D0270914E0280914F029091BC
:1041A00050020E94374220E030E04AE754E40E9487
:1041B0009E41862E7D87A82E9E87E985FA8560819F
:1041C000772767FD7095872F972F0E94394220E04F
:1041D00030E040E05CE30E94264320E030E040EA2B
:1041E00050E40E94264320E030E040E05FE30E947C
:1041F0002643D62EC72E982EB92E8FE32B853C85CD
:10420000829F7001839FF00C1124A3E2BEE0EA0EAE
:10421000FB1E01E010E0FE8AED8A7801788A6F8645
:104220005A8A498A3C8A2B8A792C5B2C482C2A2C66
:10423000ED89FE89FC87EB87B701882777FD80959C
:10424000982F0E9439422BED3FE049EC50E40E9448
:104250002643AD851E85242D3A2F422D512F0E94D5
:10426000264320E030E040E251E40E949E41662E69
:10427000072F182F392E812F0E9489434B015C0193
:10428000ED89FE8935976081772767FD7095872FC7
:10429000972F0E94394220E030E040E05CE30E942A
:1042A000264320E030E040EA50E40E942643A50186
:1042B00094010E942643D6012B2F3C2D472D552DCE
:1042C0000E943341562E772E6C012D893E892F5F37
:1042D0003F4F3E8B2D8B662D702F812F932D0E948B
:1042E0009B414B015C01AB85BC856C91772767FDD9
:1042F0007095872F972F0E94394220E030E040E0F0
:104300005CE30E94264320E030E040EA50E40E9453
:104310002643A50194010E942643252D372D4C2DBF
:104320005D2D0E943341D62EC72E782E592EBFEF19
:10433000EB1AFB0AE5E0EE16F10409F079CF2B88C1
:104340003C886F847888B92E49885A889601982FBE
:10435000432F522F692F7B2DA981BA8111964D933E
:104360005D936D937C93149752961C921E92519775
:104370008FEF9FEFDC01E981FA81848F958FA68F03
:10438000B78FD30155968D909D90AD90BC90589766
:104390001EC0E981FA81448D558D668D778D41155A
:1043A00051056105710509F4E8C08CF041505109CF
:1043B00061097109A981BA815C964D935D936D93F2
:1043C0007C935F97F30185889688A788B08CA501B8
:1043D0009401A981BA8111966D917D918D919C91E5
:1043E00014970E9432418B017C014B015C012BED43
:1043F0003FE049E450EC0E94974118160CF0A2C02F
:104400002BED3FE049E450E4B801C7010E9422438C
:104410001816D4F42BED3FE049EC50E4C501B4018B
:104420000E943241B62FA72F462F572F682F792F82
:104430004A015B012BED3FE049E450E46B2F7A2FFA
:104440000E942243181634F320E030E0A901C50190
:10445000B4010E94974187FDF6C123EC38EB42EB93
:104460005DE3C501B4010E94974187FDF7C1A981B1
:10447000BA8151968D919C915297892B09F442C132
:1044800020E030E0A901C501B4010E94974187FDF9
:1044900026C2C501B40120915C0230915D024091B9
:1044A0005E0250915F020E94224318160CF02AC14E
:1044B000ED81FE8120812F5F208330E080915A02C0
:1044C00090915B028217930708F01FC1A981BA81FE
:1044D0001C9240E050E0BA01C2010E94371E24CE77
:1044E000F301818D928D0196928F818FD0CDD30172
:1044F00059968D919C915A9701975A969C938E93B9
:10450000599755968D909D90AD90BC905897BFCD82
:10451000813009F009CEF3018081882309F437C185
:10452000813009F4CBC1AF81B8854C9150E05195F1
:1045300041955109662757FD6095762FC2010E946B
:10454000371EF2CD2BED3FE049EC50E4C501B4013C
:104550000E943341B62FA72F462F572F682F792F50
:104560004A015B012BED3FE049E450EC6B2F7A2FC1
:104570000E949741181634F767CF81899289892B59
:1045800009F4CBCD8FEF9FEFDC01E981FA81848FB5
:10459000958FA68FB78FC8CDA981BA815C964D91B2
:1045A0005D916D917C915F97411551056105710594
:1045B00009F40CC164F04150510961097109A981E4
:1045C000BA815C964D935D936D937C935F972DECD0
:1045D0003CEC4CE45DE3F301618972898389948941
:1045E0000E942643A981BA8111962D913D914D914A
:1045F0005C9114970E943341162F072FD8014B2F3F
:104600005A2F682F792FE981FA814183528363837E
:104610007483D30155962D913D914D915C9158979E
:10462000F8016F2F7E2F0E9432418B017C014B01DC
:104630005C012BED3FE049E450EC0E9497411816D5
:104640000CF0A9C02BED3FE049E450E4B801C701EC
:104650000E9422431816D4F42BED3FE049EC50E4BD
:10466000C501B4010E943241B62FA72F462F572F04
:10467000682F792F4A015B012BED3FE049E450E4BC
:104680006B2F7A2F0E942243181634F320E030E07B
:10469000A901C501B4010E9497417501640187FD1C
:1046A00019C160915C0270915D0280915E029091EF
:1046B0005F029B01AC010E9433419B01AC01C70129
:1046C000B6010E942243ED81FE8118160CF000C154
:1046D00020812F5F208330E080915A0290915B020D
:1046E0008217930708F020CDA981BA811C925B96AE
:1046F0001C921E925A9740E050E0BA01C2010E94FB
:10470000371E12CDED81FE811082A981BA811596E6
:104710002D913D914D915C911897C501B4010E9476
:1047200026436B017C01E981FA8125853685478521
:10473000508961857285838594850E9426439B01FB
:10474000AC01C701B6010E9433410E940642AB0191
:10475000BC01C2010E94371E2DEC3CEC4CE45DE331
:10476000C501B4010E9426439B01AC01A981BA8115
:104770001D966D917D918D919C9150970E94334132
:10478000E981FA81658776878787908BCDCCA9816F
:10479000BA811C92C9CC2BED3FE049EC50E4C50135
:1047A000B4010E943341B62FA72F462F572F682FF1
:1047B000792F4A015B012BED3FE049E450EC6B2F70
:1047C0007A2F0E949741181634F760CFE1E0F0E0AD
:1047D0005296FC93EE9351971D961D921D921D9239
:1047E0001C925097F30114861386F2E0FC935A96BC
:1047F0008D919C915B97892B59F0FD018689978952
:10480000A08DB18D81839283A383B483138E128E86
:10481000EFEFFFEFD3011C96FC93EE931B97A9815A
:10482000BA8153968D919C915497892B09F4AACE05
:1048300084E190E0A0E0B0E0E981FA81848F958F77
:10484000A68FB78F71CC23EC38EB42EB5DEBC50143
:10485000B4010E94224318160CF009CE21E030E08A
:10486000E981FA81328B218B83899489892B09F024
:1048700054CC8FEF9FEFDC01E981FA81848F958F13
:10488000A68FB78FA981BA8151968D919C9152972D
:10489000892B09F437CFF4CDD3011B968C911B974C
:1048A0008C93C2010E94851E8FEF9FEFDC01E9818E
:1048B000FA81848F958FA68FB78F36CCEF81F885DC
:1048C000408150E060E070E0C2010E94371E2CCCB5
:1048D00010821BCFF7FAF094F7F8F094E2CEC501FE
:1048E000B4019058D8CD1092A3021092E80D109206
:1048F000270E1092660E6EE480E00E94031E6EE4A6
:1049000080E00C941D1E7F928F929F92AF92BF9277
:10491000CF92DF92EF92FF920F931F93CF93DF938B
:1049200000D000D0CDB7DEB780E190E00E945514F2
:10493000813A09F444C088E1C82E8EE0D82EE12CDB
:10494000F12C01E010E0C8010E942215DC01CB012E
:10495000B05889839A83AB83BC83F60180839183AB
:10496000A283B38344E050E0BE016F5F7F4FC70175
:104970000E9466140F5F1F4FFFE3CF0ED11C84E02F
:10498000E80EF11C04301105F1F661EA80E190E0D7
:104990000E94271421E030E0C9010F900F900F9082
:1049A0000F90DF91CF911F910F91FF90EF90DF90CB
:1049B000CF90BF90AF909F908F907F90089598E197
:1049C000A92E9EE0B92E812C912C00E010E02FE35F
:1049D000722E709EB001719E700D1124685E714F31
:1049E00044E050E0C4010E948B14F501C080D180E6
:1049F000E280F38020E030E040E450E4C701B601FB
:104A00000E94974187FF0AC020E030E040E450EC6C
:104A1000C701B6010E94224318162CF0F50110823E
:104A20001182128213820F5F1F4FF4E08F0E911CD0
:104A30008FE3A80EB11C0430110559F620E030E0D8
:104A4000ABCF1092180E1092190E10921A0E1092EF
:104A50001B0E1092570E1092580E1092590E109273
:104A60005A0E1092960E1092970E1092980E109267
:104A7000990E60EA80E190E00E9427140E9483244E
:104A800080E090E008956091CB0CE8EEFDE081E0DD
:104A900090E020E030E0623091F06330A1F040819E
:104AA000442321F041895289452BA1F0833091059F
:104AB00069F02F5F3F4F0196FF96623071F721300A
:104AC000310569F7F6CF2230310549F720E030E0B3
:104AD000C901089521E030E0FBCF10927B021092D3
:104AE0007A02109279021092780210927702109254
:104AF000760208950F931F93CF93DF9381E090E0A8
:104B00009093CD008093CC001092C80088E98093E8
:104B1000C90080E890E00E9441488093250F90935F
:104B2000260F80E890E00E9441488C019093280F66
:104B30008093270FC0E0D0E004C00091270F1091B0
:104B4000280F84E090E00E944148F801EC0FFD1F1F
:104B5000808391832296C038D10579F71092240F73
:104B6000DF91CF911F910F9108951F920F920FB671
:104B70000F9211240BB60F921BBE2F933F934F93AE
:104B80008F939F93EF93FF934091CE008091760295
:104B9000909177022091780230917902820F931FD1
:104BA0008F73907897FD1BC0FC01EC51F14F40834F
:104BB0008091780290917902019690937902809386
:104BC0007802FF91EF919F918F914F913F912F919B
:104BD0000F900BBE0F900FBE0F901F90189501976E
:104BE000806C9F6F0196E0CF161617066CF4FC01DF
:104BF000680F791F91918091C80085FFFCCF909339
:104C0000CE00E617F707B1F70895CF93DF93CDB73E
:104C1000DEB780E090E0DF91CF910895CF93DF93EE
:104C2000EB01FC01308130938906362F3A5F3093D7
:104C30008A0650938B0640938C0620938D062EE8AF
:104C400036E0AB01BC01C9010E94C94AC757D94F20
:104C500081E18D8389E896E0DF91CF910895CF932C
:104C6000DF93EB0120E120938907262F2D5F20930E
:104C70008A072BE837E0AB01BC01C9010E94C94A91
:104C8000C757D84F81E18A8389E897E0DF91CF91B8
:104C900008954F925F926F927F928F929F92AF9200
:104CA000BF92CF92DF92EF92FF920F931F93CF9319
:104CB000DF933C01680F791FFB0131978081D3019D
:104CC0000C9181110DC0023439F008F079C0023323
:104CD00038F0063308F07AC0F3018281833030F473
:104CE00010E0F801F097EC34F105E8F08FEF8093D5
:104CF000890883E080938A0881E180938B08C9E862
:104D0000D8E0CE01DF91CF911F910F91FF90EF90EE
:104D1000DF90CF90BF90AF909F908F907F906F90DB
:104D20005F904F900895E057FF4F0C943B48F3017C
:104D3000C380D480E580F68022E93AE046E050E482
:104D4000C701B6010E94224318160CF4E6C622E9F8
:104D50003AE046E050ECC701B6010E94974187FF58
:104D600008C0A2E9CA2EAAE0DA2EA6E0EA2EA0EC3C
:104D7000FA2ED3011296EC91BFE3EB9FF0011124C0
:104D8000E851F24F8589823009F4F8C6C6A2D7A24D
:104D9000E0A6F1A660E070E080E090E0DF91CF91C6
:104DA0001F910F91FF90EF90DF90CF90BF90AF9049
:104DB0009F908F907F906F905F904F900C942F26D4
:104DC000802F8454833008F08BCF86CF0E3309F0C8
:104DD00087CF82CF81E28093890889E080938A0817
:104DE0008091E20D9091E30D90938B088091E20DFC
:104DF0009091E30D80938C08809148029091490234
:104E0000A0914A02B0914B0280938D0890938E0836
:104E1000A0938F08B093900810929108C9E8D8E049
:104E200070CF29E838E0F301418150E0B301C901B6
:104E30000E94C94A81E28093890880918A08882368
:104E400009F489C1E9E8F8E090E08E0F9F1F31E294
:104E50002091C80025FFFCCF3093CE003196E81793
:104E6000F90709F478C13081F3CF8091240F8823AA
:104E700099F1E091250FF091260F6091270F709125
:104E8000280F42E050E020E030E0CF01EA01C757B0
:104E9000D74FDE01129711811C9332968E0101507B
:104EA0001109DC018C91D8018C93DB018D919D91CE
:104EB000BD01DC01CD90DD90ED90FC90C882D982DF
:104EC000EA82FB822F5F3F4F8091240F4A5F5F4F42
:104ED00090E028173907CCF26091240FB6E06B9F61
:104EE000B001112489E898E059CF1092240F52CFD5
:104EF0000E94B51106CF64E070E088E492E04ECFE6
:104F0000B3016E5F7F4F44E050E082E194E00E9485
:104F10006614F30182819381A481B5818093480254
:104F200090934902A0934A02B0934B0233CFD3012E
:104F300012968C911297982F9B50903158F08FEFCA
:104F40008093890883E080938A0881E180938B08AD
:104F500012968C910E94A90281E00E94A1028FEF1B
:104F600080934701809147018093890861E070E058
:104F700089E898E013CF0DEF1DE02301F5E04F0E17
:104F8000511CC0E0D0E042E3842E912CA12CB12C26
:104F9000D30112968C9190E00C2E02C095958795C6
:104FA0000A94E2F780FD75C52196015C1F4FB6E0BB
:104FB0004B0E511CC430D10559F7ECCE80914D02F7
:104FC00090914E02A0914F02B091500280938908B7
:104FD00090938A08A0938B08B0938C08C2E1DEE01E
:104FE0002DE9822E28E0922E34E0A32EB12C00E091
:104FF00010E0C880D980EA80FB800F5F1F4F99E8DE
:10500000692E98E0792E6A0C7B1C6C817D81882743
:1050100077FD8095982F0E9439422BED3FE049ECB7
:1050200050E40E9426439B01AC01C701B6010E94D7
:105030003341F3016083718382839383C8010E94AB
:10504000C51DD4018D934D01EF96B4E0AB0EB11C9C
:105050000430110571F668E170E089E898E09ECEB1
:10506000F301418150E044505109B3016D5F7F4F1E
:10507000928180E042960E9466148CCE60E070E0DF
:1050800080E090E00E942F26EC01D30112968C91D3
:105090000E94370E36CE8091E20D9091E30D9093F1
:1050A00089088091E20D9091E30D80938A0862E077
:1050B00070E089E898E072CE80911A14811116CEC2
:1050C0008AE080931A1466CED301189680E090E0AF
:1050D0002FE3FD0135973081F3014281FC01249FCC
:1050E000E00DF11D1124E851F24F35AB3D91F30174
:1050F0004281FC01249FE00DF11D1124E851F24F83
:1051000032AF01968530910521F744CEE8EEFDE0FF
:1051100080E090E044E0D30112962C9130E0082E1C
:1051200002C0359527950A94E2F720FD4083019649
:10513000FF968430910579F72DCE413009F42CC5C6
:1051400044E050E068E472E0C30102960E94BC4A69
:10515000009709F43FCEC0E0D0E0D3CDD301129642
:105160009C91129780E0909352028093510280911B
:1051700051029091520213962C91822B90935202DD
:105180008093510240E06FEF80E00E947E0E02CEDD
:1051900010925202109251024FEF60E080E00E94A4
:1051A0007E0EF8CDF3014781668185810E947E0ED7
:1051B000F1CD83010C5F1F4FC1E0D0E0D301129607
:1051C0008C9190E09E012150310902C09595879500
:1051D0002A95E2F780FD91C421960E5F1F4FC430DF
:1051E000D10561F7D7CD0E9455116093890870935E
:1051F0008A0880938B0890938C0864E070E089E8BB
:1052000098E0CCCDD30112969C91129780E0139632
:105210002C91822B0E942D0DBDCD0E949A0F8111E1
:10522000A9C48091C50C9091C60C90938A08809374
:1052300089088091CC0D9091CD0D90938C0880932E
:105240008B088091E50D9091E60D90938E088093E8
:105250008D0866E070E089E898E0A0CD8091CB0CE5
:105260008093890861E070E089E898E097CDD301E8
:1052700012968C9190E00E94C73F8CCD0E944325EE
:105280008093890861E070E089E898E087CD08EEB6
:105290001DE0E12CF12CCC24C394D12CC0E0D0E053
:1052A000C130D10509F41CC4C230D10509F4CEC304
:1052B000C330D10509F0CFC310929508109296081B
:1052C000109297081092980860E170E089E898E0E1
:1052D00065CD2301E2E04E0E511CCEE0DEE0612CF4
:1052E000712CFFEF6F1A7F0AC880D980EA80FB809B
:1052F0002C813D814E815F81D2016D917D918D9197
:105300009D912D010E9433414B015C016885798597
:10531000882777FD8095982F0E94394220E030E061
:1053200044EB53E40E9426439B01AC01C501B40148
:105330000E943341AB01BC0197018601C3010E9469
:10534000791AEF96B3E06B16710459F623CDF30189
:10535000928180E02381822B009709F0E7C31092AD
:10536000A61C1092A51C1092A81C1092A71C1092AB
:105370009102109290024FEF60E080E00E947E0E5A
:1053800009CDF301828190E00E94633F03CD8091BB
:10539000C80C9091C90CA091CA0C80938908909375
:1053A0008A08A0938B0863E070E089E898E0F6CC67
:1053B000D30113969C9113971296EC9112978FE359
:1053C0008E9FF0011124E851F24F958B1296CC91EB
:1053D000D0E08C9FF0018D9FF00D1124E851F24F29
:1053E000C6A0D7A0E0A4F1A420E030E0A901C70145
:1053F000B6010E94974187FDCAC38FE38C9FF001DD
:105400008D9FF00D1124E851F24FC6A2D7A2E0A65D
:10541000F1A6F301828190E001960E94851EBACC2C
:10542000D3011296EC91BFE3EB9FF0011124E851F8
:10543000F24F85898093890861E070E089E898E0FF
:10544000ADCCD3011296EC91BFE3EB9FF001112498
:10545000E851F24F86A197A1A0A5B1A58093890834
:1054600090938A08A0938B08B0938C0864E070E056
:1054700089E898E093CCE2E06E0E711CFEE0EF2E1E
:10548000FEE0FF2EC0E0D0E02196D7010D911D91E6
:105490002D913C91F30141915191619171913F01A5
:1054A000CE010E940419FFE3EF0EF11CC330D105B9
:1054B00059F770CC22E0620E711CEEE0EE2EEEE0A9
:1054C000FE2EC0E0D0E02196D7010D911D912D91C7
:1054D0003C91F30141915191619171913F01CE0154
:1054E0000E94791AFFE3EF0EF11CC330D10559F782
:1054F00051CC22E0620E711C7EE0E72E7EE0F72E9A
:10550000C0E0D0E02196D7010D911D912D913C91E5
:10551000F30141915191619171913F01CE010E943E
:10552000041CFFE3EF0EF11CC330D10559F732CC58
:10553000F301428153816481758181E090E00E9492
:10554000D718D30116964D915D916D917C91199765
:1055500082E090E00E94D718F3014285538564856C
:10556000758583E090E00E94D71814CC8091120ECC
:105570009091130EA091140EB091150E809389088E
:1055800090938A08A0938B08B0938C088091510E59
:105590009091520EA091530EB091540E80938D08AD
:1055A00090938E08A0938F08B09390088091900EEE
:1055B0009091910EA091920EB091930E80939108CC
:1055C00090939208A0939308B093940860E170E0E0
:1055D00089E898E0E3CB02E11EE0C0E0D0E0D8012A
:1055E000CD90DD90ED90FC90139769E8A62E68E0D1
:1055F000B62EAC0EBD1E14966D917C911597882722
:1056000077FD8095982F0E9439422BED3FE049ECC1
:1056100050E40E9426439B01AC01C701B6010E94E1
:105620003341F5016083718382839383015C1F4F53
:105630002496C031D10599F647CE80914D029091C4
:105640004E02A0914F02B09150028093890890932E
:105650008A08A0938B08B0938C088091120E9091C9
:10566000130EA091140EB091150E80938D08909397
:105670008E08A0938F08B09390088091510E90915E
:10568000520EA091530EB091540E809391089093B6
:105690009208A0939308B09394088091900E9091F3
:1056A000910EA091920EB091930E809395089093D5
:1056B0009608A0939708B093980864E170E089E891
:1056C00098E06CCB80914D0290914E02A0914F02D8
:1056D000B09150028093890890938A08A0938B0818
:1056E000B0938C0802E11EE0C4E0D0E0D801CD9078
:1056F000DD90ED90FC90139759E8A52E58E0B52E5B
:10570000AC0EBD1E14966D917C911597882777FD80
:105710008095982F0E9439422BED3FE049EC50E4F0
:105720000E9426439B01AC01C701B6010E94334190
:10573000F5016083718382839383015C1F4F2496FC
:10574000C031D10599F664E170E089E898E026CB94
:10575000D3011296EC918E2F90E0BFE3EB9FF00106
:105760001124E851F24F06A117A120A531A5F3019C
:10577000438154816581768101960E9404190ACB88
:10578000D3011296EC918E2F90E0BFE3EB9FF001D6
:105790001124E851F24F06A117A120A531A5F3016C
:1057A000438154816581768101960E94791AF2CAFB
:1057B000D3011296EC918E2F90E0BFE3EB9FF001A6
:1057C0001124E851F24F06A117A120A531A5F3013C
:1057D000438154816581768101960E94041CDACA56
:1057E000D30113964D915D916D917C911697129610
:1057F0008C9190E001960E94D718CCCAD3011296E2
:10580000EC91BFE3EB9FF0011124E851F24F82A528
:1058100093A5A4A5B5A58093890890938A08A09321
:105820008B08B0938C0864E070E089E898E0B6CA11
:10583000D3011296EC91BFE3EB9FF0011124E851E4
:10584000F24FC2A4D3A4E4A4F5A466A577A5882743
:1058500077FD8095982F0E9439422BED3FE049EC6F
:1058600050E40E9426439B01AC01C701B6010E948F
:1058700033416093890870938A0880938B089093D2
:105880008C0864E070E089E898E088CA40914D0295
:1058900050914E0260914F027091500240938908DE
:1058A00050938A0860938B0870938C08D3011296EA
:1058B000EC91BFE3EB9FF0011124E851F24F82A578
:1058C00093A5A4A5B5A580938D0890938E08A09369
:1058D0008F08B093900868E070E089E898E05ECAAD
:1058E000F301828190E001960E94C51D8093890892
:1058F00061E070E089E898E051CA82E99AE0A6E0A8
:10590000B0E48093890890938A08A0938B08B093A1
:105910008C0864E070E089E898E040CAD3011296F0
:105920008C910E9441116093890870938A0880933A
:105930008B0890938C0864E070E089E898E02ECAA8
:1059400080915C0290915D02A0915E02B0915F0235
:105950008093890890938A08A0938B08B0938C0851
:1059600064E070E089E898E019CAF30182819381CC
:10597000A481B58180935C0290935D02A0935E0246
:10598000B0935F0207CA80915A0290915B0222E3B2
:10599000289FB001299F700D112480E090E00E94A3
:1059A000374220E030E04AE754E40E949E41609391
:1059B000890870938A0880938B0890938C0864E020
:1059C00070E089E898E0EAC9D30112966D917D9163
:1059D0008D919C91159720E030E04AE754E40E94B5
:1059E000264320E030E048E452E40E949E410E94B9
:1059F0000B4270935B0260935A02CCC90E947324DD
:105A0000C9C98CE48093890861E070E089E898E076
:105A1000C5C981E00E944810BDC9F301828180930D
:105A20004702B8C91092170E1092160E1092560E19
:105A30001092550E1092950E1092940EABC91092C2
:105A4000890861E070E089E898E0A8C98091CB0CF2
:105A5000833009F44AC0D8018C91823009F470C0B7
:105A600060E070E0CB01F701E757F74F6083718387
:105A700082839383B4E0CB16D10409F425CC21961C
:105A8000BFEFCB1ADB0AE4E0EE0EF11C015C1F4F06
:105A900007CCF20132978081F8018083F2013197BF
:105AA0008081D8011B968C931B971C961C92F20147
:105AB000C080D180E280F3802196CE010E94851EB5
:105AC000F7FC4FC0C701B601A50194010E941F4811
:105AD000D80117962D933D934D935C931A9765CA01
