:100000000C945E010C947D010C947D010C947D0197
:100010000C947D010C947D010C947D010C947D0168
:100020000C947D010C940A0A0C947D010C947D01C2
:100030000C947D010C94CB030C947D010C947D01F8
:100040000C947D010C947D010C947D010C947D0138
:100050000C947D010C947D010C947D010C947D0128
:100060000C947D010C947D010C947D010C947D0118
:100070000C947D010C947D010C947D010C947D0108
:100080000C947D010C947D010C947D010C947D01F8
:100090000C94ED1F0C947D010C947D010C947D015A
:1000A0000C947D010C947D010C94D7010C94E80113
:1000B0000C947D010C947D010C947D010C94690CD1
:1000C0000C947D010C947D010C947D010C947D01B8
:1000D0000C947D010C947D010C947D010C947D01A8
:1000E0000C947D010C947D010C947D010C947D0198
:1000F0000C9410030C947D010C947D010C94E4028B
:100100000C947D010C947D010C947D010C947D0177
:100110000C947D010C947D010C947D010C947D0167
:10012000DF20B620672424243324A323BB23DE232B
:10013000012438225A228D22C42207234F236B2305
:100140008723FD200F21292155217D2188219721F9
:10015000A920A721BA21CC21EB21092210221622A5
:100160001E2227228E24A9209324BB24A5257C258A
:10017000932511251E252D253925C725CE25F725A3
:100180001B261E2623263E26602671268F269D26A8
:10019000A826C326D520D026EF267F2405A84CCD3F
:1001A000B2D44EB93836A9020C50B9918688083CB1
:1001B000A6AAAA2ABE000000803F6E616E00696E8A
:1001C000660000407A10F35A00A0724E1809001021
:1001D000A5D4E80000E87648170000E40B540200BC
:1001E00000CA9A3B000000E1F505000080969800E7
:1001F000000040420F000000A08601000000102710
:1002000000000000E803000000006400000000009F
:100210000A00000000000100000000002C76D888D1
:10022000DC674F0823DFC1DFAE59E1B1B796E5E3E4
:10023000E453C63AE651997696E8E6C28426EB89FD
:100240008C9B62ED407C6FFCEFBC9C9F40F2BAA59A
:100250006FA5F490055A2AF75C936B6CF9676DC132
:100260001BFCE0E40D47FEF520E6B500D0ED902E36
:100270000300943577050080841E080000204E0A94
:10028000000000C80C333333330F986E12831141D2
:10029000EF8D2114893BE65516CFFEE6DB18D1849D
:1002A0004B381BF77C1D901DA4BBE42420328472C4
:1002B0005E228100C9F124ECA1E53D2711241FBE77
:1002C000CFEFD1E4DEBFCDBF12E0A0E0B2E0ECEBB7
:1002D000F0E700E00BBF02C007900D92AA37B1070C
:1002E000D9F713E1AAE7B2E001C01D92A136B10728
:1002F000E1F70E947A0F0C945C380C94000014BE55
:1003000088E10FB6F89480936000109260000FBEF1
:1003100078940C948E0190E00C94A30110922E0816
:1003200080E29EE49093A9008093A800E1EAF0E0C7
:1003300088E08083808182608083E2E7F0E08081D2
:100340008260808308952091A4003091A500280F39
:10035000391F3093AB002093AA002091AA0030915E
:10036000AB008091A8009091A9008217930770F4C8
:100370008091AA009091AB002091A8003091A90033
:10038000821B930B9093AB008093AA0010927A0289
:100390008091720084608093720080917A02882339
:1003A000E1F3809172008B7F8093720008951F9219
:1003B0000F920FB60F9211248F9380912E088F5FAA
:1003C00080932E088F910F900FBE0F901F9018955D
:1003D0001F920F920FB60F9211248F9381E080939A
:1003E0007A028F910F900FBE0F901F9018950F9368
:1003F0001F93CF93DF9310924E0183E080934201CD
:1004000086E080934201809141018F718630D9F757
:10041000C0E0D0E000E010E081E00E948B0120917C
:10042000460122952695237030E00C2E02C0220F43
:10043000331F0A94E2F7022B132B2296C031D10509
:1004400059F783E08093420188E0809342018091D4
:1004500041018F718830D9F78FEF80934F018091E0
:100460004E01886080934E0180914E01806480939C
:100470004E01C801DF91CF911F910F910895809196
:100480008402882361F083E08093420186E18093B7
:100490004201809141018F718631D9F7089583E03F
:1004A0008093420188E080934201809141018F71E5
:1004B0008830D9F70895809139018160809339019E
:1004C00083E08093420188E0809342018091410162
:1004D0008F718830D9F780916E01806280936E01B0
:1004E00080916E018F7E80936E018FEF80934F011C
:1004F00080914E01886080934E0180914E0180640E
:1005000080934E0180914C01806880934C010E9441
:10051000F70180936D0110927E021092840281E0B7
:1005200080930A020895EEE7F2E09081986090834C
:10053000809384020895EEE7F2E0908191609083C9
:1005400080937F020895EEE7F2E02081226020830D
:1005500090938102809380020895EEE7F2E020817B
:100560002460208390938302809382020895809177
:100570000A02813011F081E0089590917E0291117C
:10058000FBCF80E0089523E02093420129E12093EE
:100590004201209141012F712931D9F7262F2E5F79
:1005A00020938001662349F0FC01A1E8B1E091911C
:1005B0009D939E2F981B9617D0F382E08093420163
:1005C00083E080930A0208951F920F920FB60F9254
:1005D00011248F93809141018F71893131F08F9176
:1005E0000F900FBE0F901F90189583E080934201EB
:1005F00089E080934201809141018F718930D9F760
:1006000084E080930A0280914201829586958770EA
:1006100080937D028F910F900FBE0F901F901895C1
:100620001F920F920FB60F9211248F9389E080933F
:1006300042018091470180937C0280917B018093ED
:100640007B0285E080930A028F910F900FBE0F907E
:100650001F901895CF93DF9300D000D01F92CDB795
:10066000DEB780910A02843009F481C0853009F434
:100670003FC0813041F00F900F900F900F900F907E
:10068000DF91CF91089590917E029923A1F383E0A9
:100690008093420188E080934201809141018F71F3
:1006A0008830D9F790FF09C020917F022F71809187
:1006B0004801807E822B8093480191FF08C0809181
:1006C000800280936201809181028093630192FF96
:1006D00008C08091820280936001809183028093A0
:1006E000610194FD53C00E943F0210927E02C3CF6D
:1006F00080917B0280E090E040E0FC01E058FE4FFA
:100700002081FC01EB57FD4F20834F5F20917B023E
:10071000842F90E030E0281739077CF785E892E0D5
:100720009A83898380917B0282508B83E0917B0244
:10073000F0E0EB57FD4F80818C8380917C028A55DD
:100740008D83CE0101960E948605809141018F71B3
:100750008930D9F781E080930A020E943F020F900E
:100760000F900F900F900F90DF91CF91089580918F
:100770007D020E947108809141018F718930D9F703
:1007800081E080930A020E943F02E9CF0E94F701B4
:100790000E948E0CA8CF1F920F920FB60F921124B9
:1007A0008F9381E0809305038F910F900FBE0F9080
:1007B0001F90189510923308109234081092300848
:1007C00010922F08109236081092350810923808AF
:1007D0001092370810923A08109239080E94AA071E
:1007E0000E9462050E94E0040C943004909330084B
:1007F00080932F080C94AD029093320880933108B7
:100800000C94A302E82FF0E0EE0FFF1FEB5CF74F14
:100810007183608308950E94BA050E948D080C942C
:100820004E04E0910603F0910703309731F416C0AF
:100830000190F081E02D309789F0228133812817D3
:100840003907B1F7DC01A158BF4F2C912787DC0194
:10085000AE57BF4F2C91208B22E024830C940C05C3
:1008600010920703109206030895FC011482178664
:10087000138212828091060390910703009739F04A
:1008800091838083F0930703E09306030895118218
:100890001082F0930703E093060308950F931F93CC
:1008A000CF93DF93E0910603F0910703309709F4AB
:1008B0007BC0EF018C81811155C08C850E94E704BB
:1008C0008C01009709F46DC09B838A8381E08C833F
:1008D000F801ED57FF4F81E194E091838083F801A7
:1008E000EE57FF4F898582FB882780F980839985A1
:1008F000F801838590FB80F98387998593FB99277D
:1009000090F990FB82F987708387809133088F5F1D
:1009100080933308848780912F08909130089687C0
:1009200085878D819E81908B878798859F7081892F
:10093000807F892B818B9F819295907F8F70892BEF
:10094000818B98012E5E3F4F4C856A857B8550E0F8
:10095000C9010E94AB37C801DF91CF911F910F9160
:100960000C94C507823039F00990D881C02D2097AA
:1009700009F0A0CF19C0EC17FD0711F41AC0FC0153
:10098000808191818C179D07D1F78881998191830E
:100990008083ED85FE85CE01DF91CF911F910F9170
:1009A000099482E08C838F87DF91CF911F910F9103
:1009B0000895888199819093070380930603E9CF76
:1009C0001092080310928D031092120408959091D2
:1009D0000803992361F090918D039923B9F09091C8
:1009E00012049923B1F020E030E0C901089540E0FD
:1009F00050E095E8949FF001959FF00D1124E85F79
:100A0000FC4F805F81839F01C901089541E050E060
:100A1000F0CF42E050E0EDCFFC011082089595E860
:100A2000899F90011124285F3C4FC9010895FC0162
:100A3000DC01A158BF4F1C92DC01A058BF4F1D9292
:100A40001C92DC01AE57BF4F1C92DC01AD57BF4F6B
:100A50001D921C921386A3E3B8E08C918F5F8C9358
:100A6000848780912F089091300896878587108A17
:100A70001786118A08950C940C05EBE9F4E040E028
:100A8000208131812115310529F02150310931832F
:100A9000208341E0359624E0ED3CF20789F74111CF
:100AA00001C008950C946E09DC011596ED91FC913E
:100AB00016972081222311F080E008950E944D08AE
:100AC00081E00895EBE9F4E011821082359684E02C
:100AD000ED3CF807C9F71092CA0484E190E0A0E069
:100AE000B0E08093D1049093D204A093D304B09348
:100AF000D4041092D5048DE395E09093D7048093AD
:100B0000D60464E575E080E00C940204CF93DF9393
:100B1000EC01E881F9818181883819F0DF91CF916A
:100B200008958081813611F08134C1F78A81803146
:100B3000A8F380510E94E704009781F320E2FC01B2
:100B400020832B81E158FF4F20832C81FC01E0584A
:100B5000FF4F20839C012E5F3F4F4A81688179813E
:100B600050E0C9010E94AB378091CA048F5F809327
:100B7000CA04D4CF2F923F925F926F927F928F924E
:100B80009F92AF92BF92CF92DF92EF92FF920F931C
:100B90001F93CF93DF93CDB7DEB72A970FB6F894A4
:100BA000DEBF0FBECDBF8091CA048823F1F0512C67
:100BB00054E2752E6BE3C62E65E0D62E72E2672EE8
:100BC000E7E9AE2EB12C852D0E940F058C01DC01CA
:100BD0008C91823211F1843209F421C1803209F4FE
:100BE000B3C05394B3E05B12EECF2A960FB6F894DD
:100BF000DEBF0FBECDBFDF91CF911F910F91FF9050
:100C0000EF90DF90CF90BF90AF909F908F907F90AC
:100C10006F905F903F902F90089510929704D801A5
:100C200051968C91519782958F70282F30E0243007
:100C300031050CF0FDC0F901EE0FFF1FEB5CF74F23
:100C40000190F081E02D309709F4F2C01D962D91AE
:100C50003C911E973A83298351969C9151979F709E
:100C60009B838C83A8014E5E5F4F5F834E831196FA
:100C70008C91119780518887A158BF4F8C9189879B
:100C8000D801A058BF4F8C918A87D8011B968C91B0
:100C9000982F937082FDE8C080E0892BD8011F96C1
:100CA0004D915C9150974F3F5F4F09F4E8C090E041
:100CB000892BD80119964D915C911A972417350705
:100CC00009F4DBC090E0892BD80115962D913C9159
:100CD00016972F3F3F4F09F4CEC090E0892B8D83AC
:100CE000CE0101960995F801278130852F3F3F4FAE
:100CF00009F4A6C060E0F801938590FFB0C0882396
:100D000009F4ADC083E00E94E7047C010097C9F0BC
:100D10000E941705F701ED57FF4FD182C082D8011D
:100D20001D962D913C911E97F701308B2787128AD3
:100D300080919704848B1C968C91838BC7010E94B1
:100D4000C507D8017C924DCFF80170822785308984
:100D50002F3F3F4F09F48AC020902F083090300871
:100D6000F801E584F6842E143F0409F43ACF838514
:100D700081FD37CF4801FDE08F0E911CE8E9F4E0DA
:100D800020E030E08FEF0FC0D4016D917C91408165
:100D900051816417750709F474C02F5F3F4F359672
:100DA0002A30310559F043815481452B69F7822F50
:100DB0002F5F3F4F35962A303105A9F78F3F09F451
:100DC00010CF992787FD9095FC01EE0FFF1FEE0FC6
:100DD000FF1FE80FF91FE856FB4FF182E082D801B0
:100DE0001C968C918283B482A3828BEC94E00E9447
:100DF0006E0920902F0830903008F8018781908587
:100E0000019609F453C0F8018785908982159305EE
:100E100019F0019609F0E5CED8016C92E2CEC80136
:100E20000E940C058091CA0481508093CA04D9CED7
:100E300080E0F801278130852F3F3F4F09F05ACFDE
:100E400061E040912F0850913008D8011F962D91F4
:100E50003C9150974217530709F04CCF4CCF61118A
:100E600051CFD8017C92BDCE80E217CF1B968C91DA
:100E700080FF72CFB6CE90E131CF98E024CF94E0DE
:100E800017CFF8018485F901EE0FFF1FEE0FFF1F4A
:100E9000E20FF31FE856FB4F9281282F291B1216F1
:100EA0000CF09FCE8283B482A382A7CFF8018785FE
:100EB00090898215930509F4AFCFF8012581368119
:100EC0002F3F3F4F09F4A5CFD8011B962C9122FD4F
:100ED000A0CFC8010E94030820902F08309030084E
:100EE00092CF0C940C05FF920F931F93CF93DF9337
:100EF000EC018091DA04882339F110E085E1F82EC5
:100F000000E1812F0E940F05FC018081843159F09E
:100F10001F5F1330B1F7CE01DF91CF911F910F9179
:100F2000FF900C946E09DF01A058BF4F2D913C91AA
:100F30001197215031092D933C93232B49F7F082CF
:100F4000E158FF4F0083E4CFDF91CF911F910F91C4
:100F5000FF9008951092D9041092D8041092DA04E8
:100F600082E390E0A0E0B0E08093E1049093E2049B
:100F7000A093E304B093E4041092E50483E797E0C0
:100F80009093E7048093E6040895FC01DC01AE57DA
:100F9000BF4F8C9191E19083DF01A158BF4F1C920C
:100FA00080FF20C08FEF9FEF968385838785908990
:100FB0009087878320912F083091300832872187CE
:100FC000209134082F5F209334082483019689F000
:100FD00081E698E8938382838091DA048F5F80931F
:100FE000DA040895809131089091320896838583C0
:100FF000DDCF81E498E8938382838091DA048F5F68
:101000008093DA0408950F931F93CF93DF938C019D
:10101000FC01818180510E94E704EC010097C1F13D
:10102000FC01ED57FF4F81E797E0918380839E019C
:101030002E5F3F4FF80141810E5F1F4F50E0B80116
:10104000C9010E94AB3781E18883FE01E158FF4F5F
:10105000108281E498E89B838A838FEF9FEF9887C3
:101060008F8380913108909132089E838D83809187
:101070002F08909130089A878987809134088F5F74
:10108000809334088C838091DA048F5F8093DA0434
:10109000DF91CF911F910F9108951F93CF93DF930D
:1010A000FC01C581D6818091DA04882359F010E0D3
:1010B000812F0E940F05FC018081843139F01F5F70
:1010C0001330B1F7DF91CF911F91089594858981F5
:1010D0009813F5CF85E180838A81EE57FF4F808397
:1010E000F1CFE091D804F091D904833080F08330BF
:1010F00081F0853081F081E0DF01A158BF4F8C93F2
:1011000083E180831092D9041092D804089580E07E
:10111000F3CF80E2F1CF81E2EFCFAF92BF92CF92D7
:10112000DF92EF921F93CF93DF938091DA048823AD
:10113000C1F010E095E1E92E24E1C22E35E0A32EA6
:10114000B12C42E1D42E812F0E940F05EC01888141
:10115000833181F0853171F18131E9F01F5F133006
:1011600091F7DF91CF911F91EF90DF90CF90BF90DB
:10117000AF900895FE01E158FF4F8081811109C0B1
:101180004D855E8520912F08309130084217530716
:10119000F9F0E882E3CF0E94B7028111DFCFD0934C
:1011A000D904C093D804D8826981CE0102960E94E6
:1011B000C302D4CFFE01ED57FF4F0190F081E02D27
:1011C000CE0109958091DA0481508093DA04C6CF6C
:1011D0008B8580FFDECFC882C058DF4FB982A882DE
:1011E0008BED94E00E946E09B9CF0E947F010E94AE
:1011F00069090E945B020C94DA030E942A030E9490
:101200000B040C9484090F931F93CF93DF93EC018D
:101210008091E8049091E904009709F447C04E8159
:101220005F8168857985FC01A0E0B0E001C0F9012B
:1012300002811381248135814017510762077307AA
:10124000E0F0401B510B620B730B20813181DF01F9
:101250002115310561F74A835B836C837D83109789
:10126000D1F08D919C91119799838883CD93DC93D4
:10127000DF91CF911F910F910895041B150B260B41
:10128000370B02831383248335834A835B836C8308
:101290007D83109731F799838883D093E904C093B5
:1012A000E804DF91CF911F910F9108951982188260
:1012B0004E815F81688579854A835B836C837D83FA
:1012C000D093E904C093E804DF91CF911F910F916F
:1012D00008951092E9041092E8040895E091E8045A
:1012E000F091E904309761F08E179F0721F40BC04D
:1012F0008E179F0739F00190F081E02D3097C1F7EC
:101300000C94030908950895CF92DF92EF92FF9213
:10131000CF93DF9380912E08882309F458C09FB79C
:10132000F89480912E0810922E089FBF90E0A0E0C4
:10133000B0E0880F991FAA1FBB1F6C017D01CC0C68
:10134000DD1CEE1CFF1CCC0CDD1CEE1CFF1CC80EB3
:10135000D91EEA1EFB1EC091E804D091E904209733
:10136000B1F14A815B816C817D81C416D506E606A8
:10137000F706A0F424C0EB85FC85CE010995C09149
:10138000E804D091E904209711F14A815B816C81D6
:101390007D81C416D506E606F70688F0C41AD50A7C
:1013A000E60AF70A888199819093E9048093E8041A
:1013B0008A85813001F7CE010E940309DCCF4C19E8
:1013C0005D096E097F094A835B836C837D83DF91AE
:1013D000CF91FF90EF90DF90CF90089583E00E942F
:1013E000020E81E080930B0280913B0886FF04C0CF
:1013F00080913B0887FD0CC080913B0886FF0895D3
:101400000E94582E892B11F00C944E2E0C94EE2D28
:101410000C947B1F1F920F920FB60F9211240F9006
:101420000FBE0F901F90189580ED97E0A0E0B0E000
:1014300080933D0890933E08A0933F08B0934008E6
:1014400081E080933C088EEE99E09093420880936F
:1014500041088CE398E00C94842C8CE398E00C9485
:10146000502CCF92DF92EF92FF920F931F93CF9366
:10147000DF93CDB7DEB72C970FB6F894DEBF0FBE63
:10148000CDBFF62EF82690914202992309F443C06D
:10149000F6FA442740F9F7FC95C0F5FC446066FD78
:1014A00069C030E021E067FD69C0226065FF69C066
:1014B000346080E289838AE08A8380914802909137
:1014C0004902A0914A02B0914B028B839C83AD8369
:1014D000BE834F83388729871A8680914C0290916A
:1014E0004D02892B09F44FC020917A0830917B0876
:1014F00080914C0290914D022817390709F443C09E
:1015000040914C0250914D0221E06AE0CE010196DB
:101510000E94FF2B48C0662331F190910B0291117C
:1015200042C0F6FE53C06C878B8766FF60C00E9486
:10153000140A00E010E06C858B85F7FC4DC0F5FEC9
:1015400048C065FD46C086FF02C087FD5CC085FFC0
:101550002AC010924D0210924C024FEF60E080E0E2
:101560000E94900C20C090910B029923B1F210922E
:101570000B0219C031E020E067FF97CF326065FDB4
:1015800097CF246096CF40917A0850917B0821E054
:101590006AE070E0CE0101960E943D20FC0161816D
:1015A00070E00E942C202C960FB6F894DEBF0FBE80
:1015B000CDBFDF91CF911F910F91FF90EF90DF9002
:1015C000CF9008954260F5FE6ACF68CF00E010E04A
:1015D000B4CF012B41F3B7CF6C878B8767FD0EC06B
:1015E0000E942D0A01E010E08B856C85A8CF0E9437
:1015F0002D0A01E010E06C858B859FCF0E94140AB4
:101600006C858B859CCF81E080930B028091800854
:10161000811126C08091BF08811122C08091FE08EF
:1016200081111EC08EEAC82E88E0D82EE12CF12C44
:10163000F60111821082FFEFEF1AFF0A0BED1FE097
:1016400029EC3FE340E050E0BA01C7010E94631576
:101650008FE3C80ED11CE3E0EE16F10449F7A3CFE7
:101660000E94E21EA0CFCF93C9B1C095C07EC093A7
:101670003B0880910C028C1729F06C2F0E94310AD4
:10168000C0930C02CF9108951092B1002498089550
:10169000CF93DF9382E48093B000A3EBB0E082EBC2
:1016A0008C93E1EBF0E085E080832FEF32E597E06B
:1016B000215030409040E1F700C000001082CFE19F
:1016C000DEE42197F1F700C0000095E89C93808349
:1016D000DFEF22E537E0D15020403040E1F700C095
:1016E000000010822498DF91CF910895009781F037
:1016F000249A9C0140E050E064E274EF80E090E0C6
:101700000E94ED342093B30085E08093B1000895EA
:101710000C94440BCF93DF93C82FCF7082958F70BA
:1017200009F161E090E0660F9F5F9813FCCF70E0D5
:10173000D0E0CC0FDD1FCC0FDD1FC35FDD4F88274E
:1017400077FD8095982F0E94642F288139814A81E6
:101750005B810E9451300E94362FCB01DF91CF91E7
:101760000C94760B61E070E0E3CFCF93DF930E949F
:10177000440BC0913E02D0913F02209709F468C00B
:1017800080914002909141028C179D070CF04EC051
:1017900030914B0820E0880F991F820F931F4596C8
:1017A0000E94D70F0E948A0B30914B0820E0809155
:1017B000400290914102880F991F820F931F449617
:1017C0000E94D70F8093EF04409140025091410254
:1017D0004F5F5F4F509341024093400260913E0241
:1017E00070913F0264177507F4F010924C08282F8F
:1017F00030E040E050E06091EB047091EC048091A7
:10180000ED049091EE040E94CB3420934D08309368
:101810004E0840934F085093500885EB9BE09093FF
:10182000520880935108DF91CF91089581E0809311
:101830004C08109241021092400210923F02109206
:101840003E020E94440B10923D02DF91CF91089519
:1018500090914B0880E042960E94D70F8093EA0453
:1018600090914B0880E043960E94D70FC82FD0E09C
:10187000D0933F02C0933E022091EA0430E040E062
:1018800050E060E879EA83E090E00E94CB34209356
:10189000EB043093EC044093ED045093EE0470CFCE
:1018A00091E090933D0290934C0810924D08109255
:1018B0004E0810924F081092500825EB3BE03093F1
:1018C00052082093510880934B088CE498E00C94C4
:1018D000842C1F920F920FB60F9211248F939F9317
:1018E000AF93BF938091480290914902A0914A0220
:1018F000B0914B020196A11DB11D809348029093B7
:101900004902A0934A02B0934B02BF91AF919F91BD
:101910008F910F900FBE0F901F9018950C94B036BA
:1019200090E1899F900111243093990020939800B1
:1019300090E1699F9001112430939D0020939C00B9
:1019400090E1499F9001112430939B0020939A00CD
:1019500080936008609361084093620808958091C5
:101960005B0890915C08019790935C0880935B08FA
:10197000181619061CF081E080936A0840916208ED
:1019800040586091610860588091600880580C94BC
:10199000900C1092B90080E28093B80084E08093AC
:1019A000BC00089584EA8093BC008091BC0087FF4E
:1019B000FCCF089584E98093BC0008958093BB0018
:1019C00084E88093BC008091BC0087FFFCCF089521
:1019D00084EC8093BC008091BC0087FFFCCF809199
:1019E000BB00089584E88093BC008091BC0087FF11
:1019F000FCCF8091BB0008950E94D20C8091B90069
:101A0000887F883011F081E0089588E30E94DE0C21
:101A10008091B900887F8831B1F78DE00E94DE0C9B
:101A20008091B900887F883271F70E94D20C809132
:101A3000B900887F803139F789E30E94DE0C8091FC
:101A4000B900887F8034F9F60E94F20C8A32D9F608
:101A50008091B900887F8835B1F60E94DA0C0E9427
:101A6000D20C8091B900887F803169F688E30E94AA
:101A7000DE0C8091B900887F883129F68AE20E94C5
:101A8000DE0C8091B900887F883209F0BCCF89E1F3
:101A90000E94DE0C8091B900887F883209F0B3CFB4
:101AA0000E94DA0C80E008950E94D20C8091B90067
:101AB000887F883011F081E0089588E30E94DE0C71
:101AC0008091B900887F8831B1F781E00E94DE0CF7
:101AD0008091B900887F883271F70E94D20C809182
:101AE000B900887F803139F789E30E94DE0C80914C
:101AF000B900887F8034F9F60E94E80C382F20E086
:101B000030935E0820935D088091B900887F80350E
:101B100091F60E94E80C20915D0830915E08282B18
:101B200030935E0820935D088091B900887F8035EE
:101B300011F60E94E80C382F20E0309365082093BE
:101B400064088091B900887F803509F0B4CF0E9485
:101B5000E80C2091640830916508282B30936508C3
:101B6000209364088091B900887F803509F0A3CF65
:101B70000E94E80C382F20E030937E0820937D08E7
:101B80008091B900887F803509F095CF0E94F20CD2
:101B900020917D0830917E08282B30937E08209379
:101BA0007D088091B900887F883509F084CF0E9434
:101BB000DA0C80E00895CF93C82F8823F1F040E03D
:101BC0006FEF80E00E94900C2FEF81EE94E02150A7
:101BD00080409040E1F700C0000040E060E08FEFFF
:101BE0000E94900C2FEF81EE94E0215080409040B5
:101BF000E1F700C00000C15011F7CF91089585E0D2
:101C00000C94DB0D20915B0830915C0812161306D2
:101C10000CF4089590E0880F991F90935C088093CE
:101C20005B0810926A0884E690E0A0E0B0E0809340
:101C30006B0890936C08A0936D08B0936E088FEAC0
:101C40009CE09093700880936F088AE698E00C946B
:101C5000842C9AE09093770090917C00907E9093F2
:101C60007C0090917C00982B90937C0080917A006E
:101C7000876C80937A0080917A0086FDFCCF20915A
:101C8000780030917900932F937080E0AC01422B63
:101C90009A01C9010895CF93DF9380E88093610092
:101CA00010926100F89480EF84B98BB1806E8BB98B
:101CB0008091680081608093680080916B008260F1
:101CC00080936B0080916B00846080936B008091A7
:101CD0006B00886080936B008FB780688FBF8091A6
:101CE0007C00806C80937C008BE18AB98FE78DB992
:101CF0008FE383BB819A89982FEF80E792E0215090
:101D000080409040E1F700C0000082E00E94290E70
:101D1000EC018198829A8A982FEF80E792E0215017
:101D200080409040E1F700C0000081E00E94290E51
:101D30008298C436D10524F4843691050CF44BC046
:101D400082E08093630882E090E09093670880933C
:101D5000660881E090E090936908809368083AEA09
:101D60003093800029E1209381008FEF9FE09093D2
:101D70008700809386003093900020939100909389
:101D80009700809396001092250110922401809173
:101D90007300826080937300809121018C60809336
:101DA00021018EE390E09093290180932801909384
:101DB00027018093260184B7877F84BF80916000CC
:101DC000886180936000109260000E9434107894C3
:101DD000DF91CF91089583E08093630884E090E0E1
:101DE000909367088093660883E090E09093690879
:101DF00080936808B4CF0E94290EBC0180E090E077
:101E00000E94622F2DEC3CEC4CEC5FE30E945130C1
:101E100020E030E040E85AE30E945130089580E02D
:101E20000E94290EBC0180E090E00E94622F2DEC00
:101E30003CEC4CEC5FE30E94513020E030E040E8A5
:101E40005AE30E9451302EE63BED46EB5EE30E94E2
:101E5000C92E0895CF93DF93CDB7DEB72C970FB679
:101E6000F894DEBF0FBECDBF69877A878B879C87CA
:101E70008091480290914902A0914A02B0914B0290
:101E800089839A83AB83BC8329813A814B815C81AE
:101E900089859A85AB85BC85820F931FA41FB51FCA
:101EA0008D839E83AF83B8870000209148023091D4
:101EB000490240914A0250914B028D819E81AF812F
:101EC000B88582179307A407B50778F72C960FB645
:101ED000F894DEBF0FBECDBFDF91CF910895809102
:101EE0006000886180936000809160008D608093C5
:101EF0006000FFCFCF93DF93CDB7DEB72F970FB63C
:101F0000F894DEBF0FBECDBF0E944B0E0E94B21FE1
:101F10000E94C90C0E94FC0C882321F08AE00E94D8
:101F2000DB0DFCCF0E94480B0E9440290E941F2914
:101F30000E94B0360E94F01E198282E390E0A0E079
:101F4000B0E08A839B83AC83BD8381E09AE19F8369
:101F50008E83CE0101960E94842C4FEF60E080E0DA
:101F60000E94900C0E94FE2C0E946D270E94FD088A
:101F70000E94A9290E94330BF5CF20914E02211116
:101F800003C0F89420914E02F999FECF92BD81BD15
:101F90008FEF80BD84E18FBBF99AF999FECF60BDC8
:101FA00084E28FBBF99A211101C0789408952091A1
:101FB0004E02211103C0F89420914E02F999FECFF0
:101FC00092BD81BDF89A211101C0789480B5089521
:101FD000EF92FF920F931F93CF93DF938C01F894AE
:101FE00081E080934E02141615066CF4EB017B0120
:101FF000E40EF51E6991C8010E94BD0F0F5F1F4FCF
:10200000CE15DF05B9F710924E027894DF91CF918B
:102010001F910F91FF90EF900895EF92FF920F9311
:102020001F93CF93DF93F89421E020934E02141670
:10203000150684F4EB017B01E40EF51E8C01061BF2
:10204000170BC8018C0F9D1F0E94D70F8993CE15C7
:10205000DF05B9F710924E027894DF91CF911F916E
:102060000F91FF90EF900895CF92DF92EF92FF9241
:102070000F931F93CF93DF93C0E0D0E08FE3C82E80
:1020800009E816E522E234E44FEF5FEFBA01EE24EF
:10209000EA94FE2C90E8D92E8BED9FE0A9E4BFE3F3
:1020A000CC9EF001CD9EF00D1124E058F74F108228
:1020B000118212821382148205831683278330874C
:1020C0001186128613861486158616861786108A40
:1020D000128A118A148A138A158A168A178A108E10
:1020E000118E138E128E448F558F668F778FF1A2CB
:1020F000E0A2D2A286A397A3A0A7B1A717A616A66F
:102100002196C330D10561F6DF91CF911F910F91D8
:10211000FF90EF90DF90CF9008952F923F924F92D3
:102120005F926F927F928F929F92AF92BF92CF9267
:10213000DF92EF92FF920F931F93CF93DF931C01D7
:102140008091650290916602892B09F436C181E085
:102150002816310409F4ABC024F084E028163104B9
:10216000F4F00E94FF0D00E010E0D0E8CFEB9E01FC
:10217000602F712F832F9C2FDF91CF911F910F9193
:10218000FF90EF90DF90CF90BF90AF909F908F9097
:102190007F906F905F904F903F902F900895809127
:1021A00066080E94FB0E6B017C01809168080E940A
:1021B000FB0E4B015C0123E333E343E35FE3C70121
:1021C000B6010E945D2E8B01D82FC92F8091670226
:1021D000909168028130910509F4C2C1029709F417
:1021E000DFC120E030E04AEA53E4FE01602F712FA6
:1021F0008F2F9C2F0E94513023E333E343EB5FE3A7
:102200000E94C92E382F292F862F972FA32FB22F48
:10221000BC01CD0190582BED3FE049E450E40E9411
:10222000513020E030E044E353E40E94C92E209175
:10223000EF083091F0084091F1085091F20809C080
:102240002BED3FE049EC50E4FE01602F712F8F2F02
:102250009E2F0E945E2E8B01D82FC92F2BED3FE0C1
:1022600049E450ECFE01712F8F2F9E2F0E94C22E49
:1022700087FF0FC0E5CF2BED3FE049EC50E4FE01B6
:10228000602F712F8F2F9C2F0E945D2E8B01D82FD6
:10229000C92F2BED3FE049E450E4FE01602F712F80
:1022A0008F2F9C2F0E944D3018162CF360CF86E0A4
:1022B0000E94FB0E6B017C0185E00E94FB0E4B012E
:1022C0005C0123E333E343E35FE3C701B6010E940C
:1022D0005D2E8B01D82FC92F8091650290916602E7
:1022E0008130910509F4F5C0029709F412C120E08C
:1022F00030E04AEA53E4FE01602F712F8F2F9C2FAC
:102300000E94513023E333E343EB5FE30E94C92E85
:10231000382F292F862F972FA32FB22FBC01CD0145
:1023200090582BED3FE049E450E40E94513020E00A
:1023300030E044E353E40E94C92E2091B00830916C
:10234000B1084091B2085091B30809C02BED3FE0AD
:1023500049EC50E4FE01602F712F8F2F9E2F0E94B9
:102360005E2E8B01D82FC92F2BED3FE049E450ECB6
:10237000FE01712F8F2F9E2F0E94C22E87FF0FC04C
:10238000E5CF2BED3FE049EC50E4FE01602F712FCB
:102390008F2F9C2F0E945D2E8B01D82FC92F2BEDE4
:1023A0003FE049E450E4FE01602F712F8F2F9C2FF6
:1023B0000E944D3018162CF3DACE86E00E94FB0EF8
:1023C00023E333E343E35FE30E945D2E8B01D82FC9
:1023D000C92FCB01AD2FBC2F4C015D0185E00E94C0
:1023E000FB0E23E333E343E35FE30E945D2E462FBE
:1023F000572F682F792F2A013B0120E030E0A901F7
:10240000B8018D2F9C2F0E94C22E87FD06C120E0AF
:1024100030E0A901C301B2010E94C22E87FDF8C0BD
:10242000A3019201C501B4010E94C22E87FD4AC0DA
:1024300082E090E090936602809365028091660846
:102440000E94FB0E23E333E343E35FE30E945D2E30
:102450008B01D82FC92FCB01AD2FBC2F4C015D01B3
:10246000809168080E94FB0E23E333E343E35FE3BC
:102470000E945D2E462F572F682F792F2A013B018E
:1024800020E030E0A901B8018D2F9C2F0E94C22EC0
:1024900087FDB9C020E030E0A901C301B2010E946C
:1024A000C22E87FDABC0A3019201C501B4010E94F9
:1024B000C22E87FF9CC081E090E0909368028093D9
:1024C000670245CE81E090E09093660280936502BA
:1024D000B5CF20E030E0A901FE01602F712F8F2FD2
:1024E0009E2F0E94C22E87FDE3C02EEA37E441E210
:1024F0005FE3FE01602F712F8F2F9E2F0E944D30C2
:1025000018160CF0F4CE82E090E09093660280936F
:10251000650223E333E343E35FE3C501B4010E94B3
:102520005D2E6B017C0120E030E0A9017D2D9F2D07
:102530000E94C22E87FD76C02EEA37E441E25FE3B7
:102540006C2D7D2D8E2D9F2D0E944D3018160CF078
:1025500075C081E090E09093660280936502C7CEDB
:1025600020E030E0A901FE01602F712F8F2F9E2FF8
:102570000E94C22E87FDAAC02EEA37E441E25FE343
:10258000FE01602F712F8F2F9E2F0E944D30181645
:102590000CF027CE82E090E090936802809367026F
:1025A00023E333E343E35FE3C501B4010E945D2EFF
:1025B0006B017C0120E030E0A9017D2D9F2D0E9460
:1025C000C22E87FD52C02EEA37E441E25FE36C2D54
:1025D0007D2D8E2D9F2D0E944D3018160CF051C070
:1025E00081E090E09093680280936702FACD82E0E8
:1025F00090E09093680280936702A9CD77FA709477
:1026000077F8709450CFB7FAB094B7F8B09442CF3F
:1026100077FA709477F8709403CFB7FAB094B7F85C
:10262000B094F5CE2EEA37E441E25FEB6C2D7D2DC0
:102630008E2D9F2D0E94C22E87FD8BCF20E030E093
:102640004AEA53E46C2D7D2D8E2D9F2D0E94513032
:1026500023E333E343EB5FE30E94C92E20E030E045
:1026600044E353E40E945E2E53CE2EEA37E441E267
:102670005FEB6C2D7D2D8E2D9F2D0E94C22E87FD30
:10268000AFCF20E030E04AEA53E46C2D7D2D8E2D53
:102690009F2D0E94513023E333E343EB5FE30E941D
:1026A000C92E20E030E044E353E40E945E2EAACD20
:1026B0002EEA37E441E25FEBFE01602F712F8F2F8E
:1026C0009E2F0E94C22E87FF12CE1DCF2EEA37E426
:1026D00041E25FEBFE01602F712F8F2F9E2F0E9432
:1026E000C22E87FF7ECD56CFCF92DF92EF92FF9220
:1026F000CF93DF93EC016A017B0180916308823004
:10270000B1F18330D1F122E93AE046E050E4C7016B
:10271000B6010E944D30181604F121978FE38C9F6B
:10272000F0018D9FF00D1124E058F74FC6A2D7A2FB
:10273000E0A6F1A683E080838FEF9FEFDC01848F1A
:10274000958FA68FB78F20E030E0C901DF91CF9140
:10275000FF90EF90DF90CF90089521E030E0C90125
:10276000DF91CF91FF90EF90DF90CF900895C2302E
:10277000D10549F62FEF3FEFE8CFC330D10519F669
:10278000F9CF209163082230F9F0233019F1019735
:102790002FE3289FF001299FF00D1124E058F74FF7
:1027A00082E080834183528363837483128A118A17
:1027B00084E690E0A0E0B0E0848F958FA68FB78F7D
:1027C00020E030E0C90108958230910501F72FEF34
:1027D0003FEFF8CF83309105D1F6F9CF2F923F929A
:1027E0004F925F926F927F928F929F92AF92BF9221
:1027F000CF92DF92EF92FF920F931F93CF93DF93CD
:10280000CDB7DEB72C970FB6F894DEBF0FBECDBFA5
:102810001C014A015B0168017901009163080230E3
:1028200009F4FCC0033009F400C120E030E0A90144
:10283000C701B6010E94C22E882309F4C3C0C1019A
:1028400001972FE3289FD001299FB00D1124A05894
:10285000B74FBA87A9879A964D905D906D907C90FE
:102860009D97A3019201C501B4010E945D2E698369
:10287000172F8A839B8320E030E0A9010E94C22E9B
:1028800087FDA3C025E33AEF4EE85DE3B981EA8115
:10289000FB816B2F712FCF010E94C22E87FDA4C038
:1028A00020E030E0A901C701B6010E94C22E87FDD9
:1028B000CBC0A7019601B9810A813B806B2F712F94
:1028C000802F932D0E94C92E20E030E04AE754E487
:1028D0000E9451306C83272E382E092F20E030E0E3
:1028E000A901B981EA81FB816B2F712FCF010E9471
:1028F0004D3018160CF0DCC0A985BA859696CD929D
:10290000DD92ED92FC929997A985BA8511964D9228
:102910005D926D927C921497FD011586168617863E
:10292000108A20E030E048E452E4BC816B2F722D25
:10293000832D902F0E94C92E8B013C01CB01D30126
:102940006C017D0120E030E0A901B801C3010E94C3
:10295000C22E87FDA7C0B801C3010E94312FCB0151
:10296000AA2797FDA095BA2FE985FA85848F958FC0
:10297000A68FB78F128A118A868A978AA08EB18E07
:1029800081E090E0938F828F83E0808320E030E0CD
:10299000C9012C960FB6F894DEBF0FBECDBFDF91F4
:1029A000CF911F910F91FF90EF90DF90CF90BF904C
:1029B000AF909F908F907F906F905F904F903F90DF
:1029C0002F90089520E030E0E3CF25E33AEF4EE882
:1029D0005DEBB981EA81FB816B2F712FCF010E94E2
:1029E0004D3018160CF05CCF023049F1033011F174
:1029F00082E0A985BA858C93FD0181829282A382AF
:102A0000B482128A118A84E690E0A0E0B0E0848F5C
:102A1000958FA68FB78F20E030E0BACF8230910536
:102A200009F003CF2FEF3FEFB3CF8330910509F0CB
:102A3000FCCEF8CFE3E02E163104D1F6F3CFB2E0AE
:102A40002B163104A9F6EECFD701C601B0588D83FD
:102A50009E83AF83B8879C01AD01B9810A813B8019
:102A60006B2F712F802F932D0E94C92E20E030E014
:102A70004AE754E40E9451306C83272E382E092FE8
:102A800020E030E0A901B981EA81FB816B2F712F31
:102A9000CF010E944D3018167CF4CD80DE80EF808F
:102AA000F8842ACFC701B60190580E94312F57CF22
:102AB000F7FAF094F7F8F094E985FA85C6A2D7A260
:102AC000E0A6F1A621CF2F923F924F925F926F9294
:102AD0007F928F929F92AF92BF92CF92DF92EF92AE
:102AE000FF920F931F93CF93DF93CDB7DEB72C9751
:102AF0000FB6F894DEBF0FBECDBF1C014A015B01CB
:102B00006801790100916308023009F412C10330B1
:102B100009F416C120E030E0A901C701B6010E9406
:102B2000C22E882309F4D9C0C10101972FE3289F41
:102B3000D001299FB00D1124A058B74FBA87A9879B
:102B40009A964D905D906D907C909D979E966D911C
:102B50007C919F97882777FD8095982F0E94642FFE
:102B60002BED3FE049EC50E40E9451309B01AC0159
:102B7000C301B2010E945E2E9B01AC01C501B401EC
:102B80000E945D2E6983172F8A839B8320E030E0AB
:102B9000A9010E94C22E87FDA3C025E33AEF4EE8AB
:102BA0005DE3B981EA81FB816B2F712FCF010E9418
:102BB000C22E87FDA4C020E030E0A901C701B60104
:102BC0000E94C22E87FDCBC0A7019601B9810A8160
:102BD0003B806B2F712F802F932D0E94C92E20E0F8
:102BE00030E04AE754E40E9451306C83272E382E9F
:102BF000092F20E030E0A901B981EA81FB816B2F28
:102C0000712FCF010E944D3018160CF0DCC0A98541
:102C1000BA859696CD92DD92ED92FC929997A98510
:102C2000BA8511964D925D926D927C921497FD013A
:102C3000158616861786108A20E030E048E452E4B4
:102C4000BC816B2F722D832D902F0E94C92E8B017A
:102C50003C01CB01D3016C017D0120E030E0A901F2
:102C6000B801C3010E94C22E87FDA7C0B801C301ED
:102C70000E94312FCB01AA2797FDA095BA2FE98595
:102C8000FA85848F958FA68FB78F128A118A868ACC
:102C9000978AA08EB18E81E090E0938F828F83E03F
:102CA000808320E030E0C9012C960FB6F894DEBF97
:102CB0000FBECDBFDF91CF911F910F91FF90EF908D
:102CC000DF90CF90BF90AF909F908F907F906F904C
:102CD0005F904F903F902F90089520E030E0E3CF39
:102CE00025E33AEF4EE85DEBB981EA81FB816B2F7A
:102CF000712FCF010E944D3018160CF05CCF0230BE
:102D000049F1033011F182E0A985BA858C93FD0168
:102D100081829282A382B482128A118A84E690E030
:102D2000A0E0B0E0848F958FA68FB78F20E030E0D1
:102D3000BACF8230910509F0EDCE2FEF3FEFB3CF40
:102D40008330910509F0E6CEF8CFE3E02E1631048A
:102D5000D1F6F3CFB2E02B163104A9F6EECFD701AE
:102D6000C601B0588D839E83AF83B8879C01AD01A7
:102D7000B9810A813B806B2F712F802F932D0E9488
:102D8000C92E20E030E04AE754E40E9451306C83C1
:102D9000272E382E092F20E030E0A901B981EA81E1
:102DA000FB816B2F712FCF010E944D3018167CF4E0
:102DB000CD80DE80EF80F8842ACFC701B60190581D
:102DC0000E94312F57CFF7FAF094F7F8F094E98585
:102DD000FA85C6A2D7A2E0A6F1A621CF2F923F92F4
:102DE0004F925F926F927F928F929F92AF92BF921B
:102DF000CF92DF92EF92FF920F931F93CF93DF93C7
:102E0000CDB7DEB72B970FB6F894DEBF0FBECDBFA0
:102E10009B838A834A015B01680179018091630881
:102E20008983823009F437C1B981B33009F43BC1D9
:102E30008A819B8101972FE3289F1001299F300CE5
:102E4000112480E898E0280E391ED1019A964D9001
:102E50005D906D907C909D97A3019201C501B40196
:102E60000E945D2E0CC02BED3FE049EC50E4FB8549
:102E7000EA85602F712F8F2F9E2F0E945E2E8B016F
:102E80008B879A872BED3FE049E450EC712F0E942D
:102E9000C22E87FDE8CF2BED3FE049E450E4B02F90
:102EA000A12FFB85EA8517C02BED3FE049EC50E4EC
:102EB000FB85EA85602F712F8F2F9E2F0E945D2E3C
:102EC0008B018B879A872BED3FE049E450E4B62FC6
:102ED000A12FF82FE92F6B2F7A2F8F2F9E2F0E9473
:102EE0004D3018160CF320E030E0A901FB85EA858F
:102EF000602F712F8F2F9E2F0E94C22E87FD9FC0A3
:102F000025E33AEF4EE85DE3FB85EA85602F712FFC
:102F10008F2F9E2F0E94C22E87FDA0C020E030E0A0
:102F2000A901C701B6010E94C22E87FDC2C0A70138
:102F30009601FB85EA85602F712F8F2F9E2F0E94AF
:102F4000C92E20E030E04AE754E40E945130698302
:102F50007A838C839D8320E030E0A901FB85EA859C
:102F6000602F712F8F2F9E2F0E944D3018160CF05E
:102F7000D9C0D1019696CD92DD92ED92FC929997AF
:102F8000D10111964D925D926D927C921497F10150
:102F9000158616861786108A20E030E048E452E451
:102FA000B981AA81EC811D816B2F7A2F8E2F912FF1
:102FB0000E94C92E8B013C01CB01D3016C017D0124
:102FC00020E030E0A901B801C3010E94C22E87FDB4
:102FD000A3C0B801C3010E94312FCB01AA2797FDDE
:102FE000A095BA2FF101848F958FA68FB78F128A83
:102FF000118A868A978AA08EB18E81E090E0938FA5
:10300000828F83E0808320E030E0C9012B960FB6E9
:10301000F894DEBF0FBECDBFDF91CF911F910F910E
:10302000FF90EF90DF90CF90BF90AF909F908F90E8
:103030007F906F905F904F903F902F90089525E381
:103040003AEF4EE85DEBFB85EA85602F712F8F2FFD
:103050009E2F0E944D3018160CF060CFB981B2300F
:1030600009F454C0F981F33009F466C082E0D1015B
:103070008C93F10181829282A382B482128A118A96
:1030800084E690E0A0E0B0E0848F958FA68FB78FA4
:1030900020E030E0BACFAA81BB81129709F0C8CEF8
:1030A0002FEF3FEFB2CFEA81FB81339709F0C0CE1B
:1030B000F7CFD701C601B0588E839F83A887B98701
:1030C0009C01AD01FB85EA85602F712F8F2F9E2F0C
:1030D0000E94C92E20E030E04AE754E40E945130BB
:1030E00069837A838C839D8320E030E0A901FB858E
:1030F000EA85602F712F8F2F9E2F0E944D3018165A
:10310000ACF4CE80DF80E884F98433CFEA81FB81A0
:10311000329709F0ABCFC4CFC701B60190580E94D7
:10312000312F5BCFF7FAF094F7F8F094F101C6A2D3
:10313000D7A2E0A6F1A624CF8A819B81039709F04C
:1031400095CFAECF20916308223049F1233091F121
:1031500001972FE3289FF001299FF00D1124E058DB
:10316000F74F2081223001F1233021F0213011F07E
:1031700080E008952FE3289FF001299FF00D11248E
:10318000E058F74F20E030E0A90166A177A180A5C3
:1031900091A50E944D3018168CF481E0089582307C
:1031A0009105B1F68FEF089581899289892BA9F352
:1031B00083E008958330910559F6F4CF82E00895B5
:1031C0006235A9F0633581F0663459F0A098A19872
:1031D00020E1829FC0011124909389008093880090
:1031E0000895A09AA198F4CFA09AA19AF1CFA0989F
:1031F000A19AEECF6235A9F0633581F0663459F0BB
:10320000A298A59820E1829FC001112490938B0081
:1032100080938A000895A29AA598F4CFA29AA59ABD
:10322000F1CFA298A59AEECF0F931F938A019B012D
:1032300077FD28C0F8010F3F110519F010F0EFEFEE
:10324000F0E08130910591F074F0049764F477FD1B
:1032500033C0452B462B472BE9F066E48E2F1F9198
:103260000F910C94FA181F910F91089577FD1EC0CD
:10327000452B462B472BA1F066E48E2F1F910F9113
:103280000C94E018002711279801041B150B260B3E
:10329000370BD0CF6EE48E2F1F910F910C94FA183C
:1032A0006EE48E2F1F910F910C94E01862E58E2F23
:1032B0001F910F910C94E01862E58E2F1F910F91D2
:1032C0000C94FA180F931F93CF93DF93EC0101979F
:1032D0002FE3289F8001299F100D11240058174FBC
:1032E000F8012589213099F1223001F1222309F4D6
:1032F0005EC0233039F5F8012081223009F44FC037
:10330000233009F478C02FE3289FF001299FF00DA6
:103310001124E058F74F42A553A564A575A5CE0129
:10332000DF91CF911F910F910C94C11320E030E0F9
:10333000A901F80166A177A180A591A50E94C22EDE
:10334000811141C0DF91CF911F910F91089520E02D
:1033500030E0A90166A177A180A591A50E94C22EA7
:10336000882381F383E0F80180834FEF5FEFBA0198
:10337000448F558F668F778F42A553A564A575A599
:10338000418352836383748346A157A160A571A5CD
:10339000CE01DF91CF911F910F910C94741321896D
:1033A0003289232B09F4AFCF148A138ACBCFF801CB
:1033B000108240E050E0BA01CE01DF91CF911F9121
:1033C0000F910C94141983E0F80180834FEF5FEFA5
:1033D000BA01448F558F668F778F42A553A564A598
:1033E00075A5418352836383748346A157A160A569
:1033F00071A57058CDCFF8014181528163817481EC
:103400008ECF2F923F924F925F926F927F928F92C8
:103410009F92AF92BF92CF92DF92EF92FF920F9363
:103420001F93CF93DF93CDB7DEB769970FB6F894AC
:10343000DEBF0FBECDBF8091630830E8432E38E079
:10344000532E45E9C42E48E0D42E25E532E03A83D8
:103450002983A2EAB8E0B887AF8304EB18E0E5EB74
:10346000F8E0FE83ED8366246394712C62E0E62E1F
:10347000F12C930136015B8A4A8A1C830B838701F6
:103480002901823029F4B2E04B16510409F4C3C07B
:103490001801E2E02E1A3108C2010E948D10D301FA
:1034A00055966D937D938D939C935897EB81FC81FA
:1034B000719780811F966D917C915097680F711D57
:1034C000882777FD8095982F0E94642F20E030E0B8
:1034D00042E553E40E945D2E0E94312FF301708B70
:1034E000678777FDBCC0882777FD8095982F0E945D
:1034F000642F20E030E144E257E40E944D3018167A
:103500000CF47EC0D3015596CD90DD90ED90FC90EB
:10351000589720E030E040E450ECC701B6010E942B
:10352000C22E87FF0FC020E030E040E450E4E98184
:10353000FA8160817181828193810E944D301816D9
:103540000CF45CC220E030E040E450E4C701B60176
:103550000E944D30181674F420E030E040E450EC46
:10356000E981FA8160817181828193810E94C22EFA
:1035700087FD4FC2E981FA81C082D182E282F38263
:10358000AA89BB898C91823009F470C108F06AC0A5
:10359000811150C2EA89FB89448D558D668D778DE6
:1035A000411551056105710509F4E5C37CF14150F0
:1035B000510961097109AA89BB895C964D935D9394
:1035C0006D937C935F970430110519F569960FB6DA
:1035D000F894DEBF0FBECDBFDF91CF911F910F9149
:1035E000FF90EF90DF90CF90BF90AF909F908F9023
:1035F0007F906F905F904F903F902F900895108232
:1036000040E050E0BA01C2010E94141904301105D3
:10361000E9F2809163080F5F1F4F2A893B89215C83
:103620003F4F3B8B2A8B3FE3630E711C9FEF491A80
:10363000590AA981BA811496BA83A983EF81F885C2
:10364000FF96F887EF832B813C81215C3F4F3C83C1
:103650002B83AD81BE81DF96BE83AD8312CF108AEE
:10366000178650CF833009F40EC2843079F660910A
:1036700048027091490280914A0290914B020E9447
:10368000622F20E030E04AE754E40E94C92E6E87A2
:103690007B878F879C87ED81FE816081772767FD1F
:1036A0007095872F972F0E94642F20E030E040E034
:1036B0005CE30E94513020E030E040EA50E40E9498
:1036C000513020E030E040E05FE30E9451307D87E0
:1036D0004C01FFE3F29D6001F39DD00C11242BEB14
:1036E00038E0C20ED31EAA24A394B12C198B088BE8
:1036F0007501D98EC88E7D8A6C8A5F8A4E8AD62ED5
:10370000C72E782E592C6E844F84888D998D9A8778
:103710008987B701882777FD8095982F0E94642FAD
:103720002BED3FE049EC50E40E945130AB851C8505
:10373000262D3A2F442D512F0E94513020E030E0A9
:1037400040E251E40E94C92E8B011C01712F932D80
:103750000E94B4304B015C01E88DF98D3597608192
:10376000772767FD7095872F972F0E94642F20E0A1
:1037700030E040E05CE30E94513020E030E040EA7D
:1037800050E40E945130A50194010E945130D601AD
:103790002B2F3C2D472D552D0E945E2E562E772E19
:1037A0006C01A88DB98D1196B98FA88F602F712FDC
:1037B000822D932D0E94C62E4B015C01E985FA856E
:1037C0006081772767FD7095872F972F0E94642F60
:1037D00020E030E040E05CE30E94513020E030E047
:1037E00040EA50E40E945130A50194010E945130FA
:1037F000252D372D4C2D5D2D0E945E2ED62EC72EE9
:10380000782E592EFFEFEF1AFF0A25E0E216F10499
:1038100009F07BCF0889198969877D876C887D8845
:10382000992E4E885F889601982F432F522F692F2B
:10383000792DAA89BB8911964D935D936D937C93E5
:10384000149752961C921E9251978FEF9FEFDC01B6
:10385000EA89FB89848F958FA68FB78FD301559600
:10386000CD90DD90ED90FC9058971EC0EA89FB89C1
:10387000448D558D668D778D411551056105710516
:1038800009F4F2C08CF04150510961097109AA890B
:10389000BB895C964D935D936D937C935F97F30129
:1038A000C588D688E788F08CA7019601AA89BB89CC
:1038B00011966D917D918D919C9114970E945D2E32
:1038C000862E972EA82EB92E2BED3FE049E450EC22
:1038D0000E94C22E87FF1EC0EA88FB882BED3FE0C6
:1038E00049EC50E4C501B4010E945E2EB62FA72F0B
:1038F000462F572F682F792F4A015B012BED3FE0B0
:1039000049E450EC6B2F7A2F0E94C22E87FDE6CF40
:10391000FB8AEA8A2BED3FE049E450E4C501B4019B
:103920000E944D301816F4F4EA88FB882BED3FE036
:1039300049EC50E4C501B4010E945D2EB62FA72FBB
:10394000462F572F682F792F4A015B012BED3FE05F
:1039500049E450E46B2F7A2F0E944D30181634F34F
:10396000FB8AEA8A20E030E0A901C501B4010E9487
:10397000C22E87FDD7C125E33AEF4EE05DE3C501D6
:10398000B4010E94C22E87FDD8C1AA89BB89519675
:103990008D919C915297892B09F47FC120E030E0F2
:1039A000A901C501B4010E94C22E87FD07C2C5014D
:1039B000B401209151023091520240915302509132
:1039C00054020E944D3018160CF067C1EB81FC8147
:1039D00020812F5F208330E080914F029091500230
:1039E0008217930708F05CC1AA89BB891C9240E04A
:1039F00050E0BA01C2010E94141908CED3015996B1
:103A00008D919C915A9701965A969C938E935997B3
:103A1000B1CDD30159968D919C915A9701975A96A1
:103A20009C938E9359975596CD90DD90ED90FC9098
:103A30005897A0CD813009F0E9CDF301808188232A
:103A400009F4EAC0813009F4AAC1AF81B8854C916C
:103A500050E0519541955109662757FD6095762FA5
:103A6000C2010E941419D2CD81899289892B09F44F
:103A7000C6CD8FEF9FEFDC01EA89FB89848F958F9C
:103A8000A68FB78FC3CDAA89BB895C964D915D91F6
:103A90006D917C915F97411551056105710509F4A0
:103AA000BFC064F04150510961097109AA89BB89FD
:103AB0005C964D935D936D937C935F972DEC3CECFE
:103AC0004CE45DE3F30161897289838994890E94E2
:103AD0005130AA89BB8911962D913D914D915C91F0
:103AE00014970E945E2EFB01462F5F2F682F792FBF
:103AF000AA89BB8911964D935D936D937C9314971E
:103B0000D30155962D913D914D915C915897BF01F0
:103B10000E945D2E862E972EA82EB92E2BED3FE00B
:103B200049E450EC0E94C22E87FF18C0EA88FB8847
:103B30002BED3FE049EC50E4C501B4010E945E2E3C
:103B4000862E972EA82EB92E2BED3FE049E450EC9F
:103B50000E94C22E87FDECCFFB8AEA8A2BED3FE064
:103B600049E450E4C501B4010E944D301816C4F474
:103B7000EA88FB882BED3FE049EC50E4C501B40135
:103B80000E945D2E862E972EA82EB92E2BED3FE09B
:103B900049E450E40E944D30181664F3FB8AEA8A27
:103BA00020E030E0A901C501B4010E94C22E7501D8
:103BB000640187FDFEC060915102709152028091B4
:103BC0005302909154029B01AC010E945E2E9B0116
:103BD000AC01C701B6010E944D30EB81FC81181683
:103BE0000CF0DBC020812F5F208330E080914F02FA
:103BF000909150028217930708F008CDAA89BB89DB
:103C00001C925B961C921E925A9740E050E0BA01BB
:103C1000C2010E941419FACCAA89BB891C92F6CC65
:103C2000E1E0F0E05296FC93EE9351971D961D92C1
:103C30001D921D921C925097F30114861386F2E098
:103C4000FC935A968D919C915B97892B59F0FD01BD
:103C500086899789A08DB18D81839283A383B48354
:103C6000138E128EEFEFFFEFD3011C96FC93EE93B1
:103C70001B97AA89BB8953968D919C915497892B48
:103C800009F4F7CE84E190E0A0E0B0E0EA89FB8996
:103C9000848F958FA68FB78FB9CCEB81FC81108272
:103CA000AA89BB8915962D913D914D915C911897EC
:103CB000C501B4010E9451306B017C01EA89FB8986
:103CC00025853685478550896185728583859485EC
:103CD0000E9451309B01AC01C701B6010E945E2ECB
:103CE0000E94312FAB01BC01C2010E9414192DECBE
:103CF0003CEC4CE45DE3C501B4010E9451309B01F2
:103D0000AC01AA89BB891D966D917D918D919C9185
:103D100050970E945E2EEA89FB89658776878787A0
:103D2000908B74CC25E33AEF4EE05DEBC501B40116
:103D30000E944D3018160CF028CE21E030E0EA89C0
:103D4000FB89328B218B83899489892B09F057CC8D
:103D50008FEF9FEFDC01EA89FB89848F958FA68F17
:103D6000B78FAA89BB8951968D919C915297892BC7
:103D700009F493CF13CED3011B968C911B978C9390
:103D8000C2010E9462198FEF9FEFDC01EA89FB8973
:103D9000848F958FA68FB78F39CC108281CFEF811A
:103DA000F885408150E060E070E0C2010E94141983
:103DB0002DCCF7FAF094F7F8F094FDCEC501B401DC
:103DC0009058F7CD109280081092BF081092FE080C
:103DD0006EE480E00E94E0186EE480E00C94FA1833
:103DE0009F92AF92BF92CF92DF92EF92FF920F938A
:103DF0001F93CF93DF9300D000D0CDB7DEB780E123
:103E000090E00E94D70F813A09F44AC070EBC72EA8
:103E100078E0D72E00E010E0EE24E394F12CC70107
:103E20000E948D10AB01BC01705849835A836B838B
:103E30007C83F6014083518362837383642FC801BE
:103E40000E94BD0F6A81C80101960E94BD0F6B815F
:103E5000C80102960E94BD0FFFEFEF1AFF0A8FE321
:103E6000C80ED11C0C5F1F4F94E0E916F104B9F69F
:103E700061EA80E190E00E94BD0F21E030E0C901DD
:103E80000F900F900F900F90DF91CF911F910F9196
:103E9000FF90EF90DF90CF90BF90AF909F900895EC
:103EA000C12CD12CA12CB12CFFE39F2E9A9C700128
:103EB0009B9CF00C112480EB98E0E80EF91E00E0CA
:103EC00010E0C601800F911F0E94D70FF701819368
:103ED0007F010F5F1F4F0430110599F7FFEFAF1AF5
:103EE000BF0A84E0C80ED11C93E0A916B104F1F614
:103EF00020E030E0C4CF1092B0081092B1081092C8
:103F0000B2081092B3081092EF081092F0081092C5
:103F1000F1081092F20810922E0910922F091092B7
:103F200030091092310960EA80E190E00E94BD0FF3
:103F30000E94F01E80E090E0089510926E021092B0
:103F40006D0210926C0210926B0210926A02109233
:103F500069026091610860954091620880916008F3
:103F60000C94900C0F931F93CF93DF9381E090E01C
:103F70009093CD008093CC001092C80088E9809384
:103F8000C90080E890E00E9423358093BD0990939A
:103F9000BE0980E890E00E9423358C019093C0090F
:103FA0008093BF09C0E0D0E004C00091BF09109128
:103FB000C00984E090E00E942335F801EC0FFD1F5A
:103FC000808391832296C038D10579F71092BC097D
:103FD000DF91CF911F910F9108951F920F920FB60D
:103FE0000F9211240BB60F921BBE2F933F934F934A
:103FF0008F939F93EF93FF934091CE00809169023E
:1040000090916A0220916B0230916C02820F931F93
:104010008F73907897FD1BC0FC01E458F64F4083E6
:1040200080916B0290916C02019690936C02809348
:104030006B02FF91EF919F918F914F913F912F9143
:104040000F900BBE0F900FBE0F901F901895019709
:10405000806C9F6F0196E0CF161617066CF4FC017A
:10406000680F791F91918091C80085FFFCCF9093D4
:10407000CE00E617F707B1F70895CF93DF93EB0172
:10408000FC0130813093FF05362F3A5F30930006F4
:1040900050930106409302062093030624E036E085
:1040A000AB01BC01C9010E94AB37C150DA4F81E1BD
:1040B0008D838FEF95E0DF91CF910895CF93DF93BC
:1040C000EB0120E12093FF06262F2D5F20930007B0
:1040D00021E037E0AB01BC01C9010E94AB37C15000
:1040E000D94F81E18A838FEF96E0DF91CF910895D8
:1040F0002F923F924F925F926F927F928F929F92F8
:10410000AF92BF92CF92DF92EF92FF920F931F93E5
:10411000CF93DF9300D0CDB7DEB72C01680F791FA6
:10412000FB0131978081D2010C9181110CC00234C6
:1041300031F0B0F5023338F0063308F05AC0F2011E
:104140008281833030F410E0F801F097EE33F1050E
:1041500018F18FEF8093FF0783E08093000881E1DF
:10416000809301088FEFC82E87E0D82EC6010F90EC
:104170000F90DF91CF911F910F91FF90EF90DF9003
:10418000CF90BF90AF909F908F907F906F905F90F7
:104190004F903F902F900895E057FF4F0C940935B2
:1041A000802F8454833078F6CACFD20112969C9126
:1041B000129780E013962C91822B0E94760B60E080
:1041C00070E080E090E00F900F90DF91CF911F9111
:1041D0000F91FF90EF90DF90CF90BF90AF909F90A6
:1041E0008F907F906F905F904F903F902F900C94A6
:1041F0005E200E3309F0A7CFA2CFD20113964D91C6
:104200005D916D917C91169712968C9190E001963C
:104210000E94C11360E070E080E090E0D4CFD20152
:104220001296EC91BFE3EB9FF0011124E058F74F99
:1042300082A593A5A4A5B5A58093FF079093000838
:10424000A0930108B093020864E070E08FEF97E05C
:10425000BACFD2011296EC91BFE3EB9FF00111248B
:10426000E058F74FC2A4D3A4E4A4F5A466A577A5AB
:10427000882777FD8095982F0E94642F2BED3FE0D3
:1042800049EC50E40E9451309B01AC01C701B601DA
:104290000E945E2E6093FF077093000880930108D0
:1042A0009093020864E070E0D1CF409148025091B1
:1042B000490260914A0270914B024093FF0750936C
:1042C00000086093010870930208D2011296EC91E5
:1042D000BFE3EB9FF0011124E058F74F82A593A5AF
:1042E000A4A5B5A58093030890930408A09305089E
:1042F000B093060868E070E0A9CFF201828190E0F7
:1043000001960E94A2188093FF0761E070E09ECFA3
:1043100082E99AE0A6E0B0E48093FF07909300085A
:10432000A0930108B093020864E070E08FCFD2013F
:1043300012968C910E94FB0E6093FF077093000809
:10434000809301089093020864E070E07FCF809131
:10435000510290915202A0915302B0915402809365
:10436000FF0790930008A0930108B093020864E04F
:1043700070E06CCFF20182819381A481B58180933A
:10438000510290935202A0935302B093540260E002
:1043900070E080E090E017CF80914F029091500242
:1043A00022E3289FB001299F700D112480E090E046
:1043B0000E94622F20E030E04AE754E40E94C92EB8
:1043C0006093FF07709300088093010890930208A0
:1043D00064E070E03BCFD20112966D917D918D919A
:1043E0009C91159720E030E04AE754E40E94513058
:1043F00020E030E048E452E40E94C92E0E94362FAB
:104400007093500260934F0260E070E080E090E0B3
:10441000DACE0E94E21E60E070E080E090E0D3CE51
:1044200082E48093FF0761E070E010CF81E00E949A
:10443000DB0D60E070E080E090E0C5CEF2018281AB
:104440008093420260E070E080E090E0BCCE109289
:10445000AF081092AE081092EE081092ED0810927C
:104460002D0910922C0960E070E080E090E0ABCE66
:10447000F201428153816481758181E090E00E9464
:10448000C113D20116964D915D916D917C91199752
:1044900082E090E00E94C113F20142855385648559
:1044A000758583E090E00E94C11360E070E080E0D9
:1044B00090E089CE8091AA089091AB08A091AC08B9
:1044C000B091AD088093FF0790930008A093010876
:1044D000B09302088091E9089091EA08A091EB0856
:1044E000B091EC088093030890930408A09305080A
:1044F000B09306088091280990912909A0912A0972
:10450000B0912B098093070890930808A09309089D
:10451000B0930A0860E170E099CE0AEA18E0812CB5
:10452000912CD801CD90DD90ED90FC9013977FEF0A
:10453000A72E77E0B72EA80CB91C14966D917C912C
:104540001597882777FD8095982F0E94642F2BED73
:104550003FE049EC50E40E9451309B01AC01C7019F
:10456000B6010E945E2EF50160837183828393837E
:10457000015C1F4FF4E08F0E911C20E18216910424
:1045800081F660E170E062CE80914802909149022C
:10459000A0914A02B0914B028093FF0790930008CC
:1045A000A0930108B09302088091AA089091AB08EB
:1045B000A091AC08B091AD088093030890930408D3
:1045C000A0930508B09306088091E9089091EA0845
:1045D000A091EB08B091EC0880930708909308082D
:1045E000A0930908B0930A0880912809909129099D
:1045F000A0912A09B0912B0980930B0890930C0885
:10460000A0930D08B0930E0864E170E01FCE809176
:10461000480290914902A0914A02B0914B028093C6
:10462000FF0790930008A0930108B09302080AEADC
:1046300018E064E0862E912CD801CD90DD90ED90AD
:10464000FC9013975FEFA52E57E0B52EA80CB91C70
:1046500014966D917C911597882777FD8095982FFA
:104660000E94642F2BED3FE049EC50E40E94513052
:104670009B01AC01C701B6010E945E2EF50160836B
:10468000718382839383015C1F4FF4E08F0E911C32
:1046900020E18216910481F664E170E0D7CDD20169
:1046A0001296EC918E2F90E0BFE3EB9FF001112466
:1046B000E058F74F06A117A120A531A5F2014381CB
:1046C00054816581768101960E94EE1360E070E06E
:1046D00080E090E078CDD2011296EC918E2F90E0A0
:1046E000BFE3EB9FF0011124E058F74F06A117A19B
:1046F00020A531A5F201438154816581768101961F
:104700000E94631560E070E080E090E05CCDD20133
:104710001296EC918E2F90E0BFE3EB9FF0011124F5
:10472000E058F74F06A117A120A531A5F20143815A
:1047300054816581768101960E94EE1660E070E0FA
:1047400080E090E040CDD2011296EC91BFE3EB9F68
:10475000F0011124E058F74F86A197A1A0A5B1A5BB
:104760008093FF0790930008A0930108B09302087C
:1047700064E070E06BCD1201E2E02E0E311CA6EA7F
:10478000EA2EA8E0FA2EC12CD12CFFEFCF1ADF0AB7
:10479000D7010D911D912D913C91F10141915191C4
:1047A000619171911F01C6010E94EE13FFE3EF0EAC
:1047B000F11C23E0C216D10441F701CD120182E0C1
:1047C000280E311CF6EAEF2EF8E0FF2EC12CD12C7A
:1047D0009FEFC91AD90AD7010D911D912D913C91D6
:1047E000F10141915191619171911F01C6010E94A6
:1047F0006315FFE3EF0EF11C23E0C216D10441F76D
:10480000DECC120182E0280E311CE6EAEE2EE8E052
:10481000FE2EC12CD12C9FEFC91AD90AD7010D91B8
:104820001D912D913C91F1014191519161917191B5
:104830001F01C6010E94EE16FFE3EF0EF11C23E0FC
:10484000C216D10441F7BBCCD2011296EC91BFE362
:10485000EB9FF0011124E058F74F85898093FF0703
:1048600061E070E0F3CCF201C380D480E580F68093
:1048700022E93AE046E050E4C701B6010E944D301B
:1048800018160CF4F1C222E93AE046E050ECC701F8
:10489000B6010E94C22E87FF08C0B2E9CB2EBAE053
:1048A000DB2EB6E0EB2EB0ECFB2ED2011296EC9193
:1048B000BFE3EB9FF0011124E058F74FC6A2D7A247
:1048C000E0A6F1A660E070E080E090E07CCCD20150
:1048D00013968C9113971296EC91BFE3EB9FF00126
:1048E0001124E058F74F858BF201828190E0019608
:1048F0000E94621960E070E080E090E064CC8091FA
:10490000600890916108A09162088093FF079093DE
:104910000008A093010863E070E098CC1092FF07B4
:1049200061E070E093CC05E918E01201F5E02F0E8C
:10493000311C20E030E042E3842E912CA12CB12CDC
:10494000D20112968C9190E0022E02C09595879527
:104950000A94E2F780FD4AC266246394712C620EC9
:10496000731E9301015C1F4FB6E02B0E311C2430E7
:10497000310531F724CC8091480290914902A091F1
:104980004A02B0914B028093FF0790930008A093D6
:104990000108B09302081AEA412E18E0512E03E1F3
:1049A000802E08E0902E84E0A82EB12C00E010E0CC
:1049B000F201C080D180E280F3800F5F1F4FBFEF14
:1049C0006B2EB7E07B2E6A0C7B1C64817581882777
:1049D00077FD8095982F0E94642F2BED3FE049ECE6
:1049E00050E40E9451309B01AC01C701B6010E9406
:1049F0005E2ED3016D937D938D939C931397C80185
:104A00000E94A218F40181934F01FFE34F0E511C45
:104A100024E0A20EB11C0430110551F668E170E0EB
:104A200015CC60E070E080E090E00E945E206C01B8
:104A3000D20112968C910E94500C98CB80917A08EA
:104A400090917B089093FF0780917A0890917B0862
:104A50008093000862E070E0F9CB8091F20A811146
:104A600078CB8AE08093F20A60E070E080E090E02A
:104A7000AACB8091BC098823C1F1E091BD09F091D6
:104A8000BE096091BF097091C00942E050E020E08A
:104A900030E0CF01AFEFEA2EA7E0FA2EE40EF51ECC
:104AA000D701129711811C93329687010150110989
:104AB000DC018C91D8018C93DB018D919D91BD011E
:104AC000DC018D909D90AD90BC90D7018D929D9210
:104AD000AD92BC9213972F5F3F4F8091BC094A5F04
:104AE0005F4F90E028173907A4F26091BC09B6E047
:104AF0006B9FB0011124AACBE0E8F8E080E090E0E1
:104B000044E0D20112962C9130E0082E02C0359577
:104B100027950A94E2F720FD40830196FF968430A2
:104B2000910579F74CCBF201418150E04450510995
:104B3000B2016D5F7F4F928180E042960E94E80F44
:104B400060E070E080E090E03ECBD201189680E01B
:104B500090E02FE3FD0135973081F2014281FC01A5
:104B6000249FE00DF11D1124E058F74F35AB3D9126
:104B7000F2014281FC01249FE00DF11D1124E05857
:104B8000F74F32AF01968530910521F718CB10927F
:104B9000BC0960E070E080E090E015CB8FE5809389
:104BA000FF0789E08093000880917A0890917B0844
:104BB0009093010880917A0890917B088093020875
:104BC0008091430290914402A0914502B091460227
:104BD0008093030890930408A0930508B0930608F7
:104BE000109207089FEFC92E97E0D92EBFCA2FEF6A
:104BF00037E0F201418150E0B201C9010E94AB37B8
:104C000081E28093FF0780910008882309F466C041
:104C1000EFEFF7E090E08E0F9F1F31E22091C80088
:104C200025FFFCCF3093CE003196E817F90709F441
:104C300055C03081F3CF0E946F0F98CA64E070E0D6
:104C400083E492E0C0CAB2016E5F7F4F44E050E05F
:104C500082E194E00E94E80FF20182819381A481B5
:104C6000B5818093430290934402A0934502B09390
:104C7000460260E070E080E090E0A5CAD2011296A2
:104C80008C911297982F9B50903158F08FEF809312
:104C9000FF0783E08093000881E18093010812966A
:104CA0008C910E949B0281E00E9493028FEF80937F
:104CB0004701809147018093FF0761E070E0C6CA19
:104CC000413009F4E9C044E050E063E472E0C2011D
:104CD00002960E949E37009709F4DCC0C12CD12CAB
:104CE00045CAD20112969C91129780E090934D0292
:104CF00080934C0280914C0290914D0213962C911E
:104D0000822B90934D0280934C0240E06FEF80E045
:104D10000E94900C60E070E080E090E054CA109235
:104D20004D0210924C024FEF60E080E00E94900C28
:104D300060E070E080E090E046CAF2014781668161
:104D400085810E94900C60E070E080E090E03BCABA
:104D500082010C5F1F4F21E030E0D20112968C914E
:104D600090E0A9014150510902C0959587954A9557
:104D7000E2F780FD65C02F5F3F4F0E5F1F4F24306D
:104D8000310559F71CCA0E940F0F6093FF077093FB
:104D90000008809301089093020864E070E056CA0E
:104DA0000E94540D811172C080915D0890915E083F
:104DB000909300088093FF078091640890916508A4
:104DC000909302088093010880917D0890917E085D
:104DD000909304088093030866E070E037CA8091DE
:104DE00063088093FF0761E070E030CAF1013297F9
:104DF0008081F8018083F10131978081D8011B9671
:104E00008C931B971C961C92F101C080D180E2808C
:104E1000F3803901FFEF6F1A7F0AC3010E94621904
:104E2000F7FC2BC0C701B601A50194010E94ED3427
:104E3000D80117962D933D934D935C931A9791CD7E
:104E4000F8013197F080E12CF8018081A701482B0F
:104E5000662757FD6095762FC90129833A830E9402
:104E600014193A81298187CF12E9C12E1AE0D12E77
:104E700016E0E12E10E4F12E18CD8FEF9FEFDC014C
:104E8000F80187839087A187B2876BCD8AE00E9463
:104E9000DB0D8ACF81E283CE84E68093FF0787E033
:104EA00080930008F20182818093010883818093BE
:104EB00002088481809303088581809304081092FE
:104EC000050820E04FEF5FEF67E08FEF97E00E946B
:104ED000FF2B892B09F03DC972C9EF92FF920F9306
:104EE0001F93CF93DF9382E390E0A0E0B0E0809344
:104EF000F1049093F204A093F304B093F40481E0DE
:104F00008093F0048DE99FE19093F6048093F5047B
:104F1000FF24FA9403E011E180916B0290916C02FE
:104F2000181619060CF0C4C080916B0290916C02A7
:104F3000892B09F4B9C0E0916902F0916A02E45842
:104F4000F64FE0808091690290916A0201968F731A
:104F5000907897FDB4C090936A0280936902809123
:104F60006B0290916C02019790936C0280936B029C
:104F700080916D0290916E02009741F480EF94E071
:104F80000E94842C80916D0290916E02FC01E15090
:104F9000FB4FE082019690936E0280936D02823007
:104FA00091050CF4B9CF2091000530E082179307EA
:104FB00009F0B2CF80EF94E00E94502C409101059F
:104FC00080917A0890917B08242F30E0892F9927CF
:104FD000509102052817390709F476C041112DC0F8
:104FE00051112BC06091050541E070E084E095E02F
:104FF0000E9478200097E1F0FC01618121E040E00F
:1050000050E070E00E943D20FC01418150E04115DC
:10501000510571F020E030E091918091C80085FF4A
:10502000FCCF9093CE002F5F3F4F24173507A4F39A
:1050300010926E0210926D026FCFD42FF0E0CF2F3E
:10504000CE01852BAC0121E06091050584E095E05F
:105050000E94FF2B892B61F3F092FF04009300055F
:105060001093010521E040E050E063E070E08FEF35
:1050700094E00E943D20FC01418150E04115510522
:10508000B9F220E030E091918091C80085FFFCCF1B
:105090009093CE002F5F3F4F24173507A4F3109253
:1050A0006E0210926D0238CF10926E0210926D0255
:1050B000DF91CF911F910F91FF90EF90089501978D
:1050C000806C9F6F019647CF80917A0890917B0802
:1050D000252F30E099272817390709F07FCF82CF95
:1050E0001092F20A0895FC018785882391F080913F
:1050F0006F029091700201969093700280936F02FC
:1051000086E08093F20A80916F0290917002069778
:1051100034F01092700210926F021092F20A089509
:10512000FC018785882399F080916F02909170022D
:1051300001969093700280936F0280916F0290911C
:105140007002069724F483E08093F20A0895109287
:10515000700210926F021092F20A0895FC01878586
:10516000811129C081E00E94DB0D0E94AC36909332
:105170007B0880937A0880917A0890917B0897FD4C
:1051800009C080917A0890917B08906890937B0881
:1051900080937A0880917A0890917B088E7F909313
:1051A0007B0880937A081092700210926F0281E05F
:1051B0008093F20A08951092700210926F0280910B
:1051C0007A0890917B08816090937B0880937A089D
:1051D00080917A0890917B080E94F6031092F20A5F
:1051E0000895FC012785222301F120916F0230915F
:1051F00070022F5F3F4F3093700220936F0228E0C0
:105200002093F20A20916F0230917002263031050E
:105210000CF408951092700210926F021092F20A2C
:10522000FC01828593850C94BE3510927002109219
:105230006F021092F20A828593850C94BE350F930B
:105240001F93CF93DF9308E010E0C0E0D0E0CC0FD5
:10525000DD1FCC0FDD1F80914601829586958370FE
:10526000C82B61E070E080E090E00E942A0F0150BE
:10527000110969F7CE01DF91CF911F910F91089528
:10528000FF920F931F93CF93DF930E94F50884E35F
:1052900092E10E94FC038FE00E949B0281E00E9449
:1052A000930265EF7BE281E00E94020444E050E05B
:1052B00063E472E082E194E00E940D1010924702D4
:1052C000C3E4D2E0FE0181918F3FC1F582E0E73473
:1052D000F807C9F734E2F32E0AE712E00E941F290B
:1052E000AC019C01AFE8B3EE0E94AB349695879574
:1052F000929582958F7089279F708927F89E9001DB
:10530000F99E300D1124421B530B842F48834A30E1
:10531000F0F4805D888361E070E080E090E00E94BE
:105320002A0F219682E0C734D807C1F644E050E046
:1053300063E472E082E194E00E94E80F81E08093F0
:10534000F20ADF91CF911F910F91FF90089508838A
:10535000E2CF8091F20A853009F43BC160F08730DA
:1053600009F47BC108F4A0C0883009F46CC18A300C
:1053700009F4A2C00895813009F4C5C008F064C0E2
:1053800080917202882309F489C180917202882376
:1053900009F490C1E0917102809171028F5F809356
:1053A000710280917202815080937202EF7025E841
:1053B000E29FF0011124EC50F54FF0934513E09378
:1053C0004413309709F47AC185818053823408F000
:1053D0009CC180914C0290914D02892B09F499C196
:1053E0008281938120914C0230914D028217930764
:1053F00009F48FC12EEF2093270823E0209328087B
:1054000031E1309329089093D70A8093D60A81E03E
:105410008093D80A8093D90A8093DA0A87E298E0C9
:105420009093DC0A8093DB0A2093DD0A83E798E2FD
:105430009093DF0A8093DE0A1092700210926F023E
:1054400086E08093F20A0895823009F4DFC0833049
:1054500009F090CFE0914413F0914513828193813C
:105460009093D70A8093D60A81E08093D80A8093DC
:10547000D90A8093DA0AE0912A08F0912B08F09378
:10548000DC0AE093DB0A81818093DD0A80E998E2FF
:105490009093DF0A8093DE0A81ED9AE00E94350442
:1054A00084E08093F20A089581ED9AE00E94350429
:1054B00089E08093F20A08958FEF9FEF9093D70AC7
:1054C0008093D60A81E08093D80A8093D90A1092FB
:1054D000DA0A8EE58093E20A23E02093E30A109231
:1054E000E40A82EE9AE09093DC0A8093DB0A209330
:1054F000DD0A80E798E29093DF0A8093DE0A86E077
:105500008093F20A08950E941F2990937B0880934C
:105510007A0880917A0890917B08019661F40E9444
:105520001F2990937B0880937A0880917A08909144
:105530007B080196A1F380917A0890917B0897FDF2
:1055400009C080917A0890917B08906890937B08BD
:1055500080937A0880917A0890917B088E7F90934F
:105560007B0880937A0880917A0890917B080E944A
:10557000F60380917A0890917B0881609093D70A16
:105580008093D60A81E08093D80A8093D90A8093C9
:10559000DA0A8EE58093E20A83E08093E30A1092B0
:1055A000E40A82EE9AE09093DC0A8093DB0A809111
:1055B000E30A8093DD0A8EEA98E29093DF0A8093F3
:1055C000DE0A81ED9AE00E9435048BE08093F20AB6
:1055D0000895E0914413F09145138581813209F4D7
:1055E00077C042815381608171812481CF0105960A
:1055F0000E943D2090932B0880932A08FC01618132
:1056000070E00E942C201092F20A089580914413B9
:1056100090914513FC016081718142E005960E94E2
:10562000782090932B0880932A08009761F3E091EB
:105630004413F091451325812E3509F450C083E0C1
:105640008093F20A089580912C0890912D080E9471
:10565000350489E08093F20A0895809173028823CB
:1056600031F1809174029091730291509093730282
:10567000909174029F5F909374028F70F1E18F9FFD
:10568000C00111248F53964F90932D0880932C08BE
:105690000E94350489E08093F20A08958091730294
:1056A000882309F467CE87E08093F20A089580E0AA
:1056B00090E0EACF109245131092441385E00E94C7
:1056C000DB0D0E946F0FE0914413F09145137CCEE7
:1056D000668170E0CF0105960E942C2094CF228134
:1056E00033813093D70A2093D60A21E02093D80A39
:1056F0002093D90A2093DA0A9093DC0A8093DB0A7C
:10570000FC0181818093DD0A91CE85E08093F20ACD
:10571000089582E08093F20A0895FC01809172025C
:10572000803108F05FC0209171028091720290E098
:10573000820F911D8F709927278130E045E8489F9F
:10574000D001499FB00D1124AC50B54F11963C9338
:105750002E93209171028091720290E0820F911D30
:105760008F70992720813181489FD001499FB00DCA
:105770001124AC50B54F13963C932E931297209161
:1057800071028091720290E0820F911D8F709927B3
:105790002281489FD001499FB00D1124AC50B54FD4
:1057A00014962C93809171022091720230E0280FA0
:1057B000311D2F703327429FD001439FB00D11241C
:1057C000A750B54F47816581768150E0CD010E9499
:1057D000AB37809172028F5F8093720220E030E0DD
:1057E000C90108952FEF3FEFFBCFCF93DF93EC017B
:1057F0000E948D2B8C818170DF91CF910895EF9263
:10580000FF920F931F93CF93DF931F92CDB7DEB715
:10581000082F792F162F309173023031F0F58091D7
:105820007402E0917302F0E0E80FF11DEF70FF27C2
:1058300081E18E9F70018F9FF00C112481EC99E023
:10584000E80EF91EF7015683458331E03783308730
:105850002187862F90E079830E942335F701828784
:105860009387412F50E0602F79810E94AB37F70179
:10587000148781EF98E296878587809173028F5F06
:105880008093730220E030E0C9010F90DF91CF9147
:105890001F910F91FF90EF9008952FEF3FEFF4CFFE
:1058A000CF93DF93FC018091750290917602E81707
:1058B000F907B9F0A585B685109731F083859485F1
:1058C0001C969C938E931B97C385D485209711F0CB
:1058D000BE87AD871486138616861586DF91CF9115
:1058E0000895A385B485B0937602A09375021097AE
:1058F00089F31E961C921E921D9714861386168697
:105900001586DF91CF9108950F931F93CF93DF9367
:10591000EC010E94502C0091480210914902209104
:105920004A0230914B0249815A816B817C81040F7C
:10593000151F261F371F0F83188729873A871C8654
:105940001B861E861D8680917502909176020097B7
:1059500009F446C0FC0147815085618572850417B2
:1059600015072607370778F1FC01478150856185C7
:1059700072850417150726073707A0F1DC010AC056
:1059800047815085618572850417150726073707FB
:1059900038F0DF011B96ED91FC911C97309781F751
:1059A0001C96DC93CE931B97BE87AD87FC87EB8755
:1059B000309711F0D687C587892BB9F0DF91CF9149
:1059C0001F910F9108959C878B87D687C587D093A9
:1059D0007602C0937502DF91CF911F910F910895C8
:1059E000E0E0F0E0A0E0B0E0DFCFD0937602C0933B
:1059F0007502DF91CF911F910F9108950F931F931F
:105A0000CF93DF93C0917502D0917602209789F0F1
:105A10000F81188529853A854091480250914902A5
:105A200060914A0270914B02401751076207730759
:105A300028F4DF91CF911F910F910895CE010E941C
:105A4000502CED81FE81099588818111F2CFCE0124
:105A5000DF91CF911F910F910C94842C0F931F9382
:105A6000CF93DF938091480290914902A0914A021E
:105A7000B0914B024091591350915A1360915B13AE
:105A800070915C13841B950BA60BB70B8134974761
:105A9000AB41B10508F06BC080916308823009F416
:105AA00058C08091910890919208892B91F1809132
:105AB000D0089091D108892B61F1809177028130D3
:105AC00009F468C00BED1FE029EC3FE34BED5FE00C
:105AD00069E471E481E090E00E9463150BED1FE042
