:100000000C945E010C947D010C947D010C947D0197
:100010000C947D010C947D010C947D010C947D0168
:100020000C947D010C94F2090C947D010C947D01DB
:100030000C947D010C94CB030C947D010C947D01F8
:100040000C947D010C947D010C947D010C947D0138
:100050000C947D010C947D010C947D010C947D0128
:100060000C947D010C947D010C947D010C947D0118
:100070000C947D010C947D010C947D010C947D0108
:100080000C947D010C947D010C947D010C947D01F8
:100090000C9431230C947D010C947D010C947D0112
:1000A0000C947D010C947D010C94D7010C94E80113
:1000B0000C947D010C947D010C947D010C94CB0C6F
:1000C0000C947D010C947D010C947D010C947D01B8
:1000D0000C947D010C947D010C947D010C947D01A8
:1000E0000C947D010C947D010C947D010C947D0198
:1000F0000C9410030C947D010C947D010C94E4028B
:100100000C947D010C947D010C947D010C947D0177
:100110000C947D010C947D010C947D010C947D0167
:100120002A24EE233F288427752423273B27AD2844
:10013000CC28BD25E125142648268B26CF26EB2684
:1001400007275A276C27A524D324FB240625152529
:10015000E323252538254A25692587258E259425DD
:100160009E25AC25DC29E323E129032A1129332923
:100170004A295C296929EE27FA2738284E2478294C
:10018000A129C829D3275528772888289327A1276C
:10019000AC27C6272024EB280A29CD2905A84CCD59
:1001A000B2D44EB93836A9020C50B9918688083CB1
:1001B000A6AAAA2ABE000000803F6E616E00696E8A
:1001C000660000407A10F35A00A0724E1809001021
:1001D000A5D4E80000E87648170000E40B540200BC
:1001E00000CA9A3B000000E1F505000080969800E7
:1001F000000040420F000000A08601000000102710
:1002000000000000E803000000006400000000009F
:100210000A00000000000100000000002C76D888D1
:10022000DC674F0823DFC1DFAE59E1B1B796E5E3E4
:10023000E453C63AE651997696E8E6C28426EB89FD
:100240008C9B62ED407C6FFCEFBC9C9F40F2BAA59A
:100250006FA5F490055A2AF75C936B6CF9676DC132
:100260001BFCE0E40D47FEF520E6B500D0ED902E36
:100270000300943577050080841E080000204E0A94
:10028000000000C80C333333330F986E12831141D2
:10029000EF8D2114893BE65516CFFEE6DB18D1849D
:1002A0004B381BF77C1D901DA4BBE42420328472C4
:1002B0005E228100C9F124ECA1E53D2711241FBE77
:1002C000CFEFD1E4DEBFCDBF12E0A0E0B2E0E4E2C8
:1002D000F7E700E00BBF02C007900D92A638B10708
:1002E000D9F710E3A6E8B2E001C01D92AB34B10724
:1002F000E1F70E94DD0F0C94903B0C94000014BEBB
:1003000088E10FB6F89480936000109260000FBEF1
:1003100078940C948E0190E00C94A30110924B08F9
:1003200080E29EE49093A9008093A800E1EAF0E0C7
:1003300088E08083808182608083E2E7F0E08081D2
:100340008260808308952091A4003091A500280F39
:10035000391F3093AB002093AA002091AA0030915E
:10036000AB008091A8009091A9008217930770F4C8
:100370008091AA009091AB002091A8003091A90033
:10038000821B930B9093AB008093AA00109286027D
:10039000809172008460809372008091860288232D
:1003A000E1F3809172008B7F8093720008951F9219
:1003B0000F920FB60F9211248F9380914B088F5F8D
:1003C00080934B088F910F900FBE0F901F90189540
:1003D0001F920F920FB60F9211248F9381E080939A
:1003E00086028F910F900FBE0F901F9018950F935C
:1003F0001F93CF93DF9310924E0183E080934201CD
:1004000086E080934201809141018F718630D9F757
:10041000C0E0D0E000E010E081E00E948B0120917C
:10042000460122952695237030E00C2E02C0220F43
:10043000331F0A94E2F7022B132B2296C031D10509
:1004400059F783E08093420188E0809342018091D4
:1004500041018F718830D9F78FEF80934F018091E0
:100460004E01886080934E0180914E01806480939C
:100470004E01C801DF91CF911F910F910895809196
:100480009002882361F083E08093420186E18093AB
:100490004201809141018F718631D9F7089583E03F
:1004A0008093420188E080934201809141018F71E5
:1004B0008830D9F70895809139018160809339019E
:1004C00083E08093420188E0809342018091410162
:1004D0008F718830D9F780916E01806280936E01B0
:1004E00080916E018F7E80936E018FEF80934F011C
:1004F00080914E01886080934E0180914E0180640E
:1005000080934E0180914C01806880934C010E9441
:10051000F70180936D0110928A021092900281E09F
:1005200080930A020895EAE8F2E09081986090834F
:10053000809390020895EAE8F2E0908191609083C0
:1005400080938B020895EAE8F2E020812260208304
:1005500090938D0280938C020895EAE8F2E0208166
:100560002460208390938F0280938E02089580915F
:100570000A02813011F081E0089590918A02911170
:10058000FBCF80E0089523E02093420129E12093EE
:100590004201209141012F712931D9F7262F2E5F79
:1005A00020938001662349F0FC01A1E8B1E091911C
:1005B0009D939E2F981B9617D0F382E08093420163
:1005C00083E080930A0208951F920F920FB60F9254
:1005D00011248F93809141018F71893131F08F9176
:1005E0000F900FBE0F901F90189583E080934201EB
:1005F00089E080934201809141018F718930D9F760
:1006000084E080930A0280914201829586958770EA
:10061000809389028F910F900FBE0F901F901895B5
:100620001F920F920FB60F9211248F9389E080933F
:100630004201809147018093880280917B018093E1
:10064000870285E080930A028F910F900FBE0F9072
:100650001F901895CF93DF9300D000D01F92CDB795
:10066000DEB780910A02843009F481C0853009F434
:100670003FC0813041F00F900F900F900F900F907E
:10068000DF91CF91089590918A029923A1F383E09D
:100690008093420188E080934201809141018F71F3
:1006A0008830D9F790FF09C020918B022F7180917B
:1006B0004801807E822B8093480191FF08C0809181
:1006C0008C028093620180918D028093630192FF7E
:1006D00008C080918E028093600180918F02809388
:1006E000610194FD53C00E943F0210928A02C3CF61
:1006F0008091870280E090E040E0FC01E058FE4FEE
:100700002081FC01EF56FD4F20834F5F209187022F
:10071000842F90E030E0281739077CF781E992E0D8
:100720009A8389838091870282508B83E09187022C
:10073000F0E0EF56FD4F80818C83809188028A55CE
:100740008D83CE0101960E948605809141018F71B3
:100750008930D9F781E080930A020E943F020F900E
:100760000F900F900F900F90DF91CF91089580918F
:1007700089020E947108809141018F718930D9F7F7
:1007800081E080930A020E943F02E9CF0E94F701B4
:100790000E94F00CA8CF1F920F920FB60F92112457
:1007A0008F9381E0809311038F910F900FBE0F9074
:1007B0001F901895109250081092510810924D08F1
:1007C00010924C081092530810925208109255083B
:1007D0001092540810925708109256080E94AA07C7
:1007E0000E9462050E94E0040C94300490934D082E
:1007F00080934C080C94AD0290934F0880934E0860
:100800000C94A302E82FF0E0EE0FFF1FEE5AF74F13
:100810007183608308950E94BA050E948D080C942C
:100820004E04E0911203F0911303309731F416C097
:100830000190F081E02D309789F0228133812817D3
:100840003907B1F7DC01A158BF4F2C912787DC0194
:10085000AE57BF4F2C91208B22E024830C940C05C3
:1008600010921303109212030895FC01148217864C
:10087000138212828091120390911303009739F032
:1008800091838083F0931303E09312030895118200
:100890001082F0931303E093120308950F931F93B4
:1008A000CF93DF93E0911203F0911303309709F493
:1008B0007BC0EF018C81811155C08C850E94E704BB
:1008C0008C01009709F46DC09B838A8381E08C833F
:1008D000F801ED57FF4F81E194E091838083F801A7
:1008E000EE57FF4F898582FB882780F980839985A1
:1008F000F801838590FB80F98387998593FB99277D
:1009000090F990FB82F987708387809150088F5F00
:1009100080935008848780914C0890914D08968769
:1009200085878D819E81908B878798859F7081892F
:10093000807F892B818B9F819295907F8F70892BEF
:10094000818B98012E5E3F4F4C856A857B8550E0F8
:10095000C9010E94DF3AC801DF91CF911F910F9129
:100960000C94C507823039F00990D881C02D2097AA
:1009700009F0A0CF19C0EC17FD0711F41AC0FC0153
:10098000808191818C179D07D1F78881998191830E
:100990008083ED85FE85CE01DF91CF911F910F9170
:1009A000099482E08C838F87DF91CF911F910F9103
:1009B0000895888199819093130380931203E9CF5E
:1009C000109214031092990310921E0408959091AE
:1009D0001403992361F0909199039923B9F09091B0
:1009E0001E049923B1F020E030E0C901089540E0F1
:1009F00050E095E8949FF001959FF00D1124EC5E76
:100A0000FC4F805F81839F01C901089541E050E060
:100A1000F0CF42E050E0EDCFFC011082089595E860
:100A2000899F900111242C5E3C4FC9010895FC015F
:100A3000DC01A158BF4F1C92DC01A058BF4F1D9292
:100A40001C92DC01AE57BF4F1C92DC01AD57BF4F6B
:100A50001D921C921386A0E5B8E08C918F5F8C9359
:100A6000848780914C0890914D0896878587108ADD
:100A70001786118A08950C940C05E7EAF4E040E02B
:100A8000208131812115310529F02150310931832F
:100A9000208341E0359624E0E93DF20789F74111D2
:100AA00001C008950C946E09DC011596ED91FC913E
:100AB00016972081222311F080E008950E944D08AE
:100AC00081E00895E7EAF4E011821082359684E02F
:100AD000E93DF807C9F71092D60484E190E0A0E060
:100AE000B0E08093DD049093DE04A093DF04B09324
:100AF000E0041092E1048DE395E09093E304809389
:100B0000E20464E575E080E00C940204CF93DF9387
:100B1000EC01E881F9818181883819F0DF91CF916A
:100B200008958081813611F08134C1F78A81803146
:100B3000A8F380510E94E704009781F320E2FC01B2
:100B400020832B81E158FF4F20832C81FC01E0584A
:100B5000FF4F20839C012E5F3F4F4A81688179813E
:100B600050E0C9010E94DF3A8091D6048F5F8093E4
:100B7000D604D4CF2F923F925F926F927F928F9242
:100B80009F92AF92BF92CF92DF92EF92FF920F931C
:100B90001F93CF93DF93CDB7DEB72A970FB6F894A4
:100BA000DEBF0FBECDBF8091D6048823F1F0512C5B
:100BB00054E2752E6BE3C62E65E0D62E72E2672EE8
:100BC000E7E9AE2EB12C852D0E940F058C01DC01CA
:100BD0008C91823211F1843209F421C1803209F4FE
:100BE000B3C05394B3E05B12EECF2A960FB6F894DD
:100BF000DEBF0FBECDBFDF91CF911F910F91FF9050
:100C0000EF90DF90CF90BF90AF909F908F907F90AC
:100C10006F905F903F902F9008951092A304D80199
:100C200051968C91519782958F70282F30E0243007
:100C300031050CF0FDC0F901EE0FFF1FEE5AF74F22
:100C40000190F081E02D309709F4F2C01D962D91AE
:100C50003C911E973A83298351969C9151979F709E
:100C60009B838C83A8014E5E5F4F5F834E831196FA
:100C70008C91119780518887A158BF4F8C9189879B
:100C8000D801A058BF4F8C918A87D8011B968C91B0
:100C9000982F937082FDE8C080E0892BD8011F96C1
:100CA0004D915C9150974F3F5F4F09F4E8C090E041
:100CB000892BD80119964D915C911A972417350705
:100CC00009F4DBC090E0892BD80115962D913C9159
:100CD00016972F3F3F4F09F4CEC090E0892B8D83AC
:100CE000CE0101960995F801278130852F3F3F4FAE
:100CF00009F4A6C060E0F801938590FFB0C0882396
:100D000009F4ADC083E00E94E7047C010097C9F0BC
:100D10000E941705F701ED57FF4FD182C082D8011D
:100D20001D962D913C911E97F701308B2787128AD3
:100D30008091A304848B1C968C91838BC7010E94A5
:100D4000C507D8017C924DCFF80170822785308984
:100D50002F3F3F4F09F48AC020904C0830904D0837
:100D6000F801E584F6842E143F0409F43ACF838514
:100D700081FD37CF4801FDE08F0E911CE4EAF4E0DD
:100D800020E030E08FEF0FC0D4016D917C91408165
:100D900051816417750709F474C02F5F3F4F359672
:100DA0002A30310559F043815481452B69F7822F50
:100DB0002F5F3F4F35962A303105A9F78F3F09F451
:100DC00010CF992787FD9095FC01EE0FFF1FEE0FC6
:100DD000FF1FE80FF91FEC55FB4FF182E082D801AD
:100DE0001C968C918283B482A38287ED94E00E944A
:100DF0006E0920904C0830904D08F801878190854D
:100E0000019609F453C0F8018785908982159305EE
:100E100019F0019609F0E5CED8016C92E2CEC80136
:100E20000E940C058091D60481508093D604D9CEBF
:100E300080E0F801278130852F3F3F4F09F05ACFDE
:100E400061E040914C0850914D08D8011F962D91BA
:100E50003C9150974217530709F04CCF4CCF61118A
:100E600051CFD8017C92BDCE80E217CF1B968C91DA
:100E700080FF72CFB6CE90E131CF98E024CF94E0DE
:100E800017CFF8018485F901EE0FFF1FEE0FFF1F4A
:100E9000E20FF31FEC55FB4F9281282F291B1216EE
:100EA0000CF09FCE8283B482A382A7CFF8018785FE
:100EB00090898215930509F4AFCFF8012581368119
:100EC0002F3F3F4F09F4A5CFD8011B962C9122FD4F
:100ED000A0CFC8010E94030820904C0830904D0814
:100EE00092CF0C940C05FF920F931F93CF93DF9337
:100EF000EC018091E604882339F110E085E1F82EB9
:100F000000E1812F0E940F05FC018081843159F09E
:100F10001F5F1330B1F7CE01DF91CF911F910F9179
:100F2000FF900C946E09DF01A058BF4F2D913C91AA
:100F30001197215031092D933C93232B49F7F082CF
:100F4000E158FF4F0083E4CFDF91CF911F910F91C4
:100F5000FF9008951092E5041092E4041092E604C4
:100F600082E390E0A0E0B0E08093ED049093EE0483
:100F7000A093EF04B093F0041092F10483E797E09C
:100F80009093F3048093F2040895FC01DC01AE57C2
:100F9000BF4F8C9191E19083DF01A158BF4F1C920C
:100FA00080FF20C08FEF9FEF968385838785908990
:100FB0009087878320914C0830914D083287218794
:100FC000209151082F5F209351082483019689F0C6
:100FD00081E698E8938382838091E6048F5F809313
:100FE000E604089580914E0890914F08968385837A
:100FF000DDCF81E498E8938382838091E6048F5F5C
:101000008093E60408950F931F93CF93DF938C0191
:10101000FC01818180510E94E704EC010097C1F13D
:10102000FC01ED57FF4F81E797E0918380839E019C
:101030002E5F3F4FF80141810E5F1F4F50E0B80116
:10104000C9010E94DF3A81E18883FE01E158FF4F28
:10105000108281E498E89B838A838FEF9FEF9887C3
:101060008F8380914E0890914F089E838D8380914D
:101070004C0890914D089A878987809151088F5F1D
:10108000809351088C838091E6048F5F8093E604FF
:10109000DF91CF911F910F9108951F93CF93DF930D
:1010A000FC01C581D6818091E604882359F010E0C7
:1010B000812F0E940F05FC018081843139F01F5F70
:1010C0001330B1F7DF91CF911F91089594858981F5
:1010D0009813F5CF85E180838A81EE57FF4F808397
:1010E000F1CFE091E404F091E504833080F08330A7
:1010F00081F0853081F081E0DF01A158BF4F8C93F2
:1011000083E180831092E5041092E404089580E066
:10111000F3CF80E2F1CF81E2EFCFAF92BF92CF92D7
:10112000DF92EF921F93CF93DF938091E6048823A1
:10113000C1F010E095E1E92E24E1C22E35E0A32EA6
:10114000B12C42E1D42E812F0E940F05EC01888141
:10115000833181F0853171F18131E9F01F5F133006
:1011600091F7DF91CF911F91EF90DF90CF90BF90DB
:10117000AF900895FE01E158FF4F8081811109C0B1
:101180004D855E8520914C0830914D0842175307DC
:10119000F9F0E882E3CF0E94B7028111DFCFD0934C
:1011A000E504C093E404D8826981CE0102960E94CE
:1011B000C302D4CFFE01ED57FF4F0190F081E02D27
:1011C000CE0109958091E60481508093E604C6CF54
:1011D0008B8580FFDECFC882C058DF4FB982A882DE
:1011E00087EE94E00E946E09B9CF0E947F010E94B1
:1011F00069090E945B020C94DA030E942A030E9490
:101200000B040C9484090F931F93CF93DF93EC018D
:101210008091F4049091F504009709F447C04E8141
:101220005F8168857985FC01A0E0B0E001C0F9012B
:1012300002811381248135814017510762077307AA
:10124000E0F0401B510B620B730B20813181DF01F9
:101250002115310561F74A835B836C837D83109789
:10126000D1F08D919C91119799838883CD93DC93D4
:10127000DF91CF911F910F910895041B150B260B41
:10128000370B02831383248335834A835B836C8308
:101290007D83109731F799838883D093F504C093A9
:1012A000F404DF91CF911F910F9108951982188254
:1012B0004E815F81688579854A835B836C837D83FA
:1012C000D093F504C093F404DF91CF911F910F9157
:1012D00008951092F5041092F4040895E091F40436
:1012E000F091F504309761F08E179F0721F40BC041
:1012F0008E179F0739F00190F081E02D3097C1F7EC
:101300000C94030908950895CF92DF92EF92FF9213
:10131000CF93DF9380914B08882309F458C09FB77F
:10132000F89480914B0810924B089FBF90E0A0E08A
:10133000B0E0880F991FAA1FBB1F6C017D01CC0C68
:10134000DD1CEE1CFF1CCC0CDD1CEE1CFF1CC80EB3
:10135000D91EEA1EFB1EC091F404D091F50420971B
:10136000B1F14A815B816C817D81C416D506E606A8
:10137000F706A0F424C0EB85FC85CE010995C09149
:10138000F404D091F504209711F14A815B816C81BE
:101390007D81C416D506E606F70688F0C41AD50A7C
:1013A000E60AF70A888199819093F5048093F40402
:1013B0008A85813001F7CE010E940309DCCF4C19E8
:1013C0005D096E097F094A835B836C837D83DF91AE
:1013D000CF91FF90EF90DF90CF90089563E084E687
:1013E0000C94780E1F920F920FB60F9211240F904B
:1013F0000FBE0F901F90189580ED97E0A0E0B0E031
:1014000080935A0890935B08A0935C08B0935D08A2
:1014100081E0809359088EEE99E090935F08809365
:101420005E0889E598E00C94EF2F89E598E00C942C
:10143000BB2FFF920F931F93CF93DF93F82ED62FDE
:10144000C62FC827C1F180910D0281114EC0C6FF81
:1014500028C066FDC1C00E94150AF6FE22C0409158
:101460004E0250914F0260915002709151020091D2
:101470000F02109110022091110230911202401BB4
:10148000510B620B730BF7FC02C1413D57406105E4
:10149000710538F080915202811119C181E0809369
:1014A0005202C7FF08C0D7FD06C00E94150AF6FE0B
:1014B00002C0F7FCB7C0C5FF02C0D5FF90C0809145
:1014C0004E0290914F02A0915002B0915102809330
:1014D0000F0290931002A0931102B0931202DF91B9
:1014E000CF911F910F91FF90089580E28093F604B1
:1014F0008AE08093F70480914E0290914F02A09170
:101500005002B09151028093F8049093F904A09393
:10151000FA04B093FB048C2F829586958695837090
:10152000C5FBEE27E0F9F0E0EE0FFF1FEE0FFF1F07
:101530008E2B8093FC049C2F9623892F8295869571
:101540008695837095FB442740F950E0440F551F62
:10155000440F551F842B8093FD04862F90E08095C7
:101560009095D0E08C239D23AC01440F452F441F60
:10157000550B440F551F86FB992790F9492B85FB86
:10158000222720F930E0220F331F220F331F422B76
:101590004093FE041092FF04809185089091860884
:1015A000892B39F120918508309186088091970820
:1015B000909198082817390779F140918508509142
:1015C000860821E06AE086EF94E0DF91CF911F91D9
:1015D0000F91FF900C946A2F0E94FC0962CF109229
:1015E0008608109285084FEF60E080E00E94F20CC0
:1015F00066CF21E040E050E06AE070E086EF94E0E2
:101600000E947F23FC01618170E0DF91CF911F91E7
:101610000F91FF900C946E23409197085091980879
:1016200021E0EACF80914E0290914F02A0915002AA
:10163000B091510240910F0250911002609111023D
:1016400070911202841B950BA60BB70B813D97403E
:10165000A105B10508F049C080914E0290914F025A
:10166000A0915002B0915102841B950BA60BB70BB1
:1016700085369105A105B10508F41DCF0E94CD2145
:1016800081E090E090930C0280930B0214CF413DD7
:1016900057406105710500F540914E0250914F028F
:1016A0006091500270915102401B510B620B730B01
:1016B000453651056105710508F4F3CE0E94CD2130
:1016C00081E090E090930C0280930B02EACE10929E
:1016D00052020E94B921E5CE0E94BA2281E090E038
:1016E00090930C0280930B02DCCE0E94BA2281E020
:1016F00090E090930C0280930B02DDCECF93C9B1A2
:10170000C095C07EC093580880910E0281110CC014
:10171000CC23B1F020910B0230910C02232B61F00D
:10172000C0930E02CF910895C817E1F320910B02E8
:1017300030910C02232BA1F76C2F0E94190AF0CFD5
:1017400010920C0210920B02CF9108951092B100EA
:1017500024980895CF93DF9382E48093B000A3EBA5
:10176000B0E082EB8C93E1EBF0E085E080832FEF3B
:1017700032E597E0215030409040E1F700C0000092
:101780001082CFE1DEE42197F1F700C0000095E878
:101790009C938083DFEF22E537E0D150204030403A
:1017A000E1F700C0000010822498DF91CF910895E6
:1017B000009781F0249A9C0140E050E064E274EFCD
:1017C00080E090E00E9435382093B30085E080935C
:1017D000B10008950C94A60BCF93DF93C82FCF7060
:1017E00082958F7009F161E090E0660F9F5F98131A
:1017F000FCCF70E0D0E0CC0FDD1FCC0FDD1FCD5E45
:10180000DD4F882777FD8095982F0E94C032288170
:1018100039814A815B810E94AD330E949232CB01B3
:10182000DF91CF910C94D80B61E070E0E3CFCF93C0
:10183000DF930E94A60BC0914402D09145022097ED
:1018400009F468C080914602909147028C179D0769
:101850000CF04EC03091680820E0880F991F820F6D
:10186000931F45960E9433100E94EC0B309168083C
:1018700020E08091460290914702880F991F820FC5
:10188000931F44960E94331080930B0540914602AB
:10189000509147024F5F5F4F50934702409346027B
:1018A000609144027091450264177507F4F010923C
:1018B0006908282F30E040E050E060910705709102
:1018C00008058091090590910A050E94133820931C
:1018D0006A0830936B0840936C0850936D0887E159
:1018E0009CE090936F0880936E08DF91CF910895EC
:1018F00081E080936908109247021092460210928C
:101900004502109244020E94A60B10924302DF91FE
:10191000CF9108959091680880E042960E9433101C
:10192000809306059091680880E043960E943310EA
:10193000C82FD0E0D0934502C09344022091060501
:1019400030E040E050E060E879EA83E090E00E9417
:1019500013382093070530930805409309055093E9
:101960000A0570CF91E0909343029093690810921A
:101970006A0810926B0810926C0810926D0827E1AB
:101980003CE030936F0820936E088093680889E6E6
:1019900098E00C94EF2F1F920F920FB60F92112424
:1019A0008F939F93AF93BF9380914E0290914F027C
:1019B000A0915002B09151020196A11DB11D8093DA
:1019C0004E0290934F02A0935002B0935102BF91E8
:1019D000AF919F918F910F900FBE0F901F90189510
:1019E0000C94E43990E1899F90011124309399007F
:1019F0002093980090E1699F9001112430939D00FD
:101A000020939C0090E1499F9001112430939B000A
:101A100020939A0080937B0860937C0840937D0814
:101A2000089540917D08405860917C0860588091ED
:101A30007B0880580E94F20C80914802815080936C
:101A40004802811103C081E08093880808951092B4
:101A5000B90080E28093B80084E08093BC000895D0
:101A600084EA8093BC008091BC0087FFFCCF08957E
:101A700084E98093BC0008958093BB0084E8809340
:101A8000BC008091BC0087FFFCCF089584EC80935C
:101A9000BC008091BC0087FFFCCF8091BB00089503
:101AA00084E88093BC008091BC0087FFFCCF8091CC
:101AB000BB0008950E94300D8091B900887F883066
:101AC00011F081E0089588E30E943C0D8091B900F7
:101AD000887F8831B1F78DE00E943C0D8091B9007C
:101AE000887F883271F70E94300D8091B900887F1D
:101AF000803139F789E30E943C0D8091B900887FDD
:101B00008034F9F60E94500D8A32D9F68091B900DE
:101B1000887F8835B1F60E94380D0E94300D809183
:101B2000B900887F803169F688E30E943C0D80917E
:101B3000B900887F883129F68AE20E943C0D8091A5
:101B4000B900887F883209F0BCCF89E10E943C0D42
:101B50008091B900887F883209F0B3CF0E94380D98
:101B600080E008950E94300D8091B900887F883010
:101B700011F081E0089588E30E943C0D8091B90046
:101B8000887F8831B1F781E00E943C0D8091B900D7
:101B9000887F883271F70E94300D8091B900887F6C
:101BA000803139F789E30E943C0D8091B900887F2C
:101BB0008034F9F60E94460D382F20E030937908E2
:101BC000209378088091B900887F803591F60E9433
:101BD000460D2091780830917908282B30937908A8
:101BE000209378088091B900887F803511F60E9493
:101BF000460D382F20E03093800820937F08809195
:101C0000B900887F803509F0B4CF0E94460D20913D
:101C10007F0830918008282B3093800820937F081C
:101C20008091B900887F803509F0A3CF0E94460DCE
:101C3000382F20E030939B0820939A088091B900B8
:101C4000887F803509F095CF0E94500D20919A0829
:101C500030919B08282B30939B0820939A08809101
:101C6000B900887F883509F084CF0E94380D80E064
:101C70000895DF92EF92FF920F931F93CF93DF931C
:101C8000C82FD0917B0810917C0800917D08882393
:101C900021F1D02ED094E12EE094FD2EF0944D2D24
:101CA0006E2D8F2D0E94F20C2FEF81EE94E02150CB
:101CB00080409040E1F700C00000402F612F8D2F41
:101CC0000E94F20C2FEF81EE94E021508040904072
:101CD000E1F700C00000C15011F7DF91CF911F91D3
:101CE0000F91FF90EF90DF90089585E00C94390EEE
:101CF00090E0A0E0B0E08093890890938A08A093D8
:101D00008B08B0938C081092880881E19DE0909335
:101D10008E0880938D08660F6093480288E898E0EB
:101D20000C94EF2F94E19093770090917C00907E3B
:101D300090937C0090917C00982B90937C008091F4
:101D40007A00876C80937A0080917A0086FDFCCFC0
:101D50002091780030917900932F937080E0AC014E
:101D6000422B9A01C9010895CF93DF9380E88093B5
:101D7000610010926100F89480EF84B98BB1806E9D
:101D80008BB98091680081608093680080916B00BE
:101D9000826080936B0080916B00846080936B0005
:101DA00080916B00886080936B008FB780688FBFD5
:101DB00080917C00806C80937C008BE18AB98FE7F6
:101DC0008DB98FE383BB819A89988FE39CE9019752
:101DD000F1F700C0000082E00E94920EEC018198B1
:101DE000829A8A988FE39CE90197F1F700C000007E
:101DF00081E00E94920E8298C436D10524F4843684
:101E000091050CF44BC082E080937E0882E090E064
:101E1000909382088093810881E090E090938408F9
:101E2000809383083AEA3093800029E1209381006F
:101E30008FEF9FE09093870080938600309390000F
:101E40002093910090939700809396001092250123
:101E500010922401809173008260809373008091BE
:101E600021018C60809321018EE390E09093290101
:101E700080932801909327018093260184B7877F60
:101E800084BF809160008861809360001092600040
:101E90000E9489107894DF91CF91089583E0809318
:101EA0007E0884E090E0909382088093810883E02C
:101EB00090E09093840880938308B4CF0E94920EA0
:101EC000BC0180E090E00E94BE322DEC3CEC4CEC7A
:101ED0005FE30E94AD3320E030E040E85AE30E9427
:101EE000AD33089580E00E94920EBC0180E090E046
:101EF0000E94BE322DEC3CEC4CEC5FE30E94AD3313
:101F000020E030E040E85AE30E94AD332EE63BED9E
:101F100046EB5EE30E9425320895CF93DF93CDB761
:101F2000DEB72C970FB6F894DEBF0FBECDBF698722
:101F30007A878B879C8780914E0290914F02A09167
:101F40005002B091510289839A83AB83BC8329816B
:101F50003A814B815C8189859A85AB85BC85820FEE
:101F6000931FA41FB51F8D839E83AF83B887000086
:101F700020914E0230914F024091500250915102F7
:101F80008D819E81AF81B88582179307A407B5071D
:101F900078F72C960FB6F894DEBF0FBECDBFDF9159
:101FA000CF91089580916000886180936000809156
:101FB00060008D6080936000FFCFCF93DF93CDB73B
:101FC000DEB72F970FB6F894DEBF0FBECDBF0E94CD
:101FD000B40E0E94F6220E94270D0E945A0D811114
:101FE0002EC00E94C82C0E94A72C0E94E43981E0D8
:101FF0000E94390E198284E190E0A0E0B0E08A836B
:102000009B83AC83BD8387EE9CE19F838E83CE014F
:1020100001960E94EF2F4FEF60E080E00E94F20CEB
:102020000E9420220E9469300E94F72A0E94FD0827
:102030000E94312D0E947E0B0E949930F3CF8AE0DE
:102040000E94390ECECFF999FECF92BD81BD8FEFA0
:1020500080BD84E18FBBF99AF999FECF60BD84E21F
:102060008FBBF99A089520915302211103C0F8946F
:1020700020915302F999FECF92BD81BDF89A2111AA
:1020800001C0789480B50895EF92FF920F931F934B
:10209000CF93DF938C01141615066CF4EB017B01D2
:1020A000E40EF51E6991C8010E9423100F5F1F4FB7
:1020B000CE15DF05B9F7DF91CF911F910F91FF90FA
:1020C000EF900895EF92FF920F931F93CF93DF93BA
:1020D000F89421E0209353021416150684F4EB01C2
:1020E0007B01E40EF51E8C01061B170BC8018C0F3B
:1020F0009D1F0E9433108993CE15DF05B9F710920A
:1021000053027894DF91CF911F910F91FF90EF9040
:1021100008958F929F92AF92BF92CF92DF92EF92EB
:10212000FF920F931F93CF93DF93C0E0D0E08FE334
:10213000882E9FECC92E91E8D92E93E7E92E94E4DE
:10214000F92E03E819EF22E232E44FEF5FEFBA0114
:10215000AA24AA94BA2CE0E89E2E8BED9FE0A9E475
:10216000BFE38C9EF0018D9EF00D1124E356F74FD6
:1021700010821182128213821482C582D682E78273
:10218000F08601871287238734871586168617867F
:10219000108A128A118A148A138A158A168A178A53
:1021A000108E118E138E128E448F558F668F778FFF
:1021B000B1A2A0A292A286A397A3A0A7B1A717A697
:1021C00016A62196C330D10561F6DF91CF911F91FC
:1021D0000F91FF90EF90DF90CF90BF90AF909F90C6
:1021E0008F9008952F923F924F925F926F927F92BD
:1021F0008F929F92AF92BF92CF92DF92EF92FF9217
:102200000F931F93CF93DF93CDB7DEB72B970FB606
:10221000F894DEBF0FBECDBF1C0180916A028823F7
:1022200009F4A1C280916B02882309F47BC28091DA
:102230006A02813A09F481C285E080936A0249E228
:102240005CE56FEA7FE340936C0250936D0260930C
:102250006E0270936F0280916B02813A09F47AC228
:1022600085E080936B0249E25CE56FEA7FE340938F
:1022700070025093710260937202709373028091A6
:10228000740290917502892B09F487C181E02816A8
:10229000310409F4D7C024F0A4E02A1631042CF14B
:1022A0000E94750E00E010E0F0E8EF2EAFEBFA2E82
:1022B000602F712F8E2D9F2D2B960FB6F894DEBFB9
:1022C0000FBECDBFDF91CF911F910F91FF90EF9087
:1022D000DF90CF90BF90AF909F908F907F906F9046
:1022E0005F904F903F902F900895809181080E94B9
:1022F0005E0F6B017C01809183080E945E0F4B0191
:102300005C017090700240907102209072023090D7
:10231000730220E030E040E05FE3672D742D822DF2
:10232000932D0E94AD338B018B879A876E831F8319
:1023300088879987762F982F8A85272F312F492FC5
:10234000582FC701B6010E94B931562E7983682EE5
:102350009D83C62ED72EE82EF92E9B858A85202FA9
:10236000312F492F582FC501B4010E94B931862E53
:10237000972EA82EB92E8091760290917702813007
:10238000910509F4F1C2029709F46EC320E030E030
:1023900044EB53E4C701B6010E94AD33272D342D21
:1023A000422D532D0E942532382F292F862F972F0B
:1023B000A32FB22FBC01CD0190582BED3FE049E493
:1023C00050E40E94AD3320E030E044E353E40E9447
:1023D000253220910C0930910D0940910E09509140
:1023E0000F0908C02BED3FE049EC50E4602F712F3E
:1023F0008E2D9F2D0E94BA318B017C012BED3FE089
:1024000049E450EC712F9F2D0E941E3287FF0DC0B2
:10241000E9CF2BED3FE049EC50E4602F712F8E2D7A
:102420009F2D0E94B9318B017C012BED3FE049E4E7
:1024300050E4602F712F8E2D9F2D0E94A933181606
:1024400044F336CF86E00E945E0F6B017C0185E08D
:102450000E945E0F4B015C0170906C0240906D0217
:1024600020906E0230906F0220E030E040E05FE3A9
:10247000672D742D822D932D0E94AD338B018B8798
:102480009A876E831F8388879987762F982F8A85EE
:10249000272F312F492F582FC701B6010E94B9317C
:1024A000562E7983682E9D83C62ED72EE82EF92EC0
:1024B0009B858A85202F312F492F582FC501B401C4
:1024C0000E94B931862E972EA82EB92E80917402C3
:1024D000909175028130910509F453C1029709F476
:1024E000D0C120E030E044EB53E4C701B6010E94C4
:1024F000AD33272D342D422D532D0E942532382FF8
:10250000292F862F972FA32FB22FBC01CD019058D2
:102510002BED3FE049E450E40E94AD3320E030E091
:1025200044E353E40E9425322091CD083091CE0837
:102530004091CF085091D00808C02BED3FE049EC06
:1025400050E4602F712F8E2D9F2D0E94BA318B0188
:102550007C012BED3FE049E450EC712F9F2D0E9450
:102560001E3287FF0DC0E9CF2BED3FE049EC50E470
:10257000602F712F8E2D9F2D0E94B9318B017C0110
:102580002BED3FE049E450E4602F712F8E2D9F2DFD
:102590000E94A933181644F38BCE86E00E945E0F8A
:1025A0006B017C0120E030E040E05FE360916C0271
:1025B00070916D0280916E0290916F020E94AD3316
:1025C0009B01AC01C701B6010E94B9318B018D831B
:1025D0009983CB01AD81B9814C015D0185E00E94F9
:1025E0005E0F6B017C0120E030E040E05FE3609132
:1025F0006C0270916D0280916E0290916F020E9448
:10260000AD339B01AC01C701B6010E94B931462F21
:10261000572F682F792F2A013B0120E030E0A901D4
:10262000B8018D8199810E941E3287FDA6C220E0EB
:1026300030E0A901C301B2010E941E3287FD98C299
:10264000A3019201C501B4010E941E3287FD92C010
:1026500082E090E0909375028093740280918108EB
:102660000E945E0F6B017C0120E030E040E05FE300
:102670006091700270917102809172029091730268
:102680000E94AD339B01AC01C701B6010E94B93174
:102690008B018D839983CB01AD81B9814C015D01A3
:1026A000809183080E945E0F6B017C0120E030E086
:1026B00040E05FE36091700270917102809172025C
:1026C000909173020E94AD339B01AC01C701B6012A
:1026D0000E94B931462F572F682F792F2A013B01CD
:1026E00020E030E0A901B8018D8199810E941E325D
:1026F00087FD39C220E030E0A901C301B2010E9488
:102700001E3287FD2BC2A3019201C501B4010E94B4
:102710001E3287FF1CC281E090E090937702809385
:102720007602B4CD87E294E00E94331080936B026E
:1027300080916A02813A09F07FCD44E050E06CE676
:1027400072E082E294E00E94621080916B02813A12
:1027500009F086CD44E050E060E772E086E294E064
:102760000E9462108CCD87E294E00E943310809327
:102770006A0258CD81E090E09093750280937402D4
:102780006DCF20E030E0A901652D7981862D9D81F6
:102790000E941E3287FD38C2852D9981A62DBD81EC
:1027A00089839A83AB83BC832DEC3CEC4CE45FE3E0
:1027B000FB85EA85602F712F8F2F9E2F0E94AD33EE
:1027C0009B01AC0169817A818B819C810E94A93334
:1027D00018160CF086CEA5019401C701B6010E941F
:1027E000B9318B011C012B013C0120E030E0A90133
:1027F0000E941E3287FD16C29801A101B801C101D5
:102800000E94BA31762E472E1C01862F942DA22DC0
:10281000B32D80936C0290936D02A0936E02B093DF
:102820006F0280916A02813AC1F044E050E06CE6A8
:1028300072E082E294E00E94441081EA80936A028E
:1028400061EA87E294E00E94231070906C0240904D
:102850006D0220906E0230906F0282E090E09093C3
:1028600075028093740220E030E040E05FE3672D62
:10287000742D822D932D0E94AD336E837F838887C4
:10288000998720E030E0A901C501B4010E941E3201
:1028900087FDA2C189829A82AB82BC822DEC3CEC7E
:1028A0004CE45FE3BE81AF81E88519856B2F7A2FF9
:1028B0008E2F912F0E94AD339B01AC0169817A81EB
:1028C0008B819C810E94A93318160CF070C1A50160
:1028D0009401C701B6010E94B9318B013C01CB01C3
:1028E000D3014C015D0120E030E0A901B801C30132
:1028F0000E941E3287FD9CC19801A301B801C3014B
:102900000E94BA31762E472E1C01862F942DA22DBF
:10291000B32D80936C0290936D02A0936E02B093DE
:102920006F0280916A02813AC1F044E050E06CE6A7
:1029300072E082E294E00E94441081EA80936A028D
:1029400061EA87E294E00E94231070906C0240904C
:102950006D0220906E0230906F0281E090E09093C3
:10296000750280937402BDCD20E030E0A901652D91
:102970007981862D9D810E941E3287FD3DC1852D66
:102980009981A62DBD8189839A83AB83BC832DEC6D
:102990003CEC4CE45FE3FB85EA85602F712F8F2FC1
:1029A0009E2F0E94AD339B01AC0169817A818B819E
:1029B0009C810E94A93318160CF0E8CCA501940163
:1029C000C701B6010E94B9318B011C012B013C01EA
:1029D00020E030E0A9010E941E3287FD1DC1980150
:1029E000A101B801C1010E94BA31762E472E1C0107
:1029F000862F942DA22DB32D809370029093710297
:102A0000A0937202B093730280916B02813AC1F07D
:102A100044E050E060E772E086E294E00E944410F7
:102A200081EA80936B0261EA87E294E00E942310BE
:102A30007090700240907102209072023090730288
:102A400082E090E0909377028093760220E030E07D
:102A500040E05FE3672D742D822D932D0E94AD33EE
:102A60006E837F838887998720E030E0A901C501C4
:102A7000B4010E941E3287FDB7C089829A82AB8260
:102A8000BC822DEC3CEC4CE45FE3BE81AF81E88579
:102A900019856B2F7A2F8E2F912F0E94AD339B01BA
:102AA000AC0169817A818B819C810E94A9331816BF
:102AB0000CF068C0A5019401C701B6010E94B931AC
:102AC0008B013C01CB01D3014C015D0120E030E0E2
:102AD000A901B801C3010E941E3287FDAFC0980151
:102AE000A301B801C3010E94BA31762E472E1C0102
:102AF000862F942DA22DB32D809370029093710296
:102B0000A0937202B093730280916B02813AC1F07C
:102B100044E050E060E772E086E294E00E944410F6
:102B200081EA80936B0261EA87E294E00E942310BD
:102B30007090700240907102209072023090730287
:102B400081E090E090937702809376021FCC82E040
:102B500090E0909377028093760298CB77FA709406
:102B600077F87094D0CDB7FAB094B7F8B094C2CDDE
:102B700077FA709477F8709463CDB7FAB094B7F899
:102B8000B09455CD20E030E044EB53E4C501B401EE
:102B90000E94AD33272D342D422D532D0E94253216
:102BA00020E030E044E353E40E94BA31FDCB20E062
:102BB00030E044EB53E4C501B4010E94AD33272D4E
:102BC000342D422D532D0E94253220E030E044E385
:102BD00053E40E94BA3193CCD501C401B058898323
:102BE0009A83AB83BC835ACED501C401B058898384
:102BF0009A83AB83BC8345CFD701C601B058898384
:102C00009A83AB83BC83C3CED701C601B0588983F6
:102C10009A83AB83BC83C8CDC301B20190589B019A
:102C2000AC01E1CEC301B20190589B01AC01E8CDEB
:102C3000C501B40190589B01AC0162CEC501B4013D
:102C400090589B01AC014FCFCF92DF92EF92FF9251
:102C5000CF93DF93EC016A017B0180917E08823083
:102C6000B1F18330D1F122E93AE046E050E4C70106
:102C7000B6010E94A933181604F121978FE38C9FA7
:102C8000F0018D9FF00D1124E356F74FC6A2D7A295
:102C9000E0A6F1A683E080838FEF9FEFDC01848FB5
:102CA000958FA68FB78F20E030E0C901DF91CF91DB
:102CB000FF90EF90DF90CF90089521E030E0C901C0
:102CC000DF91CF91FF90EF90DF90CF900895C230C9
:102CD000D10549F62FEF3FEFE8CFC330D10519F604
:102CE000F9CF9C0121503109AFE3A29FF001A39FCE
:102CF000F00D1124E356F74F2589223041F0215081
:102D0000223030F046A357A360A771A708957058EA
:102D10000C94241620917E082230F9F0233019F10A
:102D200001972FE3289FF001299FF00D1124E3560E
:102D3000F74F82E080834183528363837483128AD6
:102D4000118A8AEF90E0A0E0B0E0848F958FA68F83
:102D5000B78F20E030E0C90108958230910501F776
:102D60002FEF3FEFF8CF83309105D1F6F9CF2F92B7
:102D70003F924F925F926F927F928F929F92AF920B
:102D8000BF92CF92DF92EF92FF920F931F93CF9358
:102D9000DF93CDB7DEB72C970FB6F894DEBF0FBE2A
:102DA000CDBF1C014A015B016801790100917E08D9
:102DB000023009F4FCC0033009F400C120E030E027
:102DC000A901C701B6010E941E32882309F4C3C0BD
:102DD000C10101972FE3289FD001299FB00D112435
:102DE000A356B74FBA87A9879A964D905D906D907C
:102DF0007C909D97A3019201C501B4010E94B93155
:102E00006983172F8A839B8320E030E0A9010E9409
:102E10001E3287FDA3C025E33AEF4EE85DE3B9819A
:102E2000EA81FB816B2F712FCF010E941E3287FD3B
:102E3000A4C020E030E0A901C701B6010E941E3203
:102E400087FDCBC0A7019601B9810A813B806B2F1A
:102E5000712F802F932D0E94253220E030E04AE729
:102E600054E40E94AD336C83272E382E092F20E0C6
:102E700030E0A901B981EA81FB816B2F712FCF016D
:102E80000E94A93318160CF0DCC0A985BA85969665
:102E9000CD92DD92ED92FC929997A985BA85119613
:102EA0004D925D926D927C921497FD011586168667
:102EB0001786108A20E030E040EA51E4BC816B2F95
:102EC000722D832D902F0E9425328B013C01CB0166
:102ED000D3016C017D0120E030E0A901B801C301FC
:102EE0000E941E3287FDA7C0B801C3010E948D3227
:102EF000CB01AA2797FDA095BA2FE985FA85848F83
:102F0000958FA68FB78F128A118A868A978AA08E8C
:102F1000B18E81E090E0938F828F83E0808320E008
:102F200030E0C9012C960FB6F894DEBF0FBECDBFBE
:102F3000DF91CF911F910F91FF90EF90DF90CF9095
:102F4000BF90AF909F908F907F906F905F904F90C9
:102F50003F902F90089520E030E0E3CF25E33AEF53
:102F60004EE85DEBB981EA81FB816B2F712FCF01B8
:102F70000E94A93318160CF05CCF023049F10330DF
:102F800011F182E0A985BA858C93FD01818292823C
:102F9000A382B482128A118A8AEF90E0A0E0B0E0A6
:102FA000848F958FA68FB78F20E030E0BACF823024
:102FB000910509F003CF2FEF3FEFB3CF8330910599
:102FC00009F0FCCEF8CFE3E02E163104D1F6F3CFB2
:102FD000B2E02B163104A9F6EECFD701C601B058E6
:102FE0008D839E83AF83B8879C01AD01B9810A812F
:102FF0003B806B2F712F802F932D0E94253220E074
:1030000030E04AE754E40E94AD336C83272E382E1B
:10301000092F20E030E0A901B981EA81FB816B2F03
:10302000712FCF010E94A93318167CF4CD80DE8069
:10303000EF80F8842ACFC701B60190580E948D32E4
:1030400057CFF7FAF094F7F8F094E985FA85C6A21D
:10305000D7A2E0A6F1A621CF2F923F924F925F9286
:103060006F927F928F929F92AF92BF92CF92DF9298
:10307000EF92FF920F931F93CF93DF93CDB7DEB7FD
:103080002C970FB6F894DEBF0FBECDBF1C014A01CE
:103090005B016801790100917E08023009F412C1D8
:1030A000033009F416C120E030E0A901C701B601E0
:1030B0000E941E32882309F4D9C0C10101972FE371
:1030C000289FD001299FB00D1124A356B74FBA876E
:1030D000A9879A964D905D906D907C909D979E9655
:1030E0006D917C919F97882777FD8095982F0E94FE
:1030F000C0322BED3FE049EC50E40E94AD339B0120
:10310000AC01C301B2010E94BA319B01AC01C501FF
:10311000B4010E94B9316983172F8A839B8320E011
:1031200030E0A9010E941E3287FDA3C025E33AEFDB
:103130004EE85DE3B981EA81FB816B2F712FCF01EE
:103140000E941E3287FDA4C020E030E0A901C70123
:10315000B6010E941E3287FDCBC0A7019601B9813E
:103160000A813B806B2F712F802F932D0E94253277
:1031700020E030E04AE754E40E94AD336C83272E10
:10318000382E092F20E030E0A901B981EA81FB81C6
:103190006B2F712FCF010E94A93318160CF0DCC0E1
:1031A000A985BA859696CD92DD92ED92FC9299977B
:1031B000A985BA8511964D925D926D927C92149775
:1031C000FD01158616861786108A20E030E040EA59
:1031D00051E4BC816B2F722D832D902F0E942532DC
:1031E0008B013C01CB01D3016C017D0120E030E07B
:1031F000A901B801C3010E941E3287FDA7C0B80112
:10320000C3010E948D32CB01AA2797FDA095BA2F4A
:10321000E985FA85848F958FA68FB78F128A118AD8
:10322000868A978AA08EB18E81E090E0938F828FFC
:1032300083E0808320E030E0C9012C960FB6F8943B
:10324000DEBF0FBECDBFDF91CF911F910F91FF90D9
:10325000EF90DF90CF90BF90AF909F908F907F9036
:103260006F905F904F903F902F90089520E030E056
:10327000E3CF25E33AEF4EE85DEBB981EA81FB81CC
:103280006B2F712FCF010E94A93318160CF05CCF61
:10329000023049F1033011F182E0A985BA858C939F
:1032A000FD0181829282A382B482128A118A8AEFFE
:1032B00090E0A0E0B0E0848F958FA68FB78F20E0DC
:1032C00030E0BACF8230910509F0EDCE2FEF3FEF1D
:1032D000B3CF8330910509F0E6CEF8CFE3E02E16A8
:1032E0003104D1F6F3CFB2E02B163104A9F6EECFBC
:1032F000D701C601B0588D839E83AF83B8879C01E8
:10330000AD01B9810A813B806B2F712F802F932DE6
:103310000E94253220E030E04AE754E40E94AD33B9
:103320006C83272E382E092F20E030E0A901B981C7
:10333000EA81FB816B2F712FCF010E94A9331816F0
:103340007CF4CD80DE80EF80F8842ACFC701B601FF
:1033500090580E948D3257CFF7FAF094F7F8F09416
:10336000E985FA85C6A2D7A2E0A6F1A621CF2F92C1
:103370003F924F925F926F927F928F929F92AF9205
:10338000BF92CF92DF92EF92FF920F931F93CF9352
:10339000DF93CDB7DEB72B970FB6F894DEBF0FBE25
:1033A000CDBF9B838A834A015B01680179018091CB
:1033B0007E088983823009F437C1B981B33009F4BA
:1033C0003BC18A819B8101972FE3289F1001299F90
:1033D000300C11248DE998E0280E391ED1019A96FF
:1033E0004D905D906D907C909D97A3019201C501D9
:1033F000B4010E94B9310CC02BED3FE049EC50E420
:10340000FB85EA85602F712F8F2F9E2F0E94BA3186
:103410008B018B879A872BED3FE049E450EC712FAD
:103420000E941E3287FDE8CF2BED3FE049E450E4D7
:10343000B02FA12FFB85EA8517C02BED3FE049ECAB
:1034400050E4FB85EA85602F712F8F2F9E2F0E94FD
:10345000B9318B018B879A872BED3FE049E450E42B
:10346000B62FA12FF82FE92F6B2F7A2F8F2F9E2F9A
:103470000E94A93318160CF320E030E0A901FB8567
:10348000EA85602F712F8F2F9E2F0E941E3287FD9D
:103490009FC025E33AEF4EE85DE3FB85EA85602FA8
:1034A000712F8F2F9E2F0E941E3287FDA0C020E01B
:1034B00030E0A901C701B6010E941E3287FDC2C0DB
:1034C000A7019601FB85EA85602F712F8F2F9E2F14
:1034D0000E94253220E030E04AE754E40E94AD33F8
:1034E00069837A838C839D8320E030E0A901FB858A
:1034F000EA85602F712F8F2F9E2F0E94A9331816F7
:103500000CF0D9C0D1019696CD92DD92ED92FC924D
:103510009997D10111964D925D926D927C9214977C
:10352000F101158616861786108A20E030E040EA01
:1035300051E4B981AA81EC811D816B2F7A2F8E2FE6
:10354000912F0E9425328B013C01CB01D3016C01EC
:103550007D0120E030E0A901B801C3010E941E32C4
:1035600087FDA3C0B801C3010E948D32CB01AA27F9
:1035700097FDA095BA2FF101848F958FA68FB78FF5
:10358000128A118A868A978AA08EB18E81E090E095
:10359000938F828F83E0808320E030E0C9012B96F7
:1035A0000FB6F894DEBF0FBECDBFDF91CF911F9154
:1035B0000F91FF90EF90DF90CF90BF90AF909F90D2
:1035C0008F907F906F905F904F903F902F900895D5
:1035D00025E33AEF4EE85DEBFB85EA85602F712F1E
:1035E0008F2F9E2F0E94A93318160CF060CFB9813F
:1035F000B23009F454C0F981F33009F466C082E0B6
:10360000D1018C93F10181829282A382B482128AC9
:10361000118A8AEF90E0A0E0B0E0848F958FA68FAA
:10362000B78F20E030E0BACFAA81BB81129709F0B2
:10363000C8CE2FEF3FEFB2CFEA81FB81339709F07D
:10364000C0CEF7CFD701C601B0588E839F83A8871D
:10365000B9879C01AD01FB85EA85602F712F8F2F03
:103660009E2F0E94253220E030E04AE754E40E9479
:10367000AD3369837A838C839D8320E030E0A90198
:10368000FB85EA85602F712F8F2F9E2F0E94A93313
:103690001816ACF4CE80DF80E884F98433CFEA8159
:1036A000FB81329709F0ABCFC4CFC701B601905868
:1036B0000E948D325BCFF7FAF094F7F8F094F101A5
:1036C000C6A2D7A2E0A6F1A624CF8A819B81039748
:1036D00009F095CFAECF20917E08223049F12330FA
:1036E00091F101972FE3289FF001299FF00D1124FC
:1036F000E356F74F2081223001F1233021F02130B1
:1037000011F080E008952FE3289FF001299FF00D2C
:103710001124E356F74F20E030E0A90166A177A11C
:1037200080A591A50E94A93318168CF481E0089514
:1037300082309105B1F68FEF089581899289892BA6
:10374000A9F383E008958330910559F6F4CF82E020
:1037500008956235A9F0633581F0663459F0A09878
:10376000A19820E1829FC001112490938900809349
:1037700088000895A09AA198F4CFA09AA19AF1CFB9
:10378000A098A19AEECF6235A9F0633581F0663436
:1037900059F0A298A59820E1829FC001112490932E
:1037A0008B0080938A000895A29AA598F4CFA29ADC
:1037B000A59AF1CFA298A59AEECF0F931F938A01F5
:1037C0009B0177FD2AC0F8010F3F110519F010F099
:1037D000EFEFF0E08130910599F07CF004976CF404
:1037E000411551056105710561F177FD30C066E451
:1037F0008E2F1F910F910C94C31B1F910F91089551
:103800004115510561057105B1F077FD0EC066E403
:103810008E2F1F910F910C94A91B0027112798013F
:10382000041B150B260B370BCECF62E58E2F1F9195
:103830000F910C94A91B6EE48E2F1F910F910C9485
:10384000A91B6EE48E2F1F910F910C94C31B62E590
:103850008E2F1F910F910C94C31BCF92DF92EF928A
:10386000FF920F931F93CF93DF93EC018C010150D4
:1038700011098FE3809FF001819FF00D1124E35621
:10388000F74F8589813009F44EC0823011F18823C9
:1038900009F489C08330F1F580818230A9F1833049
:1038A00009F490C08FE3809FF001819FF00D1124F7
:1038B000E356F74F42A553A564A575A5CE01DF9148
:1038C000CF911F910F91FF90EF90DF90CF900C94CC
:1038D0008A16C6A0D7A0E0A4F1A420E030E0A90198
:1038E000C701B6010E941E328823A1F020E030E01B
:1038F000A901C701B6010E941E3287FD2AC0F7FA4E
:10390000F094F7F8F09425C081899289892B51F2BF
:10391000148A138ADF91CF911F910F91FF90EF903E
:10392000DF90CF900895C6A0D7A0E0A4F1A420E036
:1039300030E0A901C701B6010E941E32882351F36D
:1039400020E030E0A901C701B6010E941E3287FDC8
:10395000D6CF8FE3809FF001819FF00D1124E356B5
:10396000F74FC6A2D7A2E0A6F1A683E080834FEF6F
:103970005FEFBA01448F558F668F778F42A553A5AD
:1039800064A575A54183528363837483B701A6013F
:10399000CE01DF91CF911F910F91FF90EF90DF90BB
:1039A000CF900C942416108240E050E0BA01CE0172
:1039B000DF91CF911F910F91FF90EF90DF90CF900B
:1039C0000C94DD1B418152816381748177CF2F92EA
:1039D0003F924F925F926F927F928F929F92AF929F
:1039E000BF92CF92DF92EF92FF920F931F93CF93EC
:1039F000DF93CDB7DEB769970FB6F894DEBF0FBE81
:103A0000CDBF80917E081DE9612E18E0712E02EB7A
:103A1000C02E08E0D02E2AE532E03A832983AFEBAE
:103A2000B8E0B887AF83E1EDF8E0FC83EB8322EDEB
:103A300038E03E832D8301E010E092E0E92EF12C86
:103A40007B8A6A8A280187013601823009F4C1C164
:103A5000833029F483E04816510409F4A1C1180108
:103A600092E0291A3108C2010E94F210D301559642
:103A70006D937D938D939C935897EB81FC81719707
:103A800080811F966D917C915097680F711D8827DA
:103A900077FD8095982F0E94C03220E030E042E50B
:103AA00053E40E94B9310E948D32F301708B678715
:103AB00077FDD3C1882777FD8095982F0E94C0326B
:103AC00020E034E14DEC57E40E94A93318160CF4C1
:103AD000AAC1D3015596CD90DD90ED90FC905897FA
:103AE00020E030E040E450ECC701B6010E941E32F5
:103AF00087FF2CC120E030E040E450E4E981FA8106
:103B000060817181828193810E94A93318160CF023
:103B10001DC1D30159968D919C915A9701965A9641
:103B20009C938E935997E981FA81C082D182E28277
:103B3000F382AA89BB898C91823009F491C108F47F
:103B40007FC1833009F4B4C2843009F072C160913E
:103B50004E0270914F0280915002909151020E944A
:103B6000BE3220E030E04AE754E40E9425326E87FE
:103B70007B878F879C87ED81FE816081772767FD3A
:103B80007095872F972F0E94C03220E030E040E0F0
:103B90005CE30E94AD3320E030E040EA50E40E9454
:103BA000AD3320E030E040E05FE30E94AD337D873D
:103BB0004C01FFE3F29D6001F39DD00C112428ED30
:103BC00038E0C20ED31EAA24A394B12C198B088B03
:103BD0007501D98EC88E7D8A6C8A5F8A4E8AD62EF0
:103BE000C72E782E592C6E844F84888D998D9A8794
:103BF0008987B701882777FD8095982F0E94C0326A
:103C00002BED3FE049EC50E40E94AD33AB851C85C1
:103C1000262D3A2F442D512F0E94AD3320E030E065
:103C200040E251E40E9425328B011C01712F932D3B
:103C30000E9410344B015C01E88DF98D359760814D
:103C4000772767FD7095872F972F0E94C03220E05D
:103C500030E040E05CE30E94AD3320E030E040EA39
:103C600050E40E94AD33A50194010E94AD33D6010A
:103C70002B2F3C2D472D552D0E94BA31562E772ED5
:103C80006C01A88DB98D1196B98FA88F602F712FF7
:103C9000822D932D0E9422324B015C01E985FA8529
:103CA0006081772767FD7095872F972F0E94C0321C
:103CB00020E030E040E05CE30E94AD3320E030E003
:103CC00040EA50E40E94AD33A50194010E94AD3357
:103CD000252D372D4C2D5D2D0E94BA31D62EC72EA5
:103CE000782E592EFFEFEF1AFF0A25E0E216F104B5
:103CF00009F07BCF0889198969877D876C887D8861
:103D0000992E4E885F889601982F432F522F692F46
:103D1000792DAA89BB8911964D935D936D937C9300
:103D2000149752961C921E9251978FEF9FEFDC01D1
:103D3000EA89FB89848F958FA68FB78FD30155961B
:103D4000CD90DD90ED90FC905897A8C020E030E039
:103D500040E450E4C701B6010E94A93318160CF0E4
:103D6000E2CE20E030E040E450ECE981FA8160816D
:103D70007181828193810E941E3287FFD4CED3014C
:103D800059968D919C915A9701975A969C938E9330
:103D900059975596CD90DD90ED90FC905897C3CEF5
:103DA00069960FB6F894DEBF0FBECDBFDF91CF91FD
:103DB0001F910F91FF90EF90DF90CF90BF90AF9049
:103DC0009F908F907F906F905F904F903F902F903B
:103DD000089532E04316510409F041CE0F5F1F4FA2
:103DE000AA89BB89DF96BB8BAA8BBFE36B0E711CC4
:103DF000EFEF4E1A5E0A29813A812C5F3F4F3A83DA
:103E00002983AF81B885DF96B887AF83EB81FC81CA
:103E1000FF96FC83EB832D813E81215C3F4F3E83E7
:103E20002D8313CE108240E050E0BA01C2010E94FF
:103E3000DD1B0430110509F4B3CF80917E08CECF8D
:103E4000882309F41AC18130A1F7F301808181111F
:103E500058C2AA89BB891C92ECCF108A178639CE2A
:103E6000EA89FB89448D558D668D778D4115510505
:103E70006105710509F4ADC08CF04150510961092B
:103E80007109AA89BB895C964D935D936D937C9370
:103E90005F97F301C588D688E788F08CA701960163
:103EA000AA89BB8911966D917D918D919C911497F2
:103EB0000E94B931862E972EA82EB92E2BED3FE009
:103EC00049E450EC0E941E3287FF18C0EA88FB8844
:103ED0002BED3FE049EC50E4C501B4010E94BA313A
:103EE000862E972EA82EB92E2BED3FE049E450ECFC
:103EF0000E941E3287FDECCFFB8AEA8A2BED3FE061
:103F000049E450E4C501B4010E94A9331816C4F471
:103F1000EA88FB882BED3FE049EC50E4C501B40191
:103F20000E94B931862E972EA82EB92E2BED3FE098
:103F300049E450E40E94A933181664F3FB8AEA8A24
:103F400020E030E0A901C501B4010E941E3287FDC6
:103F5000B8C125E33AEF4EE05DE3C501B4010E942C
:103F60001E3287FDB9C1AA89BB8951968D919C915A
:103F70005297892BE9F120E030E0A901C501B40195
:103F80000E941E3287FDF1C1C501B4012091560285
:103F90003091570240915802509159020E94A93322
:103FA000181634F5EB81FC8120812F5F208330E0EF
:103FB000809154029091550282179307E0F4AA89E8
:103FC000BB891C9240E050E0BA01C2010E94DD1B97
:103FD00030CF81899289892B09F424CF8FEF9FEF0D
:103FE000DC01EA89FB89848F958FA68FB78F21CF5B
:103FF000EB81FC811082AA89BB8915962D913D9198
:104000004D915C911897C501B4010E94AD336B01CD
:104010007C01EA89FB89258536854785508961853C
:104020007285838594850E94AD339B01AC01C701E5
:10403000B6010E94BA310E948D32AB01BC01C201AF
:104040000E94DD1B2AE037ED43EA5CE3C501B401C1
:104050000E94AD339B01AC01AA89BB891D966D916D
:104060007D918D919C9150970E94BA31EA89FB898C
:10407000658776878787908BDCCEEA89FB89448DBC
:10408000558D668D778D411551056105710509F4D2
:1040900049C10CF4CECE4150510961097109AA8978
:1040A000BB895C964D935D936D937C935F97C1CE76
:1040B000AA89BB895C964D915D916D917C915F97CA
:1040C0004115510561057105E9F5E1E0F0E0529611
:1040D000FC93EE9351971D961D921D921D921C927A
:1040E0005097F30114861386F2E0FC935A968D9153
:1040F0009C915B97892B59F0FD0186899789A08D4A
:10410000B18D81839283A383B483138E128EEFEFDC
:10411000FFEFD3011C96FC93EE931B97AA89BB89F2
:1041200053968D919C915497892B09F457CF82E334
:1041300090E0A0E0B0E0EA89FB89848F958FA68F9C
:10414000B78F77CE141615061606170664F441507D
:10415000510961097109AA89BB895C964D935D93E8
:104160006D937C935F972AE037ED43EA5CE3F301BC
:1041700061897289838994890E94AD33AA89BB8938
:1041800011962D913D914D915C9114970E94BA31F9
:10419000FB01462F5F2F682F792FAA89BB891196C3
:1041A0004D935D936D937C931497D30155962D9108
:1041B0003D914D915C915897BF010E94B931862E77
:1041C000972EA82EB92E2BED3FE049E450EC0E942B
:1041D0001E3287FF18C0EA88FB882BED3FE049ECD0
:1041E00050E4C501B4010E94BA31862E972EA82E44
:1041F000B92E2BED3FE049E450EC0E941E3287FDC2
:10420000ECCFFB8AEA8A2BED3FE049E450E4C5019C
:10421000B4010E94A9331816C4F4EA88FB882BED78
:104220003FE049EC50E4C501B4010E94B931862E4B
:10423000972EA82EB92E2BED3FE049E450E40E94C2
:10424000A933181664F3FB8AEA8A20E030E0A9015A
:10425000C501B4010E941E327501640187FD80C052
:1042600060915602709157028091580290915902C4
:104270009B01AC010E94BA319B01AC01C701B601A0
:104280000E94A933EB81FC8118160CF05DC02081DF
:104290002F5F208330E08091540290915502821765
:1042A000930708F0C6CDAA89BB891C925B961C9225
:1042B0001E925A9740E050E0BA01C2010E94DD1BF5
:1042C000B8CD25E33AEF4EE05DEBC501B4010E94A5
:1042D000A93318160CF047CE21E030E0EA89FB89BB
:1042E000328B218B83899489892B09F09BCD8FEFA9
:1042F0009FEFDC01EA89FB89848F958FA68FB78FAA
:1043000032CE813019F1AF81B8854C9150E0519592
:1043100041955109662757FD6095762FC2010E948D
:10432000DD1B87CDD3011B968C911B978C93C2010B
:104330000E942D1C8FEF9FEFDC01EA89FB89848F9F
:10434000958FA68FB78F75CD108255CEEF81F885EA
:10435000408150E060E070E0C2010E94DD1B69CD49
:10436000F7FAF094F7F8F0947BCFC501B4019058B8
:104370000DCE10929D081092B2081092DC08109297
:10438000F10810921B09109230096EE480E00E943F
:10439000A91B6EE480E00C94C31BAF92BF92CF9236
:1043A000DF92EF92FF920F931F93CF93DF93809151
:1043B0009D08811139C08091DC08811135C0809140
:1043C0001B09811131C023ECA22E28E0B22EC0E0DF
:1043D000D0E03BEDC32E3FE0D32E39E4E32E3FE3A4
:1043E000F32EF501C082D182E282F382118610861B
:1043F00021960BED1FE029E43FE340E050E0BA01D5
:10440000CE010E94B716FFE3AF0EB11CC330D10539
:1044100041F7DF91CF911F910F91FF90EF90DF90C7
:10442000CF90BF90AF900895DF91CF911F910F91E2
:10443000FF90EF90DF90CF90BF90AF900C94B92198
:104440006F927F928F929F92AF92BF92CF92DF92A4
:10445000EF92FF920F931F93CF93DF9300D000D082
:10446000CDB7DEB780E190E00E943310813A09F4C5
:1044700056C05DEC652E58E0752E812C912CAA2437
:10448000A394B12C75E0C72ED12CCC0EDD1EC50136
:104490000E94F210DC01CB01B05889839A83AB8370
:1044A000BC83F30180839183A283B383EE24E394DE
:1044B000F12CEC0EFD1E8401F70161917F01C80112
:1044C0000E9423100F5F1F4FEC14FD04A9F7FFEFAC
:1044D000AF1ABF0A8FE3680E711C94E0890E911C1D
:1044E000E4E0AE16B10499F661EA80E190E00E9442
:1044F000231021E030E0C9010F900F900F900F9032
:10450000DF91CF911F910F91FF90EF90DF90CF90AF
:10451000BF90AF909F908F907F906F900895C12C27
:10452000D12CA12CB12CEFE39E2E9A9C70019B9C68
:10453000F00C11248DEC98E0E80EF91E00E010E07C
:10454000C8018C0D9D1D0E943310F70181937F01DE
:104550000F5F1F4F0430110599F7FFEFAF1ABF0A25
:1045600084E0C80ED11C93E0A916B104F1F620E056
:1045700030E0C1CF1092CD081092CE081092CF0833
:104580001092D00810920C0910920D0910920E0989
:1045900010920F0910924B0910924C0910924D097C
:1045A00010924E0960EA80E190E00E94231060EAD8
:1045B00087E294E00E94231060EA87E294E00E9480
:1045C00023100E94202280E090E0089510927D0246
:1045D00010927C0210927B0210927A021092790261
:1045E0001092780261E084E60C94780E0F931F938A
:1045F000CF93DF9381E090E09093CD008093CC0047
:104600001092C80088E98093C90080E890E00E9479
:10461000573880939A0A90939B0A80E890E00E9412
:1046200057388C0190939D0A80939C0AC0E0D0E09B
:1046300004C000919C0A10919D0A84E090E00E94C1
:104640005738F801EC0FFD1F808391832296C03804
:10465000D10579F71092990ADF91CF911F910F91AF
:1046600008951F920F920FB60F9211240BB60F925E
:104670001BBE2F933F934F938F939F93EF93FF9383
:104680004091CE00809178029091790220917A0237
:1046900030917B02820F931F907897FD1BC0FC0125
:1046A000E756F64F408380917A0290917B02019603
:1046B00090937B0280937A02FF91EF919F918F916B
:1046C0004F913F912F910F900BBE0F900FBE0F9007
:1046D0001F90189501979F6F0196E1CF1616170648
:1046E0006CF4FC01680F791F91918091C80085FFDF
:1046F000FCCF9093CE00E617F707B1F70895CF935C
:10470000DF93EB01FC01308130931B06362F3A5FBB
:1047100030931C0650931D0640931E0620931F06DF
:1047200020E236E0AB01BC01C9010E94DF3AC55E60
:10473000D94F81E18D838BE196E0DF91CF91089590
:10474000CF93DF93EB0120E120931B07262F2D5FF2
:1047500020931C072DE137E0AB01BC01C9010E9489
:10476000DF3AC55ED84F81E18A838BE197E0DF9124
:10477000CF9108952F923F926F927F928F929F9246
:10478000AF92BF92CF92DF92EF92FF920F931F935F
:10479000CF93DF931C01680F791FFB013197808154
:1047A00081112EC0D1010C91023431F0A8F50233F1
:1047B00048F1063308F06EC080917E08833089F19D
:1047C000823009F45DC08FEF80931B0883E08093F3
:1047D0001C0881E180931D08CBE1D8E0CE01DF9178
:1047E000CF911F910F91FF90EF90DF90CF90BF90EE
:1047F000AF909F908F907F906F903F902F900895F3
:10480000F101008110E0F801F097EE33F105D8F6E0
:10481000E057FF4F0C945138802F8454833090F729
:10482000CBCFF1019281923068F39FEF90931B08F8
:1048300080931C0881E180931D08CBE1D8E0CECFA6
:10484000D10112969C91129780E013962C91822BA5
:104850000E94D80B60E070E080E090E0DF91CF91A3
:104860001F910F91FF90EF90DF90CF90BF90AF908E
:104870009F908F907F906F903F902F900C94A023EB
:10488000D10112968C91882309F4BCCF823009F0B3
:104890009ACFB8CF0E3309F0B5CF8ECF8FE5809386
:1048A0001B0889E080931C088091970890919808D4
:1048B00090931D08809197089091980880931E0806
:1048C0008091490290914A02A0914B02B0914C0212
:1048D00080931F0890932008A0932108B09322088A
:1048E00010922308CBE1D8E079CFF101C380D480C6
:1048F000E580F68022E93AE046E050E4C701B601DF
:104900000E94A93318160CF407C622E93AE046E0E3
:1049100050ECC701B6010E941E3287FF08C0D2E9E1
:10492000CD2EDAE0DD2ED6E0ED2ED0ECFD2ED1013D
:1049300012968C9190E0B701A60101960E94711623
:1049400060E070E080E090E089CFD1011296EC91B8
:10495000BFE3EB9FF0011124E356F74FC2A4D3A4A9
:10496000E4A4F5A466A577A5882777FD8095982F00
:104970000E94C0322BED3FE049EC50E40E94AD3381
:104980009B01AC01C701B6010E94BA3160931B08BC
:1049900070931C0880931D0890931E0864E070E0DB
:1049A0008BE198E05BCF40914E0250914F026091B5
:1049B00050027091510240931B0850931C08609361
:1049C0001D0870931E08D1011296EC91BFE3EB9F76
:1049D000F0011124E356F74F82A593A5A4A5B5A530
:1049E00080931F0890932008A0932108B093220879
:1049F00068E070E0D5CFF101828190E001960E94DD
:104A00006B1B80931B0861E070E0CACF82E99AE0DB
:104A1000A6E0B0E480931B0890931C08A0931D08A7
:104A2000B0931E0864E070E0BBCFD10112968C9168
:104A30000E945E0F60931B0870931C0880931D08F2
:104A400090931E0864E070E0ABCF80915602909185
:104A50005702A0915802B091590280931B0890937D
:104A60001C08A0931D08B0931E0864E070E098CF66
:104A7000F10182819381A481B58180935602909344
:104A80005702A0935802B093590260E070E080E0B2
:104A900090E0E4CE809154029091550224E1289F49
:104AA000B001299F700D112480E090E00E94BE3279
:104AB00020E030E04AE754E40E94253260931B086E
:104AC00070931C0880931D0890931E0864E070E0AA
:104AD00067CFD10112966D917D918D919C91159723
:104AE00020E030E04AE754E40E94AD3320E030E0BB
:104AF00040EA51E40E9425320E949232709355029E
:104B00006093540260E070E080E090E0A7CE0E94E5
:104B1000B92160E070E080E090E0A0CE8FE3809368
:104B20001B0861E070E03CCFF101668184E60E94E1
:104B3000780E60E070E080E090E090CE81E0D101FE
:104B400012969C91911101C080E080930D0260E06B
:104B500070E080E090E082CE1092CC081092CB08FA
:104B600010920B0910920A0910924A0910924909F1
:104B700060E070E080E090E071CED10112964D913E
:104B80005D916D917C91159781E090E00E948A166D
:104B9000F101468157816085718582E090E00E9435
:104BA0008A16D1011A964D915D916D917C911D9758
:104BB00083E090E00E948A1660E070E080E090E080
:104BC0004DCE8091C7089091C808A091C908B091B6
:104BD000CA0880931B0890931C08A0931D08B093EB
:104BE0001E088091060990910709A0910809B091CB
:104BF000090980931F0890932008A0932108B0937F
:104C000022088091450990914609A0914709B091E9
:104C100048098093230890932408A0932508B09313
:104C2000260860E170E0BCCE07EC18E0C0E0D0E000
:104C3000D801CD90DD90ED90FC901397FBE1AF2E65
:104C4000F8E0BF2EAC0EBD1E14966D917C911597A9
:104C5000882777FD8095982F0E94C0322BED3FE08A
:104C600049EC50E40E94AD339B01AC01C701B60191
:104C70000E94BA31F5016083718382839383015C62
:104C80001F4F2496C031D10599F660E170E088CEBF
:104C900080914E0290914F02A0915002B09151022A
:104CA00080931B0890931C08A0931D08B0931E08C6
:104CB0008091C7089091C808A091C908B091CA080E
:104CC00080931F0890932008A0932108B093220896
:104CD0008091060990910709A0910809B0910909EE
:104CE0008093230890932408A0932508B093260866
:104CF0008091450990914609A0914709B0914809D2
:104D00008093270890932808A0932908B0932A0835
:104D100064E170E045CE80914E0290914F02A091E7
:104D20005002B091510280931B0890931C08A093ED
:104D30001D08B0931E0807EC18E0C4E0D0E0D801CD
:104D4000CD90DD90ED90FC901397EBE1AE2EE8E076
:104D5000BE2EAC0EBD1E14966D917C9115978827C2
:104D600077FD8095982F0E94C0322BED3FE049ECF3
:104D700050E40E94AD339B01AC01C701B6010E9413
:104D8000BA31F5016083718382839383015C1F4F85
:104D90002496C031D10599F664E170E001CED101CD
:104DA0001296EC918E2F90E0BFE3EB9FF00111245F
:104DB000E356F74F06A117A120A531A5F1014381C4
:104DC00054816581768101960E94B71660E070E09B
:104DD00080E090E043CDD1011296EC918E2F90E0CF
:104DE000BFE3EB9FF0011124E356F74F06A117A193
:104DF00020A531A5F1014381548165817681019619
:104E00000E942C1860E070E080E090E027CDD10196
:104E10001296EC918E2F90E0BFE3EB9FF0011124EE
:104E2000E356F74F06A117A120A531A5F101438153
:104E300054816581768101960E94B71960E070E027
:104E400080E090E00BCDD1011296EC91BFE3EB9F97
:104E5000F0011124E356F74F86A197A1A0A5B1A5B3
:104E600080931B0890931C08A0931D08B0931E0804
:104E700064E070E095CDE2E02E0E311CC3ECEC2E28
:104E8000C8E0FC2EC0E0D0E02196D7010D911D9125
:104E90002D913C91F10141915191619171911F01CD
:104EA000CE010E94B716FFE3EF0EF11CC330D1050F
:104EB00059F7D0CCD10113964D915D916D917C91B4
:104EC000169712968C9190E001960E948A1660E0E7
:104ED00070E080E090E0C2CCD1011296EC91BFE38B
:104EE000EB9FF0011124E356F74F82A593A5A4A5EB
:104EF000B5A580931B0890931C08A0931D08B09340
:104F00001E0864E070E04CCDD1011296EC91BFE335
:104F1000EB9FF0011124E356F74F858980931B081E
:104F200061E070E03DCD10928608109285084FEF49
:104F300060E080E00E94F20C60E070E080E090E0D1
:104F40008DCCF1014781668185810E94F20C60E081
:104F500070E080E090E082CC81010C5F1F4FC1E0E7
:104F6000D0E0D10112968C9190E09E012150310940
:104F700002C0959587952A95E2F780FDBDC22196DE
:104F80000E5F1F4FC430D10561F764CC0E94720FD1
:104F900060931B0870931C0880931D0890931E0853
:104FA00064E070E0FDCCB1016E5F7F4F44E050E003
:104FB00082E194E00E944410F10182819381A481F6
:104FC000B5818093490290934A02A0934B02B0931B
:104FD0004C0260E070E080E090E040CC8091FF0EF9
:104FE0008111F1CB8AE08093FF0E60E070E080E0F9
:104FF00090E034CC8091990A882399F1E0919A0A43
:10500000F0919B0A60919C0A70919D0A42E050E0E9
:1050100020E030E0CF01EA01C55ED74FDE011297F4
:1050200011811C9332968E0101501109DC018C9183
:10503000D8018C93DB018D919D91BD01DC01CD9058
:10504000DD90ED90FC90C882D982EA82FB822F5FCE
:105050003F4F8091990A4A5F5F4F90E028173907C8
:10506000CCF26091990AB6E06B9FB001112498CC04
:105070001092990A60E070E080E090E0EFCBF101DF
:105080008381E2812FE3E29FF0011124E356F74F81
:10509000858BD10112968C9190E001960E942D1C77
:1050A00060E070E080E090E0D9CBD10112968C9165
:1050B0001297982F9B50903158F08FEF80931B08D8
:1050C00083E080931C0881E180931D0812968C91E7
:1050D0000E949B0281E00E9493028FEF8093470120
:1050E0008091470180931B0861E070E059CC41300A
:1050F00009F45CC244E050E069E472E0C101029648
:105100000E94D23A009709F4C9CBC0E0D0E066CB48
:105110008091850890918608892B09F054CBD101A4
:1051200012969C91129780E0909386088093850850
:10513000809185089091860813962C91822B9093EC
:1051400086088093850840E06FEF80E00E94F20CB3
:1051500060E070E080E090E081CB22E0220E311C24
:10516000B3ECEB2EB8E0FB2EC0E0D0E02196D701E7
:105170000D911D912D913C91F101419151916191C0
:1051800071911F01CE010E942C18FFE3EF0EF11C5C
:10519000C330D10559F75ECB22E0220E311CA3ECBF
:1051A000EA2EA8E0FA2EC0E0D0E02196D7010D91BA
:1051B0001D912D913C91F10141915191619171911C
:1051C0001F01CE010E94B719FFE3EF0EF11CC3309F
:1051D000D10559F73FCB0E94B20D8111E3C18091F7
:1051E00078089091790890931C0880931B0880910F
:1051F0007F089091800890931E0880931D088091ED
:105200009A0890919B089093200880931F0866E06D
:1052100070E0C6CB80917E0880931B0861E070E04F
:10522000BFCBD101189680E090E02FE3FD013597C8
:105230003081F1014281FC01249FE00DF11D112418
:10524000E356F74F35AB3D91F1014281FC01249FBC
:10525000E00DF11D1124E356F74F32AF0196853072
:10526000910521F7F7CAEDE9F8E080E090E044E02D
:10527000D10112962C9130E0082E02C03595279569
:105280000A94E2F720FD40830196FF968430910551
:1052900079F7E0CAF101418150E044505109B10170
:1052A0006D5F7F4F928180E042960E94441060E0E3
:1052B00070E080E090E0D2CA60E070E080E090E0D2
:1052C0000E94A023EC01D10112968C910E94B20C95
:1052D00085CA809197089091980890931B088091B7
:1052E00097089091980880931C0862E070E058CB72
:1052F0008091990A803408F421C12BE138E0F10152
:10530000418150E0B101C9010E94DF3A81E28093FE
:105310001B0880911C08882309F49CCAEBE1F8E083
:1053200090E08E0F9F1F31E22091C80025FFFCCF37
:105330003093CE003196E817F90709F48BCA308113
:10534000F3CF80E180931B0899E090931C081092A2
:105350001D0810921E0891E090931F08809320086A
:1053600083E08093210881E18093220880932308C1
:10537000ECE1F8E090E18091C80085FFFCCF9093CC
:10538000CE0028E0E432F20709F4B3C09191F3CFE4
:1053900064E070E089E492E061CA80917B089091BA
:1053A0007C08A0917D0880931B0890931C08A09313
:1053B0001D0863E070E0F4CA10921B0861E070E021
:1053C000EFCA02EB18E03101B5E06B0E711CC0E0D2
:1053D000D0E074E1872E912CA12CB12CF1018281B7
:1053E00090E00C2E02C0959587950A94E2F780FD17
:1053F0005AC02196015C1F4FB6E06B0E711CC43081
:10540000D10561F727CA80914E0290914F02A09179
:105410005002B091510280931B0890931C08A093F6
:105420001D08B0931E08C7ECD8E05FE2852E58E057
:10543000952E64E0A62EB12C00E010E0C880D98043
:10544000EA80FB800F5F1F4F4BE1642E48E0742E13
:105450006A0C7B1C6C817D81882777FD8095982F55
:105460000E94C0322BED3FE049EC50E40E94AD3386
:105470009B01AC01C701B6010E94BA31F301608300
:10548000718382839383C8010E946B1BD4018D9327
:105490004D01EF96B4E0AB0EB11C0430110571F66E
:1054A00068E170E07DCAF30132978081D8018C9366
:1054B000F301319780811B968C931B971C961C924D
:1054C000F301C080D180E280F3802196CE010E945A
:1054D0002D1CF7FC2AC0C701B601A50194010E944A
:1054E0003538D80117962D933D934D935C931A97B9
:1054F00081CF0E94D20F72C9F8013197F080E12C60
:10550000F8018081A701482B662757FD6095762F0B
:10551000CE010E94DD1B33CD12E9C12E1AE0D12E3F
:1055200016E0E12E10E4F12E02CA8FEF9FEFDC01AE
:10553000F80187839087A187B2875CCF8091990A11
:1055400090E0880F991FE0919A0AF0919B0AE80F6A
:10555000F91FD10112969C91129780E013962C911D
:105560001397822B918380838091990A90E0880F12
:10557000991FE0919C0AF0919D0AE80FF91F019094
:10558000F081E02D14964D915D916D917C9117976E
:1055900040835183628373838091990A8F5F8093E4
:1055A000990AABCE8AE00E94390E19CE84E6809328
:1055B0001B0887E080931C08F101828180931D08FD
:1055C000838180931E08848180931F088581809346
:1055D00020081092210820E04FEF5FEF67E08BE199
:1055E00098E00E946A2F892B09F0EDC833C9EF9229
:1055F000FF920F931F93CF93DF9384E690E0A0E098
:10560000B0E080930D0590930E05A0930F05B09325
:10561000100581E080930C0586EE92E290931205CE
:1056200080931105FF24FA9403E011E180917A023E
:1056300090917B02181619060CF0C3C080917A0273
:1056400090917B02892B09F4B8C0E0917802F09127
:105650007902E756F64FE0808091780290917902C6
:105660000196907897FDB4C0909379028093780268
:1056700080917A0290917B02019790937B028093B4
:105680007A0280917C0290917D02009741F48CE037
:1056900095E00E94EF2F80917C0290917D02FC01A9
:1056A000E55EFA4FE082019690937D0280937C0242
:1056B000823091050CF4BACF20911C0530E082179E
:1056C000930709F0B3CF8CE095E00E94BB2F409187
:1056D0001D058091970890919808242F30E0892F1C
:1056E000992750911E052817390709F475C04111F3
:1056F0002DC051112BC06091210541E070E080E286
:1057000095E00E94BA230097E1F0FC01618121E05D
:1057100040E050E070E00E947F23FC01418150E0B6
:105720004115510571F020E030E091918091C80061
:1057300085FFFCCF9093CE002F5F3F4F2417350796
:10574000A4F310927D0210927C0270CFD42FF0E06F
:10575000CF2FCE01852BAC0121E06091210580E2A5
:1057600095E00E946A2F892B61F3F0921B0500934C
:105770001C0510931D0521E040E050E063E070E05F
:105780008BE195E00E947F23FC01418150E04115AF
:105790005105B9F220E030E091918091C80085FF79
:1057A000FCCF9093CE002F5F3F4F24173507A4F313
:1057B00010927D0210927C0239CF10927D021092DD
:1057C0007C02DF91CF911F910F91FF90EF90089590
:1057D00001979F6F019648CF809197089091980804
:1057E000252F30E099272817390709F080CF83CF7C
:1057F0001092FF0E0895FC018785882391F0809117
:105800007E0290917F02019690937F0280937E02A8
:1058100086E08093FF0E80917E0290917F02069732
:1058200034F010927F0210927E021092FF0E0895C3
:10583000FC018785882399F080917E0290917F02F8
:10584000019690937F0280937E0280917E029091D8
:105850007F02069724F483E08093FF0E0895109250
:105860007F0210927E021092FF0E0895FC01878540
:10587000811129C081E00E94390E0E94E039909385
:10588000980880939708809197089091980897FDC1
:1058900009C0809197089091980890689093980813
:1058A0008093970880919708909198088E7F9093A5
:1058B00098088093970810927F0210927E0281E0F0
:1058C0008093FF0E089510927F0210927E028091C5
:1058D0009708909198088160909398088093970812
:1058E00080919708909198080E94F6031092FF0EFD
:1058F0000895FC012785222301F120917E02309139
:105900007F022F5F3F4F30937F0220937E0228E07B
:105910002093FF0E20917E0230917F0226303105C8
:105920000CF4089510927F0210927E021092FF0EE6
:10593000FC01828593850C94F23810927F021092BC
:105940007E021092FF0E828593850C94F2380F939D
:105950001F93CF93DF9308E010E0C0E0D0E0CC0FBE
:10596000DD1FCC0FDD1F80914601829586958370E7
:10597000C82B61E070E080E090E00E948D0F015044
:10598000110969F7CE01DF91CF911F910F91089511
:10599000FF920F931F93CF93DF930E94F50884E348
:1059A00092E10E94FC038FE00E949B0281E00E9432
:1059B000930260E67FE281E00E94020444E050E04E
:1059C00069E472E082E194E00E94621010924D025C
:1059D000C9E4D2E0FE0181918F3FC1F582E0ED3450
:1059E000F807C9F734E2F32E00E812E00E94A72C72
:1059F000AC019C01AFE8B3EE0E94073896958795FD
:105A0000929582958F7089279F708927F89E9001C3
:105A1000F99E300D1124421B530B842F48834A30CA
:105A2000F0F4805D888361E070E080E090E00E94A7
:105A30008D0F219682E0CD34D807C1F644E050E0C6
:105A400069E472E082E194E00E94441081E0809376
:105A5000FF0EDF91CF911F910F91FF900895088362
:105A6000E2CF8091FF0E853009F41BC160F08730D2
:105A700009F457C108F47EC0883009F448C18A305F
:105A800009F480C00895813009F4A3C008F042C031
:105A900080918102882309F465C180918102882365
:105AA00009F46CC1E0918002809180028F5F809345
:105AB000800280918102815080938102EF7325E8FA
:105AC000E29FF0011124EF5FF04FF0934230E0933A
:105AD0004130309709F456C180918508909186082D
