:100000000C945E010C947D010C947D010C947D0197
:100010000C947D010C947D010C947D010C947D0168
:100020000C947D010C940A0A0C947D010C947D01C2
:100030000C947D010C94CB030C947D010C947D01F8
:100040000C947D010C947D010C947D010C947D0138
:100050000C947D010C947D010C947D010C947D0128
:100060000C947D010C947D010C947D010C947D0118
:100070000C947D010C947D010C947D010C947D0108
:100080000C947D010C947D010C947D010C947D01F8
:100090000C94DF1F0C947D010C947D010C947D0168
:1000A0000C947D010C947D010C94D7010C94E80113
:1000B0000C947D010C947D010C947D010C94690CD1
:1000C0000C947D010C947D010C947D010C947D01B8
:1000D0000C947D010C947D010C947D010C947D01A8
:1000E0000C947D010C947D010C947D010C947D0198
:1000F0000C9410030C947D010C947D010C94E4028B
:100100000C947D010C947D010C947D010C947D0177
:100110000C947D010C947D010C947D010C947D0167
:10012000D120A8205924162425249523AD23D0239B
:10013000F3232A224C227F22B622F92241235D2377
:100140007923EF2001211B2147216F217A21892169
:100150009B209921AC21BE21DD21FB210222082216
:100160001022192280249B208524AD2497256E25FA
:100170008525032510251F252B25B925C025E92513
:100180000D261026152630265226632681268F2618
:100190009A26B526C720C226E126712405A84CCD93
:1001A000B2D44EB93836A9020C50B9918688083CB1
:1001B000A6AAAA2ABE000000803F6E616E00696E8A
:1001C000660000407A10F35A00A0724E1809001021
:1001D000A5D4E80000E87648170000E40B540200BC
:1001E00000CA9A3B000000E1F505000080969800E7
:1001F000000040420F000000A08601000000102710
:1002000000000000E803000000006400000000009F
:100210000A00000000000100000000002C76D888D1
:10022000DC674F0823DFC1DFAE59E1B1B796E5E3E4
:10023000E453C63AE651997696E8E6C28426EB89FD
:100240008C9B62ED407C6FFCEFBC9C9F40F2BAA59A
:100250006FA5F490055A2AF75C936B6CF9676DC132
:100260001BFCE0E40D47FEF520E6B500D0ED902E36
:100270000300943577050080841E080000204E0A94
:10028000000000C80C333333330F986E12831141D2
:10029000EF8D2114893BE65516CFFEE6DB18D1849D
:1002A0004B381BF77C1D901DA4BBE42420328472C4
:1002B0005E228100C9F124ECA1E53D2711241FBE77
:1002C000CFEFD1E4DEBFCDBF12E0A0E0B2E0E8ECBA
:1002D000F0E700E00BBF02C007900D92AA37B1070C
:1002E000D9F713E1AAE7B2E001C01D92AE35B1071C
:1002F000E1F70E947A0F0C9462380C94000014BE4F
:1003000088E10FB6F89480936000109260000FBEF1
:1003100078940C948E0190E00C94A30110922B0819
:1003200080E29EE49093A9008093A800E1EAF0E0C7
:1003300088E08083808182608083E2E7F0E08081D2
:100340008260808308952091A4003091A500280F39
:10035000391F3093AB002093AA002091AA0030915E
:10036000AB008091A8009091A9008217930770F4C8
:100370008091AA009091AB002091A8003091A90033
:10038000821B930B9093AB008093AA0010927A0289
:100390008091720084608093720080917A02882339
:1003A000E1F3809172008B7F8093720008951F9219
:1003B0000F920FB60F9211248F9380912B088F5FAD
:1003C00080932B088F910F900FBE0F901F90189560
:1003D0001F920F920FB60F9211248F9381E080939A
:1003E0007A028F910F900FBE0F901F9018950F9368
:1003F0001F93CF93DF9310924E0183E080934201CD
:1004000086E080934201809141018F718630D9F757
:10041000C0E0D0E000E010E081E00E948B0120917C
:10042000460122952695237030E00C2E02C0220F43
:10043000331F0A94E2F7022B132B2296C031D10509
:1004400059F783E08093420188E0809342018091D4
:1004500041018F718830D9F78FEF80934F018091E0
:100460004E01886080934E0180914E01806480939C
:100470004E01C801DF91CF911F910F910895809196
:100480008402882361F083E08093420186E18093B7
:100490004201809141018F718631D9F7089583E03F
:1004A0008093420188E080934201809141018F71E5
:1004B0008830D9F70895809139018160809339019E
:1004C00083E08093420188E0809342018091410162
:1004D0008F718830D9F780916E01806280936E01B0
:1004E00080916E018F7E80936E018FEF80934F011C
:1004F00080914E01886080934E0180914E0180640E
:1005000080934E0180914C01806880934C010E9441
:10051000F70180936D0110927E021092840281E0B7
:1005200080930A020895EEE7F2E09081986090834C
:10053000809384020895EEE7F2E0908191609083C9
:1005400080937F020895EEE7F2E02081226020830D
:1005500090938102809380020895EEE7F2E020817B
:100560002460208390938302809382020895809177
:100570000A02813011F081E0089590917E0291117C
:10058000FBCF80E0089523E02093420129E12093EE
:100590004201209141012F712931D9F7262F2E5F79
:1005A00020938001662349F0FC01A1E8B1E091911C
:1005B0009D939E2F981B9617D0F382E08093420163
:1005C00083E080930A0208951F920F920FB60F9254
:1005D00011248F93809141018F71893131F08F9176
:1005E0000F900FBE0F901F90189583E080934201EB
:1005F00089E080934201809141018F718930D9F760
:1006000084E080930A0280914201829586958770EA
:1006100080937D028F910F900FBE0F901F901895C1
:100620001F920F920FB60F9211248F9389E080933F
:1006300042018091470180937C0280917B018093ED
:100640007B0285E080930A028F910F900FBE0F907E
:100650001F901895CF93DF9300D000D01F92CDB795
:10066000DEB780910A02843009F481C0853009F434
:100670003FC0813041F00F900F900F900F900F907E
:10068000DF91CF91089590917E029923A1F383E0A9
:100690008093420188E080934201809141018F71F3
:1006A0008830D9F790FF09C020917F022F71809187
:1006B0004801807E822B8093480191FF08C0809181
:1006C000800280936201809181028093630192FF96
:1006D00008C08091820280936001809183028093A0
:1006E000610194FD53C00E943F0210927E02C3CF6D
:1006F00080917B0280E090E040E0FC01E058FE4FFA
:100700002081FC01EB57FD4F20834F5F20917B023E
:10071000842F90E030E0281739077CF785E892E0D5
:100720009A83898380917B0282508B83E0917B0244
:10073000F0E0EB57FD4F80818C8380917C028A55DD
:100740008D83CE0101960E948605809141018F71B3
:100750008930D9F781E080930A020E943F020F900E
:100760000F900F900F900F90DF91CF91089580918F
:100770007D020E947108809141018F718930D9F703
:1007800081E080930A020E943F02E9CF0E94F701B4
:100790000E948E0CA8CF1F920F920FB60F921124B9
:1007A0008F9381E0809305038F910F900FBE0F9080
:1007B0001F901895109230081092310810922D0851
:1007C00010922C08109233081092320810923508BB
:1007D0001092340810923708109236080E94AA0727
:1007E0000E9462050E94E0040C94300490932D084E
:1007F00080932C080C94AD0290932F0880932E08C0
:100800000C94A302E82FF0E0EE0FFF1FEE5CF74F11
:100810007183608308950E94BA050E948D080C942C
:100820004E04E0910603F0910703309731F416C0AF
:100830000190F081E02D309789F0228133812817D3
:100840003907B1F7DC01A158BF4F2C912787DC0194
:10085000AE57BF4F2C91208B22E024830C940C05C3
:1008600010920703109206030895FC011482178664
:10087000138212828091060390910703009739F04A
:1008800091838083F0930703E09306030895118218
:100890001082F0930703E093060308950F931F93CC
:1008A000CF93DF93E0910603F0910703309709F4AB
:1008B0007BC0EF018C81811155C08C850E94E704BB
:1008C0008C01009709F46DC09B838A8381E08C833F
:1008D000F801ED57FF4F81E194E091838083F801A7
:1008E000EE57FF4F898582FB882780F980839985A1
:1008F000F801838590FB80F98387998593FB99277D
:1009000090F990FB82F987708387809130088F5F20
:1009100080933008848780912C0890912D089687C9
:1009200085878D819E81908B878798859F7081892F
:10093000807F892B818B9F819295907F8F70892BEF
:10094000818B98012E5E3F4F4C856A857B8550E0F8
:10095000C9010E94B137C801DF91CF911F910F915A
:100960000C94C507823039F00990D881C02D2097AA
:1009700009F0A0CF19C0EC17FD0711F41AC0FC0153
:10098000808191818C179D07D1F78881998191830E
:100990008083ED85FE85CE01DF91CF911F910F9170
:1009A000099482E08C838F87DF91CF911F910F9103
:1009B0000895888199819093070380930603E9CF76
:1009C0001092080310928D031092120408959091D2
:1009D0000803992361F090918D039923B9F09091C8
:1009E00012049923B1F020E030E0C901089540E0FD
:1009F00050E095E8949FF001959FF00D1124E85F79
:100A0000FC4F805F81839F01C901089541E050E060
:100A1000F0CF42E050E0EDCFFC011082089595E860
:100A2000899F90011124285F3C4FC9010895FC0162
:100A3000DC01A158BF4F1C92DC01A058BF4F1D9292
:100A40001C92DC01AE57BF4F1C92DC01AD57BF4F6B
:100A50001D921C921386A0E3B8E08C918F5F8C935B
:100A6000848780912C0890912D0896878587108A1D
:100A70001786118A08950C940C05EBE9F4E040E028
:100A8000208131812115310529F02150310931832F
:100A9000208341E0359624E0ED3CF20789F74111CF
:100AA00001C008950C946E09DC011596ED91FC913E
:100AB00016972081222311F080E008950E944D08AE
:100AC00081E00895EBE9F4E011821082359684E02C
:100AD000ED3CF807C9F71092CA0484E190E0A0E069
:100AE000B0E08093D1049093D204A093D304B09348
:100AF000D4041092D5048DE395E09093D7048093AD
:100B0000D60464E575E080E00C940204CF93DF9393
:100B1000EC01E881F9818181883819F0DF91CF916A
:100B200008958081813611F08134C1F78A81803146
:100B3000A8F380510E94E704009781F320E2FC01B2
:100B400020832B81E158FF4F20832C81FC01E0584A
:100B5000FF4F20839C012E5F3F4F4A81688179813E
:100B600050E0C9010E94B1378091CA048F5F809321
:100B7000CA04D4CF2F923F925F926F927F928F924E
:100B80009F92AF92BF92CF92DF92EF92FF920F931C
:100B90001F93CF93DF93CDB7DEB72A970FB6F894A4
:100BA000DEBF0FBECDBF8091CA048823F1F0512C67
:100BB00054E2752E6BE3C62E65E0D62E72E2672EE8
:100BC000E7E9AE2EB12C852D0E940F058C01DC01CA
:100BD0008C91823211F1843209F421C1803209F4FE
:100BE000B3C05394B3E05B12EECF2A960FB6F894DD
:100BF000DEBF0FBECDBFDF91CF911F910F91FF9050
:100C0000EF90DF90CF90BF90AF909F908F907F90AC
:100C10006F905F903F902F90089510929704D801A5
:100C200051968C91519782958F70282F30E0243007
:100C300031050CF0FDC0F901EE0FFF1FEE5CF74F20
:100C40000190F081E02D309709F4F2C01D962D91AE
:100C50003C911E973A83298351969C9151979F709E
:100C60009B838C83A8014E5E5F4F5F834E831196FA
:100C70008C91119780518887A158BF4F8C9189879B
:100C8000D801A058BF4F8C918A87D8011B968C91B0
:100C9000982F937082FDE8C080E0892BD8011F96C1
:100CA0004D915C9150974F3F5F4F09F4E8C090E041
:100CB000892BD80119964D915C911A972417350705
:100CC00009F4DBC090E0892BD80115962D913C9159
:100CD00016972F3F3F4F09F4CEC090E0892B8D83AC
:100CE000CE0101960995F801278130852F3F3F4FAE
:100CF00009F4A6C060E0F801938590FFB0C0882396
:100D000009F4ADC083E00E94E7047C010097C9F0BC
:100D10000E941705F701ED57FF4FD182C082D8011D
:100D20001D962D913C911E97F701308B2787128AD3
:100D300080919704848B1C968C91838BC7010E94B1
:100D4000C507D8017C924DCFF80170822785308984
:100D50002F3F3F4F09F48AC020902C0830902D0877
:100D6000F801E584F6842E143F0409F43ACF838514
:100D700081FD37CF4801FDE08F0E911CE8E9F4E0DA
:100D800020E030E08FEF0FC0D4016D917C91408165
:100D900051816417750709F474C02F5F3F4F359672
:100DA0002A30310559F043815481452B69F7822F50
:100DB0002F5F3F4F35962A303105A9F78F3F09F451
:100DC00010CF992787FD9095FC01EE0FFF1FEE0FC6
:100DD000FF1FE80FF91FE856FB4FF182E082D801B0
:100DE0001C968C918283B482A3828BEC94E00E9447
:100DF0006E0920902C0830902D08F801878190858D
:100E0000019609F453C0F8018785908982159305EE
:100E100019F0019609F0E5CED8016C92E2CEC80136
:100E20000E940C058091CA0481508093CA04D9CED7
:100E300080E0F801278130852F3F3F4F09F05ACFDE
:100E400061E040912C0850912D08D8011F962D91FA
:100E50003C9150974217530709F04CCF4CCF61118A
:100E600051CFD8017C92BDCE80E217CF1B968C91DA
:100E700080FF72CFB6CE90E131CF98E024CF94E0DE
:100E800017CFF8018485F901EE0FFF1FEE0FFF1F4A
:100E9000E20FF31FE856FB4F9281282F291B1216F1
:100EA0000CF09FCE8283B482A382A7CFF8018785FE
:100EB00090898215930509F4AFCFF8012581368119
:100EC0002F3F3F4F09F4A5CFD8011B962C9122FD4F
:100ED000A0CFC8010E94030820902C0830902D0854
:100EE00092CF0C940C05FF920F931F93CF93DF9337
:100EF000EC018091DA04882339F110E085E1F82EC5
:100F000000E1812F0E940F05FC018081843159F09E
:100F10001F5F1330B1F7CE01DF91CF911F910F9179
:100F2000FF900C946E09DF01A058BF4F2D913C91AA
:100F30001197215031092D933C93232B49F7F082CF
:100F4000E158FF4F0083E4CFDF91CF911F910F91C4
:100F5000FF9008951092D9041092D8041092DA04E8
:100F600082E390E0A0E0B0E08093E1049093E2049B
:100F7000A093E304B093E4041092E50483E797E0C0
:100F80009093E7048093E6040895FC01DC01AE57DA
:100F9000BF4F8C9191E19083DF01A158BF4F1C920C
:100FA00080FF20C08FEF9FEF968385838785908990
:100FB0009087878320912C0830912D0832872187D4
:100FC000209131082F5F209331082483019689F006
:100FD00081E698E8938382838091DA048F5F80931F
:100FE000DA04089580912E0890912F0896838583C6
:100FF000DDCF81E498E8938382838091DA048F5F68
:101000008093DA0408950F931F93CF93DF938C019D
:10101000FC01818180510E94E704EC010097C1F13D
:10102000FC01ED57FF4F81E797E0918380839E019C
:101030002E5F3F4FF80141810E5F1F4F50E0B80116
:10104000C9010E94B13781E18883FE01E158FF4F59
:10105000108281E498E89B838A838FEF9FEF9887C3
:101060008F8380912E0890912F089E838D8380918D
:101070002C0890912D089A878987809131088F5F7D
:10108000809331088C838091DA048F5F8093DA0437
:10109000DF91CF911F910F9108951F93CF93DF930D
:1010A000FC01C581D6818091DA04882359F010E0D3
:1010B000812F0E940F05FC018081843139F01F5F70
:1010C0001330B1F7DF91CF911F91089594858981F5
:1010D0009813F5CF85E180838A81EE57FF4F808397
:1010E000F1CFE091D804F091D904833080F08330BF
:1010F00081F0853081F081E0DF01A158BF4F8C93F2
:1011000083E180831092D9041092D804089580E07E
:10111000F3CF80E2F1CF81E2EFCFAF92BF92CF92D7
:10112000DF92EF921F93CF93DF938091DA048823AD
:10113000C1F010E095E1E92E24E1C22E35E0A32EA6
:10114000B12C42E1D42E812F0E940F05EC01888141
:10115000833181F0853171F18131E9F01F5F133006
:1011600091F7DF91CF911F91EF90DF90CF90BF90DB
:10117000AF900895FE01E158FF4F8081811109C0B1
:101180004D855E8520912C0830912D08421753071C
:10119000F9F0E882E3CF0E94B7028111DFCFD0934C
:1011A000D904C093D804D8826981CE0102960E94E6
:1011B000C302D4CFFE01ED57FF4F0190F081E02D27
:1011C000CE0109958091DA0481508093DA04C6CF6C
:1011D0008B8580FFDECFC882C058DF4FB982A882DE
:1011E0008BED94E00E946E09B9CF0E947F010E94AE
:1011F00069090E945B020C94DA030E942A030E9490
:101200000B040C9484090F931F93CF93DF93EC018D
:101210008091E8049091E904009709F447C04E8159
:101220005F8168857985FC01A0E0B0E001C0F9012B
:1012300002811381248135814017510762077307AA
:10124000E0F0401B510B620B730B20813181DF01F9
:101250002115310561F74A835B836C837D83109789
:10126000D1F08D919C91119799838883CD93DC93D4
:10127000DF91CF911F910F910895041B150B260B41
:10128000370B02831383248335834A835B836C8308
:101290007D83109731F799838883D093E904C093B5
:1012A000E804DF91CF911F910F9108951982188260
:1012B0004E815F81688579854A835B836C837D83FA
:1012C000D093E904C093E804DF91CF911F910F916F
:1012D00008951092E9041092E8040895E091E8045A
:1012E000F091E904309761F08E179F0721F40BC04D
:1012F0008E179F0739F00190F081E02D3097C1F7EC
:101300000C94030908950895CF92DF92EF92FF9213
:10131000CF93DF9380912B08882309F458C09FB79F
:10132000F89480912B0810922B089FBF90E0A0E0CA
:10133000B0E0880F991FAA1FBB1F6C017D01CC0C68
:10134000DD1CEE1CFF1CCC0CDD1CEE1CFF1CC80EB3
:10135000D91EEA1EFB1EC091E804D091E904209733
:10136000B1F14A815B816C817D81C416D506E606A8
:10137000F706A0F424C0EB85FC85CE010995C09149
:10138000E804D091E904209711F14A815B816C81D6
:101390007D81C416D506E606F70688F0C41AD50A7C
:1013A000E60AF70A888199819093E9048093E8041A
:1013B0008A85813001F7CE010E940309DCCF4C19E8
:1013C0005D096E097F094A835B836C837D83DF91AE
:1013D000CF91FF90EF90DF90CF90089583E00E942F
:1013E000020E81E080930B028091380886FF04C0D2
:1013F0008091380887FD0CC08091380886FF0895D9
:101400000E945E2E892B11F00C94542E0C94F42D16
:101410000C946D1F1F920F920FB60F9211240F9014
:101420000FBE0F901F90189580ED97E0A0E0B0E000
:1014300080933A0890933B08A0933C08B0933D08F2
:1014400081E0809339088EEE99E090933F08809375
:101450003E0889E398E00C948A2C89E398E00C9488
:10146000562CCF92DF92EF92FF920F931F93CF9360
:10147000DF93CDB7DEB72C970FB6F894DEBF0FBE63
:10148000CDBFF62EF82690914202992309F443C06D
:10149000F6FA442740F9F7FC95C0F5FC446066FD78
:1014A00069C030E021E067FD69C0226065FF69C066
:1014B000346080E289838AE08A8380914802909137
:1014C0004902A0914A02B0914B028B839C83AD8369
:1014D000BE834F83388729871A8680914C0290916A
:1014E0004D02892B09F44FC020917708309178087C
:1014F00080914C0290914D022817390709F443C09E
:1015000040914C0250914D0221E06AE0CE010196DB
:101510000E94052C48C0662331F190910B02911175
:1015200042C0F6FE53C06C878B8766FF60C00E9486
:10153000140A00E010E06C858B85F7FC4DC0F5FEC9
:1015400048C065FD46C086FF02C087FD5CC085FFC0
:101550002AC010924D0210924C024FEF60E080E0E2
:101560000E94900C20C090910B029923B1F210922E
:101570000B0219C031E020E067FF97CF326065FDB4
:1015800097CF246096CF409177085091780821E05A
:101590006AE070E0CE0101960E942F20FC0161817B
:1015A00070E00E941E202C960FB6F894DEBF0FBE8E
:1015B000CDBFDF91CF911F910F91FF90EF90DF9002
:1015C000CF9008954260F5FE6ACF68CF00E010E04A
:1015D000B4CF012B41F3B7CF6C878B8767FD0EC06B
:1015E0000E942D0A01E010E08B856C85A8CF0E9437
:1015F0002D0A01E010E06C858B859FCF0E94140AB4
:101600006C858B859CCF81E080930B0280917D0857
:10161000811126C08091BC08811122C08091FB08F5
:1016200081111EC08BEAC82E88E0D82EE12CF12C47
:10163000F60111821082FFEFEF1AFF0A0BED1FE097
:1016400029EC3FE340E050E0BA01C7010E94551584
:101650008FE3C80ED11CE3E0EE16F10449F7A3CFE7
:101660000E94D41EA0CFCF93C9B1C095C07EC093B5
:10167000380880910C028C1729F06C2F0E94310AD7
:10168000C0930C02CF9108951092B1002498089550
:10169000CF93DF9382E48093B000A3EBB0E082EBC2
:1016A0008C93E1EBF0E085E080832FEF32E597E06B
:1016B000215030409040E1F700C000001082CFE19F
:1016C000DEE42197F1F700C0000095E89C93808349
:1016D000DFEF22E537E0D15020403040E1F700C095
:1016E000000010822498DF91CF910895009781F037
:1016F000249A9C0140E050E064E274EF80E090E0C6
:101700000E94F3342093B30085E08093B1000895E4
:101710000C94440BCF93DF93C82FCF7082958F70BA
:1017200009F161E090E0660F9F5F9813FCCF70E0D5
:10173000D0E0CC0FDD1FCC0FDD1FC35FDD4F88274E
:1017400077FD8095982F0E946A2F288139814A81E0
:101750005B810E9457300E943C2FCB01DF91CF91DB
:101760000C94760B61E070E0E3CFCF93DF930E949F
:10177000440BC0913E02D0913F02209709F468C00B
:1017800080914002909141028C179D070CF04EC051
:101790003091480820E0880F991F820F931F4596CB
:1017A0000E94D00F0E948A0B3091480820E080915F
:1017B000400290914102880F991F820F931F449617
:1017C0000E94D00F8093EF0440914002509141025B
:1017D0004F5F5F4F509341024093400260913E0241
:1017E00070913F0264177507F4F010924908282F92
:1017F00030E040E050E06091EB047091EC048091A7
:10180000ED049091EE040E94D13420934A08309365
:101810004B0840934C0850934D0885EB9BE0909308
:101820004F0880934E08DF91CF91089581E0809317
:101830004908109241021092400210923F02109209
:101840003E020E94440B10923D02DF91CF91089519
:101850009091480880E042960E94D00F8093EA045D
:101860009091480880E043960E94D00FC82FD0E0A6
:10187000D0933F02C0933E022091EA0430E040E062
:1018800050E060E879EA83E090E00E94D134209350
:10189000EB043093EC044093ED045093EE0470CFCE
:1018A00091E090933D029093490810924A0810925B
:1018B0004B0810924C0810924D0825EB3BE03093FA
:1018C0004F0820934E088093480889E498E00C94D0
:1018D0008A2C1F920F920FB60F9211248F939F9311
:1018E000AF93BF938091480290914902A0914A0220
:1018F000B0914B020196A11DB11D809348029093B7
:101900004902A0934A02B0934B02BF91AF919F91BD
:101910008F910F900FBE0F901F9018950C94B636B4
:1019200090E1899F900111243093990020939800B1
:1019300090E1699F9001112430939D0020939C00B9
:1019400090E1499F9001112430939B0020939A00CD
:1019500080935D0860935E0840935F0808958091CE
:101960005808909159080197909359088093580806
:10197000181619061CF081E08093670840915F08F3
:10198000405860915E08605880915D0880580C94C2
:10199000900C1092B90080E28093B80084E08093AC
:1019A000BC00089584EA8093BC008091BC0087FF4E
:1019B000FCCF089584E98093BC0008958093BB0018
:1019C00084E88093BC008091BC0087FFFCCF089521
:1019D00084EC8093BC008091BC0087FFFCCF809199
:1019E000BB00089584E88093BC008091BC0087FF11
:1019F000FCCF8091BB0008950E94D20C8091B90069
:101A0000887F883011F081E0089588E30E94DE0C21
:101A10008091B900887F8831B1F78DE00E94DE0C9B
:101A20008091B900887F883271F70E94D20C809132
:101A3000B900887F803139F789E30E94DE0C8091FC
:101A4000B900887F8034F9F60E94F20C8A32D9F608
:101A50008091B900887F8835B1F60E94DA0C0E9427
:101A6000D20C8091B900887F803169F688E30E94AA
:101A7000DE0C8091B900887F883129F68AE20E94C5
:101A8000DE0C8091B900887F883209F0BCCF89E1F3
:101A90000E94DE0C8091B900887F883209F0B3CFB4
:101AA0000E94DA0C80E008950E94D20C8091B90067
:101AB000887F883011F081E0089588E30E94DE0C71
:101AC0008091B900887F8831B1F781E00E94DE0CF7
:101AD0008091B900887F883271F70E94D20C809182
:101AE000B900887F803139F789E30E94DE0C80914C
:101AF000B900887F8034F9F60E94E80C382F20E086
:101B000030935B0820935A088091B900887F803514
:101B100091F60E94E80C20915A0830915B08282B1E
:101B200030935B0820935A088091B900887F8035F4
:101B300011F60E94E80C382F20E0309362082093C1
:101B400061088091B900887F803509F0B4CF0E9488
:101B5000E80C2091610830916208282B30936208CC
:101B6000209361088091B900887F803509F0A3CF68
:101B70000E94E80C382F20E030937B0820937A08ED
:101B80008091B900887F803509F095CF0E94F20CD2
:101B900020917A0830917B08282B30937B08209382
:101BA0007A088091B900887F883509F084CF0E9437
:101BB000DA0C80E00895CF93C82F8823F1F040E03D
:101BC0006FEF80E00E94900C2FEF81EE94E02150A7
:101BD00080409040E1F700C0000040E060E08FEFFF
:101BE0000E94900C2FEF81EE94E0215080409040B5
:101BF000E1F700C00000C15011F7CF91089585E0D2
:101C00000C94DB0D209158083091590812161306D8
:101C10000CF4089590E0880F991F909359088093D1
:101C200058081092670884E690E0A0E0B0E0809346
:101C3000680890936908A0936A08B0936B088FEACC
:101C40009CE090936D0880936C0887E698E00C9474
:101C50008A2C9AE09093770090917C00907E9093EC
:101C60007C0090917C00982B90937C0080917A006E
:101C7000876C80937A0080917A0086FDFCCF20915A
:101C8000780030917900932F937080E0AC01422B63
:101C90009A01C9010895CF93DF9380E88093610092
:101CA00010926100F89480EF84B98BB1806E8BB98B
:101CB0008091680081608093680080916B008260F1
:101CC00080936B0080916B00846080936B008091A7
:101CD0006B00886080936B008FB780688FBF8091A6
:101CE0007C00806C80937C008BE18AB98FE78DB992
:101CF0008FE383BB819A89982FEF80E792E0215090
:101D000080409040E1F700C0000082E00E94290E70
:101D1000EC018198829A8A982FEF80E792E0215017
:101D200080409040E1F700C0000081E00E94290E51
:101D30008298C436D10524F4843691050CF44BC046
:101D400082E08093600882E090E090936408809342
:101D5000630881E090E090936608809365083AEA12
:101D60003093800029E1209381008FEF9FE09093D2
:101D70008700809386003093900020939100909389
:101D80009700809396001092250110922401809173
:101D90007300826080937300809121018C60809336
:101DA00021018EE390E09093290180932801909384
:101DB00027018093260184B7877F84BF80916000CC
:101DC000886180936000109260000E9426107894D1
:101DD000DF91CF91089583E08093600884E090E0E4
:101DE000909364088093630883E090E09093660882
:101DF00080936508B4CF0E94290EBC0180E090E07A
:101E00000E94682F2DEC3CEC4CEC5FE30E945730B5
:101E100020E030E040E85AE30E945730089580E027
:101E20000E94290EBC0180E090E00E94682F2DECFA
:101E30003CEC4CEC5FE30E94573020E030E040E89F
:101E40005AE30E9457302EE63BED46EB5EE30E94DC
:101E5000CF2E0895CF93DF93CDB7DEB72C970FB673
:101E6000F894DEBF0FBECDBF69877A878B879C87CA
:101E70008091480290914902A0914A02B0914B0290
:101E800089839A83AB83BC8329813A814B815C81AE
:101E900089859A85AB85BC85820F931FA41FB51FCA
:101EA0008D839E83AF83B8870000209148023091D4
:101EB000490240914A0250914B028D819E81AF812F
:101EC000B88582179307A407B50778F72C960FB645
:101ED000F894DEBF0FBECDBFDF91CF910895809102
:101EE0006000886180936000809160008D608093C5
:101EF0006000FFCFCF93DF93CDB7DEB72F970FB63C
:101F0000F894DEBF0FBECDBF0E944B0E0E94A41FEF
:101F10000E94C90C0E94FC0C882321F08AE00E94D8
:101F2000DB0DFCCF0E94480B0E9432290E94112930
:101F30000E94B63681E00E94DB0D0E94E21E1982EB
:101F400082E390E0A0E0B0E08A839B83AC83BD8312
:101F500083EF99E19F838E83CE0101960E948A2CA4
:101F60004FEF60E080E00E94900C0E94042D0E94E0
:101F70005F270E94FD080E949B290E94330BF5CF2A
:101F8000F999FECF92BD81BD8FEF80BD84E18FBBFB
:101F9000F99AF999FECF60BD84E28FBBF99A089552
:101FA00020914E02211103C0F89420914E02F9991C
:101FB000FECF92BD81BDF89A211101C0789480B501
:101FC0000895EF92FF920F931F93CF93DF938C01AD
:101FD000141615066CF4EB017B01E40EF51E6991F5
:101FE000C8010E94C00F0F5F1F4FCE15DF05B9F764
:101FF000DF91CF911F910F91FF90EF900895EF9295
:10200000FF920F931F93CF93DF93F89421E02093D7
:102010004E021416150684F4EB017B01E40EF51E46
:102020008C01061B170BC8018C0F9D1F0E94D00F3F
:102030008993CE15DF05B9F710924E027894DF919F
:10204000CF911F910F91FF90EF900895CF92DF9263
:10205000EF92FF920F931F93CF93DF93C0E0D0E0F6
:102060008FE3C82E09E816E522E234E44FEF5FEF74
:10207000BA01EE24EA94FE2C90E8D92E8BED9FE075
:10208000A9E4BFE3CC9EF001CD9EF00D1124E358EE
:10209000F74F1082118212821382148205831683F5
:1020A0002783308711861286138614861586168636
:1020B0001786108A128A118A148A138A158A168A38
:1020C000178A108E118E138E128E448F558F668F45
:1020D000778FF1A2E0A2D2A286A397A3A0A7B1A76F
:1020E00017A616A62196C330D10561F6DF91CF91D0
:1020F0001F910F91FF90EF90DF90CF9008952F9256
:102100003F924F925F926F927F928F929F92AF9287
:10211000BF92CF92DF92EF92FF920F931F93CF93D4
:10212000DF931C018091650290916602892B09F46E
:1021300036C181E02816310409F4ABC024F084E0F4
:1021400028163104F4F00E94FF0D00E010E0D0E802
:10215000CFEB9E01602F712F832F9C2FDF91CF91AA
:102160001F910F91FF90EF90DF90CF90BF90AF90B5
:102170009F908F907F906F905F904F903F902F90A7
:102180000895809163080E94FB0E6B017C01809191
:1021900065080E94FB0E4B015C0123E333E343E33C
:1021A0005FE3C701B6010E94632E8B01D82FC92FB0
:1021B00080916702909168028130910509F4C2C153
:1021C000029709F4DFC120E030E04AEA53E4FE015F
:1021D000602F712F8F2F9C2F0E94573023E333E302
:1021E00043EB5FE30E94CF2E382F292F862F972FA6
:1021F000A32FB22FBC01CD0190582BED3FE049E455
:1022000050E40E94573020E030E044E353E40E9461
:10221000CF2E2091EC083091ED084091EE085091BE
:10222000EF0809C02BED3FE049EC50E4FE01602FC0
:10223000712F8F2F9E2F0E94642E8B01D82FC92FB4
:102240002BED3FE049E450ECFE01712F8F2F9E2FC4
:102250000E94C82E87FF0FC0E5CF2BED3FE049EC71
:1022600050E4FE01602F712F8F2F9C2F0E94632E50
:102270008B01D82FC92F2BED3FE049E450E4FE013C
:10228000602F712F8F2F9C2F0E94533018162CF324
:1022900060CF86E00E94FB0E6B017C0185E00E940E
:1022A000FB0E4B015C0123E333E343E35FE3C70130
:1022B000B6010E94632E8B01D82FC92F8091650231
:1022C000909166028130910509F4F5C0029709F4F6
:1022D00012C120E030E04AEA53E4FE01602F712F82
:1022E0008F2F9C2F0E94573023E333E343EB5FE3B0
:1022F0000E94CF2E382F292F862F972FA32FB22F52
:10230000BC01CD0190582BED3FE049E450E40E9420
:10231000573020E030E044E353E40E94CF2E209178
:10232000AD083091AE084091AF085091B00809C097
:102330002BED3FE049EC50E4FE01602F712F8F2F11
:102340009E2F0E94642E8B01D82FC92F2BED3FE0CA
:1023500049E450ECFE01712F8F2F9E2F0E94C82E52
:1023600087FF0FC0E5CF2BED3FE049EC50E4FE01C5
:10237000602F712F8F2F9C2F0E94632E8B01D82FDF
:10238000C92F2BED3FE049E450E4FE01602F712F8F
:102390008F2F9C2F0E94533018162CF3DACE86E034
:1023A0000E94FB0E23E333E343E35FE30E94632ECB
:1023B0008B01D82FC92FCB01AD2FBC2F4C015D0154
:1023C00085E00E94FB0E23E333E343E35FE30E94D7
:1023D000632E462F572F682F792F2A013B0120E0CB
:1023E00030E0A901B8018D2F9C2F0E94C82E87FDD7
:1023F00006C120E030E0A901C301B2010E94C82E4D
:1024000087FDF8C0A3019201C501B4010E94C82E46
:1024100087FD4AC082E090E0909366028093650257
:10242000809163080E94FB0E23E333E343E35FE301
:102430000E94632E8B01D82FC92FCB01AD2FBC2F4B
:102440004C015D01809165080E94FB0E23E333E39C
:1024500043E35FE30E94632E462F572F682F792FA7
:102460002A013B0120E030E0A901B8018D2F9C2F0B
:102470000E94C82E87FDB9C020E030E0A901C30149
:10248000B2010E94C82E87FDABC0A3019201C50115
:10249000B4010E94C82E87FF9CC081E090E0909319
:1024A00068028093670245CE81E090E090936602D7
:1024B00080936502B5CF20E030E0A901FE01602FD6
:1024C000712F8F2F9E2F0E94C82E87FDE3C02EEA0A
:1024D00037E441E25FE3FE01602F712F8F2F9E2FC3
:1024E0000E94533018160CF0F4CE82E090E09093E6
:1024F00066028093650223E333E343E35FE3C501B0
:10250000B4010E94632E6B017C0120E030E0A90140
:102510007D2D9F2D0E94C82E87FD76C02EEA37E4C0
:1025200041E25FE36C2D7D2D8E2D9F2D0E94533057
:1025300018160CF075C081E090E0909366028093CD
:102540006502C7CE20E030E0A901FE01602F712FA7
:102550008F2F9E2F0E94C82E87FDAAC02EEA37E437
:1025600041E25FE3FE01602F712F8F2F9E2F0E94AB
:10257000533018160CF027CE82E090E0909368025A
:102580008093670223E333E343E35FE3C501B401D0
:102590000E94632E6B017C0120E030E0A9017D2DBB
:1025A0009F2D0E94C82E87FD52C02EEA37E441E2DB
:1025B0005FE36C2D7D2D8E2D9F2D0E9453301816BC
:1025C0000CF051C081E090E0909368028093670224
:1025D000FACD82E090E09093680280936702A9CDE3
:1025E00077FA709477F8709450CFB7FAB094B7F840
:1025F000B09442CF77FA709477F8709403CFB7FA1B
:10260000B094B7F8B094F5CE2EEA37E441E25FEB30
:102610006C2D7D2D8E2D9F2D0E94C82E87FD8BCF7A
:1026200020E030E04AEA53E46C2D7D2D8E2D9F2D65
:102630000E94573023E333E343EB5FE30E94CF2E46
:1026400020E030E044E353E40E94642E53CE2EEAAF
:1026500037E441E25FEB6C2D7D2D8E2D9F2D0E9486
:10266000C82E87FDAFCF20E030E04AEA53E46C2D5E
:102670007D2D8E2D9F2D0E94573023E333E343EBB6
:102680005FE30E94CF2E20E030E044E353E40E9459
:10269000642EAACD2EEA37E441E25FEBFE01602F03
:1026A000712F8F2F9E2F0E94C82E87FF12CE1DCF15
:1026B0002EEA37E441E25FEBFE01602F712F8F2F8E
:1026C0009E2F0E94C82E87FF7ECD56CFCF92DF92DD
:1026D000EF92FF92CF93DF93EC016A017B0180912F
:1026E00060088230B1F18330D1F122E93AE046E06E
:1026F00050E4C701B6010E945330181604F1219727
:102700008FE38C9FF0018D9FF00D1124E358F74F5C
:10271000C6A2D7A2E0A6F1A683E080838FEF9FEF49
:10272000DC01848F958FA68FB78F20E030E0C90140
:10273000DF91CF91FF90EF90DF90CF90089521E04F
:1027400030E0C901DF91CF91FF90EF90DF90CF9003
:102750000895C230D10549F62FEF3FEFE8CFC330DF
:10276000D10519F6F9CF209160082230F9F0233015
:1027700019F101972FE3289FF001299FF00D1124F3
:10278000E358F74F82E080834183528363837483ED
:10279000128A118A84E690E0A0E0B0E0848F958FE1
:1027A000A68FB78F20E030E0C901089582309105EF
:1027B00001F72FEF3FEFF8CF83309105D1F6F9CF36
:1027C0002F923F924F925F926F927F928F929F9241
:1027D000AF92BF92CF92DF92EF92FF920F931F932F
:1027E000CF93DF93CDB7DEB72C970FB6F894DEBF4B
:1027F0000FBECDBF1C014A015B0168017901009148
:102800006008023009F4FCC0033009F400C120E084
:1028100030E0A901C701B6010E94C82E882309F43F
:10282000C3C0C10101972FE3289FD001299FB00D9C
:102830001124A358B74FBA87A9879A964D905D90F7
:102840006D907C909D97A3019201C501B4010E94F7
:10285000632E6983172F8A839B8320E030E0A901D0
:102860000E94C82E87FDA3C025E33AEF4EE85DE342
:10287000B981EA81FB816B2F712FCF010E94C82E95
:1028800087FDA4C020E030E0A901C701B6010E9485
:10289000C82E87FDCBC0A7019601B9810A813B8074
:1028A0006B2F712F802F932D0E94CF2E20E030E0D0
:1028B0004AE754E40E9457306C83272E382E092FA4
:1028C00020E030E0A901B981EA81FB816B2F712FF3
:1028D000CF010E94533018160CF0DCC0A985BA85D0
:1028E0009696CD92DD92ED92FC929997A985BA8544
:1028F00011964D925D926D927C921497FD01158612
:1029000016861786108A20E030E048E452E4BC8145
:102910006B2F722D832D902F0E94CF2E8B013C01A7
:10292000CB01D3016C017D0120E030E0A901B801A9
:10293000C3010E94C82E87FDA7C0B801C3010E9431
:10294000372FCB01AA2797FDA095BA2FE985FA85E5
:10295000848F958FA68FB78F128A118A868A978A5D
:10296000A08EB18E81E090E0938F828F83E0808390
:1029700020E030E0C9012C960FB6F894DEBF0FBE00
:10298000CDBFDF91CF911F910F91FF90EF90DF901E
:10299000CF90BF90AF909F908F907F906F905F90FF
:1029A0004F903F902F90089520E030E0E3CF25E353
:1029B0003AEF4EE85DEBB981EA81FB816B2F712F15
:1029C000CF010E94533018160CF05CCF023049F151
:1029D000033011F182E0A985BA858C93FD018182D3
:1029E0009282A382B482128A118A84E690E0A0E0E7
:1029F000B0E0848F958FA68FB78F20E030E0BACFFC
:102A00008230910509F003CF2FEF3FEFB3CF833032
:102A1000910509F0FCCEF8CFE3E02E163104D1F693
:102A2000F3CFB2E02B163104A9F6EECFD701C601E1
:102A3000B0588D839E83AF83B8879C01AD01B98167
:102A40000A813B806B2F712F802F932D0E94CF2EF8
:102A500020E030E04AE754E40E9457306C83272E90
:102A6000382E092F20E030E0A901B981EA81FB81ED
:102A70006B2F712FCF010E94533018167CF4CD803C
:102A8000DE80EF80F8842ACFC701B60190580E94FB
:102A9000372F57CFF7FAF094F7F8F094E985FA85D5
:102AA000C6A2D7A2E0A6F1A621CF2F923F924F92C5
:102AB0005F926F927F928F929F92AF92BF92CF92CE
:102AC000DF92EF92FF920F931F93CF93DF93CDB7D7
:102AD000DEB72C970FB6F894DEBF0FBECDBF1C013A
:102AE0004A015B016801790100916008023009F434
:102AF00012C1033009F416C120E030E0A901C7017A
:102B0000B6010E94C82E882309F4D9C0C1010197DB
:102B10002FE3289FD001299FB00D1124A358B74F50
:102B2000BA87A9879A964D905D906D907C909D97FD
:102B30009E966D917C919F97882777FD8095982F21
:102B40000E946A2F2BED3FE049EC50E40E94573081
:102B50009B01AC01C301B2010E94642E9B01AC0138
:102B6000C501B4010E94632E6983172F8A839B835A
:102B700020E030E0A9010E94C82E87FDA3C025E314
:102B80003AEF4EE85DE3B981EA81FB816B2F712F4B
:102B9000CF010E94C82E87FDA4C020E030E0A9012B
:102BA000C701B6010E94C82E87FDCBC0A7019601C0
:102BB000B9810A813B806B2F712F802F932D0E944A
:102BC000CF2E20E030E04AE754E40E9457306C8377
:102BD000272E382E092F20E030E0A901B981EA81A3
:102BE000FB816B2F712FCF010E94533018160CF010
:102BF000DCC0A985BA859696CD92DD92ED92FC92C5
:102C00009997A985BA8511964D925D926D927C92A5
:102C10001497FD01158616861786108A20E030E08D
:102C200048E452E4BC816B2F722D832D902F0E94BB
:102C3000CF2E8B013C01CB01D3016C017D0120E043
:102C400030E0A901B801C3010E94C82E87FDA7C0CA
:102C5000B801C3010E94372FCB01AA2797FDA09589
:102C6000BA2FE985FA85848F958FA68FB78F128A40
:102C7000118A868A978AA08EB18E81E090E0938F28
:102C8000828F83E0808320E030E0C9012C960FB66C
:102C9000F894DEBF0FBECDBFDF91CF911F910F9192
:102CA000FF90EF90DF90CF90BF90AF909F908F906C
:102CB0007F906F905F904F903F902F90089520E00D
:102CC00030E0E3CF25E33AEF4EE85DEBB981EA81EE
:102CD000FB816B2F712FCF010E94533018160CF01F
:102CE0005CCF023049F1033011F182E0A985BA8549
:102CF0008C93FD0181829282A382B482128A118A0E
:102D000084E690E0A0E0B0E0848F958FA68FB78F27
:102D100020E030E0BACF8230910509F0EDCE2FEF00
:102D20003FEFB3CF8330910509F0E6CEF8CFE3E073
:102D30002E163104D1F6F3CFB2E02B163104A9F6EA
:102D4000EECFD701C601B0588D839E83AF83B8877D
:102D50009C01AD01B9810A813B806B2F712F802FBF
:102D6000932D0E94CF2E20E030E04AE754E40E94E9
:102D700057306C83272E382E092F20E030E0A90130
:102D8000B981EA81FB816B2F712FCF010E945330F3
:102D900018167CF4CD80DE80EF80F8842ACFC7013E
:102DA000B60190580E94372F57CFF7FAF094F7F8F2
:102DB000F094E985FA85C6A2D7A2E0A6F1A621CFB4
:102DC0002F923F924F925F926F927F928F929F923B
:102DD000AF92BF92CF92DF92EF92FF920F931F9329
:102DE000CF93DF93CDB7DEB72B970FB6F894DEBF46
:102DF0000FBECDBF9B838A834A015B0168017901C5
:102E0000809160088983823009F437C1B981B33079
:102E100009F43BC18A819B8101972FE3289F100110
:102E2000299F300C11248DE798E0280E391ED1011E
:102E30009A964D905D906D907C909D97A301920124
:102E4000C501B4010E94632E0CC02BED3FE049EC9C
:102E500050E4FB85EA85602F712F8F2F9E2F0E94F3
:102E6000642E8B018B879A872BED3FE049E450EC71
:102E7000712F0E94C82E87FDE8CF2BED3FE049E47B
:102E800050E4B02FA12FFB85EA8517C02BED3FE062
:102E900049EC50E4FB85EA85602F712F8F2F9E2F20
:102EA0000E94632E8B018B879A872BED3FE049E4CC
:102EB00050E4B62FA12FF82FE92F6B2F7A2F8F2FE9
:102EC0009E2F0E94533018160CF320E030E0A90129
:102ED000FB85EA85602F712F8F2F9E2F0E94C82EB1
:102EE00087FD9FC025E33AEF4EE85DE3FB85EA8569
:102EF000602F712F8F2F9E2F0E94C82E87FDA0C09C
:102F000020E030E0A901C701B6010E94C82E87FD6C
:102F1000C2C0A7019601FB85EA85602F712F8F2F14
:102F20009E2F0E94CF2E20E030E04AE754E40E941A
:102F3000573069837A838C839D8320E030E0A90138
:102F4000FB85EA85602F712F8F2F9E2F0E945330B3
:102F500018160CF0D9C0D1019696CD92DD92ED9263
:102F6000FC929997D10111964D925D926D927C924F
:102F70001497F101158616861786108A20E030E036
:102F800048E452E4B981AA81EC811D816B2F7A2F2C
:102F90008E2F912F0E94CF2E8B013C01CB01D301AC
:102FA0006C017D0120E030E0A901B801C3010E945D
:102FB000C82E87FDA3C0B801C3010E94372FCB01E3
:102FC000AA2797FDA095BA2FF101848F958FA68F20
:102FD000B78F128A118A868A978AA08EB18E81E075
:102FE00090E0938F828F83E0808320E030E0C901FE
:102FF0002B960FB6F894DEBF0FBECDBFDF91CF91F9
:103000001F910F91FF90EF90DF90CF90BF90AF9006
:103010009F908F907F906F905F904F903F902F90F8
:10302000089525E33AEF4EE85DEBFB85EA85602FD6
:10303000712F8F2F9E2F0E94533018160CF060CFE7
:10304000B981B23009F454C0F981F33009F466C093
:1030500082E0D1018C93F10181829282A382B482B9
:10306000128A118A84E690E0A0E0B0E0848F958F08
:10307000A68FB78F20E030E0BACFAA81BB8112972C
:1030800009F0C8CE2FEF3FEFB2CFEA81FB81339733
:1030900009F0C0CEF7CFD701C601B0588E839F8309
:1030A000A887B9879C01AD01FB85EA85602F712F48
:1030B0008F2F9E2F0E94CF2E20E030E04AE754E46D
:1030C0000E94573069837A838C839D8320E030E0AF
:1030D000A901FB85EA85602F712F8F2F9E2F0E94FB
:1030E00053301816ACF4CE80DF80E884F98433CFF7
:1030F000EA81FB81329709F0ABCFC4CFC701B6019B
:1031000090580E94372F5BCFF7FAF094F7F8F094BD
:10311000F101C6A2D7A2E0A6F1A624CF8A819B81A5
:10312000039709F095CFAECF20916008223049F186
:10313000233091F101972FE3289FF001299FF00D93
:103140001124E358F74F2081223001F1233021F080
:10315000213011F080E008952FE3289FF001299F8E
:10316000F00D1124E358F74F20E030E0A90166A1EB
:1031700077A180A591A50E94533018168CF481E0A8
:10318000089582309105B1F68FEF08958189928973
:10319000892BA9F383E008958330910559F6F4CF84
:1031A00082E008956235A9F0633581F0663459F004
:1031B000A098A19820E1829FC001112490938900DA
:1031C000809388000895A09AA198F4CFA09AA19A1C
:1031D000F1CFA098A19AEECF6235A9F0633581F0C6
:1031E000663459F0A298A59820E1829FC00111246D
:1031F00090938B0080938A000895A29AA598F4CFAB
:10320000A29AA59AF1CFA298A59AEECF0F931F93F9
:103210008A019B0177FD28C0F8010F3F110519F0C5
:1032200010F0EFEFF0E08130910591F074F0049729
:1032300064F477FD33C0452B462B472BE9F066E459
:103240008E2F1F910F910C94EC181F910F910895E0
:1032500077FD1EC0452B462B472BA1F066E48E2F31
:103260001F910F910C94D218002711279801041B6D
:10327000150B260B370BD0CF6EE48E2F1F910F91BD
:103280000C94EC186EE48E2F1F910F910C94D218B1
:1032900062E58E2F1F910F910C94D21862E58E2F4C
:1032A0001F910F910C94EC180F931F93CF93DF9302
:1032B000EC0101972FE3289F8001299F100D112415
:1032C0000358174FF8012589213099F1223001F177
:1032D000222309F45EC0233039F5F8012081223021
:1032E00009F44FC0233009F478C02FE3289FF00180
:1032F000299FF00D1124E358F74F42A553A564A56B
:1033000075A5CE01DF91CF911F910F910C94B3134E
:1033100020E030E0A901F80166A177A180A591A580
:103320000E94C82E811141C0DF91CF911F910F9152
:10333000089520E030E0A90166A177A180A591A5BC
:103340000E94C82E882381F383E0F80180834FEF29
:103350005FEFBA01448F558F668F778F42A553A5D3
:1033600064A575A5418352836383748346A157A1E5
:1033700060A571A5CE01DF91CF911F910F910C94A3
:10338000661321893289232B09F4AFCF148A138A5B
:10339000CBCFF801108240E050E0BA01CE01DF91BE
:1033A000CF911F910F910C94061983E0F80180834F
:1033B0004FEF5FEFBA01448F558F668F778F42A52D
:1033C00053A564A575A5418352836383748346A185
:1033D00057A160A571A57058CDCFF80141815281E8
:1033E000638174818ECF2F923F924F925F926F9242
:1033F0007F928F929F92AF92BF92CF92DF92EF9285
:10340000FF920F931F93CF93DF93CDB7DEB76997EA
:103410000FB6F894DEBF0FBECDBF809160083DE7C8
:10342000432E38E0532E42E9C42E48E0D42E25E541
:1034300032E03A832983AFE9B8E0B887AF8301EB84
:1034400018E0E2EBF8E0FE83ED8366246394712CD0
:1034500062E0E62EF12C930136015B8A4A8A1C83D6
:103460000B8387012901823029F4B2E04B16510405
:1034700009F4C3C01801E2E02E1A3108C2010E940B
:103480007F10D30155966D937D938D939C935897A0
:10349000EB81FC81719780811F966D917C91509793
:1034A000680F711D882777FD8095982F0E946A2FDD
:1034B00020E030E042E553E40E94632E0E94372F63
:1034C000F301708B678777FDBCC0882777FD8095F7
:1034D000982F0E946A2F20E030E144E257E40E94D6
:1034E000533018160CF47EC0D3015596CD90DD9064
:1034F000ED90FC90589720E030E040E450ECC7019C
:10350000B6010E94C82E87FF0FC020E030E040E4E3
:1035100050E4E981FA8160817181828193810E9406
:10352000533018160CF45CC220E030E040E450E464
:10353000C701B6010E945330181674F420E030E041
:1035400040E450ECE981FA8160817181828193814C
:103550000E94C82E87FD4FC2E981FA81C082D182C4
:10356000E282F382AA89BB898C91823009F470C10E
:1035700008F06AC0811150C2EA89FB89448D558DDB
:10358000668D778D411551056105710509F4E5C317
:103590007CF14150510961097109AA89BB895C9686
:1035A0004D935D936D937C935F970430110519F5EE
:1035B00069960FB6F894DEBF0FBECDBFDF91CF91F5
:1035C0001F910F91FF90EF90DF90CF90BF90AF9041
:1035D0009F908F907F906F905F904F903F902F9033
:1035E0000895108240E050E0BA01C2010E9406191D
:1035F00004301105E9F2809160080F5F1F4F2A899E
:103600003B89215C3F4F3B8B2A8B3FE3630E711C50
:103610009FEF491A590AA981BA811496BA83A983DE
:10362000EF81F885FF96F887EF832B813C81215C41
:103630003F4F3C832B83AD81BE81DF96BE83AD833C
:1036400012CF108A178650CF833009F40EC284300F
:1036500079F6609148027091490280914A029091F6
:103660004B020E94682F20E030E04AE754E40E94B9
:10367000CF2E6E877B878F879C87ED81FE8160814F
:10368000772767FD7095872F972F0E946A2F20E07C
:1036900030E040E05CE30E94573020E030E040EA58
:1036A00050E40E94573020E030E040E05FE30E94A9
:1036B00057307D874C01FFE3F29D6001F39DD00CF4
:1036C000112428EB38E0C20ED31EAA24A394B12CF7
:1036D000198B088B7501D98EC88E7D8A6C8A5F8A9A
:1036E0004E8AD62EC72E782E592C6E844F84888D04
:1036F000998D9A878987B701882777FD8095982FBC
:103700000E946A2F2BED3FE049EC50E40E945730B5
:10371000AB851C85262D3A2F442D512F0E94573002
:1037200020E030E040E251E40E94CF2E8B011C01EA
:10373000712F932D0E94BA304B015C01E88DF98DF9
:1037400035976081772767FD7095872F972F0E94A7
:103750006A2F20E030E040E05CE30E94573020E038
:1037600030E040EA50E40E945730A50194010E94E5
:103770005730D6012B2F3C2D472D552D0E94642EFE
:10378000562E772E6C01A88DB98D1196B98FA88F02
:10379000602F712F822D932D0E94CC2E4B015C0146
:1037A000E985FA856081772767FD7095872F972FC8
:1037B0000E946A2F20E030E040E05CE30E94573036
:1037C00020E030E040EA50E40E945730A501940127
:1037D0000E945730252D372D4C2D5D2D0E94642ED3
:1037E000D62EC72E782E592EFFEFEF1AFF0A25E0AE
:1037F000E216F10409F07BCF0889198969877D8772
:103800006C887D88992E4E885F889601982F432F6B
:10381000522F692F792DAA89BB8911964D935D93FB
:103820006D937C93149752961C921E9251978FEF32
:103830009FEFDC01EA89FB89848F958FA68FB78F74
:10384000D3015596CD90DD90ED90FC9058971EC019
:10385000EA89FB89448D558D668D778D411551051B
:103860006105710509F4F2C08CF0415051096109FC
:103870007109AA89BB895C964D935D936D937C9386
:103880005F97F301C588D688E788F08CA701960179
:10389000AA89BB8911966D917D918D919C91149708
:1038A0000E94632E862E972EA82EB92E2BED3FE078
:1038B00049E450EC0E94C82E87FF1EC0EA88FB88AE
:1038C0002BED3FE049EC50E4C501B4010E94642EA9
:1038D000B62FA72F462F572F682F792F4A015B014C
:1038E0002BED3FE049E450EC6B2F7A2F0E94C82E5D
:1038F00087FDE6CFFB8AEA8A2BED3FE049E450E4FE
:10390000C501B4010E9453301816F4F4EA88FB880C
:103910002BED3FE049EC50E4C501B4010E94632E59
:10392000B62FA72F462F572F682F792F4A015B01FB
:103930002BED3FE049E450E46B2F7A2F0E94533087
:10394000181634F3FB8AEA8A20E030E0A901C501A9
:10395000B4010E94C82E87FDD7C125E33AEF4EE09F
:103960005DE3C501B4010E94C82E87FDD8C1AA89B4
:10397000BB8951968D919C915297892B09F47FC1F7
:1039800020E030E0A901C501B4010E94C82E87FDE6
:1039900007C2C501B40120915102309152024091F9
:1039A0005302509154020E94533018160CF067C114
:1039B000EB81FC8120812F5F208330E080914F02DA
:1039C000909150028217930708F05CC1AA89BB89C5
:1039D0001C9240E050E0BA01C2010E94061908CED4
:1039E000D30159968D919C915A9701965A969C9322
:1039F0008E935997B1CDD30159968D919C915A9739
:103A000001975A969C938E9359975596CD90DD9039
:103A1000ED90FC905897A0CD813009F0E9CDF301ED
:103A20008081882309F4EAC0813009F4AAC1AF81FA
:103A3000B8854C9150E0519541955109662757FD45
:103A40006095762FC2010E940619D2CD8189928994
:103A5000892B09F4C6CD8FEF9FEFDC01EA89FB8942
:103A6000848F958FA68FB78FC3CDAA89BB895C96AB
:103A70004D915D916D917C915F9741155105610567
:103A8000710509F4BFC064F0415051096109710921
:103A9000AA89BB895C964D935D936D937C935F97E8
:103AA0002DEC3CEC4CE45DE3F30161897289838980
:103AB00094890E945730AA89BB8911962D913D9116
:103AC0004D915C9114970E94642EFB01462F5F2F4D
:103AD000682F792FAA89BB8911964D935D936D93B9
:103AE0007C931497D30155962D913D914D915C9106
:103AF0005897BF010E94632E862E972EA82EB92EAE
:103B00002BED3FE049E450EC0E94C82E87FF18C01F
:103B1000EA88FB882BED3FE049EC50E4C501B40195
:103B20000E94642E862E972EA82EB92E2BED3FE0F4
:103B300049E450EC0E94C82E87FDECCFFB8AEA8A4C
:103B40002BED3FE049E450E4C501B4010E9453303D
:103B50001816C4F4EA88FB882BED3FE049EC50E4EA
:103B6000C501B4010E94632E862E972EA82EB92E71
:103B70002BED3FE049E450E40E945330181664F303
:103B8000FB8AEA8A20E030E0A901C501B4010E9465
:103B9000C82E7501640187FDFEC0609151027091CD
:103BA000520280915302909154029B01AC010E94F9
:103BB000642E9B01AC01C701B6010E945330EB811A
:103BC000FC8118160CF0DBC020812F5F208330E0D1
:103BD00080914F02909150028217930708F008CD10
:103BE000AA89BB891C925B961C921E925A9740E050
:103BF00050E0BA01C2010E940619FACCAA89BB8919
:103C00001C92F6CCE1E0F0E05296FC93EE935197D3
:103C10001D961D921D921D921C925097F3011486C1
:103C20001386F2E0FC935A968D919C915B97892BB9
:103C300059F0FD0186899789A08DB18D818392838A
:103C4000A383B483138E128EEFEFFFEFD3011C9684
:103C5000FC93EE931B97AA89BB8953968D919C91F7
:103C60005497892B09F4F7CE84E190E0A0E0B0E00E
:103C7000EA89FB89848F958FA68FB78FB9CCEB81AA
:103C8000FC811082AA89BB8915962D913D914D9199
:103C90005C911897C501B4010E9457306B017C01FB
:103CA000EA89FB8925853685478550896185728536
:103CB000838594850E9457309B01AC01C701B601F2
:103CC0000E94642E0E94372FAB01BC01C2010E94EA
:103CD00006192DEC3CEC4CE45DE3C501B4010E94F7
:103CE00057309B01AC01AA89BB891D966D917D91CE
:103CF0008D919C9150970E94642EEA89FB8965877B
:103D000076878787908B74CC25E33AEF4EE05DEBA6
:103D1000C501B4010E94533018160CF028CE21E0E2
:103D200030E0EA89FB89328B218B83899489892B46
:103D300009F057CC8FEF9FEFDC01EA89FB89848F74
:103D4000958FA68FB78FAA89BB8951968D919C912B
:103D50005297892B09F493CF13CED3011B968C91E4
:103D60001B978C93C2010E9454198FEF9FEFDC01C7
:103D7000EA89FB89848F958FA68FB78F39CC108203
:103D800081CFEF81F885408150E060E070E0C201B2
:103D90000E9406192DCCF7FAF094F7F8F094FDCEB6
:103DA000C501B4019058F7CD10927D081092BC085F
:103DB0001092FB086EE480E00E94D2186EE480E06E
:103DC0000C94EC189F92AF92BF92CF92DF92EF9239
:103DD000FF920F931F93CF93DF9300D000D0CDB706
:103DE000DEB780E190E00E94D00F813A09F44AC02A
:103DF0007DEAC72E78E0D72E00E010E0EE24E394B1
:103E0000F12CC7010E947F10AB01BC01705849839F
:103E10005A836B837C83F60140835183628373836F
:103E2000642FC8010E94C00F6A81C80101960E94D8
:103E3000C00F6B81C80102960E94C00FFFEFEF1AFE
:103E4000FF0A8FE3C80ED11C0C5F1F4F94E0E916E8
:103E5000F104B9F661EA80E190E00E94C00F21E030
:103E600030E0C9010F900F900F900F90DF91CF912C
:103E70001F910F91FF90EF90DF90CF90BF90AF9088
:103E80009F900895C12CD12CA12CB12CFFE39F2E23
:103E90009A9C70019B9CF00C11248DEA98E0E80E2E
:103EA000F91E00E010E0C601800F911F0E94D00FA4
:103EB000F70181937F010F5F1F4F0430110599F7C0
:103EC000FFEFAF1ABF0A84E0C80ED11C93E0A91619
:103ED000B104F1F620E030E0C4CF1092AD081092AA
:103EE000AE081092AF081092B0081092EC08109231
:103EF000ED081092EE081092EF0810922B09109224
:103F00002C0910922D0910922E0960EA80E190E0B0
:103F10000E94C00F0E94E21E80E090E0089510927F
:103F20006E0210926D0210926C0210926B0210924F
:103F30006A021092690260915E08609540915F0884
:103F400080915D080C94900C0F931F93CF93DF9397
:103F500081E090E09093CD008093CC001092C80057
:103F600088E98093C90080E890E00E942935809319
:103F7000BA099093BB0980E890E00E9429358C0132
:103F80009093BD098093BC09C0E0D0E004C00091CB
:103F9000BC091091BD0984E090E00E942935F80128
:103FA000EC0FFD1F808391832296C038D10579F7ED
:103FB0001092B909DF91CF911F910F9108951F922F
:103FC0000F920FB60F9211240BB60F921BBE2F93B8
:103FD0003F934F938F939F93EF93FF934091CE0026
:103FE0008091690290916A0220916B0230916C027B
:103FF000820F931F8F73907897FD1BC0FC01E758C9
:10400000F64F408380916B0290916C0201969093E1
:104010006C0280936B02FF91EF919F918F914F9172
:104020003F912F910F900BBE0F900FBE0F901F90DE
:1040300018950197806C9F6F0196E0CF16161706B2
:104040006CF4FC01680F791F91918091C80085FF85
:10405000FCCF9093CE00E617F707B1F70895CF9302
:10406000DF93EB01FC0130813093FF05362F3A5F7F
:1040700030930006509301064093020620930306F6
:1040800024E036E0AB01BC01C9010E94B137C15048
:10409000DA4F81E18D838FEF95E0DF91CF91089525
:1040A000CF93DF93EB0120E12093FF06262F2D5FB6
:1040B0002093000721E037E0AB01BC01C9010E9459
:1040C000B137C150D94F81E18A838FEF96E0DF91FC
:1040D000CF9108952F923F924F925F926F927F926D
:1040E0008F929F92AF92BF92CF92DF92EF92FF9208
:1040F0000F931F93CF93DF9300D0CDB7DEB72C0182
:10410000680F791FFB0131978081D2010C918111D9
:104110000CC0023431F0B0F5023338F0063308F049
:104120005AC0F2018281833030F410E0F801F09738
:10413000EE33F10518F18FEF8093FF0783E0809352
:10414000000881E1809301088FEFC82E87E0D82E08
:10415000C6010F900F90DF91CF911F910F91FF90AB
:10416000EF90DF90CF90BF90AF909F908F907F9017
:104170006F905F904F903F902F900895E057FF4FC2
:104180000C940F35802F8454833078F6CACFD20137
:1041900012969C91129780E013962C91822B0E948C
:1041A000760B60E070E080E090E00F900F90DF9180
:1041B000CF911F910F91FF90EF90DF90CF90BF9024
:1041C000AF909F908F907F906F905F904F903F90B7
:1041D0002F900C9450200E3309F0A7CFA2CFD2011C
:1041E00013964D915D916D917C91169712968C91DD
:1041F00090E001960E94B31360E070E080E090E0F0
:10420000D4CFD2011296EC91BFE3EB9FF0011124C1
:10421000E358F74F82A593A5A4A5B5A58093FF0702
:1042200090930008A0930108B093020864E070E046
:104230008FEF97E0BACFD2011296EC91BFE3EB9FDC
:10424000F0011124E358F74FC2A4D3A4E4A4F5A4C9
:1042500066A577A5882777FD8095982F0E946A2FFD
:104260002BED3FE049EC50E40E9457309B01AC013C
:10427000C701B6010E94642E6093FF077093000887
:10428000809301089093020864E070E0D1CF4091E0
:1042900048025091490260914A0270914B0240934A
:1042A000FF07509300086093010870930208D20141
:1042B0001296EC91BFE3EB9FF0011124E358F74F06
:1042C00082A593A5A4A5B5A580930308909304089F
:1042D000A0930508B093060868E070E0A9CFF2014A
:1042E000828190E001960E9494188093FF0761E01C
:1042F00070E09ECF82E99AE0A6E0B0E48093FF07E9
:1043000090930008A0930108B093020864E070E065
:104310008FCFD20112968C910E94FB0E6093FF0703
:1043200070930008809301089093020864E070E0A5
:104330007FCF8091510290915202A0915302B0918F
:1043400054028093FF0790930008A0930108B09354
:10435000020864E070E06CCFF20182819381A48155
:10436000B5818093510290935202A0935302B0936F
:10437000540260E070E080E090E017CF80914F023F
:104380009091500222E3289FB001299F700D1124C3
:1043900080E090E00E94682F20E030E04AE754E49B
:1043A0000E94CF2E6093FF0770930008809301084E
:1043B0009093020864E070E03BCFD20112966D91B9
:1043C0007D918D919C91159720E030E04AE754E46F
:1043D0000E94573020E030E048E452E40E94CF2EA3
:1043E0000E943C2F7093500260934F0260E070E097
:1043F00080E090E0DACE0E94D41E60E070E080E0C1
:1044000090E0D3CE81E48093FF0761E070E010CFAD
:1044100081E00E94DB0D60E070E080E090E0C5CEBE
:10442000F20182818093420260E070E080E090E0DF
:10443000BCCE1092AC081092AB081092EB08109210
:10444000EA0810922A091092290960E070E080E0E1
:1044500090E0ABCEF201428153816481758181E0AD
:1044600090E00E94B313D20116964D915D916D912B
:104470007C91199782E090E00E94B313F20142858B
:1044800053856485758583E090E00E94B31360E0F6
:1044900070E080E090E089CE8091A7089091A80814
:1044A000A091A908B091AA088093FF0790930008F3
:1044B000A0930108B09302088091E6089091E70864
:1044C000A091E808B091E90880930308909304084C
:1044D000A0930508B09306088091250990912609BC
:1044E000A0912709B09128098093070890930808A4
:1044F000A0930908B0930A0860E170E099CE07EA3A
:1045000018E0812C912CD801CD90DD90ED90FC909D
:1045100013977FEFA72E77E0B72EA80CB91C14963F
:104520006D917C911597882777FD8095982F0E9433
:104530006A2F2BED3FE049EC50E40E9457309B017D
:10454000AC01C701B6010E94642EF501608371833E
:1045500082839383015C1F4FF4E08F0E911C20E156
:104560008216910481F660E170E062CE809148028B
:1045700090914902A0914A02B0914B028093FF07AB
:1045800090930008A0930108B09302088091A708B7
:104590009091A808A091A908B091AA088093030857
:1045A00090930408A0930508B09306088091E6084C
:1045B0009091E708A091E808B091E9088093070876
:1045C00090930808A0930908B0930A0880912509E0
:1045D00090912609A0912709B091280980930B0892
:1045E00090930C08A0930D08B0930E0864E170E05E
:1045F0001FCE8091480290914902A0914A02B09149
:104600004B028093FF0790930008A0930108B0939A
:10461000020807EA18E064E0862E912CD801CD90BC
:10462000DD90ED90FC9013975FEFA52E57E0B52E2F
:10463000A80CB91C14966D917C911597882777FD6D
:104640008095982F0E946A2F2BED3FE049EC50E4B3
:104650000E9457309B01AC01C701B6010E94642E35
:10466000F5016083718382839383015C1F4FF4E0C3
:104670008F0E911C20E18216910481F664E170E0B6
:10468000D7CDD2011296EC918E2F90E0BFE3EB9F35
:10469000F0011124E358F74F06A117A120A531A579
:1046A000F201438154816581768101960E94E01375
:1046B00060E070E080E090E078CDD2011296EC915D
:1046C0008E2F90E0BFE3EB9FF0011124E358F74FEA
:1046D00006A117A120A531A5F2014381548165816E
:1046E000768101960E94551560E070E080E090E0D0
:1046F0005CCDD2011296EC918E2F90E0BFE3EB9F40
:10470000F0011124E358F74F06A117A120A531A508
:10471000F201438154816581768101960E94E01601
:1047200060E070E080E090E040CDD2011296EC9124
:10473000BFE3EB9FF0011124E358F74F86A197A147
:10474000A0A5B1A58093FF0790930008A09301084E
:10475000B093020864E070E06BCD1201E2E02E0E2F
:10476000311CA3EAEA2EA8E0FA2EC12CD12CFFEFCF
:10477000CF1ADF0AD7010D911D912D913C91F101C6
:1047800041915191619171911F01C6010E94E01305
:10479000FFE3EF0EF11C23E0C216D10441F701CD77
:1047A000120182E0280E311CF3EAEF2EF8E0FF2E12
:1047B000C12CD12C9FEFC91AD90AD7010D911D9197
:1047C0002D913C91F10141915191619171911F01A4
:1047D000C6010E945515FFE3EF0EF11C23E0C2163F
:1047E000D10441F7DECC120182E0280E311CE3EA4D
:1047F000EE2EE8E0FE2EC12CD12C9FEFC91AD90A6B
:10480000D7010D911D912D913C91F1014191519153
:10481000619171911F01C6010E94E016FFE3EF0E46
:10482000F11C23E0C216D10441F7BBCCD201129691
:10483000EC91BFE3EB9FF0011124E358F74F85891A
:104840008093FF0761E070E0F3CCF201C380D48075
:10485000E580F68022E93AE046E050E4C701B6017F
:104860000E94533018160CF4F1C222E93AE046E0F7
:1048700050ECC701B6010E94C82E87FF08C0B2E9FC
:10488000CB2EBAE0DB2EB6E0EB2EB0ECFB2ED20145
:104890001296EC91BFE3EB9FF0011124E358F74F20
:1048A000C6A2D7A2E0A6F1A660E070E080E090E0AA
:1048B0007CCCD20113968C9113971296EC91BFE3A6
:1048C000EB9FF0011124E358F74F858BF2018281B1
:1048D00090E001960E94541960E070E080E090E062
:1048E00064CC80915D0890915E08A0915F088093F0
:1048F000FF0790930008A093010863E070E098CC54
:104900001092FF0761E070E093CC02E918E0120119
:10491000F5E02F0E311C20E030E042E3842E912C94
:10492000A12CB12CD20112968C9190E0022E02C0E3
:10493000959587950A94E2F780FD4AC266246394B0
:10494000712C620E731E9301015C1F4FB6E02B0E9B
:10495000311C2430310531F724CC809148029091EC
:104960004902A0914A02B0914B028093FF079093B5
:104970000008A0930108B093020817EA412E18E03E
:10498000512E03E1802E08E0902E84E0A82EB12C59
:1049900000E010E0F201C080D180E280F3800F5F80
:1049A0001F4FBFEF6B2EB7E07B2E6A0C7B1C648120
:1049B0007581882777FD8095982F0E946A2F2BEDAF
:1049C0003FE049EC50E40E9457309B01AC01C70125
:1049D000B6010E94642ED3016D937D938D939C93B9
:1049E0001397C8010E949418F40181934F01FFE3CB
:1049F0004F0E511C24E0A20EB11C0430110551F6DB
:104A000068E170E015CC60E070E080E090E00E942A
:104A100050206C01D20112968C910E94500C98CBC0
:104A200080917708909178089093FF07809177089C
:104A3000909178088093000862E070E0F9CB809153
:104A4000EF0A811178CB8AE08093EF0A60E070E092
:104A500080E090E0AACB8091B9098823C1F1E09170
:104A6000BA09F091BB096091BC097091BD0942E09F
:104A700050E020E030E0CF01AFEFEA2EA7E0FA2EC1
:104A8000E40EF51ED701129711811C93329687010F
:104A900001501109DC018C91D8018C93DB018D91BF
:104AA0009D91BD01DC018D909D90AD90BC90D70192
:104AB0008D929D92AD92BC9213972F5F3F4F809144
:104AC000B9094A5F5F4F90E028173907A4F2609157
:104AD000B909B6E06B9FB0011124AACBEDE7F8E06D
:104AE00080E090E044E0D20112962C9130E0082E54
:104AF00002C0359527950A94E2F720FD4083019680
:104B0000FF968430910579F74CCBF201418150E05A
:104B100044505109B2016D5F7F4F928180E042960F
:104B20000E94E10F60E070E080E090E03ECBD201B7
:104B3000189680E090E02FE3FD0135973081F20177
:104B40004281FC01249FE00DF11D1124E358F74F31
:104B500035AB3D91F2014281FC01249FE00DF11D36
:104B60001124E358F74F32AF01968530910521F7B4
:104B700018CB1092B90960E070E080E090E015CBAE
:104B80008FE58093FF0789E0809300088091770884
:104B90009091780890930108809177089091780817
:104BA000809302088091430290914402A0914502B3
:104BB000B09146028093030890930408A0930508DF
:104BC000B0930608109207089FEFC92E97E0D92EE0
:104BD000BFCA2FEF37E0F201418150E0B201C901B5
:104BE0000E94B13781E28093FF07809100088823FB
:104BF00009F466C0EFEFF7E090E08E0F9F1F31E2FF
:104C00002091C80025FFFCCF3093CE003196E817E5
:104C1000F90709F455C03081F3CF0E946F0F98CA8D
:104C200064E070E083E492E0C0CAB2016E5F7F4F3F
:104C300044E050E082E194E00E94E10FF2018281C1
:104C40009381A481B5818093430290934402A09301
:104C50004502B093460260E070E080E090E0A5CAB3
:104C6000D20112968C911297982F9B50903158F048
:104C70008FEF8093FF0783E08093000881E18093AA
:104C8000010812968C910E949B0281E00E9493027F
:104C90008FEF80934701809147018093FF0761E088
:104CA00070E0C6CA413009F4E9C044E050E063E472
:104CB00072E0C20102960E94A437009709F4DCC09A
:104CC000C12CD12C45CAD20112969C91129780E03A
:104CD00090934D0280934C0280914C0290914D0232
:104CE00013962C91822B90934D0280934C0240E0BE
:104CF0006FEF80E00E94900C60E070E080E090E058
:104D000054CA10924D0210924C024FEF60E080E0C6
:104D10000E94900C60E070E080E090E046CAF201F2
:104D20004781668185810E94900C60E070E080E0A0
:104D300090E03BCA82010C5F1F4F21E030E0D201BE
:104D400012968C9190E0A9014150510902C09595AD
:104D500087954A95E2F780FD65C02F5F3F4F0E5F54
:104D60001F4F2430310559F71CCA0E940F0F609362
:104D7000FF0770930008809301089093020864E095
:104D800070E056CA0E94540D811172C080915A0879
:104D900090915B08909300088093FF0780916108D1
:104DA00090916208909302088093010880917A089C
:104DB00090917B08909304088093030866E070E06C
:104DC00037CA809160088093FF0761E070E030CAC5
:104DD000F10132978081F8018083F1013197808160
:104DE000D8011B968C931B971C961C92F101C080D6
:104DF000D180E280F3803901FFEF6F1A7F0AC3018F
:104E00000E945419F7FC2BC0C701B601A5019401FB
:104E10000E94F334D80117962D933D934D935C93E4
:104E20001A9791CDF8013197F080E12CF80180813B
:104E3000A701482B662757FD6095762FC901298366
:104E40003A830E9406193A81298187CF12E9C12E3F
:104E50001AE0D12E16E0E12E10E4F12E18CD8FEFDE
:104E60009FEFDC01F80187839087A187B2876BCD24
:104E70008AE00E94DB0D8ACF81E283CE84E68093B4
:104E8000FF0787E080930008F20182818093010888
:104E900083818093020884818093030885818093B5
:104EA00004081092050820E04FEF5FEF67E08FEFF6
:104EB00097E00E94052C892B09F03DC972C9EF9239
:104EC000FF920F931F93CF93DF9382E390E0A0E0D4
:104ED000B0E08093F1049093F204A093F304B093B4
:104EE000F40481E08093F0048FE89FE19093F6044E
:104EF0008093F504FF24FA9403E011E180916B02A2
:104F000090916C02181619060CF0C4C080916B02C7
:104F100090916C02892B09F4B9C0E0916902F0917B
:104F20006A02E758F64FE0808091690290916A0228
:104F300001968F73907897FDB4C090936A02809326
:104F4000690280916B0290916C02019790936C02C0
:104F500080936B0280916D0290916E02009741F4F4
:104F600080EF94E00E948A2C80916D0290916E02F5
:104F7000FC01E150FB4FE082019690936E0280931A
:104F80006D02823091050CF4B9CF2091000530E01C
:104F90008217930709F0B2CF80EF94E00E94562C5D
:104FA000409101058091770890917808242F30E096
:104FB000892F9927509102052817390709F476C0DF
:104FC00041112DC051112BC06091050541E070E0E9
:104FD00084E095E00E946A200097E1F0FC01618185
:104FE00021E040E050E070E00E942F20FC01418170
:104FF00050E04115510571F020E030E09191809131
:10500000C80085FFFCCF9093CE002F5F3F4F241741
:105010003507A4F310926E0210926D026FCFD42F59
:10502000F0E0CF2FCE01852BAC0121E0609105058A
:1050300084E095E00E94052C892B61F3F092FF0437
:10504000009300051093010521E040E050E063E08B
:1050500070E08FEF94E00E942F20FC01418150E02E
:1050600041155105B9F220E030E091918091C800DE
:1050700085FFFCCF9093CE002F5F3F4F241735075D
:10508000A4F310926E0210926D0238CF10926E024D
:1050900010926D02DF91CF911F910F91FF90EF90D1
:1050A00008950197806C9F6F019647CF8091770894
:1050B00090917808252F30E099272817390709F0B3
:1050C0007FCF82CF1092EF0A0895FC018785882355
:1050D00091F080916F02909170020196909370020E
:1050E00080936F0286E08093EF0A80916F02909127
:1050F0007002069734F01092700210926F021092B4
:10510000EF0A0895FC018785882399F080916F024A
:105110009091700201969093700280936F0280913B
:105120006F0290917002069724F483E08093EF0A57
:1051300008951092700210926F021092EF0A089573
:10514000FC018785811129C081E00E94DB0D0E944E
:10515000B236909378088093770880917708909181
:10516000780897FD09C08091770890917808906839
:1051700090937808809377088091770890917808C9
:105180008E7F909378088093770810927002109227
:105190006F0281E08093EF0A0895109270021092DE
:1051A0006F028091770890917808816090937808D9
:1051B0008093770880917708909178080E94F60391
:1051C0001092EF0A0895FC012785222301F1209116
:1051D0006F02309170022F5F3F4F30937002209327
:1051E0006F0228E02093EF0A20916F023091700245
:1051F000263031050CF408951092700210926F025F
:105200001092EF0AFC01828593850C94C4351092AC
:10521000700210926F021092EF0A828593850C94AF
:10522000C4350F931F93CF93DF9308E010E0C0E0E5
:10523000D0E0CC0FDD1FCC0FDD1F809146018295A1
:1052400086958370C82B61E070E080E090E00E945A
:105250002A0F0150110969F7CE01DF91CF911F91FB
:105260000F910895FF920F931F93CF93DF930E94A6
:10527000F50884E392E10E94FC038FE00E949B0208
:1052800081E00E9493026BEF7BE281E00E940204C6
:1052900044E050E063E472E082E194E00E94FF0F9A
:1052A00010924702C3E4D2E0FE0181918F3FC1F525
:1052B00082E0E734F807C9F734E2F32E0AE712E098
:1052C0000E941129AC019C01AFE8B3EE0E94B134F9
:1052D00096958795929582958F7089279F708927DB
:1052E000F89E9001F99E300D1124421B530B842F20
:1052F00048834A30F0F4805D888361E070E080E0AC
:1053000090E00E942A0F219682E0C734D807C1F6A8
:1053100044E050E063E472E082E194E00E94E10F37
:1053200081E08093EF0ADF91CF911F910F91FF9061
:1053300008950883E2CFCF93DF9300D01F92CDB7BB
:10534000DEB78091EF0A853009F4F7C0B0F18730FD
:1053500009F415C108F4C7C0883009F437C18A3090
:1053600031F58FEF9FEF9093D40A8093D30A81E0B9
:105370008093D50A8093D60A1092D70A8EE580933F
:10538000DF0A23E02093E00A1092E10A8FED9AE011
:105390009093D90A8093D80A2093DA0A82E698E299
:1053A0009093DC0A8093DB0A86E08093EF0A0F90EB
:1053B0000F900F90DF91CF910895813009F40BC1C8
:1053C00008F05CC080917202882309F46FC180915B
:1053D0007202882309F476C1E09171028091710212
:1053E0008F5F80937102809172028150809372026C
:1053F000EF7025E8E29FF0011124EF50F54FF09394
:105400004213E0934113309709F460C185818053C2
:10541000813408F080C180914C0290914D02892B1B
:1054200009F47DC18281938120914C0230914D021B
:105430008217930709F473C19093D40A8093D30A17
:1054400081E08093D50A8093D60A8093D70ACE0153
:1054500001969093D90A8093D80A83E08093DA0A60
:1054600085E698E29093DC0A8093DB0A1092700242
:1054700010926F0286E08093EF0A99CF823009F490
:105480003FC0833009F093CFE0914113F091421374
:10549000828193819093D40A8093D30A81E0809390
:1054A000D50A8093D60A8093D70AE0912708F09115
:1054B0002808F093D90AE093D80A81818093DA0A08
:1054C00082E898E29093DC0A8093DB0A8EEC9AE003
:1054D0000E94350484E08093EF0A0F900F900F90A4
:1054E000DF91CF9108958EEC9AE00E94350489E017
:1054F0008093EF0A0F900F900F90DF91CF91089556
:105500008091411390914213FC016081718142E0CE
:1055100005960E946A209093280880932708009798
:1055200031F1E0914113F091421325812E3509F4B8
:10553000DEC083E08093EF0A3ACFE0914113F0910F
:1055400042138581813209F4CBC04281538160814D
:1055500071812481CF0105960E942F209093280805
:1055600080932708FC01618170E00E941E20109248
:10557000EF0A0F900F900F90DF91CF9108958091D7
:105580007302882309F49BC0809174029091730286
:10559000915090937302909174029F5F9093740264
:1055A0008F70F1E18F9FC00111248254964F909328
:1055B0002A08809329080E94350489E08093EF0A25
:1055C0000F900F900F90DF91CF910895809129084F
:1055D00090912A08F0CF0E94112990937808809327
:1055E00077088091770890917808019661F40E947D
:1055F000112990937808809377088091770890918B
:1056000078080196A1F3809177089091780897FD2A
:1056100009C08091770890917808906890937808F5
:105620008093770880917708909178088E7F909387
:1056300078088093770880917708909178080E9485
:10564000F603809177089091780881609093D40A4E
:105650008093D30A81E08093D50A8093D60A809301
:10566000D70A8EE58093DF0A83E08093E00A1092E8
:10567000E10A8FED9AE09093D90A8093D80A80913D
:10568000E00A8093DA0A80EA98E29093DC0A809339
:10569000DB0A8EEC9AE00E9435048BE08093EF0ADF
:1056A0000F900F900F90DF91CF910895809173022A
:1056B000882309F47CCE87E08093EF0A78CE80E0DF
:1056C00090E075CF109242131092411385E00E9432
:1056D000DB0D0E946F0FE0914113F091421396CEC3
:1056E000668170E0CF0105960E941E2040CF228186
:1056F00033813093D40A2093D30A21E02093D50A32
:105700002093D60A2093D70A9093D90A8093D80A77
:10571000FC018181A3CE85E08093EF0A48CE82E030
:105720008093EF0A44CEFC0180917202803108F030
:105730005FC0209171028091720290E0820F911DF2
:105740008F709927278130E045E8489FD001499F15
:10575000B00D1124AF50B54F11963C932E9320916C
:1057600071028091720290E0820F911D8F709927D3
:1057700020813181489FD001499FB00D1124AF5045
:10578000B54F13963C932E931297209171028091FE
:10579000720290E0820F911D8F7099272281489F9D
:1057A000D001499FB00D1124AF50B54F14962C93E2
:1057B000809171022091720230E0280F311D2F700C
:1057C0003327429FD001439FB00D1124AA50B54FFB
:1057D00047816581768150E0CD010E94B13780918B
:1057E00072028F5F8093720220E030E0C901089559
:1057F0002FEF3FEFFBCFCF93DF93EC010E94932B72
:105800008C818170DF91CF910895EF92FF920F9379
:105810001F93CF93DF931F92CDB7DEB7082F792F59
:10582000162F309173023031F0F580917402E091BF
:105830007302F0E0E80FF11DEF70FF2781E18E9F0A
:1058400070018F9FF00C11248EEB99E0E80EF91E89
:10585000F7015683458331E0378330872187862FD0
:1058600090E079830E942935F70182879387412F41
:1058700050E0602F79810E94B137F701148783EEE1
:1058800098E296878587809173028F5F8093730279
:1058900020E030E0C9010F90DF91CF911F910F916F
:1058A000FF90EF9008952FEF3FEFF4CFCF93DF936A
:1058B000FC018091750290917602E817F907B9F022
:1058C000A585B685109731F0838594851C969C93A9
:1058D0008E931B97C385D485209711F0BE87AD8723
:1058E0001486138616861586DF91CF910895A385B9
:1058F000B485B0937602A0937502109789F31E9633
:105900001C921E921D971486138616861586DF91AB
:10591000CF9108950F931F93CF93DF93EC010E94D3
:10592000562C009148021091490220914A02309170
:105930004B0249815A816B817C81040F151F261F00
:10594000371F0F83188729873A871C861B861E8678
:105950001D868091750290917602009709F446C0E9
:10596000FC0147815085618572850417150726075C
:10597000370778F1FC0147815085618572850417EE
:10598000150726073707A0F1DC010AC047815085BB
:1059900061857285041715072607370738F0DF0180
:1059A0001B96ED91FC911C97309781F71C96DC9328
:1059B000CE931B97BE87AD87FC87EB87309711F09E
:1059C000D687C587892BB9F0DF91CF911F910F91B1
:1059D00008959C878B87D687C587D0937602C0931E
:1059E0007502DF91CF911F910F910895E0E0F0E0F3
:1059F000A0E0B0E0DFCFD0937602C0937502DF91D4
:105A0000CF911F910F9108950F931F93CF93DF9321
:105A1000C0917502D0917602209789F00F81188588
:105A200029853A85409148025091490260914A0285
:105A300070914B02401751076207730728F4DF91FA
:105A4000CF911F910F910895CE010E94562CED81A8
:105A5000FE81099588818111F2CFCE01DF91CF912E
:105A60001F910F910C948A2C0F931F93CF93DF9368
:105A70008091480290914902A0914A02B0914B0254
:105A800040915613509157136091581370915913C8
:105A9000841B950BA60BB70B81349747AB41B1051F
:105AA00008F06BC080916008823009F458C0809182
:105AB0008E0890918F08892B91F18091CD0890915B
:105AC000CE08892B61F180917702813009F468C09A
:105AD0000BED1FE029EC3FE34BED5FE069E471E47F
