:100000000C945E010C947D010C947D010C947D0197
:100010000C947D010C947D010C947D010C947D0168
:100020000C947D010C94050A0C947D010C947D01C7
:100030000C947D010C94CB030C947D010C947D01F8
:100040000C947D010C947D010C947D010C947D0138
:100050000C947D010C947D010C947D010C947D0128
:100060000C947D010C947D010C947D010C947D0118
:100070000C947D010C947D010C947D010C947D0108
:100080000C947D010C947D010C947D010C947D01F8
:100090000C94A3200C947D010C947D010C947D01A3
:1000A0000C947D010C947D010C94D7010C94E80113
:1000B0000C947D010C947D010C947D010C94960CA4
:1000C0000C947D010C947D010C947D010C947D01B8
:1000D0000C947D010C947D010C947D010C947D01A8
:1000E0000C947D010C947D010C947D010C947D0198
:1000F0000C9410030C947D010C947D010C94E4028B
:100100000C947D010C947D010C947D010C947D0177
:100110000C947D010C947D010C947D010C947D0167
:100120009E216221B025F524E9219424AC241726D0
:1001300036262E2352238523B923FC2340245C2416
:100140007824CB24DD241D224B2273227E228D2293
:1001500057219D22B022C222E122FF2206230C2336
:1001600014231D232227572127274A277B269D2634
:10017000B426C626D3265F256B25A925C221E226F3
:100180000B270E274425C625E825F9250425122529
:100190001D253725942155267426132705A84CCDF7
:1001A000B2D44EB93836A9020C50B9918688083CB1
:1001B000A6AAAA2ABE000000803F6E616E00696E8A
:1001C000660000407A10F35A00A0724E1809001021
:1001D000A5D4E80000E87648170000E40B540200BC
:1001E00000CA9A3B000000E1F505000080969800E7
:1001F000000040420F000000A08601000000102710
:1002000000000000E803000000006400000000009F
:100210000A00000000000100000000002C76D888D1
:10022000DC674F0823DFC1DFAE59E1B1B796E5E3E4
:10023000E453C63AE651997696E8E6C28426EB89FD
:100240008C9B62ED407C6FFCEFBC9C9F40F2BAA59A
:100250006FA5F490055A2AF75C936B6CF9676DC132
:100260001BFCE0E40D47FEF520E6B500D0ED902E36
:100270000300943577050080841E080000204E0A94
:10028000000000C80C333333330F986E12831141D2
:10029000EF8D2114893BE65516CFFEE6DB18D1849D
:1002A0004B381BF77C1D901DA4BBE42420328472C4
:1002B0005E228100C9F124ECA1E53D2711241FBE77
:1002C000CFEFD1E4DEBFCDBF12E0A0E0B2E0E6EEBA
:1002D000F0E700E00BBF02C007900D92AA37B1070C
:1002E000D9F713E1AAE7B2E001C01D92A237B10726
:1002F000E1F70E942D100C9471380C94000014BE8C
:1003000088E10FB6F89480936000109260000FBEF1
:1003100078940C948E0190E00C94A30110923F0805
:1003200080E29EE49093A9008093A800E1EAF0E0C7
:1003300088E08083808182608083E2E7F0E08081D2
:100340008260808308952091A4003091A500280F39
:10035000391F3093AB002093AA002091AA0030915E
:10036000AB008091A8009091A9008217930770F4C8
:100370008091AA009091AB002091A8003091A90033
:10038000821B930B9093AB008093AA0010927A0289
:100390008091720084608093720080917A02882339
:1003A000E1F3809172008B7F8093720008951F9219
:1003B0000F920FB60F9211248F9380913F088F5F99
:1003C00080933F088F910F900FBE0F901F9018954C
:1003D0001F920F920FB60F9211248F9381E080939A
:1003E0007A028F910F900FBE0F901F9018950F9368
:1003F0001F93CF93DF9310924E0183E080934201CD
:1004000086E080934201809141018F718630D9F757
:10041000C0E0D0E000E010E081E00E948B0120917C
:10042000460122952695237030E00C2E02C0220F43
:10043000331F0A94E2F7022B132B2296C031D10509
:1004400059F783E08093420188E0809342018091D4
:1004500041018F718830D9F78FEF80934F018091E0
:100460004E01886080934E0180914E01806480939C
:100470004E01C801DF91CF911F910F910895809196
:100480008402882361F083E08093420186E18093B7
:100490004201809141018F718631D9F7089583E03F
:1004A0008093420188E080934201809141018F71E5
:1004B0008830D9F70895809139018160809339019E
:1004C00083E08093420188E0809342018091410162
:1004D0008F718830D9F780916E01806280936E01B0
:1004E00080916E018F7E80936E018FEF80934F011C
:1004F00080914E01886080934E0180914E0180640E
:1005000080934E0180914C01806880934C010E9441
:10051000F70180936D0110927E021092840281E0B7
:1005200080930A020895EEE7F2E09081986090834C
:10053000809384020895EEE7F2E0908191609083C9
:1005400080937F020895EEE7F2E02081226020830D
:1005500090938102809380020895EEE7F2E020817B
:100560002460208390938302809382020895809177
:100570000A02813011F081E0089590917E0291117C
:10058000FBCF80E0089523E02093420129E12093EE
:100590004201209141012F712931D9F7262F2E5F79
:1005A00020938001662349F0FC01A1E8B1E091911C
:1005B0009D939E2F981B9617D0F382E08093420163
:1005C00083E080930A0208951F920F920FB60F9254
:1005D00011248F93809141018F71893131F08F9176
:1005E0000F900FBE0F901F90189583E080934201EB
:1005F00089E080934201809141018F718930D9F760
:1006000084E080930A0280914201829586958770EA
:1006100080937D028F910F900FBE0F901F901895C1
:100620001F920F920FB60F9211248F9389E080933F
:1006300042018091470180937C0280917B018093ED
:100640007B0285E080930A028F910F900FBE0F907E
:100650001F901895CF93DF9300D000D01F92CDB795
:10066000DEB780910A02843009F481C0853009F434
:100670003FC0813041F00F900F900F900F900F907E
:10068000DF91CF91089590917E029923A1F383E0A9
:100690008093420188E080934201809141018F71F3
:1006A0008830D9F790FF09C020917F022F71809187
:1006B0004801807E822B8093480191FF08C0809181
:1006C000800280936201809181028093630192FF96
:1006D00008C08091820280936001809183028093A0
:1006E000610194FD53C00E943F0210927E02C3CF6D
:1006F00080917B0280E090E040E0FC01E058FE4FFA
:100700002081FC01EB57FD4F20834F5F20917B023E
:10071000842F90E030E0281739077CF785E892E0D5
:100720009A83898380917B0282508B83E0917B0244
:10073000F0E0EB57FD4F80818C8380917C028A55DD
:100740008D83CE0101960E948605809141018F71B3
:100750008930D9F781E080930A020E943F020F900E
:100760000F900F900F900F90DF91CF91089580918F
:100770007D020E947108809141018F718930D9F703
:1007800081E080930A020E943F02E9CF0E94F701B4
:100790000E94BB0CA8CF1F920F920FB60F9211248C
:1007A0008F9381E0809305038F910F900FBE0F9080
:1007B0001F90189510924408109245081092410815
:1007C000109240081092470810924608109249086B
:1007D0001092480810924B0810924A080E94AA07EB
:1007E0000E9462050E94E0040C943004909341083A
:1007F000809340080C94AD02909343088093420884
:100800000C94A302E82FF0E0EE0FFF1FEA5BF74F16
:100810007183608308950E94BA050E948D080C942C
:100820004E04E0910603F0910703309731F416C0AF
:100830000190F081E02D309789F0228133812817D3
:100840003907B1F7DC01A158BF4F2C912787DC0194
:10085000AE57BF4F2C91208B22E024830C940C05C3
:1008600010920703109206030895FC011482178664
:10087000138212828091060390910703009739F04A
:1008800091838083F0930703E09306030895118218
:100890001082F0930703E093060308950F931F93CC
:1008A000CF93DF93E0910603F0910703309709F4AB
:1008B0007BC0EF018C81811155C08C850E94E704BB
:1008C0008C01009709F46DC09B838A8381E08C833F
:1008D000F801ED57FF4F81E194E091838083F801A7
:1008E000EE57FF4F898582FB882780F980839985A1
:1008F000F801838590FB80F98387998593FB99277D
:1009000090F990FB82F987708387809144088F5F0C
:10091000809344088487809140089091410896878D
:1009200085878D819E81908B878798859F7081892F
:10093000807F892B818B9F819295907F8F70892BEF
:10094000818B98012E5E3F4F4C856A857B8550E0F8
:10095000C9010E94C037C801DF91CF911F910F914B
:100960000C94C507823039F00990D881C02D2097AA
:1009700009F0A0CF19C0EC17FD0711F41AC0FC0153
:10098000808191818C179D07D1F78881998191830E
:100990008083ED85FE85CE01DF91CF911F910F9170
:1009A000099482E08C838F87DF91CF911F910F9103
:1009B0000895888199819093070380930603E9CF76
:1009C0001092080310928D031092120408959091D2
:1009D0000803992361F090918D039923B9F09091C8
:1009E00012049923B1F020E030E0C901089540E0FD
:1009F00050E095E8949FF001959FF00D1124E85F79
:100A0000FC4F805F81839F01C901089541E050E060
:100A1000F0CF42E050E0EDCFFC011082089595E860
:100A2000899F90011124285F3C4FC9010895FC0162
:100A3000DC01A158BF4F1C92DC01A058BF4F1D9292
:100A40001C92DC01AE57BF4F1C92DC01AD57BF4F6B
:100A50001D921C921386A4E4B8E08C918F5F8C9356
:100A60008487809140089091410896878587108AF5
:100A70001786118A08950C940C05EBE9F4E040E028
:100A8000208131812115310529F02150310931832F
:100A9000208341E0359624E0ED3CF20789F74111CF
:100AA00001C008950C946E09DC011596ED91FC913E
:100AB00016972081222311F080E008950E944D08AE
:100AC00081E00895EBE9F4E011821082359684E02C
:100AD000ED3CF807C9F71092CA0484E190E0A0E069
:100AE000B0E08093D1049093D204A093D304B09348
:100AF000D4041092D5048DE395E09093D7048093AD
:100B0000D60464E575E080E00C940204CF93DF9393
:100B1000EC01E881F9818181883819F0DF91CF916A
:100B200008958081813611F08134C1F78A81803146
:100B3000A8F380510E94E704009781F320E2FC01B2
:100B400020832B81E158FF4F20832C81FC01E0584A
:100B5000FF4F20839C012E5F3F4F4A81688179813E
:100B600050E0C9010E94C0378091CA048F5F809312
:100B7000CA04D4CF2F923F925F926F927F928F924E
:100B80009F92AF92BF92CF92DF92EF92FF920F931C
:100B90001F93CF93DF93CDB7DEB72A970FB6F894A4
:100BA000DEBF0FBECDBF8091CA048823F1F0512C67
:100BB00054E2752E6BE3C62E65E0D62E72E2672EE8
:100BC000E7E9AE2EB12C852D0E940F058C01DC01CA
:100BD0008C91823211F1843209F421C1803209F4FE
:100BE000B3C05394B3E05B12EECF2A960FB6F894DD
:100BF000DEBF0FBECDBFDF91CF911F910F91FF9050
:100C0000EF90DF90CF90BF90AF909F908F907F90AC
:100C10006F905F903F902F90089510929704D801A5
:100C200051968C91519782958F70282F30E0243007
:100C300031050CF0FDC0F901EE0FFF1FEA5BF74F25
:100C40000190F081E02D309709F4F2C01D962D91AE
:100C50003C911E973A83298351969C9151979F709E
:100C60009B838C83A8014E5E5F4F5F834E831196FA
:100C70008C91119780518887A158BF4F8C9189879B
:100C8000D801A058BF4F8C918A87D8011B968C91B0
:100C9000982F937082FDE8C080E0892BD8011F96C1
:100CA0004D915C9150974F3F5F4F09F4E8C090E041
:100CB000892BD80119964D915C911A972417350705
:100CC00009F4DBC090E0892BD80115962D913C9159
:100CD00016972F3F3F4F09F4CEC090E0892B8D83AC
:100CE000CE0101960995F801278130852F3F3F4FAE
:100CF00009F4A6C060E0F801938590FFB0C0882396
:100D000009F4ADC083E00E94E7047C010097C9F0BC
:100D10000E941705F701ED57FF4FD182C082D8011D
:100D20001D962D913C911E97F701308B2787128AD3
:100D300080919704848B1C968C91838BC7010E94B1
:100D4000C507D8017C924DCFF80170822785308984
:100D50002F3F3F4F09F48AC020904008309041084F
:100D6000F801E584F6842E143F0409F43ACF838514
:100D700081FD37CF4801FDE08F0E911CE8E9F4E0DA
:100D800020E030E08FEF0FC0D4016D917C91408165
:100D900051816417750709F474C02F5F3F4F359672
:100DA0002A30310559F043815481452B69F7822F50
:100DB0002F5F3F4F35962A303105A9F78F3F09F451
:100DC00010CF992787FD9095FC01EE0FFF1FEE0FC6
:100DD000FF1FE80FF91FE856FB4FF182E082D801B0
:100DE0001C968C918283B482A3828BEC94E00E9447
:100DF0006E092090400830904108F8018781908565
:100E0000019609F453C0F8018785908982159305EE
:100E100019F0019609F0E5CED8016C92E2CEC80136
:100E20000E940C058091CA0481508093CA04D9CED7
:100E300080E0F801278130852F3F3F4F09F05ACFDE
:100E400061E04091400850914108D8011F962D91D2
:100E50003C9150974217530709F04CCF4CCF61118A
:100E600051CFD8017C92BDCE80E217CF1B968C91DA
:100E700080FF72CFB6CE90E131CF98E024CF94E0DE
:100E800017CFF8018485F901EE0FFF1FEE0FFF1F4A
:100E9000E20FF31FE856FB4F9281282F291B1216F1
:100EA0000CF09FCE8283B482A382A7CFF8018785FE
:100EB00090898215930509F4AFCFF8012581368119
:100EC0002F3F3F4F09F4A5CFD8011B962C9122FD4F
:100ED000A0CFC8010E94030820904008309041082C
:100EE00092CF0C940C05FF920F931F93CF93DF9337
:100EF000EC018091DA04882339F110E085E1F82EC5
:100F000000E1812F0E940F05FC018081843159F09E
:100F10001F5F1330B1F7CE01DF91CF911F910F9179
:100F2000FF900C946E09DF01A058BF4F2D913C91AA
:100F30001197215031092D933C93232B49F7F082CF
:100F4000E158FF4F0083E4CFDF91CF911F910F91C4
:100F5000FF9008951092D9041092D8041092DA04E8
:100F600082E390E0A0E0B0E08093E1049093E2049B
:100F7000A093E304B093E4041092E50483E797E0C0
:100F80009093E7048093E6040895FC01DC01AE57DA
:100F9000BF4F8C9191E19083DF01A158BF4F1C920C
:100FA00080FF20C08FEF9FEF968385838785908990
:100FB00090878783209140083091410832872187AC
:100FC000209145082F5F209345082483019689F0DE
:100FD00081E698E8938382838091DA048F5F80931F
:100FE000DA0408958091420890914308968385839E
:100FF000DDCF81E498E8938382838091DA048F5F68
:101000008093DA0408950F931F93CF93DF938C019D
:10101000FC01818180510E94E704EC010097C1F13D
:10102000FC01ED57FF4F81E797E0918380839E019C
:101030002E5F3F4FF80141810E5F1F4F50E0B80116
:10104000C9010E94C03781E18883FE01E158FF4F4A
:10105000108281E498E89B838A838FEF9FEF9887C3
:101060008F8380914208909143089E838D83809165
:101070004008909141089A878987809145088F5F41
:10108000809345088C838091DA048F5F8093DA0423
:10109000DF91CF911F910F9108951F93CF93DF930D
:1010A000FC01C581D6818091DA04882359F010E0D3
:1010B000812F0E940F05FC018081843139F01F5F70
:1010C0001330B1F7DF91CF911F91089594858981F5
:1010D0009813F5CF85E180838A81EE57FF4F808397
:1010E000F1CFE091D804F091D904833080F08330BF
:1010F00081F0853081F081E0DF01A158BF4F8C93F2
:1011000083E180831092D9041092D804089580E07E
:10111000F3CF80E2F1CF81E2EFCFAF92BF92CF92D7
:10112000DF92EF921F93CF93DF938091DA048823AD
:10113000C1F010E095E1E92E24E1C22E35E0A32EA6
:10114000B12C42E1D42E812F0E940F05EC01888141
:10115000833181F0853171F18131E9F01F5F133006
:1011600091F7DF91CF911F91EF90DF90CF90BF90DB
:10117000AF900895FE01E158FF4F8081811109C0B1
:101180004D855E85209140083091410842175307F4
:10119000F9F0E882E3CF0E94B7028111DFCFD0934C
:1011A000D904C093D804D8826981CE0102960E94E6
:1011B000C302D4CFFE01ED57FF4F0190F081E02D27
:1011C000CE0109958091DA0481508093DA04C6CF6C
:1011D0008B8580FFDECFC882C058DF4FB982A882DE
:1011E0008BED94E00E946E09B9CF0E947F010E94AE
:1011F00069090E945B020C94DA030E942A030E9490
:101200000B040C9484090F931F93CF93DF93EC018D
:101210008091E8049091E904009709F447C04E8159
:101220005F8168857985FC01A0E0B0E001C0F9012B
:1012300002811381248135814017510762077307AA
:10124000E0F0401B510B620B730B20813181DF01F9
:101250002115310561F74A835B836C837D83109789
:10126000D1F08D919C91119799838883CD93DC93D4
:10127000DF91CF911F910F910895041B150B260B41
:10128000370B02831383248335834A835B836C8308
:101290007D83109731F799838883D093E904C093B5
:1012A000E804DF91CF911F910F9108951982188260
:1012B0004E815F81688579854A835B836C837D83FA
:1012C000D093E904C093E804DF91CF911F910F916F
:1012D00008951092E9041092E8040895E091E8045A
:1012E000F091E904309761F08E179F0721F40BC04D
:1012F0008E179F0739F00190F081E02D3097C1F7EC
:101300000C94030908950895CF92DF92EF92FF9213
:10131000CF93DF9380913F08882309F458C09FB78B
:10132000F89480913F0810923F089FBF90E0A0E0A2
:10133000B0E0880F991FAA1FBB1F6C017D01CC0C68
:10134000DD1CEE1CFF1CCC0CDD1CEE1CFF1CC80EB3
:10135000D91EEA1EFB1EC091E804D091E904209733
:10136000B1F14A815B816C817D81C416D506E606A8
:10137000F706A0F424C0EB85FC85CE010995C09149
:10138000E804D091E904209711F14A815B816C81D6
:101390007D81C416D506E606F70688F0C41AD50A7C
:1013A000E60AF70A888199819093E9048093E8041A
:1013B0008A85813001F7CE010E940309DCCF4C19E8
:1013C0005D096E097F094A835B836C837D83DF91AE
:1013D000CF91FF90EF90DF90CF90089583E00E942F
:1013E000B50E81E080930B0280914C08982F907C81
:1013F00041F486FF08950E946D2E892B21F00C94F4
:10140000672E0C9431200C94092E1F920F920FB668
:101410000F9211240F900FBE0F901F90189580ED22
:1014200097E0A0E0B0E080934E0890934F08A0931F
:101430005008B093510881E080934D088EEE99E0FA
:1014400090935308809352088DE498E00C94BE2C3E
:101450008DE498E00C948A2CCF92DF92EF92FF9269
:101460000F931F93CF93DF93CDB7DEB72A970FB6B5
:10147000F894DEBF0FBECDBFD82EF62EE62EE8269E
:1014800080914302882309F443C0E6FA442740F9D7
:10149000E7FCA6C0E5FC4460F6FC7AC030E021E041
:1014A000F7FC7AC02260F5FE7AC0346080E289835E
:1014B0008AE08A838091490290914A02A0914B026E
:1014C000B0914C028B839C83AD83BE834F8338875E
:1014D00029871A8680914D0290914E02892B09F43A
:1014E00060C020918B0830918C0880914D029091C2
:1014F0004E022817390709F454C040914D0250910B
:101500004E0221E06AE0CE0101960E94392C59C0BA
:101510006623B9F180910B02811153C0E6FE64C0CD
:101520008AE6898385E08A83F6FE6BC081E08B833F
:1015300088EB8C831D8240918B0850918C085A95C2
:1015400020E065E0CE0101960E94392C0E940F0A2E
:1015500000E010E0E7FC4EC0E5FE49C0F5FC47C0E6
:10156000D6FE02C0D7FC68C0D5FC5EC0D7FE29C03D
:1015700080914202823009F48CC082E08093420262
:1015800020C080910B02882329F210920B0219C00F
:1015900031E020E0F7FE86CF3260F5FC86CF246094
:1015A00085CF40918B0850918C0821E06AE070E073
:1015B000CE0101960E94F320FC01618170E00E943F
:1015C000E2202A960FB6F894DEBF0FBECDBFDF91A2
:1015D000CF911F910F91FF90EF90DF90CF900895E2
:1015E0004260E5FE59CF57CF00E010E0B3CF012BAA
:1015F00041F3B6CFF7FC1DC00E94280A01E010E0BD
:10160000ABCF1B821C821D8240918B0850918C08AD
:101610005A9520E065E0CE0101960E94392C0E9487
:10162000280A01E010E096CF10924E0210924D026F
:10163000C8CF0E940F0A90CF81E080930B02809167
:10164000910881113AC08091D008811136C08091F3
:101650000F09811132C08FEBC82E88E0D82EE12C03
:10166000F12CF60111821082FFEFEF1AFF0A0BED49
:101670001FE029EC3FE340E050E0BA01C7010E94BF
:1016800019168FE3C80ED11CE3E0EE16F10449F7FA
:1016900098CF81E0809342028DE4898383E08A833E
:1016A0001B8240918B0850918C085A9520E063E092
:1016B000CE0101960E94392C84CF0E94981F81CFC1
:1016C000CF93C9B1C095C07EC0934C0880910C02E5
:1016D0008C1729F06C2F0E942C0AC0930C02CF911A
:1016E00008951092B10024980895CF93DF9382E477
:1016F0008093B000A3EBB0E082EB8C93E1EBF0E0E1
:1017000085E080832FEF32E597E021503040904014
:10171000E1F700C000001082CFE1DEE42197F1F78D
:1017200000C0000095E89C938083DFEF22E537E05E
:10173000D15020403040E1F700C0000010822498D2
:10174000DF91CF910895009781F0249A9C0140E0A9
:1017500050E064E274EF80E090E00E940235209354
:10176000B30085E08093B10008950C94710BCF9382
:10177000DF93C82FCF7082958F7009F161E090E000
:10178000660F9F5F9813FCCF70E0D0E0CC0FDD1F99
:10179000CC0FDD1FC35FDD4F882777FD8095982F25
:1017A0000E94792F288139814A815B810E946630AD
:1017B0000E944B2FCB01DF91CF910C94A30B61E0E2
:1017C00070E0E3CFCF93DF930E94710BC0913E0294
:1017D000D0913F02209709F468C080914002909117
:1017E00041028C179D070CF04EC030915C0820E040
:1017F000880F991F820F931F45960E9494100E9494
:10180000B70B30915C0820E080914002909141023A
:10181000880F991F820F931F44960E949410809303
:10182000EF0440914002509141024F5F5F4F50934F
:1018300041024093400260913E0270913F02641762
:101840007507F4F010925D08282F30E040E050E07A
:101850006091EB047091EC048091ED049091EE04A2
:101860000E94E03420935E0830935F084093600844
:101870005093610882EE9BE0909363088093620826
:10188000DF91CF91089581E080935D08109241022D
:101890001092400210923F0210923E020E94710B81
:1018A00010923D02DF91CF91089590915C0880E005
:1018B00042960E9494108093EA0490915C0880E024
:1018C00043960E949410C82FD0E0D0933F02C0935B
:1018D0003E022091EA0430E040E050E060E879EA1E
:1018E00083E090E00E94E0342093EB043093EC041A
:1018F0004093ED045093EE0470CF91E090933D023D
:1019000090935D0810925E0810925F081092600834
:101910001092610822EE3BE0309363082093620846
:1019200080935C088DE598E00C94BE2C1F920F927A
:101930000FB60F9211248F939F93AF93BF93809113
:10194000490290914A02A0914B02B0914C0201963B
:10195000A11DB11D8093490290934A02A0934B02AE
:10196000B0934C02BF91AF919F918F910F900FBE9A
:101970000F901F9018950C94C53690E1899F9001A7
:101980001124309399002093980090E1699F900171
:10199000112430939D0020939C0090E1499F900179
:1019A000112430939B0020939A00809371086093D8
:1019B000720840937308089580916C0890916D08A7
:1019C000019790936D0880936C08181619061CF007
:1019D00081E080937B0840917308405860917208C1
:1019E00060588091710880580C94BD0C1092B90019
:1019F00080E28093B80084E08093BC00089584EA7C
:101A00008093BC008091BC0087FFFCCF089584E9DF
:101A10008093BC0008958093BB0084E88093BC0051
:101A20008091BC0087FFFCCF089584EC8093BC00BC
:101A30008091BC0087FFFCCF8091BB00089584E8B3
:101A40008093BC008091BC0087FFFCCF8091BB00DD
:101A500008950E94FF0C8091B900887F883011F0B2
:101A600081E0089588E30E940B0D8091B900887F82
:101A70008831B1F78DE00E940B0D8091B900887F0D
:101A8000883271F70E94FF0C8091B900887F803105
:101A900039F789E30E940B0D8091B900887F80346B
:101AA000F9F60E941F0D8A32D9F68091B900887F1D
:101AB0008835B1F60E94070D0E94FF0C8091B90095
:101AC000887F803169F688E30E940B0D8091B90010
:101AD000887F883129F68AE20E940B0D8091B90037
:101AE000887F883209F0BCCF89E10E940B0D80917C
:101AF000B900887F883209F0B3CF0E94070D80E0DB
:101B000008950E94FF0C8091B900887F883011F001
:101B100081E0089588E30E940B0D8091B900887FD1
:101B20008831B1F781E00E940B0D8091B900887F68
:101B3000883271F70E94FF0C8091B900887F803154
:101B400039F789E30E940B0D8091B900887F8034BA
:101B5000F9F60E94150D382F20E030936F0820937E
:101B60006E088091B900887F803591F60E94150D2E
:101B700020916E0830916F08282B30936F082093C6
:101B80006E088091B900887F803511F60E94150D8E
:101B9000382F20E030937608209375088091B900A3
:101BA000887F803509F0B4CF0E94150D209175080B
:101BB00030917608282B3093760820937508809111
:101BC000B900887F803509F0A3CF0E94150D382F0A
:101BD00020E030938F0820938E088091B900887F91
:101BE000803509F095CF0E941F0D20918E0830910D
:101BF0008F08282B30938F0820938E088091B9008E
:101C0000887F883509F084CF0E94070D80E0089511
:101C1000809142028130B1F1823009F0089589E368
:101C20008093F00483E18093F1048091BB0890914C
:101C3000BC08A091BD08B091BE088093F2049093B7
:101C4000F304A093F404B093F504809139099091C2
:101C50003A09A0913B09B0913C098093FA04909312
:101C6000FB04A093FC04B093FD0410920205409184
:101C70008B0850918C085A9520E063E180EF94E046
:101C80000C94392C0E94810D8091750890917608F2
:101C900097FD40C09C01359527953595279535953D
:101CA0002795359527953595279580916E089091C4
:101CB0006F0897FD31C0AC01042E452F000C441F66
:101CC000550B000C441F551F88279927821B930B27
:101CD000841B950B241B350B48E64093F0044AE027
:101CE0004093F10445E04093F2049093F304809311
:101CF000F4043093F7042093F8041092F90440910F
:101D00008B0850918C085A9520E06AE080EF94E0AF
:101D10000C94392C4F96BECFCF96CDCFCF93C82FF2
:101D20008823F1F040E06FEF80E00E94BD0C2FEFC0
:101D300081EE94E0215080409040E1F700C0000027
:101D400040E060E08FEF0E94BD0C2FEF81EE94E049
:101D5000215080409040E1F700C00000C15011F7D1
:101D6000CF91089585E00C948E0E20916C083091EF
:101D70006D08121613060CF4089590E0880F991F51
:101D800090936D0880936C0810927B0884E690E035
:101D9000A0E0B0E080937C0890937D08A0937E083B
:101DA000B0937F088CED9CE090938108809380082D
:101DB0008BE798E00C94BE2C9AE09093770090917A
:101DC0007C00907E90937C0090917C00982B909367
:101DD0007C0080917A00876C80937A0080917A00F1
:101DE00086FDFCCF2091780030917900932F93707D
:101DF00080E0AC01422B9A01C9010895CF93DF9393
:101E000080E88093610010926100F89480EF84B9BB
:101E10008BB1806E8BB9809168008160809368007F
:101E200080916B00826080936B0080916B00846076
:101E300080936B0080916B00886080936B008FB7FC
:101E400080688FBF80917C00806C80937C008BE1E8
:101E50008AB98FE78DB98FE383BB819A89982FEF79
:101E600080E792E0215080409040E1F700C0000000
:101E700082E00E94DC0EEC018198829A8A982FEF12
:101E800080E792E0215080409040E1F700C00000E0
:101E900081E00E94DC0E8298C436D10524F4843699
:101EA00091050CF44BC082E08093740882E090E0CE
:101EB000909378088093770881E090E090937A0877
:101EC000809379083AEA3093800029E120938100D9
:101ED0008FEF9FE09093870080938600309390006F
:101EE0002093910090939700809396001092250183
:101EF000109224018091730082608093730080911E
:101F000021018C60809321018EE390E09093290160
:101F100080932801909327018093260184B7877FBF
:101F200084BF80916000886180936000109260009F
:101F30000E94EA107894DF91CF91089583E0809316
:101F4000740884E090E0909378088093770883E0A9
:101F500090E090937A0880937908B4CF0E94DC0EC9
:101F6000BC0180E090E00E94772F2DEC3CEC4CEC23
:101F70005FE30E94663020E030E040E85AE30E94D0
:101F80006630089580E00E94DC0EBC0180E090E0A5
:101F90000E94772F2DEC3CEC4CEC5FE30E94663006
:101FA00020E030E040E85AE30E9466302EE63BED48
:101FB00046EB5EE30E94DE2E0895CF93DF93CDB70C
:101FC000DEB72C970FB6F894DEBF0FBECDBF698782
:101FD0007A878B879C878091490290914A02A091D1
:101FE0004B02B0914C0289839A83AB83BC832981D5
:101FF0003A814B815C8189859A85AB85BC85820F4E
:10200000931FA41FB51F8D839E83AF83B8870000E5
:102010002091490230914A0240914B0250914C026A
:102020008D819E81AF81B88582179307A407B5077C
:1020300078F72C960FB6F894DEBF0FBECDBFDF91B8
:10204000CF910895809160008861809360008091B5
:1020500060008D6080936000FFCFCF93DF93CDB79A
:10206000DEB76E970FB6F894DEBF0FBECDBF0E94ED
:10207000FE0E0E9468200E94F60C0E94290D882303
:1020800021F08AE00E948E0EFCCF0E94750B0E9408
:102090005E2B0E943D2B0E94C53681E00E948E0E71
:1020A0000E94A61F188A82E390E0A0E0B0E0898B2E
:1020B0009A8BAB8BBC8B87EB9AE19E8B8D8BCE0181
:1020C00040960E94BE2C40E06FEF8FEF0E94BD0C47
:1020D00019828FEA90E0A0E0B0E08A839B83AC8312
:1020E000BD8388E09EE09F838E83CE0101960E948F
:1020F000BE2C0E94382D0E943C280E94FD080E94A0
:10210000AB290E94600BF5CFF999FECF92BD81BD3E
:102110008FEF80BD84E18FBBF99AF999FECF60BD46
:1021200084E28FBBF99A089520914F02211103C0D8
:10213000F89420914F02F999FECF92BD81BDF89A93
:10214000211101C0789480B50895EF92FF920F930A
:102150001F93CF93DF938C01141615066CF4EB01DB
:102160007B01E40EF51E6991C8010E9484100F5F87
:102170001F4FCE15DF05B9F7DF91CF911F910F915A
:10218000FF90EF900895EF92FF920F931F93CF93DC
:10219000DF93F89421E020934F021416150684F47F
:1021A000EB017B01E40EF51E8C01061B170BC80129
:1021B0008C0F9D1F0E9494108993CE15DF05B9F7EF
:1021C00010924F027894DF91CF911F910F91FF9061
:1021D000EF900895CF92DF92EF92FF920F931F93AB
:1021E000CF93DF93C0E0D0E08FE3C82E09E816E577
:1021F00022E234E44FEF5FEFBA01EE24EA94FE2CC2
:1022000090E8D92E8BED9FE0A9E4BFE3CC9EF001CE
:10221000CD9EF00D1124EF56F74F108211821282DD
:1022200013821482058316832783308711861286D2
:1022300013861486158616861786108A128A118AC6
:10224000148A138A158A168A178A108E118E138E95
:10225000128E448F558F668F778FF1A2E0A2D2A2A3
:1022600086A397A3A0A7B1A717A616A62196C33049
:10227000D10561F6DF91CF911F910F91FF90EF9003
:10228000DF90CF9008952F923F924F925F926F927E
:102290007F928F929F92AF92BF92CF92DF92EF92F6
:1022A000FF920F931F93CF93DF931C0180916602DF
:1022B00090916702892B09F436C181E02816310418
:1022C00009F4ABC024F084E028163104F4F00E9435
:1022D000B20E00E010E0D0E8CFEB9E01602F712F2E
:1022E000832F9C2FDF91CF911F910F91FF90EF9043
:1022F000DF90CF90BF90AF909F908F907F906F9026
:102300005F904F903F902F900895809177080E94A2
:10231000AE0F6B017C01809179080E94AE0F4B01DA
:102320005C012CEA3CE14AE35FE3C701B6010E948D
:10233000722E8B01D82FC92F80916802909169026B
:102340008130910509F4C2C1029709F4DFC120E090
:1023500030E04AEA53E4FE01602F712F8F2F9C2F4B
:102360000E9466302CEA3CE14AEB5FE30E94DE2EDD
:10237000382F292F862F972FA32FB22FBC01CD01E5
:1023800090582BED3FE049E450E40E94663020E095
:1023900030E044E353E40E94DE2E209100093091A6
:1023A0000109409102095091030909C02BED3FE05A
:1023B00049EC50E4FE01602F712F8F2F9E2F0E9459
:1023C000732E8B01D82FC92F2BED3FE049E450EC41
:1023D000FE01712F8F2F9E2F0E94D72E87FF0FC0D7
:1023E000E5CF2BED3FE049EC50E4FE01602F712F6B
:1023F0008F2F9C2F0E94722E8B01D82FC92F2BED6F
:102400003FE049E450E4FE01602F712F8F2F9C2F95
:102410000E94623018162CF360CF86E00E94AE0F47
:102420006B017C0185E00E94AE0F4B015C012CEA40
:102430003CE14AE35FE3C701B6010E94722E8B01C3
:10244000D82FC92F80916602909167028130910543
:1024500009F4F5C0029709F412C120E030E04AEA1D
:1024600053E4FE01602F712F8F2F9C2F0E94663046
:102470002CEA3CE14AEB5FE30E94DE2E382F292F45
:10248000862F972FA32FB22FBC01CD0190582BED93
:102490003FE049E450E40E94663020E030E044E34D
:1024A00053E40E94DE2E2091C1083091C208409171
:1024B000C3085091C40809C02BED3FE049EC50E43B
:1024C000FE01602F712F8F2F9E2F0E94732E8B0184
:1024D000D82FC92F2BED3FE049E450ECFE01712FBE
:1024E0008F2F9E2F0E94D72E87FF0FC0E5CF2BED99
:1024F0003FE049EC50E4FE01602F712F8F2F9C2F9D
:102500000E94722E8B01D82FC92F2BED3FE049E49A
:1025100050E4FE01602F712F8F2F9C2F0E9462309C
:1025200018162CF3DACE86E00E94AE0F2CEA3CE1BE
:102530004AE35FE30E94722E8B01D82FC92FCB0193
:10254000AD2FBC2F4C015D0185E00E94AE0F2CEA3F
:102550003CE14AE35FE30E94722E462F572F682F1B
:10256000792F2A013B0120E030E0A901B8018D2F2D
:102570009C2F0E94D72E87FD06C120E030E0A901E4
:10258000C301B2010E94D72E87FDF8C0A3019201BA
:10259000C501B4010E94D72E87FD4AC082E090E0B9
:1025A0009093670280936602809177080E94AE0F35
:1025B0002CEA3CE14AE35FE30E94722E8B01D82FA4
:1025C000C92FCB01AD2FBC2F4C015D018091790843
:1025D0000E94AE0F2CEA3CE14AE35FE30E94722EB8
:1025E000462F572F682F792F2A013B0120E030E03A
:1025F000A901B8018D2F9C2F0E94D72E87FDB9C04D
:1026000020E030E0A901C301B2010E94D72E87FD6E
:10261000ABC0A3019201C501B4010E94D72E87FF70
:102620009CC081E090E0909369028093680245CE5F
:1026300081E090E09093670280936602B5CF20E03E
:1026400030E0A901FE01602F712F8F2F9E2F0E9475
:10265000D72E87FDE3C024E330E847E25FE3FE01C5
:10266000602F712F8F2F9E2F0E94623018160CF052
:10267000F4CE82E090E090936702809366022CEAA9
:102680003CE14AE35FE3C501B4010E94722E6B0195
:102690007C0120E030E0A9017D2D9F2D0E94D72EE6
:1026A00087FD76C024E330E847E25FE36C2D7D2DA3
:1026B0008E2D9F2D0E94623018160CF075C081E09F
:1026C00090E09093670280936602C7CE20E030E0EE
:1026D000A901FE01602F712F8F2F9E2F0E94D72EF0
:1026E00087FDAAC024E330E847E25FE3FE01602FE4
:1026F000712F8F2F9E2F0E94623018160CF027CE5C
:1027000082E090E090936902809368022CEA3CE1B9
:102710004AE35FE3C501B4010E94722E6B017C01A4
:1027200020E030E0A9017D2D9F2D0E94D72E87FD4E
:1027300052C024E330E847E25FE36C2D7D2D8E2DFF
:102740009F2D0E94623018160CF051C081E090E07D
:102750009093690280936802FACD82E090E09093B2
:10276000690280936802A9CD77FA709477F8709423
:1027700050CFB7FAB094B7F8B09442CF77FA7094CC
:1027800077F8709403CFB7FAB094B7F8B094F5CE59
:1027900024E330E847E25FEB6C2D7D2D8E2D9F2DDD
:1027A0000E94D72E87FD8BCF20E030E04AEA53E429
:1027B0006C2D7D2D8E2D9F2D0E9466302CEA3CE1E4
:1027C0004AEB5FE30E94DE2E20E030E044E353E476
:1027D0000E94732E53CE24E330E847E25FEB6C2D6A
:1027E0007D2D8E2D9F2D0E94D72E87FDAFCF20E00F
:1027F00030E04AEA53E46C2D7D2D8E2D9F2D0E94F2
:1028000066302CEA3CE14AEB5FE30E94DE2E20E0DA
:1028100030E044E353E40E94732EAACD24E330E871
:1028200047E25FEBFE01602F712F8F2F9E2F0E94DA
:10283000D72E87FF12CE1DCF24E330E847E25FEBAF
:10284000FE01602F712F8F2F9E2F0E94D72E87FFA2
:102850007ECD56CFCF92DF92EF92FF92CF93DF9350
:10286000EC016A017B01809174088230B1F1833000
:10287000D1F122E93AE046E050E4C701B6010E94F6
:102880006230181604F121978FE38C9FF0018D9F21
:10289000F00D1124EF56F74FC6A2D7A2E0A6F1A67D
:1028A00083E080838FEF9FEFDC01848F958FA68F6D
:1028B000B78F20E030E0C901DF91CF91FF90EF901A
:1028C000DF90CF90089521E030E0C901DF91CF91F2
:1028D000FF90EF90DF90CF900895C230D10549F678
:1028E0002FEF3FEFE8CFC330D10519F6F9CF209194
:1028F00074082230F9F0233019F101972FE3289F53
:10290000F001299FF00D1124EF56F74F82E08083EC
:102910004183528363837483128A118A84E690E030
:10292000A0E0B0E0848F958FA68FB78F20E030E0D5
:10293000C90108958230910501F72FEF3FEFF8CFDD
:1029400083309105D1F6F9CF2F923F924F925F924B
:102950006F927F928F929F92AF92BF92CF92DF92AF
:10296000EF92FF920F931F93CF93DF93CDB7DEB714
:102970002C970FB6F894DEBF0FBECDBF1C014A01E5
:102980005B016801790100917408023009F4FCC010
:10299000033009F400C120E030E0A901C701B6010D
:1029A0000E94D72E882309F4C3C0C10101972FE3E9
:1029B000289FD001299FB00D1124AF56B74FBA8779
:1029C000A9879A964D905D906D907C909D97A301FC
:1029D0009201C501B4010E94722E6983172F8A8368
:1029E0009B8320E030E0A9010E94D72E87FDA3C081
:1029F00025E33AEF4EE85DE3B981EA81FB816B2F75
:102A0000712FCF010E94D72E87FDA4C020E030E0B7
:102A1000A901C701B6010E94D72E87FDCBC0A7012F
:102A20009601B9810A813B806B2F712F802F932DE6
:102A30000E94DE2E20E030E04AE754E40E94663037
:102A40006C83272E382E092F20E030E0A901B981B0
:102A5000EA81FB816B2F712FCF010E946230181623
:102A60000CF0DCC0A985BA859696CD92DD92ED92E8
:102A7000FC929997A985BA8511964D925D926D92B7
:102A80007C921497FD01158616861786108A20E021
:102A900030E048E452E4BC816B2F722D832D902FDF
:102AA0000E94DE2E8B013C01CB01D3016C017D0124
:102AB00020E030E0A901B801C3010E94D72E87FDB4
:102AC000A7C0B801C3010E94462FCB01AA2797FDDA
:102AD000A095BA2FE985FA85848F958FA68FB78F39
:102AE000128A118A868A978AA08EB18E81E090E040
:102AF000938F828F83E0808320E030E0C9012C96A1
:102B00000FB6F894DEBF0FBECDBFDF91CF911F91FE
:102B10000F91FF90EF90DF90CF90BF90AF909F907C
:102B20008F907F906F905F904F903F902F9008957F
:102B300020E030E0E3CF25E33AEF4EE85DEBB981EA
:102B4000EA81FB816B2F712FCF010E946230181632
:102B50000CF05CCF023049F1033011F182E0A9851D
:102B6000BA858C93FD0181829282A382B482128AFB
:102B7000118A84E690E0A0E0B0E0848F958FA68F64
:102B8000B78F20E030E0BACF8230910509F003CF53
:102B90002FEF3FEFB3CF8330910509F0FCCEF8CF94
:102BA000E3E02E163104D1F6F3CFB2E02B16310458
:102BB000A9F6EECFD701C601B0588D839E83AF83AF
:102BC000B8879C01AD01B9810A813B806B2F712FC1
:102BD000802F932D0E94DE2E20E030E04AE754E45F
:102BE0000E9466306C83272E382E092F20E030E0BB
:102BF000A901B981EA81FB816B2F712FCF010E945E
:102C0000623018167CF4CD80DE80EF80F8842ACF05
:102C1000C701B60190580E94462F57CFF7FAF0949B
:102C2000F7F8F094E985FA85C6A2D7A2E0A6F1A646
:102C300021CF2F923F924F925F926F927F928F920D
:102C40009F92AF92BF92CF92DF92EF92FF920F933B
:102C50001F93CF93DF93CDB7DEB72C970FB6F894C1
:102C6000DEBF0FBECDBF1C014A015B0168017901C7
:102C700000917408023009F412C1033009F416C13E
:102C800020E030E0A901C701B6010E94D72E8823B9
:102C900009F4D9C0C10101972FE3289FD001299FD2
:102CA000B00D1124AF56B74FBA87A9879A964D90A9
:102CB0005D906D907C909D979E966D917C919F9775
:102CC000882777FD8095982F0E94792F2BED3FE084
:102CD00049EC50E40E9466309B01AC01C301B20193
:102CE0000E94732E9B01AC01C501B4010E94722E9B
:102CF0006983172F8A839B8320E030E0A9010E941B
:102D0000D72E87FDA3C025E33AEF4EE85DE3B981F6
:102D1000EA81FB816B2F712FCF010E94D72E87FD97
:102D2000A4C020E030E0A901C701B6010E94D72E5F
:102D300087FDCBC0A7019601B9810A813B806B2F2B
:102D4000712F802F932D0E94DE2E20E030E04AE785
:102D500054E40E9466306C83272E382E092F20E021
:102D600030E0A901B981EA81FB816B2F712FCF017E
:102D70000E94623018160CF0DCC0A985BA859696C0
:102D8000CD92DD92ED92FC929997A985BA85119624
:102D90004D925D926D927C921497FD011586168678
:102DA0001786108A20E030E048E452E4BC816B2FA3
:102DB000722D832D902F0E94DE2E8B013C01CB01C2
:102DC000D3016C017D0120E030E0A901B801C3010D
:102DD0000E94D72E87FDA7C0B801C3010E94462FCD
:102DE000CB01AA2797FDA095BA2FE985FA85848F94
:102DF000958FA68FB78F128A118A868A978AA08E9E
:102E0000B18E81E090E0938F828F83E0808320E019
:102E100030E0C9012C960FB6F894DEBF0FBECDBFCF
:102E2000DF91CF911F910F91FF90EF90DF90CF90A6
:102E3000BF90AF909F908F907F906F905F904F90DA
:102E40003F902F90089520E030E0E3CF25E33AEF64
:102E50004EE85DEBB981EA81FB816B2F712FCF01C9
:102E60000E94623018160CF05CCF023049F103303A
:102E700011F182E0A985BA858C93FD01818292824D
:102E8000A382B482128A118A84E690E0A0E0B0E0C6
:102E9000848F958FA68FB78F20E030E0BACF823035
:102EA000910509F0EDCE2FEF3FEFB3CF83309105C1
:102EB00009F0E6CEF8CFE3E02E163104D1F6F3CFD9
:102EC000B2E02B163104A9F6EECFD701C601B058F7
:102ED0008D839E83AF83B8879C01AD01B9810A8140
:102EE0003B806B2F712F802F932D0E94DE2E20E0D0
:102EF00030E04AE754E40E9466306C83272E382E77
:102F0000092F20E030E0A901B981EA81FB816B2F14
:102F1000712FCF010E94623018167CF4CD80DE80C4
:102F2000EF80F8842ACFC701B60190580E94462F3F
:102F300057CFF7FAF094F7F8F094E985FA85C6A22E
:102F4000D7A2E0A6F1A621CF2F923F924F925F9297
:102F50006F927F928F929F92AF92BF92CF92DF92A9
:102F6000EF92FF920F931F93CF93DF93CDB7DEB70E
:102F70002B970FB6F894DEBF0FBECDBF9B838A831D
:102F80004A015B016801790180917408898382306C
:102F900009F437C1B981B33009F43BC18A819B81FF
:102FA00001972FE3289F1001299F300C112481E9FC
:102FB00098E0280E391ED1019A964D905D906D9043
:102FC0007C909D97A3019201C501B4010E94722ECD
:102FD0000CC02BED3FE049EC50E4FB85EA85602F07
:102FE000712F8F2F9E2F0E94732E8B018B879A87B4
:102FF0002BED3FE049E450EC712F0E94D72E87FD66
:10300000E8CF2BED3FE049E450E4B02FA12FFB8542
:10301000EA8517C02BED3FE049EC50E4FB85EA85DB
:10302000602F712F8F2F9E2F0E94722E8B018B8706
:103030009A872BED3FE049E450E4B62FA12FF82FFB
:10304000E92F6B2F7A2F8F2F9E2F0E946230181638
:103050000CF320E030E0A901FB85EA85602F712F99
:103060008F2F9E2F0E94D72E87FD9FC025E33AEF1A
:103070004EE85DE3FB85EA85602F712F8F2F9E2F31
:103080000E94D72E87FDA0C020E030E0A901C70133
:10309000B6010E94D72E87FDC2C0A7019601FB850D
:1030A000EA85602F712F8F2F9E2F0E94DE2E20E049
:1030B00030E04AE754E40E94663069837A838C8367
:1030C0009D8320E030E0A901FB85EA85602F712F08
:1030D0008F2F9E2F0E94623018160CF0D9C0D1019C
:1030E0009696CD92DD92ED92FC929997D101119630
:1030F0004D925D926D927C921497F1011586168621
:103100001786108A20E030E048E452E4B981AA81B1
:10311000EC811D816B2F7A2F8E2F912F0E94DE2E36
:103120008B013C01CB01D3016C017D0120E030E03B
:10313000A901B801C3010E94D72E87FDA3C0B80121
:10314000C3010E94462FCB01AA2797FDA095BA2F55
:10315000F101848F958FA68FB78F128A118A868A84
:10316000978AA08EB18E81E090E0938F828F83E06A
:10317000808320E030E0C9012B960FB6F894DEBFC3
:103180000FBECDBFDF91CF911F910F91FF90EF90B8
:10319000DF90CF90BF90AF909F908F907F906F9077
:1031A0005F904F903F902F90089525E33AEF4EE8BF
:1031B0005DEBFB85EA85602F712F8F2F9E2F0E947C
:1031C000623018160CF060CFB981B23009F454C0E7
:1031D000F981F33009F466C082E0D1018C93F101EA
:1031E00081829282A382B482128A118A84E690E05C
:1031F000A0E0B0E0848F958FA68FB78F20E030E0FD
:10320000BACFAA81BB81129709F0C8CE2FEF3FEF4A
:10321000B2CFEA81FB81339709F0C0CEF7CFD70157
:10322000C601B0588E839F83A887B9879C01AD01E2
:10323000FB85EA85602F712F8F2F9E2F0E94DE2E37
:1032400020E030E04AE754E40E94663069837A83E4
:103250008C839D8320E030E0A901FB85EA85602F07
:10326000712F8F2F9E2F0E9462301816ACF4CE80E3
:10327000DF80E884F98433CFEA81FB81329709F05B
:10328000ABCFC4CFC701B60190580E94462F5BCF89
:10329000F7FAF094F7F8F094F101C6A2D7A2E0A6ED
:1032A000F1A624CF8A819B81039709F095CFAECFF9
:1032B00020917408223049F1233091F101972FE3D6
:1032C000289FF001299FF00D1124EF56F74F208120
:1032D000223001F1233021F0213011F080E00895F7
:1032E0002FE3289FF001299FF00D1124EF56F74F8F
:1032F00020E030E0A90166A177A180A591A50E94F8
:10330000623018168CF481E0089582309105B1F690
:103310008FEF089581899289892BA9F383E008951D
:103320008330910559F6F4CF82E008956235A9F013
:10333000633581F0663459F0A098A19820E1829F0E
:10334000C001112490938900809388000895A09A69
:10335000A198F4CFA09AA19AF1CFA098A19AEECF0C
:103360006235A9F0633581F0663459F0A298A598CA
:1033700020E1829FC001112490938B0080938A00EA
:103380000895A29AA598F4CFA29AA59AF1CFA298EF
:10339000A59AEECF0F931F938A019B0177FD28C05A
:1033A000F8010F3F110519F010F0EFEFF0E0813058
:1033B000910591F074F0049764F477FD33C0452BC8
:1033C000462B472BE9F066E48E2F1F910F910C944A
:1033D000B0191F910F91089577FD1EC0452B462B04
:1033E000472BA1F066E48E2F1F910F910C94961934
:1033F000002711279801041B150B260B370BD0CF84
:103400006EE48E2F1F910F910C94B0196EE48E2FE5
:103410001F910F910C94961962E58E2F1F910F91B9
:103420000C94961962E58E2F1F910F910C94B01990
:103430000F931F93CF93DF93EC0101972FE3289F06
:103440008001299F100D11240F56174FF80125896F
:10345000213099F1223001F1222309F45EC023309A
:1034600039F5F8012081223009F44FC0233009F4E6
:1034700078C02FE3289FF001299FF00D1124EF560B
:10348000F74F42A553A564A575A5CE01DF91CF9155
:103490001F910F910C94771420E030E0A901F801FE
:1034A00066A177A180A591A50E94D72E811141C068
:1034B000DF91CF911F910F91089520E030E0A90195
:1034C00066A177A180A591A50E94D72E882381F3BC
:1034D00083E0F80180834FEF5FEFBA01448F558F8F
:1034E000668F778F42A553A564A575A54183528346
:1034F0006383748346A157A160A571A5CE01DF91B6
:10350000CF911F910F910C942A1421893289232B7A
:1035100009F4AFCF148A138ACBCFF801108240E0B0
:1035200050E0BA01CE01DF91CF911F910F910C9421
:10353000CA1983E0F80180834FEF5FEFBA01448F2F
:10354000558F668F778F42A553A564A575A54183D6
:1035500052836383748346A157A160A571A57058F7
:10356000CDCFF80141815281638174818ECF2F923A
:103570003F924F925F926F927F928F929F92AF9203
:10358000BF92CF92DF92EF92FF920F931F93CF9350
:10359000DF93CDB7DEB769970FB6F894DEBF0FBEE5
:1035A000CDBF8091740831E9432E38E0532E46EAAE
:1035B000C42E48E0D42E26E532E03A832983A3EBDB
:1035C000B8E0B887AF8305EC18E0E6ECF8E0FE83DE
:1035D000ED8366246394712C62E0E62EF12C930156
:1035E00036015B8A4A8A1C830B838701290182305A
:1035F00029F4B2E04B16510409F4C3C01801E2E00B
:103600002E1A3108C2010E944311D30155966D93C1
:103610007D938D939C935897EB81FC81719780816A
:103620001F966D917C915097680F711D882777FDCB
:103630008095982F0E94792F20E030E042E553E4F6
:103640000E94722E0E94462FF301708B678777FDD0
:10365000BCC0882777FD8095982F0E94792F20E0A5
:1036600030E144E257E40E94623018160CF47EC048
:10367000D3015596CD90DD90ED90FC90589720E0C9
:1036800030E040E450ECC701B6010E94D72E87FF1E
:103690000FC020E030E040E450E4E981FA8160812D
:1036A0007181828193810E94623018160CF45CC291
:1036B00020E030E040E450E4C701B6010E946230EF
:1036C000181674F420E030E040E450ECE981FA810F
:1036D00060817181828193810E94D72E87FD4FC2C4
:1036E000E981FA81C082D182E282F382AA89BB8910
:1036F0008C91823009F470C108F06AC0811150C207
:10370000EA89FB89448D558D668D778D411551056C
:103710006105710509F4E5C37CF141505109610966
:103720007109AA89BB895C964D935D936D937C93D7
:103730005F970430110519F569960FB6F894DEBF4E
:103740000FBECDBFDF91CF911F910F91FF90EF90F2
:10375000DF90CF90BF90AF909F908F907F906F90B1
:103760005F904F903F902F900895108240E050E07E
:10377000BA01C2010E94CA1904301105E9F2809110
:1037800074080F5F1F4F2A893B89215C3F4F3B8B99
:103790002A8B3FE3630E711C9FEF491A590AA981D6
:1037A000BA811496BA83A983EF81F885FF96F887CA
:1037B000EF832B813C81215C3F4F3C832B83AD8188
:1037C000BE81DF96BE83AD8312CF108A178650CF9D
:1037D000833009F40EC2843079F660914902709109
:1037E0004A0280914B0290914C020E94772F20E078
:1037F00030E04AE754E40E94DE2E6E877B878F8795
:103800009C87ED81FE816081772767FD7095872F0A
:10381000972F0E94792F20E030E040E05CE30E9487
:10382000663020E030E040EA50E40E94663020E05C
:1038300030E040E05FE30E9466307D874C01FFE3AB
:10384000F29D6001F39DD00C11242CEC38E0C20EE7
:10385000D31EAA24A394B12C198B088B7501D98E81
:10386000C88E7D8A6C8A5F8A4E8AD62EC72E782EA5
:10387000592C6E844F84888D998D9A878987B701DA
:10388000882777FD8095982F0E94792F2BED3FE0B8
:1038900049EC50E40E946630AB851C85262D3A2FFA
:1038A000442D512F0E94663020E030E040E251E488
:1038B0000E94DE2E8B011C01712F932D0E94C930B6
:1038C0004B015C01E88DF98D35976081772767FDA5
:1038D0007095872F972F0E94792F20E030E040E0ED
:1038E0005CE30E94663020E030E040EA50E40E9451
:1038F0006630A50194010E946630D6012B2F3C2D25
:10390000472D552D0E94732E562E772E6C01A88DB3
:10391000B98D1196B98FA88F602F712F822D932D9D
:103920000E94DB2E4B015C01E985FA8560817727D7
:1039300067FD7095872F972F0E94792F20E030E048
:1039400040E05CE30E94663020E030E040EA50E472
:103950000E946630A50194010E946630252D372D06
:103960004C2D5D2D0E94732ED62EC72E782E592EEB
:10397000FFEFEF1AFF0A25E0E216F10409F07BCF12
:103980000889198969877D876C887D88992E4E887A
:103990005F889601982F432F522F692F792DAA897E
:1039A000BB8911964D935D936D937C9314975296BA
:1039B0001C921E9251978FEF9FEFDC01EA89FB89E1
:1039C000848F958FA68FB78FD3015596CD90DD90BC
:1039D000ED90FC9058971EC0EA89FB89448D558D67
:1039E000668D778D411551056105710509F4F2C0A9
:1039F0008CF04150510961097109AA89BB895C9613
:103A00004D935D936D937C935F97F301C588D68842
:103A1000E788F08CA7019601AA89BB8911966D9160
:103A20007D918D919C9114970E94722E862E972ED7
:103A3000A82EB92E2BED3FE049E450EC0E94D72E82
:103A400087FF1EC0EA88FB882BED3FE049EC50E47D
:103A5000C501B4010E94732EB62FA72F462F572FF2
:103A6000682F792F4A015B012BED3FE049E450ECD0
:103A70006B2F7A2F0E94D72E87FDE6CFFB8AEA8A2A
:103A80002BED3FE049E450E4C501B4010E946230EF
:103A90001816F4F4EA88FB882BED3FE049EC50E47B
:103AA000C501B4010E94722EB62FA72F462F572FA3
:103AB000682F792F4A015B012BED3FE049E450E488
:103AC0006B2F7A2F0E946230181634F3FB8AEA8A31
:103AD00020E030E0A901C501B4010E94D72E87FD86
:103AE000D7C125E33AEF4EE05DE3C501B4010E9482
:103AF000D72E87FDD8C1AA89BB8951968D919C91FB
:103B00005297892B09F47FC120E030E0A901C5015B
:103B1000B4010E94D72E87FD07C2C501B4012091D0
:103B200052023091530240915402509155020E942A
:103B3000623018160CF067C1EB81FC8120812F5F89
:103B4000208330E0809150029091510282179307B8
:103B500008F05CC1AA89BB891C9240E050E0BA0120
:103B6000C2010E94CA1908CED30159968D919C9129
:103B70005A9701965A969C938E935997B1CDD3013B
:103B800059968D919C915A9701975A969C938E9332
:103B900059975596CD90DD90ED90FC905897A0CD1B
:103BA000813009F0E9CDF3018081882309F4EAC06E
:103BB000813009F4AAC1AF81B8854C9150E051958C
:103BC00041955109662757FD6095762FC2010E94E5
:103BD000CA19D2CD81899289892B09F4C6CD8FEF7C
:103BE0009FEFDC01EA89FB89848F958FA68FB78FC1
:103BF000C3CDAA89BB895C964D915D916D917C91F5
:103C00005F97411551056105710509F4BFC064F066
:103C10004150510961097109AA89BB895C964D938C
:103C20005D936D937C935F972DEC3CEC4CE45DE3EE
:103C3000F30161897289838994890E946630AA8917
:103C4000BB8911962D913D914D915C9114970E94E5
:103C5000732EFB01462F5F2F682F792FAA89BB890E
:103C600011964D935D936D937C931497D301559664
:103C70002D913D914D915C915897BF010E94722EFC
:103C8000862E972EA82EB92E2BED3FE049E450EC5E
:103C90000E94D72E87FF18C0EA88FB882BED3FE0F3
:103CA00049EC50E4C501B4010E94732E862E972E74
:103CB000A82EB92E2BED3FE049E450EC0E94D72E00
:103CC00087FDECCFFB8AEA8A2BED3FE049E450E424
:103CD000C501B4010E9462301816C4F4EA88FB885A
:103CE0002BED3FE049EC50E4C501B4010E94722E77
:103CF000862E972EA82EB92E2BED3FE049E450E4F6
:103D00000E946230181664F3FB8AEA8A20E030E0F1
:103D1000A901C501B4010E94D72E7501640187FD78
:103D2000FEC06091520270915302809154029091B2
:103D300055029B01AC010E94732E9B01AC01C7018F
:103D4000B6010E946230EB81FC8118160CF0DBC0DA
:103D500020812F5F208330E08091500290915102AA
:103D60008217930708F008CDAA89BB891C925B963D
:103D70001C921E925A9740E050E0BA01C2010E9484
:103D8000CA19FACCAA89BB891C92F6CCE1E0F0E012
:103D90005296FC93EE9351971D961D921D921D9283
:103DA0001C925097F30114861386F2E0FC935A9606
:103DB0008D919C915B97892B59F0FD01868997899C
:103DC000A08DB18D81839283A383B483138E128ED1
:103DD000EFEFFFEFD3011C96FC93EE931B97AA899C
:103DE000BB8953968D919C915497892B09F4F7CEFA
:103DF00084E190E0A0E0B0E0EA89FB89848F958FB0
:103E0000A68FB78FB9CCEB81FC811082AA89BB89C0
:103E100015962D913D914D915C911897C501B40176
:103E20000E9466306B017C01EA89FB892585368515
:103E30004785508961857285838594850E946630A7
:103E40009B01AC01C701B6010E94732E0E94462F50
:103E5000AB01BC01C2010E94CA192DEC3CEC4CE440
:103E60005DE3C501B4010E9466309B01AC01AA89E3
:103E7000BB891D966D917D918D919C9150970E946B
:103E8000732EEA89FB89658776878787908B74CC48
:103E900025E33AEF4EE05DEBC501B4010E946230CC
:103EA00018160CF028CE21E030E0EA89FB89328B2D
:103EB000218B83899489892B09F057CC8FEF9FEF51
:103EC000DC01EA89FB89848F958FA68FB78FAA8939
:103ED000BB8951968D919C915297892B09F493CF70
:103EE00013CED3011B968C911B978C93C2010E9419
:103EF000181A8FEF9FEFDC01EA89FB89848F958F79
:103F0000A68FB78F39CC108281CFEF81F8854081A1
:103F100050E060E070E0C2010E94CA192DCCF7FAAF
:103F2000F094F7F8F094FDCEC501B4019058F7CDA8
:103F3000109291081092D00810920F096EE480E060
:103F40000E9496196EE480E00C94B0199F92AF9293
:103F5000BF92CF92DF92EF92FF920F931F93CF9376
:103F6000DF9300D000D0CDB7DEB780E190E00E94B3
:103F70009410813A09F44AC071ECC72E78E0D72E2C
:103F800000E010E0EE24E394F12CC7010E944311FD
:103F9000AB01BC01705849835A836B837C83F60163
:103FA0004083518362837383642FC8010E9484100D
:103FB0006A81C80101960E9484106B81C801029633
:103FC0000E948410FFEFEF1AFF0A8FE3C80ED11C86
:103FD0000C5F1F4F94E0E916F104B9F661EA80E145
:103FE00090E00E94841021E030E0C9010F900F9012
:103FF0000F900F90DF91CF911F910F91FF90EF9055
:10400000DF90CF90BF90AF909F900895C12CD12C9E
:10401000A12CB12CFFE39F2E9A9C70019B9CF00C6D
:10402000112481EC98E0E80EF91E00E010E0C601D2
:10403000800F911F0E949410F70181937F010F5F01
:104040001F4F0430110599F7FFEFAF1ABF0A84E044
:10405000C80ED11C93E0A916B104F1F620E030E0BF
:10406000C4CF1092C1081092C2081092C3081092D7
:10407000C4081092000910920109109202091092CE
:10408000030910923F0910924009109241091092C1
:10409000420960EA80E190E00E9484100E94A61F1D
:1040A00080E090E0089510926F0210926E021092DC
:1040B0006D0210926C0210926B0210926A02609173
:1040C0007208609540917308809171080C94BD0C42
:1040D0000F931F93CF93DF9381E090E09093CD00F7
:1040E0008093CC001092C80088E98093C90080E8D2
:1040F00090E00E9438358093CE099093CF0980E8F4
:1041000090E00E9438358C019093D1098093D009BA
:10411000C0E0D0E004C00091D0091091D10984E042
:1041200090E00E943835F801EC0FFD1F80839183E9
:104130002296C038D10579F71092CD09DF91CF9141
:104140001F910F9108951F920F920FB60F92112495
:104150000BB60F921BBE2F933F934F938F939F935A
:10416000EF93FF934091CE0080916A0290916B0291
:1041700020916C0230916D02820F931F8F739078A3
:1041800097FD1BC0FC01E357F64F408380916C0202
:1041900090916D02019690936D0280936C02FF9155
:1041A000EF919F918F914F913F912F910F900BBE67
:1041B0000F900FBE0F901F9018950197806C9F6F06
:1041C0000196E0CF161617066CF4FC01680F791FF4
:1041D00091918091C80085FFFCCF9093CE00E617A7
:1041E000F707B1F70895CF93DF93EB01FC0130811E
:1041F00030931306362F3A5F30931406509315060A
:10420000409316062093170628E136E0AB01BC0167
:10421000C9010E94C037CD5ED94F81E18D8383E112
:1042200096E0DF91CF910895CF93DF93EB0120E1EA
:1042300020931307262F2D5F2093140725E137E0E5
:10424000AB01BC01C9010E94C037CD5ED84F81E1EE
:104250008A8383E197E0DF91CF9108952F923F9277
:104260006F927F928F929F92AF92BF92CF92DF9286
:10427000EF92FF920F931F93CF93DF931C01680F70
:10428000791FFB013197808181112EC0D1010C91E2
:10429000023431F0A8F5023348F1063308F06EC05D
:1042A00080917408833089F1823009F45DC08FEF0A
:1042B0008093130883E08093140881E180931508AC
:1042C000C3E1D8E0CE01DF91CF911F910F91FF9014
:1042D000EF90DF90CF90BF90AF909F908F907F90A6
:1042E0006F903F902F900895F101008110E0F80148
:1042F000F097EE33F105D8F6E057FF4F0C941E35DA
:10430000802F8454833090F7CBCFF101928192308B
:1043100068F39FEF909313088093140881E18093D2
:104320001508C3E1D8E0CECFD10112969C91129727
:1043300080E013962C91822B0E94A30B60E070E02A
:1043400080E090E0DF91CF911F910F91FF90EF906F
:10435000DF90CF90BF90AF909F908F907F906F90A5
:104360003F902F900C941421D10112968C918823A8
:1043700009F4BCCF823009F09ACFB8CF0E3309F0E0
:10438000B5CF8ECF8FE58093130889E08093140812
:1043900080918B0890918C089093150880918B08E0
:1043A00090918C0880931608809144029091450268
:1043B000A0914602B0914702809317089093180885
:1043C000A0931908B0931A0810921B08C3E1D8E013
:1043D00079CFF101C380D480E580F68022E93AE00C
:1043E00046E050E4C701B6010E94623018160CF492
:1043F000D8C522E93AE046E050ECC701B6010E9478
:10440000D72E87FF08C0D2E9CD2EDAE0DD2ED6E028
:10441000ED2ED0ECFD2ED1011296EC91BFE3EB9F77
:10442000F0011124EF56F74FC6A2D7A2E0A6F1A6DD
:1044300060E070E080E090E085CFD1011296EC91D1
:10444000BFE3EB9FF0011124EF56F74FC2A4D3A4B2
:10445000E4A4F5A466A577A5882777FD8095982F15
:104460000E94792F2BED3FE049EC50E40E9466302A
:104470009B01AC01C701B6010E94732E6093130823
:1044800070931408809315089093160864E070E008
:1044900083E198E057CF4091490250914A026091E0
:1044A0004B0270914C024093130850931408609390
:1044B000150870931608D1011296EC91BFE3EB9F9B
:1044C000F0011124EF56F74F82A593A5A4A5B5A539
:1044D0008093170890931808A0931908B0931A08AE
:1044E00068E070E0D5CFF101828190E001960E94F2
:1044F00058198093130861E070E0CACF82E99AE00E
:10450000A6E0B0E48093130890931408A0931508D4
:10451000B093160864E070E0BBCFD10112968C9185
:104520000E94AE0F609313087093140880931508CF
:104530009093160864E070E0ABCF809152029091A6
:104540005302A0915402B0915502809313089093A6
:104550001408A0931508B093160864E070E098CF93
:10456000F10182819381A481B5818093520290935D
:104570005302A0935402B093550260E070E080E0D3
:1045800090E0E0CE809150029091510222E3289F6A
:10459000B001299F700D112480E090E00E94772FD8
:1045A00020E030E04AE754E40E94DE2E60931308D6
:1045B00070931408809315089093160864E070E0D7
:1045C00067CFD10112966D917D918D919C91159738
:1045D00020E030E04AE754E40E94663020E030E01A
:1045E00048E452E40E94DE2E0E944B2F7093510249
:1045F0006093500260E070E080E090E0A3CE0E9403
:10460000981F60E070E080E090E09CCE8FE38093A4
:10461000130861E070E03CCF81E00E948E0E60E004
:1046200070E080E090E08ECEF101828180934302C1
:1046300060E070E080E090E085CE1092C0081092BB
:10464000BF081092FF081092FE0810923E091092C7
:104650003D0960E070E080E090E074CED1011296F8
:104660004D915D916D917C91159781E090E00E9454
:104670007714F101468157816085718582E090E071
:104680000E947714D1011A964D915D916D917C91A4
:104690001D9783E090E00E94771460E070E080E076
:1046A00090E050CE8091BB089091BC08A091BD08CD
:1046B000B091BE088093130890931408A093150836
:1046C000B09316088091FA089091FB08A091FC081D
:1046D000B091FD088093170890931808A0931908CB
:1046E000B0931A088091390990913A09A0913B0939
:1046F000B0913C0980931B0890931C08A0931D085F
:10470000B0931E0860E170E0C3CE0BEB18E0C0E090
:10471000D0E0D801CD90DD90ED90FC901397F3E1BF
:10472000AF2EF8E0BF2EAC0EBD1E14966D917C919D
:104730001597882777FD8095982F0E94792F2BED6C
:104740003FE049EC50E40E9466309B01AC01C70198
:10475000B6010E94732EF501608371838283938377
:10476000015C1F4F2496C031D10599F660E170E0DD
:104770008FCE8091490290914A02A0914B02B09154
:104780004C028093130890931408A0931508B093DB
:1047900016088091BB089091BC08A091BD08B0910B
:1047A000BE088093170890931808A0931908B09337
:1047B0001A088091FA089091FB08A091FC08B0912A
:1047C000FD0880931B0890931C08A0931D08B093CC
:1047D0001E088091390990913A09A0913B09B09146
:1047E0003C0980931F0890932008A0932108B09360
:1047F000220864E170E04CCE8091490290914A0217
:10480000A0914B02B0914C0280931308909314082E
:10481000A0931508B09316080BEB18E0C4E0D0E0A5
:10482000D801CD90DD90ED90FC901397E3E1AE2E92
:10483000E8E0BE2EAC0EBD1E14966D917C911597CE
:10484000882777FD8095982F0E94792F2BED3FE0E8
:1048500049EC50E40E9466309B01AC01C701B601EF
:104860000E94732EF5016083718382839383015CC0
:104870001F4F2496C031D10599F664E170E008CE4F
:10488000D1011296EC918E2F90E0BFE3EB9FF001E7
:104890001124EF56F74F06A117A120A531A5F1016C
:1048A000438154816581768101960E94A41460E061
:1048B00070E080E090E046CDD1011296EC918E2F11
:1048C00090E0BFE3EB9FF0011124EF56F74F06A1F4
:1048D00017A120A531A5F10143815481658176811D
:1048E00001960E94191660E070E080E090E02ACD09
:1048F000D1011296EC918E2F90E0BFE3EB9FF00177
:104900001124EF56F74F06A117A120A531A5F101FB
:10491000438154816581768101960E94A41760E0ED
:1049200070E080E090E00ECDD1011296EC91BFE3F3
:10493000EB9FF0011124EF56F74F86A197A1A0A598
:10494000B1A58093130890931408A0931508B09311
:10495000160864E070E09CCDE2E02E0E311CC7EB3F
:10496000EC2EC8E0FC2EC0E0D0E02196D7010D91DE
:104970001D912D913C91F101419151916191719164
:104980001F01CE010E94A414FFE3EF0EF11CC330FF
:10499000D10559F7D3CCD10113964D915D916D910D
:1049A0007C91169712968C9190E001960E94771454
:1049B00060E070E080E090E0C5CCD1011296EC910F
:1049C000BFE3EB9FF0011124EF56F74F82A593A5AB
:1049D000A4A5B5A58093130890931408A093150877
:1049E000B093160864E070E053CDD1011296EC91BB
:1049F000BFE3EB9FF0011124EF56F74F85898093B9
:104A0000130861E070E044CD10924E0210924D0206
:104A10004FEF60E080E00E94BD0C60E070E080E05D
:104A200090E090CCF1014781668185810E94BD0CA8
:104A300060E070E080E090E085CC81010C5F1F4F6A
:104A4000C1E0D0E0D10112968C9190E09E012150FE
:104A5000310902C0959587952A95E2F780FD91C2AC
:104A600021960E5F1F4FC430D10561F767CC0E94BD
:104A7000C20F6093130870931408809315089093E5
:104A8000160864E070E004CDB1016E5F7F4F44E032
:104A900050E082E194E00E94A510F10182819381AF
:104AA000A481B5818093440290934502A09346026D
:104AB000B093470260E070E080E090E043CC8091EA
:104AC000030B8111F4CB8AE08093030B60E070E06C
:104AD00080E090E037CC8091CD09882399F1E09176
:104AE000CE09F091CF096091D0097091D10942E0CF
:104AF00050E020E030E0CF01EA01CD5ED74FDE018B
:104B0000129711811C9332968E0101501109DC011C
:104B10008C91D8018C93DB018D919D91BD01DC01BD
:104B2000CD90DD90ED90FC90C882D982EA82FB8224
:104B30002F5F3F4F8091CD094A5F5F4F90E028176C
:104B40003907CCF26091CD09B6E06B9FB00111241A
:104B50009FCC1092CD0960E070E080E090E0F2CB55
:104B6000F1018381E2812FE3E29FF0011124EF56EE
:104B7000F74F858BD10112968C9190E001960E949F
:104B8000181A60E070E080E090E0DCCBD101129672
:104B90008C911297982F9B50903158F08FEF809303
:104BA000130883E08093140881E18093150812961E
:104BB0008C910E949B0281E00E9493028FEF809370
:104BC0004701809147018093130861E070E060CC59
:104BD000413009F430C244E050E064E472E0C101C5
:104BE00002960E94B337009709F4CCCBC0E0D0E026
:104BF00069CBD10112969C91129780E090934E025E
:104C000080934D0280914D0290914E0213962C910B
:104C1000822B90934E0280934D0240E06FEF80E034
:104C20000E94BD0C60E070E080E090E08BCB22E061
:104C3000220E311CB7EBEB2EB8E0FB2EC0E0D0E02B
:104C40002196D7010D911D912D913C91F10141913A
:104C50005191619171911F01CE010E941916FFE3DC
:104C6000EF0EF11CC330D10559F768CB22E0220EBC
:104C7000311CA7EBEA2EA8E0FA2EC0E0D0E0219686
:104C8000D7010D911D912D913C91F10141915191CF
:104C9000619171911F01CE010E94A417FFE3EF0EF5
:104CA000F11CC330D10559F749CB0E94810D811108
:104CB000BEC180916E0890916F0890931408809304
:104CC0001308809175089091760890931608809348
:104CD000150880918E0890918F0890931808809302
:104CE000170866E070E0D4CB8091740880931308B5
:104CF00061E070E0CDCBD101189680E090E02FE329
:104D0000FD0135973081F1014281FC01249FE00DC6
:104D1000F11D1124EF56F74F35AB3D91F101428162
:104D2000FC01249FE00DF11D1124EF56F74F32AF27
:104D300001968530910521F701CBE1E9F8E080E0AB
:104D400090E044E0D10112962C9130E0082E02C090
:104D5000359527950A94E2F720FD40830196FF964A
:104D60008430910579F7EACAF101418150E044505D
:104D70005109B1016D5F7F4F928180E042960E94A0
:104D8000A51060E070E080E090E0DCCA60E070E0D8
:104D900080E090E00E941421EC01D10112968C91E8
:104DA0000E947D0C8FCA80918B0890918C08909303
:104DB000130880918B0890918C088093140862E00E
:104DC00070E066CB8091CD09803408F4FCC023E10B
:104DD00038E0F101418150E0B101C9010E94C037C2
:104DE00081E28093130880911408882309F4A6CAED
:104DF000E3E1F8E090E08E0F9F1F31E22091C800C0
:104E000025FFFCCF3093CE003196E817F90709F45F
:104E100095CA3081F3CF0E94221054CA64E070E03A
:104E200084E492E08FCA8091710890917208A091F9
:104E300073088093130890931408A093150863E0F7
:104E400070E026CB1092130861E070E021CB06EAF7
:104E500018E03101F5E06F0E711CC0E0D0E072E3A4
:104E6000872E912CA12CB12CD10112968C9190E01F
:104E70000C2E02C0959587950A94E2F780FD5AC0E2
:104E80002196015C1F4FB6E06B0E711CC430D1053A
:104E900059F754CA8091490290914A02A0914B025D
:104EA000B0914C028093130890931408A0931508B6
:104EB000B0931608CBEBD8E057E2852E58E0952E3C
:104EC00064E0A62EB12C00E010E0C880D980EA8012
:104ED000FB800F5F1F4F43E1642E48E0742E6A0C85
:104EE0007B1C6C817D81882777FD8095982F0E949F
:104EF000792F2BED3FE049EC50E40E9466309B0196
:104F0000AC01C701B6010E94732EF3016083718367
:104F100082839383C8010E945819D4018D934D0157
:104F2000EF96B4E0AB0EB11C0430110571F668E1E8
:104F300070E0AECAF30132978081F8018083F301FB
:104F400031978081D8011B968C931B971C961C92DD
:104F5000F301C080D180E280F3802196CE010E94CF
:104F6000181AF7FC27C0C701B601A50194010E94D9
:104F70000235D80117962D933D934D935C931A9764
:104F800080CFF8013197F080E12CF8018081A701F2
:104F9000482B662757FD6095762FCE010E94CA19CF
:104FA0005FCD12E9C12E1AE0D12E16E0E12E10E4F9
:104FB000F12E31CA8FEF9FEFDC01F80187839087D4
:104FC000A187B2875ECF8091CD0990E0880F991FAD
:104FD000E091CE09F091CF09E80FF91FD1011296A7
:104FE0009C91129780E013962C911397822B9183BA
:104FF00080838091CD0990E0880F991FE091D009BE
:10500000F091D109E80FF91F0190F081E02D14967D
:105010004D915D916D917C9117974083518362838F
:1050200073838091CD098F5F8093CD09D0CE8AE0C4
:105030000E948E0E3ECE84E68093130887E0809314
:105040001408F101828180931508838180931608EA
:10505000848180931708858180931808109219081D
:1050600020E04FEF5FEF67E083E198E00E94392C8A
:10507000892B09F01CC962C9EF92FF920F931F930D
:10508000CF93DF9382E390E0A0E0B0E0809305054A
:1050900090930605A0930705B093080581E08093DF
:1050A000040583E590E290930A0580930905FF24A7
:1050B000FA9403E011E180916C0290916D02181650
:1050C00019060CF0C4C080916C0290916D02892B7E
:1050D00009F4B9C0E0916A02F0916B02E357F64F10
:1050E000E08080916A0290916B0201968F739078B4
:1050F00097FDB4C090936B0280936A0280916C021A
:1051000090916D02019790936D0280936C02809153
:105110006E0290916F02009741F484E095E00E9446
:10512000BE2C80916E0290916F02FC01ED5EFA4FF1
:10513000E082019690936F0280936E028230910517
:105140000CF4B9CF2091140530E08217930709F0D1
:10515000B2CF84E095E00E948A2C409115058091A1
:105160008B0890918C08242F30E0892F992750913B
:1051700016052817390709F476C041112DC05111C1
:105180002BC06091190541E070E088E195E00E9434
:105190002E210097E1F0FC01618121E040E050E028
:1051A00070E00E94F320FC01418150E0411551055F
:1051B00071F020E030E091918091C80085FFFCCF34
:1051C0009093CE002F5F3F4F24173507A4F3109222
:1051D0006F0210926E026FCFD42FF0E0CF2FCE016E
:1051E000852BAC0121E06091190588E195E00E94D2
:1051F000392C892B61F3F092130500931405109359
:10520000150521E040E050E063E070E083E195E0C7
:105210000E94F320FC01418150E041155105B9F293
:1052200020E030E091918091C80085FFFCCF909301
:10523000CE002F5F3F4F24173507A4F310926F0263
:1052400010926E0238CF10926F0210926E02DF91B0
:10525000CF911F910F91FF90EF9008950197806C6F
:105260009F6F019647CF80918B0890918C08252FD6
:1052700030E099272817390709F07FCF82CF1092A5
:10528000030B0895FC018785882391F080917002BB
:10529000909171020196909371028093700286E062
:1052A0008093030B8091700290917102069734F005
:1052B00010927102109270021092030B0895FC017B
:1052C0008785882399F080917002909171020196F0
:1052D000909371028093700280917002909171029C
:1052E000069724F483E08093030B089510927102D3
:1052F000109270021092030B0895FC01278522235F
:1053000001F120917002309171022F5F3F4F309375
:1053100071022093700228E02093030B2091700209
:1053200030917102263031050CF40895109271020B
:10533000109270021092030BFC01828593850C94ED
:10534000D33510927102109270021092030B828575
:1053500093850C94D335CF93DF9300D01F92CDB7B4
:10536000DEB78091030B853009F4F3C0B0F18730CC
:1053700009F40DC108F4C3C0883009F42FC18A3084
:1053800031F58FEF9FEF9093E80A8093E70A81E071
:105390008093E90A8093EA0A1092EB0A8EE58093E3
:1053A000F30A23E02093F40A1092F50A83EF9AE0BF
:1053B0009093ED0A8093EC0A2093EE0A8FE399E232
:1053C0009093F00A8093EF0A86E08093030B0F908E
:1053D0000F900F90DF91CF910895813009F403C1B0
:1053E00008F058C080917302882309F410C180919D
:1053F0007302882309F417C1E0917202809172024E
:105400008F5F809372028091730281508093730248
:10541000EF7025E8E29FF0011124EB5FF44FF09369
:105420005613E0935513309709F401C12581822F5B
:1054300080538F3308F019C180914D0290914E0234
:10544000892B09F416C12F3509F413C18281938188
:105450009093E80A8093E70A81E08093E90A8093B9
:10546000EA0A8093EB0ACE0101969093ED0A8093AD
:10547000EC0A83E08093EE0A82E499E29093F00ACA
:105480008093EF0A109271021092700286E080936E
:10549000030B9DCF823009F43FC0833009F097CFD2
:1054A000E0915513F0915613828193819093E80A0D
:1054B0008093E70A81E08093E90A8093EA0A809367
:1054C000EB0AE0913B08F0913C08F093ED0AE09381
:1054D000EC0A81818093EE0A8FE599E29093F00ABD
:1054E0008093EF0A82EE9AE00E94350484E0809374
:1054F000030B0F900F900F90DF91CF91089582EEE4
:105500009AE00E94350489E08093030B0F900F907E
:105510000F90DF91CF91089580915513909156137C
:10552000FC016081718142E005960E942E219093DA
:105530003C0880933B08009711F1E0915513F091DE
:10554000561325812E3509F47CC083E08093030B2C
:105550003ECFE0915513F091561342815381608103
:1055600071812481CF0105960E94F32090933C081D
:1055700080933B08FC01618170E00E94E220109260
:10558000030B0F900F900F90DF91CF9108958091B2
:105590007402882309F444C08091750290917402CA
:1055A000915090937402909175029F5F9093750251
:1055B0008F70F1E18F9FC00111248E52964F90930E
:1055C0003E0880933D080E94350489E08093030BD8
:1055D0000F900F900F90DF91CF91089580913D082B
:1055E00090913E08F0CF8FEB93E890938C088093D6
:1055F0008B0880918B0890918C080E94F603109282
:10560000030B0F900F900F90DF91CF910895809131
:105610007402882309F4DBCE87E08093030BD7CE96
:1056200080E090E0CCCF109256131092551385E095
:105630000E948E0E0E942210E0915513F091561395
:10564000F5CE228133813093E80A2093E70A21E0E6
:105650002093E90A2093EA0A2093EB0A9093ED0A3B
:105660008093EC0AFC01818105CF85E08093030BD8
:10567000AECE82E08093030BAACE0F931F93CF93FD
:10568000DF9308E010E0C0E0D0E0CC0FDD1FCC0FCE
:10569000DD1F80914601829586958370C82B61E05D
:1056A00070E080E090E00E94DD0F0150110969F781
:1056B000CE01DF91CF911F910F910895FF920F932B
:1056C0001F93CF93DF930E94F50884E392E10E9439
:1056D000FC038FE00E949B0281E00E9493026FE234
:1056E0007CE281E00E94020444E050E064E472E065
:1056F00082E194E00E94C31010924802C4E4D2E018
:10570000FE0181918F3FC1F582E0E834F807C9F7C7
:1057100034E2F32E0BE712E00E943D2BAC019C011A
:10572000AFE8B3EE0E94C034969587959295829526
:105730008F7089279F708927F89E9001F99E300D00
:105740001124421B530B842F48834A30F0F4805DB0
:10575000888361E070E080E090E00E94DD0F219698
:1057600082E0C834D807C1F644E050E064E472E057
:1057700082E194E00E94A51081E08093030BDF9109
:10578000CF911F910F91FF9008950883E2CFFC0104
:1057900080917302803108F05FC020917202809185
:1057A000730290E0820F911D8F709927278130E05E
:1057B00045E8489FD001499FB00D1124AB5FB44F1D
:1057C00011963C932E93209172028091730290E087
:1057D000820F911D8F70992720813181489FD001C0
:1057E000499FB00D1124AB5FB44F13963C932E9399
:1057F0001297209172028091730290E0820F911DA6
:105800008F7099272281489FD001499FB00D1124A4
:10581000AB5FB44F14962C93809172022091730267
:1058200030E0280F311D2F703327429FD001439F56
:10583000B00D1124A65FB44F47816581768150E099
:10584000CD010E94C037809173028F5F80937302F5
:1058500020E030E0C90108952FEF3FEFFBCFCF9359
:10586000DF93EC010E94C72B8C818170DF91CF9177
:105870000895EF92FF920F931F93CF93DF931F92A0
:10588000CDB7DEB7082F792F162F30917402303143
:10589000F0F580917502E0917402F0E0E80FF11DDF
:1058A000EF70FF2781E18E9F70018F9FF00C112414
:1058B00082ED99E0E80EF91EF7015683458331E049
:1058C000378330872187862F90E079830E9438358F
:1058D000F70182879387412F50E0602F79810E94E2
:1058E000C037F70114878DE799E296878587809105
:1058F00074028F5F8093740220E030E0C9010F9042
:10590000DF91CF911F910F91FF90EF9008952FEFAE
:105910003FEFF4CFCF93DF93FC018091760290911B
:105920007702E817F907B9F0A585B685109731F029
:10593000838594851C969C938E931B97C385D485F1
:10594000209711F0BE87AD871486138616861586BC
:10595000DF91CF910895A385B485B0937702A0938A
:105960007602109789F31E961C921E921D9714863C
:10597000138616861586DF91CF9108950F931F9396
:10598000CF93DF93EC010E948A2C00914902109181
:105990004A0220914B0230914C0249815A816B811D
:1059A0007C81040F151F261F371F0F831887298737
:1059B0003A871C861B861E861D86809176029091F2
:1059C0007702009709F446C0FC0147815085618544
:1059D0007285041715072607370778F1FC01478100
:1059E0005085618572850417150726073707A0F1D2
:1059F000DC010AC04781508561857285041715074F
:105A00002607370738F0DF011B96ED91FC911C97B4
:105A1000309781F71C96DC93CE931B97BE87AD879A
:105A2000FC87EB87309711F0D687C587892BB9F0B3
:105A3000DF91CF911F910F9108959C878B87D68717
:105A4000C587D0937702C0937602DF91CF911F91E3
:105A50000F910895E0E0F0E0A0E0B0E0DFCFD09358
:105A60007702C0937602DF91CF911F910F91089535
:105A70000F931F93CF93DF93C0917602D09177025B
:105A8000209789F00F81188529853A854091490230
:105A900050914A0260914B0270914C02401751079D
:105AA0006207730728F4DF91CF911F910F9108953A
:105AB000CE010E948A2CED81FE8109958881811199
:105AC000F2CFCE01DF91CF911F910F910C94BE2C9C
:105AD0000F931F93CF93DF938091490290914A02D5
