:100000000C9494000C94BC000C94BC000C94BC00A8
:100010000C94BC000C94BC000C94BC000C94BC0070
:100020000C94BC000C94BC000C94BC000C94BC0060
:100030000C94BC000C94BC000C94BC000C94BC0050
:100040000C94A61D0C94BC000C94261F0C94621FEB
:100050000C94BC000C94BC000C94BC000C94BC0030
:100060000C94BC000C94BC00DB15E1169112A91293
:10007000B512F81207132B134F1373138913CC13F4
:10008000FD134A148914A314BD14D714E614FD14E7
:10009000211544154C15511559155C156515741528
:1000A0009315AE15B115B315C5158012CC15D21523
:1000B000E0153F169116B61605A84CCDB2D44EB930
:1000C0003836A9020C50B9918688083CA6AAAA2AFB
:1000D000BE000000803F0000000700020100000396
:1000E00004060000000000000000010204081020C7
:1000F00040800102040810200102040810200404BA
:1001000004040404040402020202020203030303BF
:10011000030300000000250028002B000000000061
:10012000240027002A001D2011241FBECFEFD8E095
:10013000DEBFCDBF11E0A0E0B1E0EEE3F7E402C026
:1001400005900D92A231B107D9F715E0A2E1B1E017
:1001500001C01D92AC33B107E1F711E0C8E2D1E074
:1001600004C02297FE010E948323C632D107C9F73B
:100170000E9495200C949D230C940000AF92BF9296
:10018000CF92DF92EF92FF920F931F93CF93DF9363
:10019000CDB7DEB760970FB6F894DEBF0FBECDBF08
:1001A00069837A838B839C832D833E834F83588717
:1001B000E986FA860B871C87AD86BE86CF86D88AED
:1001C0009E012F5F3F4FECE9F3E0AE014F5E5F4FC2
:1001D00063E070E0D901CD90DD90ED90FD909D0140
:1001E000C082D182E282F382DF0198976D937C9383
:1001F000EF5BFF4F2417350769F780E090E06096CA
:100200000FB6F894DEBF0FBECDBFDF91CF911F9127
:100210000F91FF90EF90DF90CF90BF90AF90089537
:10022000CF92DF92EF92FF92CF93DF936A017B012F
:100230009C012150310941E4429FE001439FD00DD0
:100240001124CC58DC4F0297029728F52BED3FE0A4
:1002500049EC5FE3C701B6010E94922218169CF098
:100260002BED3FE049EC5FEBC701B6010E9407218F
:1002700087FF11C03BEDC32E3FE0D32E39ECE32EB8
:100280003FEBF32E08C02BEDC22E2FE0D22E29EC2F
:10029000E22E2FE3F22E82E090E099838883CA82D7
:1002A000DB82EC82FD821B8A1A8A88EE93E0A0E052
:1002B000B0E08E8F9F8FA8A3B9A380E090E0DF917C
:1002C000CF91FF90EF90DF90CF9008952F923F92C3
:1002D0004F925F926F927F928F929F92AF92BF9256
:1002E000CF92DF92EF92FF920F931F93CF93DF9302
:1002F000CDB7DEB727970FB6F894DEBF0FBECDBFE0
:100300009A8389834A015B016801790120E030E02A
:10031000A901C701B6010E940721882309F40DC174
:1003200089819A81019721E4289FA001299F500D7E
:1003300011244C585C4F5F834E8389819A810297C8
:10034000029728F52BED3FE049EC5FE3C501B401CE
:100350000E94922218169CF02BED3FE049EC5FEBD7
:10036000C501B4010E94072187FF11C05BED852EF6
:100370005FE0952E59ECA52E5FEBB52E08C04BED36
:10038000842E4FE0942E49ECA42E4FE3B42EEE8140
:10039000FF8144A455A466A477A4A3019201C501DA
:1003A000B4010E94A2208B011C0120E030E0A901D1
:1003B000712F932D0E94922218166CF425E33AEFC8
:1003C0004EE85DE3602F712F822D932D0E9407214F
:1003D00087FF2BC00CC025E33AEF4EE85DEB602FA2
:1003E000712F822D932D0E9492221816F4F4B501DC
:1003F000A40189819A8127960FB6F894DEBF0FBEBB
:10040000CDBFDF91CF911F910F91FF90EF90DF90C3
:10041000CF90BF90AF909F908F907F906F905F90A4
:100420004F903F902F900C94100120E030E0A901F4
:10043000C701B6010E940721A701960187FD505808
:10044000602F712F822D932D0E940E2120E030E02D
:100450004AE754E40E94962269837B838C839D83C0
:1004600020E030E0A901602F712F822D932D0E9492
:10047000922220E030E0A90118163CF4C701B60131
:100480000E94072187FF0BC006C0C701B6010E946A
:10049000072187FD04C0F7FAF094F7F8F094EE8195
:1004A000FF81C0A6D1A6E2A6F3A6EE81FF8142821B
:1004B00053826482758216861786108A118A20E01C
:1004C00030E040EA50E4B981AB81EC811D816B2FB3
:1004D0007A2F8E2F912F0E940E218B013C01CB0190
:1004E000D3016C017D0120E030E0A901B801C30116
:1004F0000E94072187FF04C0C701B601905802C0BF
:10050000B801C3010E947621CB01AA2797FDA095CF
:10051000BA2FEE81FF81868F978FA0A3B1A3138A94
:10052000128A808E918EA28EB38E81E090E0958F9C
:10053000848F83E090E09183808380E090E0279631
:100540000FB6F894DEBF0FBECDBFDF91CF911F91E4
:100550000F91FF90EF90DF90CF90BF90AF909F9062
:100560008F907F906F905F904F903F902F90089565
:100570002F923F924F925F926F927F928F929F92B3
:10058000AF92BF92CF92DF92EF92FF920F931F93A1
:10059000CF93DF93CDB7DEB727970FB6F894DEBFC2
:1005A0000FBECDBF9E838D834A015B016801790137
:1005B00020E030E0A901C701B6010E94072188238D
:1005C00009F432C18D819E81019721E4289F100199
:1005D000299F300C112484E793E0280E391E8D8169
:1005E0009E810297029728F52BED3FE049EC5FE3EF
:1005F000C501B4010E94922218169CF02BED3FE039
:1006000049EC5FEBC501B4010E94072187FF11C0CF
:100610007BED872E7FE0972E79ECA72E7FEBB72E10
:1006200008C06BED862E6FE0962E69ECA62E6FE368
:10063000B62ED1019C968D919D910D90BC91A02DCF
:1006400089839A83AB83BC83F10160A971A9882750
:1006500077FD8095982F0E94A9212BED3FE049EC72
:1006600050E40E9496229B01AC0169817A818B81C2
:100670009C810E94A3209B01AC01C501B4010E9492
:10068000A2202B013C0120E030E0A901752D972D1F
:100690000E94922218166CF425E33AEF4EE85DE3CF
:1006A000642D752D862D972D0E94072187FF2BC065
:1006B0000CC025E33AEF4EE85DEB642D752D862DD9
:1006C000972D0E9492221816F4F4B501A4018D8191
:1006D0009E8127960FB6F894DEBF0FBECDBFDF9187
:1006E000CF911F910F91FF90EF90DF90CF90BF902F
:1006F000AF909F908F907F906F905F904F903F90C2
:100700002F900C94100120E030E0A901C701B60140
:100710000E940721A701960187FD5058642D752D71
:10072000862D972D0E940E2120E030E04AE754E408
:100730000E9496228B018F839D8320E030E0A901E7
:10074000642D752D862D972D0E94922220E030E099
:10075000A901181694F4C701B6010E94072187FF6A
:1007600004C0F7FAF094F7F8F094D1019896CD927E
:10077000DD92ED92FC929B970FC0C701B6010E94DB
:10078000072187FD04C0F7FAF094F7F8F094F1011F
:10079000C0A6D1A6E2A6F3A689819A81AB81BC81CD
:1007A000F10182839383A483B58316861786108A0A
:1007B000118A20E030E040EA50E4FF81ED81602FB3
:1007C000712F8F2F9E2F0E940E218B013C01CB0198
:1007D000D3016C017D0120E030E0A901B801C30123
:1007E0000E94072187FF04C0C701B601905802C0CC
:1007F000B801C3010E947621CB01AA2797FDA095DD
:10080000BA2FF101868F978FA0A3B1A3138A128A02
:10081000808E918EA28EB38E81E090E0958F848F32
:1008200083E090E09183808380E090E027960FB68C
:10083000F894DEBF0FBECDBFDF91CF911F910F9116
:10084000FF90EF90DF90CF90BF90AF909F908F90F0
:100850007F906F905F904F903F902F9008952F92D0
:100860003F924F925F926F927F928F929F92AF9240
:10087000BF92CF92DF92EF92FF920F931F93CF938D
:10088000DF933C014A015B0168017901019721E492
:10089000289F1001299F300C112484E793E0280E33
:1008A000391EC30102970297B0F42BED3FE049ECEB
:1008B0005FE3C501B4010E94922218160CF4DCC05B
:1008C0002BED3FE049EC5FEBC501B4010E9407212D
:1008D00087FDDBC014C091E06916710421F0E4E0EB
:1008E0006E16710461F4F10124A535A546A557A53E
:1008F000C501B4010E94A2200E94500709C0F10165
:1009000024A535A546A557A5C501B4010E94A2207E
:10091000462E172FD82FC92F20E030E0A901FE0165
:100920008F2F9E2F0E949222181674F425E33AEF1F
:100930004EE85DE3FE01642D712F8F2F9E2F0E94E4
:10094000072187FF25C00DC025E33AEF4EE85DEB98
:10095000FE01642D712F8F2F9E2F0E949222181658
:10096000BCF4B501A401C301DF91CF911F910F9198
:10097000FF90EF90DF90CF90BF90AF909F908F90BF
:100980007F906F905F904F903F902F900C9410014C
:1009900020E030E0A901C701B6010E940721A701AC
:1009A000960187FD5058FE01642D712F8F2F9C2FCB
:1009B0000E940E2120E030E04AE754E40E94962293
:1009C000562E672E782E092F20E030E0A901FE0177
:1009D000642D712F8F2F9C2F0E94922220E030E0F7
:1009E000A90118163CF4C701B6010E94072187FF30
:1009F0000BC006C0C701B6010E94072187FD04C0D5
:100A0000F7FAF094F7F8F094F101C0A6D1A6E2A6A7
:100A1000F3A6F10184A595A5A6A5B7A58283938326
:100A2000A483B58316861786108A118A20E030E0E9
:100A300040EA50E4652D762D872D902F0E940E21DF
:100A40008B01D82FC92FCB01AD2FBC2F6C017D019D
:100A500020E030E0A901B8018D2F9C2F0E940721D2
:100A600087FF04C0C701B601905803C0B8018D2F9D
:100A70009C2F0E94762112C0FBED8F2EFFE09F2E4F
:100A8000F9ECAF2EFFE3BF2E3ACFEBED8E2EEFE069
:100A90009E2EE9ECAE2EEFEBBE2E31CFCB01AA2776
:100AA00097FDA095BA2FF101868F978FA0A3B1A3D0
:100AB000138A128A808E918EA28EB38E81E090E08E
:100AC000958F848F83E090E09183808380E090E035
:100AD000DF91CF911F910F91FF90EF90DF90CF901A
:100AE000BF90AF909F908F907F906F905F904F904E
:100AF0003F902F900895CF92DF92EF92FF92CF9385
:100B0000DF93EC016A017B0122E93AE046E050E420
:100B1000C701B6010E9492221816DCF0219781E4E9
:100B20008C9FF0018D9FF00D1124EC58FC4FC0A656
:100B3000D1A6E2A6F3A683E090E0918380838FEFB5
:100B40009FEFDC01868F978FA0A3B1A320E030E058
:100B500002C021E030E0C901DF91CF91FF90EF901A
:100B6000DF90CF900895CF939B018430910519F4C5
:100B70003195219531092138310564F420384FEF42
:100B800034071CF037FD03C007C020E83FEFC22F39
:100B9000C19503C020E830E0C22FAC01415051099B
:100BA00061E4649FF001659FF00D1124EC58FC4F47
:100BB000C5A38230910521F124F4019709F06AC0A0
:100BC00007C083309105A1F1049709F063C048C0C4
:100BD000121613061CF461E084E00EC060E084E0AD
:100BE000232B51F00E94ED1C61E08DE00E94ED1C72
:100BF0006C2F70E08BE04BC00E94ED1C60E0F5CFE5
:100C0000121613061CF461E085E008C060E085E080
:100C1000232B21F00E94ED1C61E003C00E94ED1C1B
:100C200060E082E00E94ED1C6C2F70E083E02FC03A
:100C3000121613061CF461E087E008C060E087E04C
:100C4000232B21F00E94ED1C61E003C00E94ED1CEB
:100C500060E086E00E94ED1C6C2F70E089E017C018
:100C6000121613061CF461E088E008C060E088E01A
:100C7000232B21F00E94ED1C61E003C00E94ED1CBB
:100C800060E08CE00E94ED1C6C2F70E08AE0CF9158
:100C90000C94451DCF9108951F93CF93DF93C0E02F
:100CA000D0E011E41C9FF0011D9FF00D1124EC58C1
:100CB000FC4F11821082219660E070E0CE010E940C
:100CC000B305C430D10571F780E090E0DF91CF919A
:100CD0001F9108959C01255031092230310530F0D3
:100CE0008930910519F08A30910569F560347105F4
:100CF000A1F044F46130710571F06830710509F0BC
:100D000054C011C0611581E0780749F06115744045
:100D100009F04BC006C081E007C083E005C084E055
:100D200003C085E001C082E02230310528F495B58A
:100D3000987F982B95BD089590918100987F982B6E
:100D40009093810008958330910511F00B9769F518
:100D500060347105D9F054F468307105F9F06032EF
:100D6000710591F06130710501F50CC0611581E0EC
:100D7000780781F0611584E0780771F060387105BB
:100D8000A1F406C081E00BC083E009C084E007C085
:100D900085E005C086E003C087E001C082E0909155
:100DA000B100987F982B9093B10008950E94241D64
:100DB000BC01882777FD8095982F0E94A92120E00B
:100DC00030E040EA50E40E94962220E030E040E823
:100DD0005AE30E9496220895CF93DF93CAE0D0E0B1
:100DE00061E08EE00E94ED1C64E670E080E090E03F
:100DF0000E942C1E60E08EE00E94ED1C64E670E014
:100E000080E090E00E942C1E219751F7DF91CF9156
:100E1000089580918304882329F10E94F01D209178
:100E20007F043091800440918104509182040E949B
:100E3000432320FF11C061E08EE00E94ED1C8091F1
:100E40002802811105C0809183048150809383041E
:100E500081E080932802089560E08EE00E94ED1CFE
:100E6000109228020895CF93DF93C3E0D0E060E0B2
:100E70008EE00E94ED1C64E670E080E090E00E944D
:100E80002C1E61E08EE00E94ED1C64E670E080E0C4
:100E900090E00E942C1E219751F7DF91CF91089589
:100EA0000F931F93CF93DF930BC02BED3FE049ECE3
:100EB00050E4FE01602F712F8F2F9C2F0E94A320E2
:100EC0008B01D82FC92F2BED3FE049E450ECFE01F8
:100ED000712F8F2F9E2F0E94072187FDE6CF0EC016
:100EE0002BED3FE049EC50E4FE01602F712F8F2F76
:100EF0009C2F0E94A2208B01D82FC92F2BED3FE001
:100F000049E450E4FE01602F712F8F2F9C2F0E9427
:100F1000922218162CF39E01602F712F832F9C2F85
:100F2000DF91CF911F910F9108952F923F924F9291
:100F30005F926F927F928F929F92AF92BF92CF9269
:100F4000DF92EF92FF920F931F93CF93DF931C01D9
:100F50008091240290912502892B09F09CC085E0A4
:100F600090E00E94D60620E030E040E250E40E948B
:100F7000A2208B01D82FC92FAB01682F792F4A01EE
:100F80005B0186E090E00E94D60620E030E040E27F
:100F900050E40E94A220462F572F682F792F2A0154
:100FA0003B0120E030E0A901B8018D2F9C2F0E9469
:100FB000072187FF04C0B7FAB094B7F8B09420E0D7
:100FC00030E0A901C301B2010E94072187FF04C0DC
:100FD00077FA709477F87094A3019201C501B40177
:100FE0000E94072187FF03C081E090E002C082E0F9
:100FF00090E0909325028093240281E090E00E948B
:10100000D60620E030E040E250E40E94A2208B01AE
:10101000D82FC92FAB01682F792F4A015B0182E0DD
:1010200090E00E94D60620E030E040E250E40E94CA
:10103000A220462F572F682F792F2A013B0120E04D
:1010400030E0A901B8018D2F9C2F0E94072187FF56
:1010500004C0B7FAB094B7F8B09420E030E0A9012A
:10106000C301B2010E94072187FF04C077FA709480
:1010700077F87094A3019201C501B4010E94072181
:1010800087FF03C081E090E002C082E090E090938F
:1010900027028093260282E02816310409F4DBC07F
:1010A0002CF42A94232809F004C20BC083E02816EC
:1010B000310409F4FBC084E02816310409F0F9C1B9
:1010C00020C185E090E00E94D6064B015C0186E0DD
:1010D00090E00E94D6066B017C0120E030E040E207
:1010E00050E4C501B4010E94A2208B01D82FC92F62
:1010F00020E030E040E250E4C701B6010E94A220A7
:101100006B017C018091240290912502019769F581
:1011100020E030E0A901FE01602F712F8F2F9E2F5C
:101120000E94072187FF0EC020E030E040E050EC35
:10113000FE01602F712F8F2F9E2F0E94072187FFA6
:1011400014C00DC020E030E040E050E4FE01602F0C
:10115000712F8F2F9E2F0E949222181634F482E056
:1011600090E0909325028093240280912402909134
:101170002502029751F520E030E0A9016C2D7D2D6C
:101180008E2D9F2D0E94072187FF0DC020E030E0AB
:1011900040E050EC6C2D7D2D8E2D9F2D0E9407215F
:1011A00087FF13C00CC020E030E040E050E46C2D1D
:1011B0007D2D8E2D9F2D0E949222181634F481E0F1
:1011C00090E09093250280932402809124029091D4
:1011D000250220E030E04AEA53E4029799F46C2DAE
:1011E0007D2D8E2D9F2D0E94962220E030E040EA3A
:1011F00050E40E940E2120E030E044E353E40E94DA
:10120000A3200DC0FE01602F712F8F2F9C2F0E94F5
:10121000962220E030E040EA50E40E940E21462F62
:10122000572F682F792FCB01BA0190582BED3FE053
:1012300049E450E40E94962220E030E044E353E485
:101240000E940E212091A6033091A7034091A8038C
:101250005091A90318C184E090E00E94D60620E0D6
:1012600030E040E250E40E94A22020E030E04AEA70
:1012700053E40E94962220E030E040EA50E40E94CD
:101280000E212BED3FE049E450E40E94962220E03D
:1012900030E044E353E40E940E212091E7033091B3
:1012A000E8034091E9035091EA03EDC083E090E048
:1012B0000E94D60620E030E040E250E40E94A220E6
:1012C00020E030E04AEA53E40E94962220E030E039
:1012D00040EA50E40E940E212BED3FE049E450E447
:1012E0000E94962220E030E044E353E40E940E2165
:1012F000209128043091290440912A0450912B0414
:10130000C2C081E090E00E94D6064B015C0182E001
:1013100090E00E94D6066B017C0120E030E040E2C4
:1013200050E4C501B4010E94A2208B01D82FC92F1F
:1013300020E030E040E250E4C701B6010E94A22064
:101340006B017C018091260290912702019769F53B
:1013500020E030E0A901FE01602F712F8F2F9E2F1A
:101360000E94072187FF0EC020E030E040E050ECF3
:10137000FE01602F712F8F2F9E2F0E94072187FF64
:1013800014C00DC020E030E040E050E4FE01602FCA
:10139000712F8F2F9E2F0E949222181634F482E014
:1013A00090E09093270280932602809126029091EC
:1013B0002702029751F520E030E0A9016C2D7D2D28
:1013C0008E2D9F2D0E94072187FF0DC020E030E069
:1013D00040E050EC6C2D7D2D8E2D9F2D0E9407211D
:1013E00087FF13C00CC020E030E040E050E46C2DDB
:1013F0007D2D8E2D9F2D0E949222181634F481E0AF
:1014000090E090932702809326028091260290918B
:10141000270220E030E04AEA53E4029799F46C2D69
:101420007D2D8E2D9F2D0E94962220E030E040EAF7
:1014300050E40E940E2120E030E044E353E40E9497
:10144000A3200DC0FE01602F712F8F2F9C2F0E94B3
:10145000962220E030E040EA50E40E940E212BED7D
:101460003FE049E450E40E94962220E030E044E36B
:1014700053E40E940E212091690430916A04409146
:101480006B0450916C040E94A320DF91CF911F91B7
:101490000F91FF90EF90DF90CF90BF90AF909F9013
:1014A0008F907F906F905F904F903F902F900C9413
:1014B00050070E94EC0650E040E030E82FEB652F2B
:1014C000742F832F922FDF91CF911F910F91FF9057
:1014D000EF90DF90CF90BF90AF909F908F907F90D4
:1014E0006F905F904F903F902F9008950F931F93B0
:1014F000CF93DF938C01EB0160E185E994E00E94DA
:10150000F01E6C2F6D5F85E994E00E94F01E1C16A2
:101510001D0634F4AE01B80185E994E00E946D2007
:1015200061E185E994E00E94F01E80E090E0DF91A7
:10153000CF911F910F9108950F931F93CF93DF9336
:101540008C019C012150310981E4829FE001839F3D
:10155000D00D1124CC58DC4F8E899F8981309105A4
:1015600021F520E030E0A90168A579A58AA59BA511
:101570000E940721882309F47BC083E090E09983CF
:1015800088838FEF9FEFDC018E8F9F8FA8A3B9A375
:101590004CA55DA56EA57FA54A835B836C837D8387
:1015A00048A559A56AA57BA527C08230910559F5A4
:1015B00020E030E0A90168A579A58AA59BA50E9435
:1015C0000721882309F454C083E090E0998388833D
:1015D0004FEF5FEFBA014E8F5F8F68A379A34CA5E1
:1015E0005DA56EA57FA54A835B836C837D8348A53B
:1015F00059A56AA57BA57058C801DF91CF911F91AD
:101600000F910C947B05009759F41982188260E0C1
:1016100070E0C801DF91CF911F910F910C94B30539
:10162000039731F5888199818230910539F48A894F
:101630009B89892B51F01D8A1C8A1AC0039729F4B3
:101640004A815B816C817D810CC081E4829FF001C5
:10165000839FF00D1124EC58FC4F44A555A566A5B9
:1016600077A5C801DF91CF911F910F910C941001C4
:10167000DF91CF911F910F9108952F923F924F923A
:101680005F926F927F928F929F92AF92BF92CF9212
:10169000DF92EF92FF920F931F93CF93DF93CDB71B
:1016A000DEB7A2970FB6F894DEBF0FBECDBF8AE9B2
:1016B00093E09C838B83A4E7B3E0BAA3A9A3E9E9F1
:1016C000F3E0FE8BED8B80EA93E09E838D83A2E1B5
:1016D000B1E0BA87A987E8E9F3E0F88BEF878AEAF7
:1016E00093E09A838983A6E9B3E0BC87AB87EBEAF2
:1016F000F3E0F88FEF8B8CE993E09E878D87A4EA67
:10170000B3E0B887AF8322242394312C88248A94B1
:10171000982C5401ED89FE898081AB81BC816D914B
:101720007C91680F711D882777FD8095982F0E9406
:10173000A92120E030E042E553E40E94A2200E946B
:10174000762177FD05C0EB81FC817183608304C045
:10175000AB81BC811D921C92EB81FC816081718107
:10176000882777FD8095982F0E94A92120E034E1F9
:101770004DEC58E40E94922218160CF49EC1C1014F
:101780000E9495076B017C01AD81BE816D937D93B5
:101790008D939C93139720E030E040E450EC0E943E
:1017A000072187FF15C020E030E040E450E4E985E0
:1017B000FA8560817181828193810E94922218163C
:1017C0003CF4AF81B8858D919C91119701961EC014
:1017D00020E030E040E450E4C701B6010E949222CC
:1017E0001816B4F420E030E040E450ECE985FA85C6
:1017F00060817181828193810E94072187FF08C0E7
:10180000AF81B8858D919C91119701978D939C9391
:10181000ED81FE8180819181A281B381E985FA8584
:1018200080839183A283B383A9A1BAA18D919C9156
:101830008230910509F42CC134F4009761F00197CE
:1018400009F02CC339C08330910509F4CEC1049747
:1018500009F024C34BC0E9A1FAA1868D978DA0A100
:10186000B1A1892B8A2B8B2B79F4AB85BC858D910B
:101870009C91978B868BC1010E949C0AE9A1FAA1D9
:10188000868E978EA0A2B1A2A9A1BAA15E964D9113
:101890005D916D917C9191971416150616061706A9
:1018A0000CF0FCC24150510961097109FD01468FDC
:1018B000578F60A371A3F2C2A9A1BAA156968D91C8
:1018C0009C915797009719F41D921C92E7C20197BB
:1018D00029F4EF85F889608170E0F1C0AF85B8899F
:1018E0006C9170E0719561957109E9C06091600239
:1018F0007091610280916202909163020E94A7211F
:1019000020E030E04AE754E40E940E216D8F7E8F84
:101910008F8F98A3EF89F88D6081772767FD709589
:10192000872F972F0E94A92120E030E040E05CE360
:101930000E94962220E030E040EA50E40E94962285
:1019400020E030E040E05FE30E9496228B013C0102
:1019500044244394512C89A19AA1840D951D9A8BFE
:10196000898BB201882777FD8095982F0E94A92145
:101970002BED3FE049EC50E40E949622BD8DAE8DE8
:10198000EF8DF8A02B2F3A2F4E2F5F2D0E9496221D
:1019900020E030E040E251E40E940E216B017C0126
:1019A0007D2D9F2D0E94F922698F7A8F8B8F9C8FBE
:1019B000A989BA89D7966C91772767FD7095872F8B
:1019C000972F0E94A92120E030E040E05CE30E94D4
:1019D000962220E030E040EA50E40E949622298DD1
:1019E0003A8D4B8D5C8D0E9496229B01AC01602F3D
:1019F000712F862D972D0E94A3208B013C016C2D09
:101A00007D2D8E2D9F2D0E940B216B017C01E9897C
:101A1000FA8964AD772767FD7095872F972F0E940D
:101A2000A92120E030E040E05CE30E94962220E023
:101A300030E040EA50E40E949622A70196010E94FD
:101A400096229B01AC01602F712F862D972D0E944D
:101A5000A3208B013C01FFEF4F1A5F0A85E0481677
:101A6000510409F078CF402F512F662D772DA9A171
:101A7000BAA112964D935D936D937C9315975396EF
:101A80001C921E925297FD01868E978EA0A2B1A243
:101A9000A9A1BAA15E964D915D916D917C919197AE
:101AA0004115510561057105A9F452968D919C91DE
:101AB0005397892B41F41D921C9260E070E0C101A4
:101AC0000E94B305EBC1E9A1FAA1868E978EA0A270
:101AD000B1A2E4C1141615061606170664F44150A7
:101AE000510961097109A9A1BAA15E964D935D934F
:101AF0006D937C939197ED81FE81208131814281AC
:101B00005381A9A1BAA112966D917D918D919C915D
:101B100015970E94A2200E9450076B017C0120E0D3
:101B200030E0A9010E94072187FF0BC025E33AEFAF
:101B30004EE05DEBC701B6010E94922218165CF0E0
:101B40001DC025E33AEF4EE05DE3C701B6010E94F8
:101B5000072187FF13C081E090E0E9A1FAA1938BF0
:101B6000828B84899589892B09F039C0A9A1BAA1F2
:101B70005E968D929D92AD92BC929197E9A1FAA149
:101B800082899389892B71F120E030E0A901C70196
:101B9000B6010E94072187FF04C0C701B601905813
:101BA00002C0C701B60120917804309179044091B8
:101BB0007A0450917B040E94922218169CF4A98109
:101BC000BA812C912F5F2C9330E080917C0490910E
:101BD0007D048217930708F020C1E9A1FAA11182C0
:101BE00010826BCFA981BA8117C1E9A1FAA1468DF4
:101BF000578D60A171A1411551056105710509F06D
:101C000045C081E090E0938B828BDF0116861786BA
:101C1000108A118AEB85FC851182108282E090E0A7
:101C200011969C938E935C968D919C915D97892BD8
:101C300059F0FD01808D918DA28DB38D82839383A8
:101C4000A483B583158E148EEFEFFFEFAB85BC85B3
:101C5000ED93FC93A9A1BAA154968D919C915597AF
:101C6000892B59F088EC90E0A0E0B0E0E9A1FAA15E
:101C7000868F978FA0A3B1A311C1A9A1BAA15E9627
:101C80008D929D92AD92BC92919708C11416150643
:101C90001606170654F44150510961097109E9A16A
:101CA000FAA1468F578F60A371A32AE037ED43EA6C
:101CB0005BE3AD85BE856D917D918D919C910E9478
:101CC0009622E9A1FAA122813381448155810E94A3
:101CD000A320FB01462F5F2F682F792FA9A1BAA15E
:101CE00012964D935D936D937C93159791012250BD
:101CF00031092230310508F047C02BED3FE049ECB7
:101D00005FEBBF010E94072187FF17C020E030E092
:101D1000A901ED85FE8560817181828193810E9498
:101D2000072187FF0AC08BED9FE0A9ECBFEBE9A17B
:101D3000FAA182839383A483B5832BED3FE049EC22
:101D40005FE3A9A1BAA112966D917D918D919C91AD
:101D500015970E9492221816BCF420E030E0A901E9
:101D6000ED85FE8560817181828193810E9492223E
:101D7000181654F48BED9FE0A9ECBFE3E9A1FAA19A
:101D800082839383A483B583AD81BE812D913D91E0
:101D90004D915C91E9A1FAA1628173818481958161
:101DA0000E94A2200E9450076B017C0120E030E0DD
:101DB000A9010E9407212601370187FF04C077FA95
:101DC000709477F8709460917804709179048091A0
:101DD0007A0490917B049B01AC010E94A3209B019B
:101DE000AC01C301B2010E949222A981BA811816E6
:101DF0009CF42C912F5F2C9330E080917C04909187
:101E00007D048217930708F049C0E9A1FAA1118265
:101E10001082158E148E51CE1C92E9A1FAA1268152
:101E2000378140855185C701B6010E9496222B015A
:101E30003C01A9A1BAA11E962D913D914D915C91B5
:101E400051971A966D917D918D919C911D970E944D
:101E500096229B01AC01C301B2010E94A3200E9403
:101E60007621C1010E94B3052AE037ED43EA5BE326
:101E7000C701B6010E9496229B01AC01E9A1FAA11B
:101E800066857785808991890E94A320A9A1BAA13E
:101E90001E966D937D938D939C935197BFEF2B1A54
:101EA0003B0AEB81FC81EF5BFF4FFC83EB8389A155
:101EB0009AA18F5B9F4F9AA389A3AD89BE89AF5B1F
:101EC000BF4FBE8BAD8BED81FE81EF5BFF4FFE837D
:101ED000ED8389859A8504969A878987AF85B88925
:101EE000AF5BBF4FB88BAF87E981FA81EF5BFF4FE4
:101EF000FA83E9838B859C858F5B9F4F9C878B87BB
:101F0000AF89B88DAF5BBF4FB88FAF8BED85FE85C6
:101F1000EF5BFF4FFE87ED878F8198858F5B9F4F2B
:101F200098878F8395E02916310409F0F3CBA296A8
:101F30000FB6F894DEBF0FBECDBFDF91CF911F91DA
:101F40000F91FF90EF90DF90CF90BF90AF909F9058
:101F50008F907F906F905F904F903F902F9008955B
:101F60007F928F929F92AF92BF92CF92DF92EF9229
:101F7000FF920F931F93CF93DF9300D000D0CDB784
:101F8000DEB760E170E08BE894E00E94841C813A47
:101F900069F5A12CB12C00E010E041E4942E909E54
:101FA0006001919ED00C112486EA93E0C80ED91EE0
:101FB000E12CF12CB7016A0D7B1D8BE894E00E94A7
:101FC000841CF60181936F01FFEFEF1AFF0A84E092
:101FD000E816F10479F70F5F1F4F94E0A90EB11CCA
:101FE00004301105E1F620E030E077C036EAA32E98
:101FF00033E0B32E812C912C01E010E0C8010E9447
:1020000095076B017C01C8010297029760F520E0FB
:1020100030E0A901C701B6010E94072187FF0DC06A
:1020200020E030E04CE852ECC701B6010E940721E5
:10203000782E771C7724771C0DC07724739420E0CA
:1020400030E04CE852E4C701B6010E949222181613
:102050000CF0712CC982DA82EB82FC82772019F0B5
:102060000E94EC06FDCFF7FAF094F7F8F094C982DD
:10207000DA82EB82FC82F501C082D182E282F382B5
:10208000CC24C394D12CCC0EDD1EE12CF12CF60116
:1020900041916F01B701680D791D8BE894E00E94B2
:1020A000871CFFEFEF1AFF0A84E0E816F10479F7C6
:1020B0000F5F1F4F94E0890E911CE1E4AE0EB11C3E
:1020C0000530110509F09ACF41EA60E170E08BE834
:1020D00094E00E94871C21E030E0C9010F900F902E
:1020E0000F900F90DF91CF911F910F91FF90EF9084
:1020F000DF90CF90BF90AF909F908F907F9008958A
:102100001092A6031092A7031092A8031092A9039D
:102110001092E7031092E8031092E9031092EA0389
:10212000109228041092290410922A0410922B0471
:102130001092690410926A0410926B0410926C045D
:1021400040EA60E170E08BE894E00E94871C0E9406
:10215000B00F80E090E00895AF92BF92CF92DF92EF
:10216000EF92FF920F931F93CF93DF93809184049C
:10217000882309F4D7C03091860420918504321752
:1021800080F010928604EAE6F2E080E090E030E031
:1021900004C0118210820196B29682179307CCF385
:1021A000C1C082E2389FE0011124CC59DD4F10926A
:1021B000520210925102088119810130110539F043
:1021C0000230110509F45EC0012B51F1ABC08E81C4
:1021D0009F81892B41F40E94F01D6A837B838C834D
:1021E0009D831F830E830E94F01D28853985690118
:1021F000EE24D7FCE094FE2C0A811B812C813D81CA
:10220000C00ED11EE21EF31EC616D706E806F9065A
:1022100008F088C0809186048F5F8093860482C016
:102220008E819F81892B71F0E6E8F3E080819181B6
:10223000892B09F477C0EF5BFF4F84E0EA38F80799
:10224000A9F76DC00E94F01D6A837B838C839D83F8
:102250006E01E12CF12CEFEFEE1AFE0AF601428539
:1022600053856485758502E91AE026E83FE3C701D6
:102270000E942F04F4E0CF0ED11C84E0E816F10494
:1022800051F748C08E819F81892B61F10E94F01D1A
:10229000288539856901EE24D7FCE094FE2C0A815B
:1022A0001B812C813D81C00ED11EE21EF31EC6167D
:1022B000D706E806F906B0F5809186048F5F809313
:1022C000860410927503109274031092B603109254
:1022D000B5031092F7031092F6031092380410928F
:1022E000370420C00E94F01D6A837B838C839D830A
:1022F000AE88BF88C88CD98CEA88FB880C891D8978
:102300002E853F85488959896A857B858C859D8581
:102310000E94BE0081E090E09F838E8303C03F5FF8
:1023200030938604DF91CF911F910F91FF90EF9032
:10233000DF90CF90BF90AF9008958F929F92AF9211
:10234000BF92CF92DF92EF92FF920F931F93CF93A2
:10235000DF93CDB7DEB7FC0111821082178216829F
:10236000118610864287538764877587068717878B
:10237000208B318BC28AD38AE48AF58A868A978A2F
:10238000A08EB18EDF91CF911F910F91FF90EF90B2
:10239000DF90CF90BF90AF909F908F900895CF9394
:1023A000DF93CDB7DEB78091850492E2899FD0019B
:1023B0001124AC59BD4F92E2FE01359601900D9269
:1023C0009A95E1F78F5F80938504DF91CF9108950F
:1023D000019721E4289FF001299FF00D1124EC586A
:1023E000FC4F208131812230310539F02330310515
:1023F00051F021303105D9F406C082899389892BA7
:10240000C1F083E0089521E4289FF001299FF00D99
:102410001124EC58FC4F20E030E0A90160A571A523
:1024200082A593A50E94922218162CF402C080E087
:10243000089581E0089582E008952F923F924F928F
:102440005F926F927F928F929F92AF92BF92CF9244
:10245000DF92EF92FF920F931F93CF93DF9300D001
:1024600000D0CDB7DEB79C838B83680F791FFB014B
:1024700031978081882391F06FEF85E994E00E9485
:10248000F01E63E085E994E00E94F01E61E185E9B9
:1024900094E00E94F01E2FEF3FEF95C4AB81BC810A
:1024A0008C91823459F038F48233E0F0863330F086
:1024B0008E33C1F403C084548330A0F4EB81FC81DB
:1024C0008281843078F06FEF85E994E00E94F01EFD
:1024D00063E085E994E00E94F01E61E185E994E003
:1024E0000E94F01EAB81BC814C9150E0FA01F09744
:1024F000E832F10508F056C4EC5CFF4F0C948123E0
:102500001092A5031092A4031092E6031092E50323
:102510001092270410922604109268041092670407
:102520004AC3AB81BC811296EC91B1E4EB9FF00100
:102530001124EC58FC4FAB81BC8113968C911397FE
:10254000868B178A12968C9190E001960E949C0AC5
:1025500032C3AB81BC811296EC91B1E4EB9FF001E8
:102560001124EC58FC4F868918C3EB81FC81C38091
:10257000D480E580F68022E93AE046E050E4C701E5
:10258000B6010E94922218165CF022E93AE046E079
:1025900050ECC701B6010E94072187FD0AC011C097
:1025A00022E9C22E2AE0D22E26E0E22E20E4F22EEC
:1025B00008C092E9C92E9AE0D92E96E0E92E90EC57
:1025C000F92EAB81BC811296EC91B1E4EB9FF00146
:1025D0001124EC58FC4F86899789029721F4F7FA69
:1025E000F094F7F8F094C0A6D1A6E2A6F3A6E3C251
:1025F000AB81BC811296EC91B1E4EB9FF001112408
:10260000EC58FC4F80A591A5A2A5B3A5EDC1CB8048
:10261000DC80E2E0CE0ED11C8CE9A82E83E0B82E3F
:10262000E12CF12CFFEFEF1AFF0AD5010D911D915E
:102630002D913C91F60141915191619171916F0100
:10264000C7010E946601F1E4AF0EB11C24E0E2165E
:10265000F10441F7B0C2CB80DC8082E0C80ED11C0F
:102660000CE9A02E03E0B02EE12CF12C9FEFE91A2B
:10267000F90AD5010D911D912D913C91F6014191E1
:102680005191619171916F01C7010E94B802F1E40B
:10269000AF0EB11C24E0E216F10441F78CC2CB80EE
:1026A000DC8082E0C80ED11C1CE9A12E13E0B12E03
:1026B000E12CF12C9FEFE91AF90AD5010D911D913A
:1026C0002D913C91F60141915191619171916F0170
:1026D000C7010E942F04F1E4AF0EB11C24E0E21602
:1026E000F10441F768C2EB80FC8082E0E80EF11C47
:1026F00000E010E00F5F1F4FD7014D915D916D918C
:102700007D917D01C8010E9410010430110591F7EF
:1027100052C28091A0039091A103A091A203B09115
:10272000A3038093290290932A02A0932B02B093D3
:102730002C028091E1039091E203A091E303B09118
:10274000E40380932D0290932E02A0932F02B09366
:1027500030028091220490912304A0912404B0912E
:1027600025048093310290933202A0933302B093F8
:1027700034028091630490916404A0916504B09147
:1027800066048093350290933602A0933702B0938B
:10279000380260E170E0C0C2B0EACB2EB3E0DB2EBD
:1027A000E12CF12C8701075D1D4FF60164817581D5
:1027B000882777FD8095982F0E94A9212BED3FE077
:1027C00049EC50E40E9496229B01AC01D6016D9128
:1027D0007D918D919C910E94A320F801608371836B
:1027E00082839383F1E4CF0ED11C24E0E20EF11C2E
:1027F00080E1E816F104B1F6CCCF0E94F01D6093A1
:10280000290270932A0280932B0290932C028091CC
:10281000A0039091A103A091A203B091A303809380
:102820002D0290932E02A0932F02B093300280913C
:10283000E1039091E203A091E303B091E40380935C
:10284000310290933202A0933302B093340280910C
:10285000220490912304A0912404B0912504809334
:10286000350290933602A0933702B09338028091DC
:10287000630490916404A0916504B0916604809310
:10288000390290933A02A0933B02B0933C0264E178
:1028900070E042C20E94F01D6093290270932A02E8
:1028A00080932B0290932C02A0EACA2EA3E0DA2E8A
:1028B00004E010E0F9E2EF2EF2E0FF2EE00EF11E50
:1028C000D60114966D917C911597882777FD809598
:1028D000982F0E94A9212BED3FE049EC50E40E9483
:1028E00096229B01AC01F601608171818281938106
:1028F0000E94A320D7016D937D938D939C93139792
:10290000B1E4CB0ED11C0C5F1F4F0431110591F6C1
:10291000BECFAB81BC811296EC918E2F90E0B1E4DA
:10292000EB9FF0011124EC58FC4F00A511A522A546
:1029300033A5EB81FC8143815481658176810196C9
:102940000E94660138C1AB81BC811296EC918E2F3A
:1029500090E0B1E4EB9FF0011124EC58FC4F00A58E
:1029600011A522A533A5EB81FC81438154816581AA
:10297000768101960E94B8021EC1AB81BC8112967D
:10298000EC918E2F90E0B1E4EB9FF0011124EC5814
:10299000FC4F00A511A522A533A5EB81FC81438145
:1029A00054816581768101960E942F0404C1AB8118
:1029B000BC8113964D915D916D917C911697129605
:1029C0008C9190E001960E941001F5C0AB81BC8112
:1029D0001296EC91B1E4EB9FF0011124EC58FC4FFE
:1029E00084A595A5A6A5B7A58093290290932A0250
:1029F000A0932B02B0932C0293C0EB81FC81028147
:102A0000F1E40F9F800111240C581C4FD801D0967F
:102A10006D917C91D197882777FD8095982F0E94A2
:102A2000A9212BED3FE049EC50E40E9496229B0146
:102A3000AC01F80164A575A586A597A50E94A32001
:102A400067C00E94F01D6093290270932A02809350
:102A50002B0290932C02AB81BC811296EC91B1E4D5
:102A6000EB9FF0011124EC58FC4F84A595A5A6A579
:102A7000B7A580932D0290932E02A0932F02B093BE
:102A8000300268E070E048C1EB81FC81828190E017
:102A900001960E94E81181C082E99AE0A6E0B0E4C4
:102AA000A3CFAB81BC8112968C9190E00E94D60698
:102AB0002FC00E942E172CC0809178049091790429
:102AC000A0917A04B0917B048FCFEB81FC8182814D
:102AD0009381A481B5818093780490937904A09325
:102AE0007A04B0937B0467C080917C0490917D044C
:102AF00025E0289FB001299F700D112480E090E00F
:102B00000E94A72120E030E04AE754E40E940E2111
:102B10006093290270932A0280932B0290932C02D7
:102B200064E070E0F9C020E030E04AE754E4AB81B3
:102B3000BC8112966D917D918D919C9115970E940B
:102B4000962220E030E040EA50E40E940E210E94EC
:102B50007B2170937D0460937C042DC00E944C0601
:102B60002AC08EE31AC0EB81FC81428153816481CB
:102B7000758140937F045093800460938104709327
:102B8000820486818093830416C0AB81BC81129637
:102B90008C9180937E040FC083E08093290261E0D2
:102BA00070E0BAC0EB81FC81428161E170E08BE8AA
:102BB00094E00E94871C60E070E080E090E0AEC08E
:102BC0000AE813E08B819C8105969A838983212CE6
:102BD000312CE5E08E2E912CA12CB12C44244A946A
:102BE000542C3201AB81BC8112968C9190E0022C66
:102BF00002C0959587950A94E2F780FF30C0E9817D
:102C0000FA8132978081F80180831182E981FA810B
:102C100031978081D8011C968C931C971D961C922D
:102C2000E981FA81C080D180E280F380C101019600
:102C30000E949C0AF7FE08C0D80118964D925D923A
:102C40006D927C921B970BC0C701B601A501940140
:102C50000E946523F8012087318742875387FFEF61
:102C60002F1A3F0A0F5B1F4F89819A8106969A831C
:102C7000898394E02916310409F0B4CF9CCF0E94D7
:102C8000F01D6093290270932A0280932B02909387
:102C90002C0260EA862E63E0962E7DE3C72E72E05A
:102CA000D72E04E010E0E12CF12CAFEFEA1AFA0A7B
:102CB00059E2A52E52E0B52EA00EB11EF40164819A
:102CC0007581882777FD8095982F0E94A9212BED8B
:102CD0003FE049EC50E40E9496229B01AC01D401F4
:102CE0006D917D918D919C910E94A320F50160834F
:102CF000718382839383C7010E94E811D6018D936B
:102D00006D01B1E48B0E911C0C5F1F4FE4E0EE16D9
:102D1000F10459F668E170E089E292E00E94760AD7
:102D200050C0AB81BC81189680E090E021E4FD01A9
:102D300035973081EB81FC814281FC01249FE00DBD
:102D4000F11D1124EC58FC4F37AB3D91EB81FC8118
:102D50004281FC01249FE00DF11D1124EC58FC4F31
:102D600034AF01968530910511F725CFE4E7F3E004
:102D700080E090E044E050E0AB81BC8112962C9161
:102D800030E0082E02C0359527950A94E2F720FF1F
:102D900002C0518340830196EF5BFF4F8430910561
:102DA00059F709CF6FEF85E994E00E94F01E63E0C8
:102DB00085E994E00E94F01E61E185E994E00E94BB
:102DC000F01E20E030E0C9010F900F900F900F909F
:102DD000DF91CF911F910F91FF90EF90DF90CF90F7
:102DE000BF90AF909F908F907F906F905F904F902B
:102DF0003F902F90089585E994E00E948D1E18164B
:102E000019065CF585E994E00E94BC1E97FF05C099
:102E100010922301109222010895209122013091F5
:102E20002301F901EC5DFE4F8083C9010196909367
:102E300023018093220182309105ECF260912501FB
:102E400070E068177907B9F684E291E00E941D12DC
:102E50001092230110922201CECF089587E00E94A4
:102E6000241DBC01882777FD8095982F0E94A921F9
:102E700020E030E040E85AE30E94962220E030E073
:102E800040EA50E40E94962208950E942E1720E006
:102E900030E040EA50E40E94A22020E030E0A901A6
:102EA0000E94072187FF11C00E942E1720E030E00A
:102EB00040EA50E40E94A2202DEC3CEC4CEC5DEB8F
:102EC0000E94922218168CF012C00E942E1720E049
:102ED00030E040EA50E40E94A2202DEC3CEC4CECA7
:102EE0005DE30E94072187FF02C080E008950E94F1
:102EF0002E1720E030E040E250E40E94A22020E0C3
:102F000030E0A9010E94072187FF12C00E942E17FE
:102F100020E030E040E250E40E94A2202DEC3CECA6
:102F20004CEC5DEB0E94922218160CF474C010C099
:102F30000E942E1720E030E040E250E40E94A220E0
:102F40002DEC3CEC4CEC5DE30E94072187FD63C057
:102F50000E942E172DE33AE047E550E40E94A2209C
:102F600020E030E0A9010E94072187FF12C00E94E3
:102F70002E172DE33AE047E550E40E94A2202DEC05
:102F80003CEC4CEC5DEB0E94922218160CF445C010
:102F900010C00E942E172DE33AE047E550E40E944E
:102FA000A2202DEC3CEC4CEC5DE30E94072187FD58
:102FB00034C00E942E1727ED33EA40E050E40E940F
:102FC000A22020E030E0A9010E94072187FF11C064
:102FD0000E942E1727ED33EA40E050E40E94A22021
:102FE0002DEC3CEC4CEC5DEB0E94922218168CF020
:102FF0007CCF0E942E1727ED33EA40E050E40E9478
:10300000A2202DEC3CEC4CEC5DE30E94072187FFF5
:103010006CCF83E0089581E0089582E008953F92A7
:103020004F925F926F927F928F929F92AF92BF92D8
:10303000CF92DF92EF92FF920F931F93CF93DF9384
:10304000CDB7DEB7CA51D1400FB6F894DEBF0FBE80
:10305000CDBF0E944517382E1091530218270E94A9
:10306000F01D2B013C01112309F484C2809154020C
:1030700090915502A0915602B0915702A30192017E
:10308000281B390B4A0B5B0BDA01C901893E9340BF
:10309000A105B10508F46EC280917E04882309F46D
:1030A0003FC080E2CF5EDE4F8883C151D1408AE0CD
:1030B000CE5EDE4F8883C251D1404092580250927A
:1030C000590260925A0270925B02CD5EDE4F4882D6
:1030D00059826A827B82C351D140C95EDE4F188318
:1030E000C751D140812F8321C85EDE4F8883C851EC
:1030F000D140832D80958123C75EDE4F8883C951DF
:10310000D140C65EDE4F1882CA51D1404AE050E03D
:10311000BE016F5E7E4F85E994E00E946D2022C261
:10312000812F8321B9F084E690E0A0E0B0E08093A5
:103130007F0490938004A0938104B093820483E081
:103140008093830440925C0250925D0260925E0222
:1031500070925F02832D8095812309F403C20E943F
:10316000330720915302213009F098C180915C020D
:1031700090915D02A0915E02B0915F02B301A20145
:10318000481B590B6A0B7B0BDB01CA01893B9B4037
:10319000A105B10508F4DEC11092860410928504E1
:1031A0002093840401E010E04BED5FE069EC7FE3E5
:1031B000C8010E947B050F5F1F4F05301105A1F765
:1031C0002BED822E2FE0922E29ECA22E2FE3B22E91
:1031D0007501640195018401B501A401CE018151FD
:1031E0009F4F0E949D116DB77EB7625271090FB655
:1031F000F8947EBF0FBE6DBFADB7BEB7119682E229
:10320000FE01E151FF4F01900D928A95E1F70E9476
:10321000CF110FB6F894DEBF0FBECDBF3BED832EAE
:103220003FE0932E39E4A32E30E4B32EC12CD12CF1
:10323000760197018601B501A401CE0183539F4F0A
:103240000E949D11ADB7BEB792970FB6F894BEBF5E
:103250000FBEADBF119682E2FE01E353FF4F019016
:103260000D928A95E1F70E94CF110FB6F894DEBF58
:103270000FBECDBF44EE842E4BEC942E46E9A42E17
:1032800040E4B42E5BEDC52E5FE0D52E59ECE52E63
:103290005FEBF52E97018601B501A401CE0185559E
:1032A0009F4F0E949D112DB73EB7225231090FB694
:1032B000F8943EBF0FBE2DBFADB7BEB7119682E2E8
:1032C000FE01E555FF4F01900D928A95E1F70E94AE
:1032D000CF110FB6F894DEBF0FBECDBF812C912C5D
:1032E00054017501640195018401B501A401CE0169
:1032F00087579F4F0E949D116DB77EB7625271092B
:103300000FB6F8947EBF0FBE6DBFADB7BEB71196B6
:1033100082E2FE01E757FF4F01900D928A95E1F797
:103320000E94CF110FB6F894DEBF0FBECDBF6BED7C
:10333000862E6FE0962E69ECA62E6FEBB62E7BEDF7
:10334000C72E7FE0D72E79ECE72E7FE3F72E97018B
:103350008601B501A401CE0189599F4F0E949D119C
:10336000ADB7BEB792970FB6F894BEBF0FBEADBF54
:10337000119682E2FE01E959FF4F01900D928A9564
:10338000E1F70E94CF110FB6F894DEBF0FBECDBF9C
:10339000EBED8E2EEFE09E2EE9E4AE2EE0ECBE2E9D
:1033A000C12CD12C760197018601B501A401CE0173
:1033B0008B5B9F4F0E949D112DB73EB72252310962
:1033C0000FB6F8943EBF0FBE2DBFADB7BEB7119676
:1033D00082E2FE01EB5BFF4F01900D928A95E1F7CF
:1033E0000E94CF110FB6F894DEBF0FBECDBFF4EE32
:1033F0008F2EFBEC9F2EF6E9AF2EF0ECBF2EABED3F
:10340000CA2EAFE0DA2EA9ECEA2EAFEBFA2E970126
:103410008601B501A401CE0183960E949D116DB76E
:103420007EB7625271090FB6F8947EBF0FBE6DBFB2
:10343000ADB7BEB7119682E2FE01B39601900D9230
:103440008A95E1F70E94CF110FB6F894DEBF0FBE48
:10345000CDBF812C912C540175016401950184012B
:10346000B501A401CE0101960E949D11ADB7BEB772
:1034700092970FB6F894BEBF0FBEADBF119682E211
:10348000FE01319601900D928A95E1F70E94CF11CD
:103490000FB6F894DEBF0FBECDBF5CC0223009F47A
:1034A00059C0233009F056C040915C0250915D0232
:1034B00060915E0270915F02D301C201841B950B83
:1034C000A60BB70BAC01BD01493B5B406105710523
:1034D00018F00E9480103EC094E7E92E93E0F92E88
:1034E00001E010E080E090E0D7012D913C91232B8A
:1034F00051F060E070E0C8010E94B305F70111824D
:10350000108281E090E00F5F1F4FF1E4EF0EF11C9D
:103510000530110549F7892BE9F484EAC82E83E0C8
:10352000D82EE12CF12CD6011D921C92BFEFEB1A84
:10353000FB0A0BED1FE029EC3FE340E050E0BA014D
:10354000C7010E946601E1E4CE0ED11CF4E0EF1643
:10355000F10449F74092540250925502609256028B
:103560007092570240925C0250925D0260925E023D
:1035700070925F0280917E04811118C021E03212A6
:1035800015C00E94F01D40905C0250905D0260905A
:103590005E0270905F026419750986099709693B9C
:1035A0007B408105910510F00E9433073092530251
:1035B00080E090E0C65EDE4F0FB6F894DEBF0FBE2F
:1035C000CDBFDF91CF911F910F91FF90EF90DF90D2
:1035D000CF90BF90AF909F908F907F906F905F90B3
:1035E0004F903F900895FC01118210821282138245
:1035F0001482158240EE5EE265EE73E446835783E3
:103600006087718748E253EE6BE273E44287538729
:103610006487758716861786108A118A138A128A1C
:10362000158A148A178A168A108E118E128E138E9E
:10363000158E148E4FEF5FEFBA01468F578F60A340
:1036400071A38FEF9FEF93A382A380E884A34BED38
:103650005FE069E47FE340A751A762A773A711AABF
:1036600010AA08958F929F92AF92BF92CF92DF924D
:10367000EF92FF920F931F93CF93DF93CDB7DEB7F7
:10368000C454D1090FB6F894DEBF0FBECDBF00E021
:1036900010E031E4F32EF09EC001F19E900D112454
:1036A0008C589C4F0E94F31A0F5F1F4F0430110576
:1036B00091F761E087E00E94B51C61E088E00E941C
:1036C000B51C61E089E00E94B51C68E070E089E00B
:1036D00090E00E946A0661E086E00E94B51C61E00D
:1036E00085E00E94B51C61E08AE00E94B51C68E09C
:1036F00070E08AE090E00E946A0661E084E00E9447
:10370000B51C61E082E00E94B51C61E083E00E948C
:10371000B51C68E070E083E090E00E946A0661E01A
:103720008CE00E94B51C61E08DE00E94B51C61E058
:103730008BE00E94B51C68E070E08BE090E00E9496
:103740006A0640E051EE60E070E085E994E00E9496
:103750009D1F85E994E00E94DE1E61E08EE00E94DC
:10376000B51C0E94B00F892B09F461C01092860429
:10377000109285048BED882E8FE0982E89E4A82E78
:1037800081E4B82E9BEDC92E9FE0D92E99ECE92E4D
:103790009FE3F92E97018601B501A401CE0183961E
:1037A0000E949D118DB79EB782970FB6F8949EBF69
:1037B0000FBE8DBFADB7BEB7119682E2FE01B396C4
:1037C00001900D928A95E1F70E94CF110FB6F894FF
:1037D000DEBF0FBECDBF812C912C54012BEDC22E2C
:1037E0002FE0D22E29ECE22E2FEBF22E970186014C
:1037F000B501A401CE0101960E949D118DB79EB71F
:1038000082970FB6F8949EBF0FBE8DBFADB7BEB7FF
:10381000119682E2FE01319601900D928A95E1F7B0
:103820000E94CF110FB6F894DEBF0FBECDBF61E08E
:103830008EE00E94ED1C109284041092830480E9B3
:1038400091E090937D0480937C0483EC98EBA2E359
:10385000BEE38093780490937904A0937A04B093A4
:103860007B0410927E04CC5BDF4F0FB6F894DEBF72
:103870000FBECDBFDF91CF911F910F91FF90EF90C1
:10388000DF90CF90BF90AF909F908F900895CF9290
:10389000DF92EF92FF920F931F930E94F01D6093AF
:1038A00060027093610280936202909363020091C0
:1038B0008704109188042091890430918A046B0157
:1038C0007C01C01AD10AE20AF30A97018601053089
:1038D00011052105310570F0609387047093880409
:1038E0008093890490938A040E943D0B0E940F18D4
:1038F0000E9409070E94FB161F910F91FF90EF9005
:10390000DF90CF900C94AC10CB010C948723CB01AB
:10391000642F0C948F23833069F028F48130A1F058
:10392000823011F514C08630B1F08730C1F0843098
:10393000D9F404C0809180008F7703C0809180000B
:103940008F7D80938000089584B58F7702C084B501
:103950008F7D84BD08958091B0008F7703C08091E2
:10396000B0008F7D8093B0000895CF93DF9390E0F7
:10397000FC01E651FF4F4491FC01E250FF4F84915E
:10398000882341F190E0880F991FFC01E45EFE4F0F
:1039900025913491D9018E5E9E4FFC0185919491C1
:1039A000C82FD92F9FB7F8948C91611106C040950C
:1039B00084238C938881842308C0623041F4242FAF
:1039C000209582238C938881842B888302C0842B4A
:1039D0008C939FBFDF91CF9108950F931F93CF9347
:1039E000DF931F92CDB7DEB7282F30E0F901EA52FE
:1039F000FF4F8491F901E651FF4F1491F901E25014
:103A0000FF4F04910023D1F0882321F069830E94A5
:103A10008B1C6981E02FF0E0EE0FFF1FEE5EFE4F82
:103A200085919491DC019FB7F8948C91611103C04A
:103A30001095812301C0812B8C939FBF0F90DF9144
:103A4000CF911F910F9108958E3008F08E5087709E
:103A50002091000140E4249F90011124822B809347
:103A60007C0080917A00806480937A0080917A0053
:103A700086FDFCCF2091780030917900932F80E073
:103A8000AC01422B9A01C90108951F93CF93DF9394
:103A9000182FEB0161E00E94B51C209711F460E043
:103AA00004C0CF3FD10539F461E0812FDF91CF9180
:103AB0001F910C94ED1CE12FF0E0EA52FF4FE491CE
:103AC000E330B9F028F4E13051F0E230B1F50CC048
:103AD000E63019F1E73049F1E43079F514C084B5E6
:103AE000806884BDC7BD2EC084B5806284BDC8BD5A
:103AF00029C080918000806880938000D0938900E5
:103B0000C09388001FC080918000806280938000F5
:103B1000D0938B00C0938A0015C08091B00080685C
:103B20008093B000C093B3000DC08091B00080625C
:103B30008093B000C093B40005C0C038D1050CF02C
:103B4000B3CFADCFDF91CF911F9108951F920F9208
:103B50000FB60F9211242F933F938F939F93AF93A0
:103B6000BF9380918C0490918D04A0918E04B091AC
:103B70008F0430919404232F2D5F2D3720F401966C
:103B8000A11DB11D05C0232F2A570296A11DB11DED
:103B90002093940480938C0490938D04A0938E04BE
:103BA000B0938F048091900490919104A09192041D
:103BB000B09193040196A11DB11D80939004909340
:103BC0009104A0939204B0939304BF91AF919F91FD
:103BD0008F913F912F910F900FBE0F901F901895CE
:103BE0000F931F938FB7F89400918C0410918D045C
:103BF00020918E0430918F048FBFB801C9011F91AD
:103C00000F9108950F931F939FB7F894009190041C
:103C100010919104209192043091930486B5A89B51
:103C200006C08F3F21F00F5F1F4F2F4F3F4F9FBFA9
:103C3000322F212F102F0027080F111D211D311D9C
:103C400042E0000F111F221F331F4A95D1F7B80120
:103C5000C9011F910F910895CF92DF92EF92FF92C9
:103C6000CF93DF936B017C010E94021EEB010EC01B
:103C70000E94021E6C1B7D0B683E734038F081E091
:103C8000C81AD108E108F108C851DC4FC114D104A9
:103C9000E104F10469F7DF91CF91FF90EF90DF909D
:103CA000CF900895789484B5826084BD84B5816096
:103CB00084BD85B5826085BD85B5816085BDEEE634
:103CC000F0E0808181608083E1E8F0E01082808113
:103CD00082608083808181608083E0E8F0E0808181
:103CE00081608083E1EBF0E0808184608083E0EBA1
:103CF000F0E0808181608083EAE7F0E08081846089
:103D000080838081826080838081816080838081E4
:103D1000806880831092C1000895FC018485958598
:103D2000FC01E05CFF4F20813181FC01EE5BFF4F25
:103D300080819181281B390B2F733327C901089586
:103D4000FC0184859585FC01E05CFF4F4081518139
:103D5000FC01EE5BFF4F208131814217530741F098
:103D60000190F081E02DE80FF91F208130E002C0C2
:103D70002FEF3FEFC9010895FC0184859585FC0173
:103D8000E05CFF4F40815181FC01EE5BFF4F2081E1
:103D900031814217530771F0A081B181A80FB91F7B
:103DA0002C918081918101968F73992791838083D3
:103DB00030E002C02FEF3FEFC9010895FC01868576
:103DC0009785FC01E05CFF4FDC01AE5BBF4F40819B
:103DD00051812D913C91119742175307C1F70895D6
:103DE000CF93DF93FC0126853785D901A05CBF4FB7
:103DF0008D919C91119701968F739927E901CE5B64
:103E0000DF4F4881598184179507D9F30D90BC91F4
:103E1000A02DA20FB31F6C93A685B785A05CBF4FE2
:103E200011969C938E93A689B7892C9181E090E09E
:103E3000058C02C0880F991F0A94E2F7282B2C9357
:103E400081E090E0DF91CF91089508951F920F9245
:103E50000FB60F9211242F933F934F938F939F93FD
:103E6000EF93FF934091C6008091380590913905FA
:103E700001968F73992720913A0530913B0582175F
:103E8000930759F0E0913805F0913905E850FB4F60
:103E900040839093390580933805FF91EF919F916E
:103EA0008F914F913F912F910F900FBE0F901F90C8
:103EB000189585E994E00E948D1E892B11F00C94D1
:103EC000251F08951F920F920FB60F9211242F9362
:103ED0003F938F939F93EF93FF932091F40430913E
:103EE000F5048091F6049091F7042817390731F40E
:103EF0008091C1008F7D8093C10014C0E091F604D1
:103F0000F091F704EC54FB4F20818091F6049091DE
:103F1000F70401968F7399279093F7048093F60422
:103F20002093C600FF91EF919F918F913F912F9128
:103F30000F900FBE0F901F901895CF92DF92EF92C7
:103F4000FF92CF93DF93EC016A017B01411581EE73
:103F5000580761057105F9F0EC89FD8981E090E071
:103F60000E8C02C0880F991F0A94E2F7808360E0EC
:103F700079E08DE390E0A70196010E944323215050
:103F800031094109510956954795379527952115CE
:103F900080E1380798F0EC89FD89108260E874E8C8
:103FA0008EE190E0A70196010E9443232150310940
:103FB000410951095695479537952795E889F9891B
:103FC0003083EA89FB892083EE89FF89408181E083
:103FD00090E09C010A8C02C0220F331F0A94E2F782
:103FE000422B4083EE89FF8940819C010B8C02C0EB
:103FF000220F331F0A94E2F7422B4083EE89FF8998
:1040000040819C010C8C02C0220F331F0A94E2F7FE
:10401000422B4083EE89FF8920810D8C02C0880FDE
:10402000991F0A94E2F7809582238083DF91CF91D4
:10403000FF90EF90DF90CF90089510929804109227
:10404000970488EE93E0A0E0B0E080939904909309
:104050009A04A0939B04B0939C0485E091E0909314
:1040600096048093950488EF94E09093A204809343
:10407000A10484EB94E09093A4048093A30485ECC2
:1040800090E09093A6048093A50484EC90E0909334
:10409000A8048093A70480EC90E09093AA048093F6
:1040A000A90481EC90E09093AC048093AB0486EC7F
:1040B00090E09093AE048093AD0484E08093AF04CD
:1040C00083E08093B00487E08093B10485E080931F
:1040D000B20481E08093B3040895CF92DF92EF920F
:1040E000FF920F931F93CF93DF936C01EB017A0143
:1040F000E60EF71E00E010E00BC06991D601ED91CD
:10410000FC910190F081E02DC6010995080F191F5F
:10411000CE15DF0591F7C801DF91CF911F910F9167
:10412000FF90EF90DF90CF9008950E94521E0E9462
:10413000321BC9E5DFE10E94471C2097E1F30E9492
:10414000591FF9CF5058BB27AA270ED0A0C169D15B
:1041500030F06ED120F031F49F3F11F41EF45EC1B7
:104160000EF4E095E7FB54C1E92FB3D180F3BA1701
:10417000620773078407950718F071F49EF5CBC1A9
:104180000EF4E0950B2EBA2FA02D0B01B901900172
:104190000C01CA01A0011124FF27591B99F0593FB6
:1041A00050F4503E68F11A16F040A22F232F342FFE
:1041B0004427585FF3CF469537952795A795F0404C
:1041C0005395C9F77EF41F16BA0B620B730B840B61
:1041D000BAF09150A1F0FF0FBB1F661F771F881F19
:1041E000C2F70EC0BA0F621F731F841F48F4879571
:1041F00077956795B795F7959E3F08F0B3CF939560
:10420000880F08F09927EE0F979587950895DCD0D1
:1042100008F481E0089514D1E3954AC10CD037C168
:1042200007D140F0FED030F021F45F3F19F0F0C02C
:10423000511172C1F3C04DD198F39923C9F355239D
:10424000B1F3951B550BBB27AA2762177307840789
:1042500038F09F5F5F4F220F331F441FAA1FA9F33F
:1042600033D00E2E3AF0E0E830D091505040E69531
:10427000001CCAF729D0FE2F27D0660F771F881F92
:10428000BB1F261737074807AB07B0E809F0BB0B81
:10429000802DBF01FF2793585F4F2AF09E3F5105A5
:1042A00068F0B6C039C15F3FECF3983EDCF3869509
:1042B00077956795B795F7959F5FC9F7880F911D1B
:1042C0009695879597F90895E1E0660F771F881F07
:1042D000BB1F621773078407BA0720F0621B730BBA
:1042E000840BBA0BEE1F88F7E095089504D068940C
:1042F000B11112C10895F5D088F09F5790F0B92FF1
:104300009927B751A0F0D1F0660F771F881F991F2A
:104310001AF0BA95C9F712C0B13081F0FCD0B1E003
:104320000895F9C0672F782F8827B85F39F0B93F13
:10433000CCF3869577956795B395D9F73EF490952C
:104340008095709561957F4F8F4F9F4F0895E894AA
:1043500009C097FB3EF490958095709561957F4FCD
:104360008F4F9F4F9923A9F0F92F96E9BB2793957B
:10437000F695879577956795B795F111F8CFFAF48B
:10438000BB0F11F460FF1BC06F5F7F4F8F4F9F4FBC
:1043900016C0882311F096E911C0772321F09EE81A
:1043A000872F762F05C0662371F096E8862F70E080
:1043B00060E02AF09A95660F771F881FDAF7880F5A
:1043C0009695879597F90895990F0008550FAA0BB0
:1043D000E0E8FEEF16161706E807F907C0F0121618
:1043E0001306E407F50798F0621B730B840B950B1B
:1043F00039F40A2661F0232B242B252B21F4089570
:104400000A2609F4A140A6958FEF811D811D08950C
:1044100097F99F6780E870E060E008959FEF80EC77
:10442000089500240A94161617061806090608951A
:1044300000240A9412161306140605060895EECFFA
:1044400050D0E8F3E894E0E0BB279F57F0F02AED66
:104450003FE049EC06C0EE0FBB0F661F771F881FB9
:1044600028F0B23A62077307840728F0B25A620B49
:10447000730B840BE3959A9572F7803830F49A9514
:10448000BB0F661F771F881FD2F79048BAC0092E4E
:104490000394000C11F4882352F0BB0F40F4BF2B9F
:1044A00011F460FF04C06F5F7F4F8F4F9F4F0895DF
:1044B000EF93E0FF06C0A2EA2AED3FE049EC5FEB94
:1044C00053DEE5DF0F90039401FC9058E8EBF0E039
:1044D000A4C057FD9058440F551F59F05F3F71F02D
:1044E0004795880F97FB991F61F09F3F79F087955B
:1044F0000895121613061406551FF2CF4695F1DFE4
:1045000008C0161617061806991FF1CF8695710573
:10451000610508940895E894BB2766277727CB01A7
:1045200097F9089551DF08F48FEF08950BD0AFCFBE
:1045300078DF28F07DDF18F0952309F069CF6ECF82
:104540001124EACFC6DFA0F3959FD1F3950F50E079
:10455000551F629FF001729FBB27F00DB11D639F35
:10456000AA27F00DB11DAA1F649F6627B00DA11DDB
:10457000661F829F2227B00DA11D621F739FB00D81
:10458000A11D621F839FA00D611D221F749F3327F1
:10459000A00D611D231F849F600D211D822F762F8A
:1045A0006A2F11249F5750408AF0E1F088234AF087
:1045B000EE0FFF1FBB1F661F771F881F91505040D3
:1045C000A9F79E3F510570F023CFA6CF5F3FECF3D4
:1045D000983EDCF3869577956795B795F795E795BF
:1045E0009F5FC1F7FE2B880F911D9695879597F9D0
:1045F00008959F9325DF0F9007FCEE5F59CF9F3FF3
:1046000031F0915020F4879577956795B795880F8D
:10461000911D9695879597F908959F938F937F9312
:104620006F93FF93EF939B01AC0180DFEF91FF91BC
:1046300005D02F913F914F915F9178CFDF93CF932A
:104640001F930F93FF92EF92DF927B018C0168948E
:1046500005C0DA2EEF0176DFFE01E894A5912591E1
:10466000359145915591AEF3EF017EDDFE01970145
:10467000A801DA9479F7DF90EF90FF900F911F91E6
:10468000CF91DF910895A1E21A2EAA1BBB1BFD0159
:104690000DC0AA1FBB1FEE1FFF1FA217B307E40721
:1046A000F50720F0A21BB30BE40BF50B661F771F79
:1046B000881F991F1A9469F7609570958095909559
:1046C0009B01AC01BD01CF010895052E97FB16F4A7
:1046D000009407D057FD0DD00E94432307FC09D05A
:1046E0007EF490958095709561957F4F8F4F9F4F89
:1046F000089550954095309521953F4F4F4F5F4F0E
:104700000895EE0FFF1F0590F491E02D0994F9999B
:10471000FECF92BD81BDF89A992780B50895262FC6
:10472000F999FECF1FBA92BD81BD20BD0FB6F89496
:0E473000FA9AF99A0FBE01960895F894FFCFF9
:10473E000100000000F01E6D208D1EBC1EA01EDEAE
:02474E001E004B
:00000001FF
