:100000000C9483000C94AB000C94AB000C94AB00EC
:100010000C94AB000C94AB000C94AB000C94AB00B4
:100020000C94AB000C94AB000C94AB000C94AB00A4
:100030000C94AB000C94AB000C94AB000C94AB0094
:100040000C94831B0C94AB000C941E1E0C945A1E33
:100050000C94AB000C94AB000C94AB000C94AB0074
:100060000C94AB000C94AB006A1A2F1B2F17471788
:10007000531787179617BA17DE17021818185B1848
:100080008C18D918181932194C19661975198C1948
:10009000B019D319DB19E019E819EB19F419031A8F
:1000A000221A3D1A401A421A541A1E175B1A611A74
:1000B0006F1ACE1A000000070002010000030406B8
:1000C0000000000000000000010204081020408031
:1000D0000102040810200102040810200404040492
:1000E00004040404020202020202030303030303E2
:1000F00000000000250028002B0000000000240064
:1001000027002A00151F11241FBECFEFD8E0DEBF45
:10011000CDBF11E0A0E0B1E0E2E2F4E402C005905E
:100120000D92A231B107D9F715E0A2E1B1E001C00B
:100130001D92A031B107E1F711E0C6E0D1E004C0A3
:100140002297FE010E94F521C430D107C9F70E9411
:100150008D1F0C940F220C940000AF92BF92CF928F
:10016000DF92EF92FF920F931F93CF93DF93CDB760
:10017000DEB760970FB6F894DEBF0FBECDBF6983C0
:100180007A838B839C832D833E834F835887E986B4
:10019000FA860B871C87AD86BE86CF86D88A9E01DD
:1001A0002F5F3F4FEAE4F2E0AE014F5E5F4F63E046
:1001B00070E0D901CD90DD90ED90FD909D01C08261
:1001C000D182E282F382DF0198976D937C93F79658
:1001D0002417350771F780E090E060960FB6F89429
:1001E000DEBF0FBECDBFDF91CF911F910F91FF906A
:1001F000EF90DF90CF90BF90AF900895CF92DF92B5
:10020000EF92FF92CF93DF936A017B019C01215013
:10021000310947E3429FE001439FD00D1124CE5D99
:10022000DD4F0297029728F52BED3FE049EC5FE3A5
:10023000C701B6010E944E2118169CF02BED3FE03D
:1002400049EC5FEBC701B6010E94FF1F87FF11C099
:100250003BEDC32E3FE0D32E39ECE32E3FEBF32EE4
:1002600008C02BEDC22E2FE0D22E29ECE22E2FE378
:10027000F22E82E090E099838883CA82DB82EC824E
:10028000FD821B8A1A8A88EE93E0A0E0B0E08E8F90
:100290009F8FA8A3B9A380E090E0DF91CF91FF905A
:1002A000EF90DF90CF9008952F923F924F925F9200
:1002B0006F927F928F929F92AF92BF92CF92DF9276
:1002C000EF92FF920F931F93CF93DF93CDB7DEB7DB
:1002D00027970FB6F894DEBF0FBECDBF9A838983F0
:1002E0004A015B016801790120E030E0A901C70102
:1002F000B6010E94FF1F882309F40DC189819A81EC
:10030000019727E3289FA001299F500D11244E5DDE
:100310005D4F5F834E8389819A810297029728F50A
:100320002BED3FE049EC5FE3C501B4010E944E2193
:1003300018169CF02BED3FE049EC5FEBC501B401D2
:100340000E94FF1F87FF11C05BED852E5FE0952E99
:1003500059ECA52E5FEBB52E08C04BED842E4FE077
:10036000942E49ECA42E4FE3B42EEE81FF8144A4D9
:1003700055A466A477A4A3019201C501B4010E940B
:100380009A1F8B011C0120E030E0A901712F932DF1
:100390000E944E2118166CF425E33AEF4EE85DE317
:1003A000602F712F822D932D0E94FF1F87FF2BC07E
:1003B0000CC025E33AEF4EE85DEB602F712F822DE4
:1003C000932D0E944E211816F4F4B501A4018981E1
:1003D0009A8127960FB6F894DEBF0FBECDBFDF918E
:1003E000CF911F910F91FF90EF90DF90CF90BF9032
:1003F000AF909F908F907F906F905F904F903F90C5
:100400002F900C94FE0020E030E0A901C701B60156
:100410000E94FF1FA701960187FD5058602F712F82
:10042000822D932D0E94032020E030E04AE754E41F
:100430000E94522169837B838C839D8320E030E07E
:10044000A901602F712F822D932D0E944E2120E053
:1004500030E0A90118163CF4C701B6010E94FF1F45
:1004600087FF0BC006C0C701B6010E94FF1F87FDB2
:1004700004C0F7FAF094F7F8F094EE81FF81C0A67B
:10048000D1A6E2A6F3A6EE81FF8142825382648266
:10049000758216861786108A118A20E030E040EABD
:1004A00050E4B981AB81EC811D816B2F7A2F8E2FA7
:1004B000912F0E9403208B013C01CB01D3016C01E1
:1004C0007D0120E030E0A901B801C3010E94FF1FB7
:1004D00087FF04C0C701B601905802C0B801C3012C
:1004E0000E946B20CB01AA2797FDA095BA2FEE8121
:1004F000FF81868F978FA0A3B1A3138A128A808E63
:10050000918EA28EB38E81E090E0958F848F83E0F0
:1005100090E09183808380E090E027960FB6F89476
:10052000DEBF0FBECDBFDF91CF911F910F91FF9026
:10053000EF90DF90CF90BF90AF909F908F907F9083
:100540006F905F904F903F902F9008952F923F9221
:100550004F925F926F927F928F929F92AF92BF92D3
:10056000CF92DF92EF92FF920F931F93CF93DF937F
:10057000CDB7DEB727970FB6F894DEBF0FBECDBF5D
:100580009E838D834A015B016801790120E030E0A0
:10059000A901C701B6010E94FF1F882309F432C1D7
:1005A0008D819E81019727E3289F1001299F300CA0
:1005B000112482E292E0280E391E8D819E810297DD
:1005C000029728F52BED3FE049EC5FE3C501B4014C
:1005D0000E944E2118169CF02BED3FE049EC5FEB9A
:1005E000C501B4010E94FF1F87FF11C07BED872E5C
:1005F0007FE0972E79ECA72E7FEBB72E08C06BED2E
:10060000862E6FE0962E69ECA62E6FE3B62ED101F2
:100610009C968D919D910D90BC91A02D89839A837C
:10062000AB83BC83F10160A971A9882777FD809510
:10063000982F0E949E202BED3FE049EC50E40E9451
:1006400052219B01AC0169817A818B819C810E943E
:100650009B1F9B01AC01C501B4010E949A1F2B0195
:100660003C0120E030E0A901752D972D0E944E211C
:1006700018166CF425E33AEF4EE85DE3642D752D12
:10068000862D972D0E94FF1F87FF2BC00CC025E3EE
:100690003AEF4EE85DEB642D752D862D972D0E9467
:1006A0004E211816F4F4B501A4018D819E81279680
:1006B0000FB6F894DEBF0FBECDBFDF91CF911F9173
:1006C0000F91FF90EF90DF90CF90BF90AF909F90F1
:1006D0008F907F906F905F904F903F902F900C94F1
:1006E000FE0020E030E0A901C701B6010E94FF1F13
:1006F000A701960187FD5058642D752D862D972DE5
:100700000E94032020E030E04AE754E40E94522196
:100710008B018F839D8320E030E0A901642D752D2E
:10072000862D972D0E944E2120E030E0A901181659
:1007300094F4C701B6010E94FF1F87FF04C0F7FAB7
:10074000F094F7F8F094D1019896CD92DD92ED9265
:10075000FC929B970FC0C701B6010E94FF1F87FD47
:1007600004C0F7FAF094F7F8F094F101C0A6D1A60E
:10077000E2A6F3A689819A81AB81BC81F1018283D3
:100780009383A483B58316861786108A118A20E086
:1007900030E040EA50E4FF81ED81602F712F8F2F10
:1007A0009E2F0E9403208B013C01CB01D3016C01E1
:1007B0007D0120E030E0A901B801C3010E94FF1FC4
:1007C00087FF04C0C701B601905802C0B801C30139
:1007D0000E946B20CB01AA2797FDA095BA2FF101AB
:1007E000868F978FA0A3B1A3138A128A808E918ED1
:1007F000A28EB38E81E090E0958F848F83E090E0AD
:100800009183808380E090E027960FB6F894DEBF56
:100810000FBECDBFDF91CF911F910F91FF90EF9051
:10082000DF90CF90BF90AF909F908F907F906F9010
:100830005F904F903F902F9008952F923F924F924C
:100840005F926F927F928F929F92AF92BF92CF9260
:10085000DF92EF92FF920F931F93CF93DF933C01B0
:100860004A015B0168017901019727E3289F100184
:10087000299F300C112482E292E0280E391EC30118
:1008800002970297B0F42BED3FE049EC5FE3C5011E
:10089000B4010E944E2118160CF4DCC02BED3FE091
:1008A00049EC5FEBC501B4010E94FF1F87FDDBC06F
:1008B00014C091E06916710421F0E4E06E16710431
:1008C00061F4F10124A535A546A557A5C501B401DC
:1008D0000E949A1F0E947C0C09C0F10124A535A535
:1008E00046A557A5C501B4010E949A1F462E172F91
:1008F000D82FC92F20E030E0A901FE018F2F9E2FB5
:100900000E944E21181674F425E33AEF4EE85DE399
:10091000FE01642D712F8F2F9E2F0E94FF1F87FFD6
:1009200025C00DC025E33AEF4EE85DEBFE01642DD6
:10093000712F8F2F9E2F0E944E211816BCF4B501E7
:10094000A401C301DF91CF911F910F91FF90EF9010
:10095000DF90CF90BF90AF909F908F907F906F90DF
:100960005F904F903F902F900C94FE0020E030E07D
:10097000A901C701B6010E94FF1FA701960187FDCB
:100980005058FE01642D712F8F2F9C2F0E94032041
:1009900020E030E04AE754E40E945221562E672EB0
:1009A000782E092F20E030E0A901FE01642D712F7F
:1009B0008F2F9C2F0E944E2120E030E0A9011816B5
:1009C0003CF4C701B6010E94FF1F87FF0BC006C0A1
:1009D000C701B6010E94FF1F87FD04C0F7FAF0941B
:1009E000F7F8F094F101C0A6D1A6E2A6F3A6F101B2
:1009F00084A595A5A6A5B7A582839383A483B58373
:100A000016861786108A118A20E030E040EA50E40A
:100A1000652D762D872D902F0E9403208B01D82FD6
:100A2000C92FCB01AD2FBC2F6C017D0120E030E040
:100A3000A901B8018D2F9C2F0E94FF1F87FF04C0C2
:100A4000C701B601905803C0B8018D2F9C2F0E949A
:100A50006B2012C0FBED8F2EFFE09F2EF9ECAF2E26
:100A6000FFE3BF2E3ACFEBED8E2EEFE09E2EE9ECAA
:100A7000AE2EEFEBBE2E31CFCB01AA2797FDA0956E
:100A8000BA2FF101868F978FA0A3B1A3138A128A80
:100A9000808E918EA28EB38E81E090E0958F848FB0
:100AA00083E090E09183808380E090E0DF91CF91BC
:100AB0001F910F91FF90EF90DF90CF90BF90AF907C
:100AC0009F908F907F906F905F904F903F902F906E
:100AD0000895CF92DF92EF92FF92CF93DF93EC01D4
:100AE0006A017B0122E93AE046E050E4C701B60121
:100AF0000E944E211816DCF0219787E38C9FF001AD
:100B00008D9FF00D1124EE5DFD4FC0A6D1A6E2A68B
:100B1000F3A683E090E0918380838FEF9FEFDC0169
:100B2000868F978FA0A3B1A320E030E002C021E020
:100B300030E0C901DF91CF91FF90EF90DF90CF902F
:100B40000895CF939B018430910519F43195219537
:100B500031092138310564F420384FEF34071CF097
:100B600037FD03C007C020E83FEFC22FC19503C087
:100B700020E830E0C22FAC014150510967E3649F87
:100B8000F001659FF00D1124EE5DFD4FC5A382308D
:100B9000910521F124F4019709F06AC007C0833060
:100BA0009105A1F1049709F063C048C0121613061D
:100BB0001CF461E084E00EC060E084E0232B51F07F
:100BC0000E94CC1C61E08DE00E94CC1C6C2F70E078
:100BD0008BE04BC00E94CC1C60E0F5CF12161306D0
:100BE0001CF461E085E008C060E085E0232B21F083
:100BF0000E94CC1C61E003C00E94CC1C60E082E03B
:100C00000E94CC1C6C2F70E083E02FC012161306DC
:100C10001CF461E087E008C060E087E0232B21F04E
:100C20000E94CC1C61E003C00E94CC1C60E086E006
:100C30000E94CC1C6C2F70E089E017C012161306BE
:100C40001CF461E088E008C060E088E0232B21F01C
:100C50000E94CC1C61E003C00E94CC1C60E08CE0D0
:100C60000E94CC1C6C2F70E08AE0CF910C94241D64
:100C7000CF9108951F93CF93DF93C0E0D0E017E3A7
:100C80001C9FF0011D9FF00D1124EE5DFD4F1182A0
:100C90001082219660E070E0CE010E94A105C43070
:100CA000D10571F780E090E0DF91CF911F91089519
:100CB000FC0111821082128213821482158240EE8E
:100CC0005EE265EE73E4468357836087718748E28E
:100CD00053EE6BE273E44287538764877587168609
:100CE0001786108A118A138A128A158A148A178A1B
:100CF000168A108E118E128E138E158E148E4FEF53
:100D00005FEFBA01468F578F60A371A38FEF9FEFFC
:100D100093A382A380E884A34BED5FE069E47FE3C3
:100D200040A751A762A773A711AA10AA08958F928E
:100D30009F92AF92BF92CF92DF92EF92FF920F936A
:100D40001F93CF93DF93CDB7DEB7C454D1090FB64D
:100D5000F894DEBF0FBECDBF00E010E037E3F32E06
:100D6000F09EC001F19E900D11248E5D9D4F0E945A
:100D700058060F5F1F4F0430110591F761E087E0BF
:100D80000E94941C61E088E00E94941C61E089E06C
:100D90000E94941C68E070E089E090E00E94960B4D
:100DA00061E086E00E94941C61E085E00E94941C52
:100DB00061E08AE00E94941C68E070E08AE090E0C4
:100DC0000E94960B61E084E00E94941C61E082E046
:100DD0000E94941C61E083E00E94941C68E070E033
:100DE00083E090E00E94960B61E08CE00E94941CEE
:100DF00061E08DE00E94941C61E08BE00E94941CF5
:100E000068E070E08BE090E00E94960B40E051EECD
:100E100060E070E089E694E00E94951E89E694E027
:100E20000E94D61D61E08EE00E94941C0E944F1427
:100E3000892B09F461C010920C0310920B038BED07
:100E4000882E8FE0982E89E4A82E81E4B82E9BEDA1
:100E5000C92E9FE0D92E99ECE92E9FE3F92E970138
:100E60008601B501A401CE0183960E943B168DB781
:100E70009EB782970FB6F8949EBF0FBE8DBFADB7D9
:100E8000BEB7119682E2FE01B39601900D928A954B
:100E9000E1F70E946D160FB6F894DEBF0FBECDBF0E
:100EA000812C912C54012BEDC22E2FE0D22E29EC57
:100EB000E22E2FEBF22E97018601B501A401CE019F
:100EC00001960E943B168DB79EB782970FB6F89495
:100ED0009EBF0FBE8DBFADB7BEB7119682E2FE01B9
:100EE000319601900D928A95E1F70E946D160FB62A
:100EF000F894DEBF0FBECDBF61E08EE00E94CC1C37
:100F000010920A031092090384E690E09093030381
:100F10008093020383EC98EBA2E3BEE38093FE028E
:100F20009093FF02A0930003B09301031092040377
:100F3000CC5BDF4F0FB6F894DEBF0FBECDBFDF91A5
:100F4000CF911F910F91FF90EF90DF90CF90BF90C6
:100F5000AF909F908F900895CF92DF92EF92FF9283
:100F60000F931F930E94CD1B00910D0310910E0350
:100F700020910F03309110036B017C01C01AD10A3C
:100F8000E20AF30A970186010530110521053105B2
:100F900070F060930D0370930E0380930F03909392
:100FA00010030E9494100E94C2080E94350C0E94F7
:100FB000491B1F910F91FF90EF90DF90CF900C9401
:100FC0004B1587E00E94031DBC01882777FD8095A3
:100FD000982F0E949E2020E030E040E85AE30E94D3
:100FE000522120E030E040EA50E40E94522108956E
:100FF0000E94E10720E030E040EA50E40E949A1F9E
:1010000020E030E0A9010E94FF1F87FF11C00E946D
:10101000E10720E030E040EA50E40E949A1F2DEC06
:101020003CEC4CEC5DEB0E944E2118168CF012C08B
:101030000E94E10720E030E040EA50E40E949A1F5D
:101040002DEC3CEC4CEC5DE30E94FF1F87FF02C0DF
:1010500080E008950E94E10720E030E040E250E4A3
:101060000E949A1F20E030E0A9010E94FF1F87FF25
:1010700012C00E94E10720E030E040E250E40E940C
:101080009A1F2DEC3CEC4CEC5DEB0E944E211816A7
:101090000CF474C010C00E94E10720E030E040E290
:1010A00050E40E949A1F2DEC3CEC4CEC5DE30E9456
:1010B000FF1F87FD63C00E94E1072DE33AE047E58B
:1010C00050E40E949A1F20E030E0A9010E94FF1F17
:1010D00087FF12C00E94E1072DE33AE047E550E4A4
:1010E0000E949A1F2DEC3CEC4CEC5DEB0E944E21D3
:1010F00018160CF445C010C00E94E1072DE33AE039
:1011000047E550E40E949A1F2DEC3CEC4CEC5DE36B
:101110000E94FF1F87FD34C00E94E10727ED33EADC
:1011200040E050E40E949A1F20E030E0A9010E94B4
:10113000FF1F87FF11C00E94E10727ED33EA40E05F
:1011400050E40E949A1F2DEC3CEC4CEC5DEB0E94AD
:101150004E2118168CF07CCF0E94E10727ED33EA70
:1011600040E050E40E949A1F2DEC3CEC4CEC5DE317
:101170000E94FF1F87FF6CCF83E0089581E00895F0
:1011800082E008953F924F925F926F927F928F928A
:101190009F92AF92BF92CF92DF92EF92FF920F9306
:1011A0001F93CF93DF93CDB7DEB7CA51D1400FB6AF
:1011B000F894DEBF0FBECDBF0E94F807382E109105
:1011C000110318270E94CD1B2B013C01112309F4A8
:1011D00074C28091120390911303A0911403B091F3
:1011E0001503A3019201281B390B4A0B5B0BDA0193
:1011F000C901893E9340A105B10508F45EC2809102
:101200000403882309F43FC080E2CF5EDE4F888369
:10121000C151D1408AE0CE5EDE4F8883C251D140B9
:1012200040921603509217036092180370921903AC
:10123000CD5EDE4F488259826A827B82C351D140A3
:10124000C95EDE4F1883C751D140812F8321C85E0C
:10125000DE4F8883C851D140832D80958123C75E9E
:10126000DE4F8883C951D140C65EDE4F1882CA5115
:10127000D1404AE050E0BE016F5E7E4F89E694E0C7
:101280000E94651F12C2812F8321B9F084E690E08D
:10129000A0E0B0E08093050390930603A0930703BA
:1012A000B093080383E08093090340921A0350929D
:1012B0001B0360921C0370921D03832D8095812374
:1012C00009F4F3C10E945F0C80911103813009F091
:1012D0009EC140911A0350911B0360911C037091B1
:1012E0001D0393018201041B150B260B370BB9015B
:1012F000A801493B5B406105710508F4CEC110921D
:101300000C0310920B0380930A0301E010E04BEDF5
:101310005FE069EC7FE3C8010E9469050F5F1F4F22
:1013200005301105A1F72BED822E2FE0922E29EC2E
:10133000A22E2FE3B22E7501640195018401B5013F
:10134000A401CE0181519F4F0E943B162DB73EB79D
:10135000225231090FB6F8943EBF0FBE2DBFADB774
:10136000BEB7119682E2FE01E151FF4F01900D924E
:101370008A95E1F70E946D160FB6F894DEBF0FBE96
:10138000CDBF3BED832E3FE0932E39E4A32E30E416
:10139000B32EC12CD12C760197018601B501A40191
:1013A000CE0183539F4F0E943B168DB79EB7829705
:1013B0000FB6F8949EBF0FBE8DBFADB7BEB71196E6
:1013C00082E2FE01E353FF4F01900D928A95E1F70F
:1013D0000E946D160FB6F894DEBF0FBECDBF44EE6F
:1013E000842E4BEC942E46E9A42E40E4B42E5BED03
:1013F000C52E5FE0D52E59ECE52E5FEBF52E97015B
:101400008601B501A401CE0185559F4F0E943B1670
:101410000DB71EB7025211090FB6F8941EBF0FBECA
:101420000DBFADB7BEB7119682E2FE01E555FF4F85
:1014300001900D928A95E1F70E946D160FB6F8940F
:10144000DEBF0FBECDBF812C912C5401750164010C
:1014500095018401B501A401CE0187579F4F0E94D9
:101460003B164DB75EB7425251090FB6F8945EBFB6
:101470000FBE4DBFADB7BEB7119682E2FE01E75772
:10148000FF4F01900D928A95E1F70E946D160FB6FD
:10149000F894DEBF0FBECDBF6BED862E6FE0962EAB
:1014A00069ECA62E6FEBB62E7BEDC72E7FE0D72E14
:1014B00079ECE72E7FE3F72E97018601B501A401B1
:1014C000CE0189599F4F0E943B16EDB7FEB7B297E8
:1014D0000FB6F894FEBF0FBEEDBFADB7BEB7119605
:1014E00082E2FE01E959FF4F01900D928A95E1F7E2
:1014F0000E946D160FB6F894DEBF0FBECDBFEBEDA8
:101500008E2EEFE09E2EE9E4AE2EE0ECBE2EC12C36
:10151000D12C760197018601B501A401CE018B5B28
:101520009F4F0E943B162DB73EB7225231090FB68E
:10153000F8943EBF0FBE2DBFADB7BEB7119682E285
:10154000FE01EB5BFF4F01900D928A95E1F70E943F
:101550006D160FB6F894DEBF0FBECDBFF4EE8F2E22
:10156000FBEC9F2EF6E9AF2EF0ECBF2EABEDCA2EB2
:10157000AFE0DA2EA9ECEA2EAFEBFA2E9701860146
:10158000B501A401CE0183960E943B168DB79EB78C
:1015900082970FB6F8949EBF0FBE8DBFADB7BEB792
:1015A000119682E2FE01B39601900D928A95E1F7C1
:1015B0000E946D160FB6F894DEBF0FBECDBF812C12
:1015C000912C54017501640195018401B501A401B8
:1015D000CE0101960E943B160DB71EB702521109AB
:1015E0000FB6F8941EBF0FBE0DBFADB7BEB71196B4
:1015F00082E2FE01319601900D928A95E1F70E94F8
:101600006D160FB6F894DEBF0FBECDBF46C0823058
:1016100009F03FC092E2E92E92E0F92E01E010E0DD
:1016200080E090E0F70120813181232B51F060E0D0
:1016300070E0C8010E94A105F7011182108281E0CB
:1016400090E00F5F1F4FF7E3EF0EF11C053011051F
:1016500049F7892B11F582E5C82E82E0D82EE12CBE
:10166000F12CF60111821082FFEFEF1AFF0A0BED49
:101670001FE029EC3FE340E050E0BA01C7010E94BF
:10168000540107E3C00ED11C14E0E116F10449F740
:1016900004C0833011F40E941F154092120350922F
:1016A0001303609214037092150340921A03509230
:1016B0001B0360921C0370921D038091040381112F
:1016C00018C021E0321215C00E94CD1B40901A03B1
:1016D00050901B0360901C0370901D0364197509E2
:1016E00086099709693B7B408105910510F00E94AE
:1016F0005F0C3092110380E090E0C65EDE4F0FB6C3
:10170000F894DEBF0FBECDBFDF91CF911F910F9137
:10171000FF90EF90DF90CF90BF90AF909F908F9011
:101720007F906F905F904F903F9008959C0125505F
:1017300031092230310530F08930910519F08A30B5
:10174000910569F560347105A1F044F461307105CB
:1017500071F06830710509F054C011C0611581E065
:10176000780749F06115744009F04BC006C081E06C
:1017700007C083E005C084E003C085E001C082E0CB
:101780002230310528F495B5987F982B95BD0895A2
:1017900090918100987F982B9093810008958330D9
:1017A000910511F00B9769F560347105D9F054F487
:1017B00068307105F9F06032710591F061307105A2
:1017C00001F50CC0611581E0780781F0611584E0B6
:1017D000780771F060387105A1F406C081E00BC094
:1017E00083E009C084E007C085E005C086E003C04F
:1017F00087E001C082E09091B100987F982B909390
:10180000B10008950E94031DBC01882777FD8095D3
:10181000982F0E949E2020E030E040EA50E40E9491
:10182000522120E030E040E85AE30E94522108951E
:10183000CF93DF93CAE0D0E061E08EE00E94CC1C41
:1018400064E670E080E090E00E94091C60E08EE0B9
:101850000E94CC1C64E670E080E090E00E94091CCD
:10186000219751F7DF91CF91089580910903882343
:1018700029F10E94CD1B2091050330910603409170
:101880000703509108030E94B52120FF11C061E0B9
:101890008EE00E94CC1C80913404811105C080919F
:1018A000090381508093090381E0809334040895F3
:1018B00060E08EE00E94CC1C109234040895CF9317
:1018C000DF93C3E0D0E060E08EE00E94CC1C64E6D1
:1018D00070E080E090E00E94091C61E08EE00E94D0
:1018E000CC1C64E670E080E090E00E94091C219727
:1018F00051F7DF91CF9108950F931F93CF93DF930B
:101900000BC02BED3FE049EC50E4FE01602F712F3E
:101910008F2F9C2F0E949B1F8B01D82FC92F2BED3F
:101920003FE049E450ECFE01712F8F2F9E2F0E9463
:10193000FF1F87FDE6CF0EC02BED3FE049EC50E4E2
:10194000FE01602F712F8F2F9C2F0E949A1F8B01F9
:10195000D82FC92F2BED3FE049E450E4FE01602F62
:10196000712F8F2F9C2F0E944E2118162CF39E0151
:10197000602F712F832F9C2FDF91CF911F910F919B
:1019800008952F923F924F925F926F927F928F9223
:101990009F92AF92BF92CF92DF92EF92FF920F93FE
:1019A0001F93CF93DF931C018091300490913104F9
:1019B000892B09F09CC085E090E00E94020C20E099
:1019C00030E040E250E40E949A1F8B01D82FC92FCB
:1019D000AB01682F792F4A015B0186E090E00E94FD
:1019E000020C20E030E040E250E40E949A1F462FB3
:1019F000572F682F792F2A013B0120E030E0A90101
:101A0000B8018D2F9C2F0E94FF1F87FF04C0B7FADB
:101A1000B094B7F8B09420E030E0A901C301B2015E
:101A20000E94FF1F87FF04C077FA709477F87094C4
:101A3000A3019201C501B4010E94FF1F87FF03C0EB
:101A400081E090E002C082E090E0909331048093C6
:101A5000300481E090E00E94020C20E030E040E29F
:101A600050E40E949A1F8B01D82FC92FAB01682F19
:101A7000792F4A015B0182E090E00E94020C20E095
:101A800030E040E250E40E949A1F462F572F682F03
:101A9000792F2A013B0120E030E0A901B8018D2F08
:101AA0009C2F0E94FF1F87FF04C0B7FAB094B7F8BD
:101AB000B09420E030E0A901C301B2010E94FF1FF1
:101AC00087FF04C077FA709477F87094A3019201AD
:101AD000C501B4010E94FF1F87FF03C081E090E0B1
:101AE00002C082E090E0909333048093320482E05D
:101AF0002816310409F4DBC02CF42A94232809F0B9
:101B000004C20BC083E02816310409F4FBC084E052
:101B10002816310409F0F9C120C185E090E00E9447
:101B2000020C4B015C0186E090E00E94020C6B010C
:101B30007C0120E030E040E250E4C501B4010E94A5
:101B40009A1F8B01D82FC92F20E030E040E250E4EB
:101B5000C701B6010E949A1F6B017C01809130047D
:101B600090913104019769F520E030E0A901FE0170
:101B7000602F712F8F2F9E2F0E94FF1F87FF0EC097
:101B800020E030E040E050ECFE01602F712F8F2FFD
:101B90009E2F0E94FF1F87FF14C00DC020E030E081
:101BA00040E050E4FE01602F712F8F2F9E2F0E9486
:101BB0004E21181634F482E090E090933104809323
:101BC00030048091300490913104029751F520E067
:101BD00030E0A9016C2D7D2D8E2D9F2D0E94FF1FC1
:101BE00087FF0DC020E030E040E050EC6C2D7D2DF3
:101BF0008E2D9F2D0E94FF1F87FF13C00CC020E079
:101C000030E040E050E46C2D7D2D8E2D9F2D0E9404
:101C10004E21181634F481E090E0909331048093C3
:101C20003004809130049091310420E030E04AEAA1
:101C300053E4029799F46C2D7D2D8E2D9F2D0E94DB
:101C4000522120E030E040EA50E40E94032020E0EE
:101C500030E044E353E40E949B1F0DC0FE01602F5F
:101C6000712F8F2F9C2F0E94522120E030E040EAFC
:101C700050E40E940320462F572F682F792FCB0165
:101C8000BA0190582BED3FE049E450E40E94522104
:101C900020E030E044E353E40E940320209154020A
:101CA00030915502409156025091570218C184E07C
:101CB00090E00E94020C20E030E040E250E40E94FC
:101CC0009A1F20E030E04AEA53E40E94522120E0CB
:101CD00030E040EA50E40E9403202BED3FE049E46D
:101CE00050E40E94522120E030E044E353E40E949B
:101CF000032020918B0230918C0240918D025091F3
:101D00008E02EDC083E090E00E94020C20E030E003
:101D100040E250E40E949A1F20E030E04AEA53E497
:101D20000E94522120E030E040EA50E40E9403206B
:101D30002BED3FE049E450E40E94522120E030E0E6
:101D400044E353E40E9403202091C2023091C30275
:101D50004091C4025091C502C2C081E090E00E944F
:101D6000020C4B015C0182E090E00E94020C6B01CE
:101D70007C0120E030E040E250E4C501B4010E9463
:101D80009A1F8B01D82FC92F20E030E040E250E4A9
:101D9000C701B6010E949A1F6B017C018091320439
:101DA00090913304019769F520E030E0A901FE012C
:101DB000602F712F8F2F9E2F0E94FF1F87FF0EC055
:101DC00020E030E040E050ECFE01602F712F8F2FBB
:101DD0009E2F0E94FF1F87FF14C00DC020E030E03F
:101DE00040E050E4FE01602F712F8F2F9E2F0E9444
:101DF0004E21181634F482E090E0909333048093DF
:101E000032048091320490913304029751F520E01E
:101E100030E0A9016C2D7D2D8E2D9F2D0E94FF1F7E
:101E200087FF0DC020E030E040E050EC6C2D7D2DB0
:101E30008E2D9F2D0E94FF1F87FF13C00CC020E036
:101E400030E040E050E46C2D7D2D8E2D9F2D0E94C2
:101E50004E21181634F481E090E09093330480937F
:101E60003204809132049091330420E030E04AEA59
:101E700053E4029799F46C2D7D2D8E2D9F2D0E9499
:101E8000522120E030E040EA50E40E94032020E0AC
:101E900030E044E353E40E949B1F0DC0FE01602F1D
:101EA000712F8F2F9C2F0E94522120E030E040EABA
:101EB00050E40E9403202BED3FE049E450E40E94EF
:101EC000522120E030E044E353E40E9403202091BB
:101ED000F9023091FA024091FB025091FC020E94FB
:101EE0009B1FDF91CF911F910F91FF90EF90DF909B
:101EF000CF90BF90AF909F908F907F906F905F90AA
:101F00004F903F902F900C947C0C0E94180C50E046
:101F100040E030E82FEB652F742F832F922FDF9155
:101F2000CF911F910F91FF90EF90DF90CF90BF90D6
:101F3000AF909F908F907F906F905F904F903F9069
:101F40002F9008950F931F93CF93DF938C01EB0194
:101F500060E189E694E00E94E81D6C2F6D5F89E6E0
:101F600094E00E94E81D1C161D0634F4AE01B80171
:101F700089E694E00E94651F61E189E694E00E9491
:101F8000E81D80E090E0DF91CF911F910F910895BF
:101F9000CF92DF92EF92FF920F931F93CF93DF9335
:101FA0008C019C012150310987E3829FE001839FCE
:101FB000D00D1124CE5DDD4F8E899F898130910532
:101FC00069F520E030E0A90168A579A58AA59BA55F
:101FD0000E94FF1F882309F49EC083E090E099834C
:101FE00088834FEF5FEFBA014E8F5F8F68A379A3AD
:101FF0004CA55DA56EA57FA54A835B836C837D831D
:10200000C8A4D9A4EAA4FBA420E030E0A901C70138
:10201000B6010E94FF1F87FF34C02FC08230910598
:10202000E9F520E030E0A90168A579A58AA59BA57E
:102030000E94FF1F882309F46EC083E090E099831B
:1020400088834FEF5FEFBA014E8F5F8F68A379A34C
:102050004CA55DA56EA57FA54A835B836C837D83BC
:10206000C8A4D9A4EAA4FBA420E030E0A901C701D8
:10207000B6010E94FF1F87FD04C0F7FAF094F7F83D
:10208000F094B701A601C801DF91CF911F910F9184
:10209000FF90EF90DF90CF900C946905009779F452
:1020A0001982188260E070E0C801DF91CF911F9122
:1020B0000F91FF90EF90DF90CF900C94A1050397C4
:1020C00051F5888199818230910539F48A899B89FB
:1020D000892B51F01D8A1C8A1EC0039729F44A815E
:1020E0005B816C817D810CC087E3829FF001839FBF
:1020F000F00D1124EE5DFD4F44A555A566A577A50D
:10210000C801DF91CF911F910F91FF90EF90DF9069
:10211000CF900C94FE00DF91CF911F910F91FF9013
:10212000EF90DF90CF9008952F923F924F925F9261
:102130006F927F928F929F92AF92BF92CF92DF92D7
:10214000EF92FF920F931F93CF93DF93CDB7DEB73C
:1021500062970FB6F894DEBF0FBECDBF88E492E061
:102160009A838983A2E2B2E0BA8BA98BE7E4F2E01A
:10217000F88BEF878EE492E09C838B83AEE1B3E033
:10218000B887AF83E6E4F2E0FE87ED8788E5282E86
:1021900082E0382E84E492E09A878987AAE4B2E04C
:1021A000BC87AB87E2E5F2E0FE83ED8301E010E05F
:1021B00088248A94982C5401AF85B8898C91E98140
:1021C000FA8160817181680F711D882777FD809584
:1021D000982F0E949E2020E030E042E553E40E94C8
:1021E0009A1F0E946B2077FD05C0A981BA816D936B
:1021F0007C9304C0E981FA8111821082A981BA819D
:102200006D917C91882777FD8095982F0E949E2064
:1022100020E034E14DEC58E40E944E2118160CF4F5
:102220000EC1C8010E94C10C6B017C01EB81FC81D5
:10223000608371838283938320E030E040E450EC3C
:102240000E94FF1F87FF14C020E030E040E450E40C
:10225000AF81B8856D917D918D919C910E944E21A9
:10226000181634F4ED81FE818081918101961DC0A4
:1022700020E030E040E450E4C701B6010E944E2166
:102280001816ACF420E030E040E450ECAF81B885A3
:102290006D917D918D919C910E94FF1F87FF07C0DA
:1022A000ED81FE8180819181019791838083EB8113
:1022B000FC8180819181A281B381EF81F885808347
:1022C0009183A283B383A989BA898D919C9181302E
:1022D0009105E9F11CF4892B49F092C282309105F5
:1022E00009F44FC0039709F08BC22DC1E989FA891F
:1022F000868D978DA0A1B1A1892B8A2B8B2B79F488
:10230000A985BA858D919C91978B868BC8010E9477
:10231000C80FE989FA89868E978EA0A2B1A2A989F1
:10232000BA895E964D915D916D917C91919714164D
:102330001506160617060CF063C2415051096109D3
:102340007109FD01468F578F60A371A359C2A989F6
:10235000BA8956968D919C915797009719F41D92C2
:102360001C924EC2019729F4ED85FE85608170E0D4
:1023700068C0AD85BE856C9170E0719561957109FD
:1023800060C0E989FA89468D578D60A171A1411518
:1023900051056105710531F482899389892B09F012
:1023A0001AC18AC0141615061606170654F44150B1
:1023B000510961097109E989FA89468F578F60A32C
:1023C00071A3AB81BC812D913D914D915C91E989C7
:1023D000FA8962817381848195810E949A1F0E948B
:1023E0007C0C6B017C0120E030E0A9010E94FF1F02
:1023F00087FF0BC025E33AEF4EE05DEBC701B60166
:102400000E944E2118165CF028C025E33AEF4EE0FA
:102410005DE3C701B6010E94FF1F87FF1EC0E1E018
:10242000F0E0A989BA895396FC93EE93529754969B
:102430008D919C915597892B41F01D921C9260E0E3
:1024400070E0C8010E94A105DBC1A989BA895E9626
:102450008D929D92AD92BC929197E989FA89828979
:102460009389892B61F120E030E0A901C701B60111
:102470000E94FF1F87FF04C0C701B601905802C029
:10248000C701B6012091FE023091FF024091000386
:10249000509101030E944E2118168CF4D1012C9109
:1024A0002F5F2C9330E080910203909103038217F9
:1024B000930738F4E989FA8911821082C0CFD101DB
:1024C0001C92E989FA892681378140855185C701A7
:1024D000B6010E9452212B013C01A989BA891E969E
:1024E0002D913D914D915C9151971A966D917D91F1
:1024F0008D919C911D970E9452219B01AC01C301BB
:10250000B2010E949B1F0E946B20C8010E94A1057E
:102510002AE037ED43EA5BE3C701B6010E9452218E
:102520009B01AC01E989FA89668577858089918963
:102530000E949B1FA989BA891E966D937D938D93E6
:102540009C9351975DC1E989FA89468D578D60A1A9
:1025500071A1411551056105710509F045C081E082
:1025600090E0938B828BDF0116861786108A118A82
:10257000E985FA851182108282E090E011969C93A1
:102580008E935C968D919C915D97892B59F0FD01FE
:10259000808D918DA28DB38D82839383A483B58327
:1025A000158E148EEFEFFFEFA985BA85ED93FC939E
:1025B000A989BA8954968D919C915597892B59F088
:1025C00088EC90E0A0E0B0E0E989FA89868F978FE7
:1025D000A0A3B1A315C1A989BA895E968D929D92D7
:1025E000AD92BC9291970CC11416150616061706EB
:1025F00054F44150510961097109E989FA89468FFA
:10260000578F60A371A32AE037ED43EA5BE3AB8504
:10261000BC856D917D918D919C910E945221E9899B
:10262000FA8922813381448155810E949B1FFB01DD
:10263000462F5F2F682F792FA989BA8912964D935B
:102640005D936D937C931597980122503109223048
:10265000310508F049C02BED3FE049EC5FEBBF01CD
:102660000E94FF1F87FF17C020E030E0A901EB8523
:10267000FC8560817181828193810E94FF1F87FFA9
:102680000AC08BED9FE0A9ECBFEBE989FA89828350
:102690009383A483B5832BED3FE049EC5FE3A989E5
:1026A000BA8912966D917D918D919C9115970E949A
:1026B0004E211816CCF420E030E0A901EB85FC8512
:1026C00060817181828193810E944E21181664F489
:1026D0004BED5FE069EC7FE3A989BA8912964D93CF
:1026E0005D936D937C931597EB81FC812081318103
:1026F00042815381A989BA8912966D917D918D91FC
:102700009C9115970E949A1F0E947C0C6B017C0182
:1027100020E030E0A9010E94FF1F2601370187FF5A
:1027200004C077FA709477F870946091FE0270910B
:10273000FF0280910003909101039B01AC010E9474
:102740009B1F9B01AC01C301B2010E944E21F1010C
:102750001816B4F420812F5F208330E080910203AB
:10276000909103038217930708F04AC0A989BA8998
:1027700011961C921E925D961C921E925C975FCEE3
:102780001082A989BA8916962D913D914D915C913F
:102790001997C701B6010E9452212B013C01E9891A
:1027A000FA892685378540895189628573858485B4
:1027B00095850E9452219B01AC01C301B2010E9488
:1027C0009B1F0E946B20C8010E94A1052AE037EDE3
:1027D00043EA5BE3C701B6010E9452219B01AC01B1
:1027E000A989BA891E966D917D918D919C91519781
:1027F0000E949B1FE989FA8966877787808B918B76
:102800000F5F1F4F89819A81C7969A838983A9890F
:10281000BA89D796BA8BA98BEF85F889F796F88B8A
:10282000EF878B819C81C7969C838B83AF81B88512
:102830001496B887AF83ED85FE85F796FE87ED8702
:10284000F7E32F0E311C89859A85C7969A87898769
:10285000AB85BC85D796BC87AB87ED81FE81F796AB
:10286000FE83ED830530110509F0A6CC62960FB604
:10287000F894DEBF0FBECDBFDF91CF911F910F91B6
:10288000FF90EF90DF90CF90BF90AF909F908F9090
:102890007F906F905F904F903F902F9008957F9220
:1028A0008F929F92AF92BF92CF92DF92EF92FF9260
:1028B0000F931F93CF93DF9300D000D0CDB7DEB737
:1028C00060E170E08FE594E00E947C1B813A69F53D
:1028D000A12CB12C00E010E037E3932E909E600114
:1028E000919ED00C112484E592E0C80ED91EE12CF3
:1028F000F12CB7016A0D7B1D8FE594E00E947C1BD3
:10290000F60181936F01FFEFEF1AFF0A84E0E816EA
:10291000F10479F70F5F1F4F94E0A90EB11C04304A
:102920001105E1F620E030E077C024E5A22E22E098
:10293000B22E812C912C01E010E0C8010E94C10C44
:102940006B017C01C8010297029760F520E030E03E
:10295000A901C701B6010E94FF1F87FF0DC020E03B
:1029600030E04CE852ECC701B6010E94FF1F782E00
:10297000771C7724771C0DC07724739420E030E017
:102980004CE852E4C701B6010E944E2118160CF023
:10299000712CC982DA82EB82FC82772019F00E94C6
:1029A000180CFDCFF7FAF094F7F8F094C982DA82A8
:1029B000EB82FC82F501C082D182E282F382CC24D8
:1029C000C394D12CCC0EDD1EE12CF12CF6014191EB
:1029D0006F01B701680D791D8FE594E00E947F1BA0
:1029E000FFEFEF1AFF0A84E0E816F10479F70F5FB2
:1029F0001F4F94E0890E911CE7E3AE0EB11C053029
:102A0000110509F09ACF41EA60E170E08FE594E0AA
:102A10000E947F1B21E030E0C9010F900F900F90C2
:102A20000F90DF91CF911F910F91FF90EF90DF906A
:102A3000CF90BF90AF909F908F907F90089510920D
:102A400054021092550210925602109257021092A0
:102A50008B0210928C0210928D0210928E021092B4
:102A6000C2021092C3021092C4021092C5021092C8
:102A7000F9021092FA021092FB021092FC0240EA54
:102A800060E170E08FE594E00E947F1B0E944F148C
:102A900080E090E00895AF92BF92CF92DF92EF92E4
:102AA000FF920F931F93CF93DF9380910A038823A4
:102AB00009F4D6C030910C0320910B03321780F03B
:102AC00010920C03E8E1F1E080E090E030E004C017
:102AD000118210820196B29682179307CCF3C0C080
:102AE00082E2389FE0011124CE5EDE4F10925E0438
:102AF00010925D04088119810130110539F002300E
:102B0000110509F45DC0012B51F1AAC08E819F818E
:102B1000892B41F40E94CD1B6A837B838C839D8328
:102B20001F830E830E94CD1B288539856901EE2401
:102B3000D7FCE094FE2C0A811B812C813D81C00EC4
:102B4000D11EE21EF31EC616D706E806F90608F0E7
:102B500087C080910C038F5F80930C0381C08E81AE
:102B60009F81892B69F0E4E3F2E080819181892BD8
:102B700009F476C0F79683E0E031F807B1F76DC04D
:102B80000E94CD1B6A837B838C839D836E01E12C25
:102B9000F12CEFEFEE1AFE0AF601428553856485AB
:102BA000758502E91AE026E83FE3C7010E941D048B
:102BB000F4E0CF0ED11C84E0E816F10451F748C0D0
:102BC0008E819F81892B61F10E94CD1B28853985DB
:102BD0006901EE24D7FCE094FE2C0A811B812C8134
:102BE0003D81C00ED11EE21EF31EC616D706E806B2
:102BF000F906B0F580910C038F5F80930C0310925F
:102C000023021092220210925A021092590210923C
:102C10009102109290021092C8021092C70220C036
:102C20000E94CD1B6A837B838C839D83AE88BF8883
:102C3000C88CD98CEA88FB880C891D892E853F8534
:102C4000488959896A857B858C859D850E94AD0060
:102C500081E090E09F838E8303C03F5F30930C033D
:102C6000DF91CF911F910F91FF90EF90DF90CF9068
:102C7000BF90AF9008958F929F92AF92BF92CF92E4
:102C8000DF92EF92FF920F931F93CF93DF93CDB715
:102C9000DEB7FC011182108217821682118610861F
:102CA000428753876487758706871787208B318B08
:102CB000C28AD38AE48AF58A868A978AA08EB18EE0
:102CC000DF91CF911F910F91FF90EF90DF90CF9008
:102CD000BF90AF909F908F900895CF93DF93CDB723
:102CE000DEB780910B0392E2899FD0011124AE5E82
:102CF000BE4F92E2FE01359601900D929A95E1F752
:102D00008F5F80930B03DF91CF910895019727E3A5
:102D1000289FF001299FF00D1124EE5DFD4F2081C9
:102D200031812230310539F02330310551F0213025
:102D30003105D9F406C082899389892BC1F083E0DB
:102D4000089527E3289FF001299FF00D1124EE5DDF
:102D5000FD4F20E030E0A90160A571A582A593A5F3
:102D60000E944E2118162CF402C080E0089581E0E4
:102D7000089582E008952F923F924F925F926F9252
:102D80007F928F929F92AF92BF92CF92DF92EF92FB
:102D9000FF920F931F93CF93DF9300D000D0CDB756
:102DA000DEB79C838B83680F791FFB01319780818D
:102DB000882391F06FEF89E694E00E94E81D63E0BC
:102DC00089E694E00E94E81D61E189E694E00E94B2
:102DD000E81D2FEF3FEF45C4AB81BC818C9182345D
:102DE00059F038F48233E0F0863330F08E33C1F49A
:102DF00003C084548330A0F4EB81FC818281843051
:102E000078F06FEF89E694E00E94E81D63E089E6C0
:102E100094E00E94E81D61E189E694E00E94E81DCB
:102E2000AB81BC814C9150E0FA01F097E632F1059C
:102E300008F006C4EC5CFF4F0C94F321109253028F
:102E40001092520210928A02109289021092C102CC
:102E50001092C0021092F8021092F7023BC3AB81AD
:102E6000BC811296EC91B7E3EB9FF0011124EE5D6B
:102E7000FD4FAB81BC8113968C911397868B178A7B
:102E800012968C9190E001960E94C80F23C3AB81EB
:102E9000BC811296EC91B7E3EB9FF0011124EE5D3B
:102EA000FD4F868909C3EB81FC81C380D480E58016
:102EB000F68020E030E0A901C701B6010E94FF1FA3
:102EC00087FF04C0F7FAF094F7F8F09422E93AE0AB
:102ED00046E050E4C701B6010E944E21181644F4A2
:102EE00082E9C82E8AE0D82E86E0E82E80E4F82E0B
:102EF000AB81BC811296EC91B7E3EB9FF0011124FA
:102F0000EE5DFD4FC0A6D1A6E2A6F3A6E3C2AB815B
:102F1000BC811296EC91B7E3EB9FF0011124EE5DBA
:102F2000FD4F80A591A5A2A5B3A5EDC1CB80DC8006
:102F3000E2E0CE0ED11C0AE4A02E02E0B02EE12C7D
:102F4000F12CFFEFEF1AFF0AD5010D911D912D9184
:102F50003C91F60141915191619171916F01C701CD
:102F60000E945401F7E3AF0EB11C24E0E216F10415
:102F700041F7B0C2CB80DC8082E0C80ED11C1AE4DD
:102F8000A12E12E0B12EE12CF12C9FEFE91AF90AE3
:102F9000D5010D911D912D913C91F60141915191D9
:102FA000619171916F01C7010E94A602F7E3AF0E14
:102FB000B11C24E0E216F10441F78CC2CB80DC8026
:102FC00082E0C80ED11CBAE4AB2EB2E0BB2EE12CDD
:102FD000F12C9FEFE91AF90AD5010D911D912D9160
:102FE0003C91F60141915191619171916F01C7013D
:102FF0000E941D04F7E3AF0EB11C24E0E216F104B9
:1030000041F768C2EB80FC8082E0E80EF11C00E032
:1030100010E00F5F1F4FD7014D915D916D917D9134
:103020007D01C8010E94FE000430110591F752C2D3
:1030300080914E0290914F02A0915002B0915102A6
:103040008093350490933604A0933704B0933804EA
:103050008091850290918602A0918702B0918802AA
:103060008093390490933A04A0933B04B0933C04BA
:103070008091BC029091BD02A091BE02B091BF02AE
:1030800080933D0490933E04A0933F04B09340048A
:103090008091F3029091F402A091F502B091F602B2
:1030A0008093410490934204A0934304B09344045A
:1030B00060E170E0C0C2AEE4CA2EA2E0DA2EE12CDC
:1030C000F12C87010B5C1B4FF60164817581882709
:1030D00077FD8095982F0E949E202BED3FE049ECD4
:1030E00050E40E9452219B01AC01D6016D917D916B
:1030F0008D919C910E949B1FF80160837183828354
:103100009383F7E3CF0ED11C24E0E20EF11C80E1A3
:10311000E816F104B1F6CCCF0E94CD1B60933504C4
:1031200070933604809337049093380480914E0254
:1031300090914F02A0915002B091510280933904B6
:1031400090933A04A0933B04B0933C048091850291
:1031500090918602A0918702B091880280933D04ED
:1031600090933E04A0933F04B09340048091BC022E
:103170009091BD02A091BE02B091BF028093410424
:1031800090934204A0934304B09344048091F302CB
:103190009091F402A091F502B091F602809345045B
:1031A00090934604A0934704B093480464E170E010
:1031B00042C20E94CD1B6093350470933604809305
:1031C000370490933804FEE4CF2EF2E0DF2E04E0C3
:1031D00010E0E5E3EE2EE4E0FE2EE00EF11ED60157
:1031E00014966D917C911597882777FD8095982F7F
:1031F0000E949E202BED3FE049EC50E40E945221BA
:103200009B01AC01F60160817181828193810E94F2
:103210009B1FD7016D937D938D939C931397B7E379
:10322000CB0ED11C0C5F1F4F0431110591F6BECFA0
:10323000AB81BC811296EC918E2F90E0B7E3EB9FAF
:10324000F0011124EE5DFD4F00A511A522A533A5C7
:10325000EB81FC81438154816581768101960E94D6
:10326000540138C1AB81BC811296EC918E2F90E055
:10327000B7E3EB9FF0011124EE5DFD4F00A511A512
:1032800022A533A5EB81FC81438154816581768140
:1032900001960E94A6021EC1AB81BC811296EC91E0
:1032A0008E2F90E0B7E3EB9FF0011124EE5DFD4F10
:1032B00000A511A522A533A5EB81FC814381548192
:1032C0006581768101960E941D0404C1AB81BC8199
:1032D00013964D915D916D917C91169712968C91FC
:1032E00090E001960E94FE00F5C0AB81BC81129671
:1032F000EC91B7E3EB9FF0011124EE5DFD4F84A547
:1033000095A5A6A5B7A58093350490933604A09300
:103310003704B093380493C0EB81FC810281F7E35A
:103320000F9F800111240E5D1D4FD801D0966D9125
:103330007C91D197882777FD8095982F0E949E20B9
:103340002BED3FE049EC50E40E9452219B01AC017F
:10335000F80164A575A586A597A50E949B1F67C067
:103360000E94CD1B6093350470933604809337041C
:1033700090933804AB81BC811296EC91B7E3EB9F3C
:10338000F0011124EE5DFD4F84A595A5A6A5B7A576
:103390008093390490933A04A0933B04B0933C0487
:1033A00068E070E048C1EB81FC81828190E0019689
:1033B0000E94861681C082E99AE0A6E0B0E4A3CF1D
:1033C000AB81BC8112968C9190E00E94020C2FC0C0
:1033D0000E94E1072CC08091FE029091FF02A09113
:1033E0000003B09101038FCFEB81FC818281938137
:1033F000A481B5818093FE029093FF02A093000305
:10340000B093010367C0809102039091030325E00C
:10341000289FB001299F700D112480E090E00E9448
:103420009C2020E030E04AE754E40E9403206093AF
:10343000350470933604809337049093380464E025
:1034400070E0F9C020E030E04AE754E4AB81BC8191
:1034500012966D917D918D919C9115970E945221AC
:1034600020E030E040EA50E40E9403200E947020F7
:1034700070930303609302032DC00E943A062AC092
:103480008FE31AC0EB81FC81428153816481758195
:10349000409305035093060360930703709308035A
:1034A00086818093090316C0AB81BC8112968C91F2
:1034B000809304030FC083E08093350461E070E0E3
:1034C000BAC0EB81FC81428161E170E08FE594E05C
:1034D0000E947F1B60E070E080E090E0AEC008E3F7
:1034E00012E08B819C8105969A838983212C312C53
:1034F00075E0872E912CA12CB12C44244A94542C95
:103500003201AB81BC8112968C9190E0022C02C0FA
:10351000959587950A94E2F780FF30C0E981FA819A
:1035200032978081F80180831182E981FA81319795
:103530008081D8011C968C931C971D961C92E98162
:10354000FA81C080D180E280F380C10101960E949F
:10355000C80FF7FE08C0D80118964D925D926D9283
:103560007C921B970BC0C701B601A50194010E9474
:10357000D721F8012087318742875387FFEF2F1A21
:103580003F0A095C1F4F89819A8106969A83898335
:1035900094E02916310409F0B4CF9CCF0E94CD1BD2
:1035A0006093350470933604809337049093380405
:1035B0005EE4852E52E0952E69E4C62E64E0D62E98
:1035C00004E010E0E12CF12CAFEFEA1AFA0A45E32F
:1035D000A42E44E0B42EA00EB11EF40164817581C6
:1035E000882777FD8095982F0E949E202BED3FE045
:1035F00049EC50E40E9452219B01AC01D4016D9131
:103600007D918D919C910E949B1FF5016083718338
:1036100082839383C7010E948616D6018D936D0124
:10362000B7E38B0E911C0C5F1F4FE4E0EE16F10424
:1036300059F668E170E085E394E00E94A20F0FC0A4
:103640006FEF89E694E00E94E81D63E089E694E06C
:103650000E94E81D61E189E694E00E94E81D20E0F7
:1036600030E0C9010F900F900F900F90DF91CF9134
:103670001F910F91FF90EF90DF90CF90BF90AF9090
:103680009F908F907F906F905F904F903F902F9082
:10369000089589E694E00E94851D181619065CF5C8
:1036A00089E694E00E94B41D97FF05C010922F0395
:1036B00010922E03089520912E0330912F03F901CB
:1036C000E05DFC4F8083C901019690932F038093A6
:1036D0002E0382309105ECF26091310370E068179F
:1036E0007907B9F680E393E00E94BB1610922F038E
:1036F00010922E03CECF0895CB010C94F921CB016B
:10370000642F0C9401221F920F920FB60F92112476
:103710002F933F938F939F93AF93BF9380916004B8
:1037200090916104A0916204B091630430916804A7
:10373000232F2D5F2D3720F40196A11DB11D05C04B
:10374000232F2A570296A11DB11D20936804809350
:10375000600490936104A0936204B0936304809129
:10376000640490916504A0916604B0916704019689
:10377000A11DB11D8093640490936504A093660419
:10378000B0936704BF91AF919F918F913F912F911B
:103790000F900FBE0F901F9018950F931F938FB728
:1037A000F8940091600410916104209162043091BA
:1037B00063048FBFB801C9011F910F9108950F9342
:1037C0001F939FB7F89400916404109165042091B1
:1037D00066043091670486B5A89B06C08F3F21F030
:1037E0000F5F1F4F2F4F3F4F9FBF322F212F102FA3
:1037F0000027080F111D211D311D42E0000F111F70
:10380000221F331F4A95D1F7B801C9011F910F91AB
:103810000895CF92DF92EF92FF92CF93DF936B01E7
:103820007C010E94DF1BEB010EC00E94DF1B6C1BA2
:103830007D0B683E734038F081E0C81AD108E1087A
:10384000F108C851DC4FC114D104E104F10469F757
:10385000DF91CF91FF90EF90DF90CF900895789413
:1038600084B5826084BD84B5816084BD85B5826085
:1038700085BD85B5816085BDEEE6F0E08081816023
:103880008083E1E8F0E01082808182608083808123
:1038900081608083E0E8F0E0808181608083E1EBFB
:1038A000F0E0808184608083E0EBF0E080818160E3
:1038B0008083EAE7F0E08081846080838081826099
:1038C0008083808181608083808180688083109282
:1038D000C1000895833069F028F48130A1F082306E
:1038E00011F514C08630B1F08730C1F08430D9F4BE
:1038F00004C0809180008F7703C0809180008F7D0D
:1039000080938000089584B58F7702C084B58F7D41
:1039100084BD08958091B0008F7703C08091B0007E
:103920008F7D8093B0000895CF93DF9390E0FC01EA
:10393000E853FF4F4491FC01E452FF4F84918823E8
:1039400041F190E0880F991FFC01E650FF4F25914F
:103950003491D90180519F4FFC0185919491C82FDA
:10396000D92F9FB7F8948C91611106C0409584239C
:103970008C938881842308C0623041F4242F2095E1
:1039800082238C938881842B888302C0842B8C9320
:103990009FBFDF91CF9108950F931F93CF93DF9334
:1039A0001F92CDB7DEB7282F30E0F901EC54FF4F5E
:1039B0008491F901E853FF4F1491F901E452FF4F4C
:1039C00004910023D1F0882321F069830E946A1CAE
:1039D0006981E02FF0E0EE0FFF1FE051FF4F85916E
:1039E0009491DC019FB7F8948C91611103C01095FC
:1039F000812301C0812B8C939FBF0F90DF91CF91CA
:103A00001F910F9108958E3008F08E50877020918D
:103A1000000140E4249F90011124822B80937C00BC
:103A200080917A00806480937A0080917A0086FD8C
:103A3000FCCF2091780030917900932F80E0AC0189
:103A4000422B9A01C90108951F93CF93DF93182F3A
:103A5000EB0161E00E94941C209711F460E004C027
:103A6000CF3FD10539F461E0812FDF91CF911F91D4
:103A70000C94CC1CE12FF0E0EC54FF4FE491E330C8
:103A8000B9F028F4E13051F0E230B1F50CC0E63085
:103A900019F1E73049F1E43079F514C084B5806854
:103AA00084BDC7BD2EC084B5806284BDC8BD29C099
:103AB00080918000806880938000D0938900C093BB
:103AC00088001FC080918000806280938000D09326
:103AD0008B00C0938A0015C08091B00080688093ED
:103AE000B000C093B3000DC08091B000806280939D
:103AF000B000C093B40005C0C038D1050CF0B3CFFE
:103B0000ADCFDF91CF911F910895FC0184859585FC
:103B1000FC01E05CFF4F20813181FC01EE5BFF4F37
:103B200080819181281B390B2F733327C901089598
:103B3000FC0184859585FC01E05CFF4F408151814B
:103B4000FC01EE5BFF4F208131814217530741F0AA
:103B50000190F081E02DE80FF91F208130E002C0D4
:103B60002FEF3FEFC9010895FC0184859585FC0185
:103B7000E05CFF4F40815181FC01EE5BFF4F2081F3
:103B800031814217530771F0A081B181A80FB91F8D
:103B90002C918081918101968F73992791838083E5
:103BA00030E002C02FEF3FEFC9010895FC01868588
:103BB0009785FC01E05CFF4FDC01AE5BBF4F4081AD
:103BC00051812D913C91119742175307C1F70895E8
:103BD000CF93DF93FC0126853785D901A05CBF4FC9
:103BE0008D919C91119701968F739927E901CE5B76
:103BF000DF4F4881598184179507D9F30D90BC9107
:103C0000A02DA20FB31F6C93A685B785A05CBF4FF4
:103C100011969C938E93A689B7892C9181E090E0B0
:103C2000058C02C0880F991F0A94E2F7282B2C9369
:103C300081E090E0DF91CF91089508951F920F9257
:103C40000FB60F9211242F933F934F938F939F930F
:103C5000EF93FF934091C60080910C0590910D0564
:103C600001968F73992720910E0530910F058217C9
:103C7000930759F0E0910C05F0910D05E453FB4FCB
:103C8000408390930D0580930C05FF91EF919F91D8
:103C90008F914F913F912F910F900FBE0F901F90DA
:103CA000189589E694E00E94851D892B11F00C94EB
:103CB0001D1E08951F920F920FB60F9211242F937D
:103CC0003F938F939F93EF93FF932091C80430917C
:103CD000C9048091CA049091CB042817390731F4A4
:103CE0008091C1008F7D8093C10014C0E091CA040F
:103CF000F091CB04E857FB4F20818091CA0490914A
:103D0000CB0401968F7399279093CB048093CA04B8
:103D10002093C600FF91EF919F918F913F912F913A
:103D20000F900FBE0F901F901895CF92DF92EF92D9
:103D3000FF92CF93DF93EC016A017B01411581EE85
:103D4000580761057105F9F0EC89FD8981E090E083
:103D50000E8C02C0880F991F0A94E2F7808360E0FE
:103D600079E08DE390E0A70196010E94B5212150F2
:103D700031094109510956954795379527952115E0
:103D800080E1380798F0EC89FD89108260E874E8DA
:103D90008EE190E0A70196010E94B52121503109E2
:103DA000410951095695479537952795E889F9892D
:103DB0003083EA89FB892083EE89FF89408181E095
:103DC00090E09C010A8C02C0220F331F0A94E2F794
:103DD000422B4083EE89FF8940819C010B8C02C0FD
:103DE000220F331F0A94E2F7422B4083EE89FF89AA
:103DF00040819C010C8C02C0220F331F0A94E2F711
:103E0000422B4083EE89FF8920810D8C02C0880FF0
:103E1000991F0A94E2F7809582238083DF91CF91E6
:103E2000FF90EF90DF90CF90089510926C04109265
:103E30006B0488EE93E0A0E0B0E080936D04909373
:103E40006E04A0936F04B093700485E091E09093AA
:103E50006A04809369048CEC94E0909376048093D8
:103E6000750488E894E0909378048093770485EC57
:103E700090E090937A048093790484EC90E090939E
:103E80007C0480937B0480EC90E090937E0480938C
:103E90007D0481EC90E09093800480937F0486EC15
:103EA00090E0909382048093810484E08093830463
:103EB00083E08093840487E08093850485E0809389
:103EC000860481E0809387040895CF92DF92EF9279
:103ED000FF920F931F93CF93DF936C01EB017A0155
:103EE000E60EF71E00E010E00BC06991D601ED91DF
:103EF000FC910190F081E02DC6010995080F191F72
:103F0000CE15DF0591F7C801DF91CF911F910F9179
:103F1000FF90EF90DF90CF9008950E942F1C0E9499
:103F20009706C1E5DEE10E94AC072097E1F30E940D
:103F3000511EF9CF5058BB27AA270ED075C166D1A4
:103F400030F06BD120F031F49F3F11F41EF45BC1CF
:103F50000EF4E095E7FB51C1E92F77D180F3BA1752
:103F6000620773078407950718F071F49EF58FC1F7
:103F70000EF4E0950B2EBA2FA02D0B01B901900184
:103F80000C01CA01A0011124FF27591B99F0593FC8
:103F900050F4503E68F11A16F040A22F232F342F10
:103FA0004427585FF3CF469537952795A795F0405E
:103FB0005395C9F77EF41F16BA0B620B730B840B73
:103FC000BAF09150A1F0FF0FBB1F661F771F881F2B
:103FD000C2F70EC0BA0F621F731F841F48F4879583
:103FE00077956795B795F7959E3F08F0B3CF939572
:103FF000880F08F09927EE0F979587950895D9D0E7
:1040000008F481E008950CD00FC107D140F0FED034
:1040100030F021F45F3F19F0F0C0511139C1F3C005
:1040200014D198F39923C9F35523B1F3951B550B7C
:10403000BB27AA2762177307840738F09F5F5F4F7B
:10404000220F331F441FAA1FA9F333D00E2E3AF0BC
:10405000E0E830D091505040E695001CCAF729D0D6
:10406000FE2F27D0660F771F881FBB1F2617370725
:104070004807AB07B0E809F0BB0B802DBF01FF2755
:1040800093585F4F2AF09E3F510568F0B6C000C1BB
:104090005F3FECF3983EDCF3869577956795B7958F
:1040A000F7959F5FC9F7880F911D9695879597F9AA
:1040B0000895E1E0660F771F881FBB1F6217730723
:1040C0008407BA0720F0621B730B840BBA0BEE1F38
:1040D00088F7E095089504D06894B111D9C0089587
:1040E000BCD088F09F5790F0B92F9927B751A0F016
:1040F000D1F0660F771F881F991F1AF0BA95C9F77C
:1041000012C0B13081F0C3D0B1E00895C0C0672FB4
:10411000782F8827B85F39F0B93FCCF3869577952B
:104120006795B395D9F73EF4909580957095619514
:104130007F4F8F4F9F4F0895E89409C097FB3EF43F
:1041400090958095709561957F4F8F4F9F4F9923E4
:10415000A9F0F92F96E9BB279395F6958795779562
:104160006795B795F111F8CFFAF4BB0F11F460FF22
:104170001BC06F5F7F4F8F4F9F4F16C0882311F07A
:1041800096E911C0772321F09EE8872F762F05C08E
:10419000662371F096E8862F70E060E02AF09A9529
:1041A000660F771F881FDAF7880F9695879597F91E
:1041B0000895990F0008550FAA0BE0E8FEEF1616B8
:1041C0001706E807F907C0F012161306E407F5070B
:1041D00098F0621B730B840B950B39F40A2661F07F
:1041E000232B242B252B21F408950A2609F4A14022
:1041F000A6958FEF811D811D089597F99F6780E82F
:1042000070E060E008959FEF80EC089500240A9428
:104210001616170618060906089500240A941216A1
:104220001306140605060895092E0394000C11F4D4
:10423000882352F0BB0F40F4BF2B11F460FF04C081
:104240006F5F7F4F8F4F9F4F089557FD9058440FDA
:10425000551F59F05F3F71F04795880F97FB991FE5
:1042600061F09F3F79F087950895121613061406A2
:10427000551FF2CF4695F1DF08C01616170618062F
:10428000991FF1CF86957105610508940895E8940A
:10429000BB2766277727CB0197F908958ADF08F4B3
:1042A0008FEF08950BD0C0CFB1DF28F0B6DF18F044
:1042B000952309F0A2CFA7CF1124EACFC6DFA0F340
:1042C000959FD1F3950F50E0551F629FF001729FAB
:1042D000BB27F00DB11D639FAA27F00DB11DAA1FCA
:1042E000649F6627B00DA11D661F829F2227B00D17
:1042F000A11D621F739FB00DA11D621F839FA00DA2
:10430000611D221F749F3327A00D611D231F849FF1
:10431000600D211D822F762F6A2F11249F57504048
:104320008AF0E1F088234AF0EE0FFF1FBB1F661FE3
:10433000771F881F91505040A9F79E3F510570F09C
:104340005CCFA6CF5F3FECF3983EDCF38695779584
:104350006795B795F795E7959F5FC1F7FE2B880F97
:10436000911D9695879597F90895A1E21A2EAA1B9B
:10437000BB1BFD010DC0AA1FBB1FEE1FFF1FA21715
:10438000B307E407F50720F0A21BB30BE40BF50B12
:10439000661F771F881F991F1A9469F7609570959B
:1043A000809590959B01AC01BD01CF010895052E2C
:1043B00097FB16F4009407D057FD0DD00E94B5214D
:1043C00007FC09D07EF490958095709561957F4F9C
:1043D0008F4F9F4F089550954095309521953F4FB1
:1043E0004F4F5F4F0895EE0FFF1F0590F491E02DA2
:1043F0000994F999FECF92BD81BDF89A992780B5AD
:104400000895262FF999FECF1FBA92BD81BD20BD18
:104410000FB6F894FA9AF99A0FBE01960895F89497
:02442000FFCFCC
:104422000100000000E81D651F851DB41D981DD602
:024432001D006B
:00000001FF
