:100000000C947E000C94A6000C94A6000C94A60000
:100010000C94A6000C94A6000C94A6000C94A600C8
:100020000C94A6000C94A6000C94A6000C94A600B8
:100030000C94A6000C94A6000C94A6000C94A600A8
:100040000C940B180C94A6000C94A61A0C94E21AAB
:100050000C94A6000C94A6000C94A6000C94A60088
:100060000C94A6000C94A6007D159315A712B2124D
:10007000BB12CB12D712F512131331134113841391
:10008000AF13FC13321447145C1471147B149114D5
:10009000AF14CF1408150D15121515151E152B15B7
:1000A00048155F1562156A157A15000000070002F1
:1000B000010000030406000000000000000001022F
:1000C00004081020408001020408102001020408E6
:1000D00010200404040404040404020202020202C4
:1000E00003030303030300000000250028002B0086
:1000F00000000000240027002A009D1B11241FBEC1
:10010000CFEFD8E0DEBFCDBF11E0A0E0B1E0EAEF75
:10011000FCE302C005900D92A231B107D9F715E0BA
:10012000A2E1B1E001C01D92A030B107E1F710E0FB
:10013000CCEFD0E004C02297FE010E94611ECA3FAE
:10014000D107C9F70E94151C0C947B1E0C9400006B
:10015000AF92BF92CF92DF92EF92FF920F931F93D5
:10016000CF93DF93CDB7DEB760970FB6F894DEBFBD
:100170000FBECDBF69837A838B839C832D833E839F
:100180004F835887E986FA860B871C87AD86BE8623
:10019000CF86D88A9E012F5F3F4FE6E4F2E0AE01A2
:1001A0004F5E5F4F63E070E0D901CD90DD90ED9040
:1001B000FD909D01C082D182E282F382DF0194979B
:1001C0006D937C93F3962417350771F780E090E0E8
:1001D00060960FB6F894DEBF0FBECDBFDF91CF9112
:1001E0001F910F91FF90EF90DF90CF90BF90AF9055
:1001F0000895CF92DF92EF92FF92CF93DF936A013F
:100200007B019C012150310943E3429FE001439F60
:10021000D00D1124CE5DDD4F0297029708F520E046
:1002200030E044EB52E4C701B6010E94D61D181617
:100230008CF020E030E044EB52ECC701B6010E94A4
:10024000871C87FF0DC0C12CD12C34EBE32E32EC80
:10025000F32E06C0C12CD12C24EBE22E22E4F22E88
:1002600082E090E099838883CA82DB82EC82FD82FF
:100270001B8A1A8A88EE93E09F8F8E8F80E090E031
:10028000DF91CF91FF90EF90DF90CF9008952F9264
:100290003F924F925F926F927F928F929F92AF9216
:1002A000BF92CF92DF92EF92FF920F931F93CF9363
:1002B000DF93CDB7DEB727970FB6F894DEBF0FBE3A
:1002C000CDBF9A8389834A015B0168017901019757
:1002D00023E3289FA001299F500D11244E5D5D4FFF
:1002E0005F834E8389819A810297029708F520E007
:1002F00030E044EB52E4C501B4010E94D61D18164B
:100300008CF020E030E044EB52ECC501B4010E94D7
:10031000871C87FF0DC0812C912C54EBA52E52EC2D
:10032000B52E06C0812C912C44EBA42E42E4B42EB1
:10033000EE81FF8140A451A462A473A4A3019201A1
:10034000C501B4010E94221C8B011C0120E030E099
:10035000A901712F932D0E94D61D18166CF425E368
:100360003AEF4EE85DE3602F712F822D932D0E94AE
:10037000871C87FF2BC00CC025E33AEF4EE85DEBEE
:10038000602F712F822D932D0E94D61D1816F4F424
:10039000B501A40189819A8127960FB6F894DEBF32
:1003A0000FBECDBFDF91CF911F910F91FF90EF90C6
:1003B000DF90CF90BF90AF909F908F907F906F9085
:1003C0005F904F903F902F900C94F90020E030E028
:1003D000A901C701B6010E94871CA701960187FDEC
:1003E0005058602F712F822D932D0E948B1C20E07E
:1003F00030E04AE754E40E94DA1D69837B838C83F2
:100400009D8320E030E0A901602F712F822D932D74
:100410000E94D61D20E030E0A90118163CF4C70167
:10042000B6010E94871C87FF0BC006C0C701B6013A
:100430000E94871C87FD04C0F7FAF094F7F8F09447
:10044000EE81FF81C4A2D5A2E6A2F7A2EE81FF81D0
:10045000428253826482758216861786108A118AB8
:1004600020E030E040EA50E4B981AB81EC811D81AD
:100470006B2F7A2F8E2F912F0E948B1C8B013C01AA
:10048000CB01D3016C017D0120E030E0A901B8016E
:10049000C3010E94871C87FF04C0C701B6019058A2
:1004A00002C0B801C3010E94F31CEE81FF81778F67
:1004B000668F138A128A808E918EA28EB38E81E00F
:1004C00090E0958F848F83E090E09183808380E03B
:1004D00090E027960FB6F894DEBF0FBECDBFDF9138
:1004E000CF911F910F91FF90EF90DF90CF90BF9031
:1004F000AF909F908F907F906F905F904F903F90C4
:100500002F9008952F923F924F925F926F927F9219
:100510008F929F92AF92BF92CF92DF92EF92FF9213
:100520000F931F93CF93DF93CDB7DEB727970FB607
:10053000F894DEBF0FBECDBF9E838D834A015B0161
:1005400068017901019723E3289F1001299F300C4E
:10055000112482E292E0280E391E8D819E8102973D
:10056000029708F520E030E044EB52E4C501B40105
:100570000E94D61D18168CF020E030E044EB52ECBF
:10058000C501B4010E94871C87FF0DC0812C912CEE
:1005900074EBA72E72ECB72E06C0812C912C64EB65
:1005A000A62E62E4B62ED10198968D919D910D9064
:1005B000BC91A02D89839A83AB83BC83F10164A590
:1005C00075A5882777FD8095982F0E94261D2BED15
:1005D0003FE049EC50E40E94DA1D9B01AC016981C7
:1005E0007A818B819C810E94231C9B01AC01C501F7
:1005F000B4010E94221C2B013C0120E030E0A90143
:10060000752D972D0E94D61D18166CF425E33AEF30
:100610004EE85DE3642D752D862D972D0E94871C75
:1006200087FF2BC00CC025E33AEF4EE85DEB642D4D
:10063000752D862D972D0E94D61D1816F4F4B50140
:10064000A4018D819E8127960FB6F894DEBF0FBE60
:10065000CDBFDF91CF911F910F91FF90EF90DF9071
:10066000CF90BF90AF909F908F907F906F905F9052
:100670004F903F902F900C94F90020E030E0A901BA
:10068000C701B6010E94871CA701960187FD50583B
:10069000642D752D862D972D0E948B1C20E030E057
:1006A0004AE754E40E94DA1D8B018F839D8320E08A
:1006B00030E0A901642D752D862D972D0E94D61D41
:1006C00020E030E0A901181694F4C701B6010E9499
:1006D000871C87FF04C0F7FAF094F7F8F094D10173
:1006E0009496CD92DD92ED92FC9297970FC0C70140
:1006F000B6010E94871C87FD04C0F7FAF094F7F852
:10070000F094F101C4A2D5A2E6A2F7A289819A8150
:10071000AB81BC81F10182839383A483B583168668
:100720001786108A118A20E030E040EA50E4FF8109
:10073000ED81602F712F8F2F9E2F0E948B1C8B01BC
:100740003C01CB01D3016C017D0120E030E0A90127
:10075000B801C3010E94871C87FF04C0C701B6010E
:10076000905802C0B801C3010E94F31CF101778FB9
:10077000668F138A128A808E918EA28EB38E81E04C
:1007800090E0958F848F83E090E09183808380E078
:1007900090E027960FB6F894DEBF0FBECDBFDF9175
:1007A000CF911F910F91FF90EF90DF90CF90BF906E
:1007B000AF909F908F907F906F905F904F903F9001
:1007C0002F9008952F923F924F925F926F927F9257
:1007D0008F929F92AF92BF92CF92DF92EF92FF9251
:1007E0000F931F93CF93DF931C014A015B016801B4
:1007F0007901019723E3289FE001299FD00D11245F
:10080000CE5DDD4FC1010297029708F520E030E090
:1008100044EB52E4C501B4010E94D61D18168CF0B9
:1008200020E030E044EB52ECC501B4010E94871C8B
:1008300087FF0DC0812C912CF4EBAF2EF2ECBF2E74
:1008400006C0812C912CE4EBAE2EE2E4BE2E28A54E
:1008500039A54AA55BA5C501B4010E94221C0E94CE
:10086000DC0B2B013C0120E030E0A9010E94D61DE9
:1008700018165CF425E33AEF4EE85DE3C301B201DC
:100880000E94871C87FF22C00AC025E33AEF4EE88A
:100890005DEBC301B2010E94D61D1816BCF4B50170
:1008A000A401C101DF91CF911F910F91FF90EF90B3
:1008B000DF90CF90BF90AF909F908F907F906F9080
:1008C0005F904F903F902F900C94F90020E030E023
:1008D000A901C701B6010E94871CA701960187FDE7
:1008E0005058C301B2010E948B1C20E030E04AE75F
:1008F00054E40E94DA1D1B018C0120E030E0A901C4
:10090000C301B2010E94D61D20E030E0A9011816F3
:100910003CF4C701B6010E94871C87FF0BC006C0CC
:10092000C701B6010E94871C87FD04C0F7FAF09446
:10093000F7F8F094CCA2DDA2EEA2FFA288A599A5BB
:10094000AAA5BBA58A839B83AC83BD831E861F8615
:10095000188A198A20E030E040EA50E4622D732DB5
:10096000802F912F0E948B1C6B017C01CB01D70142
:100970002C013D0120E030E0A901B601C7010E9431
:10098000871C87FF04C0C301B201905802C0B601A2
:10099000C7010E94F31C7F8F6E8F1B8A1A8A888E74
:1009A000998EAA8EBB8E81E090E09D8F8C8F83E024
:1009B00090E09983888380E090E0DF91CF911F9150
:1009C0000F91FF90EF90DF90CF90BF90AF909F90EE
:1009D0008F907F906F905F904F903F902F900895F1
:1009E000CF92DF92EF92FF92CF93DF93EC016A01F7
:1009F0007B0122E93AE046E050E4C701B6010E94DB
:100A0000D61D1816C4F0219783E38C9FF0018D9FAB
:100A1000F00D1124EE5DFD4FC4A2D5A2E6A2F7A20F
:100A200083E090E0918380838FEF9FEF978F868F95
:100A300020E030E002C021E030E0C901DF91CF9139
:100A4000FF90EF90DF90CF900895CF939B0184307B
:100A5000910519F43195219531092138310564F456
:100A600020384FEF34071CF037FD03C007C020E8E3
:100A70003FEFC22FC19503C020E830E0C22FAC0188
:100A80004150510963E3649FF001659FF00D11240B
:100A9000EE5DFD4FC1A38230910521F124F4019751
:100AA00009F06AC007C083309105A1F1049709F0ED
:100AB00063C048C0121613061CF461E084E00EC047
:100AC00060E084E0232B51F00E94541961E08DE036
:100AD0000E9454196C2F70E08BE04BC00E94541997
:100AE00060E0F5CF121613061CF461E085E008C043
:100AF00060E085E0232B21F00E94541961E003C0DF
:100B00000E94541960E082E00E9454196C2F70E03A
:100B100083E02FC0121613061CF461E087E008C0C2
:100B200060E087E0232B21F00E94541961E003C0AC
:100B30000E94541960E086E00E9454196C2F70E006
:100B400089E017C0121613061CF461E088E008C0A3
:100B500060E088E0232B21F00E94541961E003C07B
:100B60000E94541960E08CE00E9454196C2F70E0D0
:100B70008AE0CF910C94AC19CF9108951F93CF9335
:100B8000DF93C0E0D0E013E31C9FF0011D9FF00D48
:100B90001124EE5DFD4F11821082219660E070E01D
:100BA000CE010E942505C430D10571F780E090E0A8
:100BB000DF91CF911F910895FC0111821082128262
:100BC0001382148215824CE45DE36FE074E4468383
:100BD00057836087718748E253EE6BE273E4428784
:100BE00053876487758716861786108A118A138A39
:100BF000128A158A148A178A168A108E118E128EFE
:100C0000138E158E148E8FEF9FEF978F868F80E84F
:100C100080A34BED5FE069E47FE344A355A366A3A3
:100C200077A315A614A608958F929F92AF92BF92B4
:100C3000CF92DF92EF92FF920F931F93CF93DF93A8
:100C4000CDB7DEB7C454D1090FB6F894DEBF0FBEDE
:100C5000CDBF00E010E033E3F32EF09EC001F19E23
:100C6000900D11248E5D9D4F0E94DC050F5F1F4F7C
:100C70000430110591F761E087E00E941C1961E0E2
:100C800088E00E941C1961E089E00E941C1968E05C
:100C900070E089E090E00E94F60A61E086E00E9440
:100CA0001C1961E085E00E941C1961E08AE00E9445
:100CB0001C1968E070E08AE090E00E94F60A61E0AA
:100CC00084E00E941C1961E082E00E941C1961E02E
:100CD00083E00E941C1968E070E083E090E00E94CD
:100CE000F60A61E08CE00E941C1961E08DE00E9430
:100CF0001C1961E08BE00E941C1968E070E08BE039
:100D000090E00E94F60A40E051EE60E070E089E574
:100D100094E00E941D1B89E594E00E945E1A61E048
:100D20008EE00E941C190E94D215892B09F461C023
:100D30001092FC021092FB028BED882E8FE0982E11
:100D400089E4A82E81E4B82E9BEDC92E9FE0D92E10
:100D500099ECE92E9FE3F92E97018601B501A401D4
:100D6000CE0183960E94B9178DB79EB782970FB6B2
:100D7000F8949EBF0FBE8DBFADB7BEB7119682E28D
:100D8000FE01B39601900D928A95E1F70E94EB1750
:100D90000FB6F894DEBF0FBECDBF812C912C54014D
:100DA0002BEDC22E2FE0D22E29ECE22E2FEBF22ECD
:100DB00097018601B501A401CE0101960E94B917E1
:100DC0008DB79EB782970FB6F8949EBF0FBE8DBFAA
:100DD000ADB7BEB7119682E2FE01319601900D9239
:100DE0008A95E1F70E94EB170FB6F894DEBF0FBEAD
:100DF000CDBF61E08EE00E9454191092FA02109269
:100E0000F90284E690E09093F3028093F20283EC7F
:100E100098EBA2E3BEE38093EE029093EF02A093DF
:100E2000F002B093F1021092F402CC5BDF4F0FB6E8
:100E3000F894DEBF0FBECDBFDF91CF911F910F9110
:100E4000FF90EF90DF90CF90BF90AF909F908F90EA
:100E50000895CF92DF92EF92FF920F931F930E941B
:100E600055180091FD021091FE022091FF02309171
:100E700000036B017C01C01AD10AE20AF30A970150
:100E80008601053011052105310570F06093FD02E2
:100E90007093FE028093FF02909300030E94020F62
:100EA0000E943F080E94950B0E949F151F910F9171
:100EB000FF90EF90DF90CF900C94CE1687E00E94C9
:100EC0008B19BC01882777FD8095982F0E94261DDD
:100ED00020E030E040E85AE30E94DA1D20E030E0F4
:100EE00040EA50E40E94DA1D08950E945E0720E067
:100EF00030E040EA50E40E94221C20E030E0A901EA
:100F00000E94871C87FF11C00E945E0720E030E02E
:100F100040EA50E40E94221C2DEC3CEC4CEC5DEBD2
:100F20000E94D61D18168CF012C00E945E0720E0A9
:100F300030E040EA50E40E94221C2DEC3CEC4CECEA
:100F40005DE30E94871C87FF02C080E008950E9435
:100F50005E0720E030E040E250E40E94221C20E0E6
:100F600030E0A9010E94871C87FF12C00E945E0723
:100F700020E030E040E250E40E94221C2DEC3CECEA
:100F80004CEC5DEB0E94D61D18160CF474C010C01A
:100F90000E945E0720E030E040E250E40E94221C04
:100FA0002DEC3CEC4CEC5DE30E94871C87FD63C09C
:100FB0000E945E072DE33AE047E550E40E94221CC0
:100FC00020E030E0A9010E94871C87FF12C00E9428
:100FD0005E072DE33AE047E550E40E94221C2DEC29
:100FE0003CEC4CEC5DEB0E94D61D18160CF445C091
:100FF00010C00E945E072DE33AE047E550E40E94EE
:10100000221C2DEC3CEC4CEC5DE30E94871C87FD20
:1010100034C00E945E0727ED33EA40E050E40E94AE
:10102000221C20E030E0A9010E94871C87FF11C02C
:101030000E945E0727ED33EA40E050E40E94221C44
:101040002DEC3CEC4CEC5DEB0E94D61D18168CF0A0
:101050007CCF0E945E0727ED33EA40E050E40E9417
:10106000221C2DEC3CEC4CEC5DE30E94871C87FFBE
:101070006CCF83E0089581E0089582E008953F9267
:101080004F925F926F927F928F929F92AF92BF9298
:10109000CF92DF92EF92FF920F931F93CF93DF9344
:1010A000CDB7DEB7CA51D1400FB6F894DEBF0FBE40
:1010B000CDBF0E947507382E1091010318270E949A
:1010C00055182B013C01112309F457C280910203EA
:1010D00090910303A0910403B0910503A301920131
:1010E000281B390B4A0B5B0BDA01C901893E93407F
:1010F000A105B10508F441C28091F402882309F4E6
:101100003FC080E2CF5EDE4F8883C151D1408AE08C
:10111000CE5EDE4F8883C251D1404092060350928A
:1011200007036092080370920903CD5EDE4F488288
:1011300059826A827B82C351D140C95EDE4F1883D7
:10114000C751D140812F8321C85EDE4F8883C851AB
:10115000D140832D80958123C75EDE4F8883C9519E
:10116000D140C65EDE4F1882CA51D1404AE050E0FD
:10117000BE016F5E7E4F89E594E00E94ED1BF5C1D4
:10118000812F832141F040920A0350920B03609219
:101190000C0370920D03832D8095812309F4E5C122
:1011A0000E94BF0B20910103213009F09BC1809167
:1011B0000A0390910B03A0910C03B0910D03B301AE
:1011C000A201481B590B6A0B7B0B493B5B40610535
:1011D000710508F4C2C11092FC021092FB02209328
:1011E000FA0201E010E04BED5FE069EC7FE3C8013B
:1011F0000E94F0040F5F1F4F05301105A1F79BED12
:10120000892E9FE0992E99ECA92E9FE3B92E7501A6
:10121000640195018401B501A401CE0181519F4F64
:101220000E94B917EDB7FEB7B2970FB6F894FEBF9C
:101230000FBEEDBFADB7BEB7119682E2FE01E15120
:10124000FF4F01900D928A95E1F70E94EB170FB6C0
:10125000F894DEBF0FBECDBF2BED822E2FE0922E75
:1012600029E4A22E20E4B22EC12CD12C76019701C4
:101270008601B501A401CE0183539F4F0E94B91787
:101280004DB75EB7425251090FB6F8945EBF0FBE1C
:101290004DBFADB7BEB7119682E2FE01E353FF4FDB
:1012A00001900D928A95E1F70E94EB170FB6F89422
:1012B000DEBF0FBECDBF34EE832E3BEC932E36E95E
:1012C000A32E30E4B32E4BEDC42E4FE0D42E49ECC8
:1012D000E42E4FEBF42E97018601B501A401CE0157
:1012E00085559F4F0E94B917EDB7FEB7B2970FB65D
:1012F000F894FEBF0FBEEDBFADB7BEB7119682E248
:10130000FE01E555FF4F01900D928A95E1F70E948D
:10131000EB170FB6F894DEBF0FBECDBF812C912C1A
:1013200054017501640195018401B501A401CE0148
:1013300087579F4F0E94B9174DB75EB74252510968
:101340000FB6F8945EBF0FBE4DBFADB7BEB71196D6
:1013500082E2FE01E757FF4F01900D928A95E1F777
:101360000E94EB170FB6F894DEBF0FBECDBF5BED4A
:10137000852E5FE0952E59ECA52E5FEBB52E6BED1B
:10138000C62E6FE0D62E69ECE62E6FE3F62E97019F
:101390008601B501A401CE0189599F4F0E94B9175A
:1013A000EDB7FEB7B2970FB6F894FEBF0FBEEDBF14
:1013B000ADB7BEB7119682E2FE01E959FF4F019029
:1013C0000D928A95E1F70E94EB170FB6F894DEBFF5
:1013D0000FBECDBF7BED872E7FE0972E79E4A72E41
:1013E00070ECB72EC12CD12C760197018601B50186
:1013F000A401CE018B5B9F4F0E94B9174DB75EB71A
:10140000425251090FB6F8945EBF0FBE4DBFADB743
:10141000BEB7119682E2FE01EB5BFF4F01900D9289
:101420008A95E1F70E94EB170FB6F894DEBF0FBE66
:10143000CDBFE4EE8E2EEBEC9E2EE6E9AE2EE0EC78
:10144000BE2EFBEDCF2EFFE0DF2EF9ECEF2EFFEBF3
:10145000FF2E97018601B501A401CE0183960E945B
:10146000B917EDB7FEB7B2970FB6F894FEBF0FBE2F
:10147000EDBFADB7BEB7119682E2FE01B396019003
:101480000D928A95E1F70E94EB170FB6F894DEBF34
:101490000FBECDBF812C912C5401750164019501C3
:1014A0008401B501A401CE0101960E94B9174DB780
:1014B0005EB7425251090FB6F8945EBF0FBE4DBFE2
:1014C000ADB7BEB7119682E2FE01319601900D9242
:1014D0008A95E1F70E94EB170FB6F894DEBF0FBEB6
:1014E000CDBF3BC02230A9F582E2E82E82E0F82E83
:1014F00001E010E080E090E0F70120813181232BB2
:1015000051F060E070E0C8010E942505F7011182EA
:10151000108281E090E00F5F1F4FF3E3EF0EF11CAC
:101520000530110549F7892BC1F4E12CF12C2FEF7F
:10153000E21AF20A0BED1FE029EC3FE340E050E035
:10154000BA01C7010E94470134E0E316F10479F7BC
:1015500004C0233011F40E94A2164092020350925C
:101560000303609204037092050340920A035092B1
:101570000B0360920C0370920D038091F4028111B1
:1015800018C041E0341215C00E94551840900A035B
:1015900050900B0360900C0370900D036419750953
:1015A00086099709693B7B408105910510F00E94EF
:1015B000BF0B3092010380E090E0C65EDE4F0FB6B5
:1015C000F894DEBF0FBECDBFDF91CF911F910F9179
:1015D000FF90EF90DF90CF90BF90AF909F908F9053
:1015E0007F906F905F904F903F9008959C012550A1
:1015F00031092230310530F08930910519F08A30F7
:10160000910569F560347105A1F044F4613071050C
:1016100071F06830710509F054C011C0611581E0A6
:10162000780749F06115744009F04BC006C081E0AD
:1016300007C083E005C084E003C085E001C082E00C
:101640002230310528F495B5987F982B95BD0895E3
:1016500090918100987F982B90938100089583301A
:10166000910511F00B9769F560347105D9F054F4C8
:1016700068307105F9F06032710591F061307105E3
:1016800001F50CC0611581E0780781F0611584E0F7
:10169000780771F060387105A1F406C081E00BC0D5
:1016A00083E009C084E007C085E005C086E003C090
:1016B00087E001C082E09091B100987F982B9093D1
:1016C000B10008950E948B19BC01882777FD809591
:1016D000982F0E94261D20E030E040EA50E40E944E
:1016E000DA1D20E030E040E85AE30E94DA1D089558
:1016F000CF93DF93CAE0D0E061E08EE00E945419FE
:1017000064E670E080E090E00E94911860E08EE076
:101710000E94541964E670E080E090E00E94911805
:10172000219751F7DF91CF9108958091F902882395
:1017300029F10E9455182091F5023091F60240914E
:10174000F7025091F8020E943D1E20FF11C061E097
:101750008EE00E94541980912404811105C080916B
:10176000F90281508093F90281E080932404089566
:1017700060E08EE00E945419109224040895CF93E3
:10178000DF93C3E0D0E060E08EE00E94541964E68D
:1017900070E080E090E00E94911861E08EE00E948D
:1017A000541964E670E080E090E00E94911821975F
:1017B00051F7DF91CF9108950F931F93CF93DF934C
:1017C0000BC02BED3FE049EC50E4FE01602F712F80
:1017D0008F2F9C2F0E94231C8B01D82FC92F2BEDFC
:1017E0003FE049E450ECFE01712F8F2F9E2F0E94A5
:1017F000871C87FDE6CF0EC02BED3FE049EC50E49F
:10180000FE01602F712F8F2F9C2F0E94221C8B01B5
:10181000D82FC92F2BED3FE049E450E4FE01602FA3
:10182000712F8F2F9C2F0E94D61D18162CF39E010E
:10183000602F712F832F9C2FDF91CF911F910F91DC
:1018400008952F923F924F925F926F927F928F9264
:101850009F92AF92BF92CF92DF92EF92FF920F933F
:101860001F93CF93DF931C0180912004909121045A
:10187000892B09F09CC085E090E00E94620B20E07B
:1018800030E040E250E40E94221C8B01D82FC92F87
:10189000AB01682F792F4A015B0186E090E00E943E
:1018A000620B20E030E040E250E40E94221C462F10
:1018B000572F682F792F2A013B0120E030E0A90142
:1018C000B8018D2F9C2F0E94871C87FF04C0B7FA98
:1018D000B094B7F8B09420E030E0A901C301B201A0
:1018E0000E94871C87FF04C077FA709477F8709481
:1018F000A3019201C501B4010E94871C87FF03C0A8
:1019000081E090E002C082E090E090932104809317
:10191000200481E090E00E94620B20E030E040E291
:1019200050E40E94221C8B01D82FC92FAB01682FD5
:10193000792F4A015B0182E090E00E94620B20E077
:1019400030E040E250E40E94221C462F572F682FBF
:10195000792F2A013B0120E030E0A901B8018D2F49
:101960009C2F0E94871C87FF04C0B7FAB094B7F879
:10197000B09420E030E0A901C301B2010E94871CAD
:1019800087FF04C077FA709477F87094A3019201EE
:10199000C501B4010E94871C87FF03C081E090E06D
:1019A00002C082E090E0909323048093220482E0BE
:1019B0002816310409F4DBC02CF42A94232809F0FA
:1019C00004C20BC083E02816310409F4FBC084E094
:1019D0002816310409F0F9C120C185E090E00E9489
:1019E000620B4B015C0186E090E00E94620B6B0190
:1019F0007C0120E030E040E250E4C501B4010E94E7
:101A0000221C8B01D82FC92F20E030E040E250E4A7
:101A1000C701B6010E94221C6B017C018091200449
:101A200090912104019769F520E030E0A901FE01C1
:101A3000602F712F8F2F9E2F0E94871C87FF0EC053
:101A400020E030E040E050ECFE01602F712F8F2F3E
:101A50009E2F0E94871C87FF14C00DC020E030E03D
:101A600040E050E4FE01602F712F8F2F9E2F0E94C7
:101A7000D61D181634F482E090E0909321048093F0
:101A800020048091200490912104029751F520E0D8
:101A900030E0A9016C2D7D2D8E2D9F2D0E94871C7D
:101AA00087FF0DC020E030E040E050EC6C2D7D2D34
:101AB0008E2D9F2D0E94871C87FF13C00CC020E035
:101AC00030E040E050E46C2D7D2D8E2D9F2D0E9446
:101AD000D61D181634F481E090E090932104809391
:101AE0002004809120049091210420E030E04AEA13
:101AF00053E4029799F46C2D7D2D8E2D9F2D0E941D
:101B0000DA1D20E030E040EA50E40E948B1C20E027
:101B100030E044E353E40E94231C0DC0FE01602F1B
:101B2000712F8F2F9C2F0E94DA1D20E030E040EAB9
:101B300050E40E948B1C462F572F682F792FCB0122
:101B4000BA0190582BED3FE049E450E40E94DA1DC1
:101B500020E030E044E353E40E948B1C20915002CB
:101B600030915102409152025091530218C184E0C9
:101B700090E00E94620B20E030E040E250E40E94DE
:101B8000221C20E030E04AEA53E40E94DA1D20E003
:101B900030E040EA50E40E948B1C2BED3FE049E42A
:101BA00050E40E94DA1D20E030E044E353E40E9458
:101BB0008B1C2091830230918402409185025091C8
:101BC0008602EDC083E090E00E94620B20E030E0EE
:101BD00040E250E40E94221C20E030E04AEA53E454
:101BE0000E94DA1D20E030E040EA50E40E948B1CA5
:101BF0002BED3FE049E450E40E94DA1D20E030E0A4
:101C000044E353E40E948B1C2091B6023091B7024A
:101C10004091B8025091B902C2C081E090E00E94A8
:101C2000620B4B015C0182E090E00E94620B6B0151
:101C30007C0120E030E040E250E4C501B4010E94A4
:101C4000221C8B01D82FC92F20E030E040E250E465
:101C5000C701B6010E94221C6B017C018091220405
:101C600090912304019769F520E030E0A901FE017D
:101C7000602F712F8F2F9E2F0E94871C87FF0EC011
:101C800020E030E040E050ECFE01602F712F8F2FFC
:101C90009E2F0E94871C87FF14C00DC020E030E0FB
:101CA00040E050E4FE01602F712F8F2F9E2F0E9485
:101CB000D61D181634F482E090E0909323048093AC
:101CC00022048091220490912304029751F520E090
:101CD00030E0A9016C2D7D2D8E2D9F2D0E94871C3B
:101CE00087FF0DC020E030E040E050EC6C2D7D2DF2
:101CF0008E2D9F2D0E94871C87FF13C00CC020E0F3
:101D000030E040E050E46C2D7D2D8E2D9F2D0E9403
:101D1000D61D181634F481E090E09093230480934C
:101D20002204809122049091230420E030E04AEACA
:101D300053E4029799F46C2D7D2D8E2D9F2D0E94DA
:101D4000DA1D20E030E040EA50E40E948B1C20E0E5
:101D500030E044E353E40E94231C0DC0FE01602FD9
:101D6000712F8F2F9C2F0E94DA1D20E030E040EA77
:101D700050E40E948B1C2BED3FE049E450E40E94AC
:101D8000DA1D20E030E044E353E40E948B1C2091F4
:101D9000E9023091EA024091EB025091EC020E947C
:101DA000231CDF91CF911F910F91FF90EF90DF9057
:101DB000CF90BF90AF909F908F907F906F905F90EB
:101DC0004F903F902F900C94DC0B0E94780B50E0CA
:101DD00040E030E82FEB652F742F832F922FDF9197
:101DE000CF911F910F91FF90EF90DF90CF90BF9018
:101DF000AF909F908F907F906F905F904F903F90AB
:101E00002F9008952F923F924F925F926F927F9200
:101E10008F929F92AF92BF92CF92DF92EF92FF92FA
:101E20000F931F93CF93DF93CDB7DEB72A970FB6EB
:101E3000F894DEBF0FBECDBF84E492E09A8389831D
:101E4000A2E2B2E0BA87A987E3E4F2E0F887EF8381
:101E50008AE4282E82E0382E8EE093E09C838B83E8
:101E600094E5692E92E0792EA2E4B2E0BE83AD83C0
:101E70002EE4422E22E0522E01E010E0EF81F885A0
:101E80008081A981BA816D917C91680F711D88272D
:101E900077FD8095982F0E94261D20E030E049E9CB
:101EA00052E40E94221C0E94F31C77FD05C0E981C8
:101EB000FA817183608304C0A981BA811D921C924A
:101EC000E981FA8160817181882777FD8095982F5B
:101ED0000E94261D20E03AE645E158E40E94D61D06
:101EE00018160CF4D0C0C8010E94210C6B017C01B3
:101EF000D1016D937D938D939C93139720E030E0F7
:101F000040E450EC0E94871C87FF14C020E030E0C2
:101F100040E450E4EB81FC81608171818281938196
:101F20000E94D61D181634F4D2018D919C91119700
:101F300001961DC020E030E040E450E4C701B60146
:101F40000E94D61D1816ACF420E030E040E450ECBE
:101F5000EB81FC8160817181828193810E94871C69
:101F600087FF07C0D2018D919C91119701978D93A6
:101F70009C93F10180819181A281B381EB81FC81ED
:101F800080839183A283B383A985BA858D919C9127
:101F9000119782309105F1F08330910509F4F7C073
:101FA000019709F01FC2FD0186899789009719F4EE
:101FB0001182108217C2019729F4AD81BE816C9104
:101FC00070E063C0ED81FE81608170E07195619584
:101FD00071095BC0A985BA855E968D919C915F97CA
:101FE000009761F452968D919C915397892B09F437
:101FF00089C08FEF9FEFE985FA8500C11816190691
:102000003CF40197A985BA855F969C938E935E9761
:10201000F1012081318142815381A985BA851296CF
:102020006D917D918D919C9115970E94221C0E942B
:10203000DC0B6B017C0120E030E0A9010E94871CD1
:1020400087FF0BC025E33AEF4EE05DEBC701B60119
:102050000E94D61D18165CF024C025E33AEF4EE02E
:102060005DE3C701B6010E94871C87FF1AC081E0AB
:1020700090E0E985FA85938B828B84899589892BF9
:1020800041F01182108260E070E0C8010E942505D5
:10209000A9C1EFEFFFEFA985BA855F96FC93EE9398
:1020A0005E97A985BA8552968D919C915397892BFD
:1020B00061F120E030E0A901C701B6010E94871C50
:1020C00087FF04C0C701B601905802C0C701B6011E
:1020D0002091EE023091EF024091F0025091F10216
:1020E0000E94D61D18168CF4F30120812F5F2083E7
:1020F00030E08091F2029091F3028217930738F456
:10210000A985BA851D921C92BECFF3011082A985C4
:10211000BA8516962D913D914D915C911997C70105
:10212000B6010E94DA1D4B015C01E985FA8526851E
:1021300037854089518962857385848595850E949C
:10214000DA1D9B01AC01C501B4010E94231C0E9451
:10215000F31CC8010E9425052AE037ED43EA5BE342
:10216000C701B6010E94DA1D9B01AC01A985BA85A1
:102170001E966D917D918D919C9151970E94231C8B
:10218000E985FA8566877787808B918B2BC1A98536
:10219000BA855E968D919C915F970097D9F5E1E0A5
:1021A000F0E05396FC93EE9352971E961D921D926B
:1021B0001D921C925197E2E0F0E01196FC93EE9391
:1021C0005C968D919C915D97892B81F058964D91ED
:1021D0005D916D917C915B9712964D935D936D939C
:1021E0007C9315975D961C921E925C97E985FA8503
:1021F00084899589892B29F088EC90E0978F868FC8
:10220000F1C0EFEFFFEFA985BA855F96FC93EE93DF
:102210005E97E8C0181619063CF40197A985BA859F
:102220005F969C938E935E972AE037ED43EA5BE3DB
:10223000E985FA8564A175A186A197A10E94DA1D9E
:10224000A985BA8512962D913D914D915C91159776
:102250000E94231CFB01462F5F2F682F792FA98531
:10226000BA8512964D935D936D937C931597980163
:10227000225031092230310568F520E030E044EB8E
:1022800052ECBF010E94871C87FF0AC040E050E06B
:1022900064EB72ECE985FA8542835383648375832A
:1022A00020E030E044EB52E4A985BA8512966D91A6
:1022B0007D918D919C9115970E94D61D181654F40E
:1022C00040E050E064EB72E4E985FA854283538391
:1022D00064837583D1012D913D914D915C91E98588
:1022E000FA8562817381848195810E94221C0E94FB
:1022F000DC0B6B017C0120E030E0A9010E94871C0F
:102300004601570187FF04C0B7FAB094B7F8B094FC
:102310006091EE027091EF028091F0029091F102D3
:102320009B01AC010E94231C9B01AC01C501B401BF
:102330000E94D61DD30118169CF42C912F5F2C936C
:1023400030E08091F2029091F3028217930708F037
:1023500049C0E985FA8511821082158E148E93CEBC
:102360001C92E985FA852681378140855185C70110
:10237000B6010E94DA1D4B015C01A985BA851E9643
:102380002D913D914D915C9151971A966D917D9152
:102390008D919C911D970E94DA1D9B01AC01C50196
:1023A000B4010E94231C0E94F31CC8010E94250551
:1023B0002AE037ED43EA5BE3C701B6010E94DA1D6C
:1023C0009B01AC01E985FA856685778580899189CD
:1023D0000E94231CA985BA851E966D937D938D93CB
:1023E0009C9351970F5F1F4FE981FA81F396FA830F
:1023F000E98389859A85C3969A878987AF81B8854D
:10240000D396B887AF83B3E32B0E311CEB81FC81ED
:102410003496FC83EB83F3E36F0E711C8D819E81F8
:10242000C3969E838D8393E3490E511C053011059D
:1024300009F024CD2A960FB6F894DEBF0FBECDBFAB
:10244000DF91CF911F910F91FF90EF90DF90CF9090
:10245000BF90AF909F908F907F906F905F904F90C4
:102460003F902F9008950F931F93CF93DF938C018C
:10247000EB0160E189E594E00E94701A6C2F6D5FBA
:1024800089E594E00E94701A1C161D0634F4AE0112
:10249000B80189E594E00E94ED1B61E189E594E0D3
:1024A0000E94701A80E090E0DF91CF911F910F9110
:1024B0000895CF92DF92EF92FF920F931F93CF93E5
:1024C000DF93EC01680F791FFB013197808188232E
:1024D00091F06FEF89E594E00E94701A63E089E55E
:1024E00094E00E94701A61E189E594E00E94701AFC
:1024F0002FEF3FEF1AC38881823459F038F48233CA
:10250000D0F0863330F08E33B1F403C0845483307E
:1025100090F48A81843078F06FEF89E594E00E942E
:10252000701A63E089E594E00E94701A61E189E520
:1025300094E00E94701A488150E0FA01F097E1326D
:10254000F10508F0E1C2EC5CFF4F0C945F1EEA81DC
:1025500023E3E29FF0011124EE5DFD4F8B81868B1A
:10256000178ACBC2EA8183E3E89FF0011124EE5D74
:10257000FD4F8689A8C24B815C816D817E81EA8195
:1025800023E3E29FF0011124EE5DFD4F44A355A328
:1025900066A377A3B2C2EA8183E3E89FF001112426
:1025A000EE5DFD4F84A195A1A6A1B7A1AFC16E01BB
:1025B000E2E0CE0ED11CC6E4D2E0E12CF12CFFEF1C
:1025C000EF1AFF0A088119812A813B81F6014191A6
:1025D0005191619171916F01C7010E944701E3968A
:1025E000F4E0EF16F10459F788C26E0122E0C20E42
:1025F000D11CC6E4D2E0E12CF12C8FEFE81AF80AE6
:10260000088119812A813B81F601419151916191A3
:1026100071916F01C7010E948202E396F4E0EF1608
:10262000F10459F76AC26E0122E0C20ED11CC6E461
:10263000D2E0E12CF12C8FEFE81AF80A0881198119
:102640002A813B81F60141915191619171916F0114
:10265000C7010E94E203E396F4E0EF16F10459F794
:102660004CC2229600E010E00F5F1F4F4991599134
:1026700069917991C8010E94F90004301105A1F710
:102680003CC280914A0290914B02A0914C02B091C1
:102690004D028093250490932604A0932704B093C1
:1026A000280480917D0290917E02A0917F02B091DA
:1026B00080028093290490932A04A0932B04B09362
:1026C0002C048091B0029091B102A091B202B0911D
:1026D000B30280932D0490932E04A0932F04B09303
:1026E00030048091E3029091E402A091E502B09160
:1026F000E6028093310490933204A0933304B093A4
:10270000340460E170E0E3C1CAE4D2E0E12CF12CD2
:1027100087010B5D1B4F6C817D81882777FD80953C
:10272000982F0E94261D2BED3FE049EC50E40E94BB
:10273000DA1D9B01AC01688179818A819B810E94AD
:10274000231CF8016083718382839383E396F4E012
:10275000EF0EF11C20E1E216F104D1F6D2CF0E9477
:102760005518609325047093260480932704909352
:10277000280480914A0290914B02A0914C02B091A2
:102780004D028093290490932A04A0932B04B093C4
:102790002C0480917D0290917E02A0917F02B091E5
:1027A000800280932D0490932E04A0932F04B09365
:1027B00030048091B0029091B102A091B202B09128
:1027C000B3028093310490933204A0933304B09306
:1027D00034048091E3029091E402A091E502B0916B
:1027E000E6028093350490933604A0933704B093A7
:1027F000380464E170E06BC10E94551860932504B1
:10280000709326048093270490932804CAE4D2E0AE
:1028100004E010E035E2E32E34E0F32EE00EF11E8A
:102820006C817D81882777FD8095982F0E94261DD9
:102830002BED3FE049EC50E40E94DA1D9B01AC0116
:10284000688179818A819B810E94231CF7016083C2
:10285000718382839383E3960C5F1F4F04311105CC
:10286000C9F6C7CFEA818E2F90E023E3E29FF00103
:102870001124EE5DFD4F04A115A126A137A14B81C6
:102880005C816D817E8101960E94470136C1EA819B
:102890008E2F90E023E3E29FF0011124EE5DFD4FC7
:1028A00004A115A126A137A14B815C816D817E8198
:1028B00001960E94820221C1EA818E2F90E023E3DB
:1028C000E29FF0011124EE5DFD4F04A115A126A1A8
:1028D00037A14B815C816D817E8101960E94E2036C
:1028E0000CC14B815C816D817E818A8190E0019673
:1028F0000E94F90002C1EA8183E3E89FF0011124FC
:10290000EE5DFD4F80A591A5A2A5B3A580932504FA
:1029100090932604A0932704B093280464E070E009
:10292000D6C0CA81E3E3CE9FE0011124CE5DDD4F26
:102930006CA57DA5882777FD8095982F0E94261D80
:102940002BED3FE049EC50E40E94DA1D9B01AC0105
:1029500068A579A58AA59BA50E94231C90C00E940A
:102960005518609325047093260480932704909350
:102970002804EA8123E3E29FF0011124EE5DFD4F7C
:1029800080A591A5A2A5B3A58093290490932A04BC
:10299000A0932B04B0932C0468E070E098C0EA8107
:1029A0002E2F30E083E3E89FF0011124EE5DFD4F10
:1029B0008081918181309105A1F01CF4892B41F037
:1029C00084C08230910539F0039709F07EC009C0B8
:1029D000109225047AC082899389892BA9F083E01B
:1029E00072C083E3829FF001839FF00D1124EE5D9E
:1029F000FD4F20E030E0A90164A175A186A197A157
:102A00000E94D61D181614F481E05DC082E05BC000
:102A100082E99AE0A6E0B0E479CF8A8190E00E9452
:102A2000620B2DC00E945E072AC08091EE02909139
:102A3000EF02A091F002B091F10268CF8A819B81F0
:102A4000AC81BD818093EE029093EF02A093F002DF
:102A5000B093F10252C08091F2029091F30225E00E
:102A6000289FB001299F700D112480E090E00E9402
:102A7000241D20E030E04AE754E40E948B1C609360
:102A8000250470932604809327049093280446CF4E
:102A900020E030E04AE754E46A817B818C819D81AB
:102AA0000E94DA1D20E030E040EA50E40E948B1CD6
:102AB0000E94F81C7093F3026093F2021EC00E9401
:102AC000BE051BC081E28093250461E070E085E2D1
:102AD00094E017C04A815B816C817D814093F5024F
:102AE0005093F6026093F7027093F8028E81809300
:102AF000F90203C08A818093F40260E070E080E014
:102B000090E00E9433120FC06FEF89E594E00E94BD
:102B1000701A63E089E594E00E94701A61E189E52A
:102B200094E00E94701A20E030E0C901DF91CF915B
:102B30001F910F91FF90EF90DF90CF90089589E55E
:102B400094E00E940D1A181619065CF589E594E0C8
:102B50000E943C1A97FF05C010921F0310921E039B
:102B6000089520911E0330911F03F901E05EFC4F90
:102B70008083C901019690931F0380931E038230C6
:102B80009105ECF26091210370E068177907B9F6BE
:102B900080E293E00E94591210921F0310921E03CC
:102BA000CECF08957F928F929F92AF92BF92CF9295
:102BB000DF92EF92FF920F931F93CF93DF9300D09A
:102BC00000D0CDB7DEB760E170E08FE494E00E9402
:102BD0000418813A69F5A12CB12C00E010E063E300
:102BE000962E909E6001919ED00C112480E592E07B
:102BF000C80ED91EE12CF12CB7016A0D7B1D8FE4A4
:102C000094E00E940418F60181936F01FFEFEF1A20
:102C1000FF0A84E0E816F10479F70F5F1F4F94E094
:102C2000A90EB11C04301105E1F620E030E077C0B8
:102C300050E5A52E52E0B52E812C912C01E010E03C
:102C4000C8010E94210C6B017C01C8010297029708
:102C500060F520E030E0A901C701B6010E94871CA1
:102C600087FF0DC020E030E04CE852ECC701B60110
:102C70000E94871C782E771C7724771C0DC0772440
:102C8000739420E030E04CE852E4C701B6010E94A2
:102C9000D61D18160CF0712CC982DA82EB82FC82E8
:102CA000772019F00E94780BFDCFF7FAF094F7F82F
:102CB000F094C982DA82EB82FC82F501C082D18273
:102CC000E282F382CC24C394D12CCC0EDD1EE12C05
:102CD000F12CF60141916F01B701680D791D8FE468
:102CE00094E00E940718FFEFEF1AFF0A84E0E8164D
:102CF000F10479F70F5F1F4F94E0890E911CE3E315
:102D0000AE0EB11C0530110509F09ACF41EA60E121
:102D100070E08FE494E00E94071821E030E0C901E0
:102D20000F900F900F900F90DF91CF911F910F9107
:102D3000FF90EF90DF90CF90BF90AF909F908F90DB
:102D40007F900895109250021092510210925202F8
:102D50001092530210928302109284021092850204
:102D6000109286021092B6021092B7021092B80228
:102D70001092B9021092E9021092EA021092EB024C
:102D80001092EC0240EA60E170E08FE494E00E946F
:102D900007180E94D21580E090E00895AF92BF928C
:102DA000CF92DF92EF92FF920F931F93CF93DF9317
:102DB0003091FC022091FB02321780F01092FC024D
:102DC000E8E1F1E080E090E030E004C011821082A0
:102DD0000196B29682179307CCF3C0C082E2389F67
:102DE000E0011124CE5EDE4F10924E0410924D048D
:102DF000088119810130110539F00230110509F4FB
:102E00005DC0012B51F1AAC08E819F81892B41F4B5
:102E10000E9455186A837B838C839D831F830E8356
:102E20000E945518288539856901EE24D7FCE09465
:102E3000FE2C0A811B812C813D81C00ED11EE21E19
:102E4000F31EC616D706E806F90608F087C080917B
:102E5000FC028F5F8093FC0281C08E819F81892B51
:102E600069F0E4E3F2E080819181892B09F476C076
:102E7000F39683E0E030F807B1F76DC00E94551873
:102E80006A837B838C839D836E01E12CF12CEFEFB1
:102E9000EE1AFE0AF60142855385648575850BEDB1
:102EA0001FE029EC3FE3C7010E944701F4E0CF0E89
:102EB000D11C84E0E816F10451F748C08E819F814F
:102EC000892B61F10E945518288539856901EE2406
:102ED000D7FCE094FE2C0A811B812C813D81C00E21
:102EE000D11EE21EF31EC616D706E806F906B0F597
:102EF0008091FC028F5F8093FC021092230210925B
:102F000022021092560210925502109289021092DB
:102F100088021092BC021092BB0220C00E94551879
:102F20006A837B838C839D83AE88BF88C88CD98C51
:102F3000EA88FB880C891D892E853F854889598937
:102F40006A857B858C859D850E94A80081E090E044
:102F50009F838E8303C03F5F3093FC02DF91CF914C
:102F60001F910F91FF90EF90DF90CF90BF90AF90A7
:102F700008958F929F92AF92BF92CF92DF92EF927D
:102F8000FF920F931F93CF93DF93CDB7DEB7FC0172
:102F9000118210821782168211861086428753870B
:102FA0006487758706871787208B318BC28AD38AFF
:102FB000E48AF58A868A978AA08EB18EDF91CF91B6
:102FC0001F910F91FF90EF90DF90CF90BF90AF9047
:102FD0009F908F900895CF93DF93CDB7DEB7809108
:102FE000FB0292E2899FD0011124AE5EBE4F92E2B5
:102FF000FE01359601900D929A95E1F78F5F8093CF
:10300000FB02DF91CF910895CB010C94651ECB019B
:10301000642F0C946D1E1F920F920FB60F92112405
:103020002F933F938F939F93AF93BF9380915004BF
:1030300090915104A0915204B091530430915804DE
:10304000232F2D5F2D3720F40196A11DB11D05C042
:10305000232F2A570296A11DB11D20935804809357
:10306000500490935104A0935204B0935304809160
:10307000540490915504A0915604B09157040196C0
:10308000A11DB11D8093540490935504A093560440
:10309000B0935704BF91AF919F918F913F912F9122
:1030A0000F900FBE0F901F9018950F931F938FB71F
:1030B000F8940091500410915104209152043091E1
:1030C00053048FBFB801C9011F910F9108950F9349
:1030D0001F939FB7F89400915404109155042091C8
:1030E00056043091570486B5A89B06C08F3F21F047
:1030F0000F5F1F4F2F4F3F4F9FBF322F212F102F9A
:103100000027080F111D211D311D42E0000F111F66
:10311000221F331F4A95D1F7B801C9011F910F91A2
:103120000895CF92DF92EF92FF92CF93DF936B01DE
:103130007C010E946718EB010EC00E9467186C1B8F
:103140007D0B683E734038F081E0C81AD108E10871
:10315000F108C851DC4FC114D104E104F10469F74E
:10316000DF91CF91FF90EF90DF90CF90089578940A
:1031700084B5826084BD84B5816084BD85B582607C
:1031800085BD85B5816085BDEEE6F0E0808181601A
:103190008083E1E8F0E0108280818260808380811A
:1031A00081608083E0E8F0E0808181608083E1EBF2
:1031B000F0E0808184608083E0EBF0E080818160DA
:1031C0008083EAE7F0E08081846080838081826090
:1031D0008083808181608083808180688083109279
:1031E000C1000895833069F028F48130A1F0823065
:1031F00011F514C08630B1F08730C1F08430D9F4B5
:1032000004C0809180008F7703C0809180008F7D03
:1032100080938000089584B58F7702C084B58F7D38
:1032200084BD08958091B0008F7703C08091B00075
:103230008F7D8093B0000895CF93DF9390E0FC01E1
:10324000E254FF4F4491FC01EE52FF4F84918823DA
:1032500041F190E0880F991FFC01E051FF4F25914B
:103260003491D9018A519F4FFC0185919491C82FC7
:10327000D92F9FB7F8948C91611106C04095842393
:103280008C938881842308C0623041F4242F2095D8
:1032900082238C938881842B888302C0842B8C9317
:1032A0009FBFDF91CF9108950F931F93CF93DF932B
:1032B0001F92CDB7DEB7282F30E0F901E655FF4F5A
:1032C0008491F901E254FF4F1491F901EE52FF4F3E
:1032D00004910023D1F0882321F069830E94F21821
:1032E0006981E02FF0E0EE0FFF1FEA51FF4F85915B
:1032F0009491DC019FB7F8948C91611103C01095F3
:10330000812301C0812B8C939FBF0F90DF91CF91C0
:103310001F910F9108958E3008F08E508770209184
:10332000000140E4249F90011124822B80937C00B3
:1033300080917A00806480937A0080917A0086FD83
:10334000FCCF2091780030917900932F80E0AC0180
:10335000422B9A01C90108951F93CF93DF93182F31
:10336000EB0161E00E941C19209711F460E004C099
:10337000CF3FD10539F461E0812FDF91CF911F91CB
:103380000C945419E12FF0E0E655FF4FE491E3303F
:10339000B9F028F4E13051F0E230B1F50CC0E6307C
:1033A00019F1E73049F1E43079F514C084B580684B
:1033B00084BDC7BD2EC084B5806284BDC8BD29C090
:1033C00080918000806880938000D0938900C093B2
:1033D00088001FC080918000806280938000D0931D
:1033E0008B00C0938A0015C08091B00080688093E4
:1033F000B000C093B3000DC08091B0008062809394
:10340000B000C093B40005C0C038D1050CF0B3CFF4
:10341000ADCFDF91CF911F910895FC0184859585F3
:10342000FC01E05CFF4F20813181FC01EE5BFF4F2E
:1034300080819181281B390B2F733327C90108958F
:10344000FC0184859585FC01E05CFF4F4081518142
:10345000FC01EE5BFF4F208131814217530741F0A1
:103460000190F081E02DE80FF91F208130E002C0CB
:103470002FEF3FEFC9010895FC0184859585FC017C
:10348000E05CFF4F40815181FC01EE5BFF4F2081EA
:1034900031814217530771F0A081B181A80FB91F84
:1034A0002C918081918101968F73992791838083DC
:1034B00030E002C02FEF3FEFC9010895FC0186857F
:1034C0009785FC01E05CFF4FDC01AE5BBF4F4081A4
:1034D00051812D913C91119742175307C1F70895DF
:1034E000CF93DF93FC0126853785D901A05CBF4FC0
:1034F0008D919C91119701968F739927E901CE5B6D
:10350000DF4F4881598184179507D9F30D90BC91FD
:10351000A02DA20FB31F6C93A685B785A05CBF4FEB
:1035200011969C938E93A689B7892C9181E090E0A7
:10353000058C02C0880F991F0A94E2F7282B2C9360
:1035400081E090E0DF91CF91089508951F920F924E
:103550000FB60F9211242F933F934F938F939F9306
:10356000EF93FF934091C6008091FC049091FD047D
:1035700001968F7399272091FE043091FF048217E2
:10358000930759F0E091FC04F091FD04E454FB4FE3
:1035900040839093FD048093FC04FF91EF919F91F1
:1035A0008F914F913F912F910F900FBE0F901F90D1
:1035B000189589E594E00E940D1A892B11F00C945E
:1035C000A51A08951F920F920FB60F9211242F93F0
:1035D0003F938F939F93EF93FF932091B804309183
:1035E000B9048091BA049091BB042817390731F4CB
:1035F0008091C1008F7D8093C10014C0E091BA0416
:10360000F091BB04E858FB4F20818091BA0490915F
:10361000BB0401968F7399279093BB048093BA04DF
:103620002093C600FF91EF919F918F913F912F9131
:103630000F900FBE0F901F901895CF92DF92EF92D0
:10364000FF92CF93DF93EC016A017B01411581EE7C
:10365000580761057105F9F0EC89FD8981E090E07A
:103660000E8C02C0880F991F0A94E2F7808360E0F5
:1036700079E08DE390E0A70196010E943D1E215064
:1036800031094109510956954795379527952115D7
:1036900080E1380798F0EC89FD89108260E874E8D1
:1036A0008EE190E0A70196010E943D1E2150310954
:1036B000410951095695479537952795E889F98924
:1036C0003083EA89FB892083EE89FF89408181E08C
:1036D00090E09C010A8C02C0220F331F0A94E2F78B
:1036E000422B4083EE89FF8940819C010B8C02C0F4
:1036F000220F331F0A94E2F7422B4083EE89FF89A1
:1037000040819C010C8C02C0220F331F0A94E2F707
:10371000422B4083EE89FF8920810D8C02C0880FE7
:10372000991F0A94E2F7809582238083DF91CF91DD
:10373000FF90EF90DF90CF90089510925C0410926C
:103740005B0488EE93E0A0E0B0E080935D0490938A
:103750005E04A0935F04B093600485E091E09093D1
:103760005A04809359048CEB94E090936604809300
:10377000650488E794E0909368048093670485EC7F
:1037800090E090936A048093690484EC90E09093B5
:103790006C0480936B0480EC90E090936E048093B3
:1037A0006D0481EC90E09093700480936F0486EC3C
:1037B00090E0909372048093710484E0809373048A
:1037C00083E08093740487E08093750485E08093A0
:1037D000760481E0809377040895CF92DF92EF9290
:1037E000FF920F931F93CF93DF936C01EB017A014C
:1037F000E60EF71E00E010E00BC06991D601ED91D6
:10380000FC910190F081E02DC6010995080F191F68
:10381000CE15DF0591F7C801DF91CF911F910F9170
:10382000FF90EF90DF90CF9008950E94B7180E940C
:103830001406C9EDDAE10E9429072097E1F30E94FE
:10384000D91AF9CF5058BB27AA270ED075C166D117
:1038500030F06BD120F031F49F3F11F41EF45BC1C6
:103860000EF4E095E7FB51C1E92F77D180F3BA1749
:10387000620773078407950718F071F49EF58FC1EE
:103880000EF4E0950B2EBA2FA02D0B01B90190017B
:103890000C01CA01A0011124FF27591B99F0593FBF
:1038A00050F4503E68F11A16F040A22F232F342F07
:1038B0004427585FF3CF469537952795A795F04055
:1038C0005395C9F77EF41F16BA0B620B730B840B6A
:1038D000BAF09150A1F0FF0FBB1F661F771F881F22
:1038E000C2F70EC0BA0F621F731F841F48F487957A
:1038F00077956795B795F7959E3F08F0B3CF939569
:10390000880F08F09927EE0F979587950895D9D0DD
:1039100008F481E008950CD00FC107D140F0FED02B
:1039200030F021F45F3F19F0F0C0511139C1F3C0FC
:1039300014D198F39923C9F35523B1F3951B550B73
:10394000BB27AA2762177307840738F09F5F5F4F72
:10395000220F331F441FAA1FA9F333D00E2E3AF0B3
:10396000E0E830D091505040E695001CCAF729D0CD
:10397000FE2F27D0660F771F881FBB1F261737071C
:103980004807AB07B0E809F0BB0B802DBF01FF274C
:1039900093585F4F2AF09E3F510568F0B6C000C1B2
:1039A0005F3FECF3983EDCF3869577956795B79586
:1039B000F7959F5FC9F7880F911D9695879597F9A1
:1039C0000895E1E0660F771F881FBB1F621773071A
:1039D0008407BA0720F0621B730B840BBA0BEE1F2F
:1039E00088F7E095089504D06894B111D9C008957E
:1039F000BCD088F09F5790F0B92F9927B751A0F00D
:103A0000D1F0660F771F881F991F1AF0BA95C9F772
:103A100012C0B13081F0C3D0B1E00895C0C0672FAB
:103A2000782F8827B85F39F0B93FCCF38695779522
:103A30006795B395D9F73EF490958095709561950B
:103A40007F4F8F4F9F4F0895E89409C097FB3EF436
:103A500090958095709561957F4F8F4F9F4F9923DB
:103A6000A9F0F92F96E9BB279395F6958795779559
:103A70006795B795F111F8CFFAF4BB0F11F460FF19
:103A80001BC06F5F7F4F8F4F9F4F16C0882311F071
:103A900096E911C0772321F09EE8872F762F05C085
:103AA000662371F096E8862F70E060E02AF09A9520
:103AB000660F771F881FDAF7880F9695879597F915
:103AC0000895990F0008550FAA0BE0E8FEEF1616AF
:103AD0001706E807F907C0F012161306E407F50702
:103AE00098F0621B730B840B950B39F40A2661F076
:103AF000232B242B252B21F408950A2609F4A14019
:103B0000A6958FEF811D811D089597F99F6780E825
:103B100070E060E008959FEF80EC089500240A941F
:103B20001616170618060906089500240A94121698
:103B30001306140605060895092E0394000C11F4CB
:103B4000882352F0BB0F40F4BF2B11F460FF04C078
:103B50006F5F7F4F8F4F9F4F089557FD9058440FD1
:103B6000551F59F05F3F71F04795880F97FB991FDC
:103B700061F09F3F79F08795089512161306140699
:103B8000551FF2CF4695F1DF08C016161706180626
:103B9000991FF1CF86957105610508940895E89401
:103BA000BB2766277727CB0197F908958ADF08F4AA
:103BB0008FEF08950BD0C0CFB1DF28F0B6DF18F03B
:103BC000952309F0A2CFA7CF1124EACFC6DFA0F337
:103BD000959FD1F3950F50E0551F629FF001729FA2
:103BE000BB27F00DB11D639FAA27F00DB11DAA1FC1
:103BF000649F6627B00DA11D661F829F2227B00D0E
:103C0000A11D621F739FB00DA11D621F839FA00D98
:103C1000611D221F749F3327A00D611D231F849FE8
:103C2000600D211D822F762F6A2F11249F5750403F
:103C30008AF0E1F088234AF0EE0FFF1FBB1F661FDA
:103C4000771F881F91505040A9F79E3F510570F093
:103C50005CCFA6CF5F3FECF3983EDCF3869577957B
:103C60006795B795F795E7959F5FC1F7FE2B880F8E
:103C7000911D9695879597F90895A1E21A2EAA1B92
:103C8000BB1BFD010DC0AA1FBB1FEE1FFF1FA2170C
:103C9000B307E407F50720F0A21BB30BE40BF50B09
:103CA000661F771F881F991F1A9469F76095709592
:103CB000809590959B01AC01BD01CF010895EE0F59
:103CC000FF1F0590F491E02D0994F999FECF92BD64
:103CD00081BDF89A992780B50895262FF999FECFCE
:103CE0001FBA92BD81BD20BD0FB6F894FA9AF99A19
:0A3CF0000FBE01960895F894FFCF6F
:103CFA000100000000701AED1B0D1A3C1A201A5E12
:023D0A001A009D
:00000001FF
