:100000000C9494000C94BC000C94BC000C94BC00A8
:100010000C94BC000C94BC000C94BC000C94BC0070
:100020000C94BC000C94BC000C94BC000C94BC0060
:100030000C94BC000C94BC000C94BC000C94BC0050
:100040000C948C1C0C94BC000C94271F0C94631F04
:100050000C94BC000C94BC000C94BC000C94BC0030
:100060000C94BC000C94BC00321B381CE817001820
:100070000C184F185E188218A618CA18E018231911
:100080005419A119E019FA19141A2E1A3D1A541A02
:10009000781A9B1AA31AA81AB01AB31ABC1ACB1A48
:1000A000EA1A051B081B0A1B1C1BD717231B291B3D
:1000B000371B961BE81B0D1C05A84CCDB2D44EB9BE
:1000C0003836A9020C50B9918688083CA6AAAA2AFB
:1000D000BE000000803F0000000700020100000396
:1000E00004060000000000000000010204081020C7
:1000F00040800102040810200102040810200404BA
:1001000004040404040402020202020203030303BF
:10011000030300000000250028002B000000000061
:10012000240027002A001E2011241FBECFEFD8E094
:10013000DEBFCDBF11E0A0E0B1E0E0E4F7E402C033
:1001400005900D92A231B107D9F715E0A2E1B1E017
:1001500001C01D92AC33B107E1F711E0C8E2D1E074
:1001600004C02297FE010E948423C632D107C9F73A
:100170000E9496200C949E230C940000AF92BF9294
:10018000CF92DF92EF92FF920F931F93CF93DF9363
:10019000CDB7DEB760970FB6F894DEBF0FBECDBF08
:1001A00069837A838B839C832D833E834F83588717
:1001B000E986FA860B871C87AD86BE86CF86D88AED
:1001C0009E012F5F3F4FEEE4F2E0AE014F5E5F4FC6
:1001D00063E070E0D901CD90DD90ED90FD909D0140
:1001E000C082D182E282F382DF0198976D937C9383
:1001F000EF5BFF4F2417350769F780E090E06096CA
:100200000FB6F894DEBF0FBECDBFDF91CF911F9127
:100210000F91FF90EF90DF90CF90BF90AF90089537
:10022000CF92DF92EF92FF92CF93DF936A017B012F
:100230009C012150310941E4429FE001439FD00DD0
:100240001124CA5DDD4F0297029728F52BED3FE0A0
:1002500049EC5FE3C701B6010E94932218169CF097
:100260002BED3FE049EC5FEBC701B6010E9408218E
:1002700087FF11C03BEDC32E3FE0D32E39ECE32EB8
:100280003FEBF32E08C02BEDC22E2FE0D22E29EC2F
:10029000E22E2FE3F22E82E090E099838883CA82D7
:1002A000DB82EC82FD821B8A1A8A88EE93E0A0E052
:1002B000B0E08E8F9F8FA8A3B9A380E090E0DF917C
:1002C000CF91FF90EF90DF90CF9008952F923F92C3
:1002D0004F925F926F927F928F929F92AF92BF9256
:1002E000CF92DF92EF92FF920F931F93CF93DF9302
:1002F000CDB7DEB727970FB6F894DEBF0FBECDBFE0
:100300009A8389834A015B016801790120E030E02A
:10031000A901C701B6010E940821882309F40DC173
:1003200089819A81019721E4289FA001299F500D7E
:1003300011244A5D5D4F5F834E8389819A810297C4
:10034000029728F52BED3FE049EC5FE3C501B401CE
:100350000E94932218169CF02BED3FE049EC5FEBD6
:10036000C501B4010E94082187FF11C05BED852EF5
:100370005FE0952E59ECA52E5FEBB52E08C04BED36
:10038000842E4FE0942E49ECA42E4FE3B42EEE8140
:10039000FF8144A455A466A477A4A3019201C501DA
:1003A000B4010E94A3208B011C0120E030E0A901D0
:1003B000712F932D0E94932218166CF425E33AEFC7
:1003C0004EE85DE3602F712F822D932D0E9408214E
:1003D00087FF2BC00CC025E33AEF4EE85DEB602FA2
:1003E000712F822D932D0E9493221816F4F4B501DB
:1003F000A40189819A8127960FB6F894DEBF0FBEBB
:10040000CDBFDF91CF911F910F91FF90EF90DF90C3
:10041000CF90BF90AF909F908F907F906F905F90A4
:100420004F903F902F900C94100120E030E0A901F4
:10043000C701B6010E940821A701960187FD505807
:10044000602F712F822D932D0E940F2120E030E02C
:100450004AE754E40E94972269837B838C839D83BF
:1004600020E030E0A901602F712F822D932D0E9492
:10047000932220E030E0A90118163CF4C701B60130
:100480000E94082187FF0BC006C0C701B6010E9469
:10049000082187FD04C0F7FAF094F7F8F094EE8194
:1004A000FF81C0A6D1A6E2A6F3A6EE81FF8142821B
:1004B00053826482758216861786108A118A20E01C
:1004C00030E040EA50E4B981AB81EC811D816B2FB3
:1004D0007A2F8E2F912F0E940F218B013C01CB018F
:1004E000D3016C017D0120E030E0A901B801C30116
:1004F0000E94082187FF04C0C701B601905802C0BE
:10050000B801C3010E947721CB01AA2797FDA095CE
:10051000BA2FEE81FF81868F978FA0A3B1A3138A94
:10052000128A808E918EA28EB38E81E090E0958F9C
:10053000848F83E090E09183808380E090E0279631
:100540000FB6F894DEBF0FBECDBFDF91CF911F91E4
:100550000F91FF90EF90DF90CF90BF90AF909F9062
:100560008F907F906F905F904F903F902F90089565
:100570002F923F924F925F926F927F928F929F92B3
:10058000AF92BF92CF92DF92EF92FF920F931F93A1
:10059000CF93DF93CDB7DEB727970FB6F894DEBFC2
:1005A0000FBECDBF9E838D834A015B016801790137
:1005B00020E030E0A901C701B6010E94082188238C
:1005C00009F432C18D819E81019721E4289F100199
:1005D000299F300C112486E292E0280E391E8D816D
:1005E0009E810297029728F52BED3FE049EC5FE3EF
:1005F000C501B4010E94932218169CF02BED3FE038
:1006000049EC5FEBC501B4010E94082187FF11C0CE
:100610007BED872E7FE0972E79ECA72E7FEBB72E10
:1006200008C06BED862E6FE0962E69ECA62E6FE368
:10063000B62ED1019C968D919D910D90BC91A02DCF
:1006400089839A83AB83BC83F10160A971A9882750
:1006500077FD8095982F0E94AA212BED3FE049EC71
:1006600050E40E9497229B01AC0169817A818B81C1
:100670009C810E94A4209B01AC01C501B4010E9491
:10068000A3202B013C0120E030E0A901752D972D1E
:100690000E94932218166CF425E33AEF4EE85DE3CE
:1006A000642D752D862D972D0E94082187FF2BC064
:1006B0000CC025E33AEF4EE85DEB642D752D862DD9
:1006C000972D0E9493221816F4F4B501A4018D8190
:1006D0009E8127960FB6F894DEBF0FBECDBFDF9187
:1006E000CF911F910F91FF90EF90DF90CF90BF902F
:1006F000AF909F908F907F906F905F904F903F90C2
:100700002F900C94100120E030E0A901C701B60140
:100710000E940821A701960187FD5058642D752D70
:10072000862D972D0E940F2120E030E04AE754E407
:100730000E9497228B018F839D8320E030E0A901E6
:10074000642D752D862D972D0E94932220E030E098
:10075000A901181694F4C701B6010E94082187FF69
:1007600004C0F7FAF094F7F8F094D1019896CD927E
:10077000DD92ED92FC929B970FC0C701B6010E94DB
:10078000082187FD04C0F7FAF094F7F8F094F1011E
:10079000C0A6D1A6E2A6F3A689819A81AB81BC81CD
:1007A000F10182839383A483B58316861786108A0A
:1007B000118A20E030E040EA50E4FF81ED81602FB3
:1007C000712F8F2F9E2F0E940F218B013C01CB0197
:1007D000D3016C017D0120E030E0A901B801C30123
:1007E0000E94082187FF04C0C701B601905802C0CB
:1007F000B801C3010E947721CB01AA2797FDA095DC
:10080000BA2FF101868F978FA0A3B1A3138A128A02
:10081000808E918EA28EB38E81E090E0958F848F32
:1008200083E090E09183808380E090E027960FB68C
:10083000F894DEBF0FBECDBFDF91CF911F910F9116
:10084000FF90EF90DF90CF90BF90AF909F908F90F0
:100850007F906F905F904F903F902F9008952F92D0
:100860003F924F925F926F927F928F929F92AF9240
:10087000BF92CF92DF92EF92FF920F931F93CF938D
:10088000DF933C014A015B0168017901019721E492
:10089000289F1001299F300C112486E292E0280E37
:1008A000391EC30102970297B0F42BED3FE049ECEB
:1008B0005FE3C501B4010E94932218160CF4DCC05A
:1008C0002BED3FE049EC5FEBC501B4010E9408212C
:1008D00087FDDBC014C091E06916710421F0E4E0EB
:1008E0006E16710461F4F10124A535A546A557A53E
:1008F000C501B4010E94A3200E94A70C09C0F10108
:1009000024A535A546A557A5C501B4010E94A3207D
:10091000462E172FD82FC92F20E030E0A901FE0165
:100920008F2F9E2F0E949322181674F425E33AEF1E
:100930004EE85DE3FE01642D712F8F2F9E2F0E94E4
:10094000082187FF25C00DC025E33AEF4EE85DEB97
:10095000FE01642D712F8F2F9E2F0E949322181657
:10096000BCF4B501A401C301DF91CF911F910F9198
:10097000FF90EF90DF90CF90BF90AF909F908F90BF
:100980007F906F905F904F903F902F900C9410014C
:1009900020E030E0A901C701B6010E940821A701AB
:1009A000960187FD5058FE01642D712F8F2F9C2FCB
:1009B0000E940F2120E030E04AE754E40E94972291
:1009C000562E672E782E092F20E030E0A901FE0177
:1009D000642D712F8F2F9C2F0E94932220E030E0F6
:1009E000A90118163CF4C701B6010E94082187FF2F
:1009F0000BC006C0C701B6010E94082187FD04C0D4
:100A0000F7FAF094F7F8F094F101C0A6D1A6E2A6A7
:100A1000F3A6F10184A595A5A6A5B7A58283938326
:100A2000A483B58316861786108A118A20E030E0E9
:100A300040EA50E4652D762D872D902F0E940F21DE
:100A40008B01D82FC92FCB01AD2FBC2F6C017D019D
:100A500020E030E0A901B8018D2F9C2F0E940821D1
:100A600087FF04C0C701B601905803C0B8018D2F9D
:100A70009C2F0E94772112C0FBED8F2EFFE09F2E4E
:100A8000F9ECAF2EFFE3BF2E3ACFEBED8E2EEFE069
:100A90009E2EE9ECAE2EEFEBBE2E31CFCB01AA2776
:100AA00097FDA095BA2FF101868F978FA0A3B1A3D0
:100AB000138A128A808E918EA28EB38E81E090E08E
:100AC000958F848F83E090E09183808380E090E035
:100AD000DF91CF911F910F91FF90EF90DF90CF901A
:100AE000BF90AF909F908F907F906F905F904F904E
:100AF0003F902F900895CF92DF92EF92FF92CF9385
:100B0000DF93EC016A017B0122E93AE046E050E420
:100B1000C701B6010E9493221816DCF0219781E4E8
:100B20008C9FF0018D9FF00D1124EA5DFD4FC0A652
:100B3000D1A6E2A6F3A683E090E0918380838FEFB5
:100B40009FEFDC01868F978FA0A3B1A320E030E058
:100B500002C021E030E0C901DF91CF91FF90EF901A
:100B6000DF90CF900895CF939B018430910519F4C5
:100B70003195219531092F3F310509F064F4213079
:100B80004FEF34071CF037FD03C007C021E03FEFF3
:100B9000C22FC19503C02FEF30E0C22FAC014150EE
:100BA000510961E4649FF001659FF00D1124EA5D35
:100BB000FD4FC5A38230910521F124F4019709F07E
:100BC0006AC007C083309105A1F1049709F063C0A2
:100BD00048C0121613061CF461E084E00EC060E009
:100BE00084E0232B51F00E94D51D61E08DE00E942E
:100BF000D51D6C2F70E08BE04BC00E94D51D60E0CE
:100C0000F5CF121613061CF461E085E008C060E021
:100C100085E0232B21F00E94D51D61E003C00E94D6
:100C2000D51D60E082E00E94D51D6C2F70E083E04E
:100C30002FC0121613061CF461E087E008C060E0C4
:100C400087E0232B21F00E94D51D61E003C00E94A4
:100C5000D51D60E086E00E94D51D6C2F70E089E014
:100C600017C0121613061CF461E088E008C060E0AB
:100C700088E0232B21F00E94D51D61E003C00E9473
:100C8000D51D60E08CE00E94D51D6C2F70E08AE0DD
:100C9000CF910C942D1ECF9108951F93CF93DF9386
:100CA000C0E0D0E011E41C9FF0011D9FF00D112465
:100CB000EA5DFD4F11821082219660E070E0CE0166
:100CC0000E94B305C430D10571F780E090E0DF9158
:100CD000CF911F910895FC0111821082128213821C
:100CE000148215824CE45DE36FE874E44683578315
:100CF0006087718748E253EE6BE274E44287538762
:100D00006487758716861786108A118A138A128A55
:100D1000158A148A178A168A108E118E128E138ED7
:100D2000158E148E4FEF5FEFBA01468F578F60A379
:100D300071A38FEF9FEF93A382A380E884A34BED71
:100D40005FE069E47FE340A751A762A773A711AAF8
:100D500010AA08958F929F92AF92BF92CF92DF9286
:100D6000EF92FF920F931F93CF93DF93CDB7DEB730
:100D7000C454D1090FB6F894DEBF0FBECDBF00E05A
:100D800010E031E4F32EF09EC001F19E900D11248D
:100D90008A5D9D4F0E946B060F5F1F4F0430110547
:100DA00091F761E087E00E949D1D61E088E00E946C
:100DB0009D1D61E089E00E949D1D68E070E089E072
:100DC00090E00E94C10B61E086E00E949D1D61E001
:100DD00085E00E949D1D61E08AE00E949D1D68E003
:100DE00070E08AE090E00E94C10B61E084E00E9424
:100DF0009D1D61E082E00E949D1D61E083E00E94F4
:100E00009D1D68E070E083E090E00E94C10B61E00E
:100E10008CE00E949D1D61E08DE00E949D1D61E0BF
:100E20008BE00E949D1D68E070E08BE090E00E94E6
:100E3000C10B40E051EE60E070E085E994E00E9473
:100E40009E1F85E994E00E94DF1E61E08EE00E9413
:100E50009D1D0E940715892B09F461C0109238036B
:100E6000109237038BED882E8FE0982E89E4A82E00
:100E700081E4B82E9BEDC92E9FE0D92E99ECE92E86
:100E80009FE3F92E97018601B501A401CE01839657
:100E90000E94F4168DB79EB782970FB6F8949EBF46
:100EA0000FBE8DBFADB7BEB7119682E2FE01B396FD
:100EB00001900D928A95E1F70E9426170FB6F894DB
:100EC000DEBF0FBECDBF812C912C54012BEDC22E65
:100ED0002FE0D22E29ECE22E2FEBF22E9701860185
:100EE000B501A401CE0101960E94F4168DB79EB7FC
:100EF00082970FB6F8949EBF0FBE8DBFADB7BEB739
:100F0000119682E2FE01319601900D928A95E1F7E9
:100F10000E9426170FB6F894DEBF0FBECDBF61E06A
:100F20008EE00E94D51D109236031092350380E9A1
:100F300091E090932F0380932E0383EC98EBA2E330
:100F4000BEE380932A0390932B03A0932C03B093CA
:100F50002D0310923003CC5BDF4F0FB6F894DEBF49
:100F60000FBECDBFDF91CF911F910F91FF90EF90FA
:100F7000DF90CF90BF90AF909F908F900895CF92C9
:100F8000DF92EF92FF920F931F930E94D61C609303
:100F90001201709313018093140190931501009135
:100FA000390310913A0320913B0330913C036B01CC
:100FB0007C01C01AD10AE20AF30A970186010530C2
:100FC00011052105310570F06093390370933A03E0
:100FD00080933B0390933C030E9494100E94DD0891
:100FE0000E94600C0E94521C1F910F91FF90EF9085
:100FF000DF90CF900C94031687E00E940C1EBC017A
:10100000882777FD8095982F0E94AA2120E030E064
:1010100040E85AE30E94972220E030E040EA50E4A2
:101020000E94972208950E94FC0720E030E040EAE9
:1010300050E40E94A32020E030E0A9010E94082192
:1010400087FF11C00E94FC0720E030E040EA50E436
:101050000E94A3202DEC3CEC4CEC5DEB0E94932213
:1010600018168CF012C00E94FC0720E030E040EA25
:1010700050E40E94A3202DEC3CEC4CEC5DE30E947C
:10108000082187FF02C080E008950E94FC0724E148
:101090003EEA47ED5FE30E94A32020E030E0A90193
:1010A0000E94082187FF12C00E94FC0724E13EEA4B
:1010B00047ED5FE30E94A3202DEC3CEC4CEC5DEB94
:1010C0000E94932218160CF474C010C00E94FC07F2
:1010D00024E13EEA47ED5FE30E94A3202DEC3CECC7
:1010E0004CEC5DE30E94082187FD63C00E94FC0771
:1010F00020E030E040E250E40E94A32020E030E015
:10110000A9010E94082187FF12C00E94FC0720E06D
:1011100030E040E250E40E94A3202DEC3CEC4CEC8B
:101120005DEB0E94932218160CF445C010C00E947B
:10113000FC0720E030E040E250E40E94A3202DECC8
:101140003CEC4CEC5DE30E94082187FD34C00E941A
:10115000FC072EEA37E441EA5FE30E94A32020E087
:1011600030E0A9010E94082187FF11C00E94FC07FE
:101170002EEA37E441EA5FE30E94A3202DEC3CEC29
:101180004CEC5DEB0E94932218168CF07CCF0E94F1
:10119000FC072EEA37E441EA5FE30E94A3202DEC2E
:1011A0003CEC4CEC5DE30E94082187FF6CCF83E0B0
:1011B000089581E0089582E008953F924F925F92F2
:1011C0006F927F928F929F92AF92BF92CF92DF9257
:1011D000EF92FF920F931F93CF93DF93CDB7DEB7BC
:1011E000CA51D1400FB6F894DEBF0FBECDBF0E94EA
:1011F0001308382E10913D0318270E94D61C2B018E
:101200003C01112309F484C280913E0390913F0375
:10121000A0914003B0914103A3019201281B390B17
:101220004A0B5B0BDA01C901893E9340A105B10568
:1012300008F46EC280913003882309F43FC080E235
:10124000CF5EDE4F8883C151D1408AE0CE5EDE4F53
:101250008883C251D140409242035092430360922E
:10126000440370924503CD5EDE4F488259826A8204
:101270007B82C351D140C95EDE4F1883C751D14034
:10128000812F8321C85EDE4F8883C851D140832DD2
:1012900080958123C75EDE4F8883C951D140C65EE9
:1012A000DE4F1882CA51D1404AE050E0BE016F5E65
:1012B0007E4F85E994E00E946E2022C2812F832117
:1012C000B9F084E690E0A0E0B0E080933103909321
:1012D0003203A0933303B093340383E08093350348
:1012E000409246035092470360924803709249032C
:1012F000832D8095812309F403C20E948A0C2091DA
:101300003D03213009F098C1809146039091470335
:10131000A0914803B0914903B301A201481B590BA6
:101320006A0B7B0BDB01CA01893B9B40A105B10520
:1013300008F4DEC11092380310923703209336036D
:1013400001E010E04BED5FE069EC7FE3C8010E9433
:101350007B050F5F1F4F05301105A1F72BED822E86
:101360002FE0922E29ECA22E2FE3B22E75016401FC
:1013700095018401B501A401CE0181519F4F0E94C6
:10138000F4166DB77EB7625271090FB6F8947EBF3E
:101390000FBE6DBFADB7BEB7119682E2FE01E1513F
:1013A000FF4F01900D928A95E1F70E9426170FB624
:1013B000F894DEBF0FBECDBF3BED832E3FE0932EF2
:1013C00039E4A32E30E4B32EC12CD12C7601970141
:1013D0008601B501A401CE0183539F4F0E94F416EC
:1013E000ADB7BEB792970FB6F894BEBF0FBEADBFF4
:1013F000119682E2FE01E353FF4F01900D928A9510
:10140000E1F70E9426170FB6F894DEBF0FBECDBFDE
:1014100044EE842E4BEC942E46E9A42E40E4B42EE8
:101420005BEDC52E5FE0D52E59ECE52E5FEBF52E7A
:1014300097018601B501A401CE0185559F4F0E94F9
:10144000F4162DB73EB7225231090FB6F8943EBFBD
:101450000FBE2DBFADB7BEB7119682E2FE01E555B6
:10146000FF4F01900D928A95E1F70E9426170FB663
:10147000F894DEBF0FBECDBF812C912C54017501B5
:10148000640195018401B501A401CE0187579F4FE6
:101490000E94F4166DB77EB7625271090FB6F894C8
:1014A0007EBF0FBE6DBFADB7BEB7119682E2FE0123
:1014B000E757FF4F01900D928A95E1F70E9426179A
:1014C0000FB6F894DEBF0FBECDBF6BED862E6FE07A
:1014D000962E69ECA62E6FEBB62E7BEDC72E7FE025
:1014E000D72E79ECE72E7FE3F72E97018601B50121
:1014F000A401CE0189599F4F0E94F416ADB7BEB723
:1015000092970FB6F894BEBF0FBEADBF119682E2A0
:10151000FE01E959FF4F01900D928A95E1F70E9473
:1015200026170FB6F894DEBF0FBECDBFEBED8E2EA3
:10153000EFE09E2EE9E4AE2EE0ECBE2EC12CD12CC5
:10154000760197018601B501A401CE018B5B9F4F07
:101550000E94F4162DB73EB7225231090FB6F89407
:101560003EBF0FBE2DBFADB7BEB7119682E2FE01E2
:10157000EB5BFF4F01900D928A95E1F70E942617D1
:101580000FB6F894DEBF0FBECDBFF4EE8F2EFBEC8E
:101590009F2EF6E9AF2EF0ECBF2EABEDCA2EAFE0DA
:1015A000DA2EA9ECEA2EAFEBFA2E97018601B501EF
:1015B000A401CE0183960E94F4166DB77EB76252E5
:1015C00071090FB6F8947EBF0FBE6DBFADB7BEB741
:1015D000119682E2FE01B39601900D928A95E1F791
:1015E0000E9426170FB6F894DEBF0FBECDBF812C28
:1015F000912C54017501640195018401B501A40188
:10160000CE0101960E94F416ADB7BEB792970FB601
:10161000F894BEBF0FBEADBF119682E2FE013196B7
:1016200001900D928A95E1F70E9426170FB6F89463
:10163000DEBF0FBECDBF5CC0223009F459C02330DD
:1016400009F056C04091460350914703609148030A
:1016500070914903D301C201841B950BA60BB70BF4
:10166000AC01BD01493B5B406105710518F00E946A
:10167000D7153EC096E2E92E92E0F92E01E010E087
:1016800080E090E0D7012D913C91232B51F060E058
:1016900070E0C8010E94B305F7011182108281E059
:1016A00090E00F5F1F4FF1E4EF0EF11C05301105C4
:1016B00049F7892BE9F486E5C82E82E0D82EE12C83
:1016C000F12CD6011D921C92BFEFEB1AFB0A0BED19
:1016D0001FE029EC3FE340E050E0BA01C7010E945F
:1016E0006601E1E4CE0ED11CF4E0EF16F10449F7F7
:1016F00040923E0350923F03609240037092410338
:101700004092460350924703609248037092490307
:1017100080913003811118C021E0321215C00E945F
:10172000D61C409046035090470360904803709049
:1017300049036419750986099709693B7B4081054E
:10174000910510F00E948A0C30923D0380E090E0F9
:10175000C65EDE4F0FB6F894DEBF0FBECDBFDF9181
:10176000CF911F910F91FF90EF90DF90CF90BF909E
:10177000AF909F908F907F906F905F904F903F9031
:1017800008959C01255031092230310530F089300F
:10179000910519F08A30910569F560347105A1F061
:1017A00044F46130710571F06830710509F054C07E
:1017B00011C0611581E0780749F06115744009F0A6
:1017C0004BC006C081E007C083E005C084E003C0D1
:1017D00085E001C082E02230310528F495B5987F7C
:1017E000982B95BD089590918100987F982B9093A8
:1017F000810008958330910511F00B9769F56034ED
:101800007105D9F054F468307105F9F06032710552
:1018100091F06130710501F50CC0611581E0780728
:1018200081F0611584E0780771F060387105A1F4EA
:1018300006C081E00BC083E009C084E007C085E0FA
:1018400005C086E003C087E001C082E09091B1004E
:10185000987F982B9093B10008950E940C1EBC01B4
:10186000882777FD8095982F0E94AA2120E030E0FC
:1018700040EA50E40E94972220E030E040E85AE33A
:101880000E9497220895CF93DF93CAE0D0E061E0F1
:101890008EE00E94D51D64E670E080E090E00E943A
:1018A000121D60E08EE00E94D51D64E670E080E0CD
:1018B00090E00E94121D219751F7DF91CF9108957A
:1018C00080913503882329F10E94D61C2091310391
:1018D0003091320340913303509134030E944423EA
:1018E00020FF11C061E08EE00E94D51D8091600450
:1018F000811105C08091350381508093350381E0CB
:1019000080936004089560E08EE00E94D51D1092DF
:1019100060040895CF93DF93C3E0D0E060E08EE0F1
:101920000E94D51D64E670E080E090E00E94121DE8
:1019300061E08EE00E94D51D64E670E080E090E0FA
:101940000E94121D219751F7DF91CF9108950F93B7
:101950001F93CF93DF930BC02BED3FE049EC50E496
:10196000FE01602F712F8F2F9C2F0E94A4208B01CE
:10197000D82FC92F2BED3FE049E450ECFE01712F29
:101980008F2F9E2F0E94082187FDE6CF0EC02BEDE2
:101990003FE049EC50E4FE01602F712F8F2F9C2F08
:1019A0000E94A3208B01D82FC92F2BED3FE049E4E3
:1019B00050E4FE01602F712F8F2F9C2F0E949322E5
:1019C00018162CF39E01602F712F832F9C2FDF910F
:1019D000CF911F910F9108952F923F924F925F9256
:1019E0006F927F928F929F92AF92BF92CF92DF922F
:1019F000EF92FF920F931F93CF93DF931C0180917F
:101A00005C0490915D04892B09F09CC085E090E016
:101A10000E942D0C20E030E040E250E40E94A32020
:101A20008B01D82FC92FAB01682F792F4A015B0199
:101A300086E090E00E942D0C20E030E040E250E48F
:101A40000E94A320462F572F682F792F2A013B0190
:101A500020E030E0A901B8018D2F9C2F0E940821C1
:101A600087FF04C0B7FAB094B7F8B09420E030E034
:101A7000A901C301B2010E94082187FF04C077FABF
:101A8000709477F87094A3019201C501B4010E948B
:101A9000082187FF03C081E090E002C082E090E06F
:101AA00090935D0480935C0481E090E00E942D0C93
:101AB00020E030E040E250E40E94A3208B01D82FC8
:101AC000C92FAB01682F792F4A015B0182E090E0BA
:101AD0000E942D0C20E030E040E250E40E94A32060
:101AE000462F572F682F792F2A013B0120E030E045
:101AF000A901B8018D2F9C2F0E94082187FF04C0E7
:101B0000B7FAB094B7F8B09420E030E0A901C3016F
:101B1000B2010E94082187FF04C077FA709477F819
:101B20007094A3019201C501B4010E94082187FFAE
:101B300003C081E090E002C082E090E090935F04F7
:101B400080935E0482E02816310409F4DBC02CF493
:101B50002A94232809F004C20BC083E0281631041C
:101B600009F4FBC084E02816310409F0F9C120C152
:101B700085E090E00E942D0C4B015C0186E090E036
:101B80000E942D0C6B017C0120E030E040E250E42B
:101B9000C501B4010E94A3208B01D82FC92F20E0DA
:101BA00030E040E250E4C701B6010E94A3206B017F
:101BB0007C0180915C0490915D04019769F520E0BF
:101BC00030E0A901FE01602F712F8F2F9E2F0E9400
:101BD000082187FF0EC020E030E040E050ECFE011D
:101BE000602F712F8F2F9E2F0E94082187FF14C016
:101BF0000DC020E030E040E050E4FE01602F712F86
:101C00008F2F9E2F0E949322181634F482E090E0CA
:101C100090935D0480935C0480915C0490915D04DA
:101C2000029751F520E030E0A9016C2D7D2D8E2D1D
:101C30009F2D0E94082187FF0DC020E030E040E08A
:101C400050EC6C2D7D2D8E2D9F2D0E94082187FF3D
:101C500013C00CC020E030E040E050E46C2D7D2D3E
:101C60008E2D9F2D0E949322181634F481E090E06F
:101C700090935D0480935C0480915C0490915D047A
:101C800020E030E04AEA53E4029799F46C2D7D2D70
:101C90008E2D9F2D0E94972220E030E040EA50E4F4
:101CA0000E940F2120E030E044E353E40E94A4208E
:101CB0000DC0FE01602F712F8F2F9C2F0E94972245
:101CC00020E030E040EA50E40E940F21462F572FD9
:101CD000682F792FCB01BA0190582BED3FE049E4F2
:101CE00050E40E94972220E030E044E353E40E9455
:101CF0000F21209158023091590240915A0250917F
:101D00005B0218C184E090E00E942D0C20E030E0DE
:101D100040E250E40E94A32020E030E04AEA53E48D
:101D20000E94972220E030E040EA50E40E940F2118
:101D30002BED3FE049E450E40E94972220E030E0A0
:101D400044E353E40E940F212091990230919A02BA
:101D500040919B0250919C02EDC083E090E00E9474
:101D60002D0C20E030E040E250E40E94A32020E06F
:101D700030E04AEA53E40E94972220E030E040EA53
:101D800050E40E940F212BED3FE049E450E40E9413
:101D9000972220E030E044E353E40E940F21209199
:101DA000DA023091DB024091DC025091DD02C2C0C8
:101DB00081E090E00E942D0C4B015C0182E090E0FC
:101DC0000E942D0C6B017C0120E030E040E250E4E9
:101DD000C501B4010E94A3208B01D82FC92F20E098
:101DE00030E040E250E4C701B6010E94A3206B013D
:101DF0007C0180915E0490915F04019769F520E079
:101E000030E0A901FE01602F712F8F2F9E2F0E94BD
:101E1000082187FF0EC020E030E040E050ECFE01DA
:101E2000602F712F8F2F9E2F0E94082187FF14C0D3
:101E30000DC020E030E040E050E4FE01602F712F43
:101E40008F2F9E2F0E949322181634F482E090E088
:101E500090935F0480935E0480915E0490915F0490
:101E6000029751F520E030E0A9016C2D7D2D8E2DDB
:101E70009F2D0E94082187FF0DC020E030E040E048
:101E800050EC6C2D7D2D8E2D9F2D0E94082187FFFB
:101E900013C00CC020E030E040E050E46C2D7D2DFC
:101EA0008E2D9F2D0E949322181634F481E090E02D
:101EB00090935F0480935E0480915E0490915F0430
:101EC00020E030E04AEA53E4029799F46C2D7D2D2E
:101ED0008E2D9F2D0E94972220E030E040EA50E4B2
:101EE0000E940F2120E030E044E353E40E94A4204C
:101EF0000DC0FE01602F712F8F2F9C2F0E94972203
:101F000020E030E040EA50E40E940F212BED3FE05A
:101F100049E450E40E94972220E030E044E353E497
:101F20000E940F2120911B0330911C0340911D033F
:101F300050911E030E94A420DF91CF911F910F9119
:101F4000FF90EF90DF90CF90BF90AF909F908F90D9
:101F50007F906F905F904F903F902F900C94A70CC4
:101F60000E94430C50E040E030E82FEB652F742FC7
:101F7000832F922FDF91CF911F910F91FF90EF90C0
:101F8000DF90CF90BF90AF909F908F907F906F9099
:101F90005F904F903F902F9008950F931F93CF9392
:101FA000DF938C01EB0160E185E994E00E94F11E72
:101FB0006C2F6D5F85E994E00E94F11E1C161D06D2
:101FC00034F4AE01B80185E994E00E946E2061E12D
:101FD00085E994E00E94F11E80E090E0DF91CF91CE
:101FE0001F910F9108950F931F93CF93DF938C014F
:101FF0009C012150310981E4829FE001839FD00D33
:102000001124CA5DDD4F8E899F898130910521F5AC
:1020100020E030E0A90168A579A58AA59BA50E94CA
:102020000821882309F47BC083E090E099838883AA
:102030008FEF9FEFDC018E8F9F8FA8A3B9A34CA5D4
:102040005DA56EA57FA54A835B836C837D8348A5D0
:1020500059A56AA57BA527C08230910559F520E0D6
:1020600030E0A90168A579A58AA59BA50E94082151
:10207000882309F454C083E090E0998388834FEF6C
:102080005FEFBA014E8F5F8F68A379A34CA55DA562
:102090006EA57FA54A835B836C837D8348A559A584
:1020A0006AA57BA57058C801DF91CF911F910F9150
:1020B0000C947B05009759F41982188260E070E057
:1020C000C801DF91CF911F910F910C94B305039735
:1020D00031F5888199818230910539F48A899B890B
:1020E000892B51F01D8A1C8A1AC0039729F44A8152
:1020F0005B816C817D810CC081E4829FF001839FB4
:10210000F00D1124EA5DFD4F44A555A566A577A500
:10211000C801DF91CF911F910F910C941001DF91B5
:10212000CF911F910F9108952F923F924F925F92FE
:102130006F927F928F929F92AF92BF92CF92DF92D7
:10214000EF92FF920F931F93CF93DF93CDB7DEB73C
:10215000A2970FB6F894DEBF0FBECDBF8CE492E01D
:102160009C838B83A6E2B2E0BAA3A9A3EBE4F2E0DE
:10217000FE8BED8B82E592E09E838D83AAE4B3E033
:10218000BA87A987EAE4F2E0F88BEF878CE592E062
:102190009A838983A8E4B2E0BC87AB87EDE5F2E0DF
:1021A000F88FEF8B8EE492E09E878D87A6E5B2E0F4
:1021B000B887AF8322242394312C88248A94982CC6
:1021C0005401ED89FE898081AB81BC816D917C9148
:1021D000680F711D882777FD8095982F0E94AA218E
:1021E00020E030E042E553E40E94A3200E947721E2
:1021F00077FD05C0EB81FC817183608304C0AB81F6
:10220000BC811D921C92EB81FC81608171818827C9
:1022100077FD8095982F0E94AA2120E034E14DECB3
:1022200058E40E94932218160CF49EC1C1010E942A
:10223000EC0C6B017C01AD81BE816D937D938D9320
:102240009C93139720E030E040E450EC0E9408217A
:1022500087FF15C020E030E040E450E4E985FA85CE
:1022600060817181828193810E94932218163CF4CF
:10227000AF81B8858D919C91119701961EC020E089
:1022800030E040E450E4C701B6010E9493221816E2
:10229000B4F420E030E040E450ECE985FA85608158
:1022A0007181828193810E94082187FF08C0AF81DC
:1022B000B8858D919C91119701978D939C93ED8199
:1022C000FE8180819181A281B381E985FA85808335
:1022D0009183A283B383A9A1BAA18D919C918230ED
:1022E000910509F42CC134F4009761F0019709F0CD
:1022F0002CC339C08330910509F4CEC1049709F08D
:1023000024C34BC0E9A1FAA1868D978DA0A1B1A1EC
:10231000892B8A2B8B2B79F4AB85BC858D919C9175
:10232000978B868BC1010E94F30FE9A1FAA1868EDB
:10233000978EA0A2B1A2A9A1BAA15E964D915D917E
:102340006D917C91919714161506160617060CF0E0
:10235000FCC24150510961097109FD01468F578F37
:1023600060A371A3F2C2A9A1BAA156968D919C91C6
:102370005797009719F41D921C92E7C2019729F410
:10238000EF85F889608170E0F1C0AF85B8896C9104
:1023900070E0719561957109E9C0609112017091C9
:1023A000130180911401909115010E94A82120E051
:1023B00030E04AE754E40E940F216D8F7E8F8F8FAB
:1023C00098A3EF89F88D6081772767FD7095872F37
:1023D000972F0E94AA2120E030E040E05CE30E94B9
:1023E000972220E030E040EA50E40E94972220E06B
:1023F00030E040E05FE30E9497228B013C014424DF
:102400004394512C89A19AA1840D951D9A8B898B97
:10241000B201882777FD8095982F0E94AA212BED85
:102420003FE049EC50E40E949722BD8DAE8DEF8DC8
:10243000F8A02B2F3A2F4E2F5F2D0E94972220E0DD
:1024400030E040E251E40E940F216B017C017D2DC0
:102450009F2D0E94FA22698F7A8F8B8F9C8FA9897A
:10246000BA89D7966C91772767FD7095872F972F3C
:102470000E94AA2120E030E040E05CE30E94972225
:1024800020E030E040EA50E40E949722298D3A8D06
:102490004B8D5C8D0E9497229B01AC01602F712FA8
:1024A000862D972D0E94A4208B013C016C2D7D2D43
:1024B0008E2D9F2D0E940C216B017C01E989FA89E8
:1024C00064AD772767FD7095872F972F0E94AA210B
:1024D00020E030E040E05CE30E94972220E030E022
:1024E00040EA50E40E949722A70196010E94972299
:1024F0009B01AC01602F712F862D972D0E94A42087
:102500008B013C01FFEF4F1A5F0A85E0481651042A
:1025100009F078CF402F512F662D772DA9A1BAA1B0
:1025200012964D935D936D937C93159753961C92E1
:102530001E925297FD01868E978EA0A2B1A2A9A1EC
:10254000BAA15E964D915D916D917C9191974115E7
:10255000510561057105A9F452968D919C9153978F
:10256000892B41F41D921C9260E070E0C1010E9431
:10257000B305EBC1E9A1FAA1868E978EA0A2B1A204
:10258000E4C1141615061606170664F441505109E5
:1025900061097109A9A1BAA15E964D935D936D93EE
:1025A0007C939197ED81FE8120813181428153811D
:1025B000A9A1BAA112966D917D918D919C911597CB
:1025C0000E94A3200E94A70C6B017C0120E030E058
:1025D000A9010E94082187FF0BC025E33AEF4EE0D6
:1025E0005DEBC701B6010E94932218165CF01DC076
:1025F00025E33AEF4EE05DE3C701B6010E940821F2
:1026000087FF13C081E090E0E9A1FAA1938B828B50
:1026100084899589892B09F039C0A9A1BAA15E9650
:102620008D929D92AD92BC929197E9A1FAA1828977
:102630009389892B71F120E030E0A901C701B6012F
:102640000E94082187FF04C0C701B601905802C04C
:10265000C701B60120912A0330912B0340912C032E
:1026600050912D030E94932218169CF4A981BA81DF
:102670002C912F5F2C9330E080912E0390912F03AB
:102680008217930708F020C1E9A1FAA111821082F4
:102690006BCFA981BA8117C1E9A1FAA1468D578DE7
:1026A00060A171A1411551056105710509F045C091
:1026B00081E090E0938B828BDF0116861786108A6B
:1026C000118AEB85FC851182108282E090E01196E0
:1026D0009C938E935C968D919C915D97892B59F07C
:1026E000FD01808D918DA28DB38D82839383A48310
:1026F000B583158E148EEFEFFFEFAB85BC85ED93A0
:10270000FC93A9A1BAA154968D919C915597892BC0
:1027100059F088EC90E0A0E0B0E0E9A1FAA1868F42
:10272000978FA0A3B1A311C1A9A1BAA15E968D9262
:102730009D92AD92BC92919708C11416150616068B
:10274000170654F44150510961097109E9A1FAA130
:10275000468F578F60A371A32AE037ED43EA5BE30E
:10276000AD85BE856D917D918D919C910E94972242
:10277000E9A1FAA122813381448155810E94A420DC
:10278000FB01462F5F2F682F792FA9A1BAA11296BE
:102790004D935D936D937C93159791012250310970
:1027A0002230310508F047C02BED3FE049EC5FEBEC
:1027B000BF010E94082187FF17C020E030E0A90177
:1027C000ED85FE8560817181828193810E9408215F
:1027D00087FF0AC08BED9FE0A9ECBFEBE9A1FAA14E
:1027E00082839383A483B5832BED3FE049EC5FE3C1
:1027F000A9A1BAA112966D917D918D919C91159789
:102800000E9493221816BCF420E030E0A901ED8567
:10281000FE8560817181828193810E9493221816C6
:1028200054F48BED9FE0A9ECBFE3E9A1FAA1828308
:102830009383A483B583AD81BE812D913D914D914C
:102840005C91E9A1FAA162817381848195810E94E2
:10285000A3200E94A70C6B017C0120E030E0A901BD
:102860000E9408212601370187FF04C077FA70947F
:1028700077F8709460912A0370912B0380912C0358
:1028800090912D039B01AC010E94A4209B01AC01FF
:10289000C301B2010E949322A981BA8118169CF447
:1028A0002C912F5F2C9330E080912E0390912F0379
:1028B0008217930708F049C0E9A1FAA1118210829A
:1028C000158E148E51CE1C92E9A1FAA12681378172
:1028D00040855185C701B6010E9497222B013C011A
:1028E000A9A1BAA11E962D913D914D915C91519750
:1028F0001A966D917D918D919C911D970E949722C2
:102900009B01AC01C301B2010E94A4200E94772167
:10291000C1010E94B3052AE037ED43EA5BE3C7013A
:10292000B6010E9497229B01AC01E9A1FAA166853C
:102930007785808991890E94A420A9A1BAA11E96B9
:102940006D937D938D939C935197BFEF2B1A3B0A08
:10295000EB81FC81EF5BFF4FFC83EB8389A19AA1A4
:102960008F5B9F4F9AA389A3AD89BE89AF5BBF4F91
:10297000BE8BAD8BED81FE81EF5BFF4FFE83ED8360
:1029800089859A8504969A878987AF85B889AF5BD0
:10299000BF4FB88BAF87E981FA81EF5BFF4FFA83B6
:1029A000E9838B859C858F5B9F4F9C878B87AF8945
:1029B000B88DAF5BBF4FB88FAF8BED85FE85EF5BFA
:1029C000FF4FFE87ED878F8198858F5B9F4F98879C
:1029D0008F8395E02916310409F0F3CBA2960FB648
:1029E000F894DEBF0FBECDBFDF91CF911F910F9145
:1029F000FF90EF90DF90CF90BF90AF909F908F901F
:102A00007F906F905F904F903F902F9008957F92AE
:102A10008F929F92AF92BF92CF92DF92EF92FF92EE
:102A20000F931F93CF93DF9300D000D0CDB7DEB7C5
:102A300060E170E08BE894E00E94851C813A69F5C2
:102A4000A12CB12C00E010E041E4942E909E600196
:102A5000919ED00C112488E592E0C80ED91EE12C7D
:102A6000F12CB7016A0D7B1D8BE894E00E94851C58
:102A7000F60181936F01FFEFEF1AFF0A84E0E81679
:102A8000F10479F70F5F1F4F94E0A90EB11C0430D9
:102A90001105E1F620E030E077C038E5A32E32E002
:102AA000B32E812C912C01E010E0C8010E94EC0CA7
:102AB0006B017C01C8010297029760F520E030E0CD
:102AC000A901C701B6010E94082187FF0DC020E0BF
:102AD00030E04CE852ECC701B6010E940821782E84
:102AE000771C7724771C0DC07724739420E030E0A6
:102AF0004CE852E4C701B6010E94932218160CF06C
:102B0000712CC982DA82EB82FC82772019F00E9454
:102B1000430CFDCFF7FAF094F7F8F094C982DA820B
:102B2000EB82FC82F501C082D182E282F382CC2466
:102B3000C394D12CCC0EDD1EE12CF12CF601419179
:102B40006F01B701680D791D8BE894E00E94881C25
:102B5000FFEFEF1AFF0A84E0E816F10479F70F5F40
:102B60001F4F94E0890E911CE1E4AE0EB11C0530BC
:102B7000110509F09ACF41EA60E170E08BE894E03A
:102B80000E94881C21E030E0C9010F900F900F9047
:102B90000F90DF91CF911F910F91FF90EF90DF90F9
:102BA000CF90BF90AF909F908F907F90089510929C
:102BB00058021092590210925A0210925B0210921F
:102BC000990210929A0210929B0210929C0210920B
:102BD000DA021092DB021092DC021092DD021092F7
:102BE0001B0310921C0310921D0310921E0340EA57
:102BF00060E170E08BE894E00E94881C0E94071559
:102C000080E090E00895AF92BF92CF92DF92EF9272
:102C1000FF920F931F93CF93DF9380913603882306
:102C200009F4D7C03091380320913703321780F070
:102C300010923803ECE1F1E080E090E030E004C075
:102C4000118210820196B29682179307CCF3C1C00D
:102C500082E2389FE0011124CA5EDE4F10928A049E
:102C600010928904088119810130110539F0023070
:102C7000110509F45EC0012B51F1ABC08E819F811B
:102C8000892B41F40E94D61C6A837B838C839D83AD
:102C90001F830E830E94D61C288539856901EE2486
:102CA000D7FCE094FE2C0A811B812C813D81C00E53
:102CB000D11EE21EF31EC616D706E806F90608F076
:102CC00088C0809138038F5F8093380382C08E81E3
:102CD0009F81892B71F0E8E3F2E080819181892B5B
:102CE00009F477C0EF5BFF4F83E0EC33F807A9F7F7
:102CF0006DC00E94D61C6A837B838C839D836E018A
:102D0000E12CF12CEFEFEE1AFE0AF6014285538515
:102D10006485758502E91AE026E83FE3C7010E9451
:102D20002F04F4E0CF0ED11C84E0E816F10451F733
:102D300048C08E819F81892B61F10E94D61C288515
:102D400039856901EE24D7FCE094FE2C0A811B81B1
:102D50002C813D81C00ED11EE21EF31EC616D70681
:102D6000E806F906B0F5809138038F5F8093380349
:102D700010922702109226021092680210926702A7
:102D80001092A9021092A8021092EA021092E9028F
:102D900020C00E94D61C6A837B838C839D83AE886F
:102DA000BF88C88CD98CEA88FB880C891D892E8540
:102DB0003F85488959896A857B858C859D850E94D8
:102DC000BE0081E090E09F838E8303C03F5F30931D
:102DD0003803DF91CF911F910F91FF90EF90DF901B
:102DE000CF90BF90AF9008958F929F92AF92BF9275
:102DF000CF92DF92EF92FF920F931F93CF93DF93C7
:102E0000CDB7DEB7FC0111821082178216821186BF
:102E10001086428753876487758706871787208BBC
:102E2000318BC28AD38AE48AF58A868A978AA08EF1
:102E3000B18EDF91CF911F910F91FF90EF90DF90B6
:102E4000CF90BF90AF909F908F900895CF93DF93D6
:102E5000CDB7DEB78091370392E2899FD00111246C
:102E6000AA5EBE4F92E2FE01359601900D929A95B0
:102E7000E1F78F5F80933703DF91CF91089501973A
:102E800021E4289FF001299FF00D1124EA5DFD4FF8
:102E9000208131812230310539F02330310551F064
:102EA00021303105D9F406C082899389892BC1F07C
:102EB00083E0089521E4289FF001299FF00D11245B
:102EC000EA5DFD4F20E030E0A90160A571A582A573
:102ED00093A50E94932218162CF402C080E0089556
:102EE00081E0089582E008952F923F924F925F9281
:102EF0006F927F928F929F92AF92BF92CF92DF920A
:102F0000EF92FF920F931F93CF93DF9300D000D0E7
:102F1000CDB7DEB79C838B83680F791FFB01319798
:102F20008081882391F06FEF85E994E00E94F11E83
:102F300063E085E994E00E94F11E61E185E994E097
:102F40000E94F11E2FEF3FEF95C4AB81BC818C91A5
:102F5000823459F038F48233E0F0863330F08E3327
:102F6000C1F403C084548330A0F4EB81FC818281DE
:102F7000843078F06FEF85E994E00E94F11E63E001
:102F800085E994E00E94F11E61E185E994E00E94E8
:102F9000F11EAB81BC814C9150E0FA01F097E83210
:102FA000F10508F056C4EC5CFF4F0C94822310929C
:102FB00057021092560210929802109297021092A5
:102FC000D9021092D80210921A03109219034AC320
:102FD000AB81BC811296EC91B1E4EB9FF00111241E
:102FE000EA5DFD4FAB81BC8113968C911397868B64
:102FF000178A12968C9190E001960E94F30F32C3CB
:10300000AB81BC811296EC91B1E4EB9FF0011124ED
:10301000EA5DFD4F868918C3EB81FC81C380D480B3
:10302000E580F68022E93AE046E050E4C701B601C7
:103030000E94932218165CF022E93AE046E050EC38
:10304000C701B6010E94082187FD0AC011C022E90C
:10305000C22E2AE0D22E26E0E22E20E4F22E08C074
:1030600092E9C92E9AE0D92E96E0E92E90ECF92E3D
:10307000AB81BC811296EC91B1E4EB9FF00111247D
:10308000EA5DFD4F86899789029721F4F7FAF0945B
:10309000F7F8F094C0A6D1A6E2A6F3A6E3C2AB81EE
:1030A000BC811296EC91B1E4EB9FF0011124EA5D32
:1030B000FD4F80A591A5A2A5B3A5EDC1CB80DC8075
:1030C000E2E0CE0ED11C8EE4A82E82E0B82EE12CD8
:1030D000F12CFFEFEF1AFF0AD5010D911D912D91F3
:1030E0003C91F60141915191619171916F01C7013C
:1030F0000E946601F1E4AF0EB11C24E0E216F10477
:1031000041F7B0C2CB80DC8082E0C80ED11C0EE457
:10311000A02E02E0B02EE12CF12C9FEFE91AF90A63
:10312000D5010D911D912D913C91F6014191519147
:10313000619171916F01C7010E94B802F1E4AF0E75
:10314000B11C24E0E216F10441F78CC2CB80DC8094
:1031500082E0C80ED11C1EE4A12E12E0B12EE12C9B
:10316000F12C9FEFE91AF90AD5010D911D912D91CE
:103170003C91F60141915191619171916F01C701AB
:103180000E942F04F1E4AF0EB11C24E0E216F1041A
:1031900041F768C2EB80FC8082E0E80EF11C00E0A1
:1031A00010E00F5F1F4FD7014D915D916D917D91A3
:1031B0007D01C8010E9410010430110591F752C22F
:1031C0008091520290915302A0915402B091550205
:1031D0008093610490936204A0936304B0936404A9
:1031E0008091930290919402A0919502B0919602E1
:1031F0008093650490936604A0936704B093680479
:103200008091D4029091D502A091D602B091D702BC
:103210008093690490936A04A0936B04B0936C0448
:103220008091150390911603A0911703B091180394
:1032300080936D0490936E04A0936F04B093700418
:1032400060E170E0C0C2B2E5CB2EB2E0DB2EE12C33
:10325000F12C87010F591B4FF60164817581882776
:1032600077FD8095982F0E94AA212BED3FE049EC35
:1032700050E40E9497229B01AC01D6016D917D9193
:103280008D919C910E94A420F801608371838283B8
:103290009383F1E4CF0ED11C24E0E20EF11C80E117
:1032A000E816F104B1F6CCCF0E94D61C60936104FD
:1032B000709362048093630490936404809152023B
:1032C00090915302A0915402B091550280936504ED
:1032D00090936604A0936704B0936804809193026E
:1032E00090919402A0919502B09196028093690406
:1032F00090936A04A0936B04B0936C048091D40201
:103300009091D502A091D602B091D70280936D041E
:1033100090936E04A0936F04B09370048091150392
:1033200090911603A0911703B09118038093710434
:1033300090937204A0937304B093740464E170E0FA
:1033400042C20E94D61C6093610470936204809311
:10335000630490936404A2E5CA2EA2E0DA2E04E08E
:1033600010E0F1E6EF2EF4E0FF2EE00EF11ED601A4
:1033700014966D917C911597882777FD8095982FED
:103380000E94AA212BED3FE049EC50E40E949722D5
:103390009B01AC01F60160817181828193810E9461
:1033A000A420D7016D937D938D939C931397B1E4E3
:1033B000CB0ED11C0C5F1F4F0431110591F6BECF0F
:1033C000AB81BC811296EC918E2F90E0B1E4EB9F23
:1033D000F0011124EA5DFD4F00A511A522A533A53A
:1033E000EB81FC81438154816581768101960E9445
:1033F000660138C1AB81BC811296EC918E2F90E0B2
:10340000B1E4EB9FF0011124EA5DFD4F00A511A589
:1034100022A533A5EB81FC814381548165817681AE
:1034200001960E94B8021EC1AB81BC811296EC913C
:103430008E2F90E0B1E4EB9FF0011124EA5DFD4F87
:1034400000A511A522A533A5EB81FC814381548100
:103450006581768101960E942F0404C1AB81BC81F5
:1034600013964D915D916D917C91169712968C916A
:1034700090E001960E941001F5C0AB81BC811296CC
:10348000EC91B1E4EB9FF0011124EA5DFD4F84A5BE
:1034900095A5A6A5B7A58093610490936204A09317
:1034A0006304B093640493C0EB81FC810281F1E476
:1034B0000F9F800111240A5D1D4FD801D0966D9198
:1034C0007C91D197882777FD8095982F0E94AA211B
:1034D0002BED3FE049EC50E40E9497229B01AC01A8
:1034E000F80164A575A586A597A50E94A42067C0CC
:1034F0000E94D61C609361047093620480936304FD
:1035000090936404AB81BC811296EC91B1E4EB9F83
:10351000F0011124EA5DFD4F84A595A5A6A5B7A5E8
:103520008093650490936604A0936704B093680445
:1035300068E070E048C1EB81FC81828190E00196F7
:103540000E943F1781C082E99AE0A6E0B0E4A3CFD1
:10355000AB81BC8112968C9190E00E942D0C2FC003
:103560000E94FC072CC080912A0390912B03A0910C
:103570002C03B0912D038FCFEB81FC81828193814D
:10358000A481B58180932A0390932B03A0932C03ED
:10359000B0932D0367C080912E0390912F0325E0F7
:1035A000289FB001299F700D112480E090E00E94B7
:1035B000A82120E030E04AE754E40E940F21609304
:1035C000610470936204809363049093640464E0E4
:1035D00070E0F9C020E030E04AE754E4AB81BC8100
:1035E00012966D917D918D919C9115970E949722D5
:1035F00020E030E040EA50E40E940F210E947C214C
:1036000070932F0360932E032DC00E944D062AC095
:103610008FE31AC0EB81FC81428153816481758103
:103620004093310350933203609333037093340318
:1036300086818093350316C0AB81BC8112968C9134
:10364000809330030FC084E08093610461E070E0F8
:10365000BAC0EB81FC81428161E170E08BE894E0CB
:103660000E94881C60E070E080E090E0AEC00CE357
:1036700012E08B819C8105969A838983212C312CC1
:10368000E5E08E2E912CA12CB12C44244A94542C8C
:103690003201AB81BC8112968C9190E0022C02C069
:1036A000959587950A94E2F780FF30C0E981FA8109
:1036B00032978081F80180831182E981FA81319704
:1036C0008081D8011C968C931C971D961C92E981D1
:1036D000FA81C080D180E280F380C10101960E940E
:1036E000F30FF7FE08C0D80118964D925D926D92C7
:1036F0007C921B970BC0C701B601A50194010E94E3
:103700006623F8012087318742875387FFEF2F1AFE
:103710003F0A0F5B1F4F89819A8106969A8389839E
:1037200094E02916310409F0B4CF9CCF0E94D61C36
:1037300060936104709362048093630490936404C3
:1037400062E5862E62E0962E75E7C72E74E0D72ECE
:1037500004E010E0E12CF12CAFEFEA1AFA0A51E68E
:10376000A52E54E0B52EA00EB11EF4016481758122
:10377000882777FD8095982F0E94AA212BED3FE0A6
:1037800049EC50E40E9497229B01AC01D4016D9159
:103790007D918D919C910E94A420F501608371839D
:1037A00082839383C7010E943F17D6018D936D01D9
:1037B000B1E48B0E911C0C5F1F4FE4E0EE16F10498
:1037C00059F668E170E081E694E00E94CD0F50C0A8
:1037D000AB81BC81189680E090E021E4FD01359733
:1037E0003081EB81FC814281FC01249FE00DF11DC1
:1037F0001124EA5DFD4F37AB3D91EB81FC814281A5
:10380000FC01249FE00DF11D1124EA5DFD4F34AF52
:1038100001968530910511F725CFE6E2F2E080E0D0
:1038200090E044E050E0AB81BC8112962C9130E0F6
:10383000082E02C0359527950A94E2F720FF02C0B2
:10384000518340830196EF5BFF4F8430910559F718
:1038500009CF6FEF85E994E00E94F11E63E085E9EE
:1038600094E00E94F11E61E185E994E00E94F11E5E
:1038700020E030E0C9010F900F900F900F90DF9182
:10388000CF911F910F91FF90EF90DF90CF90BF905D
:10389000AF909F908F907F906F905F904F903F90F0
:1038A0002F90089585E994E00E948E1E181619063F
:1038B0005CF585E994E00E94BD1E97FF05C010925B
:1038C0005B0310925A03089520915A0330915B03D1
:1038D000F901E45AFC4F8083C901019690935B0380
:1038E00080935A0382309105ECF260915D0370E0A1
:1038F00068177907B9F68CE593E00E947417109267
:103900005B0310925A03CECF0895CB010C94882309
:10391000CB01642F0C9490231F920F920FB60F923D
:1039200011242F933F938F939F93AF93BF938091D5
:103930008C0490918D04A0918E04B0918F043091ED
:103940009404232F2D5F2D3720F40196A11DB11D66
:1039500005C0232F2A570296A11DB11D2093940460
:1039600080938C0490938D04A0938E04B0938F0465
:103970008091900490919104A0919204B09193044D
:103980000196A11DB11D8093900490939104A09382
:103990009204B0939304BF91AF919F918F913F9107
:1039A0002F910F900FBE0F901F9018950F931F939C
:1039B0008FB7F89400918C0410918D0420918E049F
:1039C00030918F048FBFB801C9011F910F910895E5
:1039D0000F931F939FB7F894009190041091910456
:1039E000209192043091930486B5A89B06C08F3F26
:1039F00021F00F5F1F4F2F4F3F4F9FBF322F212FBF
:103A0000102F0027080F111D211D311D42E0000F4E
:103A1000111F221F331F4A95D1F7B801C9011F9109
:103A20000F910895CF92DF92EF92FF92CF93DF93A1
:103A30006B017C010E94E81CEB010EC00E94E81C97
:103A40006C1B7D0B683E734038F081E0C81AD108CA
:103A5000E108F108C851DC4FC114D104E104F104BC
:103A600069F7DF91CF91FF90EF90DF90CF900895AD
:103A7000789484B5826084BD84B5816084BD85B549
:103A8000826085BD85B5816085BDEEE6F0E0808110
:103A900081608083E1E8F0E0108280818260808331
:103AA000808181608083E0E8F0E0808181608083B4
:103AB000E1EBF0E0808184608083E0EBF0E08081E6
:103AC00081608083EAE7F0E0808184608083808188
:103AD0008260808380818160808380818068808330
:103AE0001092C1000895833069F028F48130A1F06C
:103AF000823011F514C08630B1F08730C1F08430C7
:103B0000D9F404C0809180008F7703C08091800039
:103B10008F7D80938000089584B58F7702C084B52F
:103B20008F7D84BD08958091B0008F7703C0809110
:103B3000B0008F7D8093B0000895CF93DF9390E025
:103B4000FC01E651FF4F4491FC01E250FF4F84918C
:103B5000882341F190E0880F991FFC01E45EFE4F3D
:103B600025913491D9018E5E9E4FFC0185919491EF
:103B7000C82FD92F9FB7F8948C91611106C040953A
:103B800084238C938881842308C0623041F4242FDD
:103B9000209582238C938881842B888302C0842B78
:103BA0008C939FBFDF91CF9108950F931F93CF9375
:103BB000DF931F92CDB7DEB7282F30E0F901EA522C
:103BC000FF4F8491F901E651FF4F1491F901E25042
:103BD000FF4F04910023D1F0882321F069830E94D4
:103BE000731D6981E02FF0E0EE0FFF1FEE5EFE4FC8
:103BF00085919491DC019FB7F8948C91611103C079
:103C00001095812301C0812B8C939FBF0F90DF9172
:103C1000CF911F910F9108958E3008F08E508770CC
:103C20002091000140E4249F90011124822B809375
:103C30007C0080917A00806480937A0080917A0081
:103C400086FDFCCF2091780030917900932F80E0A1
:103C5000AC01422B9A01C90108951F93CF93DF93C2
:103C6000182FEB0161E00E949D1D209711F460E088
:103C700004C0CF3FD10539F461E0812FDF91CF91AE
:103C80001F910C94D51DE12FF0E0EA52FF4FE49113
:103C9000E330B9F028F4E13051F0E230B1F50CC076
:103CA000E63019F1E73049F1E43079F514C084B514
:103CB000806884BDC7BD2EC084B5806284BDC8BD88
:103CC00029C080918000806880938000D093890013
:103CD000C09388001FC08091800080628093800024
:103CE000D0938B00C0938A0015C08091B00080688B
:103CF0008093B000C093B3000DC08091B00080628B
:103D00008093B000C093B40005C0C038D1050CF05A
:103D1000B3CFADCFDF91CF911F910895FC01848582
:103D20009585FC01E05CFF4F20813181FC01EE5B59
:103D3000FF4F80819181281B390B2F733327C901D5
:103D40000895FC0184859585FC01E05CFF4F40816E
:103D50005181FC01EE5BFF4F2081318142175307F7
:103D600041F00190F081E02DE80FF91F208130E053
:103D700002C02FEF3FEFC9010895FC0184859585AE
:103D8000FC01E05CFF4F40815181FC01EE5BFF4F85
:103D9000208131814217530771F0A081B181A80FB2
:103DA000B91F2C918081918101968F7399279183FE
:103DB000808330E002C02FEF3FEFC9010895FC017E
:103DC00086859785FC01E05CFF4FDC01AE5BBF4F51
:103DD000408151812D913C91119742175307C1F7B2
:103DE0000895CF93DF93FC0126853785D901A05C28
:103DF000BF4F8D919C91119701968F739927E9017F
:103E0000CE5BDF4F4881598184179507D9F30D9018
:103E1000BC91A02DA20FB31F6C93A685B785A05CA3
:103E2000BF4F11969C938E93A689B7892C9181E000
:103E300090E0058C02C0880F991F0A94E2F7282BA6
:103E40002C9381E090E0DF91CF91089508951F9227
:103E50000F920FB60F9211242F933F934F938F938E
:103E60009F93EF93FF934091C60080913805909106
:103E7000390501968F73992720913A0530913B05BA
:103E80008217930759F0E0913805F0913905E85011
:103E9000FB4F40839093390580933805FF91EF9154
:103EA0009F918F914F913F912F910F900FBE0F9047
:103EB0001F90189585E994E00E948E1E892B11F0C1
:103EC0000C94261F08951F920F920FB60F92112483
:103ED0002F933F938F939F93EF93FF932091F4043D
:103EE0003091F5048091F6049091F7042817390772
:103EF00031F48091C1008F7D8093C10014C0E091A6
:103F0000F604F091F704EC54FB4F20818091F60405
:103F10009091F70401968F7399279093F7048093FB
:103F2000F6042093C600FF91EF919F918F913F91EE
:103F30002F910F900FBE0F901F901895CF92DF9288
:103F4000EF92FF92CF93DF93EC016A017B01411561
:103F500081EE580761057105F9F0EC89FD8981E072
:103F600090E00E8C02C0880F991F0A94E2F78083BC
:103F700060E079E08DE390E0A70196010E94442380
:103F80002150310941095109569547953795279593
:103F9000211580E1380798F0EC89FD89108260E8EE
:103FA00074E88EE190E0A70196010E94442321501D
:103FB0003109410951095695479537952795E88963
:103FC000F9893083EA89FB892083EE89FF89408162
:103FD00081E090E09C010A8C02C0220F331F0A94FA
:103FE000E2F7422B4083EE89FF8940819C010B8CD4
:103FF00002C0220F331F0A94E2F7422B4083EE895E
:10400000FF8940819C010C8C02C0220F331F0A944F
:10401000E2F7422B4083EE89FF8920810D8C02C09C
:10402000880F991F0A94E2F7809582238083DF919D
:10403000CF91FF90EF90DF90CF9008951092980469
:104040001092970488EE93E0A0E0B0E0809399048A
:1040500090939A04A0939B04B0939C0485E091E014
:10406000909396048093950488EF94E09093A20433
:104070008093A10484EB94E09093A4048093A30420
:1040800085EC90E09093A6048093A50484EC90E0E6
:104090009093A8048093A70480EC90E09093AA04E6
:1040A0008093A90481EC90E09093AC048093AB04DE
:1040B00086EC90E09093AE048093AD0484E080930E
:1040C000AF0483E08093B00487E08093B10485E07F
:1040D0008093B20481E08093B3040895CF92DF927D
:1040E000EF92FF920F931F93CF93DF936C01EB013D
:1040F0007A01E60EF71E00E010E00BC06991D601D0
:10410000ED91FC910190F081E02DC6010995080F19
:10411000191FCE15DF0591F7C801DF91CF911F91CF
:104120000F91FF90EF90DF90CF9008950E94381D7F
:104130000E94AA06CAE5DFE10E94BF072097E1F3CB
:104140000E945A1FF9CF5058BB27AA270ED0A0C1F2
:1041500069D130F06ED120F031F49F3F11F41EF49C
:104160005EC10EF4E095E7FB54C1E92FB3D180F3B3
:10417000BA17620773078407950718F071F49EF564
:10418000CBC10EF4E0950B2EBA2FA02D0B01B90177
:1041900090010C01CA01A0011124FF27591B99F0BD
:1041A000593F50F4503E68F11A16F040A22F232FC9
:1041B000342F4427585FF3CF469537952795A79519
:1041C000F0405395C9F77EF41F16BA0B620B730BC0
:1041D000840BBAF09150A1F0FF0FBB1F661F771F31
:1041E000881FC2F70EC0BA0F621F731F841F48F4E6
:1041F000879577956795B795F7959E3F08F0B3CF6C
:104200009395880F08F09927EE0F97958795089555
:10421000DCD008F481E0089514D1E3954AC10CD0B4
:1042200037C107D140F0FED030F021F45F3F19F0E4
:10423000F0C0511172C1F3C04DD198F39923C9F365
:104240005523B1F3951B550BBB27AA27621773079C
:10425000840738F09F5F5F4F220F331F441FAA1F50
:10426000A9F333D00E2E3AF0E0E830D09150504010
:10427000E695001CCAF729D0FE2F27D0660F771FBE
:10428000881FBB1F261737074807AB07B0E809F0A0
:10429000BB0B802DBF01FF2793585F4F2AF09E3F35
:1042A000510568F0B6C039C15F3FECF3983EDCF3CE
:1042B000869577956795B795F7959F5FC9F7880FAE
:1042C000911D9695879597F90895E1E0660F771F00
:1042D000881FBB1F621773078407BA0720F0621B91
:1042E000730B840BBA0BEE1F88F7E095089504D08A
:1042F0006894B11112C10895F5D088F09F5790F0DD
:10430000B92F9927B751A0F0D1F0660F771F881FFA
:10431000991F1AF0BA95C9F712C0B13081F0FCD0DC
:10432000B1E00895F9C0672F782F8827B85F39F07A
:10433000B93FCCF3869577956795B395D9F73EF459
:1043400090958095709561957F4F8F4F9F4F089501
:10435000E89409C097FB3EF490958095709561951F
:104360007F4F8F4F9F4F9923A9F0F92F96E9BB27D5
:104370009395F695879577956795B795F111F8CF51
:10438000FAF4BB0F11F460FF1BC06F5F7F4F8F4FBC
:104390009F4F16C0882311F096E911C0772321F0B2
:1043A0009EE8872F762F05C0662371F096E8862F4A
:1043B00070E060E02AF09A95660F771F881FDAF7A1
:1043C000880F9695879597F90895990F0008550FCE
:1043D000AA0BE0E8FEEF16161706E807F907C0F08B
:1043E00012161306E407F50798F0621B730B840B93
:1043F000950B39F40A2661F0232B242B252B21F46D
:1044000008950A2609F4A140A6958FEF811D811D0C
:10441000089597F99F6780E870E060E008959FEF46
:1044200080EC089500240A9416161706180609064B
:10443000089500240A94121613061406050608951A
:10444000EECF50D0E8F3E894E0E0BB279F57F0F0C0
:104450002AED3FE049EC06C0EE0FBB0F661F771F49
:10446000881F28F0B23A62077307840728F0B25A0F
:10447000620B730B840BE3959A9572F7803830F4D6
:104480009A95BB0F661F771F881FD2F79048BAC056
:10449000092E0394000C11F4882352F0BB0F40F452
:1044A000BF2B11F460FF04C06F5F7F4F8F4F9F4F92
:1044B0000895EF93E0FF06C0A2EA2AED3FE049EC41
:1044C0005FEB53DEE5DF0F90039401FC9058E8EBBF
:1044D000F0E0A4C057FD9058440F551F59F05F3FBE
:1044E00071F04795880F97FB991F61F09F3F79F016
:1044F00087950895121613061406551FF2CF469598
:10450000F1DF08C0161617061806991FF1CF869519
:104510007105610508940895E894BB2766277727FD
:10452000CB0197F9089551DF08F48FEF08950BD070
:10453000AFCF78DF28F07DDF18F0952309F069CF41
:104540006ECF1124EACFC6DFA0F3959FD1F3950F6C
:1045500050E0551F629FF001729FBB27F00DB11D07
:10456000639FAA27F00DB11DAA1F649F6627B00D97
:10457000A11D661F829F2227B00DA11D621F739F80
:10458000B00DA11D621F839FA00D611D221F749F8E
:104590003327A00D611D231F849F600D211D822FD5
:1045A000762F6A2F11249F5750408AF0E1F088231C
:1045B0004AF0EE0FFF1FBB1F661F771F881F915029
:1045C0005040A9F79E3F510570F023CFA6CF5F3F23
:1045D000ECF3983EDCF3869577956795B795F7955C
:1045E000E7959F5FC1F7FE2B880F911D96958795E4
:1045F00097F908959F9325DF0F9007FCEE5F59CF41
:104600009F3F31F0915020F4879577956795B79546
:10461000880F911D9695879597F908959F938F938D
:104620007F936F93FF93EF939B01AC0180DFEF913A
:10463000FF9105D02F913F914F915F9178CFDF93FC
:10464000CF931F930F93FF92EF92DF927B018C0128
:10465000689405C0DA2EEF0176DFFE01E894A5919B
:104660002591359145915591AEF3EF017EDDFE0127
:104670009701A801DA9479F7DF90EF90FF900F91FE
:104680001F91CF91DF910895A1E21A2EAA1BBB1BA7
:10469000FD010DC0AA1FBB1FEE1FFF1FA217B3070E
:1046A000E407F50720F0A21BB30BE40BF50B661F24
:1046B000771F881F991F1A9469F7609570958095E8
:1046C00090959B01AC01BD01CF010895052E97FB8C
:1046D00016F4009407D057FD0DD00E94442307FC28
:1046E00009D07EF490958095709561957F4F8F4F9E
:1046F0009F4F089550954095309521953F4F4F4FCE
:104700005F4F0895EE0FFF1F0590F491E02D09947F
:10471000F999FECF92BD81BDF89A992780B5089589
:10472000262FF999FECF1FBA92BD81BD20BD0FB6CD
:10473000F894FA9AF99A0FBE01960895F894FFCF6B
:104740000100000000F11E6E208E1EBD1EA11EDFA6
:024750001E0049
:00000001FF
